{
  "contractName": "Fund",
  "abi": [
    {
      "anonymous": false,
      "inputs": [
        {
          "indexed": true,
          "internalType": "address",
          "name": "previousOwner",
          "type": "address"
        },
        {
          "indexed": true,
          "internalType": "address",
          "name": "newOwner",
          "type": "address"
        }
      ],
      "name": "OwnershipTransferred",
      "type": "event"
    },
    {
      "inputs": [
        {
          "internalType": "address",
          "name": "",
          "type": "address"
        }
      ],
      "name": "allUserFund",
      "outputs": [
        {
          "internalType": "uint256",
          "name": "lpAmount",
          "type": "uint256"
        },
        {
          "internalType": "uint256",
          "name": "tokenAmountIn",
          "type": "uint256"
        },
        {
          "internalType": "uint256",
          "name": "tokenAmountOut",
          "type": "uint256"
        }
      ],
      "stateMutability": "view",
      "type": "function"
    },
    {
      "inputs": [],
      "name": "owner",
      "outputs": [
        {
          "internalType": "address",
          "name": "",
          "type": "address"
        }
      ],
      "stateMutability": "view",
      "type": "function"
    },
    {
      "inputs": [],
      "name": "renounceOwnership",
      "outputs": [],
      "stateMutability": "nonpayable",
      "type": "function"
    },
    {
      "inputs": [],
      "name": "tokenAddr",
      "outputs": [
        {
          "internalType": "address",
          "name": "",
          "type": "address"
        }
      ],
      "stateMutability": "view",
      "type": "function"
    },
    {
      "inputs": [],
      "name": "totalAmount",
      "outputs": [
        {
          "internalType": "uint256",
          "name": "",
          "type": "uint256"
        }
      ],
      "stateMutability": "view",
      "type": "function"
    },
    {
      "inputs": [],
      "name": "totalSupply",
      "outputs": [
        {
          "internalType": "uint256",
          "name": "",
          "type": "uint256"
        }
      ],
      "stateMutability": "view",
      "type": "function"
    },
    {
      "inputs": [
        {
          "internalType": "address",
          "name": "newOwner",
          "type": "address"
        }
      ],
      "name": "transferOwnership",
      "outputs": [],
      "stateMutability": "nonpayable",
      "type": "function"
    },
    {
      "inputs": [
        {
          "internalType": "address",
          "name": "_tokenAddr",
          "type": "address"
        }
      ],
      "name": "initialize",
      "outputs": [],
      "stateMutability": "nonpayable",
      "type": "function"
    },
    {
      "inputs": [
        {
          "internalType": "address",
          "name": "_userAddr",
          "type": "address"
        },
        {
          "internalType": "uint256",
          "name": "_tokenAmount",
          "type": "uint256"
        }
      ],
      "name": "deposit",
      "outputs": [
        {
          "internalType": "uint256",
          "name": "lpAmount",
          "type": "uint256"
        }
      ],
      "stateMutability": "nonpayable",
      "type": "function"
    },
    {
      "inputs": [
        {
          "internalType": "address",
          "name": "_userAddr",
          "type": "address"
        },
        {
          "internalType": "uint256",
          "name": "_lpAmount",
          "type": "uint256"
        }
      ],
      "name": "withdraw",
      "outputs": [
        {
          "internalType": "uint256",
          "name": "tokenAmount",
          "type": "uint256"
        }
      ],
      "stateMutability": "nonpayable",
      "type": "function"
    },
    {
      "inputs": [
        {
          "internalType": "address",
          "name": "_userAddr",
          "type": "address"
        },
        {
          "internalType": "uint256",
          "name": "_tradeAmount",
          "type": "uint256"
        },
        {
          "internalType": "uint256",
          "name": "_plFlag",
          "type": "uint256"
        },
        {
          "internalType": "uint256",
          "name": "_plAmount",
          "type": "uint256"
        }
      ],
      "name": "tradePL",
      "outputs": [],
      "stateMutability": "nonpayable",
      "type": "function"
    }
  ],
  "bytecode": "0x608060405234801561001057600080fd5b5060006100216100c460201b60201c565b9050806000806101000a81548173ffffffffffffffffffffffffffffffffffffffff021916908373ffffffffffffffffffffffffffffffffffffffff1602179055508073ffffffffffffffffffffffffffffffffffffffff16600073ffffffffffffffffffffffffffffffffffffffff167f8be0079c531659141344cd1fd0a4f28419497f9722a3daafe3b4186f6b6457e060405160405180910390a3506100cc565b600033905090565b6110ab806100db6000396000f3fe608060405234801561001057600080fd5b50600436106100a95760003560e01c80638da5cb5b116100715780638da5cb5b1461018a578063a1894b50146101be578063a64ec3ba14610224578063c4d66de814610286578063f2fde38b146102ca578063f3fef3a31461030e576100a9565b806318160ddd146100ae5780631a39d8ef146100cc57806347e7ef24146100ea5780635fbe4d1d1461014c578063715018a614610180575b600080fd5b6100b6610370565b6040518082815260200191505060405180910390f35b6100d4610376565b6040518082815260200191505060405180910390f35b6101366004803603604081101561010057600080fd5b81019080803573ffffffffffffffffffffffffffffffffffffffff1690602001909291908035906020019092919050505061037c565b6040518082815260200191505060405180910390f35b610154610557565b604051808273ffffffffffffffffffffffffffffffffffffffff16815260200191505060405180910390f35b61018861057d565b005b610192610703565b604051808273ffffffffffffffffffffffffffffffffffffffff16815260200191505060405180910390f35b610200600480360360208110156101d457600080fd5b81019080803573ffffffffffffffffffffffffffffffffffffffff16906020019092919050505061072c565b60405180848152602001838152602001828152602001935050505060405180910390f35b6102846004803603608081101561023a57600080fd5b81019080803573ffffffffffffffffffffffffffffffffffffffff169060200190929190803590602001909291908035906020019092919080359060200190929190505050610756565b005b6102c86004803603602081101561029c57600080fd5b81019080803573ffffffffffffffffffffffffffffffffffffffff169060200190929190505050610824565b005b61030c600480360360208110156102e057600080fd5b81019080803573ffffffffffffffffffffffffffffffffffffffff169060200190929190505050610940565b005b61035a6004803603604081101561032457600080fd5b81019080803573ffffffffffffffffffffffffffffffffffffffff16906020019092919080359060200190929190505050610b4b565b6040518082815260200191505060405180910390f35b60035481565b60025481565b6000610386610cfe565b73ffffffffffffffffffffffffffffffffffffffff1660008054906101000a900473ffffffffffffffffffffffffffffffffffffffff1673ffffffffffffffffffffffffffffffffffffffff1614610446576040517f08c379a00000000000000000000000000000000000000000000000000000000081526004018080602001828103825260208152602001807f4f776e61626c653a2063616c6c6572206973206e6f7420746865206f776e657281525060200191505060405180910390fd5b6000600354141561045957819050610499565b6000600254141561046c57819050610498565b61049560025461048760035485610d0690919063ffffffff16565b610d8c90919063ffffffff16565b90505b5b6104ae82600254610dd690919063ffffffff16565b6002819055506104c981600354610dd690919063ffffffff16565b6003819055506000600460008573ffffffffffffffffffffffffffffffffffffffff1673ffffffffffffffffffffffffffffffffffffffff1681526020019081526020016000209050610529828260000154610dd690919063ffffffff16565b8160000181905550610548838260010154610dd690919063ffffffff16565b81600101819055505092915050565b600160009054906101000a900473ffffffffffffffffffffffffffffffffffffffff1681565b610585610cfe565b73ffffffffffffffffffffffffffffffffffffffff1660008054906101000a900473ffffffffffffffffffffffffffffffffffffffff1673ffffffffffffffffffffffffffffffffffffffff1614610645576040517f08c379a00000000000000000000000000000000000000000000000000000000081526004018080602001828103825260208152602001807f4f776e61626c653a2063616c6c6572206973206e6f7420746865206f776e657281525060200191505060405180910390fd5b600073ffffffffffffffffffffffffffffffffffffffff1660008054906101000a900473ffffffffffffffffffffffffffffffffffffffff1673ffffffffffffffffffffffffffffffffffffffff167f8be0079c531659141344cd1fd0a4f28419497f9722a3daafe3b4186f6b6457e060405160405180910390a360008060006101000a81548173ffffffffffffffffffffffffffffffffffffffff021916908373ffffffffffffffffffffffffffffffffffffffff160217905550565b60008060009054906101000a900473ffffffffffffffffffffffffffffffffffffffff16905090565b60046020528060005260406000206000915090508060000154908060010154908060020154905083565b61075e610cfe565b73ffffffffffffffffffffffffffffffffffffffff1660008054906101000a900473ffffffffffffffffffffffffffffffffffffffff1673ffffffffffffffffffffffffffffffffffffffff161461081e576040517f08c379a00000000000000000000000000000000000000000000000000000000081526004018080602001828103825260208152602001807f4f776e61626c653a2063616c6c6572206973206e6f7420746865206f776e657281525060200191505060405180910390fd5b50505050565b61082c610cfe565b73ffffffffffffffffffffffffffffffffffffffff1660008054906101000a900473ffffffffffffffffffffffffffffffffffffffff1673ffffffffffffffffffffffffffffffffffffffff16146108ec576040517f08c379a00000000000000000000000000000000000000000000000000000000081526004018080602001828103825260208152602001807f4f776e61626c653a2063616c6c6572206973206e6f7420746865206f776e657281525060200191505060405180910390fd5b80600160006101000a81548173ffffffffffffffffffffffffffffffffffffffff021916908373ffffffffffffffffffffffffffffffffffffffff1602179055506000600281905550600060038190555050565b610948610cfe565b73ffffffffffffffffffffffffffffffffffffffff1660008054906101000a900473ffffffffffffffffffffffffffffffffffffffff1673ffffffffffffffffffffffffffffffffffffffff1614610a08576040517f08c379a00000000000000000000000000000000000000000000000000000000081526004018080602001828103825260208152602001807f4f776e61626c653a2063616c6c6572206973206e6f7420746865206f776e657281525060200191505060405180910390fd5b600073ffffffffffffffffffffffffffffffffffffffff168173ffffffffffffffffffffffffffffffffffffffff161415610a8e576040517f08c379a000000000000000000000000000000000000000000000000000000000815260040180806020018281038252602681526020018061102f6026913960400191505060405180910390fd5b8073ffffffffffffffffffffffffffffffffffffffff1660008054906101000a900473ffffffffffffffffffffffffffffffffffffffff1673ffffffffffffffffffffffffffffffffffffffff167f8be0079c531659141344cd1fd0a4f28419497f9722a3daafe3b4186f6b6457e060405160405180910390a3806000806101000a81548173ffffffffffffffffffffffffffffffffffffffff021916908373ffffffffffffffffffffffffffffffffffffffff16021790555050565b6000610b55610cfe565b73ffffffffffffffffffffffffffffffffffffffff1660008054906101000a900473ffffffffffffffffffffffffffffffffffffffff1673ffffffffffffffffffffffffffffffffffffffff1614610c15576040517f08c379a00000000000000000000000000000000000000000000000000000000081526004018080602001828103825260208152602001807f4f776e61626c653a2063616c6c6572206973206e6f7420746865206f776e657281525060200191505060405180910390fd5b6000600460008573ffffffffffffffffffffffffffffffffffffffff1673ffffffffffffffffffffffffffffffffffffffff1681526020019081526020016000209050610c6f838260000154610e5e90919063ffffffff16565b8160000181905550610ca0600354610c9260025486610d0690919063ffffffff16565b610d8c90919063ffffffff16565b9150610cb782600254610e5e90919063ffffffff16565b600281905550610cd283600354610e5e90919063ffffffff16565b600381905550610cef828260020154610dd690919063ffffffff16565b81600201819055505092915050565b600033905090565b600080831415610d195760009050610d86565b6000828402905082848281610d2a57fe5b0414610d81576040517f08c379a00000000000000000000000000000000000000000000000000000000081526004018080602001828103825260218152602001806110556021913960400191505060405180910390fd5b809150505b92915050565b6000610dce83836040518060400160405280601a81526020017f536166654d6174683a206469766973696f6e206279207a65726f000000000000815250610ea8565b905092915050565b600080828401905083811015610e54576040517f08c379a000000000000000000000000000000000000000000000000000000000815260040180806020018281038252601b8152602001807f536166654d6174683a206164646974696f6e206f766572666c6f77000000000081525060200191505060405180910390fd5b8091505092915050565b6000610ea083836040518060400160405280601e81526020017f536166654d6174683a207375627472616374696f6e206f766572666c6f770000815250610f6e565b905092915050565b60008083118290610f54576040517f08c379a00000000000000000000000000000000000000000000000000000000081526004018080602001828103825283818151815260200191508051906020019080838360005b83811015610f19578082015181840152602081019050610efe565b50505050905090810190601f168015610f465780820380516001836020036101000a031916815260200191505b509250505060405180910390fd5b506000838581610f6057fe5b049050809150509392505050565b600083831115829061101b576040517f08c379a00000000000000000000000000000000000000000000000000000000081526004018080602001828103825283818151815260200191508051906020019080838360005b83811015610fe0578082015181840152602081019050610fc5565b50505050905090810190601f16801561100d5780820380516001836020036101000a031916815260200191505b509250505060405180910390fd5b506000838503905080915050939250505056fe4f776e61626c653a206e6577206f776e657220697320746865207a65726f2061646472657373536166654d6174683a206d756c7469706c69636174696f6e206f766572666c6f77a2646970667358221220f4ea93152227d4f095518c2cff4a4ea0afbe411140ee0cf65a923a438f0c9bf564736f6c634300060c0033",
  "immutableReferences": {},
  "source": "// SPDX-License-Identifier: MIT\npragma solidity ^0.6.12;\n\nimport \"../openzeppelin/contracts/math/SafeMath.sol\";\nimport \"../openzeppelin/contracts/access/Ownable.sol\";\nimport \"../interface/IFund.sol\";\n\ncontract Fund is Ownable, IFund {\n    using SafeMath for uint256;\n    address public tokenAddr;\n    uint256 public totalAmount;\n    uint256 public totalSupply;\n    struct UserFundInfo {\n        uint256 lpAmount;       // 用户当前拥有的lptoken数量\n        uint256 tokenAmountIn;  // 用户累计充值的token数量\n        uint256 tokenAmountOut; // 用户累计提现的token数量\n    }\n\n    mapping(address => UserFundInfo) public allUserFund;\n\n    function initialize(address _tokenAddr) public onlyOwner {\n        tokenAddr = _tokenAddr;\n        totalAmount = 0;\n        totalSupply = 0;\n    }\n\n    function deposit(\n        address _userAddr,\n        uint256 _tokenAmount\n    ) public override onlyOwner returns (uint256 lpAmount) {\n        if (totalSupply == 0) {\n            lpAmount = _tokenAmount;\n        } else {\n            if (totalAmount == 0) {\n                lpAmount = _tokenAmount;\n            } else {\n                lpAmount = _tokenAmount.mul(totalSupply).div(totalAmount); //池子的余额需要再加上头寸的浮动盈亏\n            }\n        }\n        totalAmount = totalAmount.add(_tokenAmount);\n        totalSupply = totalSupply.add(lpAmount);\n        UserFundInfo storage userFundInfo = allUserFund[_userAddr];\n        userFundInfo.lpAmount = userFundInfo.lpAmount.add(lpAmount);\n        userFundInfo.tokenAmountIn = userFundInfo.tokenAmountIn.add(_tokenAmount);\n    }\n\n    function withdraw(\n        address _userAddr,\n        uint256 _lpAmount\n    ) public override onlyOwner returns (uint256 tokenAmount) {\n        UserFundInfo storage userFundInfo = allUserFund[_userAddr];\n        userFundInfo.lpAmount = userFundInfo.lpAmount.sub(_lpAmount);\n        tokenAmount = _lpAmount.mul(totalAmount).div(totalSupply); //池子的余额需要再加上头寸的浮动盈亏\n        totalAmount = totalAmount.sub(tokenAmount);\n        totalSupply = totalSupply.sub(_lpAmount);\n        userFundInfo.tokenAmountOut = userFundInfo.tokenAmountOut.add(tokenAmount);\n    }\n\n    function tradePL(\n        address _userAddr,\n        uint256 _tradeAmount,\n        uint256 _plFlag,\n        uint256 _plAmount\n    ) public override onlyOwner {}\n}\n",
  "sourcePath": "/Users/tong/Projects/drep-project/teemo-private/contracts/fund/Fund.sol",
  "compiler": {
    "name": "solc",
    "version": "0.6.12+commit.27d51765.Emscripten.clang"
  },
  "schemaVersion": "3.3.2",
  "updatedAt": "2021-01-15T12:05:33.579Z",
  "devdoc": {
    "kind": "dev",
    "methods": {
      "owner()": {
        "details": "Returns the address of the current owner."
      },
      "renounceOwnership()": {
        "details": "Leaves the contract without owner. It will not be possible to call `onlyOwner` functions anymore. Can only be called by the current owner. NOTE: Renouncing ownership will leave the contract without an owner, thereby removing any functionality that is only available to the owner."
      },
      "transferOwnership(address)": {
        "details": "Transfers ownership of the contract to a new account (`newOwner`). Can only be called by the current owner."
      }
    },
    "version": 1
  },
  "userdoc": {
    "kind": "user",
    "methods": {},
    "version": 1
  }
}