{
  "contractName": "Fund",
  "abi": [
    {
      "anonymous": false,
      "inputs": [
        {
          "indexed": true,
          "internalType": "address",
          "name": "previousOwner",
          "type": "address"
        },
        {
          "indexed": true,
          "internalType": "address",
          "name": "newOwner",
          "type": "address"
        }
      ],
      "name": "OwnershipTransferred",
      "type": "event"
    },
    {
      "inputs": [
        {
          "internalType": "address",
          "name": "",
          "type": "address"
        }
      ],
      "name": "allUserFund",
      "outputs": [
        {
          "internalType": "uint256",
          "name": "lpAmount",
          "type": "uint256"
        },
        {
          "internalType": "uint256",
          "name": "tokenAmountIn",
          "type": "uint256"
        },
        {
          "internalType": "uint256",
          "name": "tokenAmountOut",
          "type": "uint256"
        }
      ],
      "stateMutability": "view",
      "type": "function"
    },
    {
      "inputs": [],
      "name": "owner",
      "outputs": [
        {
          "internalType": "address",
          "name": "",
          "type": "address"
        }
      ],
      "stateMutability": "view",
      "type": "function"
    },
    {
      "inputs": [],
      "name": "renounceOwnership",
      "outputs": [],
      "stateMutability": "nonpayable",
      "type": "function"
    },
    {
      "inputs": [],
      "name": "tokenAddr",
      "outputs": [
        {
          "internalType": "address",
          "name": "",
          "type": "address"
        }
      ],
      "stateMutability": "view",
      "type": "function"
    },
    {
      "inputs": [],
      "name": "totalAmount",
      "outputs": [
        {
          "internalType": "uint256",
          "name": "",
          "type": "uint256"
        }
      ],
      "stateMutability": "view",
      "type": "function"
    },
    {
      "inputs": [],
      "name": "totalSupply",
      "outputs": [
        {
          "internalType": "uint256",
          "name": "",
          "type": "uint256"
        }
      ],
      "stateMutability": "view",
      "type": "function"
    },
    {
      "inputs": [],
      "name": "totalTokenAmountIn",
      "outputs": [
        {
          "internalType": "uint256",
          "name": "",
          "type": "uint256"
        }
      ],
      "stateMutability": "view",
      "type": "function"
    },
    {
      "inputs": [],
      "name": "totalTokenAmountOut",
      "outputs": [
        {
          "internalType": "uint256",
          "name": "",
          "type": "uint256"
        }
      ],
      "stateMutability": "view",
      "type": "function"
    },
    {
      "inputs": [],
      "name": "totalTradeL",
      "outputs": [
        {
          "internalType": "uint256",
          "name": "",
          "type": "uint256"
        }
      ],
      "stateMutability": "view",
      "type": "function"
    },
    {
      "inputs": [],
      "name": "totalTradeP",
      "outputs": [
        {
          "internalType": "uint256",
          "name": "",
          "type": "uint256"
        }
      ],
      "stateMutability": "view",
      "type": "function"
    },
    {
      "inputs": [
        {
          "internalType": "address",
          "name": "newOwner",
          "type": "address"
        }
      ],
      "name": "transferOwnership",
      "outputs": [],
      "stateMutability": "nonpayable",
      "type": "function"
    },
    {
      "inputs": [
        {
          "internalType": "address",
          "name": "_tokenAddr",
          "type": "address"
        }
      ],
      "name": "initialize",
      "outputs": [],
      "stateMutability": "nonpayable",
      "type": "function"
    },
    {
      "inputs": [
        {
          "internalType": "address",
          "name": "_userAddr",
          "type": "address"
        },
        {
          "internalType": "uint256",
          "name": "_tokenAmount",
          "type": "uint256"
        }
      ],
      "name": "deposit",
      "outputs": [
        {
          "internalType": "uint256",
          "name": "lpAmount",
          "type": "uint256"
        }
      ],
      "stateMutability": "nonpayable",
      "type": "function"
    },
    {
      "inputs": [
        {
          "internalType": "address",
          "name": "_userAddr",
          "type": "address"
        },
        {
          "internalType": "uint256",
          "name": "_lpAmount",
          "type": "uint256"
        }
      ],
      "name": "withdraw",
      "outputs": [
        {
          "internalType": "uint256",
          "name": "tokenAmount",
          "type": "uint256"
        }
      ],
      "stateMutability": "nonpayable",
      "type": "function"
    },
    {
      "inputs": [
        {
          "internalType": "address",
          "name": "_userAddr",
          "type": "address"
        }
      ],
      "name": "emergencyWithdraw",
      "outputs": [
        {
          "internalType": "uint256",
          "name": "tokenAmount",
          "type": "uint256"
        }
      ],
      "stateMutability": "nonpayable",
      "type": "function"
    },
    {
      "inputs": [
        {
          "internalType": "address",
          "name": "_userAddr",
          "type": "address"
        },
        {
          "internalType": "uint256",
          "name": "_tradeAmount",
          "type": "uint256"
        },
        {
          "internalType": "uint256",
          "name": "_plFlag",
          "type": "uint256"
        },
        {
          "internalType": "uint256",
          "name": "_plAmount",
          "type": "uint256"
        }
      ],
      "name": "tradePL",
      "outputs": [],
      "stateMutability": "nonpayable",
      "type": "function"
    }
  ],
  "bytecode": "0x608060405234801561001057600080fd5b5060006100216100c460201b60201c565b9050806000806101000a81548173ffffffffffffffffffffffffffffffffffffffff021916908373ffffffffffffffffffffffffffffffffffffffff1602179055508073ffffffffffffffffffffffffffffffffffffffff16600073ffffffffffffffffffffffffffffffffffffffff167f8be0079c531659141344cd1fd0a4f28419497f9722a3daafe3b4186f6b6457e060405160405180910390a3506100cc565b600033905090565b6113fa806100db6000396000f3fe608060405234801561001057600080fd5b50600436106101005760003560e01c8063715018a611610097578063acc491c211610066578063acc491c21461038f578063c4d66de8146103ad578063f2fde38b146103f1578063f3fef3a31461043557610100565b8063715018a6146102895780638da5cb5b14610293578063a1894b50146102c7578063a64ec3ba1461032d57610100565b80633246d2c5116100d35780633246d2c51461017d57806347e7ef241461019b5780635fbe4d1d146101fd5780636ff1c9bc1461023157610100565b806318160ddd14610105578063184f0c82146101235780631a39d8ef146101415780633053f5211461015f575b600080fd5b61010d610497565b6040518082815260200191505060405180910390f35b61012b61049d565b6040518082815260200191505060405180910390f35b6101496104a3565b6040518082815260200191505060405180910390f35b6101676104a9565b6040518082815260200191505060405180910390f35b6101856104af565b6040518082815260200191505060405180910390f35b6101e7600480360360408110156101b157600080fd5b81019080803573ffffffffffffffffffffffffffffffffffffffff169060200190929190803590602001909291905050506104b5565b6040518082815260200191505060405180910390f35b6102056106ab565b604051808273ffffffffffffffffffffffffffffffffffffffff16815260200191505060405180910390f35b6102736004803603602081101561024757600080fd5b81019080803573ffffffffffffffffffffffffffffffffffffffff1690602001909291905050506106d1565b6040518082815260200191505060405180910390f35b610291610830565b005b61029b6109b6565b604051808273ffffffffffffffffffffffffffffffffffffffff16815260200191505060405180910390f35b610309600480360360208110156102dd57600080fd5b81019080803573ffffffffffffffffffffffffffffffffffffffff1690602001909291905050506109df565b60405180848152602001838152602001828152602001935050505060405180910390f35b61038d6004803603608081101561034357600080fd5b81019080803573ffffffffffffffffffffffffffffffffffffffff169060200190929190803590602001909291908035906020019092919080359060200190929190505050610a09565b005b610397610b52565b6040518082815260200191505060405180910390f35b6103ef600480360360208110156103c357600080fd5b81019080803573ffffffffffffffffffffffffffffffffffffffff169060200190929190505050610b58565b005b6104336004803603602081101561040757600080fd5b81019080803573ffffffffffffffffffffffffffffffffffffffff169060200190929190505050610c74565b005b6104816004803603604081101561044b57600080fd5b81019080803573ffffffffffffffffffffffffffffffffffffffff16906020019092919080359060200190929190505050610e7f565b6040518082815260200191505060405180910390f35b60035481565b60075481565b60025481565b60045481565b60065481565b60006104bf61104d565b73ffffffffffffffffffffffffffffffffffffffff1660008054906101000a900473ffffffffffffffffffffffffffffffffffffffff1673ffffffffffffffffffffffffffffffffffffffff161461057f576040517f08c379a00000000000000000000000000000000000000000000000000000000081526004018080602001828103825260208152602001807f4f776e61626c653a2063616c6c6572206973206e6f7420746865206f776e657281525060200191505060405180910390fd5b60006003541415610592578190506105d2565b600060025414156105a5578190506105d1565b6105ce6002546105c06003548561105590919063ffffffff16565b6110db90919063ffffffff16565b90505b5b6105e78260025461112590919063ffffffff16565b6002819055506106028260045461112590919063ffffffff16565b60048190555061061d8160035461112590919063ffffffff16565b6003819055506000600860008573ffffffffffffffffffffffffffffffffffffffff1673ffffffffffffffffffffffffffffffffffffffff168152602001908152602001600020905061067d82826000015461112590919063ffffffff16565b816000018190555061069c83826001015461112590919063ffffffff16565b81600101819055505092915050565b600160009054906101000a900473ffffffffffffffffffffffffffffffffffffffff1681565b60006106db61104d565b73ffffffffffffffffffffffffffffffffffffffff1660008054906101000a900473ffffffffffffffffffffffffffffffffffffffff1673ffffffffffffffffffffffffffffffffffffffff161461079b576040517f08c379a00000000000000000000000000000000000000000000000000000000081526004018080602001828103825260208152602001807f4f776e61626c653a2063616c6c6572206973206e6f7420746865206f776e657281525060200191505060405180910390fd5b6000600860008473ffffffffffffffffffffffffffffffffffffffff1673ffffffffffffffffffffffffffffffffffffffff168152602001908152602001600020905080600201548160010154111561080c57610809816002015482600101546111ad90919063ffffffff16565b91505b60008160000181905550600081600101819055506000816002018190555050919050565b61083861104d565b73ffffffffffffffffffffffffffffffffffffffff1660008054906101000a900473ffffffffffffffffffffffffffffffffffffffff1673ffffffffffffffffffffffffffffffffffffffff16146108f8576040517f08c379a00000000000000000000000000000000000000000000000000000000081526004018080602001828103825260208152602001807f4f776e61626c653a2063616c6c6572206973206e6f7420746865206f776e657281525060200191505060405180910390fd5b600073ffffffffffffffffffffffffffffffffffffffff1660008054906101000a900473ffffffffffffffffffffffffffffffffffffffff1673ffffffffffffffffffffffffffffffffffffffff167f8be0079c531659141344cd1fd0a4f28419497f9722a3daafe3b4186f6b6457e060405160405180910390a360008060006101000a81548173ffffffffffffffffffffffffffffffffffffffff021916908373ffffffffffffffffffffffffffffffffffffffff160217905550565b60008060009054906101000a900473ffffffffffffffffffffffffffffffffffffffff16905090565b60086020528060005260406000206000915090508060000154908060010154908060020154905083565b610a1161104d565b73ffffffffffffffffffffffffffffffffffffffff1660008054906101000a900473ffffffffffffffffffffffffffffffffffffffff1673ffffffffffffffffffffffffffffffffffffffff1614610ad1576040517f08c379a00000000000000000000000000000000000000000000000000000000081526004018080602001828103825260208152602001807f4f776e61626c653a2063616c6c6572206973206e6f7420746865206f776e657281525060200191505060405180910390fd5b6001821415610b1557610aef816002546111ad90919063ffffffff16565b600281905550610b0a8160065461112590919063ffffffff16565b600681905550610b4c565b610b2a8160025461112590919063ffffffff16565b600281905550610b45816007546111ad90919063ffffffff16565b6007819055505b50505050565b60055481565b610b6061104d565b73ffffffffffffffffffffffffffffffffffffffff1660008054906101000a900473ffffffffffffffffffffffffffffffffffffffff1673ffffffffffffffffffffffffffffffffffffffff1614610c20576040517f08c379a00000000000000000000000000000000000000000000000000000000081526004018080602001828103825260208152602001807f4f776e61626c653a2063616c6c6572206973206e6f7420746865206f776e657281525060200191505060405180910390fd5b80600160006101000a81548173ffffffffffffffffffffffffffffffffffffffff021916908373ffffffffffffffffffffffffffffffffffffffff1602179055506000600281905550600060038190555050565b610c7c61104d565b73ffffffffffffffffffffffffffffffffffffffff1660008054906101000a900473ffffffffffffffffffffffffffffffffffffffff1673ffffffffffffffffffffffffffffffffffffffff1614610d3c576040517f08c379a00000000000000000000000000000000000000000000000000000000081526004018080602001828103825260208152602001807f4f776e61626c653a2063616c6c6572206973206e6f7420746865206f776e657281525060200191505060405180910390fd5b600073ffffffffffffffffffffffffffffffffffffffff168173ffffffffffffffffffffffffffffffffffffffff161415610dc2576040517f08c379a000000000000000000000000000000000000000000000000000000000815260040180806020018281038252602681526020018061137e6026913960400191505060405180910390fd5b8073ffffffffffffffffffffffffffffffffffffffff1660008054906101000a900473ffffffffffffffffffffffffffffffffffffffff1673ffffffffffffffffffffffffffffffffffffffff167f8be0079c531659141344cd1fd0a4f28419497f9722a3daafe3b4186f6b6457e060405160405180910390a3806000806101000a81548173ffffffffffffffffffffffffffffffffffffffff021916908373ffffffffffffffffffffffffffffffffffffffff16021790555050565b6000610e8961104d565b73ffffffffffffffffffffffffffffffffffffffff1660008054906101000a900473ffffffffffffffffffffffffffffffffffffffff1673ffffffffffffffffffffffffffffffffffffffff1614610f49576040517f08c379a00000000000000000000000000000000000000000000000000000000081526004018080602001828103825260208152602001807f4f776e61626c653a2063616c6c6572206973206e6f7420746865206f776e657281525060200191505060405180910390fd5b6000600860008573ffffffffffffffffffffffffffffffffffffffff1673ffffffffffffffffffffffffffffffffffffffff1681526020019081526020016000209050610fa38382600001546111ad90919063ffffffff16565b8160000181905550610fd4600354610fc66002548661105590919063ffffffff16565b6110db90919063ffffffff16565b9150610feb826002546111ad90919063ffffffff16565b600281905550611006826005546111ad90919063ffffffff16565b600581905550611021836003546111ad90919063ffffffff16565b60038190555061103e82826002015461112590919063ffffffff16565b81600201819055505092915050565b600033905090565b60008083141561106857600090506110d5565b600082840290508284828161107957fe5b04146110d0576040517f08c379a00000000000000000000000000000000000000000000000000000000081526004018080602001828103825260218152602001806113a46021913960400191505060405180910390fd5b809150505b92915050565b600061111d83836040518060400160405280601a81526020017f536166654d6174683a206469766973696f6e206279207a65726f0000000000008152506111f7565b905092915050565b6000808284019050838110156111a3576040517f08c379a000000000000000000000000000000000000000000000000000000000815260040180806020018281038252601b8152602001807f536166654d6174683a206164646974696f6e206f766572666c6f77000000000081525060200191505060405180910390fd5b8091505092915050565b60006111ef83836040518060400160405280601e81526020017f536166654d6174683a207375627472616374696f6e206f766572666c6f7700008152506112bd565b905092915050565b600080831182906112a3576040517f08c379a00000000000000000000000000000000000000000000000000000000081526004018080602001828103825283818151815260200191508051906020019080838360005b8381101561126857808201518184015260208101905061124d565b50505050905090810190601f1680156112955780820380516001836020036101000a031916815260200191505b509250505060405180910390fd5b5060008385816112af57fe5b049050809150509392505050565b600083831115829061136a576040517f08c379a00000000000000000000000000000000000000000000000000000000081526004018080602001828103825283818151815260200191508051906020019080838360005b8381101561132f578082015181840152602081019050611314565b50505050905090810190601f16801561135c5780820380516001836020036101000a031916815260200191505b509250505060405180910390fd5b506000838503905080915050939250505056fe4f776e61626c653a206e6577206f776e657220697320746865207a65726f2061646472657373536166654d6174683a206d756c7469706c69636174696f6e206f766572666c6f77a2646970667358221220e529b10127facb90457f311e0c71993c95ffa0f4be6ef2171cf7ad713a238f5b64736f6c634300060c0033",
  "immutableReferences": {},
  "source": "// SPDX-License-Identifier: MIT\npragma solidity ^0.6.12;\n\nimport \"../openzeppelin/contracts/math/SafeMath.sol\";\nimport \"../openzeppelin/contracts/access/Ownable.sol\";\nimport \"../interface/IFund.sol\";\n\ncontract Fund is Ownable, IFund {\n    using SafeMath for uint256;\n    address public tokenAddr;\n    uint256 public totalAmount; //当前池子余额\n    uint256 public totalSupply;\n    uint256 public totalTokenAmountIn; // 所有流动性提供者累计充值的token数量\n    uint256 public totalTokenAmountOut; // 所有流动性提供者累计提现的token数量\n    uint256 public totalTradeP; // 所有交易用户累计盈利的token数量\n    uint256 public totalTradeL; // 所有交易用户累计亏损的token数量\n\n    struct UserFundInfo {\n        uint256 lpAmount;       // 用户当前拥有的lptoken数量\n        uint256 tokenAmountIn;  // 用户累计充值的token数量\n        uint256 tokenAmountOut; // 用户累计提现的token数量\n    }\n\n    mapping(address => UserFundInfo) public allUserFund;\n\n    function initialize(address _tokenAddr) public onlyOwner {\n        tokenAddr = _tokenAddr;\n        totalAmount = 0;\n        totalSupply = 0;\n    }\n\n    function deposit(\n        address _userAddr,\n        uint256 _tokenAmount\n    ) public override onlyOwner returns (uint256 lpAmount) {\n        if (totalSupply == 0) {\n            lpAmount = _tokenAmount;\n        } else {\n            if (totalAmount == 0) {\n                lpAmount = _tokenAmount;\n            } else {\n                lpAmount = _tokenAmount.mul(totalSupply).div(totalAmount); //池子的余额需要再加上头寸的浮动盈亏\n            }\n        }\n        totalAmount = totalAmount.add(_tokenAmount);\n        totalTokenAmountIn = totalTokenAmountIn.add(_tokenAmount);\n        totalSupply = totalSupply.add(lpAmount);\n        UserFundInfo storage userFundInfo = allUserFund[_userAddr];\n        userFundInfo.lpAmount = userFundInfo.lpAmount.add(lpAmount);\n        userFundInfo.tokenAmountIn = userFundInfo.tokenAmountIn.add(_tokenAmount);\n    }\n\n    function withdraw(\n        address _userAddr,\n        uint256 _lpAmount\n    ) public override onlyOwner returns (uint256 tokenAmount) {\n        UserFundInfo storage userFundInfo = allUserFund[_userAddr];\n        userFundInfo.lpAmount = userFundInfo.lpAmount.sub(_lpAmount);\n        tokenAmount = _lpAmount.mul(totalAmount).div(totalSupply); //池子的余额需要再加上头寸的浮动盈亏\n        totalAmount = totalAmount.sub(tokenAmount);\n        totalTokenAmountOut = totalTokenAmountOut.sub(tokenAmount);\n        totalSupply = totalSupply.sub(_lpAmount);\n        userFundInfo.tokenAmountOut = userFundInfo.tokenAmountOut.add(tokenAmount);\n    }\n\n    function emergencyWithdraw(address _userAddr) public override onlyOwner returns (uint256 tokenAmount) {\n        UserFundInfo storage userFundInfo = allUserFund[_userAddr];\n        if(userFundInfo.tokenAmountIn > userFundInfo.tokenAmountOut){\n            tokenAmount = userFundInfo.tokenAmountIn.sub(userFundInfo.tokenAmountOut);\n        }\n        userFundInfo.lpAmount = 0;\n        userFundInfo.tokenAmountIn = 0;\n        userFundInfo.tokenAmountOut = 0;\n    }\n\n    function tradePL(\n        address _userAddr,\n        uint256 _tradeAmount,\n        uint256 _plFlag,\n        uint256 _plAmount\n    ) public override onlyOwner {\n        if(_plFlag == 1){\n            // 交易用户盈利\n            totalAmount = totalAmount.sub(_plAmount);\n            totalTradeP = totalTradeP.add(_plAmount);\n        }else{\n            // 交易用户亏损\n            totalAmount = totalAmount.add(_plAmount);\n            totalTradeL = totalTradeL.sub(_plAmount);\n        }\n    }\n}\n",
  "sourcePath": "/Users/tong/Projects/drep-project/teemo-private/contracts/fund/Fund.sol",
  "compiler": {
    "name": "solc",
    "version": "0.6.12+commit.27d51765.Emscripten.clang"
  },
  "schemaVersion": "3.3.2",
  "updatedAt": "2021-01-20T10:30:14.938Z",
  "devdoc": {
    "kind": "dev",
    "methods": {
      "owner()": {
        "details": "Returns the address of the current owner."
      },
      "renounceOwnership()": {
        "details": "Leaves the contract without owner. It will not be possible to call `onlyOwner` functions anymore. Can only be called by the current owner. NOTE: Renouncing ownership will leave the contract without an owner, thereby removing any functionality that is only available to the owner."
      },
      "transferOwnership(address)": {
        "details": "Transfers ownership of the contract to a new account (`newOwner`). Can only be called by the current owner."
      }
    },
    "version": 1
  },
  "userdoc": {
    "kind": "user",
    "methods": {},
    "version": 1
  }
}