{
  "contractName": "PoolFactory",
  "abi": [
    {
      "inputs": [
        {
          "internalType": "address",
          "name": "_devAddr",
          "type": "address"
        },
        {
          "internalType": "address",
          "name": "_quoteFactoryAddr",
          "type": "address"
        },
        {
          "internalType": "address",
          "name": "_teemoTokenAddr",
          "type": "address"
        },
        {
          "internalType": "address",
          "name": "_teemoGovTokenAddr",
          "type": "address"
        },
        {
          "internalType": "string[]",
          "name": "_creatorNames",
          "type": "string[]"
        },
        {
          "internalType": "address[]",
          "name": "_creatorAddrs",
          "type": "address[]"
        }
      ],
      "stateMutability": "nonpayable",
      "type": "constructor"
    },
    {
      "anonymous": false,
      "inputs": [
        {
          "indexed": true,
          "internalType": "address",
          "name": "tokenAddr",
          "type": "address"
        },
        {
          "indexed": true,
          "internalType": "address",
          "name": "poolAddr",
          "type": "address"
        }
      ],
      "name": "AddPool",
      "type": "event"
    },
    {
      "anonymous": false,
      "inputs": [
        {
          "indexed": true,
          "internalType": "address",
          "name": "tokenAddr",
          "type": "address"
        },
        {
          "indexed": true,
          "internalType": "address",
          "name": "poolAddr",
          "type": "address"
        },
        {
          "indexed": true,
          "internalType": "address",
          "name": "createAddr",
          "type": "address"
        }
      ],
      "name": "AddPoolModule",
      "type": "event"
    },
    {
      "anonymous": false,
      "inputs": [
        {
          "indexed": true,
          "internalType": "address",
          "name": "previousOwner",
          "type": "address"
        },
        {
          "indexed": true,
          "internalType": "address",
          "name": "newOwner",
          "type": "address"
        }
      ],
      "name": "OwnershipTransferred",
      "type": "event"
    },
    {
      "inputs": [
        {
          "internalType": "string",
          "name": "",
          "type": "string"
        }
      ],
      "name": "allCreatorInfo",
      "outputs": [
        {
          "internalType": "address",
          "name": "",
          "type": "address"
        }
      ],
      "stateMutability": "view",
      "type": "function"
    },
    {
      "inputs": [
        {
          "internalType": "uint256",
          "name": "",
          "type": "uint256"
        }
      ],
      "name": "allPoolAddr",
      "outputs": [
        {
          "internalType": "address",
          "name": "",
          "type": "address"
        }
      ],
      "stateMutability": "view",
      "type": "function"
    },
    {
      "inputs": [
        {
          "internalType": "address",
          "name": "",
          "type": "address"
        }
      ],
      "name": "allPoolIndex",
      "outputs": [
        {
          "internalType": "uint256",
          "name": "",
          "type": "uint256"
        }
      ],
      "stateMutability": "view",
      "type": "function"
    },
    {
      "inputs": [
        {
          "internalType": "address",
          "name": "",
          "type": "address"
        }
      ],
      "name": "allTokenIndex",
      "outputs": [
        {
          "internalType": "uint256",
          "name": "",
          "type": "uint256"
        }
      ],
      "stateMutability": "view",
      "type": "function"
    },
    {
      "inputs": [],
      "name": "bonusRecordAddr",
      "outputs": [
        {
          "internalType": "address",
          "name": "",
          "type": "address"
        }
      ],
      "stateMutability": "view",
      "type": "function"
    },
    {
      "inputs": [],
      "name": "devAddr",
      "outputs": [
        {
          "internalType": "address",
          "name": "",
          "type": "address"
        }
      ],
      "stateMutability": "view",
      "type": "function"
    },
    {
      "inputs": [],
      "name": "owner",
      "outputs": [
        {
          "internalType": "address",
          "name": "",
          "type": "address"
        }
      ],
      "stateMutability": "view",
      "type": "function"
    },
    {
      "inputs": [],
      "name": "projectStatus",
      "outputs": [
        {
          "internalType": "bool",
          "name": "",
          "type": "bool"
        }
      ],
      "stateMutability": "view",
      "type": "function"
    },
    {
      "inputs": [],
      "name": "quoteFactoryAddr",
      "outputs": [
        {
          "internalType": "address",
          "name": "",
          "type": "address"
        }
      ],
      "stateMutability": "view",
      "type": "function"
    },
    {
      "inputs": [],
      "name": "renounceOwnership",
      "outputs": [],
      "stateMutability": "nonpayable",
      "type": "function"
    },
    {
      "inputs": [],
      "name": "teemoGovTokenAddr",
      "outputs": [
        {
          "internalType": "address",
          "name": "",
          "type": "address"
        }
      ],
      "stateMutability": "view",
      "type": "function"
    },
    {
      "inputs": [],
      "name": "teemoTokenAddr",
      "outputs": [
        {
          "internalType": "address",
          "name": "",
          "type": "address"
        }
      ],
      "stateMutability": "view",
      "type": "function"
    },
    {
      "inputs": [
        {
          "internalType": "address",
          "name": "newOwner",
          "type": "address"
        }
      ],
      "name": "transferOwnership",
      "outputs": [],
      "stateMutability": "nonpayable",
      "type": "function"
    },
    {
      "inputs": [],
      "name": "poolLength",
      "outputs": [
        {
          "internalType": "uint256",
          "name": "",
          "type": "uint256"
        }
      ],
      "stateMutability": "view",
      "type": "function"
    },
    {
      "inputs": [
        {
          "internalType": "address",
          "name": "_quoteFactoryAddr",
          "type": "address"
        }
      ],
      "name": "setQuoteFactoryAddr",
      "outputs": [],
      "stateMutability": "nonpayable",
      "type": "function"
    },
    {
      "inputs": [
        {
          "internalType": "address",
          "name": "_teemoTokenAddr",
          "type": "address"
        }
      ],
      "name": "setTeemoTokenAddr",
      "outputs": [],
      "stateMutability": "nonpayable",
      "type": "function"
    },
    {
      "inputs": [
        {
          "internalType": "address",
          "name": "_teemoGovTokenAddr",
          "type": "address"
        }
      ],
      "name": "setTeemoGovTokenAddr",
      "outputs": [],
      "stateMutability": "nonpayable",
      "type": "function"
    },
    {
      "inputs": [
        {
          "internalType": "address",
          "name": "_devAddr",
          "type": "address"
        }
      ],
      "name": "setDevAddr",
      "outputs": [],
      "stateMutability": "nonpayable",
      "type": "function"
    },
    {
      "inputs": [
        {
          "internalType": "string",
          "name": "_creatorName",
          "type": "string"
        },
        {
          "internalType": "address",
          "name": "_creatorAddr",
          "type": "address"
        }
      ],
      "name": "setCreatorInfo",
      "outputs": [],
      "stateMutability": "nonpayable",
      "type": "function"
    },
    {
      "inputs": [
        {
          "internalType": "address",
          "name": "_tokenAddr",
          "type": "address"
        },
        {
          "internalType": "address",
          "name": "_mainnetTokenAddr",
          "type": "address"
        }
      ],
      "name": "addPool",
      "outputs": [
        {
          "internalType": "address",
          "name": "createAddr",
          "type": "address"
        }
      ],
      "stateMutability": "nonpayable",
      "type": "function"
    },
    {
      "inputs": [],
      "name": "addWPool",
      "outputs": [
        {
          "internalType": "address",
          "name": "createAddr",
          "type": "address"
        }
      ],
      "stateMutability": "nonpayable",
      "type": "function"
    },
    {
      "inputs": [
        {
          "internalType": "string",
          "name": "_creatorName",
          "type": "string"
        },
        {
          "internalType": "address",
          "name": "_tokenAddr",
          "type": "address"
        },
        {
          "internalType": "uint256[]",
          "name": "_args",
          "type": "uint256[]"
        }
      ],
      "name": "addPoolModule",
      "outputs": [
        {
          "internalType": "address",
          "name": "createAddr",
          "type": "address"
        }
      ],
      "stateMutability": "nonpayable",
      "type": "function"
    },
    {
      "inputs": [
        {
          "internalType": "uint256",
          "name": "_mintAmount",
          "type": "uint256"
        }
      ],
      "name": "mintToken",
      "outputs": [],
      "stateMutability": "nonpayable",
      "type": "function"
    },
    {
      "inputs": [
        {
          "internalType": "address",
          "name": "_to",
          "type": "address"
        },
        {
          "internalType": "uint256",
          "name": "_amount",
          "type": "uint256"
        }
      ],
      "name": "safeTeemoTransfer",
      "outputs": [],
      "stateMutability": "nonpayable",
      "type": "function"
    },
    {
      "inputs": [
        {
          "internalType": "address",
          "name": "_userAddr",
          "type": "address"
        },
        {
          "internalType": "uint256",
          "name": "_mintAmount",
          "type": "uint256"
        }
      ],
      "name": "mintGovToken",
      "outputs": [],
      "stateMutability": "nonpayable",
      "type": "function"
    },
    {
      "inputs": [
        {
          "internalType": "address",
          "name": "_tokenAddr",
          "type": "address"
        }
      ],
      "name": "getAddr",
      "outputs": [
        {
          "internalType": "address",
          "name": "poolAddr",
          "type": "address"
        }
      ],
      "stateMutability": "view",
      "type": "function"
    },
    {
      "inputs": [
        {
          "internalType": "string",
          "name": "_creatorName",
          "type": "string"
        }
      ],
      "name": "getCreatorAddr",
      "outputs": [
        {
          "internalType": "address",
          "name": "creatorAddr",
          "type": "address"
        }
      ],
      "stateMutability": "view",
      "type": "function"
    },
    {
      "inputs": [
        {
          "internalType": "address",
          "name": "_bonus",
          "type": "address"
        }
      ],
      "name": "setBonusRecord",
      "outputs": [],
      "stateMutability": "nonpayable",
      "type": "function"
    },
    {
      "inputs": [
        {
          "internalType": "address",
          "name": "_user",
          "type": "address"
        },
        {
          "internalType": "uint256",
          "name": "_amount",
          "type": "uint256"
        }
      ],
      "name": "updateBonus",
      "outputs": [],
      "stateMutability": "nonpayable",
      "type": "function"
    },
    {
      "inputs": [
        {
          "internalType": "address",
          "name": "_user",
          "type": "address"
        },
        {
          "internalType": "uint256",
          "name": "_amount",
          "type": "uint256"
        }
      ],
      "name": "mintBonus",
      "outputs": [],
      "stateMutability": "nonpayable",
      "type": "function"
    },
    {
      "inputs": [
        {
          "internalType": "bool",
          "name": "_status",
          "type": "bool"
        }
      ],
      "name": "setStatus",
      "outputs": [],
      "stateMutability": "nonpayable",
      "type": "function"
    },
    {
      "inputs": [],
      "name": "getStatus",
      "outputs": [
        {
          "internalType": "bool",
          "name": "status",
          "type": "bool"
        }
      ],
      "stateMutability": "view",
      "type": "function"
    }
  ],
  "bytecode": "0x60806040523480156200001157600080fd5b50604051620039f4380380620039f483398181016040528101906200003791906200051c565b6000620000496200029460201b60201c565b9050806000806101000a81548173ffffffffffffffffffffffffffffffffffffffff021916908373ffffffffffffffffffffffffffffffffffffffff1602179055508073ffffffffffffffffffffffffffffffffffffffff16600073ffffffffffffffffffffffffffffffffffffffff167f8be0079c531659141344cd1fd0a4f28419497f9722a3daafe3b4186f6b6457e060405160405180910390a35085600560006101000a81548173ffffffffffffffffffffffffffffffffffffffff021916908373ffffffffffffffffffffffffffffffffffffffff16021790555084600160006101000a81548173ffffffffffffffffffffffffffffffffffffffff021916908373ffffffffffffffffffffffffffffffffffffffff16021790555083600260006101000a81548173ffffffffffffffffffffffffffffffffffffffff021916908373ffffffffffffffffffffffffffffffffffffffff16021790555082600360006101000a81548173ffffffffffffffffffffffffffffffffffffffff021916908373ffffffffffffffffffffffffffffffffffffffff160217905550805182511462000232576040517f08c379a00000000000000000000000000000000000000000000000000000000081526004016200022990620006b8565b60405180910390fd5b60005b82518110156200028757620002798382815181106200025057fe5b60200260200101518383815181106200026557fe5b60200260200101516200029c60201b60201c565b808060010191505062000235565b5050505050505062000854565b600033905090565b620002ac6200029460201b60201c565b73ffffffffffffffffffffffffffffffffffffffff1660008054906101000a900473ffffffffffffffffffffffffffffffffffffffff1673ffffffffffffffffffffffffffffffffffffffff16146200033c576040517f08c379a00000000000000000000000000000000000000000000000000000000081526004016200033390620006da565b60405180910390fd5b806009836040516200034f91906200069f565b908152602001604051809103902060006101000a81548173ffffffffffffffffffffffffffffffffffffffff021916908373ffffffffffffffffffffffffffffffffffffffff1602179055505050565b600081519050620003b0816200083a565b92915050565b600082601f830112620003c857600080fd5b8151620003df620003d9826200072a565b620006fc565b915081818352602084019350602081019050838560208402820111156200040557600080fd5b60005b838110156200043957816200041e88826200039f565b84526020840193506020830192505060018101905062000408565b5050505092915050565b600082601f8301126200045557600080fd5b81516200046c620004668262000753565b620006fc565b9150818183526020840193506020810190508360005b83811015620004b657815186016200049b8882620004c0565b84526020840193506020830192505060018101905062000482565b5050505092915050565b600082601f830112620004d257600080fd5b8151620004e9620004e3826200077c565b620006fc565b915080825260208301602083018583830111156200050657600080fd5b6200051383828462000804565b50505092915050565b60008060008060008060c087890312156200053657600080fd5b60006200054689828a016200039f565b96505060206200055989828a016200039f565b95505060406200056c89828a016200039f565b94505060606200057f89828a016200039f565b935050608087015167ffffffffffffffff8111156200059d57600080fd5b620005ab89828a0162000443565b92505060a087015167ffffffffffffffff811115620005c957600080fd5b620005d789828a01620003b6565b9150509295509295509295565b6000620005f182620007a9565b620005fd8185620007c5565b93506200060f81856020860162000804565b80840191505092915050565b60006200062a601083620007b4565b91507f63726561746f7220696e666f20657272000000000000000000000000000000006000830152602082019050919050565b60006200066c602083620007b4565b91507f4f776e61626c653a2063616c6c6572206973206e6f7420746865206f776e65726000830152602082019050919050565b6000620006ad8284620005e4565b915081905092915050565b60006020820190508181036000830152620006d3816200061b565b9050919050565b60006020820190508181036000830152620006f5816200065d565b9050919050565b6000604051905081810181811067ffffffffffffffff821117156200072057600080fd5b8060405250919050565b600067ffffffffffffffff8211156200074257600080fd5b602082029050602081019050919050565b600067ffffffffffffffff8211156200076b57600080fd5b602082029050602081019050919050565b600067ffffffffffffffff8211156200079457600080fd5b601f19601f8301169050602081019050919050565b600081519050919050565b600082825260208201905092915050565b600081905092915050565b6000620007dd82620007e4565b9050919050565b600073ffffffffffffffffffffffffffffffffffffffff82169050919050565b60005b838110156200082457808201518184015260208101905062000807565b8381111562000834576000848401525b50505050565b6200084581620007d0565b81146200085157600080fd5b50565b61319080620008646000396000f3fe608060405234801561001057600080fd5b50600436106101f05760003560e01c8063b4108a941161010f578063d688c1b9116100a2578063eb511dd411610071578063eb511dd41461057d578063f2303603146105ad578063f2fde38b146105cb578063fc75a9a6146105e7576101f0565b8063d688c1b9146104f7578063d9a7c61d14610513578063da09c72c1461052f578063e6085da71461054d576101f0565b8063c634d032116100de578063c634d03214610487578063cadd3686146104a3578063cd049a93146104bf578063d5446518146104db576101f0565b8063b4108a94146103eb578063ba6392c01461041b578063bcf815dd14610439578063c623129d14610457576101f0565b80635c40f6f4116101875780638da5cb5b116101565780638da5cb5b146103615780639612b0c41461037f578063afcfb11a146103af578063b0a868e9146103cd576101f0565b80635c40f6f41461030357806365f48f631461031f5780636ebb64a21461033b578063715018a614610357576101f0565b806330e10016116101c357806330e100161461027d5780633cd8f745146102995780634e69d560146102c95780634f482954146102e7576101f0565b8063081e3eda146101f55780630f157018146102135780631ab333081461022f57806324111e2c1461024d575b600080fd5b6101fd610617565b60405161020a9190612f7e565b60405180910390f35b61022d6004803603810190610228919061269a565b610624565b005b6102376106fd565b6040516102449190612df1565b60405180910390f35b610267600480360381019061026291906127b6565b610710565b6040516102749190612d01565b60405180910390f35b6102976004803603810190610292919061269a565b610759565b005b6102b360048036038101906102ae91906127b6565b610832565b6040516102c09190612d01565b60405180910390f35b6102d16108ea565b6040516102de9190612df1565b60405180910390f35b61030160048036038101906102fc919061269a565b610901565b005b61031d60048036038101906103189190612764565b6109da565b005b610339600480360381019061033491906127f7565b610a8c565b005b6103556004803603810190610350919061269a565b610b82565b005b61035f610c5b565b005b610369610dae565b6040516103769190612d01565b60405180910390f35b610399600480360381019061039491906128ca565b610dd7565b6040516103a69190612d01565b60405180910390f35b6103b7610e13565b6040516103c49190612d01565b60405180910390f35b6103d5610e39565b6040516103e29190612d01565b60405180910390f35b6104056004803603810190610400919061269a565b610e5f565b6040516104129190612d01565b60405180910390f35b610423610f62565b6040516104309190612d01565b60405180910390f35b610441610f88565b60405161044e9190612d01565b60405180910390f35b610471600480360381019061046c919061269a565b610fae565b60405161047e9190612f7e565b60405180910390f35b6104a1600480360381019061049c91906128ca565b610fc6565b005b6104bd60048036038101906104b8919061269a565b61119f565b005b6104d960048036038101906104d49190612728565b611278565b005b6104f560048036038101906104f09190612728565b61151d565b005b610511600480360381019061050c9190612728565b6116c5565b005b61052d60048036038101906105289190612728565b6117db565b005b6105376118fe565b6040516105449190612d01565b60405180910390f35b6105676004803603810190610562919061269a565b611924565b6040516105749190612f7e565b60405180910390f35b610597600480360381019061059291906126ec565b61193c565b6040516105a49190612d01565b60405180910390f35b6105b5611ca2565b6040516105c29190612d01565b60405180910390f35b6105e560048036038101906105e0919061269a565b612002565b005b61060160048036038101906105fc919061284b565b6121c4565b60405161060e9190612d01565b60405180910390f35b6000600680549050905090565b61062c6123ed565b73ffffffffffffffffffffffffffffffffffffffff1660008054906101000a900473ffffffffffffffffffffffffffffffffffffffff1673ffffffffffffffffffffffffffffffffffffffff16146106b9576040517f08c379a00000000000000000000000000000000000000000000000000000000081526004016106b090612ede565b60405180910390fd5b80600460006101000a81548173ffffffffffffffffffffffffffffffffffffffff021916908373ffffffffffffffffffffffffffffffffffffffff16021790555050565b600a60009054906101000a900460ff1681565b6009818051602081018201805184825260208301602085012081835280955050505050506000915054906101000a900473ffffffffffffffffffffffffffffffffffffffff1681565b6107616123ed565b73ffffffffffffffffffffffffffffffffffffffff1660008054906101000a900473ffffffffffffffffffffffffffffffffffffffff1673ffffffffffffffffffffffffffffffffffffffff16146107ee576040517f08c379a00000000000000000000000000000000000000000000000000000000081526004016107e590612ede565b60405180910390fd5b80600360006101000a81548173ffffffffffffffffffffffffffffffffffffffff021916908373ffffffffffffffffffffffffffffffffffffffff16021790555050565b60006009826040516108449190612cea565b908152602001604051809103902060009054906101000a900473ffffffffffffffffffffffffffffffffffffffff169050600073ffffffffffffffffffffffffffffffffffffffff168173ffffffffffffffffffffffffffffffffffffffff1614156108e5576040517f08c379a00000000000000000000000000000000000000000000000000000000081526004016108dc90612f1e565b60405180910390fd5b919050565b6000600a60009054906101000a900460ff16905090565b6109096123ed565b73ffffffffffffffffffffffffffffffffffffffff1660008054906101000a900473ffffffffffffffffffffffffffffffffffffffff1673ffffffffffffffffffffffffffffffffffffffff1614610996576040517f08c379a000000000000000000000000000000000000000000000000000000000815260040161098d90612ede565b60405180910390fd5b80600260006101000a81548173ffffffffffffffffffffffffffffffffffffffff021916908373ffffffffffffffffffffffffffffffffffffffff16021790555050565b6109e26123ed565b73ffffffffffffffffffffffffffffffffffffffff1660008054906101000a900473ffffffffffffffffffffffffffffffffffffffff1673ffffffffffffffffffffffffffffffffffffffff1614610a6f576040517f08c379a0000000000000000000000000000000000000000000000000000000008152600401610a6690612ede565b60405180910390fd5b80600a60006101000a81548160ff02191690831515021790555050565b610a946123ed565b73ffffffffffffffffffffffffffffffffffffffff1660008054906101000a900473ffffffffffffffffffffffffffffffffffffffff1673ffffffffffffffffffffffffffffffffffffffff1614610b21576040517f08c379a0000000000000000000000000000000000000000000000000000000008152600401610b1890612ede565b60405180910390fd5b80600983604051610b329190612cea565b908152602001604051809103902060006101000a81548173ffffffffffffffffffffffffffffffffffffffff021916908373ffffffffffffffffffffffffffffffffffffffff1602179055505050565b610b8a6123ed565b73ffffffffffffffffffffffffffffffffffffffff1660008054906101000a900473ffffffffffffffffffffffffffffffffffffffff1673ffffffffffffffffffffffffffffffffffffffff1614610c17576040517f08c379a0000000000000000000000000000000000000000000000000000000008152600401610c0e90612ede565b60405180910390fd5b80600560006101000a81548173ffffffffffffffffffffffffffffffffffffffff021916908373ffffffffffffffffffffffffffffffffffffffff16021790555050565b610c636123ed565b73ffffffffffffffffffffffffffffffffffffffff1660008054906101000a900473ffffffffffffffffffffffffffffffffffffffff1673ffffffffffffffffffffffffffffffffffffffff1614610cf0576040517f08c379a0000000000000000000000000000000000000000000000000000000008152600401610ce790612ede565b60405180910390fd5b600073ffffffffffffffffffffffffffffffffffffffff1660008054906101000a900473ffffffffffffffffffffffffffffffffffffffff1673ffffffffffffffffffffffffffffffffffffffff167f8be0079c531659141344cd1fd0a4f28419497f9722a3daafe3b4186f6b6457e060405160405180910390a360008060006101000a81548173ffffffffffffffffffffffffffffffffffffffff021916908373ffffffffffffffffffffffffffffffffffffffff160217905550565b60008060009054906101000a900473ffffffffffffffffffffffffffffffffffffffff16905090565b60068181548110610de457fe5b906000526020600020016000915054906101000a900473ffffffffffffffffffffffffffffffffffffffff1681565b600160009054906101000a900473ffffffffffffffffffffffffffffffffffffffff1681565b600360009054906101000a900473ffffffffffffffffffffffffffffffffffffffff1681565b60006006610eb66001600760008673ffffffffffffffffffffffffffffffffffffffff1673ffffffffffffffffffffffffffffffffffffffff168152602001908152602001600020546123f590919063ffffffff16565b81548110610ec057fe5b9060005260206000200160009054906101000a900473ffffffffffffffffffffffffffffffffffffffff169050600073ffffffffffffffffffffffffffffffffffffffff168173ffffffffffffffffffffffffffffffffffffffff161415610f5d576040517f08c379a0000000000000000000000000000000000000000000000000000000008152600401610f5490612e9e565b60405180910390fd5b919050565b600260009054906101000a900473ffffffffffffffffffffffffffffffffffffffff1681565b600460009054906101000a900473ffffffffffffffffffffffffffffffffffffffff1681565b60086020528060005260406000206000915090505481565b6000600860003373ffffffffffffffffffffffffffffffffffffffff1673ffffffffffffffffffffffffffffffffffffffff168152602001908152602001600020541415611049576040517f08c379a000000000000000000000000000000000000000000000000000000000815260040161104090612efe565b60405180910390fd5b600260009054906101000a900473ffffffffffffffffffffffffffffffffffffffff1673ffffffffffffffffffffffffffffffffffffffff166340c10f19600560009054906101000a900473ffffffffffffffffffffffffffffffffffffffff166110be600a8561243f90919063ffffffff16565b6040518363ffffffff1660e01b81526004016110db929190612dc8565b600060405180830381600087803b1580156110f557600080fd5b505af1158015611109573d6000803e3d6000fd5b50505050600260009054906101000a900473ffffffffffffffffffffffffffffffffffffffff1673ffffffffffffffffffffffffffffffffffffffff166340c10f1930836040518363ffffffff1660e01b815260040161116a929190612dc8565b600060405180830381600087803b15801561118457600080fd5b505af1158015611198573d6000803e3d6000fd5b5050505050565b6111a76123ed565b73ffffffffffffffffffffffffffffffffffffffff1660008054906101000a900473ffffffffffffffffffffffffffffffffffffffff1673ffffffffffffffffffffffffffffffffffffffff1614611234576040517f08c379a000000000000000000000000000000000000000000000000000000000815260040161122b90612ede565b60405180910390fd5b80600160006101000a81548173ffffffffffffffffffffffffffffffffffffffff021916908373ffffffffffffffffffffffffffffffffffffffff16021790555050565b6000600860003373ffffffffffffffffffffffffffffffffffffffff1673ffffffffffffffffffffffffffffffffffffffff1681526020019081526020016000205414156112fb576040517f08c379a00000000000000000000000000000000000000000000000000000000081526004016112f290612efe565b60405180910390fd5b6000600260009054906101000a900473ffffffffffffffffffffffffffffffffffffffff1673ffffffffffffffffffffffffffffffffffffffff166370a08231306040518263ffffffff1660e01b81526004016113589190612d01565b60206040518083038186803b15801561137057600080fd5b505afa158015611384573d6000803e3d6000fd5b505050506040513d601f19601f820116820180604052508101906113a891906128f3565b90508082111561146757600260009054906101000a900473ffffffffffffffffffffffffffffffffffffffff1673ffffffffffffffffffffffffffffffffffffffff1663a9059cbb84836040518363ffffffff1660e01b815260040161140f929190612dc8565b602060405180830381600087803b15801561142957600080fd5b505af115801561143d573d6000803e3d6000fd5b505050506040513d601f19601f82011682018060405250810190611461919061278d565b50611518565b600260009054906101000a900473ffffffffffffffffffffffffffffffffffffffff1673ffffffffffffffffffffffffffffffffffffffff1663a9059cbb84846040518363ffffffff1660e01b81526004016114c4929190612dc8565b602060405180830381600087803b1580156114de57600080fd5b505af11580156114f2573d6000803e3d6000fd5b505050506040513d601f19601f82011682018060405250810190611516919061278d565b505b505050565b6000600860003373ffffffffffffffffffffffffffffffffffffffff1673ffffffffffffffffffffffffffffffffffffffff1681526020019081526020016000205414156115a0576040517f08c379a000000000000000000000000000000000000000000000000000000000815260040161159790612efe565b60405180910390fd5b600073ffffffffffffffffffffffffffffffffffffffff16600460009054906101000a900473ffffffffffffffffffffffffffffffffffffffff1673ffffffffffffffffffffffffffffffffffffffff161415611632576040517f08c379a000000000000000000000000000000000000000000000000000000000815260040161162990612ebe565b60405180910390fd5b600460009054906101000a900473ffffffffffffffffffffffffffffffffffffffff1673ffffffffffffffffffffffffffffffffffffffff1663d544651883836040518363ffffffff1660e01b815260040161168f929190612dc8565b600060405180830381600087803b1580156116a957600080fd5b505af11580156116bd573d6000803e3d6000fd5b505050505050565b6000600860003373ffffffffffffffffffffffffffffffffffffffff1673ffffffffffffffffffffffffffffffffffffffff168152602001908152602001600020541415611748576040517f08c379a000000000000000000000000000000000000000000000000000000000815260040161173f90612efe565b60405180910390fd5b600360009054906101000a900473ffffffffffffffffffffffffffffffffffffffff1673ffffffffffffffffffffffffffffffffffffffff166340c10f1983836040518363ffffffff1660e01b81526004016117a5929190612dc8565b600060405180830381600087803b1580156117bf57600080fd5b505af11580156117d3573d6000803e3d6000fd5b505050505050565b600460009054906101000a900473ffffffffffffffffffffffffffffffffffffffff1673ffffffffffffffffffffffffffffffffffffffff163373ffffffffffffffffffffffffffffffffffffffff161461186b576040517f08c379a000000000000000000000000000000000000000000000000000000000815260040161186290612e7e565b60405180910390fd5b600260009054906101000a900473ffffffffffffffffffffffffffffffffffffffff1673ffffffffffffffffffffffffffffffffffffffff166340c10f1983836040518363ffffffff1660e01b81526004016118c8929190612dc8565b600060405180830381600087803b1580156118e257600080fd5b505af11580156118f6573d6000803e3d6000fd5b505050505050565b600560009054906101000a900473ffffffffffffffffffffffffffffffffffffffff1681565b60076020528060005260406000206000915090505481565b60006119466123ed565b73ffffffffffffffffffffffffffffffffffffffff1660008054906101000a900473ffffffffffffffffffffffffffffffffffffffff1673ffffffffffffffffffffffffffffffffffffffff16146119d3576040517f08c379a00000000000000000000000000000000000000000000000000000000081526004016119ca90612ede565b60405180910390fd5b6000600760008573ffffffffffffffffffffffffffffffffffffffff1673ffffffffffffffffffffffffffffffffffffffff1681526020019081526020016000205414611a55576040517f08c379a0000000000000000000000000000000000000000000000000000000008152600401611a4c90612f3e565b60405180910390fd5b6000611a956040518060400160405280600481526020017f504f4f4c00000000000000000000000000000000000000000000000000000000815250610832565b90508073ffffffffffffffffffffffffffffffffffffffff1663b8801c49858530600160009054906101000a900473ffffffffffffffffffffffffffffffffffffffff166040518563ffffffff1660e01b8152600401611af89493929190612d45565b602060405180830381600087803b158015611b1257600080fd5b505af1158015611b26573d6000803e3d6000fd5b505050506040513d601f19601f82011682018060405250810190611b4a91906126c3565b91506006829080600181540180825580915050600190039060005260206000200160009091909190916101000a81548173ffffffffffffffffffffffffffffffffffffffff021916908373ffffffffffffffffffffffffffffffffffffffff160217905550600680549050600860008473ffffffffffffffffffffffffffffffffffffffff1673ffffffffffffffffffffffffffffffffffffffff16815260200190815260200160002081905550600680549050600760008673ffffffffffffffffffffffffffffffffffffffff1673ffffffffffffffffffffffffffffffffffffffff168152602001908152602001600020819055508173ffffffffffffffffffffffffffffffffffffffff168473ffffffffffffffffffffffffffffffffffffffff167f062107fcb2a202af1ba617d851daca9ade2580ccf29e346770119cc10b015f0760405160405180910390a35092915050565b6000611cac6123ed565b73ffffffffffffffffffffffffffffffffffffffff1660008054906101000a900473ffffffffffffffffffffffffffffffffffffffff1673ffffffffffffffffffffffffffffffffffffffff1614611d39576040517f08c379a0000000000000000000000000000000000000000000000000000000008152600401611d3090612ede565b60405180910390fd5b6000600760008073ffffffffffffffffffffffffffffffffffffffff1673ffffffffffffffffffffffffffffffffffffffff1681526020019081526020016000205414611dbb576040517f08c379a0000000000000000000000000000000000000000000000000000000008152600401611db290612f5e565b60405180910390fd5b6000611dfb6040518060400160405280600581526020017f57504f4f4c000000000000000000000000000000000000000000000000000000815250610832565b90508073ffffffffffffffffffffffffffffffffffffffff1663e343361530600160009054906101000a900473ffffffffffffffffffffffffffffffffffffffff166040518363ffffffff1660e01b8152600401611e5a929190612d1c565b602060405180830381600087803b158015611e7457600080fd5b505af1158015611e88573d6000803e3d6000fd5b505050506040513d601f19601f82011682018060405250810190611eac91906126c3565b91506006829080600181540180825580915050600190039060005260206000200160009091909190916101000a81548173ffffffffffffffffffffffffffffffffffffffff021916908373ffffffffffffffffffffffffffffffffffffffff160217905550600680549050600860008473ffffffffffffffffffffffffffffffffffffffff1673ffffffffffffffffffffffffffffffffffffffff16815260200190815260200160002081905550600680549050600760008073ffffffffffffffffffffffffffffffffffffffff1673ffffffffffffffffffffffffffffffffffffffff168152602001908152602001600020819055508173ffffffffffffffffffffffffffffffffffffffff16600073ffffffffffffffffffffffffffffffffffffffff167f062107fcb2a202af1ba617d851daca9ade2580ccf29e346770119cc10b015f0760405160405180910390a35090565b61200a6123ed565b73ffffffffffffffffffffffffffffffffffffffff1660008054906101000a900473ffffffffffffffffffffffffffffffffffffffff1673ffffffffffffffffffffffffffffffffffffffff1614612097576040517f08c379a000000000000000000000000000000000000000000000000000000000815260040161208e90612ede565b60405180910390fd5b600073ffffffffffffffffffffffffffffffffffffffff168173ffffffffffffffffffffffffffffffffffffffff161415612107576040517f08c379a00000000000000000000000000000000000000000000000000000000081526004016120fe90612e5e565b60405180910390fd5b8073ffffffffffffffffffffffffffffffffffffffff1660008054906101000a900473ffffffffffffffffffffffffffffffffffffffff1673ffffffffffffffffffffffffffffffffffffffff167f8be0079c531659141344cd1fd0a4f28419497f9722a3daafe3b4186f6b6457e060405160405180910390a3806000806101000a81548173ffffffffffffffffffffffffffffffffffffffff021916908373ffffffffffffffffffffffffffffffffffffffff16021790555050565b60006121ce6123ed565b73ffffffffffffffffffffffffffffffffffffffff1660008054906101000a900473ffffffffffffffffffffffffffffffffffffffff1673ffffffffffffffffffffffffffffffffffffffff161461225b576040517f08c379a000000000000000000000000000000000000000000000000000000000815260040161225290612ede565b60405180910390fd5b600061226684610e5f565b9050600061227386610832565b90508073ffffffffffffffffffffffffffffffffffffffff16632bfdced78387876040518463ffffffff1660e01b81526004016122b293929190612d8a565b602060405180830381600087803b1580156122cc57600080fd5b505af11580156122e0573d6000803e3d6000fd5b505050506040513d601f19601f8201168201806040525081019061230491906126c3565b92508173ffffffffffffffffffffffffffffffffffffffff1663e2d5635987856040518363ffffffff1660e01b8152600401612341929190612e2e565b600060405180830381600087803b15801561235b57600080fd5b505af115801561236f573d6000803e3d6000fd5b505050508273ffffffffffffffffffffffffffffffffffffffff168273ffffffffffffffffffffffffffffffffffffffff168673ffffffffffffffffffffffffffffffffffffffff167f205df0114f1ecc4dd296c9da1efe9992b00abf25d2697c43d4d04a09c325bb0160405160405180910390a450509392505050565b600033905090565b600061243783836040518060400160405280601e81526020017f536166654d6174683a207375627472616374696f6e206f766572666c6f770000815250612489565b905092915050565b600061248183836040518060400160405280601a81526020017f536166654d6174683a206469766973696f6e206279207a65726f0000000000008152506124e4565b905092915050565b60008383111582906124d1576040517f08c379a00000000000000000000000000000000000000000000000000000000081526004016124c89190612e0c565b60405180910390fd5b5060008385039050809150509392505050565b6000808311829061252b576040517f08c379a00000000000000000000000000000000000000000000000000000000081526004016125229190612e0c565b60405180910390fd5b50600083858161253757fe5b049050809150509392505050565b60008135905061255481613115565b92915050565b60008151905061256981613115565b92915050565b600082601f83011261258057600080fd5b813561259361258e82612fc6565b612f99565b915081818352602084019350602081019050838560208402820111156125b857600080fd5b60005b838110156125e857816125ce8882612670565b8452602084019350602083019250506001810190506125bb565b5050505092915050565b6000813590506126018161312c565b92915050565b6000815190506126168161312c565b92915050565b600082601f83011261262d57600080fd5b813561264061263b82612fee565b612f99565b9150808252602083016020830185838301111561265c57600080fd5b6126678382846130c2565b50505092915050565b60008135905061267f81613143565b92915050565b60008151905061269481613143565b92915050565b6000602082840312156126ac57600080fd5b60006126ba84828501612545565b91505092915050565b6000602082840312156126d557600080fd5b60006126e38482850161255a565b91505092915050565b600080604083850312156126ff57600080fd5b600061270d85828601612545565b925050602061271e85828601612545565b9150509250929050565b6000806040838503121561273b57600080fd5b600061274985828601612545565b925050602061275a85828601612670565b9150509250929050565b60006020828403121561277657600080fd5b6000612784848285016125f2565b91505092915050565b60006020828403121561279f57600080fd5b60006127ad84828501612607565b91505092915050565b6000602082840312156127c857600080fd5b600082013567ffffffffffffffff8111156127e257600080fd5b6127ee8482850161261c565b91505092915050565b6000806040838503121561280a57600080fd5b600083013567ffffffffffffffff81111561282457600080fd5b6128308582860161261c565b925050602061284185828601612545565b9150509250929050565b60008060006060848603121561286057600080fd5b600084013567ffffffffffffffff81111561287a57600080fd5b6128868682870161261c565b935050602061289786828701612545565b925050604084013567ffffffffffffffff8111156128b457600080fd5b6128c08682870161256f565b9150509250925092565b6000602082840312156128dc57600080fd5b60006128ea84828501612670565b91505092915050565b60006020828403121561290557600080fd5b600061291384828501612685565b91505092915050565b60006129288383612ccc565b60208301905092915050565b61293d8161307a565b82525050565b600061294e8261302a565b612958818561304d565b93506129638361301a565b8060005b8381101561299457815161297b888261291c565b975061298683613040565b925050600181019050612967565b5085935050505092915050565b6129aa8161308c565b82525050565b60006129bb82613035565b6129c5818561305e565b93506129d58185602086016130d1565b6129de81613104565b840191505092915050565b60006129f482613035565b6129fe818561306f565b9350612a0e8185602086016130d1565b80840191505092915050565b6000612a2760268361305e565b91507f4f776e61626c653a206e6577206f776e657220697320746865207a65726f206160008301527f64647265737300000000000000000000000000000000000000000000000000006020830152604082019050919050565b6000612a8d602b8361305e565b91507f6d696e74426f6e75733a2063616c6c6572206973206e6f742074686520626f6e60008301527f7573207265636f726465720000000000000000000000000000000000000000006020830152604082019050919050565b6000612af360188361305e565b91507f676574416464723a20504f4f4c5f4e4f545f45584953545300000000000000006000830152602082019050919050565b6000612b33601d8361305e565b91507f757064617465426f6e75733a207265636f72646572206e6f74207365740000006000830152602082019050919050565b6000612b7360208361305e565b91507f4f776e61626c653a2063616c6c6572206973206e6f7420746865206f776e65726000830152602082019050919050565b6000612bb3601f8361305e565b91507f4f776e61626c653a2063616c6c6572206973206e6f742074686520706f6f6c006000830152602082019050919050565b6000612bf360228361305e565b91507f67657443726561746f72416464723a2043524541544f525f4e4f545f4558495360008301527f54530000000000000000000000000000000000000000000000000000000000006020830152604082019050919050565b6000612c5960148361305e565b91507f616464506f6f6c3a20504f4f4c5f4558495354530000000000000000000000006000830152602082019050919050565b6000612c9960158361305e565b91507f61646457506f6f6c3a20504f4f4c5f45584953545300000000000000000000006000830152602082019050919050565b612cd5816130b8565b82525050565b612ce4816130b8565b82525050565b6000612cf682846129e9565b915081905092915050565b6000602082019050612d166000830184612934565b92915050565b6000604082019050612d316000830185612934565b612d3e6020830184612934565b9392505050565b6000608082019050612d5a6000830187612934565b612d676020830186612934565b612d746040830185612934565b612d816060830184612934565b95945050505050565b6000606082019050612d9f6000830186612934565b612dac6020830185612934565b8181036040830152612dbe8184612943565b9050949350505050565b6000604082019050612ddd6000830185612934565b612dea6020830184612cdb565b9392505050565b6000602082019050612e0660008301846129a1565b92915050565b60006020820190508181036000830152612e2681846129b0565b905092915050565b60006040820190508181036000830152612e4881856129b0565b9050612e576020830184612934565b9392505050565b60006020820190508181036000830152612e7781612a1a565b9050919050565b60006020820190508181036000830152612e9781612a80565b9050919050565b60006020820190508181036000830152612eb781612ae6565b9050919050565b60006020820190508181036000830152612ed781612b26565b9050919050565b60006020820190508181036000830152612ef781612b66565b9050919050565b60006020820190508181036000830152612f1781612ba6565b9050919050565b60006020820190508181036000830152612f3781612be6565b9050919050565b60006020820190508181036000830152612f5781612c4c565b9050919050565b60006020820190508181036000830152612f7781612c8c565b9050919050565b6000602082019050612f936000830184612cdb565b92915050565b6000604051905081810181811067ffffffffffffffff82111715612fbc57600080fd5b8060405250919050565b600067ffffffffffffffff821115612fdd57600080fd5b602082029050602081019050919050565b600067ffffffffffffffff82111561300557600080fd5b601f19601f8301169050602081019050919050565b6000819050602082019050919050565b600081519050919050565b600081519050919050565b6000602082019050919050565b600082825260208201905092915050565b600082825260208201905092915050565b600081905092915050565b600061308582613098565b9050919050565b60008115159050919050565b600073ffffffffffffffffffffffffffffffffffffffff82169050919050565b6000819050919050565b82818337600083830152505050565b60005b838110156130ef5780820151818401526020810190506130d4565b838111156130fe576000848401525b50505050565b6000601f19601f8301169050919050565b61311e8161307a565b811461312957600080fd5b50565b6131358161308c565b811461314057600080fd5b50565b61314c816130b8565b811461315757600080fd5b5056fea2646970667358221220a08e29d01a2398224d9498bae3448a8adc798aeb99ce1aa49ed54659fc931b7a64736f6c634300060c0033",
  "immutableReferences": {},
  "source": "// SPDX-License-Identifier: MIT\n\npragma solidity >=0.6.12;\npragma experimental ABIEncoderV2;\n\nimport \"../openzeppelin/contracts/math/SafeMath.sol\";\nimport \"../openzeppelin/contracts/access/Ownable.sol\";\nimport \"../interface/ICreator.sol\";\nimport \"../interface/ITeemoPool.sol\";\nimport \"../interface/ITeemoToken.sol\";\nimport \"../interface/IBonusRecord.sol\";\n\ncontract PoolFactory is Ownable {\n    using SafeMath for uint256;\n\n    event AddPool(address indexed tokenAddr, address indexed poolAddr);\n    event AddPoolModule(address indexed tokenAddr, address indexed poolAddr, address indexed createAddr);\n    \n    address public quoteFactoryAddr;\n    address public teemoTokenAddr;\n    address public teemoGovTokenAddr;\n    address public bonusRecordAddr;\n    address public devAddr;\n\n    address[] public allPoolAddr;\n    mapping(address => uint256) public allTokenIndex;//tokenaddr =>array index\n    mapping(address => uint256) public allPoolIndex;// pooladdr  =>array index\n    mapping(string => address) public allCreatorInfo;\n\n    // false: test mode, true: production mode\n    bool public projectStatus;\n\n    constructor(\n        address _devAddr,\n        address _quoteFactoryAddr,\n        address _teemoTokenAddr,\n        address _teemoGovTokenAddr,\n        string[] memory _creatorNames,\n        address[] memory _creatorAddrs\n    ) public {\n        devAddr = _devAddr;\n        quoteFactoryAddr = _quoteFactoryAddr;\n        teemoTokenAddr = _teemoTokenAddr;\n        teemoGovTokenAddr = _teemoGovTokenAddr;\n        require(_creatorNames.length == _creatorAddrs.length, \"creator info err\");\n        for(uint256 i=0;i<_creatorNames.length;i++){\n            setCreatorInfo(_creatorNames[i],_creatorAddrs[i]);\n        }\n    }\n\n    modifier onlyPool() {\n        require(allPoolIndex[msg.sender] != 0, \"Ownable: caller is not the pool\");\n        _;\n    }\n\n    function poolLength() public view returns(uint256) {\n        return allPoolAddr.length;\n    }\n\n    function setQuoteFactoryAddr(address _quoteFactoryAddr) public onlyOwner {\n        quoteFactoryAddr = _quoteFactoryAddr;\n    }\n\n    function setTeemoTokenAddr(address _teemoTokenAddr) public onlyOwner {\n        teemoTokenAddr = _teemoTokenAddr;\n    }\n    \n    function setTeemoGovTokenAddr(address _teemoGovTokenAddr) public onlyOwner {\n        teemoGovTokenAddr = _teemoGovTokenAddr;\n    }\n\n    function setDevAddr(address _devAddr) public onlyOwner {\n        devAddr = _devAddr;\n    }\n\n    function setCreatorInfo(string memory _creatorName,address _creatorAddr) public onlyOwner {\n        allCreatorInfo[_creatorName] = _creatorAddr;\n    }\n\n    function addPool(address _tokenAddr, address _mainnetTokenAddr) public onlyOwner returns (address createAddr){\n        require(allTokenIndex[_tokenAddr] == 0, \"addPool: POOL_EXISTS\");\n        address creatorAddr = getCreatorAddr(\"POOL\");\n        createAddr = IPoolCreator(creatorAddr).createPool(_tokenAddr,_mainnetTokenAddr,address(this),quoteFactoryAddr);\n        allPoolAddr.push(createAddr);\n        allPoolIndex[createAddr] = allPoolAddr.length;\n        allTokenIndex[_tokenAddr] = allPoolAddr.length;\n        emit AddPool(_tokenAddr, createAddr);\n    }\n\n    function addWPool() public onlyOwner returns (address createAddr){\n        require(allTokenIndex[address(0)] == 0, \"addWPool: POOL_EXISTS\");\n        address creatorAddr = getCreatorAddr(\"WPOOL\");\n        createAddr = IWPoolCreator(creatorAddr).createPool(address(this),quoteFactoryAddr);\n        allPoolAddr.push(createAddr);\n        allPoolIndex[createAddr] = allPoolAddr.length;\n        allTokenIndex[address(0)] = allPoolAddr.length;\n        emit AddPool(address(0), createAddr);\n    }\n\n     function addPoolModule(string memory _creatorName,address _tokenAddr,uint256[] memory _args) public onlyOwner returns (address createAddr) {\n        address poolAddr = getAddr(_tokenAddr);\n        address creatorAddr = getCreatorAddr(_creatorName);\n        createAddr = ICreator(creatorAddr).create(poolAddr,_tokenAddr,_args);\n        ITeemoPool(poolAddr).setModuleAddr(_creatorName,createAddr);\n        emit AddPoolModule(_tokenAddr, poolAddr, createAddr);\n    }\n\n    function mintToken(uint256 _mintAmount) public onlyPool {\n        ITeemoToken(teemoTokenAddr).mint(devAddr, _mintAmount.div(10));\n        ITeemoToken(teemoTokenAddr).mint(address(this), _mintAmount);\n    }\n\n    function safeTeemoTransfer(address _to, uint256 _amount) public onlyPool {\n        uint256 teemoBal = ITeemoToken(teemoTokenAddr).balanceOf(address(this));\n        if (_amount > teemoBal) {\n            ITeemoToken(teemoTokenAddr).transfer(_to, teemoBal);\n        } else {\n            ITeemoToken(teemoTokenAddr).transfer(_to, _amount);\n        }\n    }\n\n    function mintGovToken(address _userAddr, uint256 _mintAmount) public onlyPool {\n        ITeemoToken(teemoGovTokenAddr).mint(_userAddr, _mintAmount);\n    }\n\n    function getAddr(address _tokenAddr) public view returns (address poolAddr){\n        poolAddr = allPoolAddr[allTokenIndex[_tokenAddr].sub(1)];\n        require(poolAddr != address(0), \"getAddr: POOL_NOT_EXISTS\");\n    }\n    function getCreatorAddr(string memory _creatorName) public view returns (address creatorAddr){\n        creatorAddr = allCreatorInfo[_creatorName];\n        require(creatorAddr != address(0), \"getCreatorAddr: CREATOR_NOT_EXISTS\");\n    }\n\n    function setBonusRecord(address _bonus) public onlyOwner {\n        bonusRecordAddr = _bonus;\n    }\n\n    function updateBonus(address _user, uint256 _amount) public  onlyPool {\n        require(bonusRecordAddr != address(0), \"updateBonus: recorder not set\");\n        IBonusRecord(bonusRecordAddr).updateBonus(_user, _amount);\n    }\n\n    function mintBonus(address _user, uint256 _amount) public {\n        require(msg.sender == bonusRecordAddr ,\"mintBonus: caller is not the bonus recorder\");\n        ITeemoToken(teemoTokenAddr).mint(_user, _amount);\n    }    \n\n    function setStatus(bool _status) public onlyOwner {\n        projectStatus = _status;\n    }\n    \n    function getStatus() public view returns (bool status) {\n        status = projectStatus;\n    }\n\n}\n",
  "sourcePath": "/Users/tong/Projects/drep-project/teemo-private/contracts/pool/PoolFactory.sol",
  "compiler": {
    "name": "solc",
    "version": "0.6.12+commit.27d51765.Emscripten.clang"
  },
  "schemaVersion": "3.3.2",
  "updatedAt": "2021-01-15T12:05:33.784Z",
  "devdoc": {
    "kind": "dev",
    "methods": {
      "owner()": {
        "details": "Returns the address of the current owner."
      },
      "renounceOwnership()": {
        "details": "Leaves the contract without owner. It will not be possible to call `onlyOwner` functions anymore. Can only be called by the current owner. NOTE: Renouncing ownership will leave the contract without an owner, thereby removing any functionality that is only available to the owner."
      },
      "transferOwnership(address)": {
        "details": "Transfers ownership of the contract to a new account (`newOwner`). Can only be called by the current owner."
      }
    },
    "version": 1
  },
  "userdoc": {
    "kind": "user",
    "methods": {},
    "version": 1
  }
}