{
  "contractName": "PoolProxy",
  "abi": [
    {
      "inputs": [
        {
          "internalType": "address",
          "name": "_poolFactoryAddr",
          "type": "address"
        }
      ],
      "stateMutability": "nonpayable",
      "type": "constructor"
    },
    {
      "anonymous": false,
      "inputs": [
        {
          "indexed": true,
          "internalType": "address",
          "name": "previousOwner",
          "type": "address"
        },
        {
          "indexed": true,
          "internalType": "address",
          "name": "newOwner",
          "type": "address"
        }
      ],
      "name": "OwnershipTransferred",
      "type": "event"
    },
    {
      "inputs": [],
      "name": "owner",
      "outputs": [
        {
          "internalType": "address",
          "name": "",
          "type": "address"
        }
      ],
      "stateMutability": "view",
      "type": "function"
    },
    {
      "inputs": [],
      "name": "poolFactoryAddr",
      "outputs": [
        {
          "internalType": "address",
          "name": "",
          "type": "address"
        }
      ],
      "stateMutability": "view",
      "type": "function"
    },
    {
      "inputs": [],
      "name": "renounceOwnership",
      "outputs": [],
      "stateMutability": "nonpayable",
      "type": "function"
    },
    {
      "inputs": [
        {
          "internalType": "address",
          "name": "newOwner",
          "type": "address"
        }
      ],
      "name": "transferOwnership",
      "outputs": [],
      "stateMutability": "nonpayable",
      "type": "function"
    },
    {
      "inputs": [
        {
          "internalType": "address",
          "name": "_poolFactoryAddr",
          "type": "address"
        }
      ],
      "name": "setPoolFactoryAddr",
      "outputs": [],
      "stateMutability": "nonpayable",
      "type": "function"
    },
    {
      "inputs": [],
      "name": "getAllPoolInfo",
      "outputs": [
        {
          "internalType": "address[]",
          "name": "allTeemoPoolAddr",
          "type": "address[]"
        },
        {
          "internalType": "address[]",
          "name": "allTokenAddr",
          "type": "address[]"
        },
        {
          "internalType": "address[]",
          "name": "allFundAddr",
          "type": "address[]"
        },
        {
          "internalType": "address[]",
          "name": "allRiskAddr",
          "type": "address[]"
        },
        {
          "internalType": "address[]",
          "name": "allSwapTradeAddr",
          "type": "address[]"
        },
        {
          "internalType": "address[]",
          "name": "allMineAddr",
          "type": "address[]"
        },
        {
          "internalType": "string[]",
          "name": "allSymbol",
          "type": "string[]"
        },
        {
          "internalType": "uint8[]",
          "name": "allDecimals",
          "type": "uint8[]"
        }
      ],
      "stateMutability": "view",
      "type": "function"
    },
    {
      "inputs": [],
      "name": "poolLength",
      "outputs": [
        {
          "internalType": "uint256",
          "name": "",
          "type": "uint256"
        }
      ],
      "stateMutability": "view",
      "type": "function"
    },
    {
      "inputs": [
        {
          "internalType": "address",
          "name": "_teemoPoolAddr",
          "type": "address"
        },
        {
          "internalType": "address",
          "name": "_userAddress",
          "type": "address"
        }
      ],
      "name": "orderLength",
      "outputs": [
        {
          "internalType": "uint256",
          "name": "",
          "type": "uint256"
        }
      ],
      "stateMutability": "view",
      "type": "function"
    },
    {
      "inputs": [
        {
          "internalType": "address",
          "name": "_teemoPoolAddr",
          "type": "address"
        },
        {
          "internalType": "bytes32",
          "name": "_orderID",
          "type": "bytes32"
        }
      ],
      "name": "getOrder",
      "outputs": [
        {
          "internalType": "address",
          "name": "userAddr",
          "type": "address"
        },
        {
          "internalType": "string",
          "name": "symbol",
          "type": "string"
        },
        {
          "internalType": "uint256",
          "name": "tokenAmount",
          "type": "uint256"
        },
        {
          "internalType": "uint256",
          "name": "lever",
          "type": "uint256"
        },
        {
          "internalType": "uint256",
          "name": "bsFlag",
          "type": "uint256"
        },
        {
          "internalType": "uint256",
          "name": "openPrice",
          "type": "uint256"
        },
        {
          "internalType": "uint256",
          "name": "openTime",
          "type": "uint256"
        },
        {
          "internalType": "uint256",
          "name": "pLimitPrice",
          "type": "uint256"
        },
        {
          "internalType": "uint256",
          "name": "lLimitPrice",
          "type": "uint256"
        },
        {
          "internalType": "uint256",
          "name": "closePrice",
          "type": "uint256"
        },
        {
          "internalType": "uint256",
          "name": "closeTime",
          "type": "uint256"
        }
      ],
      "stateMutability": "view",
      "type": "function"
    },
    {
      "inputs": [
        {
          "internalType": "address",
          "name": "_teemoPoolAddr",
          "type": "address"
        },
        {
          "internalType": "bytes32",
          "name": "_orderID",
          "type": "bytes32"
        }
      ],
      "name": "getLimitOrder",
      "outputs": [
        {
          "internalType": "address",
          "name": "userAddr",
          "type": "address"
        },
        {
          "internalType": "string",
          "name": "symbol",
          "type": "string"
        },
        {
          "internalType": "uint256",
          "name": "tokenAmount",
          "type": "uint256"
        },
        {
          "internalType": "uint256",
          "name": "lever",
          "type": "uint256"
        },
        {
          "internalType": "uint256",
          "name": "bsFlag",
          "type": "uint256"
        },
        {
          "internalType": "uint256",
          "name": "openPrice",
          "type": "uint256"
        },
        {
          "internalType": "uint256",
          "name": "openTime",
          "type": "uint256"
        },
        {
          "internalType": "uint256",
          "name": "newPrice",
          "type": "uint256"
        },
        {
          "internalType": "uint256",
          "name": "pLimitPrice",
          "type": "uint256"
        },
        {
          "internalType": "uint256",
          "name": "lLimitPrice",
          "type": "uint256"
        },
        {
          "internalType": "uint256",
          "name": "closeTime",
          "type": "uint256"
        },
        {
          "internalType": "uint256",
          "name": "status",
          "type": "uint256"
        }
      ],
      "stateMutability": "view",
      "type": "function"
    }
  ],
  "bytecode": "0x60806040523480156200001157600080fd5b50604051620020813803806200208183398181016040528101906200003791906200014e565b6000620000496200012f60201b60201c565b9050806000806101000a81548173ffffffffffffffffffffffffffffffffffffffff021916908373ffffffffffffffffffffffffffffffffffffffff1602179055508073ffffffffffffffffffffffffffffffffffffffff16600073ffffffffffffffffffffffffffffffffffffffff167f8be0079c531659141344cd1fd0a4f28419497f9722a3daafe3b4186f6b6457e060405160405180910390a35080600160006101000a81548173ffffffffffffffffffffffffffffffffffffffff021916908373ffffffffffffffffffffffffffffffffffffffff16021790555050620001c8565b600033905090565b6000815190506200014881620001ae565b92915050565b6000602082840312156200016157600080fd5b6000620001718482850162000137565b91505092915050565b600062000187826200018e565b9050919050565b600073ffffffffffffffffffffffffffffffffffffffff82169050919050565b620001b9816200017a565b8114620001c557600080fd5b50565b611ea980620001d86000396000f3fe608060405234801561001057600080fd5b506004361061009e5760003560e01c8063715018a611610066578063715018a61461016c57806386f28fc5146101765780638da5cb5b146101b1578063b06b9fbe146101cf578063f2fde38b146101ed5761009e565b8063081e3eda146100a35780630c73bda9146100c15780632a0892e8146100e657806349651b6a146101025780635dc954c51461013c575b600080fd5b6100ab610209565b6040516100b89190611c34565b60405180910390f35b6100c96102b0565b6040516100dd989796959493929190611b23565b60405180910390f35b61010060048036038101906100fb9190611458565b610cc2565b005b61011c600480360381019061011791906114e6565b610d06565b6040516101339b9a999897969594939291906119b0565b60405180910390f35b610156600480360381019061015191906114aa565b611004565b6040516101639190611c34565b60405180910390f35b61017461100c565b005b610190600480360381019061018b91906114e6565b61115f565b6040516101a89c9b9a99989796959493929190611a62565b60405180910390f35b6101b9611182565b6040516101c69190611995565b60405180910390f35b6101d76111ab565b6040516101e49190611995565b60405180910390f35b61020760048036038101906102029190611458565b6111d1565b005b6000600160009054906101000a900473ffffffffffffffffffffffffffffffffffffffff1673ffffffffffffffffffffffffffffffffffffffff1663081e3eda6040518163ffffffff1660e01b815260040160206040518083038186803b15801561027357600080fd5b505afa158015610287573d6000803e3d6000fd5b505050506040513d601f19601f820116820180604052508101906102ab919061166b565b905090565b6060806060806060806060806000600160009054906101000a900473ffffffffffffffffffffffffffffffffffffffff1673ffffffffffffffffffffffffffffffffffffffff1663081e3eda6040518163ffffffff1660e01b815260040160206040518083038186803b15801561032657600080fd5b505afa15801561033a573d6000803e3d6000fd5b505050506040513d601f19601f8201168201806040525081019061035e919061166b565b90508067ffffffffffffffff8111801561037757600080fd5b506040519080825280602002602001820160405280156103a65781602001602082028036833780820191505090505b5098508067ffffffffffffffff811180156103c057600080fd5b506040519080825280602002602001820160405280156103ef5781602001602082028036833780820191505090505b5097508067ffffffffffffffff8111801561040957600080fd5b506040519080825280602002602001820160405280156104385781602001602082028036833780820191505090505b5096508067ffffffffffffffff8111801561045257600080fd5b506040519080825280602002602001820160405280156104815781602001602082028036833780820191505090505b5095508067ffffffffffffffff8111801561049b57600080fd5b506040519080825280602002602001820160405280156104ca5781602001602082028036833780820191505090505b5094508067ffffffffffffffff811180156104e457600080fd5b506040519080825280602002602001820160405280156105135781602001602082028036833780820191505090505b5093508067ffffffffffffffff8111801561052d57600080fd5b5060405190808252806020026020018201604052801561056157816020015b606081526020019060019003908161054c5790505b5092508067ffffffffffffffff8111801561057b57600080fd5b506040519080825280602002602001820160405280156105aa5781602001602082028036833780820191505090505b50915060005b81811015610cb657600160009054906101000a900473ffffffffffffffffffffffffffffffffffffffff1673ffffffffffffffffffffffffffffffffffffffff16639612b0c4826040518263ffffffff1660e01b81526004016106139190611c34565b60206040518083038186803b15801561062b57600080fd5b505afa15801561063f573d6000803e3d6000fd5b505050506040513d601f19601f820116820180604052508101906106639190611481565b8a828151811061066f57fe5b602002602001019073ffffffffffffffffffffffffffffffffffffffff16908173ffffffffffffffffffffffffffffffffffffffff16815250508981815181106106b557fe5b602002602001015173ffffffffffffffffffffffffffffffffffffffff16635fbe4d1d6040518163ffffffff1660e01b815260040160206040518083038186803b15801561070257600080fd5b505afa158015610716573d6000803e3d6000fd5b505050506040513d601f19601f8201168201806040525081019061073a9190611481565b89828151811061074657fe5b602002602001019073ffffffffffffffffffffffffffffffffffffffff16908173ffffffffffffffffffffffffffffffffffffffff168152505089818151811061078c57fe5b602002602001015173ffffffffffffffffffffffffffffffffffffffff1663682cb9116040518163ffffffff1660e01b815260040160206040518083038186803b1580156107d957600080fd5b505afa1580156107ed573d6000803e3d6000fd5b505050506040513d601f19601f820116820180604052508101906108119190611481565b88828151811061081d57fe5b602002602001019073ffffffffffffffffffffffffffffffffffffffff16908173ffffffffffffffffffffffffffffffffffffffff168152505089818151811061086357fe5b602002602001015173ffffffffffffffffffffffffffffffffffffffff1663f58520396040518163ffffffff1660e01b815260040160206040518083038186803b1580156108b057600080fd5b505afa1580156108c4573d6000803e3d6000fd5b505050506040513d601f19601f820116820180604052508101906108e89190611481565b8782815181106108f457fe5b602002602001019073ffffffffffffffffffffffffffffffffffffffff16908173ffffffffffffffffffffffffffffffffffffffff168152505089818151811061093a57fe5b602002602001015173ffffffffffffffffffffffffffffffffffffffff1663a16098c06040518163ffffffff1660e01b815260040160206040518083038186803b15801561098757600080fd5b505afa15801561099b573d6000803e3d6000fd5b505050506040513d601f19601f820116820180604052508101906109bf9190611481565b8682815181106109cb57fe5b602002602001019073ffffffffffffffffffffffffffffffffffffffff16908173ffffffffffffffffffffffffffffffffffffffff1681525050898181518110610a1157fe5b602002602001015173ffffffffffffffffffffffffffffffffffffffff1663f28342f76040518163ffffffff1660e01b815260040160206040518083038186803b158015610a5e57600080fd5b505afa158015610a72573d6000803e3d6000fd5b505050506040513d601f19601f82011682018060405250810190610a969190611481565b858281518110610aa257fe5b602002602001019073ffffffffffffffffffffffffffffffffffffffff16908173ffffffffffffffffffffffffffffffffffffffff1681525050600073ffffffffffffffffffffffffffffffffffffffff16898281518110610b0057fe5b602002602001015173ffffffffffffffffffffffffffffffffffffffff1614610c8657888181518110610b2f57fe5b602002602001015173ffffffffffffffffffffffffffffffffffffffff166395d89b416040518163ffffffff1660e01b815260040160006040518083038186803b158015610b7c57600080fd5b505afa158015610b90573d6000803e3d6000fd5b505050506040513d6000823e3d601f19601f82011682018060405250810190610bb9919061162a565b848281518110610bc557fe5b6020026020010181905250888181518110610bdc57fe5b602002602001015173ffffffffffffffffffffffffffffffffffffffff1663313ce5676040518163ffffffff1660e01b815260040160206040518083038186803b158015610c2957600080fd5b505afa158015610c3d573d6000803e3d6000fd5b505050506040513d601f19601f82011682018060405250810190610c619190611694565b838281518110610c6d57fe5b602002602001019060ff16908160ff1681525050610ca9565b6012838281518110610c9457fe5b602002602001019060ff16908160ff16815250505b80806001019150506105b0565b50509091929394959697565b80600160006101000a81548173ffffffffffffffffffffffffffffffffffffffff021916908373ffffffffffffffffffffffffffffffffffffffff16021790555050565b600060606000806000806000806000806000808d73ffffffffffffffffffffffffffffffffffffffff1663a16098c06040518163ffffffff1660e01b815260040160206040518083038186803b158015610d5f57600080fd5b505afa158015610d73573d6000803e3d6000fd5b505050506040513d601f19601f82011682018060405250810190610d979190611481565b90508073ffffffffffffffffffffffffffffffffffffffff166339cbd01f8e6040518263ffffffff1660e01b8152600401610dd29190611bd9565b60006040518083038186803b158015610dea57600080fd5b505afa158015610dfe573d6000803e3d6000fd5b505050506040513d6000823e3d601f19601f82011682018060405250810190610e279190611522565b90919293949550909192939450909192935090919250909150905050809c50819d50829e50839f50505050508073ffffffffffffffffffffffffffffffffffffffff166339cbd01f8e6040518263ffffffff1660e01b8152600401610e8c9190611bd9565b60006040518083038186803b158015610ea457600080fd5b505afa158015610eb8573d6000803e3d6000fd5b505050506040513d6000823e3d601f19601f82011682018060405250810190610ee19190611522565b9091929394959697989950909192939495969798509091929394959697509091929394959650909150905050809850819950829a50839b50505050508073ffffffffffffffffffffffffffffffffffffffff166339cbd01f8e6040518263ffffffff1660e01b8152600401610f569190611bd9565b60006040518083038186803b158015610f6e57600080fd5b505afa158015610f82573d6000803e3d6000fd5b505050506040513d6000823e3d601f19601f82011682018060405250810190610fab9190611522565b909192939495969798995090919293949596979850909192939495969750909192939495965090919293949550909192939450909192935080955081965082975083985050505050509295989b509295989b9093969950565b600092915050565b611014611393565b73ffffffffffffffffffffffffffffffffffffffff1660008054906101000a900473ffffffffffffffffffffffffffffffffffffffff1673ffffffffffffffffffffffffffffffffffffffff16146110a1576040517f08c379a000000000000000000000000000000000000000000000000000000000815260040161109890611c14565b60405180910390fd5b600073ffffffffffffffffffffffffffffffffffffffff1660008054906101000a900473ffffffffffffffffffffffffffffffffffffffff1673ffffffffffffffffffffffffffffffffffffffff167f8be0079c531659141344cd1fd0a4f28419497f9722a3daafe3b4186f6b6457e060405160405180910390a360008060006101000a81548173ffffffffffffffffffffffffffffffffffffffff021916908373ffffffffffffffffffffffffffffffffffffffff160217905550565b600060606000806000806000806000806000809295989b509295989b509295989b565b60008060009054906101000a900473ffffffffffffffffffffffffffffffffffffffff16905090565b600160009054906101000a900473ffffffffffffffffffffffffffffffffffffffff1681565b6111d9611393565b73ffffffffffffffffffffffffffffffffffffffff1660008054906101000a900473ffffffffffffffffffffffffffffffffffffffff1673ffffffffffffffffffffffffffffffffffffffff1614611266576040517f08c379a000000000000000000000000000000000000000000000000000000000815260040161125d90611c14565b60405180910390fd5b600073ffffffffffffffffffffffffffffffffffffffff168173ffffffffffffffffffffffffffffffffffffffff1614156112d6576040517f08c379a00000000000000000000000000000000000000000000000000000000081526004016112cd90611bf4565b60405180910390fd5b8073ffffffffffffffffffffffffffffffffffffffff1660008054906101000a900473ffffffffffffffffffffffffffffffffffffffff1673ffffffffffffffffffffffffffffffffffffffff167f8be0079c531659141344cd1fd0a4f28419497f9722a3daafe3b4186f6b6457e060405160405180910390a3806000806101000a81548173ffffffffffffffffffffffffffffffffffffffff021916908373ffffffffffffffffffffffffffffffffffffffff16021790555050565b600033905090565b6000813590506113aa81611e17565b92915050565b6000815190506113bf81611e17565b92915050565b6000813590506113d481611e2e565b92915050565b600082601f8301126113eb57600080fd5b81516113fe6113f982611c7c565b611c4f565b9150808252602083016020830185838301111561141a57600080fd5b611425838284611dd3565b50505092915050565b60008151905061143d81611e45565b92915050565b60008151905061145281611e5c565b92915050565b60006020828403121561146a57600080fd5b60006114788482850161139b565b91505092915050565b60006020828403121561149357600080fd5b60006114a1848285016113b0565b91505092915050565b600080604083850312156114bd57600080fd5b60006114cb8582860161139b565b92505060206114dc8582860161139b565b9150509250929050565b600080604083850312156114f957600080fd5b60006115078582860161139b565b9250506020611518858286016113c5565b9150509250929050565b60008060008060008060008060008060006101608c8e03121561154457600080fd5b60006115528e828f016113b0565b9b505060208c015167ffffffffffffffff81111561156f57600080fd5b61157b8e828f016113da565b9a5050604061158c8e828f0161142e565b995050606061159d8e828f0161142e565b98505060806115ae8e828f0161142e565b97505060a06115bf8e828f0161142e565b96505060c06115d08e828f0161142e565b95505060e06115e18e828f0161142e565b9450506101006115f38e828f0161142e565b9350506101206116058e828f0161142e565b9250506101406116178e828f0161142e565b9150509295989b509295989b9093969950565b60006020828403121561163c57600080fd5b600082015167ffffffffffffffff81111561165657600080fd5b611662848285016113da565b91505092915050565b60006020828403121561167d57600080fd5b600061168b8482850161142e565b91505092915050565b6000602082840312156116a657600080fd5b60006116b484828501611443565b91505092915050565b60006116c98383611701565b60208301905092915050565b60006116e1838361185f565b905092915050565b60006116f58383611986565b60208301905092915050565b61170a81611d80565b82525050565b61171981611d80565b82525050565b600061172a82611cd8565b6117348185611d2b565b935061173f83611ca8565b8060005b8381101561177057815161175788826116bd565b975061176283611d04565b925050600181019050611743565b5085935050505092915050565b600061178882611ce3565b6117928185611d3c565b9350836020820285016117a485611cb8565b8060005b858110156117e057848403895281516117c185826116d5565b94506117cc83611d11565b925060208a019950506001810190506117a8565b50829750879550505050505092915050565b60006117fd82611cee565b6118078185611d4d565b935061181283611cc8565b8060005b8381101561184357815161182a88826116e9565b975061183583611d1e565b925050600181019050611816565b5085935050505092915050565b61185981611d92565b82525050565b600061186a82611cf9565b6118748185611d5e565b9350611884818560208601611dd3565b61188d81611e06565b840191505092915050565b60006118a382611cf9565b6118ad8185611d6f565b93506118bd818560208601611dd3565b6118c681611e06565b840191505092915050565b60006118de602683611d6f565b91507f4f776e61626c653a206e6577206f776e657220697320746865207a65726f206160008301527f64647265737300000000000000000000000000000000000000000000000000006020830152604082019050919050565b6000611944602083611d6f565b91507f4f776e61626c653a2063616c6c6572206973206e6f7420746865206f776e65726000830152602082019050919050565b61198081611dbc565b82525050565b61198f81611dc6565b82525050565b60006020820190506119aa6000830184611710565b92915050565b6000610160820190506119c6600083018e611710565b81810360208301526119d8818d611898565b90506119e7604083018c611977565b6119f4606083018b611977565b611a01608083018a611977565b611a0e60a0830189611977565b611a1b60c0830188611977565b611a2860e0830187611977565b611a36610100830186611977565b611a44610120830185611977565b611a52610140830184611977565b9c9b505050505050505050505050565b600061018082019050611a78600083018f611710565b8181036020830152611a8a818e611898565b9050611a99604083018d611977565b611aa6606083018c611977565b611ab3608083018b611977565b611ac060a083018a611977565b611acd60c0830189611977565b611ada60e0830188611977565b611ae8610100830187611977565b611af6610120830186611977565b611b04610140830185611977565b611b12610160830184611977565b9d9c50505050505050505050505050565b6000610100820190508181036000830152611b3e818b61171f565b90508181036020830152611b52818a61171f565b90508181036040830152611b66818961171f565b90508181036060830152611b7a818861171f565b90508181036080830152611b8e818761171f565b905081810360a0830152611ba2818661171f565b905081810360c0830152611bb6818561177d565b905081810360e0830152611bca81846117f2565b90509998505050505050505050565b6000602082019050611bee6000830184611850565b92915050565b60006020820190508181036000830152611c0d816118d1565b9050919050565b60006020820190508181036000830152611c2d81611937565b9050919050565b6000602082019050611c496000830184611977565b92915050565b6000604051905081810181811067ffffffffffffffff82111715611c7257600080fd5b8060405250919050565b600067ffffffffffffffff821115611c9357600080fd5b601f19601f8301169050602081019050919050565b6000819050602082019050919050565b6000819050602082019050919050565b6000819050602082019050919050565b600081519050919050565b600081519050919050565b600081519050919050565b600081519050919050565b6000602082019050919050565b6000602082019050919050565b6000602082019050919050565b600082825260208201905092915050565b600082825260208201905092915050565b600082825260208201905092915050565b600082825260208201905092915050565b600082825260208201905092915050565b6000611d8b82611d9c565b9050919050565b6000819050919050565b600073ffffffffffffffffffffffffffffffffffffffff82169050919050565b6000819050919050565b600060ff82169050919050565b60005b83811015611df1578082015181840152602081019050611dd6565b83811115611e00576000848401525b50505050565b6000601f19601f8301169050919050565b611e2081611d80565b8114611e2b57600080fd5b50565b611e3781611d92565b8114611e4257600080fd5b50565b611e4e81611dbc565b8114611e5957600080fd5b50565b611e6581611dc6565b8114611e7057600080fd5b5056fea264697066735822122047ec2c374174669c9b693f6cbb43254b2713af917658914a6e51964f4a5eec0a64736f6c634300060c0033",
  "immutableReferences": {},
  "source": "// SPDX-License-Identifier: MIT\n\npragma solidity >=0.6.12;\npragma experimental ABIEncoderV2;\n\nimport \"../openzeppelin/contracts/access/Ownable.sol\";\nimport \"./TeemoPool.sol\";\nimport \"../trade/SwapTrade.sol\";\nimport \"../openzeppelin/contracts/token/ERC20/ERC20.sol\";\n// import \"../interface/ICreator.sol\";\nimport \"./PoolFactory.sol\";\nimport \"./TeemoPool.sol\";\n\ncontract PoolProxy is Ownable {\n    address public poolFactoryAddr;\n\n    constructor(\n        address _poolFactoryAddr\n    ) public {\n        poolFactoryAddr = _poolFactoryAddr;\n    }\n\n    function setPoolFactoryAddr(address _poolFactoryAddr) public {\n        poolFactoryAddr = _poolFactoryAddr;\n    }\n\n    function getAllPoolInfo()\n        public\n        view\n        returns (\n            address[] memory allTeemoPoolAddr,\n            address[] memory allTokenAddr,\n            address[] memory allFundAddr,\n            address[] memory allRiskAddr,\n            address[] memory allSwapTradeAddr,\n            address[] memory allMineAddr,\n            string[] memory allSymbol,\n            uint8[] memory allDecimals\n            //,uint256[] memory allBalanceOf\n        )\n    {\n        uint256 poolLength = PoolFactory(poolFactoryAddr).poolLength();\n        \n        allTeemoPoolAddr = new address[](poolLength);\n        allTokenAddr = new address[](poolLength);\n        allFundAddr = new address[](poolLength);\n        allRiskAddr = new address[](poolLength);\n        allSwapTradeAddr = new address[](poolLength);\n        allMineAddr = new address[](poolLength);\n        allSymbol = new string[](poolLength);\n        allDecimals = new uint8[](poolLength);\n        //allBalanceOf = new uint256[](poolLength);\n\n        for (uint256 i = 0; i < poolLength; i++) {\n            allTeemoPoolAddr[i] = PoolFactory(poolFactoryAddr).allPoolAddr(i);\n            allTokenAddr[i] = TeemoPool(allTeemoPoolAddr[i]).tokenAddr();\n            allFundAddr[i] = TeemoPool(allTeemoPoolAddr[i]).fundAddr();\n            allRiskAddr[i] = TeemoPool(allTeemoPoolAddr[i]).riskAddr();\n            allSwapTradeAddr[i] = TeemoPool(allTeemoPoolAddr[i]).swapTradeAddr();\n            allMineAddr[i] = TeemoPool(allTeemoPoolAddr[i]).mineAddr();\n\n            if (allTokenAddr[i] != address(0)) {\n                allSymbol[i] = ERC20(allTokenAddr[i]).symbol();\n                allDecimals[i] = ERC20(allTokenAddr[i]).decimals();\n            } else {\n                allDecimals[i] = 18;\n            }\n            //allBalanceOf[i] = ERC20(allTokenAddr[i]).balanceOf(msg.sender);\n        }\n    }\n\n    function poolLength() public view returns(uint256) {\n        return PoolFactory(poolFactoryAddr).poolLength();\n    }\n\n    function orderLength(address _teemoPoolAddr, address _userAddress) public view returns (uint256) {\n        //TeemoPool(_teemoPoolAddr).swapTradeAddr\n    }\n\n    function getOrder(address _teemoPoolAddr, bytes32 _orderID)\n        public\n        view\n        returns (\n            address userAddr,\n            string memory symbol,\n            uint256 tokenAmount,\n            uint256 lever,\n            uint256 bsFlag,\n            uint256 openPrice,\n            uint256 openTime,\n            uint256 pLimitPrice,\n            uint256 lLimitPrice,\n            uint256 closePrice,\n            uint256 closeTime\n        )\n    {\n        address swapTradeAddr = TeemoPool(_teemoPoolAddr).swapTradeAddr();\n        (userAddr, symbol, tokenAmount, lever, , , , , , , ) = SwapTrade(swapTradeAddr).allOrderHash(_orderID);\n        (, , , , bsFlag, openPrice, openTime, pLimitPrice, , , ) = SwapTrade(swapTradeAddr).allOrderHash(_orderID);\n        (, , , , , , , pLimitPrice, lLimitPrice, closePrice, closeTime) = SwapTrade(swapTradeAddr).allOrderHash(_orderID);\n    }\n\n    function getLimitOrder(address _teemoPoolAddr, bytes32 _orderID)\n        public\n        view\n        returns (\n            address userAddr,\n            string memory symbol,\n            uint256 tokenAmount,\n            uint256 lever,\n            uint256 bsFlag,\n            uint256 openPrice,\n            uint256 openTime,\n            uint256 newPrice,\n            uint256 pLimitPrice,\n            uint256 lLimitPrice,\n            uint256 closeTime,\n            uint256 status\n        ) \n    {\n        //address swapTradeAddr = TeemoPool(_teemoPoolAddr).swapTradeAddr();\n        //userAddr, symbol, tokenAmount, lever, bsFlag, openPrice, openTime, newPrice, pLimitPrice, lLimitPrice, closeTime, status\n        //(userAddr, , , , , , , , , , , ) = SwapTrade(swapTradeAddr).allOrderHash(_orderID);\n        // (, , , , bsFlag, openPrice, openTime, pLimitPrice, , , , ) = SwapTrade(swapTradeAddr).allLimitOrderHash(_orderID);\n        // (, , , , , , , , pLimitPrice, lLimitPrice, closeTime, status) = SwapTrade(swapTradeAddr).allLimitOrderHash(_orderID);\n    }\n}\n",
  "sourcePath": "/Users/tong/Projects/drep-project/teemo-private/contracts/pool/PoolProxy.sol",
  "compiler": {
    "name": "solc",
    "version": "0.6.12+commit.27d51765.Emscripten.clang"
  },
  "schemaVersion": "3.3.2",
  "updatedAt": "2021-01-15T12:13:17.258Z",
  "devdoc": {
    "kind": "dev",
    "methods": {
      "owner()": {
        "details": "Returns the address of the current owner."
      },
      "renounceOwnership()": {
        "details": "Leaves the contract without owner. It will not be possible to call `onlyOwner` functions anymore. Can only be called by the current owner. NOTE: Renouncing ownership will leave the contract without an owner, thereby removing any functionality that is only available to the owner."
      },
      "transferOwnership(address)": {
        "details": "Transfers ownership of the contract to a new account (`newOwner`). Can only be called by the current owner."
      }
    },
    "version": 1
  },
  "userdoc": {
    "kind": "user",
    "methods": {},
    "version": 1
  }
}