{
  "contractName": "PoolFactory",
  "abi": [
    {
      "inputs": [
        {
          "internalType": "address",
          "name": "_devAddr",
          "type": "address"
        },
        {
          "internalType": "address",
          "name": "_quoteFactoryAddr",
          "type": "address"
        },
        {
          "internalType": "address",
          "name": "_teemoTokenAddr",
          "type": "address"
        },
        {
          "internalType": "address",
          "name": "_teemoGovTokenAddr",
          "type": "address"
        },
        {
          "internalType": "string[]",
          "name": "_creatorNames",
          "type": "string[]"
        },
        {
          "internalType": "address[]",
          "name": "_creatorAddrs",
          "type": "address[]"
        }
      ],
      "stateMutability": "nonpayable",
      "type": "constructor"
    },
    {
      "anonymous": false,
      "inputs": [
        {
          "indexed": true,
          "internalType": "address",
          "name": "tokenAddr",
          "type": "address"
        },
        {
          "indexed": true,
          "internalType": "address",
          "name": "poolAddr",
          "type": "address"
        }
      ],
      "name": "AddPool",
      "type": "event"
    },
    {
      "anonymous": false,
      "inputs": [
        {
          "indexed": true,
          "internalType": "address",
          "name": "tokenAddr",
          "type": "address"
        },
        {
          "indexed": true,
          "internalType": "address",
          "name": "poolAddr",
          "type": "address"
        },
        {
          "indexed": true,
          "internalType": "address",
          "name": "createAddr",
          "type": "address"
        }
      ],
      "name": "AddPoolModule",
      "type": "event"
    },
    {
      "anonymous": false,
      "inputs": [
        {
          "indexed": true,
          "internalType": "address",
          "name": "previousOwner",
          "type": "address"
        },
        {
          "indexed": true,
          "internalType": "address",
          "name": "newOwner",
          "type": "address"
        }
      ],
      "name": "OwnershipTransferred",
      "type": "event"
    },
    {
      "inputs": [
        {
          "internalType": "string",
          "name": "",
          "type": "string"
        }
      ],
      "name": "allCreatorInfo",
      "outputs": [
        {
          "internalType": "address",
          "name": "",
          "type": "address"
        }
      ],
      "stateMutability": "view",
      "type": "function"
    },
    {
      "inputs": [
        {
          "internalType": "address",
          "name": "",
          "type": "address"
        },
        {
          "internalType": "string",
          "name": "",
          "type": "string"
        }
      ],
      "name": "allModuleInfo",
      "outputs": [
        {
          "internalType": "address",
          "name": "",
          "type": "address"
        }
      ],
      "stateMutability": "view",
      "type": "function"
    },
    {
      "inputs": [
        {
          "internalType": "uint256",
          "name": "",
          "type": "uint256"
        }
      ],
      "name": "allPoolAddr",
      "outputs": [
        {
          "internalType": "address",
          "name": "",
          "type": "address"
        }
      ],
      "stateMutability": "view",
      "type": "function"
    },
    {
      "inputs": [
        {
          "internalType": "address",
          "name": "",
          "type": "address"
        }
      ],
      "name": "allPoolIndex",
      "outputs": [
        {
          "internalType": "uint256",
          "name": "",
          "type": "uint256"
        }
      ],
      "stateMutability": "view",
      "type": "function"
    },
    {
      "inputs": [
        {
          "internalType": "address",
          "name": "",
          "type": "address"
        }
      ],
      "name": "allTokenIndex",
      "outputs": [
        {
          "internalType": "uint256",
          "name": "",
          "type": "uint256"
        }
      ],
      "stateMutability": "view",
      "type": "function"
    },
    {
      "inputs": [],
      "name": "bonusRecordAddr",
      "outputs": [
        {
          "internalType": "address",
          "name": "",
          "type": "address"
        }
      ],
      "stateMutability": "view",
      "type": "function"
    },
    {
      "inputs": [],
      "name": "devAddr",
      "outputs": [
        {
          "internalType": "address",
          "name": "",
          "type": "address"
        }
      ],
      "stateMutability": "view",
      "type": "function"
    },
    {
      "inputs": [],
      "name": "emergency",
      "outputs": [
        {
          "internalType": "bool",
          "name": "",
          "type": "bool"
        }
      ],
      "stateMutability": "view",
      "type": "function"
    },
    {
      "inputs": [],
      "name": "feeReceiver",
      "outputs": [
        {
          "internalType": "address payable",
          "name": "",
          "type": "address"
        }
      ],
      "stateMutability": "view",
      "type": "function"
    },
    {
      "inputs": [],
      "name": "openFee",
      "outputs": [
        {
          "internalType": "uint256",
          "name": "",
          "type": "uint256"
        }
      ],
      "stateMutability": "view",
      "type": "function"
    },
    {
      "inputs": [],
      "name": "owner",
      "outputs": [
        {
          "internalType": "address",
          "name": "",
          "type": "address"
        }
      ],
      "stateMutability": "view",
      "type": "function"
    },
    {
      "inputs": [],
      "name": "projectStatus",
      "outputs": [
        {
          "internalType": "bool",
          "name": "",
          "type": "bool"
        }
      ],
      "stateMutability": "view",
      "type": "function"
    },
    {
      "inputs": [],
      "name": "quoteFactoryAddr",
      "outputs": [
        {
          "internalType": "address",
          "name": "",
          "type": "address"
        }
      ],
      "stateMutability": "view",
      "type": "function"
    },
    {
      "inputs": [],
      "name": "renounceOwnership",
      "outputs": [],
      "stateMutability": "nonpayable",
      "type": "function"
    },
    {
      "inputs": [
        {
          "internalType": "address",
          "name": "",
          "type": "address"
        }
      ],
      "name": "swapOwner",
      "outputs": [
        {
          "internalType": "bool",
          "name": "",
          "type": "bool"
        }
      ],
      "stateMutability": "view",
      "type": "function"
    },
    {
      "inputs": [],
      "name": "teemoGovTokenAddr",
      "outputs": [
        {
          "internalType": "address",
          "name": "",
          "type": "address"
        }
      ],
      "stateMutability": "view",
      "type": "function"
    },
    {
      "inputs": [],
      "name": "teemoTokenAddr",
      "outputs": [
        {
          "internalType": "address",
          "name": "",
          "type": "address"
        }
      ],
      "stateMutability": "view",
      "type": "function"
    },
    {
      "inputs": [
        {
          "internalType": "address",
          "name": "newOwner",
          "type": "address"
        }
      ],
      "name": "transferOwnership",
      "outputs": [],
      "stateMutability": "nonpayable",
      "type": "function"
    },
    {
      "inputs": [],
      "name": "poolLength",
      "outputs": [
        {
          "internalType": "uint256",
          "name": "",
          "type": "uint256"
        }
      ],
      "stateMutability": "view",
      "type": "function"
    },
    {
      "inputs": [
        {
          "internalType": "address",
          "name": "_quoteFactoryAddr",
          "type": "address"
        }
      ],
      "name": "setQuoteFactoryAddr",
      "outputs": [],
      "stateMutability": "nonpayable",
      "type": "function"
    },
    {
      "inputs": [
        {
          "internalType": "address",
          "name": "_teemoTokenAddr",
          "type": "address"
        }
      ],
      "name": "setTeemoTokenAddr",
      "outputs": [],
      "stateMutability": "nonpayable",
      "type": "function"
    },
    {
      "inputs": [
        {
          "internalType": "address",
          "name": "_teemoGovTokenAddr",
          "type": "address"
        }
      ],
      "name": "setTeemoGovTokenAddr",
      "outputs": [],
      "stateMutability": "nonpayable",
      "type": "function"
    },
    {
      "inputs": [
        {
          "internalType": "address",
          "name": "_devAddr",
          "type": "address"
        }
      ],
      "name": "setDevAddr",
      "outputs": [],
      "stateMutability": "nonpayable",
      "type": "function"
    },
    {
      "inputs": [
        {
          "internalType": "string",
          "name": "_creatorName",
          "type": "string"
        },
        {
          "internalType": "address",
          "name": "_creatorAddr",
          "type": "address"
        }
      ],
      "name": "setCreatorInfo",
      "outputs": [],
      "stateMutability": "nonpayable",
      "type": "function"
    },
    {
      "inputs": [
        {
          "internalType": "address",
          "name": "_tokenAddr",
          "type": "address"
        },
        {
          "internalType": "address",
          "name": "_mainnetTokenAddr",
          "type": "address"
        }
      ],
      "name": "addPool",
      "outputs": [
        {
          "internalType": "address",
          "name": "createAddr",
          "type": "address"
        }
      ],
      "stateMutability": "nonpayable",
      "type": "function"
    },
    {
      "inputs": [],
      "name": "addWPool",
      "outputs": [
        {
          "internalType": "address",
          "name": "createAddr",
          "type": "address"
        }
      ],
      "stateMutability": "nonpayable",
      "type": "function"
    },
    {
      "inputs": [
        {
          "internalType": "string",
          "name": "_creatorName",
          "type": "string"
        },
        {
          "internalType": "address",
          "name": "_tokenAddr",
          "type": "address"
        },
        {
          "internalType": "uint256[]",
          "name": "_args",
          "type": "uint256[]"
        }
      ],
      "name": "addPoolModule",
      "outputs": [
        {
          "internalType": "address",
          "name": "createAddr",
          "type": "address"
        }
      ],
      "stateMutability": "nonpayable",
      "type": "function"
    },
    {
      "inputs": [
        {
          "internalType": "address",
          "name": "_poolAddr",
          "type": "address"
        },
        {
          "internalType": "string",
          "name": "_moduleName",
          "type": "string"
        }
      ],
      "name": "getPoolModuleAddr",
      "outputs": [
        {
          "internalType": "address",
          "name": "moduleAddr",
          "type": "address"
        }
      ],
      "stateMutability": "view",
      "type": "function"
    },
    {
      "inputs": [
        {
          "internalType": "uint256",
          "name": "_mintAmount",
          "type": "uint256"
        }
      ],
      "name": "mintToken",
      "outputs": [],
      "stateMutability": "nonpayable",
      "type": "function"
    },
    {
      "inputs": [
        {
          "internalType": "address",
          "name": "_to",
          "type": "address"
        },
        {
          "internalType": "uint256",
          "name": "_amount",
          "type": "uint256"
        }
      ],
      "name": "safeTeemoTransfer",
      "outputs": [],
      "stateMutability": "nonpayable",
      "type": "function"
    },
    {
      "inputs": [
        {
          "internalType": "address",
          "name": "_userAddr",
          "type": "address"
        },
        {
          "internalType": "uint256",
          "name": "_mintAmount",
          "type": "uint256"
        }
      ],
      "name": "mintGovToken",
      "outputs": [],
      "stateMutability": "nonpayable",
      "type": "function"
    },
    {
      "inputs": [
        {
          "internalType": "address",
          "name": "_tokenAddr",
          "type": "address"
        }
      ],
      "name": "getAddr",
      "outputs": [
        {
          "internalType": "address",
          "name": "poolAddr",
          "type": "address"
        }
      ],
      "stateMutability": "view",
      "type": "function"
    },
    {
      "inputs": [
        {
          "internalType": "string",
          "name": "_creatorName",
          "type": "string"
        }
      ],
      "name": "getCreatorAddr",
      "outputs": [
        {
          "internalType": "address",
          "name": "creatorAddr",
          "type": "address"
        }
      ],
      "stateMutability": "view",
      "type": "function"
    },
    {
      "inputs": [
        {
          "internalType": "address",
          "name": "_bonus",
          "type": "address"
        }
      ],
      "name": "setBonusRecord",
      "outputs": [],
      "stateMutability": "nonpayable",
      "type": "function"
    },
    {
      "inputs": [
        {
          "internalType": "uint256",
          "name": "_updateType",
          "type": "uint256"
        },
        {
          "internalType": "address",
          "name": "_user",
          "type": "address"
        },
        {
          "internalType": "uint256",
          "name": "_amount",
          "type": "uint256"
        }
      ],
      "name": "updateBonus",
      "outputs": [],
      "stateMutability": "nonpayable",
      "type": "function"
    },
    {
      "inputs": [
        {
          "internalType": "uint8",
          "name": "_mintType",
          "type": "uint8"
        },
        {
          "internalType": "address",
          "name": "_user",
          "type": "address"
        },
        {
          "internalType": "uint256",
          "name": "_amount",
          "type": "uint256"
        }
      ],
      "name": "mintBonus",
      "outputs": [],
      "stateMutability": "nonpayable",
      "type": "function"
    },
    {
      "inputs": [
        {
          "internalType": "bool",
          "name": "_status",
          "type": "bool"
        }
      ],
      "name": "setStatus",
      "outputs": [],
      "stateMutability": "nonpayable",
      "type": "function"
    },
    {
      "inputs": [],
      "name": "getStatus",
      "outputs": [
        {
          "internalType": "bool",
          "name": "status",
          "type": "bool"
        }
      ],
      "stateMutability": "view",
      "type": "function"
    },
    {
      "inputs": [
        {
          "internalType": "uint256",
          "name": "_validBlocks",
          "type": "uint256"
        }
      ],
      "name": "setValidBlocks",
      "outputs": [],
      "stateMutability": "nonpayable",
      "type": "function"
    },
    {
      "inputs": [
        {
          "internalType": "address payable",
          "name": "_receiver",
          "type": "address"
        }
      ],
      "name": "setFeeReceiver",
      "outputs": [],
      "stateMutability": "nonpayable",
      "type": "function"
    },
    {
      "inputs": [],
      "name": "getFeeReceiver",
      "outputs": [
        {
          "internalType": "address payable",
          "name": "receiver",
          "type": "address"
        }
      ],
      "stateMutability": "view",
      "type": "function"
    },
    {
      "inputs": [
        {
          "internalType": "uint256",
          "name": "_openFee",
          "type": "uint256"
        }
      ],
      "name": "setOpenFee",
      "outputs": [],
      "stateMutability": "nonpayable",
      "type": "function"
    },
    {
      "inputs": [],
      "name": "getOpenFee",
      "outputs": [
        {
          "internalType": "uint256",
          "name": "fee",
          "type": "uint256"
        }
      ],
      "stateMutability": "view",
      "type": "function"
    },
    {
      "inputs": [
        {
          "internalType": "address",
          "name": "_swapAddr",
          "type": "address"
        },
        {
          "internalType": "bool",
          "name": "_status",
          "type": "bool"
        }
      ],
      "name": "setSwapOwner",
      "outputs": [],
      "stateMutability": "nonpayable",
      "type": "function"
    },
    {
      "inputs": [
        {
          "internalType": "address",
          "name": "_poolAddr",
          "type": "address"
        },
        {
          "internalType": "address",
          "name": "_tokenAddr",
          "type": "address"
        },
        {
          "internalType": "address",
          "name": "_to",
          "type": "address"
        },
        {
          "internalType": "uint256",
          "name": "_amount",
          "type": "uint256"
        }
      ],
      "name": "emergencyWithdraw",
      "outputs": [],
      "stateMutability": "nonpayable",
      "type": "function"
    },
    {
      "inputs": [
        {
          "internalType": "address",
          "name": "_poolAddr",
          "type": "address"
        },
        {
          "internalType": "string",
          "name": "_symbol",
          "type": "string"
        },
        {
          "internalType": "bytes32",
          "name": "_orderID",
          "type": "bytes32"
        },
        {
          "internalType": "uint256[]",
          "name": "_price",
          "type": "uint256[]"
        }
      ],
      "name": "setOpenPriceByOwner",
      "outputs": [],
      "stateMutability": "nonpayable",
      "type": "function"
    },
    {
      "inputs": [
        {
          "internalType": "address",
          "name": "_poolAddr",
          "type": "address"
        },
        {
          "internalType": "string",
          "name": "_symbol",
          "type": "string"
        },
        {
          "internalType": "address",
          "name": "_userAddr",
          "type": "address"
        },
        {
          "internalType": "bytes32",
          "name": "_orderID",
          "type": "bytes32"
        },
        {
          "internalType": "uint256[]",
          "name": "_price",
          "type": "uint256[]"
        }
      ],
      "name": "closeMarketByOwner",
      "outputs": [],
      "stateMutability": "nonpayable",
      "type": "function"
    },
    {
      "inputs": [
        {
          "internalType": "address",
          "name": "_poolAddr",
          "type": "address"
        },
        {
          "internalType": "string",
          "name": "_symbol",
          "type": "string"
        },
        {
          "internalType": "bytes32[]",
          "name": "_orderIDs",
          "type": "bytes32[]"
        },
        {
          "internalType": "uint256[]",
          "name": "_price",
          "type": "uint256[]"
        }
      ],
      "name": "tradeLimitSwapsByOwner",
      "outputs": [],
      "stateMutability": "nonpayable",
      "type": "function"
    },
    {
      "inputs": [
        {
          "internalType": "address",
          "name": "_poolAddr",
          "type": "address"
        },
        {
          "internalType": "string",
          "name": "_symbol",
          "type": "string"
        },
        {
          "internalType": "bytes32[]",
          "name": "_orderIDs",
          "type": "bytes32[]"
        },
        {
          "internalType": "uint256[]",
          "name": "_price",
          "type": "uint256[]"
        }
      ],
      "name": "closeLimitSwapsByOwner",
      "outputs": [],
      "stateMutability": "nonpayable",
      "type": "function"
    }
  ],
  "bytecode": "0x60806040523480156200001157600080fd5b506040516200545c3803806200545c833981810160405281019062000037919062000574565b600062000049620002ec60201b60201c565b9050806000806101000a81548173ffffffffffffffffffffffffffffffffffffffff021916908373ffffffffffffffffffffffffffffffffffffffff1602179055508073ffffffffffffffffffffffffffffffffffffffff16600073ffffffffffffffffffffffffffffffffffffffff167f8be0079c531659141344cd1fd0a4f28419497f9722a3daafe3b4186f6b6457e060405160405180910390a35085600660006101000a81548173ffffffffffffffffffffffffffffffffffffffff021916908373ffffffffffffffffffffffffffffffffffffffff16021790555084600260006101000a81548173ffffffffffffffffffffffffffffffffffffffff021916908373ffffffffffffffffffffffffffffffffffffffff16021790555083600360006101000a81548173ffffffffffffffffffffffffffffffffffffffff021916908373ffffffffffffffffffffffffffffffffffffffff16021790555082600460006101000a81548173ffffffffffffffffffffffffffffffffffffffff021916908373ffffffffffffffffffffffffffffffffffffffff160217905550805182511462000232576040517f08c379a0000000000000000000000000000000000000000000000000000000008152600401620002299062000710565b60405180910390fd5b60005b82518110156200028757620002798382815181106200025057fe5b60200260200101518383815181106200026557fe5b6020026020010151620002f460201b60201c565b808060010191505062000235565b506001600d60003373ffffffffffffffffffffffffffffffffffffffff1673ffffffffffffffffffffffffffffffffffffffff16815260200190815260200160002060006101000a81548160ff021916908315150217905550505050505050620008ac565b600033905090565b62000304620002ec60201b60201c565b73ffffffffffffffffffffffffffffffffffffffff1660008054906101000a900473ffffffffffffffffffffffffffffffffffffffff1673ffffffffffffffffffffffffffffffffffffffff161462000394576040517f08c379a00000000000000000000000000000000000000000000000000000000081526004016200038b9062000732565b60405180910390fd5b80600b83604051620003a79190620006f7565b908152602001604051809103902060006101000a81548173ffffffffffffffffffffffffffffffffffffffff021916908373ffffffffffffffffffffffffffffffffffffffff1602179055505050565b600081519050620004088162000892565b92915050565b600082601f8301126200042057600080fd5b815162000437620004318262000782565b62000754565b915081818352602084019350602081019050838560208402820111156200045d57600080fd5b60005b83811015620004915781620004768882620003f7565b84526020840193506020830192505060018101905062000460565b5050505092915050565b600082601f830112620004ad57600080fd5b8151620004c4620004be82620007ab565b62000754565b9150818183526020840193506020810190508360005b838110156200050e5781518601620004f3888262000518565b845260208401935060208301925050600181019050620004da565b5050505092915050565b600082601f8301126200052a57600080fd5b8151620005416200053b82620007d4565b62000754565b915080825260208301602083018583830111156200055e57600080fd5b6200056b8382846200085c565b50505092915050565b60008060008060008060c087890312156200058e57600080fd5b60006200059e89828a01620003f7565b9650506020620005b189828a01620003f7565b9550506040620005c489828a01620003f7565b9450506060620005d789828a01620003f7565b935050608087015167ffffffffffffffff811115620005f557600080fd5b6200060389828a016200049b565b92505060a087015167ffffffffffffffff8111156200062157600080fd5b6200062f89828a016200040e565b9150509295509295509295565b6000620006498262000801565b6200065581856200081d565b9350620006678185602086016200085c565b80840191505092915050565b6000620006826010836200080c565b91507f63726561746f7220696e666f20657272000000000000000000000000000000006000830152602082019050919050565b6000620006c46020836200080c565b91507f4f776e61626c653a2063616c6c6572206973206e6f7420746865206f776e65726000830152602082019050919050565b60006200070582846200063c565b915081905092915050565b600060208201905081810360008301526200072b8162000673565b9050919050565b600060208201905081810360008301526200074d81620006b5565b9050919050565b6000604051905081810181811067ffffffffffffffff821117156200077857600080fd5b8060405250919050565b600067ffffffffffffffff8211156200079a57600080fd5b602082029050602081019050919050565b600067ffffffffffffffff821115620007c357600080fd5b602082029050602081019050919050565b600067ffffffffffffffff821115620007ec57600080fd5b601f19601f8301169050602081019050919050565b600081519050919050565b600082825260208201905092915050565b600081905092915050565b600062000835826200083c565b9050919050565b600073ffffffffffffffffffffffffffffffffffffffff82169050919050565b60005b838110156200087c5780820151818401526020810190506200085f565b838111156200088c576000848401525b50505050565b6200089d8162000828565b8114620008a957600080fd5b50565b614ba080620008bc6000396000f3fe608060405234801561001057600080fd5b50600436106102bb5760003560e01c8063b0a868e911610182578063d8381d91116100e9578063eb511dd4116100a2578063f2fde38b1161007c578063f2fde38b1461087e578063f5b564061461089a578063fc75a9a6146108b6578063ffaef038146108e6576102bb565b8063eb511dd414610814578063efdcd97414610844578063f230360314610860576102bb565b8063d8381d9114610754578063d960646114610770578063da09c72c1461078c578063e6085da7146107aa578063e8a35392146107da578063eadb2bdd146107f8576102bb565b8063c623129d1161013b578063c623129d14610696578063c634d032146106c6578063caa6fea4146106e2578063cadd368614610700578063cd049a931461071c578063d688c1b914610738576102bb565b8063b0a868e9146105d0578063b3f00674146105ee578063b4108a941461060c578063b78450731461063c578063ba6392c01461065a578063bcf815dd14610678576102bb565b80635d1495e9116102265780638da5cb5b116101df5780638da5cb5b146104fc57806390a793681461051a5780639216267a1461054a5780639612b0c414610566578063a7fad92f14610596578063afcfb11a146105b2576102bb565b80635d1495e91461043e57806365f48f631461046e5780636776e8931461048a5780636ebb64a2146104a6578063715018a6146104c257806373ac74af146104cc576102bb565b806330e100161161027857806330e10016146103805780633cd8f7451461039c5780634e69d560146103cc5780634f482954146103ea5780635c40f6f4146104065780635cb4554114610422576102bb565b8063081e3eda146102c05780630f157018146102de5780631ab33308146102fa57806324111e2c146103185780632fc94b971461034857806330c856bc14610364575b600080fd5b6102c8610904565b6040516102d59190614888565b60405180910390f35b6102f860048036038101906102f391906139ed565b610911565b005b6103026109ea565b60405161030f9190614689565b60405180910390f35b610332600480360381019061032d9190613e0a565b6109fd565b60405161033f91906144fc565b60405180910390f35b610362600480360381019061035d9190613b07565b610a46565b005b61037e60048036038101906103799190613f1e565b610b36565b005b61039a600480360381019061039591906139ed565b610bd5565b005b6103b660048036038101906103b19190613e0a565b610cae565b6040516103c391906144fc565b60405180910390f35b6103d4610d66565b6040516103e19190614689565b60405180910390f35b61040460048036038101906103ff91906139ed565b610d7d565b005b610420600480360381019061041b9190613db8565b610e56565b005b61043c60048036038101906104379190613f70565b610f08565b005b61045860048036038101906104539190613b43565b6110b3565b60405161046591906144fc565b60405180910390f35b61048860048036038101906104839190613e4b565b611139565b005b6104a4600480360381019061049f9190613c3e565b61122f565b005b6104c060048036038101906104bb91906139ed565b611454565b005b6104ca61152d565b005b6104e660048036038101906104e19190613b43565b611680565b6040516104f391906144fc565b60405180910390f35b6105046116d8565b60405161051191906144fc565b60405180910390f35b610534600480360381019061052f91906139ed565b611701565b6040516105419190614689565b60405180910390f35b610564600480360381019061055f9190613aa4565b611721565b005b610580600480360381019061057b9190613f1e565b61182b565b60405161058d91906144fc565b60405180910390f35b6105b060048036038101906105ab9190613b97565b611867565b005b6105ba611a8f565b6040516105c791906144fc565b60405180910390f35b6105d8611ab5565b6040516105e591906144fc565b60405180910390f35b6105f6611adb565b6040516106039190614517565b60405180910390f35b610626600480360381019061062191906139ed565b611b01565b60405161063391906144fc565b60405180910390f35b610644611c04565b6040516106519190614888565b60405180910390f35b610662611c0a565b60405161066f91906144fc565b60405180910390f35b610680611c30565b60405161068d91906144fc565b60405180910390f35b6106b060048036038101906106ab91906139ed565b611c56565b6040516106bd9190614888565b60405180910390f35b6106e060048036038101906106db9190613f1e565b611c6e565b005b6106ea611e47565b6040516106f79190614689565b60405180910390f35b61071a600480360381019061071591906139ed565b611e5a565b005b61073660048036038101906107319190613d7c565b611f33565b005b610752600480360381019061074d9190613d7c565b6121d8565b005b61076e60048036038101906107699190613fbf565b6122ee565b005b61078a60048036038101906107859190613ce9565b6124b3565b005b6107946126d8565b6040516107a191906144fc565b60405180910390f35b6107c460048036038101906107bf91906139ed565b6126fe565b6040516107d19190614888565b60405180910390f35b6107e2612716565b6040516107ef9190614517565b60405180910390f35b610812600480360381019061080d9190613f1e565b612740565b005b61082e60048036038101906108299190613a68565b612898565b60405161083b91906144fc565b60405180910390f35b61085e60048036038101906108599190613a3f565b612bfe565b005b610868612cd7565b60405161087591906144fc565b60405180910390f35b610898600480360381019061089391906139ed565b613037565b005b6108b460048036038101906108af9190613c3e565b6131f9565b005b6108d060048036038101906108cb9190613e9f565b61341e565b6040516108dd91906144fc565b60405180910390f35b6108ee613674565b6040516108fb9190614888565b60405180910390f35b6000600880549050905090565b61091961367e565b73ffffffffffffffffffffffffffffffffffffffff1660008054906101000a900473ffffffffffffffffffffffffffffffffffffffff1673ffffffffffffffffffffffffffffffffffffffff16146109a6576040517f08c379a000000000000000000000000000000000000000000000000000000000815260040161099d906147e8565b60405180910390fd5b80600560006101000a81548173ffffffffffffffffffffffffffffffffffffffff021916908373ffffffffffffffffffffffffffffffffffffffff16021790555050565b600e60009054906101000a900460ff1681565b600b818051602081018201805184825260208301602085012081835280955050505050506000915054906101000a900473ffffffffffffffffffffffffffffffffffffffff1681565b610a4e61367e565b73ffffffffffffffffffffffffffffffffffffffff1660008054906101000a900473ffffffffffffffffffffffffffffffffffffffff1673ffffffffffffffffffffffffffffffffffffffff1614610adb576040517f08c379a0000000000000000000000000000000000000000000000000000000008152600401610ad2906147e8565b60405180910390fd5b80600d60008473ffffffffffffffffffffffffffffffffffffffff1673ffffffffffffffffffffffffffffffffffffffff16815260200190815260200160002060006101000a81548160ff0219169083151502179055505050565b610b3e61367e565b73ffffffffffffffffffffffffffffffffffffffff1660008054906101000a900473ffffffffffffffffffffffffffffffffffffffff1673ffffffffffffffffffffffffffffffffffffffff1614610bcb576040517f08c379a0000000000000000000000000000000000000000000000000000000008152600401610bc2906147e8565b60405180910390fd5b8060018190555050565b610bdd61367e565b73ffffffffffffffffffffffffffffffffffffffff1660008054906101000a900473ffffffffffffffffffffffffffffffffffffffff1673ffffffffffffffffffffffffffffffffffffffff1614610c6a576040517f08c379a0000000000000000000000000000000000000000000000000000000008152600401610c61906147e8565b60405180910390fd5b80600460006101000a81548173ffffffffffffffffffffffffffffffffffffffff021916908373ffffffffffffffffffffffffffffffffffffffff16021790555050565b6000600b82604051610cc091906144e5565b908152602001604051809103902060009054906101000a900473ffffffffffffffffffffffffffffffffffffffff169050600073ffffffffffffffffffffffffffffffffffffffff168173ffffffffffffffffffffffffffffffffffffffff161415610d61576040517f08c379a0000000000000000000000000000000000000000000000000000000008152600401610d5890614828565b60405180910390fd5b919050565b6000600e60009054906101000a900460ff16905090565b610d8561367e565b73ffffffffffffffffffffffffffffffffffffffff1660008054906101000a900473ffffffffffffffffffffffffffffffffffffffff1673ffffffffffffffffffffffffffffffffffffffff1614610e12576040517f08c379a0000000000000000000000000000000000000000000000000000000008152600401610e09906147e8565b60405180910390fd5b80600360006101000a81548173ffffffffffffffffffffffffffffffffffffffff021916908373ffffffffffffffffffffffffffffffffffffffff16021790555050565b610e5e61367e565b73ffffffffffffffffffffffffffffffffffffffff1660008054906101000a900473ffffffffffffffffffffffffffffffffffffffff1673ffffffffffffffffffffffffffffffffffffffff1614610eeb576040517f08c379a0000000000000000000000000000000000000000000000000000000008152600401610ee2906147e8565b60405180910390fd5b80600e60006101000a81548160ff02191690831515021790555050565b6000600a60003373ffffffffffffffffffffffffffffffffffffffff1673ffffffffffffffffffffffffffffffffffffffff168152602001908152602001600020541415610f8b576040517f08c379a0000000000000000000000000000000000000000000000000000000008152600401610f8290614808565b60405180910390fd5b600073ffffffffffffffffffffffffffffffffffffffff16600560009054906101000a900473ffffffffffffffffffffffffffffffffffffffff1673ffffffffffffffffffffffffffffffffffffffff16141561101d576040517f08c379a0000000000000000000000000000000000000000000000000000000008152600401611014906147c8565b60405180910390fd5b600560009054906101000a900473ffffffffffffffffffffffffffffffffffffffff1673ffffffffffffffffffffffffffffffffffffffff16635cb455418484846040518463ffffffff1660e01b815260040161107c939291906148a3565b600060405180830381600087803b15801561109657600080fd5b505af11580156110aa573d6000803e3d6000fd5b50505050505050565b6000600c60008473ffffffffffffffffffffffffffffffffffffffff1673ffffffffffffffffffffffffffffffffffffffff1681526020019081526020016000208260405161110291906144e5565b908152602001604051809103902060009054906101000a900473ffffffffffffffffffffffffffffffffffffffff16905092915050565b61114161367e565b73ffffffffffffffffffffffffffffffffffffffff1660008054906101000a900473ffffffffffffffffffffffffffffffffffffffff1673ffffffffffffffffffffffffffffffffffffffff16146111ce576040517f08c379a00000000000000000000000000000000000000000000000000000000081526004016111c5906147e8565b60405180910390fd5b80600b836040516111df91906144e5565b908152602001604051809103902060006101000a81548173ffffffffffffffffffffffffffffffffffffffff021916908373ffffffffffffffffffffffffffffffffffffffff1602179055505050565b60011515600d60003373ffffffffffffffffffffffffffffffffffffffff1673ffffffffffffffffffffffffffffffffffffffff16815260200190815260200160002060009054906101000a900460ff161515146112c2576040517f08c379a00000000000000000000000000000000000000000000000000000000081526004016112b990614788565b60405180910390fd5b6000600260009054906101000a900473ffffffffffffffffffffffffffffffffffffffff1673ffffffffffffffffffffffffffffffffffffffff16633c50bcd785846040518363ffffffff1660e01b81526004016113219291906146e1565b602060405180830381600087803b15801561133b57600080fd5b505af115801561134f573d6000803e3d6000fd5b505050506040513d601f19601f820116820180604052508101906113739190613f47565b90508473ffffffffffffffffffffffffffffffffffffffff16638edc2e37846040518263ffffffff1660e01b81526004016113ae9190614667565b600060405180830381600087803b1580156113c857600080fd5b505af11580156113dc573d6000803e3d6000fd5b505050508473ffffffffffffffffffffffffffffffffffffffff16630282ad6785836040518363ffffffff1660e01b815260040161141b929190614718565b600060405180830381600087803b15801561143557600080fd5b505af1158015611449573d6000803e3d6000fd5b505050505050505050565b61145c61367e565b73ffffffffffffffffffffffffffffffffffffffff1660008054906101000a900473ffffffffffffffffffffffffffffffffffffffff1673ffffffffffffffffffffffffffffffffffffffff16146114e9576040517f08c379a00000000000000000000000000000000000000000000000000000000081526004016114e0906147e8565b60405180910390fd5b80600660006101000a81548173ffffffffffffffffffffffffffffffffffffffff021916908373ffffffffffffffffffffffffffffffffffffffff16021790555050565b61153561367e565b73ffffffffffffffffffffffffffffffffffffffff1660008054906101000a900473ffffffffffffffffffffffffffffffffffffffff1673ffffffffffffffffffffffffffffffffffffffff16146115c2576040517f08c379a00000000000000000000000000000000000000000000000000000000081526004016115b9906147e8565b60405180910390fd5b600073ffffffffffffffffffffffffffffffffffffffff1660008054906101000a900473ffffffffffffffffffffffffffffffffffffffff1673ffffffffffffffffffffffffffffffffffffffff167f8be0079c531659141344cd1fd0a4f28419497f9722a3daafe3b4186f6b6457e060405160405180910390a360008060006101000a81548173ffffffffffffffffffffffffffffffffffffffff021916908373ffffffffffffffffffffffffffffffffffffffff160217905550565b600c602052816000526040600020818051602081018201805184825260208301602085012081835280955050505050506000915091509054906101000a900473ffffffffffffffffffffffffffffffffffffffff1681565b60008060009054906101000a900473ffffffffffffffffffffffffffffffffffffffff16905090565b600d6020528060005260406000206000915054906101000a900460ff1681565b61172961367e565b73ffffffffffffffffffffffffffffffffffffffff1660008054906101000a900473ffffffffffffffffffffffffffffffffffffffff1673ffffffffffffffffffffffffffffffffffffffff16146117b6576040517f08c379a00000000000000000000000000000000000000000000000000000000081526004016117ad906147e8565b60405180910390fd5b8373ffffffffffffffffffffffffffffffffffffffff1663e63ea4088484846040518463ffffffff1660e01b81526004016117f3939291906145de565b600060405180830381600087803b15801561180d57600080fd5b505af1158015611821573d6000803e3d6000fd5b5050505050505050565b6008818154811061183857fe5b906000526020600020016000915054906101000a900473ffffffffffffffffffffffffffffffffffffffff1681565b60011515600d60003373ffffffffffffffffffffffffffffffffffffffff1673ffffffffffffffffffffffffffffffffffffffff16815260200190815260200160002060009054906101000a900460ff161515146118fa576040517f08c379a00000000000000000000000000000000000000000000000000000000081526004016118f190614788565b60405180910390fd5b6000600260009054906101000a900473ffffffffffffffffffffffffffffffffffffffff1673ffffffffffffffffffffffffffffffffffffffff16633c50bcd786846040518363ffffffff1660e01b81526004016119599291906146e1565b602060405180830381600087803b15801561197357600080fd5b505af1158015611987573d6000803e3d6000fd5b505050506040513d601f19601f820116820180604052508101906119ab9190613f47565b90508573ffffffffffffffffffffffffffffffffffffffff1663252f6adf85856040518363ffffffff1660e01b81526004016119e8929190614615565b600060405180830381600087803b158015611a0257600080fd5b505af1158015611a16573d6000803e3d6000fd5b505050508573ffffffffffffffffffffffffffffffffffffffff16630282ad6786836040518363ffffffff1660e01b8152600401611a55929190614718565b600060405180830381600087803b158015611a6f57600080fd5b505af1158015611a83573d6000803e3d6000fd5b50505050505050505050565b600260009054906101000a900473ffffffffffffffffffffffffffffffffffffffff1681565b600460009054906101000a900473ffffffffffffffffffffffffffffffffffffffff1681565b600760009054906101000a900473ffffffffffffffffffffffffffffffffffffffff1681565b60006008611b586001600960008673ffffffffffffffffffffffffffffffffffffffff1673ffffffffffffffffffffffffffffffffffffffff1681526020019081526020016000205461368690919063ffffffff16565b81548110611b6257fe5b9060005260206000200160009054906101000a900473ffffffffffffffffffffffffffffffffffffffff169050600073ffffffffffffffffffffffffffffffffffffffff168173ffffffffffffffffffffffffffffffffffffffff161415611bff576040517f08c379a0000000000000000000000000000000000000000000000000000000008152600401611bf6906147a8565b60405180910390fd5b919050565b60015481565b600360009054906101000a900473ffffffffffffffffffffffffffffffffffffffff1681565b600560009054906101000a900473ffffffffffffffffffffffffffffffffffffffff1681565b600a6020528060005260406000206000915090505481565b6000600a60003373ffffffffffffffffffffffffffffffffffffffff1673ffffffffffffffffffffffffffffffffffffffff168152602001908152602001600020541415611cf1576040517f08c379a0000000000000000000000000000000000000000000000000000000008152600401611ce890614808565b60405180910390fd5b600360009054906101000a900473ffffffffffffffffffffffffffffffffffffffff1673ffffffffffffffffffffffffffffffffffffffff166340c10f19600660009054906101000a900473ffffffffffffffffffffffffffffffffffffffff16611d66600a856136d090919063ffffffff16565b6040518363ffffffff1660e01b8152600401611d8392919061463e565b600060405180830381600087803b158015611d9d57600080fd5b505af1158015611db1573d6000803e3d6000fd5b50505050600360009054906101000a900473ffffffffffffffffffffffffffffffffffffffff1673ffffffffffffffffffffffffffffffffffffffff166340c10f1930836040518363ffffffff1660e01b8152600401611e1292919061463e565b600060405180830381600087803b158015611e2c57600080fd5b505af1158015611e40573d6000803e3d6000fd5b5050505050565b600e60019054906101000a900460ff1681565b611e6261367e565b73ffffffffffffffffffffffffffffffffffffffff1660008054906101000a900473ffffffffffffffffffffffffffffffffffffffff1673ffffffffffffffffffffffffffffffffffffffff1614611eef576040517f08c379a0000000000000000000000000000000000000000000000000000000008152600401611ee6906147e8565b60405180910390fd5b80600260006101000a81548173ffffffffffffffffffffffffffffffffffffffff021916908373ffffffffffffffffffffffffffffffffffffffff16021790555050565b6000600a60003373ffffffffffffffffffffffffffffffffffffffff1673ffffffffffffffffffffffffffffffffffffffff168152602001908152602001600020541415611fb6576040517f08c379a0000000000000000000000000000000000000000000000000000000008152600401611fad90614808565b60405180910390fd5b6000600360009054906101000a900473ffffffffffffffffffffffffffffffffffffffff1673ffffffffffffffffffffffffffffffffffffffff166370a08231306040518263ffffffff1660e01b815260040161201391906144fc565b60206040518083038186803b15801561202b57600080fd5b505afa15801561203f573d6000803e3d6000fd5b505050506040513d601f19601f820116820180604052508101906120639190613f47565b90508082111561212257600360009054906101000a900473ffffffffffffffffffffffffffffffffffffffff1673ffffffffffffffffffffffffffffffffffffffff1663a9059cbb84836040518363ffffffff1660e01b81526004016120ca92919061463e565b602060405180830381600087803b1580156120e457600080fd5b505af11580156120f8573d6000803e3d6000fd5b505050506040513d601f19601f8201168201806040525081019061211c9190613de1565b506121d3565b600360009054906101000a900473ffffffffffffffffffffffffffffffffffffffff1673ffffffffffffffffffffffffffffffffffffffff1663a9059cbb84846040518363ffffffff1660e01b815260040161217f92919061463e565b602060405180830381600087803b15801561219957600080fd5b505af11580156121ad573d6000803e3d6000fd5b505050506040513d601f19601f820116820180604052508101906121d19190613de1565b505b505050565b6000600a60003373ffffffffffffffffffffffffffffffffffffffff1673ffffffffffffffffffffffffffffffffffffffff16815260200190815260200160002054141561225b576040517f08c379a000000000000000000000000000000000000000000000000000000000815260040161225290614808565b60405180910390fd5b600460009054906101000a900473ffffffffffffffffffffffffffffffffffffffff1673ffffffffffffffffffffffffffffffffffffffff166340c10f1983836040518363ffffffff1660e01b81526004016122b892919061463e565b600060405180830381600087803b1580156122d257600080fd5b505af11580156122e6573d6000803e3d6000fd5b505050505050565b600560009054906101000a900473ffffffffffffffffffffffffffffffffffffffff1673ffffffffffffffffffffffffffffffffffffffff163373ffffffffffffffffffffffffffffffffffffffff161461237e576040517f08c379a000000000000000000000000000000000000000000000000000000000815260040161237590614768565b60405180910390fd5b60008360ff16141561241e57600360009054906101000a900473ffffffffffffffffffffffffffffffffffffffff1673ffffffffffffffffffffffffffffffffffffffff166340c10f1983836040518363ffffffff1660e01b81526004016123e792919061463e565b600060405180830381600087803b15801561240157600080fd5b505af1158015612415573d6000803e3d6000fd5b505050506124ae565b600460009054906101000a900473ffffffffffffffffffffffffffffffffffffffff1673ffffffffffffffffffffffffffffffffffffffff166340c10f1983836040518363ffffffff1660e01b815260040161247b92919061463e565b600060405180830381600087803b15801561249557600080fd5b505af11580156124a9573d6000803e3d6000fd5b505050505b505050565b60011515600d60003373ffffffffffffffffffffffffffffffffffffffff1673ffffffffffffffffffffffffffffffffffffffff16815260200190815260200160002060009054906101000a900460ff16151514612546576040517f08c379a000000000000000000000000000000000000000000000000000000000815260040161253d90614788565b60405180910390fd5b6000600260009054906101000a900473ffffffffffffffffffffffffffffffffffffffff1673ffffffffffffffffffffffffffffffffffffffff16633c50bcd785846040518363ffffffff1660e01b81526004016125a59291906146e1565b602060405180830381600087803b1580156125bf57600080fd5b505af11580156125d3573d6000803e3d6000fd5b505050506040513d601f19601f820116820180604052508101906125f79190613f47565b90508473ffffffffffffffffffffffffffffffffffffffff16636f8d2d84846040518263ffffffff1660e01b815260040161263291906146a4565b600060405180830381600087803b15801561264c57600080fd5b505af1158015612660573d6000803e3d6000fd5b505050508473ffffffffffffffffffffffffffffffffffffffff16630282ad6785836040518363ffffffff1660e01b815260040161269f929190614718565b600060405180830381600087803b1580156126b957600080fd5b505af11580156126cd573d6000803e3d6000fd5b505050505050505050565b600660009054906101000a900473ffffffffffffffffffffffffffffffffffffffff1681565b60096020528060005260406000206000915090505481565b6000600760009054906101000a900473ffffffffffffffffffffffffffffffffffffffff16905090565b61274861367e565b73ffffffffffffffffffffffffffffffffffffffff1660008054906101000a900473ffffffffffffffffffffffffffffffffffffffff1673ffffffffffffffffffffffffffffffffffffffff16146127d5576040517f08c379a00000000000000000000000000000000000000000000000000000000081526004016127cc906147e8565b60405180910390fd5b60005b60088054905081101561289457600881815481106127f257fe5b9060005260206000200160009054906101000a900473ffffffffffffffffffffffffffffffffffffffff1673ffffffffffffffffffffffffffffffffffffffff1663eadb2bdd836040518263ffffffff1660e01b81526004016128559190614888565b600060405180830381600087803b15801561286f57600080fd5b505af1158015612883573d6000803e3d6000fd5b5050505080806001019150506127d8565b5050565b60006128a261367e565b73ffffffffffffffffffffffffffffffffffffffff1660008054906101000a900473ffffffffffffffffffffffffffffffffffffffff1673ffffffffffffffffffffffffffffffffffffffff161461292f576040517f08c379a0000000000000000000000000000000000000000000000000000000008152600401612926906147e8565b60405180910390fd5b6000600960008573ffffffffffffffffffffffffffffffffffffffff1673ffffffffffffffffffffffffffffffffffffffff16815260200190815260200160002054146129b1576040517f08c379a00000000000000000000000000000000000000000000000000000000081526004016129a890614848565b60405180910390fd5b60006129f16040518060400160405280600481526020017f504f4f4c00000000000000000000000000000000000000000000000000000000815250610cae565b90508073ffffffffffffffffffffffffffffffffffffffff1663b8801c49858530600260009054906101000a900473ffffffffffffffffffffffffffffffffffffffff166040518563ffffffff1660e01b8152600401612a54949392919061455b565b602060405180830381600087803b158015612a6e57600080fd5b505af1158015612a82573d6000803e3d6000fd5b505050506040513d601f19601f82011682018060405250810190612aa69190613a16565b91506008829080600181540180825580915050600190039060005260206000200160009091909190916101000a81548173ffffffffffffffffffffffffffffffffffffffff021916908373ffffffffffffffffffffffffffffffffffffffff160217905550600880549050600a60008473ffffffffffffffffffffffffffffffffffffffff1673ffffffffffffffffffffffffffffffffffffffff16815260200190815260200160002081905550600880549050600960008673ffffffffffffffffffffffffffffffffffffffff1673ffffffffffffffffffffffffffffffffffffffff168152602001908152602001600020819055508173ffffffffffffffffffffffffffffffffffffffff168473ffffffffffffffffffffffffffffffffffffffff167f062107fcb2a202af1ba617d851daca9ade2580ccf29e346770119cc10b015f0760405160405180910390a35092915050565b612c0661367e565b73ffffffffffffffffffffffffffffffffffffffff1660008054906101000a900473ffffffffffffffffffffffffffffffffffffffff1673ffffffffffffffffffffffffffffffffffffffff1614612c93576040517f08c379a0000000000000000000000000000000000000000000000000000000008152600401612c8a906147e8565b60405180910390fd5b80600760006101000a81548173ffffffffffffffffffffffffffffffffffffffff021916908373ffffffffffffffffffffffffffffffffffffffff16021790555050565b6000612ce161367e565b73ffffffffffffffffffffffffffffffffffffffff1660008054906101000a900473ffffffffffffffffffffffffffffffffffffffff1673ffffffffffffffffffffffffffffffffffffffff1614612d6e576040517f08c379a0000000000000000000000000000000000000000000000000000000008152600401612d65906147e8565b60405180910390fd5b6000600960008073ffffffffffffffffffffffffffffffffffffffff1673ffffffffffffffffffffffffffffffffffffffff1681526020019081526020016000205414612df0576040517f08c379a0000000000000000000000000000000000000000000000000000000008152600401612de790614868565b60405180910390fd5b6000612e306040518060400160405280600581526020017f57504f4f4c000000000000000000000000000000000000000000000000000000815250610cae565b90508073ffffffffffffffffffffffffffffffffffffffff1663e343361530600260009054906101000a900473ffffffffffffffffffffffffffffffffffffffff166040518363ffffffff1660e01b8152600401612e8f929190614532565b602060405180830381600087803b158015612ea957600080fd5b505af1158015612ebd573d6000803e3d6000fd5b505050506040513d601f19601f82011682018060405250810190612ee19190613a16565b91506008829080600181540180825580915050600190039060005260206000200160009091909190916101000a81548173ffffffffffffffffffffffffffffffffffffffff021916908373ffffffffffffffffffffffffffffffffffffffff160217905550600880549050600a60008473ffffffffffffffffffffffffffffffffffffffff1673ffffffffffffffffffffffffffffffffffffffff16815260200190815260200160002081905550600880549050600960008073ffffffffffffffffffffffffffffffffffffffff1673ffffffffffffffffffffffffffffffffffffffff168152602001908152602001600020819055508173ffffffffffffffffffffffffffffffffffffffff16600073ffffffffffffffffffffffffffffffffffffffff167f062107fcb2a202af1ba617d851daca9ade2580ccf29e346770119cc10b015f0760405160405180910390a35090565b61303f61367e565b73ffffffffffffffffffffffffffffffffffffffff1660008054906101000a900473ffffffffffffffffffffffffffffffffffffffff1673ffffffffffffffffffffffffffffffffffffffff16146130cc576040517f08c379a00000000000000000000000000000000000000000000000000000000081526004016130c3906147e8565b60405180910390fd5b600073ffffffffffffffffffffffffffffffffffffffff168173ffffffffffffffffffffffffffffffffffffffff16141561313c576040517f08c379a000000000000000000000000000000000000000000000000000000000815260040161313390614748565b60405180910390fd5b8073ffffffffffffffffffffffffffffffffffffffff1660008054906101000a900473ffffffffffffffffffffffffffffffffffffffff1673ffffffffffffffffffffffffffffffffffffffff167f8be0079c531659141344cd1fd0a4f28419497f9722a3daafe3b4186f6b6457e060405160405180910390a3806000806101000a81548173ffffffffffffffffffffffffffffffffffffffff021916908373ffffffffffffffffffffffffffffffffffffffff16021790555050565b60011515600d60003373ffffffffffffffffffffffffffffffffffffffff1673ffffffffffffffffffffffffffffffffffffffff16815260200190815260200160002060009054906101000a900460ff1615151461328c576040517f08c379a000000000000000000000000000000000000000000000000000000000815260040161328390614788565b60405180910390fd5b6000600260009054906101000a900473ffffffffffffffffffffffffffffffffffffffff1673ffffffffffffffffffffffffffffffffffffffff16633c50bcd785846040518363ffffffff1660e01b81526004016132eb9291906146e1565b602060405180830381600087803b15801561330557600080fd5b505af1158015613319573d6000803e3d6000fd5b505050506040513d601f19601f8201168201806040525081019061333d9190613f47565b90508473ffffffffffffffffffffffffffffffffffffffff166363d24aa7846040518263ffffffff1660e01b81526004016133789190614667565b600060405180830381600087803b15801561339257600080fd5b505af11580156133a6573d6000803e3d6000fd5b505050508473ffffffffffffffffffffffffffffffffffffffff16630282ad6785836040518363ffffffff1660e01b81526004016133e5929190614718565b600060405180830381600087803b1580156133ff57600080fd5b505af1158015613413573d6000803e3d6000fd5b505050505050505050565b600061342861367e565b73ffffffffffffffffffffffffffffffffffffffff1660008054906101000a900473ffffffffffffffffffffffffffffffffffffffff1673ffffffffffffffffffffffffffffffffffffffff16146134b5576040517f08c379a00000000000000000000000000000000000000000000000000000000081526004016134ac906147e8565b60405180910390fd5b60006134c084611b01565b905060006134cd86610cae565b90508073ffffffffffffffffffffffffffffffffffffffff16632bfdced78387876040518463ffffffff1660e01b815260040161350c939291906145a0565b602060405180830381600087803b15801561352657600080fd5b505af115801561353a573d6000803e3d6000fd5b505050506040513d601f19601f8201168201806040525081019061355e9190613a16565b925082600c60008473ffffffffffffffffffffffffffffffffffffffff1673ffffffffffffffffffffffffffffffffffffffff168152602001908152602001600020876040516135ae91906144e5565b908152602001604051809103902060006101000a81548173ffffffffffffffffffffffffffffffffffffffff021916908373ffffffffffffffffffffffffffffffffffffffff1602179055508273ffffffffffffffffffffffffffffffffffffffff168273ffffffffffffffffffffffffffffffffffffffff168673ffffffffffffffffffffffffffffffffffffffff167f205df0114f1ecc4dd296c9da1efe9992b00abf25d2697c43d4d04a09c325bb0160405160405180910390a450509392505050565b6000600154905090565b600033905090565b60006136c883836040518060400160405280601e81526020017f536166654d6174683a207375627472616374696f6e206f766572666c6f77000081525061371a565b905092915050565b600061371283836040518060400160405280601a81526020017f536166654d6174683a206469766973696f6e206279207a65726f000000000000815250613775565b905092915050565b6000838311158290613762576040517f08c379a000000000000000000000000000000000000000000000000000000000815260040161375991906146bf565b60405180910390fd5b5060008385039050809150509392505050565b600080831182906137bc576040517f08c379a00000000000000000000000000000000000000000000000000000000081526004016137b391906146bf565b60405180910390fd5b5060008385816137c857fe5b049050809150509392505050565b6000813590506137e581614ae0565b92915050565b6000815190506137fa81614ae0565b92915050565b60008135905061380f81614af7565b92915050565b600082601f83011261382657600080fd5b813561383961383482614907565b6148da565b9150818183526020840193506020810190508385602084028201111561385e57600080fd5b60005b8381101561388e57816138748882613945565b845260208401935060208301925050600181019050613861565b5050505092915050565b600082601f8301126138a957600080fd5b81356138bc6138b78261492f565b6148da565b915081818352602084019350602081019050838560208402820111156138e157600080fd5b60005b8381101561391157816138f788826139ae565b8452602084019350602083019250506001810190506138e4565b5050505092915050565b60008135905061392a81614b0e565b92915050565b60008151905061393f81614b0e565b92915050565b60008135905061395481614b25565b92915050565b600082601f83011261396b57600080fd5b813561397e61397982614957565b6148da565b9150808252602083016020830185838301111561399a57600080fd5b6139a5838284614a8d565b50505092915050565b6000813590506139bd81614b3c565b92915050565b6000815190506139d281614b3c565b92915050565b6000813590506139e781614b53565b92915050565b6000602082840312156139ff57600080fd5b6000613a0d848285016137d6565b91505092915050565b600060208284031215613a2857600080fd5b6000613a36848285016137eb565b91505092915050565b600060208284031215613a5157600080fd5b6000613a5f84828501613800565b91505092915050565b60008060408385031215613a7b57600080fd5b6000613a89858286016137d6565b9250506020613a9a858286016137d6565b9150509250929050565b60008060008060808587031215613aba57600080fd5b6000613ac8878288016137d6565b9450506020613ad9878288016137d6565b9350506040613aea878288016137d6565b9250506060613afb878288016139ae565b91505092959194509250565b60008060408385031215613b1a57600080fd5b6000613b28858286016137d6565b9250506020613b398582860161391b565b9150509250929050565b60008060408385031215613b5657600080fd5b6000613b64858286016137d6565b925050602083013567ffffffffffffffff811115613b8157600080fd5b613b8d8582860161395a565b9150509250929050565b600080600080600060a08688031215613baf57600080fd5b6000613bbd888289016137d6565b955050602086013567ffffffffffffffff811115613bda57600080fd5b613be68882890161395a565b9450506040613bf7888289016137d6565b9350506060613c0888828901613945565b925050608086013567ffffffffffffffff811115613c2557600080fd5b613c3188828901613898565b9150509295509295909350565b60008060008060808587031215613c5457600080fd5b6000613c62878288016137d6565b945050602085013567ffffffffffffffff811115613c7f57600080fd5b613c8b8782880161395a565b935050604085013567ffffffffffffffff811115613ca857600080fd5b613cb487828801613815565b925050606085013567ffffffffffffffff811115613cd157600080fd5b613cdd87828801613898565b91505092959194509250565b60008060008060808587031215613cff57600080fd5b6000613d0d878288016137d6565b945050602085013567ffffffffffffffff811115613d2a57600080fd5b613d368782880161395a565b9350506040613d4787828801613945565b925050606085013567ffffffffffffffff811115613d6457600080fd5b613d7087828801613898565b91505092959194509250565b60008060408385031215613d8f57600080fd5b6000613d9d858286016137d6565b9250506020613dae858286016139ae565b9150509250929050565b600060208284031215613dca57600080fd5b6000613dd88482850161391b565b91505092915050565b600060208284031215613df357600080fd5b6000613e0184828501613930565b91505092915050565b600060208284031215613e1c57600080fd5b600082013567ffffffffffffffff811115613e3657600080fd5b613e428482850161395a565b91505092915050565b60008060408385031215613e5e57600080fd5b600083013567ffffffffffffffff811115613e7857600080fd5b613e848582860161395a565b9250506020613e95858286016137d6565b9150509250929050565b600080600060608486031215613eb457600080fd5b600084013567ffffffffffffffff811115613ece57600080fd5b613eda8682870161395a565b9350506020613eeb868287016137d6565b925050604084013567ffffffffffffffff811115613f0857600080fd5b613f1486828701613898565b9150509250925092565b600060208284031215613f3057600080fd5b6000613f3e848285016139ae565b91505092915050565b600060208284031215613f5957600080fd5b6000613f67848285016139c3565b91505092915050565b600080600060608486031215613f8557600080fd5b6000613f93868287016139ae565b9350506020613fa4868287016137d6565b9250506040613fb5868287016139ae565b9150509250925092565b600080600060608486031215613fd457600080fd5b6000613fe2868287016139d8565b9350506020613ff3868287016137d6565b9250506040614004868287016139ae565b9150509250925092565b600061401a8383614127565b60208301905092915050565b600061403283836144c7565b60208301905092915050565b61404781614a2e565b82525050565b61405681614a1c565b82525050565b6000614067826149a3565b61407181856149de565b935061407c83614983565b8060005b838110156140ad578151614094888261400e565b975061409f836149c4565b925050600181019050614080565b5085935050505092915050565b60006140c5826149ae565b6140cf81856149ef565b93506140da83614993565b8060005b8381101561410b5781516140f28882614026565b97506140fd836149d1565b9250506001810190506140de565b5085935050505092915050565b61412181614a40565b82525050565b61413081614a4c565b82525050565b61413f81614a4c565b82525050565b6000614150826149b9565b61415a8185614a00565b935061416a818560208601614a9c565b61417381614acf565b840191505092915050565b6000614189826149b9565b6141938185614a11565b93506141a3818560208601614a9c565b80840191505092915050565b60006141bc602683614a00565b91507f4f776e61626c653a206e6577206f776e657220697320746865207a65726f206160008301527f64647265737300000000000000000000000000000000000000000000000000006020830152604082019050919050565b6000614222602b83614a00565b91507f6d696e74426f6e75733a2063616c6c6572206973206e6f742074686520626f6e60008301527f7573207265636f726465720000000000000000000000000000000000000000006020830152604082019050919050565b6000614288602583614a00565b91507f4f776e61626c653a2063616c6c6572206973206e6f742074686520737761702060008301527f6f776e65720000000000000000000000000000000000000000000000000000006020830152604082019050919050565b60006142ee601883614a00565b91507f676574416464723a20504f4f4c5f4e4f545f45584953545300000000000000006000830152602082019050919050565b600061432e601d83614a00565b91507f757064617465426f6e75733a207265636f72646572206e6f74207365740000006000830152602082019050919050565b600061436e602083614a00565b91507f4f776e61626c653a2063616c6c6572206973206e6f7420746865206f776e65726000830152602082019050919050565b60006143ae601f83614a00565b91507f4f776e61626c653a2063616c6c6572206973206e6f742074686520706f6f6c006000830152602082019050919050565b60006143ee602283614a00565b91507f67657443726561746f72416464723a2043524541544f525f4e4f545f4558495360008301527f54530000000000000000000000000000000000000000000000000000000000006020830152604082019050919050565b6000614454601483614a00565b91507f616464506f6f6c3a20504f4f4c5f4558495354530000000000000000000000006000830152602082019050919050565b6000614494601583614a00565b91507f61646457506f6f6c3a20504f4f4c5f45584953545300000000000000000000006000830152602082019050919050565b6144d081614a76565b82525050565b6144df81614a76565b82525050565b60006144f1828461417e565b915081905092915050565b6000602082019050614511600083018461404d565b92915050565b600060208201905061452c600083018461403e565b92915050565b6000604082019050614547600083018561404d565b614554602083018461404d565b9392505050565b6000608082019050614570600083018761404d565b61457d602083018661404d565b61458a604083018561404d565b614597606083018461404d565b95945050505050565b60006060820190506145b5600083018661404d565b6145c2602083018561404d565b81810360408301526145d481846140ba565b9050949350505050565b60006060820190506145f3600083018661404d565b614600602083018561404d565b61460d60408301846144d6565b949350505050565b600060408201905061462a600083018561404d565b6146376020830184614136565b9392505050565b6000604082019050614653600083018561404d565b61466060208301846144d6565b9392505050565b60006020820190508181036000830152614681818461405c565b905092915050565b600060208201905061469e6000830184614118565b92915050565b60006020820190506146b96000830184614136565b92915050565b600060208201905081810360008301526146d98184614145565b905092915050565b600060408201905081810360008301526146fb8185614145565b9050818103602083015261470f81846140ba565b90509392505050565b600060408201905081810360008301526147328185614145565b905061474160208301846144d6565b9392505050565b60006020820190508181036000830152614761816141af565b9050919050565b6000602082019050818103600083015261478181614215565b9050919050565b600060208201905081810360008301526147a18161427b565b9050919050565b600060208201905081810360008301526147c1816142e1565b9050919050565b600060208201905081810360008301526147e181614321565b9050919050565b6000602082019050818103600083015261480181614361565b9050919050565b60006020820190508181036000830152614821816143a1565b9050919050565b60006020820190508181036000830152614841816143e1565b9050919050565b6000602082019050818103600083015261486181614447565b9050919050565b6000602082019050818103600083015261488181614487565b9050919050565b600060208201905061489d60008301846144d6565b92915050565b60006060820190506148b860008301866144d6565b6148c5602083018561404d565b6148d260408301846144d6565b949350505050565b6000604051905081810181811067ffffffffffffffff821117156148fd57600080fd5b8060405250919050565b600067ffffffffffffffff82111561491e57600080fd5b602082029050602081019050919050565b600067ffffffffffffffff82111561494657600080fd5b602082029050602081019050919050565b600067ffffffffffffffff82111561496e57600080fd5b601f19601f8301169050602081019050919050565b6000819050602082019050919050565b6000819050602082019050919050565b600081519050919050565b600081519050919050565b600081519050919050565b6000602082019050919050565b6000602082019050919050565b600082825260208201905092915050565b600082825260208201905092915050565b600082825260208201905092915050565b600081905092915050565b6000614a2782614a56565b9050919050565b6000614a3982614a56565b9050919050565b60008115159050919050565b6000819050919050565b600073ffffffffffffffffffffffffffffffffffffffff82169050919050565b6000819050919050565b600060ff82169050919050565b82818337600083830152505050565b60005b83811015614aba578082015181840152602081019050614a9f565b83811115614ac9576000848401525b50505050565b6000601f19601f8301169050919050565b614ae981614a1c565b8114614af457600080fd5b50565b614b0081614a2e565b8114614b0b57600080fd5b50565b614b1781614a40565b8114614b2257600080fd5b50565b614b2e81614a4c565b8114614b3957600080fd5b50565b614b4581614a76565b8114614b5057600080fd5b50565b614b5c81614a80565b8114614b6757600080fd5b5056fea2646970667358221220ca6e691cb737d1e737e414f51c6d95be2bda53413a6ef6fec40ee19da445c54464736f6c634300060c0033",
  "immutableReferences": {},
  "source": "// SPDX-License-Identifier: MIT\n\npragma solidity >=0.6.12;\npragma experimental ABIEncoderV2;\n\nimport \"../openzeppelin/contracts/math/SafeMath.sol\";\nimport \"../openzeppelin/contracts/access/Ownable.sol\";\nimport \"../interface/ICreator.sol\";\nimport \"../interface/ITeemoPool.sol\";\nimport \"../interface/ITeemoToken.sol\";\nimport \"../interface/IBonusRecord.sol\";\nimport \"../interface/IQuoteFactory.sol\";\n\ncontract PoolFactory is Ownable {\n    using SafeMath for uint256;\n\n    event AddPool(address indexed tokenAddr, address indexed poolAddr);\n    event AddPoolModule(address indexed tokenAddr, address indexed poolAddr, address indexed createAddr);\n    \n    uint256 public openFee;\n    \n    address public quoteFactoryAddr;\n    address public teemoTokenAddr;\n    address public teemoGovTokenAddr;\n    address public bonusRecordAddr;\n    address public devAddr;\n    address payable public feeReceiver;\n    address[] public allPoolAddr;\n    mapping(address => uint256) public allTokenIndex;//tokenaddr =>array index\n    mapping(address => uint256) public allPoolIndex;// pooladdr  =>array index\n    mapping(string => address) public allCreatorInfo;\n    mapping(address => mapping(string => address)) public allModuleInfo;\n    mapping(address => bool) public swapOwner;\n\n    // false: test mode, true: production mode\n    bool public projectStatus;\n    bool public emergency;\n\n    constructor(\n        address _devAddr,\n        address _quoteFactoryAddr,\n        address _teemoTokenAddr,\n        address _teemoGovTokenAddr,\n        string[] memory _creatorNames,\n        address[] memory _creatorAddrs\n    ) public {\n        devAddr = _devAddr;\n        quoteFactoryAddr = _quoteFactoryAddr;\n        teemoTokenAddr = _teemoTokenAddr;\n        teemoGovTokenAddr = _teemoGovTokenAddr;\n        require(_creatorNames.length == _creatorAddrs.length, \"creator info err\");\n        for(uint256 i=0;i<_creatorNames.length;i++){\n            setCreatorInfo(_creatorNames[i],_creatorAddrs[i]);\n        }\n        swapOwner[msg.sender] = true;\n    }\n\n    modifier onlyPool() {\n        require(allPoolIndex[msg.sender] != 0, \"Ownable: caller is not the pool\");\n        _;\n    }\n\n    modifier onlySwapOwner() {\n        require(swapOwner[msg.sender] == true, \"Ownable: caller is not the swap owner\");\n        _;\n    }\n\n    function poolLength() public view returns(uint256) {\n        return allPoolAddr.length;\n    }\n\n    function setQuoteFactoryAddr(address _quoteFactoryAddr) public onlyOwner {\n        quoteFactoryAddr = _quoteFactoryAddr;\n    }\n\n    function setTeemoTokenAddr(address _teemoTokenAddr) public onlyOwner {\n        teemoTokenAddr = _teemoTokenAddr;\n    }\n    \n    function setTeemoGovTokenAddr(address _teemoGovTokenAddr) public onlyOwner {\n        teemoGovTokenAddr = _teemoGovTokenAddr;\n    }\n\n    function setDevAddr(address _devAddr) public onlyOwner {\n        devAddr = _devAddr;\n    }\n\n    function setCreatorInfo(string memory _creatorName,address _creatorAddr) public onlyOwner {\n        allCreatorInfo[_creatorName] = _creatorAddr;\n    }\n\n    function addPool(address _tokenAddr, address _mainnetTokenAddr) public onlyOwner returns (address createAddr){\n        require(allTokenIndex[_tokenAddr] == 0, \"addPool: POOL_EXISTS\");\n        address creatorAddr = getCreatorAddr(\"POOL\");\n        createAddr = IPoolCreator(creatorAddr).createPool(_tokenAddr,_mainnetTokenAddr,address(this),quoteFactoryAddr);\n        allPoolAddr.push(createAddr);\n        allPoolIndex[createAddr] = allPoolAddr.length;\n        allTokenIndex[_tokenAddr] = allPoolAddr.length;\n        emit AddPool(_tokenAddr, createAddr);\n    }\n\n    function addWPool() public onlyOwner returns (address createAddr){\n        require(allTokenIndex[address(0)] == 0, \"addWPool: POOL_EXISTS\");\n        address creatorAddr = getCreatorAddr(\"WPOOL\");\n        createAddr = IWPoolCreator(creatorAddr).createPool(address(this),quoteFactoryAddr);\n        allPoolAddr.push(createAddr);\n        allPoolIndex[createAddr] = allPoolAddr.length;\n        allTokenIndex[address(0)] = allPoolAddr.length;\n        emit AddPool(address(0), createAddr);\n    }\n\n    function addPoolModule(string memory _creatorName,address _tokenAddr,uint256[] memory _args) public onlyOwner returns (address createAddr) {\n        address poolAddr = getAddr(_tokenAddr);\n        address creatorAddr = getCreatorAddr(_creatorName);\n        createAddr = ICreator(creatorAddr).create(poolAddr,_tokenAddr,_args);\n        allModuleInfo[poolAddr][_creatorName] = createAddr;\n        // ITeemoPool(poolAddr).setModuleAddr(_creatorName,createAddr);\n        emit AddPoolModule(_tokenAddr, poolAddr, createAddr);\n    }\n\n    function getPoolModuleAddr(address _poolAddr, string memory _moduleName) public view returns (address moduleAddr) {\n        moduleAddr = allModuleInfo[_poolAddr][_moduleName];\n    }\n\n    function mintToken(uint256 _mintAmount) public onlyPool {\n        ITeemoToken(teemoTokenAddr).mint(devAddr, _mintAmount.div(10));\n        ITeemoToken(teemoTokenAddr).mint(address(this), _mintAmount);\n    }\n\n    function safeTeemoTransfer(address _to, uint256 _amount) public onlyPool {\n        uint256 teemoBal = ITeemoToken(teemoTokenAddr).balanceOf(address(this));\n        if (_amount > teemoBal) {\n            ITeemoToken(teemoTokenAddr).transfer(_to, teemoBal);\n        } else {\n            ITeemoToken(teemoTokenAddr).transfer(_to, _amount);\n        }\n    }\n\n    function mintGovToken(address _userAddr, uint256 _mintAmount) public onlyPool {\n        ITeemoToken(teemoGovTokenAddr).mint(_userAddr, _mintAmount);\n    }\n\n    function getAddr(address _tokenAddr) public view returns (address poolAddr){\n        poolAddr = allPoolAddr[allTokenIndex[_tokenAddr].sub(1)];\n        require(poolAddr != address(0), \"getAddr: POOL_NOT_EXISTS\");\n    }\n    function getCreatorAddr(string memory _creatorName) public view returns (address creatorAddr){\n        creatorAddr = allCreatorInfo[_creatorName];\n        require(creatorAddr != address(0), \"getCreatorAddr: CREATOR_NOT_EXISTS\");\n    }\n\n    function setBonusRecord(address _bonus) public onlyOwner {\n        bonusRecordAddr = _bonus;\n    }\n\n    function updateBonus(uint256 _updateType, address _user, uint256 _amount) public  onlyPool {\n        require(bonusRecordAddr != address(0), \"updateBonus: recorder not set\");\n        IBonusRecord(bonusRecordAddr).updateBonus(_updateType, _user, _amount);\n    }\n\n    function mintBonus(uint8 _mintType, address _user, uint256 _amount) public {\n        require(msg.sender == bonusRecordAddr ,\"mintBonus: caller is not the bonus recorder\");\n        if(_mintType == 0){\n            ITeemoToken(teemoTokenAddr).mint(_user, _amount);\n        }else{\n            ITeemoToken(teemoGovTokenAddr).mint(_user, _amount);\n        }\n    }    \n\n    function setStatus(bool _status) public onlyOwner {\n        projectStatus = _status;\n    }\n\n    function getStatus() public view returns (bool status) {\n        status = projectStatus;\n    }\n\n    // function setEmergency(bool _emergency) public onlyOwner {\n    //     emergency = _emergency;\n    // }\n\n    // function getEmergency() public view returns (bool) {\n    //     return emergency;\n    // }\n\n    function setValidBlocks(uint256 _validBlocks) public onlyOwner {\n        for(uint256 i = 0; i < allPoolAddr.length; i++) {\n            ITeemoPool(allPoolAddr[i]).setValidBlocks(_validBlocks);\n        }\n    }\n\n    function setFeeReceiver(address payable _receiver) public onlyOwner {\n        feeReceiver = _receiver;\n    }\n    \n    function getFeeReceiver() public view returns(address payable receiver) {\n        receiver = feeReceiver;\n    }\n\n    function setOpenFee(uint256 _openFee) public onlyOwner {\n        openFee = _openFee;\n    }\n\n    function getOpenFee() public view returns(uint256 fee) {\n        fee = openFee;\n    }\n\n    function setSwapOwner(address _swapAddr, bool _status) public onlyOwner {\n        swapOwner[_swapAddr] = _status;\n    }\n\n    function emergencyWithdraw(address _poolAddr, address _tokenAddr, address _to, uint256 _amount) public onlyOwner {\n        ITeemoPool(_poolAddr).emergencyWithdraw(_tokenAddr, _to, _amount);\n    }\n\n    // \n    function setOpenPriceByOwner(address _poolAddr, string memory _symbol, bytes32 _orderID, uint256[] memory _price) public onlySwapOwner {\n        uint256 newPrice = IQuoteFactory(quoteFactoryAddr).addPrice(_symbol, _price);\n        ITeemoPool(_poolAddr).setOpenPrice(_orderID);\n        ITeemoPool(_poolAddr).updateTicker(_symbol, newPrice);\n    }\n\n    // \n    function closeMarketByOwner(address _poolAddr, string memory _symbol, address _userAddr, bytes32 _orderID, uint256[] memory _price) public onlySwapOwner {\n        uint256 newPrice = IQuoteFactory(quoteFactoryAddr).addPrice(_symbol, _price);\n        ITeemoPool(_poolAddr).closeMarketByOwner(_userAddr, _orderID);\n        ITeemoPool(_poolAddr).updateTicker(_symbol, newPrice);\n    }\n\n    // \n    function tradeLimitSwapsByOwner(address _poolAddr, string memory _symbol, bytes32[] memory _orderIDs, uint256[] memory _price) public onlySwapOwner {\n        uint256 newPrice = IQuoteFactory(quoteFactoryAddr).addPrice(_symbol, _price);\n        ITeemoPool(_poolAddr).tradeLimitSwaps(_orderIDs);\n        ITeemoPool(_poolAddr).updateTicker(_symbol, newPrice);\n    }\n\n    // ()\n    function closeLimitSwapsByOwner(address _poolAddr, string memory _symbol, bytes32[] memory _orderIDs, uint256[] memory _price) public onlySwapOwner {\n        uint256 newPrice = IQuoteFactory(quoteFactoryAddr).addPrice(_symbol, _price);\n        ITeemoPool(_poolAddr).closeLimitSwaps(_orderIDs);\n        ITeemoPool(_poolAddr).updateTicker(_symbol, newPrice);\n    }\n\n}\n",
  "sourcePath": "/Users/tong/Projects/drep-project/teemo-private/contracts/pool/PoolFactory.sol",
  "compiler": {
    "name": "solc",
    "version": "0.6.12+commit.27d51765.Emscripten.clang"
  },
  "schemaVersion": "3.3.2",
  "updatedAt": "2021-01-25T05:45:37.152Z",
  "devdoc": {
    "kind": "dev",
    "methods": {
      "owner()": {
        "details": "Returns the address of the current owner."
      },
      "renounceOwnership()": {
        "details": "Leaves the contract without owner. It will not be possible to call `onlyOwner` functions anymore. Can only be called by the current owner. NOTE: Renouncing ownership will leave the contract without an owner, thereby removing any functionality that is only available to the owner."
      },
      "transferOwnership(address)": {
        "details": "Transfers ownership of the contract to a new account (`newOwner`). Can only be called by the current owner."
      }
    },
    "version": 1
  },
  "userdoc": {
    "kind": "user",
    "methods": {},
    "version": 1
  }
}