{
  "contractName": "PoolProxy",
  "abi": [
    {
      "inputs": [
        {
          "internalType": "address",
          "name": "_poolFactoryAddr",
          "type": "address"
        }
      ],
      "stateMutability": "nonpayable",
      "type": "constructor"
    },
    {
      "anonymous": false,
      "inputs": [
        {
          "indexed": true,
          "internalType": "address",
          "name": "previousOwner",
          "type": "address"
        },
        {
          "indexed": true,
          "internalType": "address",
          "name": "newOwner",
          "type": "address"
        }
      ],
      "name": "OwnershipTransferred",
      "type": "event"
    },
    {
      "inputs": [],
      "name": "owner",
      "outputs": [
        {
          "internalType": "address",
          "name": "",
          "type": "address"
        }
      ],
      "stateMutability": "view",
      "type": "function"
    },
    {
      "inputs": [],
      "name": "poolFactoryAddr",
      "outputs": [
        {
          "internalType": "address",
          "name": "",
          "type": "address"
        }
      ],
      "stateMutability": "view",
      "type": "function"
    },
    {
      "inputs": [],
      "name": "renounceOwnership",
      "outputs": [],
      "stateMutability": "nonpayable",
      "type": "function"
    },
    {
      "inputs": [
        {
          "internalType": "address",
          "name": "newOwner",
          "type": "address"
        }
      ],
      "name": "transferOwnership",
      "outputs": [],
      "stateMutability": "nonpayable",
      "type": "function"
    },
    {
      "inputs": [
        {
          "internalType": "address",
          "name": "_poolFactoryAddr",
          "type": "address"
        }
      ],
      "name": "setPoolFactoryAddr",
      "outputs": [],
      "stateMutability": "nonpayable",
      "type": "function"
    },
    {
      "inputs": [],
      "name": "getAllPoolInfo",
      "outputs": [
        {
          "internalType": "address[]",
          "name": "allTeemoPoolAddr",
          "type": "address[]"
        },
        {
          "internalType": "address[]",
          "name": "allTokenAddr",
          "type": "address[]"
        },
        {
          "internalType": "string[]",
          "name": "allSymbol",
          "type": "string[]"
        },
        {
          "internalType": "uint8[]",
          "name": "allDecimals",
          "type": "uint8[]"
        }
      ],
      "stateMutability": "view",
      "type": "function"
    },
    {
      "inputs": [],
      "name": "poolLength",
      "outputs": [
        {
          "internalType": "uint256",
          "name": "",
          "type": "uint256"
        }
      ],
      "stateMutability": "view",
      "type": "function"
    },
    {
      "inputs": [
        {
          "internalType": "address",
          "name": "_teemoPoolAddr",
          "type": "address"
        },
        {
          "internalType": "bytes32",
          "name": "_orderID",
          "type": "bytes32"
        }
      ],
      "name": "getOrder",
      "outputs": [
        {
          "internalType": "address",
          "name": "userAddr",
          "type": "address"
        },
        {
          "internalType": "string",
          "name": "symbol",
          "type": "string"
        },
        {
          "internalType": "uint256",
          "name": "tokenAmount",
          "type": "uint256"
        },
        {
          "internalType": "uint256",
          "name": "lever",
          "type": "uint256"
        },
        {
          "internalType": "uint256",
          "name": "bsFlag",
          "type": "uint256"
        },
        {
          "internalType": "uint256",
          "name": "openPrice",
          "type": "uint256"
        },
        {
          "internalType": "uint256",
          "name": "openTime",
          "type": "uint256"
        },
        {
          "internalType": "uint256",
          "name": "pLimitPrice",
          "type": "uint256"
        },
        {
          "internalType": "uint256",
          "name": "lLimitPrice",
          "type": "uint256"
        },
        {
          "internalType": "uint256",
          "name": "closePrice",
          "type": "uint256"
        },
        {
          "internalType": "uint256",
          "name": "closeTime",
          "type": "uint256"
        }
      ],
      "stateMutability": "view",
      "type": "function"
    },
    {
      "inputs": [
        {
          "internalType": "address",
          "name": "_teemoPoolAddr",
          "type": "address"
        },
        {
          "internalType": "bytes32",
          "name": "_orderID",
          "type": "bytes32"
        }
      ],
      "name": "getLimitOrder",
      "outputs": [
        {
          "internalType": "address",
          "name": "userAddr",
          "type": "address"
        },
        {
          "internalType": "string",
          "name": "symbol",
          "type": "string"
        },
        {
          "internalType": "uint256",
          "name": "tokenAmount",
          "type": "uint256"
        },
        {
          "internalType": "uint256",
          "name": "lever",
          "type": "uint256"
        },
        {
          "internalType": "uint256",
          "name": "bsFlag",
          "type": "uint256"
        },
        {
          "internalType": "uint256",
          "name": "openPrice",
          "type": "uint256"
        },
        {
          "internalType": "uint256",
          "name": "openTime",
          "type": "uint256"
        },
        {
          "internalType": "uint256",
          "name": "newPrice",
          "type": "uint256"
        },
        {
          "internalType": "uint256",
          "name": "pLimitPrice",
          "type": "uint256"
        },
        {
          "internalType": "uint256",
          "name": "lLimitPrice",
          "type": "uint256"
        },
        {
          "internalType": "uint256",
          "name": "closeTime",
          "type": "uint256"
        },
        {
          "internalType": "uint256",
          "name": "status",
          "type": "uint256"
        }
      ],
      "stateMutability": "view",
      "type": "function"
    }
  ],
  "bytecode": "0x60806040523480156200001157600080fd5b5060405162001b1f38038062001b1f83398181016040528101906200003791906200014e565b6000620000496200012f60201b60201c565b9050806000806101000a81548173ffffffffffffffffffffffffffffffffffffffff021916908373ffffffffffffffffffffffffffffffffffffffff1602179055508073ffffffffffffffffffffffffffffffffffffffff16600073ffffffffffffffffffffffffffffffffffffffff167f8be0079c531659141344cd1fd0a4f28419497f9722a3daafe3b4186f6b6457e060405160405180910390a35080600160006101000a81548173ffffffffffffffffffffffffffffffffffffffff021916908373ffffffffffffffffffffffffffffffffffffffff16021790555050620001c8565b600033905090565b6000815190506200014881620001ae565b92915050565b6000602082840312156200016157600080fd5b6000620001718482850162000137565b91505092915050565b600062000187826200018e565b9050919050565b600073ffffffffffffffffffffffffffffffffffffffff82169050919050565b620001b9816200017a565b8114620001c557600080fd5b50565b61194780620001d86000396000f3fe608060405234801561001057600080fd5b50600436106100935760003560e01c8063715018a611610066578063715018a61461012d57806386f28fc5146101375780638da5cb5b14610172578063b06b9fbe14610190578063f2fde38b146101ae57610093565b8063081e3eda146100985780630c73bda9146100b65780632a0892e8146100d757806349651b6a146100f3575b600080fd5b6100a06101ca565b6040516100ad91906116d2565b60405180910390f35b6100be610271565b6040516100ce9493929190611616565b60405180910390f35b6100f160048036038101906100ec9190610f87565b6107f9565b005b61010d60048036038101906101089190610fd9565b61083d565b6040516101249b9a999897969594939291906114a3565b60405180910390f35b610135610b3b565b005b610151600480360381019061014c9190610fd9565b610c8e565b6040516101699c9b9a99989796959493929190611555565b60405180910390f35b61017a610cb1565b6040516101879190611488565b60405180910390f35b610198610cda565b6040516101a59190611488565b60405180910390f35b6101c860048036038101906101c39190610f87565b610d00565b005b6000600160009054906101000a900473ffffffffffffffffffffffffffffffffffffffff1673ffffffffffffffffffffffffffffffffffffffff1663081e3eda6040518163ffffffff1660e01b815260040160206040518083038186803b15801561023457600080fd5b505afa158015610248573d6000803e3d6000fd5b505050506040513d601f19601f8201168201806040525081019061026c919061115e565b905090565b6060806060806000600160009054906101000a900473ffffffffffffffffffffffffffffffffffffffff1673ffffffffffffffffffffffffffffffffffffffff1663081e3eda6040518163ffffffff1660e01b815260040160206040518083038186803b1580156102e157600080fd5b505afa1580156102f5573d6000803e3d6000fd5b505050506040513d601f19601f82011682018060405250810190610319919061115e565b90508067ffffffffffffffff8111801561033257600080fd5b506040519080825280602002602001820160405280156103615781602001602082028036833780820191505090505b5094508067ffffffffffffffff8111801561037b57600080fd5b506040519080825280602002602001820160405280156103aa5781602001602082028036833780820191505090505b5093508067ffffffffffffffff811180156103c457600080fd5b506040519080825280602002602001820160405280156103f857816020015b60608152602001906001900390816103e35790505b5092508067ffffffffffffffff8111801561041257600080fd5b506040519080825280602002602001820160405280156104415781602001602082028036833780820191505090505b50915060005b818110156107f157600160009054906101000a900473ffffffffffffffffffffffffffffffffffffffff1673ffffffffffffffffffffffffffffffffffffffff16639612b0c4826040518263ffffffff1660e01b81526004016104aa91906116d2565b60206040518083038186803b1580156104c257600080fd5b505afa1580156104d6573d6000803e3d6000fd5b505050506040513d601f19601f820116820180604052508101906104fa9190610fb0565b86828151811061050657fe5b602002602001019073ffffffffffffffffffffffffffffffffffffffff16908173ffffffffffffffffffffffffffffffffffffffff168152505085818151811061054c57fe5b602002602001015173ffffffffffffffffffffffffffffffffffffffff16635fbe4d1d6040518163ffffffff1660e01b815260040160206040518083038186803b15801561059957600080fd5b505afa1580156105ad573d6000803e3d6000fd5b505050506040513d601f19601f820116820180604052508101906105d19190610fb0565b8582815181106105dd57fe5b602002602001019073ffffffffffffffffffffffffffffffffffffffff16908173ffffffffffffffffffffffffffffffffffffffff1681525050600073ffffffffffffffffffffffffffffffffffffffff1685828151811061063b57fe5b602002602001015173ffffffffffffffffffffffffffffffffffffffff16146107325784818151811061066a57fe5b602002602001015173ffffffffffffffffffffffffffffffffffffffff166395d89b416040518163ffffffff1660e01b815260040160006040518083038186803b1580156106b757600080fd5b505afa1580156106cb573d6000803e3d6000fd5b505050506040513d6000823e3d601f19601f820116820180604052508101906106f4919061111d565b84828151811061070057fe5b6020026020010181905250601283828151811061071957fe5b602002602001019060ff16908160ff16815250506107e4565b84818151811061073e57fe5b602002602001015173ffffffffffffffffffffffffffffffffffffffff1663313ce5676040518163ffffffff1660e01b815260040160206040518083038186803b15801561078b57600080fd5b505afa15801561079f573d6000803e3d6000fd5b505050506040513d601f19601f820116820180604052508101906107c39190611187565b8382815181106107cf57fe5b602002602001019060ff16908160ff16815250505b8080600101915050610447565b505090919293565b80600160006101000a81548173ffffffffffffffffffffffffffffffffffffffff021916908373ffffffffffffffffffffffffffffffffffffffff16021790555050565b600060606000806000806000806000806000808d73ffffffffffffffffffffffffffffffffffffffff1663a16098c06040518163ffffffff1660e01b815260040160206040518083038186803b15801561089657600080fd5b505afa1580156108aa573d6000803e3d6000fd5b505050506040513d601f19601f820116820180604052508101906108ce9190610fb0565b90508073ffffffffffffffffffffffffffffffffffffffff166339cbd01f8e6040518263ffffffff1660e01b81526004016109099190611677565b60006040518083038186803b15801561092157600080fd5b505afa158015610935573d6000803e3d6000fd5b505050506040513d6000823e3d601f19601f8201168201806040525081019061095e9190611015565b90919293949550909192939450909192935090919250909150905050809c50819d50829e50839f50505050508073ffffffffffffffffffffffffffffffffffffffff166339cbd01f8e6040518263ffffffff1660e01b81526004016109c39190611677565b60006040518083038186803b1580156109db57600080fd5b505afa1580156109ef573d6000803e3d6000fd5b505050506040513d6000823e3d601f19601f82011682018060405250810190610a189190611015565b9091929394959697989950909192939495969798509091929394959697509091929394959650909150905050809850819950829a50839b50505050508073ffffffffffffffffffffffffffffffffffffffff166339cbd01f8e6040518263ffffffff1660e01b8152600401610a8d9190611677565b60006040518083038186803b158015610aa557600080fd5b505afa158015610ab9573d6000803e3d6000fd5b505050506040513d6000823e3d601f19601f82011682018060405250810190610ae29190611015565b909192939495969798995090919293949596979850909192939495969750909192939495965090919293949550909192939450909192935080955081965082975083985050505050509295989b509295989b9093969950565b610b43610ec2565b73ffffffffffffffffffffffffffffffffffffffff1660008054906101000a900473ffffffffffffffffffffffffffffffffffffffff1673ffffffffffffffffffffffffffffffffffffffff1614610bd0576040517f08c379a0000000000000000000000000000000000000000000000000000000008152600401610bc7906116b2565b60405180910390fd5b600073ffffffffffffffffffffffffffffffffffffffff1660008054906101000a900473ffffffffffffffffffffffffffffffffffffffff1673ffffffffffffffffffffffffffffffffffffffff167f8be0079c531659141344cd1fd0a4f28419497f9722a3daafe3b4186f6b6457e060405160405180910390a360008060006101000a81548173ffffffffffffffffffffffffffffffffffffffff021916908373ffffffffffffffffffffffffffffffffffffffff160217905550565b600060606000806000806000806000806000809295989b509295989b509295989b565b60008060009054906101000a900473ffffffffffffffffffffffffffffffffffffffff16905090565b600160009054906101000a900473ffffffffffffffffffffffffffffffffffffffff1681565b610d08610ec2565b73ffffffffffffffffffffffffffffffffffffffff1660008054906101000a900473ffffffffffffffffffffffffffffffffffffffff1673ffffffffffffffffffffffffffffffffffffffff1614610d95576040517f08c379a0000000000000000000000000000000000000000000000000000000008152600401610d8c906116b2565b60405180910390fd5b600073ffffffffffffffffffffffffffffffffffffffff168173ffffffffffffffffffffffffffffffffffffffff161415610e05576040517f08c379a0000000000000000000000000000000000000000000000000000000008152600401610dfc90611692565b60405180910390fd5b8073ffffffffffffffffffffffffffffffffffffffff1660008054906101000a900473ffffffffffffffffffffffffffffffffffffffff1673ffffffffffffffffffffffffffffffffffffffff167f8be0079c531659141344cd1fd0a4f28419497f9722a3daafe3b4186f6b6457e060405160405180910390a3806000806101000a81548173ffffffffffffffffffffffffffffffffffffffff021916908373ffffffffffffffffffffffffffffffffffffffff16021790555050565b600033905090565b600081359050610ed9816118b5565b92915050565b600081519050610eee816118b5565b92915050565b600081359050610f03816118cc565b92915050565b600082601f830112610f1a57600080fd5b8151610f2d610f288261171a565b6116ed565b91508082526020830160208301858383011115610f4957600080fd5b610f54838284611871565b50505092915050565b600081519050610f6c816118e3565b92915050565b600081519050610f81816118fa565b92915050565b600060208284031215610f9957600080fd5b6000610fa784828501610eca565b91505092915050565b600060208284031215610fc257600080fd5b6000610fd084828501610edf565b91505092915050565b60008060408385031215610fec57600080fd5b6000610ffa85828601610eca565b925050602061100b85828601610ef4565b9150509250929050565b60008060008060008060008060008060006101608c8e03121561103757600080fd5b60006110458e828f01610edf565b9b505060208c015167ffffffffffffffff81111561106257600080fd5b61106e8e828f01610f09565b9a5050604061107f8e828f01610f5d565b99505060606110908e828f01610f5d565b98505060806110a18e828f01610f5d565b97505060a06110b28e828f01610f5d565b96505060c06110c38e828f01610f5d565b95505060e06110d48e828f01610f5d565b9450506101006110e68e828f01610f5d565b9350506101206110f88e828f01610f5d565b92505061014061110a8e828f01610f5d565b9150509295989b509295989b9093969950565b60006020828403121561112f57600080fd5b600082015167ffffffffffffffff81111561114957600080fd5b61115584828501610f09565b91505092915050565b60006020828403121561117057600080fd5b600061117e84828501610f5d565b91505092915050565b60006020828403121561119957600080fd5b60006111a784828501610f72565b91505092915050565b60006111bc83836111f4565b60208301905092915050565b60006111d48383611352565b905092915050565b60006111e88383611479565b60208301905092915050565b6111fd8161181e565b82525050565b61120c8161181e565b82525050565b600061121d82611776565b61122781856117c9565b935061123283611746565b8060005b8381101561126357815161124a88826111b0565b9750611255836117a2565b925050600181019050611236565b5085935050505092915050565b600061127b82611781565b61128581856117da565b93508360208202850161129785611756565b8060005b858110156112d357848403895281516112b485826111c8565b94506112bf836117af565b925060208a0199505060018101905061129b565b50829750879550505050505092915050565b60006112f08261178c565b6112fa81856117eb565b935061130583611766565b8060005b8381101561133657815161131d88826111dc565b9750611328836117bc565b925050600181019050611309565b5085935050505092915050565b61134c81611830565b82525050565b600061135d82611797565b61136781856117fc565b9350611377818560208601611871565b611380816118a4565b840191505092915050565b600061139682611797565b6113a0818561180d565b93506113b0818560208601611871565b6113b9816118a4565b840191505092915050565b60006113d160268361180d565b91507f4f776e61626c653a206e6577206f776e657220697320746865207a65726f206160008301527f64647265737300000000000000000000000000000000000000000000000000006020830152604082019050919050565b600061143760208361180d565b91507f4f776e61626c653a2063616c6c6572206973206e6f7420746865206f776e65726000830152602082019050919050565b6114738161185a565b82525050565b61148281611864565b82525050565b600060208201905061149d6000830184611203565b92915050565b6000610160820190506114b9600083018e611203565b81810360208301526114cb818d61138b565b90506114da604083018c61146a565b6114e7606083018b61146a565b6114f4608083018a61146a565b61150160a083018961146a565b61150e60c083018861146a565b61151b60e083018761146a565b61152961010083018661146a565b61153761012083018561146a565b61154561014083018461146a565b9c9b505050505050505050505050565b60006101808201905061156b600083018f611203565b818103602083015261157d818e61138b565b905061158c604083018d61146a565b611599606083018c61146a565b6115a6608083018b61146a565b6115b360a083018a61146a565b6115c060c083018961146a565b6115cd60e083018861146a565b6115db61010083018761146a565b6115e961012083018661146a565b6115f761014083018561146a565b61160561016083018461146a565b9d9c50505050505050505050505050565b600060808201905081810360008301526116308187611212565b905081810360208301526116448186611212565b905081810360408301526116588185611270565b9050818103606083015261166c81846112e5565b905095945050505050565b600060208201905061168c6000830184611343565b92915050565b600060208201905081810360008301526116ab816113c4565b9050919050565b600060208201905081810360008301526116cb8161142a565b9050919050565b60006020820190506116e7600083018461146a565b92915050565b6000604051905081810181811067ffffffffffffffff8211171561171057600080fd5b8060405250919050565b600067ffffffffffffffff82111561173157600080fd5b601f19601f8301169050602081019050919050565b6000819050602082019050919050565b6000819050602082019050919050565b6000819050602082019050919050565b600081519050919050565b600081519050919050565b600081519050919050565b600081519050919050565b6000602082019050919050565b6000602082019050919050565b6000602082019050919050565b600082825260208201905092915050565b600082825260208201905092915050565b600082825260208201905092915050565b600082825260208201905092915050565b600082825260208201905092915050565b60006118298261183a565b9050919050565b6000819050919050565b600073ffffffffffffffffffffffffffffffffffffffff82169050919050565b6000819050919050565b600060ff82169050919050565b60005b8381101561188f578082015181840152602081019050611874565b8381111561189e576000848401525b50505050565b6000601f19601f8301169050919050565b6118be8161181e565b81146118c957600080fd5b50565b6118d581611830565b81146118e057600080fd5b50565b6118ec8161185a565b81146118f757600080fd5b50565b61190381611864565b811461190e57600080fd5b5056fea2646970667358221220b22b891b345f8c89006ed8c1d74b460de53a583807645df0fb9686a72e78fe5564736f6c634300060c0033",
  "immutableReferences": {},
  "source": "// SPDX-License-Identifier: MIT\n\npragma solidity >=0.6.12;\npragma experimental ABIEncoderV2;\n\nimport \"../openzeppelin/contracts/access/Ownable.sol\";\nimport \"./TeemoPool.sol\";\nimport \"../trade/SwapTrade.sol\";\nimport \"../openzeppelin/contracts/token/ERC20/ERC20.sol\";\n// import \"../interface/ICreator.sol\";\nimport \"./PoolFactory.sol\";\nimport \"./TeemoPool.sol\";\n\ncontract PoolProxy is Ownable {\n    address public poolFactoryAddr;\n\n    constructor(\n        address _poolFactoryAddr\n    ) public {\n        poolFactoryAddr = _poolFactoryAddr;\n    }\n\n    function setPoolFactoryAddr(address _poolFactoryAddr) public {\n        poolFactoryAddr = _poolFactoryAddr;\n    }\n\n    function getAllPoolInfo()\n        public\n        view\n        returns (\n            address[] memory allTeemoPoolAddr,\n            address[] memory allTokenAddr,\n            string[] memory allSymbol,\n            uint8[] memory allDecimals\n            //,uint256[] memory allBalanceOf\n        )\n    {\n        uint256 poolLength = PoolFactory(poolFactoryAddr).poolLength();\n        \n        allTeemoPoolAddr = new address[](poolLength);\n        allTokenAddr = new address[](poolLength);\n        allSymbol = new string[](poolLength);\n        allDecimals = new uint8[](poolLength);\n        //allBalanceOf = new uint256[](poolLength);\n\n        for (uint256 i = 0; i < poolLength; i++) {\n            allTeemoPoolAddr[i] = PoolFactory(poolFactoryAddr).allPoolAddr(i);\n            allTokenAddr[i] = TeemoPool(allTeemoPoolAddr[i]).tokenAddr();\n            if (allTokenAddr[i] != address(0)) {\n                allSymbol[i] = ERC20(allTokenAddr[i]).symbol();\n                allDecimals[i] = 18;\n            } else {\n                allDecimals[i] = ERC20(allTokenAddr[i]).decimals();\n            }\n            //allBalanceOf[i] = ERC20(allTokenAddr[i]).balanceOf(msg.sender);\n        }\n    }\n\n    function poolLength() public view returns(uint256) {\n        return PoolFactory(poolFactoryAddr).poolLength();\n    }\n\n    // function orderLength(address _teemoPoolAddr, address _userAddress) public view returns (uint256) {\n    //     TeemoPool(_teemoPoolAddr).swapTradeAddr\n    // }\n\n    function getOrder(address _teemoPoolAddr, bytes32 _orderID)\n        public\n        view\n        returns (\n            address userAddr,\n            string memory symbol,\n            uint256 tokenAmount,\n            uint256 lever,\n            uint256 bsFlag,\n            uint256 openPrice,\n            uint256 openTime,\n            uint256 pLimitPrice,\n            uint256 lLimitPrice,\n            uint256 closePrice,\n            uint256 closeTime\n        )\n    {\n        address swapTradeAddr = TeemoPool(_teemoPoolAddr).swapTradeAddr();\n        (userAddr, symbol, tokenAmount, lever, , , , , , , ) = SwapTrade(swapTradeAddr).allOrderHash(_orderID);\n        (, , , , bsFlag, openPrice, openTime, pLimitPrice, , , ) = SwapTrade(swapTradeAddr).allOrderHash(_orderID);\n        (, , , , , , , pLimitPrice, lLimitPrice, closePrice, closeTime) = SwapTrade(swapTradeAddr).allOrderHash(_orderID);\n    }\n\n    function getLimitOrder(address _teemoPoolAddr, bytes32 _orderID)\n        public\n        view\n        returns (\n            address userAddr,\n            string memory symbol,\n            uint256 tokenAmount,\n            uint256 lever,\n            uint256 bsFlag,\n            uint256 openPrice,\n            uint256 openTime,\n            uint256 newPrice,\n            uint256 pLimitPrice,\n            uint256 lLimitPrice,\n            uint256 closeTime,\n            uint256 status\n        ) \n    {\n        //address swapTradeAddr = TeemoPool(_teemoPoolAddr).swapTradeAddr();\n        //userAddr, symbol, tokenAmount, lever, bsFlag, openPrice, openTime, newPrice, pLimitPrice, lLimitPrice, closeTime, status\n        //(userAddr, , , , , , , , , , , ) = SwapTrade(swapTradeAddr).allOrderHash(_orderID);\n        // (, , , , bsFlag, openPrice, openTime, pLimitPrice, , , , ) = SwapTrade(swapTradeAddr).allLimitOrderHash(_orderID);\n        // (, , , , , , , , pLimitPrice, lLimitPrice, closeTime, status) = SwapTrade(swapTradeAddr).allLimitOrderHash(_orderID);\n    }\n}\n",
  "sourcePath": "/Users/tong/Projects/drep-project/teemo-private/contracts/pool/PoolProxy.sol",
  "compiler": {
    "name": "solc",
    "version": "0.6.12+commit.27d51765.Emscripten.clang"
  },
  "schemaVersion": "3.3.2",
  "updatedAt": "2021-01-15T04:10:05.722Z",
  "devdoc": {
    "kind": "dev",
    "methods": {
      "owner()": {
        "details": "Returns the address of the current owner."
      },
      "renounceOwnership()": {
        "details": "Leaves the contract without owner. It will not be possible to call `onlyOwner` functions anymore. Can only be called by the current owner. NOTE: Renouncing ownership will leave the contract without an owner, thereby removing any functionality that is only available to the owner."
      },
      "transferOwnership(address)": {
        "details": "Transfers ownership of the contract to a new account (`newOwner`). Can only be called by the current owner."
      }
    },
    "version": 1
  },
  "userdoc": {
    "kind": "user",
    "methods": {},
    "version": 1
  }
}