{
  "contractName": "PoolProxy",
  "abi": [
    {
      "inputs": [
        {
          "internalType": "address",
          "name": "_poolFactoryAddr",
          "type": "address"
        }
      ],
      "stateMutability": "nonpayable",
      "type": "constructor"
    },
    {
      "anonymous": false,
      "inputs": [
        {
          "indexed": true,
          "internalType": "address",
          "name": "previousOwner",
          "type": "address"
        },
        {
          "indexed": true,
          "internalType": "address",
          "name": "newOwner",
          "type": "address"
        }
      ],
      "name": "OwnershipTransferred",
      "type": "event"
    },
    {
      "inputs": [],
      "name": "owner",
      "outputs": [
        {
          "internalType": "address",
          "name": "",
          "type": "address"
        }
      ],
      "stateMutability": "view",
      "type": "function"
    },
    {
      "inputs": [],
      "name": "poolFactoryAddr",
      "outputs": [
        {
          "internalType": "address",
          "name": "",
          "type": "address"
        }
      ],
      "stateMutability": "view",
      "type": "function"
    },
    {
      "inputs": [],
      "name": "renounceOwnership",
      "outputs": [],
      "stateMutability": "nonpayable",
      "type": "function"
    },
    {
      "inputs": [
        {
          "internalType": "address",
          "name": "newOwner",
          "type": "address"
        }
      ],
      "name": "transferOwnership",
      "outputs": [],
      "stateMutability": "nonpayable",
      "type": "function"
    },
    {
      "inputs": [
        {
          "internalType": "address",
          "name": "_poolFactoryAddr",
          "type": "address"
        }
      ],
      "name": "setPoolFactoryAddr",
      "outputs": [],
      "stateMutability": "nonpayable",
      "type": "function"
    },
    {
      "inputs": [],
      "name": "getAllPoolInfo",
      "outputs": [
        {
          "internalType": "address[]",
          "name": "allTeemoPoolAddr",
          "type": "address[]"
        },
        {
          "internalType": "address[]",
          "name": "allTokenAddr",
          "type": "address[]"
        },
        {
          "internalType": "address[]",
          "name": "allFundAddr",
          "type": "address[]"
        },
        {
          "internalType": "address[]",
          "name": "allRiskAddr",
          "type": "address[]"
        },
        {
          "internalType": "address[]",
          "name": "allSwapTradeAddr",
          "type": "address[]"
        },
        {
          "internalType": "address[]",
          "name": "allMineAddr",
          "type": "address[]"
        },
        {
          "internalType": "string[]",
          "name": "allSymbol",
          "type": "string[]"
        },
        {
          "internalType": "uint8[]",
          "name": "allDecimals",
          "type": "uint8[]"
        }
      ],
      "stateMutability": "view",
      "type": "function"
    },
    {
      "inputs": [],
      "name": "getAllPositionInfo",
      "outputs": [
        {
          "internalType": "address[]",
          "name": "allTeemoPoolAddr",
          "type": "address[]"
        },
        {
          "internalType": "uint256[]",
          "name": "allTotalAmount",
          "type": "uint256[]"
        },
        {
          "internalType": "uint256[]",
          "name": "allTotalSupply",
          "type": "uint256[]"
        },
        {
          "internalType": "uint256[]",
          "name": "allTotalTokenAmountIn",
          "type": "uint256[]"
        },
        {
          "internalType": "uint256[]",
          "name": "allTotalTokenAmountOut",
          "type": "uint256[]"
        },
        {
          "internalType": "uint256[]",
          "name": "allTotalTradeP",
          "type": "uint256[]"
        },
        {
          "internalType": "uint256[]",
          "name": "allTotalTradeL",
          "type": "uint256[]"
        },
        {
          "internalType": "uint256[]",
          "name": "allLongOrderTotalAmount",
          "type": "uint256[]"
        },
        {
          "internalType": "uint256[]",
          "name": "allShortOrderTotalAmount",
          "type": "uint256[]"
        },
        {
          "internalType": "int256[]",
          "name": "allTotalP",
          "type": "int256[]"
        },
        {
          "internalType": "int256[]",
          "name": "allTotalL",
          "type": "int256[]"
        }
      ],
      "stateMutability": "view",
      "type": "function"
    },
    {
      "inputs": [
        {
          "internalType": "address",
          "name": "teemoPoolAddr",
          "type": "address"
        }
      ],
      "name": "getPositionInfo",
      "outputs": [
        {
          "internalType": "uint256",
          "name": "totalAmount",
          "type": "uint256"
        },
        {
          "internalType": "uint256",
          "name": "totalSupply",
          "type": "uint256"
        },
        {
          "internalType": "uint256",
          "name": "totalTokenAmountIn",
          "type": "uint256"
        },
        {
          "internalType": "uint256",
          "name": "totalTokenAmountOut",
          "type": "uint256"
        },
        {
          "internalType": "uint256",
          "name": "totalTradeP",
          "type": "uint256"
        },
        {
          "internalType": "uint256",
          "name": "totalTradeL",
          "type": "uint256"
        },
        {
          "internalType": "uint256",
          "name": "longOrderTotalAmount",
          "type": "uint256"
        },
        {
          "internalType": "uint256",
          "name": "shortOrderTotalAmount",
          "type": "uint256"
        },
        {
          "internalType": "int256",
          "name": "totalP",
          "type": "int256"
        },
        {
          "internalType": "int256",
          "name": "totalL",
          "type": "int256"
        }
      ],
      "stateMutability": "view",
      "type": "function"
    },
    {
      "inputs": [],
      "name": "poolLength",
      "outputs": [
        {
          "internalType": "uint256",
          "name": "",
          "type": "uint256"
        }
      ],
      "stateMutability": "view",
      "type": "function"
    },
    {
      "inputs": [
        {
          "internalType": "address",
          "name": "_teemoPoolAddr",
          "type": "address"
        },
        {
          "internalType": "bytes32",
          "name": "_orderID",
          "type": "bytes32"
        }
      ],
      "name": "getOrder",
      "outputs": [
        {
          "internalType": "address",
          "name": "userAddr",
          "type": "address"
        },
        {
          "internalType": "string",
          "name": "symbol",
          "type": "string"
        },
        {
          "internalType": "uint256",
          "name": "tokenAmount",
          "type": "uint256"
        },
        {
          "internalType": "uint256",
          "name": "lever",
          "type": "uint256"
        },
        {
          "internalType": "uint256",
          "name": "bsFlag",
          "type": "uint256"
        },
        {
          "internalType": "uint256",
          "name": "openPrice",
          "type": "uint256"
        },
        {
          "internalType": "uint256",
          "name": "openTime",
          "type": "uint256"
        },
        {
          "internalType": "uint256",
          "name": "pLimitPrice",
          "type": "uint256"
        },
        {
          "internalType": "uint256",
          "name": "lLimitPrice",
          "type": "uint256"
        },
        {
          "internalType": "uint256",
          "name": "closePrice",
          "type": "uint256"
        },
        {
          "internalType": "uint256",
          "name": "closeTime",
          "type": "uint256"
        }
      ],
      "stateMutability": "view",
      "type": "function"
    },
    {
      "inputs": [
        {
          "internalType": "address",
          "name": "_teemoPoolAddr",
          "type": "address"
        },
        {
          "internalType": "bytes32",
          "name": "_orderID",
          "type": "bytes32"
        }
      ],
      "name": "getLimitOrder",
      "outputs": [
        {
          "internalType": "address",
          "name": "userAddr",
          "type": "address"
        },
        {
          "internalType": "string",
          "name": "symbol",
          "type": "string"
        },
        {
          "internalType": "uint256",
          "name": "tokenAmount",
          "type": "uint256"
        },
        {
          "internalType": "uint256",
          "name": "lever",
          "type": "uint256"
        },
        {
          "internalType": "uint256",
          "name": "bsFlag",
          "type": "uint256"
        },
        {
          "internalType": "uint256",
          "name": "openPrice",
          "type": "uint256"
        },
        {
          "internalType": "uint256",
          "name": "openTime",
          "type": "uint256"
        },
        {
          "internalType": "uint256",
          "name": "newPrice",
          "type": "uint256"
        },
        {
          "internalType": "uint256",
          "name": "pLimitPrice",
          "type": "uint256"
        },
        {
          "internalType": "uint256",
          "name": "lLimitPrice",
          "type": "uint256"
        },
        {
          "internalType": "uint256",
          "name": "closeTime",
          "type": "uint256"
        },
        {
          "internalType": "uint256",
          "name": "status",
          "type": "uint256"
        }
      ],
      "stateMutability": "view",
      "type": "function"
    }
  ],
  "bytecode": "0x60806040523480156200001157600080fd5b506040516200372f3803806200372f83398181016040528101906200003791906200014e565b6000620000496200012f60201b60201c565b9050806000806101000a81548173ffffffffffffffffffffffffffffffffffffffff021916908373ffffffffffffffffffffffffffffffffffffffff1602179055508073ffffffffffffffffffffffffffffffffffffffff16600073ffffffffffffffffffffffffffffffffffffffff167f8be0079c531659141344cd1fd0a4f28419497f9722a3daafe3b4186f6b6457e060405160405180910390a35080600160006101000a81548173ffffffffffffffffffffffffffffffffffffffff021916908373ffffffffffffffffffffffffffffffffffffffff16021790555050620001c8565b600033905090565b6000815190506200014881620001ae565b92915050565b6000602082840312156200016157600080fd5b6000620001718482850162000137565b91505092915050565b600062000187826200018e565b9050919050565b600073ffffffffffffffffffffffffffffffffffffffff82169050919050565b620001b9816200017a565b8114620001c557600080fd5b50565b61355780620001d86000396000f3fe608060405234801561001057600080fd5b50600436106100a95760003560e01c8063715018a611610071578063715018a61461016f57806386f28fc5146101795780638da5cb5b146101b4578063b06b9fbe146101d2578063f2fde38b146101f0578063fbd1d25a1461020c576100a9565b8063081e3eda146100ae5780630c73bda9146100cc5780632a0892e8146100f15780632a706f8e1461010d57806349651b6a14610135575b600080fd5b6100b6610245565b6040516100c391906131b3565b60405180910390f35b6100d46102ec565b6040516100e8989796959493929190612f2a565b60405180910390f35b61010b6004803603810190610106919061261d565b610d22565b005b610115610d66565b60405161012c9b9a99989796959493929190612fe0565b60405180910390f35b61014f600480360381019061014a919061266f565b6118fc565b6040516101669b9a99989796959493929190612db7565b60405180910390f35b610177611c03565b005b610193600480360381019061018e919061266f565b611d56565b6040516101ab9c9b9a99989796959493929190612e69565b60405180910390f35b6101bc611d79565b6040516101c99190612d9c565b60405180910390f35b6101da611da2565b6040516101e79190612d9c565b60405180910390f35b61020a6004803603810190610205919061261d565b611dc8565b005b6102266004803603810190610221919061261d565b611f8a565b60405161023c9a999897969594939291906131ce565b60405180910390f35b6000600160009054906101000a900473ffffffffffffffffffffffffffffffffffffffff1673ffffffffffffffffffffffffffffffffffffffff1663081e3eda6040518163ffffffff1660e01b815260040160206040518083038186803b1580156102af57600080fd5b505afa1580156102c3573d6000803e3d6000fd5b505050506040513d601f19601f820116820180604052508101906102e7919061281d565b905090565b6060806060806060806060806000600160009054906101000a900473ffffffffffffffffffffffffffffffffffffffff1673ffffffffffffffffffffffffffffffffffffffff1663081e3eda6040518163ffffffff1660e01b815260040160206040518083038186803b15801561036257600080fd5b505afa158015610376573d6000803e3d6000fd5b505050506040513d601f19601f8201168201806040525081019061039a919061281d565b90508067ffffffffffffffff811180156103b357600080fd5b506040519080825280602002602001820160405280156103e25781602001602082028036833780820191505090505b5098508067ffffffffffffffff811180156103fc57600080fd5b5060405190808252806020026020018201604052801561042b5781602001602082028036833780820191505090505b5097508067ffffffffffffffff8111801561044557600080fd5b506040519080825280602002602001820160405280156104745781602001602082028036833780820191505090505b5096508067ffffffffffffffff8111801561048e57600080fd5b506040519080825280602002602001820160405280156104bd5781602001602082028036833780820191505090505b5095508067ffffffffffffffff811180156104d757600080fd5b506040519080825280602002602001820160405280156105065781602001602082028036833780820191505090505b5094508067ffffffffffffffff8111801561052057600080fd5b5060405190808252806020026020018201604052801561054f5781602001602082028036833780820191505090505b5093508067ffffffffffffffff8111801561056957600080fd5b5060405190808252806020026020018201604052801561059d57816020015b60608152602001906001900390816105885790505b5092508067ffffffffffffffff811180156105b757600080fd5b506040519080825280602002602001820160405280156105e65781602001602082028036833780820191505090505b50915060005b81811015610d1657600160009054906101000a900473ffffffffffffffffffffffffffffffffffffffff1673ffffffffffffffffffffffffffffffffffffffff16639612b0c4826040518263ffffffff1660e01b815260040161064f91906131b3565b60206040518083038186803b15801561066757600080fd5b505afa15801561067b573d6000803e3d6000fd5b505050506040513d601f19601f8201168201806040525081019061069f9190612646565b8a82815181106106ab57fe5b602002602001019073ffffffffffffffffffffffffffffffffffffffff16908173ffffffffffffffffffffffffffffffffffffffff16815250508981815181106106f157fe5b602002602001015173ffffffffffffffffffffffffffffffffffffffff16635fbe4d1d6040518163ffffffff1660e01b815260040160206040518083038186803b15801561073e57600080fd5b505afa158015610752573d6000803e3d6000fd5b505050506040513d601f19601f820116820180604052508101906107769190612646565b89828151811061078257fe5b602002602001019073ffffffffffffffffffffffffffffffffffffffff16908173ffffffffffffffffffffffffffffffffffffffff16815250508981815181106107c857fe5b602002602001015173ffffffffffffffffffffffffffffffffffffffff1663c554ebcb6040518163ffffffff1660e01b8152600401610806906130f3565b60206040518083038186803b15801561081e57600080fd5b505afa158015610832573d6000803e3d6000fd5b505050506040513d601f19601f820116820180604052508101906108569190612646565b88828151811061086257fe5b602002602001019073ffffffffffffffffffffffffffffffffffffffff16908173ffffffffffffffffffffffffffffffffffffffff16815250508981815181106108a857fe5b602002602001015173ffffffffffffffffffffffffffffffffffffffff1663c554ebcb6040518163ffffffff1660e01b81526004016108e690613173565b60206040518083038186803b1580156108fe57600080fd5b505afa158015610912573d6000803e3d6000fd5b505050506040513d601f19601f820116820180604052508101906109369190612646565b87828151811061094257fe5b602002602001019073ffffffffffffffffffffffffffffffffffffffff16908173ffffffffffffffffffffffffffffffffffffffff168152505089818151811061098857fe5b602002602001015173ffffffffffffffffffffffffffffffffffffffff1663c554ebcb6040518163ffffffff1660e01b81526004016109c690613133565b60206040518083038186803b1580156109de57600080fd5b505afa1580156109f2573d6000803e3d6000fd5b505050506040513d601f19601f82011682018060405250810190610a169190612646565b868281518110610a2257fe5b602002602001019073ffffffffffffffffffffffffffffffffffffffff16908173ffffffffffffffffffffffffffffffffffffffff1681525050898181518110610a6857fe5b602002602001015173ffffffffffffffffffffffffffffffffffffffff1663c554ebcb6040518163ffffffff1660e01b8152600401610aa690613153565b60206040518083038186803b158015610abe57600080fd5b505afa158015610ad2573d6000803e3d6000fd5b505050506040513d601f19601f82011682018060405250810190610af69190612646565b858281518110610b0257fe5b602002602001019073ffffffffffffffffffffffffffffffffffffffff16908173ffffffffffffffffffffffffffffffffffffffff1681525050600073ffffffffffffffffffffffffffffffffffffffff16898281518110610b6057fe5b602002602001015173ffffffffffffffffffffffffffffffffffffffff1614610ce657888181518110610b8f57fe5b602002602001015173ffffffffffffffffffffffffffffffffffffffff166395d89b416040518163ffffffff1660e01b815260040160006040518083038186803b158015610bdc57600080fd5b505afa158015610bf0573d6000803e3d6000fd5b505050506040513d6000823e3d601f19601f82011682018060405250810190610c1991906127dc565b848281518110610c2557fe5b6020026020010181905250888181518110610c3c57fe5b602002602001015173ffffffffffffffffffffffffffffffffffffffff1663313ce5676040518163ffffffff1660e01b815260040160206040518083038186803b158015610c8957600080fd5b505afa158015610c9d573d6000803e3d6000fd5b505050506040513d601f19601f82011682018060405250810190610cc19190612882565b838281518110610ccd57fe5b602002602001019060ff16908160ff1681525050610d09565b6012838281518110610cf457fe5b602002602001019060ff16908160ff16815250505b80806001019150506105ec565b50509091929394959697565b80600160006101000a81548173ffffffffffffffffffffffffffffffffffffffff021916908373ffffffffffffffffffffffffffffffffffffffff16021790555050565b60608060608060608060608060608060606000600160009054906101000a900473ffffffffffffffffffffffffffffffffffffffff1673ffffffffffffffffffffffffffffffffffffffff1663081e3eda6040518163ffffffff1660e01b815260040160206040518083038186803b158015610de157600080fd5b505afa158015610df5573d6000803e3d6000fd5b505050506040513d601f19601f82011682018060405250810190610e19919061281d565b90508067ffffffffffffffff81118015610e3257600080fd5b50604051908082528060200260200182016040528015610e615781602001602082028036833780820191505090505b509b508067ffffffffffffffff81118015610e7b57600080fd5b50604051908082528060200260200182016040528015610eaa5781602001602082028036833780820191505090505b509a508067ffffffffffffffff81118015610ec457600080fd5b50604051908082528060200260200182016040528015610ef35781602001602082028036833780820191505090505b5099508067ffffffffffffffff81118015610f0d57600080fd5b50604051908082528060200260200182016040528015610f3c5781602001602082028036833780820191505090505b5098508067ffffffffffffffff81118015610f5657600080fd5b50604051908082528060200260200182016040528015610f855781602001602082028036833780820191505090505b5097508067ffffffffffffffff81118015610f9f57600080fd5b50604051908082528060200260200182016040528015610fce5781602001602082028036833780820191505090505b5096508067ffffffffffffffff81118015610fe857600080fd5b506040519080825280602002602001820160405280156110175781602001602082028036833780820191505090505b5095508067ffffffffffffffff8111801561103157600080fd5b506040519080825280602002602001820160405280156110605781602001602082028036833780820191505090505b5094508067ffffffffffffffff8111801561107a57600080fd5b506040519080825280602002602001820160405280156110a95781602001602082028036833780820191505090505b5093508067ffffffffffffffff811180156110c357600080fd5b506040519080825280602002602001820160405280156110f25781602001602082028036833780820191505090505b5092508067ffffffffffffffff8111801561110c57600080fd5b5060405190808252806020026020018201604052801561113b5781602001602082028036833780820191505090505b50915060005b818110156118ed57600160009054906101000a900473ffffffffffffffffffffffffffffffffffffffff1673ffffffffffffffffffffffffffffffffffffffff16639612b0c4826040518263ffffffff1660e01b81526004016111a491906131b3565b60206040518083038186803b1580156111bc57600080fd5b505afa1580156111d0573d6000803e3d6000fd5b505050506040513d601f19601f820116820180604052508101906111f49190612646565b8d828151811061120057fe5b602002602001019073ffffffffffffffffffffffffffffffffffffffff16908173ffffffffffffffffffffffffffffffffffffffff168152505060008d828151811061124857fe5b602002602001015173ffffffffffffffffffffffffffffffffffffffff1663c554ebcb6040518163ffffffff1660e01b8152600401611286906130f3565b60206040518083038186803b15801561129e57600080fd5b505afa1580156112b2573d6000803e3d6000fd5b505050506040513d601f19601f820116820180604052508101906112d69190612646565b90508073ffffffffffffffffffffffffffffffffffffffff16631a39d8ef6040518163ffffffff1660e01b815260040160206040518083038186803b15801561131e57600080fd5b505afa158015611332573d6000803e3d6000fd5b505050506040513d601f19601f82011682018060405250810190611356919061281d565b8d838151811061136257fe5b6020026020010181815250508073ffffffffffffffffffffffffffffffffffffffff166318160ddd6040518163ffffffff1660e01b815260040160206040518083038186803b1580156113b457600080fd5b505afa1580156113c8573d6000803e3d6000fd5b505050506040513d601f19601f820116820180604052508101906113ec919061281d565b8c83815181106113f857fe5b6020026020010181815250508073ffffffffffffffffffffffffffffffffffffffff16633053f5216040518163ffffffff1660e01b815260040160206040518083038186803b15801561144a57600080fd5b505afa15801561145e573d6000803e3d6000fd5b505050506040513d601f19601f82011682018060405250810190611482919061281d565b8b838151811061148e57fe5b6020026020010181815250508073ffffffffffffffffffffffffffffffffffffffff1663acc491c26040518163ffffffff1660e01b815260040160206040518083038186803b1580156114e057600080fd5b505afa1580156114f4573d6000803e3d6000fd5b505050506040513d601f19601f82011682018060405250810190611518919061281d565b8a838151811061152457fe5b6020026020010181815250508073ffffffffffffffffffffffffffffffffffffffff16633246d2c56040518163ffffffff1660e01b815260040160206040518083038186803b15801561157657600080fd5b505afa15801561158a573d6000803e3d6000fd5b505050506040513d601f19601f820116820180604052508101906115ae919061281d565b8983815181106115ba57fe5b6020026020010181815250508073ffffffffffffffffffffffffffffffffffffffff1663184f0c826040518163ffffffff1660e01b815260040160206040518083038186803b15801561160c57600080fd5b505afa158015611620573d6000803e3d6000fd5b505050506040513d601f19601f82011682018060405250810190611644919061281d565b88838151811061165057fe5b60200260200101818152505060008e838151811061166a57fe5b602002602001015173ffffffffffffffffffffffffffffffffffffffff1663c554ebcb6040518163ffffffff1660e01b81526004016116a890613173565b60206040518083038186803b1580156116c057600080fd5b505afa1580156116d4573d6000803e3d6000fd5b505050506040513d601f19601f820116820180604052508101906116f89190612646565b90506000808273ffffffffffffffffffffffffffffffffffffffff1663bc53a2be6040518163ffffffff1660e01b8152600401604080518083038186803b15801561174257600080fd5b505afa158015611756573d6000803e3d6000fd5b505050506040513d601f19601f8201168201806040525081019061177a9190612846565b91509150818a868151811061178b57fe5b602002602001018181525050808986815181106117a457fe5b6020026020010181815250508273ffffffffffffffffffffffffffffffffffffffff1663f5f9b4656040518163ffffffff1660e01b815260040160206040518083038186803b1580156117f657600080fd5b505afa15801561180a573d6000803e3d6000fd5b505050506040513d601f19601f8201168201806040525081019061182e91906127b3565b88868151811061183a57fe5b6020026020010181815250508273ffffffffffffffffffffffffffffffffffffffff16638e8185096040518163ffffffff1660e01b815260040160206040518083038186803b15801561188c57600080fd5b505afa1580156118a0573d6000803e3d6000fd5b505050506040513d601f19601f820116820180604052508101906118c491906127b3565b8786815181106118d057fe5b602002602001018181525050505050508080600101915050611141565b5050909192939495969798999a565b600060606000806000806000806000806000808d73ffffffffffffffffffffffffffffffffffffffff1663c554ebcb6040518163ffffffff1660e01b815260040161194690613133565b60206040518083038186803b15801561195e57600080fd5b505afa158015611972573d6000803e3d6000fd5b505050506040513d601f19601f820116820180604052508101906119969190612646565b90508073ffffffffffffffffffffffffffffffffffffffff166339cbd01f8e6040518263ffffffff1660e01b81526004016119d191906130d8565b60006040518083038186803b1580156119e957600080fd5b505afa1580156119fd573d6000803e3d6000fd5b505050506040513d6000823e3d601f19601f82011682018060405250810190611a2691906126ab565b90919293949550909192939450909192935090919250909150905050809c50819d50829e50839f50505050508073ffffffffffffffffffffffffffffffffffffffff166339cbd01f8e6040518263ffffffff1660e01b8152600401611a8b91906130d8565b60006040518083038186803b158015611aa357600080fd5b505afa158015611ab7573d6000803e3d6000fd5b505050506040513d6000823e3d601f19601f82011682018060405250810190611ae091906126ab565b9091929394959697989950909192939495969798509091929394959697509091929394959650909150905050809850819950829a50839b50505050508073ffffffffffffffffffffffffffffffffffffffff166339cbd01f8e6040518263ffffffff1660e01b8152600401611b5591906130d8565b60006040518083038186803b158015611b6d57600080fd5b505afa158015611b81573d6000803e3d6000fd5b505050506040513d6000823e3d601f19601f82011682018060405250810190611baa91906126ab565b909192939495969798995090919293949596979850909192939495969750909192939495965090919293949550909192939450909192935080955081965082975083985050505050509295989b509295989b9093969950565b611c0b612543565b73ffffffffffffffffffffffffffffffffffffffff1660008054906101000a900473ffffffffffffffffffffffffffffffffffffffff1673ffffffffffffffffffffffffffffffffffffffff1614611c98576040517f08c379a0000000000000000000000000000000000000000000000000000000008152600401611c8f90613193565b60405180910390fd5b600073ffffffffffffffffffffffffffffffffffffffff1660008054906101000a900473ffffffffffffffffffffffffffffffffffffffff1673ffffffffffffffffffffffffffffffffffffffff167f8be0079c531659141344cd1fd0a4f28419497f9722a3daafe3b4186f6b6457e060405160405180910390a360008060006101000a81548173ffffffffffffffffffffffffffffffffffffffff021916908373ffffffffffffffffffffffffffffffffffffffff160217905550565b600060606000806000806000806000806000809295989b509295989b509295989b565b60008060009054906101000a900473ffffffffffffffffffffffffffffffffffffffff16905090565b600160009054906101000a900473ffffffffffffffffffffffffffffffffffffffff1681565b611dd0612543565b73ffffffffffffffffffffffffffffffffffffffff1660008054906101000a900473ffffffffffffffffffffffffffffffffffffffff1673ffffffffffffffffffffffffffffffffffffffff1614611e5d576040517f08c379a0000000000000000000000000000000000000000000000000000000008152600401611e5490613193565b60405180910390fd5b600073ffffffffffffffffffffffffffffffffffffffff168173ffffffffffffffffffffffffffffffffffffffff161415611ecd576040517f08c379a0000000000000000000000000000000000000000000000000000000008152600401611ec490613113565b60405180910390fd5b8073ffffffffffffffffffffffffffffffffffffffff1660008054906101000a900473ffffffffffffffffffffffffffffffffffffffff1673ffffffffffffffffffffffffffffffffffffffff167f8be0079c531659141344cd1fd0a4f28419497f9722a3daafe3b4186f6b6457e060405160405180910390a3806000806101000a81548173ffffffffffffffffffffffffffffffffffffffff021916908373ffffffffffffffffffffffffffffffffffffffff16021790555050565b60008060008060008060008060008060008b73ffffffffffffffffffffffffffffffffffffffff1663c554ebcb6040518163ffffffff1660e01b8152600401611fd2906130f3565b60206040518083038186803b158015611fea57600080fd5b505afa158015611ffe573d6000803e3d6000fd5b505050506040513d601f19601f820116820180604052508101906120229190612646565b90508073ffffffffffffffffffffffffffffffffffffffff16631a39d8ef6040518163ffffffff1660e01b815260040160206040518083038186803b15801561206a57600080fd5b505afa15801561207e573d6000803e3d6000fd5b505050506040513d601f19601f820116820180604052508101906120a2919061281d565b9a508073ffffffffffffffffffffffffffffffffffffffff166318160ddd6040518163ffffffff1660e01b815260040160206040518083038186803b1580156120ea57600080fd5b505afa1580156120fe573d6000803e3d6000fd5b505050506040513d601f19601f82011682018060405250810190612122919061281d565b99508073ffffffffffffffffffffffffffffffffffffffff16633053f5216040518163ffffffff1660e01b815260040160206040518083038186803b15801561216a57600080fd5b505afa15801561217e573d6000803e3d6000fd5b505050506040513d601f19601f820116820180604052508101906121a2919061281d565b98508073ffffffffffffffffffffffffffffffffffffffff1663acc491c26040518163ffffffff1660e01b815260040160206040518083038186803b1580156121ea57600080fd5b505afa1580156121fe573d6000803e3d6000fd5b505050506040513d601f19601f82011682018060405250810190612222919061281d565b97508073ffffffffffffffffffffffffffffffffffffffff16633246d2c56040518163ffffffff1660e01b815260040160206040518083038186803b15801561226a57600080fd5b505afa15801561227e573d6000803e3d6000fd5b505050506040513d601f19601f820116820180604052508101906122a2919061281d565b96508073ffffffffffffffffffffffffffffffffffffffff1663184f0c826040518163ffffffff1660e01b815260040160206040518083038186803b1580156122ea57600080fd5b505afa1580156122fe573d6000803e3d6000fd5b505050506040513d601f19601f82011682018060405250810190612322919061281d565b955060008c73ffffffffffffffffffffffffffffffffffffffff1663c554ebcb6040518163ffffffff1660e01b815260040161235d90613173565b60206040518083038186803b15801561237557600080fd5b505afa158015612389573d6000803e3d6000fd5b505050506040513d601f19601f820116820180604052508101906123ad9190612646565b90508073ffffffffffffffffffffffffffffffffffffffff1663bc53a2be6040518163ffffffff1660e01b8152600401604080518083038186803b1580156123f457600080fd5b505afa158015612408573d6000803e3d6000fd5b505050506040513d601f19601f8201168201806040525081019061242c9190612846565b80965081975050508073ffffffffffffffffffffffffffffffffffffffff1663f5f9b4656040518163ffffffff1660e01b815260040160206040518083038186803b15801561247a57600080fd5b505afa15801561248e573d6000803e3d6000fd5b505050506040513d601f19601f820116820180604052508101906124b291906127b3565b93508073ffffffffffffffffffffffffffffffffffffffff16638e8185096040518163ffffffff1660e01b815260040160206040518083038186803b1580156124fa57600080fd5b505afa15801561250e573d6000803e3d6000fd5b505050506040513d601f19601f8201168201806040525081019061253291906127b3565b925050509193959799509193959799565b600033905090565b60008135905061255a816134ae565b92915050565b60008151905061256f816134ae565b92915050565b600081359050612584816134c5565b92915050565b600081519050612599816134dc565b92915050565b600082601f8301126125b057600080fd5b81516125c36125be82613297565b61326a565b915080825260208301602083018583830111156125df57600080fd5b6125ea83828461346a565b50505092915050565b600081519050612602816134f3565b92915050565b6000815190506126178161350a565b92915050565b60006020828403121561262f57600080fd5b600061263d8482850161254b565b91505092915050565b60006020828403121561265857600080fd5b600061266684828501612560565b91505092915050565b6000806040838503121561268257600080fd5b60006126908582860161254b565b92505060206126a185828601612575565b9150509250929050565b60008060008060008060008060008060006101608c8e0312156126cd57600080fd5b60006126db8e828f01612560565b9b505060208c015167ffffffffffffffff8111156126f857600080fd5b6127048e828f0161259f565b9a505060406127158e828f016125f3565b99505060606127268e828f016125f3565b98505060806127378e828f016125f3565b97505060a06127488e828f016125f3565b96505060c06127598e828f016125f3565b95505060e061276a8e828f016125f3565b94505061010061277c8e828f016125f3565b93505061012061278e8e828f016125f3565b9250506101406127a08e828f016125f3565b9150509295989b509295989b9093969950565b6000602082840312156127c557600080fd5b60006127d38482850161258a565b91505092915050565b6000602082840312156127ee57600080fd5b600082015167ffffffffffffffff81111561280857600080fd5b6128148482850161259f565b91505092915050565b60006020828403121561282f57600080fd5b600061283d848285016125f3565b91505092915050565b6000806040838503121561285957600080fd5b6000612867858286016125f3565b9250506020612878858286016125f3565b9150509250929050565b60006020828403121561289457600080fd5b60006128a284828501612608565b91505092915050565b60006128b7838361291f565b60208301905092915050565b60006128cf8383612b39565b60208301905092915050565b60006128e78383612b57565b905092915050565b60006128fb8383612d6f565b60208301905092915050565b60006129138383612d8d565b60208301905092915050565b6129288161340d565b82525050565b6129378161340d565b82525050565b600061294882613313565b6129528185613396565b935061295d836132c3565b8060005b8381101561298e57815161297588826128ab565b975061298083613355565b925050600181019050612961565b5085935050505092915050565b60006129a68261331e565b6129b081856133a7565b93506129bb836132d3565b8060005b838110156129ec5781516129d388826128c3565b97506129de83613362565b9250506001810190506129bf565b5085935050505092915050565b6000612a0482613329565b612a0e81856133b8565b935083602082028501612a20856132e3565b8060005b85811015612a5c5784840389528151612a3d85826128db565b9450612a488361336f565b925060208a01995050600181019050612a24565b50829750879550505050505092915050565b6000612a7982613334565b612a8381856133c9565b9350612a8e836132f3565b8060005b83811015612abf578151612aa688826128ef565b9750612ab18361337c565b925050600181019050612a92565b5085935050505092915050565b6000612ad78261333f565b612ae181856133da565b9350612aec83613303565b8060005b83811015612b1d578151612b048882612907565b9750612b0f83613389565b925050600181019050612af0565b5085935050505092915050565b612b338161341f565b82525050565b612b4281613429565b82525050565b612b5181613429565b82525050565b6000612b628261334a565b612b6c81856133eb565b9350612b7c81856020860161346a565b612b858161349d565b840191505092915050565b6000612b9b8261334a565b612ba581856133fc565b9350612bb581856020860161346a565b612bbe8161349d565b840191505092915050565b6000612bd66004836133fc565b91507f46554e44000000000000000000000000000000000000000000000000000000006000830152602082019050919050565b6000612c166026836133fc565b91507f4f776e61626c653a206e6577206f776e657220697320746865207a65726f206160008301527f64647265737300000000000000000000000000000000000000000000000000006020830152604082019050919050565b6000612c7c6009836133fc565b91507f53574150545241444500000000000000000000000000000000000000000000006000830152602082019050919050565b6000612cbc6004836133fc565b91507f4d494e45000000000000000000000000000000000000000000000000000000006000830152602082019050919050565b6000612cfc6004836133fc565b91507f5249534b000000000000000000000000000000000000000000000000000000006000830152602082019050919050565b6000612d3c6020836133fc565b91507f4f776e61626c653a2063616c6c6572206973206e6f7420746865206f776e65726000830152602082019050919050565b612d7881613453565b82525050565b612d8781613453565b82525050565b612d968161345d565b82525050565b6000602082019050612db1600083018461292e565b92915050565b600061016082019050612dcd600083018e61292e565b8181036020830152612ddf818d612b90565b9050612dee604083018c612d7e565b612dfb606083018b612d7e565b612e08608083018a612d7e565b612e1560a0830189612d7e565b612e2260c0830188612d7e565b612e2f60e0830187612d7e565b612e3d610100830186612d7e565b612e4b610120830185612d7e565b612e59610140830184612d7e565b9c9b505050505050505050505050565b600061018082019050612e7f600083018f61292e565b8181036020830152612e91818e612b90565b9050612ea0604083018d612d7e565b612ead606083018c612d7e565b612eba608083018b612d7e565b612ec760a083018a612d7e565b612ed460c0830189612d7e565b612ee160e0830188612d7e565b612eef610100830187612d7e565b612efd610120830186612d7e565b612f0b610140830185612d7e565b612f19610160830184612d7e565b9d9c50505050505050505050505050565b6000610100820190508181036000830152612f45818b61293d565b90508181036020830152612f59818a61293d565b90508181036040830152612f6d818961293d565b90508181036060830152612f81818861293d565b90508181036080830152612f95818761293d565b905081810360a0830152612fa9818661293d565b905081810360c0830152612fbd81856129f9565b905081810360e0830152612fd18184612acc565b90509998505050505050505050565b6000610160820190508181036000830152612ffb818e61293d565b9050818103602083015261300f818d612a6e565b90508181036040830152613023818c612a6e565b90508181036060830152613037818b612a6e565b9050818103608083015261304b818a612a6e565b905081810360a083015261305f8189612a6e565b905081810360c08301526130738188612a6e565b905081810360e08301526130878187612a6e565b905081810361010083015261309c8186612a6e565b90508181036101208301526130b1818561299b565b90508181036101408301526130c6818461299b565b90509c9b505050505050505050505050565b60006020820190506130ed6000830184612b2a565b92915050565b6000602082019050818103600083015261310c81612bc9565b9050919050565b6000602082019050818103600083015261312c81612c09565b9050919050565b6000602082019050818103600083015261314c81612c6f565b9050919050565b6000602082019050818103600083015261316c81612caf565b9050919050565b6000602082019050818103600083015261318c81612cef565b9050919050565b600060208201905081810360008301526131ac81612d2f565b9050919050565b60006020820190506131c86000830184612d7e565b92915050565b6000610140820190506131e4600083018d612d7e565b6131f1602083018c612d7e565b6131fe604083018b612d7e565b61320b606083018a612d7e565b6132186080830189612d7e565b61322560a0830188612d7e565b61323260c0830187612d7e565b61323f60e0830186612d7e565b61324d610100830185612b48565b61325b610120830184612b48565b9b9a5050505050505050505050565b6000604051905081810181811067ffffffffffffffff8211171561328d57600080fd5b8060405250919050565b600067ffffffffffffffff8211156132ae57600080fd5b601f19601f8301169050602081019050919050565b6000819050602082019050919050565b6000819050602082019050919050565b6000819050602082019050919050565b6000819050602082019050919050565b6000819050602082019050919050565b600081519050919050565b600081519050919050565b600081519050919050565b600081519050919050565b600081519050919050565b600081519050919050565b6000602082019050919050565b6000602082019050919050565b6000602082019050919050565b6000602082019050919050565b6000602082019050919050565b600082825260208201905092915050565b600082825260208201905092915050565b600082825260208201905092915050565b600082825260208201905092915050565b600082825260208201905092915050565b600082825260208201905092915050565b600082825260208201905092915050565b600061341882613433565b9050919050565b6000819050919050565b6000819050919050565b600073ffffffffffffffffffffffffffffffffffffffff82169050919050565b6000819050919050565b600060ff82169050919050565b60005b8381101561348857808201518184015260208101905061346d565b83811115613497576000848401525b50505050565b6000601f19601f8301169050919050565b6134b78161340d565b81146134c257600080fd5b50565b6134ce8161341f565b81146134d957600080fd5b50565b6134e581613429565b81146134f057600080fd5b50565b6134fc81613453565b811461350757600080fd5b50565b6135138161345d565b811461351e57600080fd5b5056fea2646970667358221220627aa220f49e2022a1c125b390f008a2d91977d0cf00bedb635cdca69c0eea8164736f6c634300060c0033",
  "immutableReferences": {},
  "source": "// SPDX-License-Identifier: MIT\n\npragma solidity >=0.6.12;\npragma experimental ABIEncoderV2;\n\nimport \"../openzeppelin/contracts/access/Ownable.sol\";\nimport \"./TeemoPool.sol\";\nimport \"../trade/SwapTrade.sol\";\nimport \"../openzeppelin/contracts/token/ERC20/ERC20.sol\";\n// import \"../interface/ICreator.sol\";\nimport \"./PoolFactory.sol\";\nimport \"./TeemoPool.sol\";\nimport \"../fund/Fund.sol\";\nimport \"../risk/Risk.sol\";\n\ncontract PoolProxy is Ownable {\n    address public poolFactoryAddr;\n\n    constructor(\n        address _poolFactoryAddr\n    ) public {\n        poolFactoryAddr = _poolFactoryAddr;\n    }\n\n    function setPoolFactoryAddr(address _poolFactoryAddr) public {\n        poolFactoryAddr = _poolFactoryAddr;\n    }\n\n    function getAllPoolInfo()\n        public\n        view\n        returns (\n            address[] memory allTeemoPoolAddr,\n            address[] memory allTokenAddr,\n            address[] memory allFundAddr,\n            address[] memory allRiskAddr,\n            address[] memory allSwapTradeAddr,\n            address[] memory allMineAddr,\n            string[] memory allSymbol,\n            uint8[] memory allDecimals\n            //,uint256[] memory allBalanceOf\n        )\n    {\n        uint256 poolLength = PoolFactory(poolFactoryAddr).poolLength();\n        \n        allTeemoPoolAddr = new address[](poolLength);\n        allTokenAddr = new address[](poolLength);\n        allFundAddr = new address[](poolLength);\n        allRiskAddr = new address[](poolLength);\n        allSwapTradeAddr = new address[](poolLength);\n        allMineAddr = new address[](poolLength);\n        allSymbol = new string[](poolLength);\n        allDecimals = new uint8[](poolLength);\n        //allBalanceOf = new uint256[](poolLength);\n\n        for (uint256 i = 0; i < poolLength; i++) {\n            allTeemoPoolAddr[i] = PoolFactory(poolFactoryAddr).allPoolAddr(i);\n            allTokenAddr[i] = TeemoPool(allTeemoPoolAddr[i]).tokenAddr();\n            allFundAddr[i] = TeemoPool(allTeemoPoolAddr[i]).getModuleAddr(\"FUND\");\n            allRiskAddr[i] = TeemoPool(allTeemoPoolAddr[i]).getModuleAddr(\"RISK\");\n            allSwapTradeAddr[i] = TeemoPool(allTeemoPoolAddr[i]).getModuleAddr(\"SWAPTRADE\");\n            allMineAddr[i] = TeemoPool(allTeemoPoolAddr[i]).getModuleAddr(\"MINE\");\n\n            if (allTokenAddr[i] != address(0)) {\n                allSymbol[i] = ERC20(allTokenAddr[i]).symbol();\n                allDecimals[i] = ERC20(allTokenAddr[i]).decimals();\n            } else {\n                allDecimals[i] = 18;\n            }\n            //allBalanceOf[i] = ERC20(allTokenAddr[i]).balanceOf(msg.sender);\n        }\n    }\n\n    function getAllPositionInfo() public view returns(\n        address[] memory allTeemoPoolAddr,\n        uint256[] memory allTotalAmount,\n        uint256[] memory allTotalSupply,\n        uint256[] memory allTotalTokenAmountIn,\n        uint256[] memory allTotalTokenAmountOut,\n        uint256[] memory allTotalTradeP,\n        uint256[] memory allTotalTradeL,\n        uint256[] memory allLongOrderTotalAmount,\n        uint256[] memory allShortOrderTotalAmount,\n        int256[] memory allTotalP,\n        int256[] memory allTotalL\n    ) {\n        uint256 poolLength = PoolFactory(poolFactoryAddr).poolLength();\n        allTeemoPoolAddr = new address[](poolLength);\n        allTotalAmount = new uint256[](poolLength);\n        allTotalSupply = new uint256[](poolLength);\n        allTotalTokenAmountIn = new uint256[](poolLength);\n        allTotalTokenAmountOut = new uint256[](poolLength);\n        allTotalTradeP = new uint256[](poolLength);\n        allTotalTradeL = new uint256[](poolLength);\n        allLongOrderTotalAmount = new uint256[](poolLength);\n        allShortOrderTotalAmount = new uint256[](poolLength);\n        allTotalP = new int256[](poolLength);\n        allTotalL = new int256[](poolLength);\n        for (uint256 i = 0; i < poolLength; i++) {\n            allTeemoPoolAddr[i] = PoolFactory(poolFactoryAddr).allPoolAddr(i);\n            address fundAddr = TeemoPool(allTeemoPoolAddr[i]).getModuleAddr(\"FUND\");\n            allTotalAmount[i] = Fund(fundAddr).totalAmount();\n            allTotalSupply[i] = Fund(fundAddr).totalSupply();\n            allTotalTokenAmountIn[i] = Fund(fundAddr).totalTokenAmountIn();\n            allTotalTokenAmountOut[i] = Fund(fundAddr).totalTokenAmountOut();\n            allTotalTradeP[i] = Fund(fundAddr).totalTradeP();\n            allTotalTradeL[i] = Fund(fundAddr).totalTradeL();\n \n            address riskAddr = TeemoPool(allTeemoPoolAddr[i]).getModuleAddr(\"RISK\");\n            (uint256 longOrderTotalAmount, uint256 shortOrderTotalAmount) = Risk(riskAddr).getTotalOrderTotalAmount();\n            allLongOrderTotalAmount[i] = longOrderTotalAmount;\n            allShortOrderTotalAmount[i] = shortOrderTotalAmount;\n            allTotalP[i] = Risk(riskAddr).getTotalP();\n            allTotalL[i] = Risk(riskAddr).getTotalL();\n        }\n    }\n\n    function getPositionInfo(address teemoPoolAddr) public view returns(\n        uint256 totalAmount,\n        uint256 totalSupply,\n        uint256 totalTokenAmountIn,\n        uint256 totalTokenAmountOut,\n        uint256 totalTradeP,\n        uint256 totalTradeL,\n        uint256 longOrderTotalAmount, \n        uint256 shortOrderTotalAmount,\n        int256  totalP,\n        int256  totalL\n    ) {\n        address fundAddr = TeemoPool(teemoPoolAddr).getModuleAddr(\"FUND\");\n        totalAmount = Fund(fundAddr).totalAmount();\n        totalSupply = Fund(fundAddr).totalSupply();\n        totalTokenAmountIn = Fund(fundAddr).totalTokenAmountIn();\n        totalTokenAmountOut = Fund(fundAddr).totalTokenAmountOut();\n        totalTradeP = Fund(fundAddr).totalTradeP();\n        totalTradeL = Fund(fundAddr).totalTradeL();\n\n        address riskAddr = TeemoPool(teemoPoolAddr).getModuleAddr(\"RISK\");\n        (longOrderTotalAmount, shortOrderTotalAmount) = Risk(riskAddr).getTotalOrderTotalAmount();\n        totalP = Risk(riskAddr).getTotalP();\n        totalL = Risk(riskAddr).getTotalL();\n    }\n\n    function poolLength() public view returns(uint256) {\n        return PoolFactory(poolFactoryAddr).poolLength();\n    }\n\n    // function orderLength(address _teemoPoolAddr, address _userAddress) public view returns (uint256) {\n    //     //TeemoPool(_teemoPoolAddr).swapTradeAddr\n    // }\n\n    function getOrder(address _teemoPoolAddr, bytes32 _orderID)\n        public\n        view\n        returns (\n            address userAddr,\n            string memory symbol,\n            uint256 tokenAmount,\n            uint256 lever,\n            uint256 bsFlag,\n            uint256 openPrice,\n            uint256 openTime,\n            uint256 pLimitPrice,\n            uint256 lLimitPrice,\n            uint256 closePrice,\n            uint256 closeTime\n        )\n    {\n        address swapTradeAddr = TeemoPool(_teemoPoolAddr).getModuleAddr(\"SWAPTRADE\");\n        (userAddr, symbol, tokenAmount, lever, , , , , , , ) = SwapTrade(swapTradeAddr).allOrderHash(_orderID);\n        (, , , , bsFlag, openPrice, openTime, pLimitPrice, , , ) = SwapTrade(swapTradeAddr).allOrderHash(_orderID);\n        (, , , , , , , pLimitPrice, lLimitPrice, closePrice, closeTime) = SwapTrade(swapTradeAddr).allOrderHash(_orderID);\n    }\n\n    function getLimitOrder(address _teemoPoolAddr, bytes32 _orderID)\n        public\n        view\n        returns (\n            address userAddr,\n            string memory symbol,\n            uint256 tokenAmount,\n            uint256 lever,\n            uint256 bsFlag,\n            uint256 openPrice,\n            uint256 openTime,\n            uint256 newPrice,\n            uint256 pLimitPrice,\n            uint256 lLimitPrice,\n            uint256 closeTime,\n            uint256 status\n        ) \n    {\n        //address swapTradeAddr = TeemoPool(_teemoPoolAddr).getModuleAddr(\"SWAPTRADE\");\n        //userAddr, symbol, tokenAmount, lever, bsFlag, openPrice, openTime, newPrice, pLimitPrice, lLimitPrice, closeTime, status\n        //(userAddr, , , , , , , , , , , ) = SwapTrade(swapTradeAddr).allOrderHash(_orderID);\n        // (, , , , bsFlag, openPrice, openTime, pLimitPrice, , , , ) = SwapTrade(swapTradeAddr).allLimitOrderHash(_orderID);\n        // (, , , , , , , , pLimitPrice, lLimitPrice, closeTime, status) = SwapTrade(swapTradeAddr).allLimitOrderHash(_orderID);\n    }\n}\n",
  "sourcePath": "/Users/tong/Projects/drep-project/teemo-private/contracts/pool/PoolProxy.sol",
  "compiler": {
    "name": "solc",
    "version": "0.6.12+commit.27d51765.Emscripten.clang"
  },
  "schemaVersion": "3.3.2",
  "updatedAt": "2021-01-25T05:45:37.342Z",
  "devdoc": {
    "kind": "dev",
    "methods": {
      "owner()": {
        "details": "Returns the address of the current owner."
      },
      "renounceOwnership()": {
        "details": "Leaves the contract without owner. It will not be possible to call `onlyOwner` functions anymore. Can only be called by the current owner. NOTE: Renouncing ownership will leave the contract without an owner, thereby removing any functionality that is only available to the owner."
      },
      "transferOwnership(address)": {
        "details": "Transfers ownership of the contract to a new account (`newOwner`). Can only be called by the current owner."
      }
    },
    "version": 1
  },
  "userdoc": {
    "kind": "user",
    "methods": {},
    "version": 1
  }
}