{
  "contractName": "PoolFactory",
  "abi": [
    {
      "inputs": [
        {
          "internalType": "address",
          "name": "_devAddr",
          "type": "address"
        },
        {
          "internalType": "address",
          "name": "_quoteFactoryAddr",
          "type": "address"
        },
        {
          "internalType": "address",
          "name": "_teemoTokenAddr",
          "type": "address"
        },
        {
          "internalType": "address",
          "name": "_teemoGovTokenAddr",
          "type": "address"
        },
        {
          "internalType": "string[]",
          "name": "_creatorNames",
          "type": "string[]"
        },
        {
          "internalType": "address[]",
          "name": "_creatorAddrs",
          "type": "address[]"
        }
      ],
      "stateMutability": "nonpayable",
      "type": "constructor"
    },
    {
      "anonymous": false,
      "inputs": [
        {
          "indexed": true,
          "internalType": "address",
          "name": "tokenAddr",
          "type": "address"
        },
        {
          "indexed": true,
          "internalType": "address",
          "name": "poolAddr",
          "type": "address"
        }
      ],
      "name": "AddPool",
      "type": "event"
    },
    {
      "anonymous": false,
      "inputs": [
        {
          "indexed": true,
          "internalType": "address",
          "name": "tokenAddr",
          "type": "address"
        },
        {
          "indexed": true,
          "internalType": "address",
          "name": "poolAddr",
          "type": "address"
        },
        {
          "indexed": true,
          "internalType": "address",
          "name": "createAddr",
          "type": "address"
        }
      ],
      "name": "AddPoolModule",
      "type": "event"
    },
    {
      "anonymous": false,
      "inputs": [
        {
          "indexed": true,
          "internalType": "address",
          "name": "previousOwner",
          "type": "address"
        },
        {
          "indexed": true,
          "internalType": "address",
          "name": "newOwner",
          "type": "address"
        }
      ],
      "name": "OwnershipTransferred",
      "type": "event"
    },
    {
      "inputs": [
        {
          "internalType": "string",
          "name": "",
          "type": "string"
        }
      ],
      "name": "allCreatorInfo",
      "outputs": [
        {
          "internalType": "address",
          "name": "",
          "type": "address"
        }
      ],
      "stateMutability": "view",
      "type": "function"
    },
    {
      "inputs": [
        {
          "internalType": "uint256",
          "name": "",
          "type": "uint256"
        }
      ],
      "name": "allPoolAddr",
      "outputs": [
        {
          "internalType": "address",
          "name": "",
          "type": "address"
        }
      ],
      "stateMutability": "view",
      "type": "function"
    },
    {
      "inputs": [
        {
          "internalType": "address",
          "name": "",
          "type": "address"
        }
      ],
      "name": "allPoolIndex",
      "outputs": [
        {
          "internalType": "uint256",
          "name": "",
          "type": "uint256"
        }
      ],
      "stateMutability": "view",
      "type": "function"
    },
    {
      "inputs": [
        {
          "internalType": "address",
          "name": "",
          "type": "address"
        }
      ],
      "name": "allTokenIndex",
      "outputs": [
        {
          "internalType": "uint256",
          "name": "",
          "type": "uint256"
        }
      ],
      "stateMutability": "view",
      "type": "function"
    },
    {
      "inputs": [],
      "name": "bonusRecordAddr",
      "outputs": [
        {
          "internalType": "address",
          "name": "",
          "type": "address"
        }
      ],
      "stateMutability": "view",
      "type": "function"
    },
    {
      "inputs": [],
      "name": "devAddr",
      "outputs": [
        {
          "internalType": "address",
          "name": "",
          "type": "address"
        }
      ],
      "stateMutability": "view",
      "type": "function"
    },
    {
      "inputs": [],
      "name": "emergency",
      "outputs": [
        {
          "internalType": "bool",
          "name": "",
          "type": "bool"
        }
      ],
      "stateMutability": "view",
      "type": "function"
    },
    {
      "inputs": [],
      "name": "owner",
      "outputs": [
        {
          "internalType": "address",
          "name": "",
          "type": "address"
        }
      ],
      "stateMutability": "view",
      "type": "function"
    },
    {
      "inputs": [],
      "name": "projectStatus",
      "outputs": [
        {
          "internalType": "bool",
          "name": "",
          "type": "bool"
        }
      ],
      "stateMutability": "view",
      "type": "function"
    },
    {
      "inputs": [],
      "name": "quoteFactoryAddr",
      "outputs": [
        {
          "internalType": "address",
          "name": "",
          "type": "address"
        }
      ],
      "stateMutability": "view",
      "type": "function"
    },
    {
      "inputs": [],
      "name": "renounceOwnership",
      "outputs": [],
      "stateMutability": "nonpayable",
      "type": "function"
    },
    {
      "inputs": [],
      "name": "teemoGovTokenAddr",
      "outputs": [
        {
          "internalType": "address",
          "name": "",
          "type": "address"
        }
      ],
      "stateMutability": "view",
      "type": "function"
    },
    {
      "inputs": [],
      "name": "teemoTokenAddr",
      "outputs": [
        {
          "internalType": "address",
          "name": "",
          "type": "address"
        }
      ],
      "stateMutability": "view",
      "type": "function"
    },
    {
      "inputs": [
        {
          "internalType": "address",
          "name": "newOwner",
          "type": "address"
        }
      ],
      "name": "transferOwnership",
      "outputs": [],
      "stateMutability": "nonpayable",
      "type": "function"
    },
    {
      "inputs": [],
      "name": "poolLength",
      "outputs": [
        {
          "internalType": "uint256",
          "name": "",
          "type": "uint256"
        }
      ],
      "stateMutability": "view",
      "type": "function"
    },
    {
      "inputs": [
        {
          "internalType": "address",
          "name": "_quoteFactoryAddr",
          "type": "address"
        }
      ],
      "name": "setQuoteFactoryAddr",
      "outputs": [],
      "stateMutability": "nonpayable",
      "type": "function"
    },
    {
      "inputs": [
        {
          "internalType": "address",
          "name": "_teemoTokenAddr",
          "type": "address"
        }
      ],
      "name": "setTeemoTokenAddr",
      "outputs": [],
      "stateMutability": "nonpayable",
      "type": "function"
    },
    {
      "inputs": [
        {
          "internalType": "address",
          "name": "_teemoGovTokenAddr",
          "type": "address"
        }
      ],
      "name": "setTeemoGovTokenAddr",
      "outputs": [],
      "stateMutability": "nonpayable",
      "type": "function"
    },
    {
      "inputs": [
        {
          "internalType": "address",
          "name": "_devAddr",
          "type": "address"
        }
      ],
      "name": "setDevAddr",
      "outputs": [],
      "stateMutability": "nonpayable",
      "type": "function"
    },
    {
      "inputs": [
        {
          "internalType": "string",
          "name": "_creatorName",
          "type": "string"
        },
        {
          "internalType": "address",
          "name": "_creatorAddr",
          "type": "address"
        }
      ],
      "name": "setCreatorInfo",
      "outputs": [],
      "stateMutability": "nonpayable",
      "type": "function"
    },
    {
      "inputs": [
        {
          "internalType": "address",
          "name": "_tokenAddr",
          "type": "address"
        },
        {
          "internalType": "address",
          "name": "_mainnetTokenAddr",
          "type": "address"
        }
      ],
      "name": "addPool",
      "outputs": [
        {
          "internalType": "address",
          "name": "createAddr",
          "type": "address"
        }
      ],
      "stateMutability": "nonpayable",
      "type": "function"
    },
    {
      "inputs": [],
      "name": "addWPool",
      "outputs": [
        {
          "internalType": "address",
          "name": "createAddr",
          "type": "address"
        }
      ],
      "stateMutability": "nonpayable",
      "type": "function"
    },
    {
      "inputs": [
        {
          "internalType": "string",
          "name": "_creatorName",
          "type": "string"
        },
        {
          "internalType": "address",
          "name": "_tokenAddr",
          "type": "address"
        },
        {
          "internalType": "uint256[]",
          "name": "_args",
          "type": "uint256[]"
        }
      ],
      "name": "addPoolModule",
      "outputs": [
        {
          "internalType": "address",
          "name": "createAddr",
          "type": "address"
        }
      ],
      "stateMutability": "nonpayable",
      "type": "function"
    },
    {
      "inputs": [
        {
          "internalType": "uint256",
          "name": "_mintAmount",
          "type": "uint256"
        }
      ],
      "name": "mintToken",
      "outputs": [],
      "stateMutability": "nonpayable",
      "type": "function"
    },
    {
      "inputs": [
        {
          "internalType": "address",
          "name": "_to",
          "type": "address"
        },
        {
          "internalType": "uint256",
          "name": "_amount",
          "type": "uint256"
        }
      ],
      "name": "safeTeemoTransfer",
      "outputs": [],
      "stateMutability": "nonpayable",
      "type": "function"
    },
    {
      "inputs": [
        {
          "internalType": "address",
          "name": "_userAddr",
          "type": "address"
        },
        {
          "internalType": "uint256",
          "name": "_mintAmount",
          "type": "uint256"
        }
      ],
      "name": "mintGovToken",
      "outputs": [],
      "stateMutability": "nonpayable",
      "type": "function"
    },
    {
      "inputs": [
        {
          "internalType": "address",
          "name": "_tokenAddr",
          "type": "address"
        }
      ],
      "name": "getAddr",
      "outputs": [
        {
          "internalType": "address",
          "name": "poolAddr",
          "type": "address"
        }
      ],
      "stateMutability": "view",
      "type": "function"
    },
    {
      "inputs": [
        {
          "internalType": "string",
          "name": "_creatorName",
          "type": "string"
        }
      ],
      "name": "getCreatorAddr",
      "outputs": [
        {
          "internalType": "address",
          "name": "creatorAddr",
          "type": "address"
        }
      ],
      "stateMutability": "view",
      "type": "function"
    },
    {
      "inputs": [
        {
          "internalType": "address",
          "name": "_bonus",
          "type": "address"
        }
      ],
      "name": "setBonusRecord",
      "outputs": [],
      "stateMutability": "nonpayable",
      "type": "function"
    },
    {
      "inputs": [
        {
          "internalType": "uint256",
          "name": "_updateType",
          "type": "uint256"
        },
        {
          "internalType": "address",
          "name": "_user",
          "type": "address"
        },
        {
          "internalType": "uint256",
          "name": "_amount",
          "type": "uint256"
        }
      ],
      "name": "updateBonus",
      "outputs": [],
      "stateMutability": "nonpayable",
      "type": "function"
    },
    {
      "inputs": [
        {
          "internalType": "address",
          "name": "_user",
          "type": "address"
        },
        {
          "internalType": "uint256",
          "name": "_amount",
          "type": "uint256"
        }
      ],
      "name": "mintBonus",
      "outputs": [],
      "stateMutability": "nonpayable",
      "type": "function"
    },
    {
      "inputs": [
        {
          "internalType": "bool",
          "name": "_status",
          "type": "bool"
        }
      ],
      "name": "setStatus",
      "outputs": [],
      "stateMutability": "nonpayable",
      "type": "function"
    },
    {
      "inputs": [],
      "name": "getStatus",
      "outputs": [
        {
          "internalType": "bool",
          "name": "status",
          "type": "bool"
        }
      ],
      "stateMutability": "view",
      "type": "function"
    },
    {
      "inputs": [
        {
          "internalType": "uint256",
          "name": "_validBlocks",
          "type": "uint256"
        }
      ],
      "name": "setValidBlocks",
      "outputs": [],
      "stateMutability": "nonpayable",
      "type": "function"
    },
    {
      "inputs": [
        {
          "internalType": "bool",
          "name": "_emergency",
          "type": "bool"
        }
      ],
      "name": "setEmergency",
      "outputs": [],
      "stateMutability": "nonpayable",
      "type": "function"
    },
    {
      "inputs": [
        {
          "internalType": "address",
          "name": "_poolAddr",
          "type": "address"
        },
        {
          "internalType": "string",
          "name": "_symbol",
          "type": "string"
        },
        {
          "internalType": "bytes32",
          "name": "_orderID",
          "type": "bytes32"
        },
        {
          "internalType": "uint256[]",
          "name": "_price",
          "type": "uint256[]"
        }
      ],
      "name": "setOpenPriceByOwner",
      "outputs": [],
      "stateMutability": "nonpayable",
      "type": "function"
    },
    {
      "inputs": [
        {
          "internalType": "address",
          "name": "_poolAddr",
          "type": "address"
        },
        {
          "internalType": "string",
          "name": "_symbol",
          "type": "string"
        },
        {
          "internalType": "address",
          "name": "_userAddr",
          "type": "address"
        },
        {
          "internalType": "bytes32",
          "name": "_orderID",
          "type": "bytes32"
        },
        {
          "internalType": "uint256[]",
          "name": "_price",
          "type": "uint256[]"
        }
      ],
      "name": "closeMarketByOwner",
      "outputs": [],
      "stateMutability": "nonpayable",
      "type": "function"
    },
    {
      "inputs": [
        {
          "internalType": "address",
          "name": "_poolAddr",
          "type": "address"
        },
        {
          "internalType": "string",
          "name": "_symbol",
          "type": "string"
        },
        {
          "internalType": "bytes32[]",
          "name": "_orderIDs",
          "type": "bytes32[]"
        },
        {
          "internalType": "uint256[]",
          "name": "_price",
          "type": "uint256[]"
        }
      ],
      "name": "tradeLimitSwapsByOwner",
      "outputs": [],
      "stateMutability": "nonpayable",
      "type": "function"
    },
    {
      "inputs": [
        {
          "internalType": "address",
          "name": "_poolAddr",
          "type": "address"
        },
        {
          "internalType": "string",
          "name": "_symbol",
          "type": "string"
        },
        {
          "internalType": "bytes32[]",
          "name": "_orderIDs",
          "type": "bytes32[]"
        },
        {
          "internalType": "uint256[]",
          "name": "_price",
          "type": "uint256[]"
        }
      ],
      "name": "closeLimitSwapsByOwner",
      "outputs": [],
      "stateMutability": "nonpayable",
      "type": "function"
    }
  ],
  "bytecode": "0x60806040523480156200001157600080fd5b50604051620048913803806200489183398181016040528101906200003791906200051c565b6000620000496200029460201b60201c565b9050806000806101000a81548173ffffffffffffffffffffffffffffffffffffffff021916908373ffffffffffffffffffffffffffffffffffffffff1602179055508073ffffffffffffffffffffffffffffffffffffffff16600073ffffffffffffffffffffffffffffffffffffffff167f8be0079c531659141344cd1fd0a4f28419497f9722a3daafe3b4186f6b6457e060405160405180910390a35085600560006101000a81548173ffffffffffffffffffffffffffffffffffffffff021916908373ffffffffffffffffffffffffffffffffffffffff16021790555084600160006101000a81548173ffffffffffffffffffffffffffffffffffffffff021916908373ffffffffffffffffffffffffffffffffffffffff16021790555083600260006101000a81548173ffffffffffffffffffffffffffffffffffffffff021916908373ffffffffffffffffffffffffffffffffffffffff16021790555082600360006101000a81548173ffffffffffffffffffffffffffffffffffffffff021916908373ffffffffffffffffffffffffffffffffffffffff160217905550805182511462000232576040517f08c379a00000000000000000000000000000000000000000000000000000000081526004016200022990620006b8565b60405180910390fd5b60005b82518110156200028757620002798382815181106200025057fe5b60200260200101518383815181106200026557fe5b60200260200101516200029c60201b60201c565b808060010191505062000235565b5050505050505062000854565b600033905090565b620002ac6200029460201b60201c565b73ffffffffffffffffffffffffffffffffffffffff1660008054906101000a900473ffffffffffffffffffffffffffffffffffffffff1673ffffffffffffffffffffffffffffffffffffffff16146200033c576040517f08c379a00000000000000000000000000000000000000000000000000000000081526004016200033390620006da565b60405180910390fd5b806009836040516200034f91906200069f565b908152602001604051809103902060006101000a81548173ffffffffffffffffffffffffffffffffffffffff021916908373ffffffffffffffffffffffffffffffffffffffff1602179055505050565b600081519050620003b0816200083a565b92915050565b600082601f830112620003c857600080fd5b8151620003df620003d9826200072a565b620006fc565b915081818352602084019350602081019050838560208402820111156200040557600080fd5b60005b838110156200043957816200041e88826200039f565b84526020840193506020830192505060018101905062000408565b5050505092915050565b600082601f8301126200045557600080fd5b81516200046c620004668262000753565b620006fc565b9150818183526020840193506020810190508360005b83811015620004b657815186016200049b8882620004c0565b84526020840193506020830192505060018101905062000482565b5050505092915050565b600082601f830112620004d257600080fd5b8151620004e9620004e3826200077c565b620006fc565b915080825260208301602083018583830111156200050657600080fd5b6200051383828462000804565b50505092915050565b60008060008060008060c087890312156200053657600080fd5b60006200054689828a016200039f565b96505060206200055989828a016200039f565b95505060406200056c89828a016200039f565b94505060606200057f89828a016200039f565b935050608087015167ffffffffffffffff8111156200059d57600080fd5b620005ab89828a0162000443565b92505060a087015167ffffffffffffffff811115620005c957600080fd5b620005d789828a01620003b6565b9150509295509295509295565b6000620005f182620007a9565b620005fd8185620007c5565b93506200060f81856020860162000804565b80840191505092915050565b60006200062a601083620007b4565b91507f63726561746f7220696e666f20657272000000000000000000000000000000006000830152602082019050919050565b60006200066c602083620007b4565b91507f4f776e61626c653a2063616c6c6572206973206e6f7420746865206f776e65726000830152602082019050919050565b6000620006ad8284620005e4565b915081905092915050565b60006020820190508181036000830152620006d3816200061b565b9050919050565b60006020820190508181036000830152620006f5816200065d565b9050919050565b6000604051905081810181811067ffffffffffffffff821117156200072057600080fd5b8060405250919050565b600067ffffffffffffffff8211156200074257600080fd5b602082029050602081019050919050565b600067ffffffffffffffff8211156200076b57600080fd5b602082029050602081019050919050565b600067ffffffffffffffff8211156200079457600080fd5b601f19601f8301169050602081019050919050565b600081519050919050565b600082825260208201905092915050565b600081905092915050565b6000620007dd82620007e4565b9050919050565b600073ffffffffffffffffffffffffffffffffffffffff82169050919050565b60005b838110156200082457808201518184015260208101905062000807565b8381111562000834576000848401525b50505050565b6200084581620007d0565b81146200085157600080fd5b50565b61402d80620008646000396000f3fe608060405234801561001057600080fd5b506004361061023d5760003560e01c8063b0a868e91161013b578063d9606461116100b8578063eb511dd41161007c578063eb511dd414610674578063f2303603146106a4578063f2fde38b146106c2578063f5b56406146106de578063fc75a9a6146106fa5761023d565b8063d9606461146105d2578063d9a7c61d146105ee578063da09c72c1461060a578063e6085da714610628578063eadb2bdd146106585761023d565b8063c634d032116100ff578063c634d03214610544578063caa6fea414610560578063cadd36861461057e578063cd049a931461059a578063d688c1b9146105b65761023d565b8063b0a868e91461048a578063b4108a94146104a8578063ba6392c0146104d8578063bcf815dd146104f6578063c623129d146105145761023d565b80635c40f6f4116101c9578063715018a61161018d578063715018a6146103f85780638da5cb5b146104025780639612b0c414610420578063a7fad92f14610450578063afcfb11a1461046c5761023d565b80635c40f6f41461036c5780635cb455411461038857806365f48f63146103a45780636776e893146103c05780636ebb64a2146103dc5761023d565b806324111e2c1161021057806324111e2c146102b657806330e10016146102e65780633cd8f745146103025780634e69d560146103325780634f482954146103505761023d565b80630501d55614610242578063081e3eda1461025e5780630f1570181461027c5780631ab3330814610298575b600080fd5b61025c600480360381019061025791906133c8565b61072a565b005b6102666107dc565b6040516102739190613d62565b60405180910390f35b610296600480360381019061029191906130dd565b6107e9565b005b6102a06108c2565b6040516102ad9190613b83565b60405180910390f35b6102d060048036038101906102cb919061341a565b6108d5565b6040516102dd9190613a48565b60405180910390f35b61030060048036038101906102fb91906130dd565b61091e565b005b61031c6004803603810190610317919061341a565b6109f7565b6040516103299190613a48565b60405180910390f35b61033a610aaf565b6040516103479190613b83565b60405180910390f35b61036a600480360381019061036591906130dd565b610ac6565b005b610386600480360381019061038191906133c8565b610b9f565b005b6103a2600480360381019061039d9190613580565b610c51565b005b6103be60048036038101906103b9919061345b565b610dfc565b005b6103da60048036038101906103d59190613212565b610ef2565b005b6103f660048036038101906103f191906130dd565b611087565b005b610400611160565b005b61040a6112b3565b6040516104179190613a48565b60405180910390f35b61043a6004803603810190610435919061352e565b6112dc565b6040516104479190613a48565b60405180910390f35b61046a6004803603810190610465919061316b565b611318565b005b6104746114b0565b6040516104819190613a48565b60405180910390f35b6104926114d6565b60405161049f9190613a48565b60405180910390f35b6104c260048036038101906104bd91906130dd565b6114fc565b6040516104cf9190613a48565b60405180910390f35b6104e06115ff565b6040516104ed9190613a48565b60405180910390f35b6104fe611625565b60405161050b9190613a48565b60405180910390f35b61052e600480360381019061052991906130dd565b61164b565b60405161053b9190613d62565b60405180910390f35b61055e6004803603810190610559919061352e565b611663565b005b61056861183c565b6040516105759190613b83565b60405180910390f35b610598600480360381019061059391906130dd565b61184f565b005b6105b460048036038101906105af9190613350565b611928565b005b6105d060048036038101906105cb9190613350565b611bcd565b005b6105ec60048036038101906105e791906132bd565b611ce3565b005b61060860048036038101906106039190613350565b611e99565b005b610612611fbc565b60405161061f9190613a48565b60405180910390f35b610642600480360381019061063d91906130dd565b611fe2565b60405161064f9190613d62565b60405180910390f35b610672600480360381019061066d919061352e565b611ffa565b005b61068e6004803603810190610689919061312f565b612152565b60405161069b9190613a48565b60405180910390f35b6106ac6124b8565b6040516106b99190613a48565b60405180910390f35b6106dc60048036038101906106d791906130dd565b612818565b005b6106f860048036038101906106f39190613212565b6129da565b005b610714600480360381019061070f91906134af565b612b6f565b6040516107219190613a48565b60405180910390f35b610732612d98565b73ffffffffffffffffffffffffffffffffffffffff1660008054906101000a900473ffffffffffffffffffffffffffffffffffffffff1673ffffffffffffffffffffffffffffffffffffffff16146107bf576040517f08c379a00000000000000000000000000000000000000000000000000000000081526004016107b690613cc2565b60405180910390fd5b80600a60016101000a81548160ff02191690831515021790555050565b6000600680549050905090565b6107f1612d98565b73ffffffffffffffffffffffffffffffffffffffff1660008054906101000a900473ffffffffffffffffffffffffffffffffffffffff1673ffffffffffffffffffffffffffffffffffffffff161461087e576040517f08c379a000000000000000000000000000000000000000000000000000000000815260040161087590613cc2565b60405180910390fd5b80600460006101000a81548173ffffffffffffffffffffffffffffffffffffffff021916908373ffffffffffffffffffffffffffffffffffffffff16021790555050565b600a60009054906101000a900460ff1681565b6009818051602081018201805184825260208301602085012081835280955050505050506000915054906101000a900473ffffffffffffffffffffffffffffffffffffffff1681565b610926612d98565b73ffffffffffffffffffffffffffffffffffffffff1660008054906101000a900473ffffffffffffffffffffffffffffffffffffffff1673ffffffffffffffffffffffffffffffffffffffff16146109b3576040517f08c379a00000000000000000000000000000000000000000000000000000000081526004016109aa90613cc2565b60405180910390fd5b80600360006101000a81548173ffffffffffffffffffffffffffffffffffffffff021916908373ffffffffffffffffffffffffffffffffffffffff16021790555050565b6000600982604051610a099190613a31565b908152602001604051809103902060009054906101000a900473ffffffffffffffffffffffffffffffffffffffff169050600073ffffffffffffffffffffffffffffffffffffffff168173ffffffffffffffffffffffffffffffffffffffff161415610aaa576040517f08c379a0000000000000000000000000000000000000000000000000000000008152600401610aa190613d02565b60405180910390fd5b919050565b6000600a60009054906101000a900460ff16905090565b610ace612d98565b73ffffffffffffffffffffffffffffffffffffffff1660008054906101000a900473ffffffffffffffffffffffffffffffffffffffff1673ffffffffffffffffffffffffffffffffffffffff1614610b5b576040517f08c379a0000000000000000000000000000000000000000000000000000000008152600401610b5290613cc2565b60405180910390fd5b80600260006101000a81548173ffffffffffffffffffffffffffffffffffffffff021916908373ffffffffffffffffffffffffffffffffffffffff16021790555050565b610ba7612d98565b73ffffffffffffffffffffffffffffffffffffffff1660008054906101000a900473ffffffffffffffffffffffffffffffffffffffff1673ffffffffffffffffffffffffffffffffffffffff1614610c34576040517f08c379a0000000000000000000000000000000000000000000000000000000008152600401610c2b90613cc2565b60405180910390fd5b80600a60006101000a81548160ff02191690831515021790555050565b6000600860003373ffffffffffffffffffffffffffffffffffffffff1673ffffffffffffffffffffffffffffffffffffffff168152602001908152602001600020541415610cd4576040517f08c379a0000000000000000000000000000000000000000000000000000000008152600401610ccb90613ce2565b60405180910390fd5b600073ffffffffffffffffffffffffffffffffffffffff16600460009054906101000a900473ffffffffffffffffffffffffffffffffffffffff1673ffffffffffffffffffffffffffffffffffffffff161415610d66576040517f08c379a0000000000000000000000000000000000000000000000000000000008152600401610d5d90613ca2565b60405180910390fd5b600460009054906101000a900473ffffffffffffffffffffffffffffffffffffffff1673ffffffffffffffffffffffffffffffffffffffff16635cb455418484846040518463ffffffff1660e01b8152600401610dc593929190613d7d565b600060405180830381600087803b158015610ddf57600080fd5b505af1158015610df3573d6000803e3d6000fd5b50505050505050565b610e04612d98565b73ffffffffffffffffffffffffffffffffffffffff1660008054906101000a900473ffffffffffffffffffffffffffffffffffffffff1673ffffffffffffffffffffffffffffffffffffffff1614610e91576040517f08c379a0000000000000000000000000000000000000000000000000000000008152600401610e8890613cc2565b60405180910390fd5b80600983604051610ea29190613a31565b908152602001604051809103902060006101000a81548173ffffffffffffffffffffffffffffffffffffffff021916908373ffffffffffffffffffffffffffffffffffffffff1602179055505050565b610efa612d98565b73ffffffffffffffffffffffffffffffffffffffff1660008054906101000a900473ffffffffffffffffffffffffffffffffffffffff1673ffffffffffffffffffffffffffffffffffffffff1614610f87576040517f08c379a0000000000000000000000000000000000000000000000000000000008152600401610f7e90613cc2565b60405180910390fd5b600160009054906101000a900473ffffffffffffffffffffffffffffffffffffffff1673ffffffffffffffffffffffffffffffffffffffff16633c50bcd784836040518363ffffffff1660e01b8152600401610fe4929190613c0b565b600060405180830381600087803b158015610ffe57600080fd5b505af1158015611012573d6000803e3d6000fd5b505050508373ffffffffffffffffffffffffffffffffffffffff16638edc2e37836040518263ffffffff1660e01b815260040161104f9190613b61565b600060405180830381600087803b15801561106957600080fd5b505af115801561107d573d6000803e3d6000fd5b5050505050505050565b61108f612d98565b73ffffffffffffffffffffffffffffffffffffffff1660008054906101000a900473ffffffffffffffffffffffffffffffffffffffff1673ffffffffffffffffffffffffffffffffffffffff161461111c576040517f08c379a000000000000000000000000000000000000000000000000000000000815260040161111390613cc2565b60405180910390fd5b80600560006101000a81548173ffffffffffffffffffffffffffffffffffffffff021916908373ffffffffffffffffffffffffffffffffffffffff16021790555050565b611168612d98565b73ffffffffffffffffffffffffffffffffffffffff1660008054906101000a900473ffffffffffffffffffffffffffffffffffffffff1673ffffffffffffffffffffffffffffffffffffffff16146111f5576040517f08c379a00000000000000000000000000000000000000000000000000000000081526004016111ec90613cc2565b60405180910390fd5b600073ffffffffffffffffffffffffffffffffffffffff1660008054906101000a900473ffffffffffffffffffffffffffffffffffffffff1673ffffffffffffffffffffffffffffffffffffffff167f8be0079c531659141344cd1fd0a4f28419497f9722a3daafe3b4186f6b6457e060405160405180910390a360008060006101000a81548173ffffffffffffffffffffffffffffffffffffffff021916908373ffffffffffffffffffffffffffffffffffffffff160217905550565b60008060009054906101000a900473ffffffffffffffffffffffffffffffffffffffff16905090565b600681815481106112e957fe5b906000526020600020016000915054906101000a900473ffffffffffffffffffffffffffffffffffffffff1681565b611320612d98565b73ffffffffffffffffffffffffffffffffffffffff1660008054906101000a900473ffffffffffffffffffffffffffffffffffffffff1673ffffffffffffffffffffffffffffffffffffffff16146113ad576040517f08c379a00000000000000000000000000000000000000000000000000000000081526004016113a490613cc2565b60405180910390fd5b600160009054906101000a900473ffffffffffffffffffffffffffffffffffffffff1673ffffffffffffffffffffffffffffffffffffffff16633c50bcd785836040518363ffffffff1660e01b815260040161140a929190613c0b565b600060405180830381600087803b15801561142457600080fd5b505af1158015611438573d6000803e3d6000fd5b505050508473ffffffffffffffffffffffffffffffffffffffff1663252f6adf84846040518363ffffffff1660e01b8152600401611477929190613b0f565b600060405180830381600087803b15801561149157600080fd5b505af11580156114a5573d6000803e3d6000fd5b505050505050505050565b600160009054906101000a900473ffffffffffffffffffffffffffffffffffffffff1681565b600360009054906101000a900473ffffffffffffffffffffffffffffffffffffffff1681565b600060066115536001600760008673ffffffffffffffffffffffffffffffffffffffff1673ffffffffffffffffffffffffffffffffffffffff16815260200190815260200160002054612da090919063ffffffff16565b8154811061155d57fe5b9060005260206000200160009054906101000a900473ffffffffffffffffffffffffffffffffffffffff169050600073ffffffffffffffffffffffffffffffffffffffff168173ffffffffffffffffffffffffffffffffffffffff1614156115fa576040517f08c379a00000000000000000000000000000000000000000000000000000000081526004016115f190613c82565b60405180910390fd5b919050565b600260009054906101000a900473ffffffffffffffffffffffffffffffffffffffff1681565b600460009054906101000a900473ffffffffffffffffffffffffffffffffffffffff1681565b60086020528060005260406000206000915090505481565b6000600860003373ffffffffffffffffffffffffffffffffffffffff1673ffffffffffffffffffffffffffffffffffffffff1681526020019081526020016000205414156116e6576040517f08c379a00000000000000000000000000000000000000000000000000000000081526004016116dd90613ce2565b60405180910390fd5b600260009054906101000a900473ffffffffffffffffffffffffffffffffffffffff1673ffffffffffffffffffffffffffffffffffffffff166340c10f19600560009054906101000a900473ffffffffffffffffffffffffffffffffffffffff1661175b600a85612dea90919063ffffffff16565b6040518363ffffffff1660e01b8152600401611778929190613b38565b600060405180830381600087803b15801561179257600080fd5b505af11580156117a6573d6000803e3d6000fd5b50505050600260009054906101000a900473ffffffffffffffffffffffffffffffffffffffff1673ffffffffffffffffffffffffffffffffffffffff166340c10f1930836040518363ffffffff1660e01b8152600401611807929190613b38565b600060405180830381600087803b15801561182157600080fd5b505af1158015611835573d6000803e3d6000fd5b5050505050565b600a60019054906101000a900460ff1681565b611857612d98565b73ffffffffffffffffffffffffffffffffffffffff1660008054906101000a900473ffffffffffffffffffffffffffffffffffffffff1673ffffffffffffffffffffffffffffffffffffffff16146118e4576040517f08c379a00000000000000000000000000000000000000000000000000000000081526004016118db90613cc2565b60405180910390fd5b80600160006101000a81548173ffffffffffffffffffffffffffffffffffffffff021916908373ffffffffffffffffffffffffffffffffffffffff16021790555050565b6000600860003373ffffffffffffffffffffffffffffffffffffffff1673ffffffffffffffffffffffffffffffffffffffff1681526020019081526020016000205414156119ab576040517f08c379a00000000000000000000000000000000000000000000000000000000081526004016119a290613ce2565b60405180910390fd5b6000600260009054906101000a900473ffffffffffffffffffffffffffffffffffffffff1673ffffffffffffffffffffffffffffffffffffffff166370a08231306040518263ffffffff1660e01b8152600401611a089190613a48565b60206040518083038186803b158015611a2057600080fd5b505afa158015611a34573d6000803e3d6000fd5b505050506040513d601f19601f82011682018060405250810190611a589190613557565b905080821115611b1757600260009054906101000a900473ffffffffffffffffffffffffffffffffffffffff1673ffffffffffffffffffffffffffffffffffffffff1663a9059cbb84836040518363ffffffff1660e01b8152600401611abf929190613b38565b602060405180830381600087803b158015611ad957600080fd5b505af1158015611aed573d6000803e3d6000fd5b505050506040513d601f19601f82011682018060405250810190611b1191906133f1565b50611bc8565b600260009054906101000a900473ffffffffffffffffffffffffffffffffffffffff1673ffffffffffffffffffffffffffffffffffffffff1663a9059cbb84846040518363ffffffff1660e01b8152600401611b74929190613b38565b602060405180830381600087803b158015611b8e57600080fd5b505af1158015611ba2573d6000803e3d6000fd5b505050506040513d601f19601f82011682018060405250810190611bc691906133f1565b505b505050565b6000600860003373ffffffffffffffffffffffffffffffffffffffff1673ffffffffffffffffffffffffffffffffffffffff168152602001908152602001600020541415611c50576040517f08c379a0000000000000000000000000000000000000000000000000000000008152600401611c4790613ce2565b60405180910390fd5b600360009054906101000a900473ffffffffffffffffffffffffffffffffffffffff1673ffffffffffffffffffffffffffffffffffffffff166340c10f1983836040518363ffffffff1660e01b8152600401611cad929190613b38565b600060405180830381600087803b158015611cc757600080fd5b505af1158015611cdb573d6000803e3d6000fd5b505050505050565b611ceb612d98565b73ffffffffffffffffffffffffffffffffffffffff1660008054906101000a900473ffffffffffffffffffffffffffffffffffffffff1673ffffffffffffffffffffffffffffffffffffffff1614611d78576040517f08c379a0000000000000000000000000000000000000000000000000000000008152600401611d6f90613cc2565b60405180910390fd5b600160009054906101000a900473ffffffffffffffffffffffffffffffffffffffff1673ffffffffffffffffffffffffffffffffffffffff16633c50bcd784836040518363ffffffff1660e01b8152600401611dd5929190613c0b565b600060405180830381600087803b158015611def57600080fd5b505af1158015611e03573d6000803e3d6000fd5b505050508373ffffffffffffffffffffffffffffffffffffffff16636f8d2d84836040518263ffffffff1660e01b8152600401611e409190613b9e565b6040805180830381600087803b158015611e5957600080fd5b505af1158015611e6d573d6000803e3d6000fd5b505050506040513d601f19601f82011682018060405250810190611e91919061338c565b505050505050565b600460009054906101000a900473ffffffffffffffffffffffffffffffffffffffff1673ffffffffffffffffffffffffffffffffffffffff163373ffffffffffffffffffffffffffffffffffffffff1614611f29576040517f08c379a0000000000000000000000000000000000000000000000000000000008152600401611f2090613c62565b60405180910390fd5b600260009054906101000a900473ffffffffffffffffffffffffffffffffffffffff1673ffffffffffffffffffffffffffffffffffffffff166340c10f1983836040518363ffffffff1660e01b8152600401611f86929190613b38565b600060405180830381600087803b158015611fa057600080fd5b505af1158015611fb4573d6000803e3d6000fd5b505050505050565b600560009054906101000a900473ffffffffffffffffffffffffffffffffffffffff1681565b60076020528060005260406000206000915090505481565b612002612d98565b73ffffffffffffffffffffffffffffffffffffffff1660008054906101000a900473ffffffffffffffffffffffffffffffffffffffff1673ffffffffffffffffffffffffffffffffffffffff161461208f576040517f08c379a000000000000000000000000000000000000000000000000000000000815260040161208690613cc2565b60405180910390fd5b60005b60068054905081101561214e57600681815481106120ac57fe5b9060005260206000200160009054906101000a900473ffffffffffffffffffffffffffffffffffffffff1673ffffffffffffffffffffffffffffffffffffffff1663eadb2bdd836040518263ffffffff1660e01b815260040161210f9190613d62565b600060405180830381600087803b15801561212957600080fd5b505af115801561213d573d6000803e3d6000fd5b505050508080600101915050612092565b5050565b600061215c612d98565b73ffffffffffffffffffffffffffffffffffffffff1660008054906101000a900473ffffffffffffffffffffffffffffffffffffffff1673ffffffffffffffffffffffffffffffffffffffff16146121e9576040517f08c379a00000000000000000000000000000000000000000000000000000000081526004016121e090613cc2565b60405180910390fd5b6000600760008573ffffffffffffffffffffffffffffffffffffffff1673ffffffffffffffffffffffffffffffffffffffff168152602001908152602001600020541461226b576040517f08c379a000000000000000000000000000000000000000000000000000000000815260040161226290613d22565b60405180910390fd5b60006122ab6040518060400160405280600481526020017f504f4f4c000000000000000000000000000000000000000000000000000000008152506109f7565b90508073ffffffffffffffffffffffffffffffffffffffff1663b8801c49858530600160009054906101000a900473ffffffffffffffffffffffffffffffffffffffff166040518563ffffffff1660e01b815260040161230e9493929190613a8c565b602060405180830381600087803b15801561232857600080fd5b505af115801561233c573d6000803e3d6000fd5b505050506040513d601f19601f820116820180604052508101906123609190613106565b91506006829080600181540180825580915050600190039060005260206000200160009091909190916101000a81548173ffffffffffffffffffffffffffffffffffffffff021916908373ffffffffffffffffffffffffffffffffffffffff160217905550600680549050600860008473ffffffffffffffffffffffffffffffffffffffff1673ffffffffffffffffffffffffffffffffffffffff16815260200190815260200160002081905550600680549050600760008673ffffffffffffffffffffffffffffffffffffffff1673ffffffffffffffffffffffffffffffffffffffff168152602001908152602001600020819055508173ffffffffffffffffffffffffffffffffffffffff168473ffffffffffffffffffffffffffffffffffffffff167f062107fcb2a202af1ba617d851daca9ade2580ccf29e346770119cc10b015f0760405160405180910390a35092915050565b60006124c2612d98565b73ffffffffffffffffffffffffffffffffffffffff1660008054906101000a900473ffffffffffffffffffffffffffffffffffffffff1673ffffffffffffffffffffffffffffffffffffffff161461254f576040517f08c379a000000000000000000000000000000000000000000000000000000000815260040161254690613cc2565b60405180910390fd5b6000600760008073ffffffffffffffffffffffffffffffffffffffff1673ffffffffffffffffffffffffffffffffffffffff16815260200190815260200160002054146125d1576040517f08c379a00000000000000000000000000000000000000000000000000000000081526004016125c890613d42565b60405180910390fd5b60006126116040518060400160405280600581526020017f57504f4f4c0000000000000000000000000000000000000000000000000000008152506109f7565b90508073ffffffffffffffffffffffffffffffffffffffff1663e343361530600160009054906101000a900473ffffffffffffffffffffffffffffffffffffffff166040518363ffffffff1660e01b8152600401612670929190613a63565b602060405180830381600087803b15801561268a57600080fd5b505af115801561269e573d6000803e3d6000fd5b505050506040513d601f19601f820116820180604052508101906126c29190613106565b91506006829080600181540180825580915050600190039060005260206000200160009091909190916101000a81548173ffffffffffffffffffffffffffffffffffffffff021916908373ffffffffffffffffffffffffffffffffffffffff160217905550600680549050600860008473ffffffffffffffffffffffffffffffffffffffff1673ffffffffffffffffffffffffffffffffffffffff16815260200190815260200160002081905550600680549050600760008073ffffffffffffffffffffffffffffffffffffffff1673ffffffffffffffffffffffffffffffffffffffff168152602001908152602001600020819055508173ffffffffffffffffffffffffffffffffffffffff16600073ffffffffffffffffffffffffffffffffffffffff167f062107fcb2a202af1ba617d851daca9ade2580ccf29e346770119cc10b015f0760405160405180910390a35090565b612820612d98565b73ffffffffffffffffffffffffffffffffffffffff1660008054906101000a900473ffffffffffffffffffffffffffffffffffffffff1673ffffffffffffffffffffffffffffffffffffffff16146128ad576040517f08c379a00000000000000000000000000000000000000000000000000000000081526004016128a490613cc2565b60405180910390fd5b600073ffffffffffffffffffffffffffffffffffffffff168173ffffffffffffffffffffffffffffffffffffffff16141561291d576040517f08c379a000000000000000000000000000000000000000000000000000000000815260040161291490613c42565b60405180910390fd5b8073ffffffffffffffffffffffffffffffffffffffff1660008054906101000a900473ffffffffffffffffffffffffffffffffffffffff1673ffffffffffffffffffffffffffffffffffffffff167f8be0079c531659141344cd1fd0a4f28419497f9722a3daafe3b4186f6b6457e060405160405180910390a3806000806101000a81548173ffffffffffffffffffffffffffffffffffffffff021916908373ffffffffffffffffffffffffffffffffffffffff16021790555050565b6129e2612d98565b73ffffffffffffffffffffffffffffffffffffffff1660008054906101000a900473ffffffffffffffffffffffffffffffffffffffff1673ffffffffffffffffffffffffffffffffffffffff1614612a6f576040517f08c379a0000000000000000000000000000000000000000000000000000000008152600401612a6690613cc2565b60405180910390fd5b600160009054906101000a900473ffffffffffffffffffffffffffffffffffffffff1673ffffffffffffffffffffffffffffffffffffffff16633c50bcd784836040518363ffffffff1660e01b8152600401612acc929190613c0b565b600060405180830381600087803b158015612ae657600080fd5b505af1158015612afa573d6000803e3d6000fd5b505050508373ffffffffffffffffffffffffffffffffffffffff166363d24aa7836040518263ffffffff1660e01b8152600401612b379190613b61565b600060405180830381600087803b158015612b5157600080fd5b505af1158015612b65573d6000803e3d6000fd5b5050505050505050565b6000612b79612d98565b73ffffffffffffffffffffffffffffffffffffffff1660008054906101000a900473ffffffffffffffffffffffffffffffffffffffff1673ffffffffffffffffffffffffffffffffffffffff1614612c06576040517f08c379a0000000000000000000000000000000000000000000000000000000008152600401612bfd90613cc2565b60405180910390fd5b6000612c11846114fc565b90506000612c1e866109f7565b90508073ffffffffffffffffffffffffffffffffffffffff16632bfdced78387876040518463ffffffff1660e01b8152600401612c5d93929190613ad1565b602060405180830381600087803b158015612c7757600080fd5b505af1158015612c8b573d6000803e3d6000fd5b505050506040513d601f19601f82011682018060405250810190612caf9190613106565b92508173ffffffffffffffffffffffffffffffffffffffff1663e2d5635987856040518363ffffffff1660e01b8152600401612cec929190613bdb565b600060405180830381600087803b158015612d0657600080fd5b505af1158015612d1a573d6000803e3d6000fd5b505050508273ffffffffffffffffffffffffffffffffffffffff168273ffffffffffffffffffffffffffffffffffffffff168673ffffffffffffffffffffffffffffffffffffffff167f205df0114f1ecc4dd296c9da1efe9992b00abf25d2697c43d4d04a09c325bb0160405160405180910390a450509392505050565b600033905090565b6000612de283836040518060400160405280601e81526020017f536166654d6174683a207375627472616374696f6e206f766572666c6f770000815250612e34565b905092915050565b6000612e2c83836040518060400160405280601a81526020017f536166654d6174683a206469766973696f6e206279207a65726f000000000000815250612e8f565b905092915050565b6000838311158290612e7c576040517f08c379a0000000000000000000000000000000000000000000000000000000008152600401612e739190613bb9565b60405180910390fd5b5060008385039050809150509392505050565b60008083118290612ed6576040517f08c379a0000000000000000000000000000000000000000000000000000000008152600401612ecd9190613bb9565b60405180910390fd5b506000838581612ee257fe5b049050809150509392505050565b600081359050612eff81613f9b565b92915050565b600081519050612f1481613f9b565b92915050565b600082601f830112612f2b57600080fd5b8135612f3e612f3982613de1565b613db4565b91508181835260208401935060208101905083856020840282011115612f6357600080fd5b60005b83811015612f935781612f79888261304a565b845260208401935060208301925050600181019050612f66565b5050505092915050565b600082601f830112612fae57600080fd5b8135612fc1612fbc82613e09565b613db4565b91508181835260208401935060208101905083856020840282011115612fe657600080fd5b60005b838110156130165781612ffc88826130b3565b845260208401935060208301925050600181019050612fe9565b5050505092915050565b60008135905061302f81613fb2565b92915050565b60008151905061304481613fb2565b92915050565b60008135905061305981613fc9565b92915050565b600082601f83011261307057600080fd5b813561308361307e82613e31565b613db4565b9150808252602083016020830185838301111561309f57600080fd5b6130aa838284613f48565b50505092915050565b6000813590506130c281613fe0565b92915050565b6000815190506130d781613fe0565b92915050565b6000602082840312156130ef57600080fd5b60006130fd84828501612ef0565b91505092915050565b60006020828403121561311857600080fd5b600061312684828501612f05565b91505092915050565b6000806040838503121561314257600080fd5b600061315085828601612ef0565b925050602061316185828601612ef0565b9150509250929050565b600080600080600060a0868803121561318357600080fd5b600061319188828901612ef0565b955050602086013567ffffffffffffffff8111156131ae57600080fd5b6131ba8882890161305f565b94505060406131cb88828901612ef0565b93505060606131dc8882890161304a565b925050608086013567ffffffffffffffff8111156131f957600080fd5b61320588828901612f9d565b9150509295509295909350565b6000806000806080858703121561322857600080fd5b600061323687828801612ef0565b945050602085013567ffffffffffffffff81111561325357600080fd5b61325f8782880161305f565b935050604085013567ffffffffffffffff81111561327c57600080fd5b61328887828801612f1a565b925050606085013567ffffffffffffffff8111156132a557600080fd5b6132b187828801612f9d565b91505092959194509250565b600080600080608085870312156132d357600080fd5b60006132e187828801612ef0565b945050602085013567ffffffffffffffff8111156132fe57600080fd5b61330a8782880161305f565b935050604061331b8782880161304a565b925050606085013567ffffffffffffffff81111561333857600080fd5b61334487828801612f9d565b91505092959194509250565b6000806040838503121561336357600080fd5b600061337185828601612ef0565b9250506020613382858286016130b3565b9150509250929050565b6000806040838503121561339f57600080fd5b60006133ad85828601612f05565b92505060206133be858286016130c8565b9150509250929050565b6000602082840312156133da57600080fd5b60006133e884828501613020565b91505092915050565b60006020828403121561340357600080fd5b600061341184828501613035565b91505092915050565b60006020828403121561342c57600080fd5b600082013567ffffffffffffffff81111561344657600080fd5b6134528482850161305f565b91505092915050565b6000806040838503121561346e57600080fd5b600083013567ffffffffffffffff81111561348857600080fd5b6134948582860161305f565b92505060206134a585828601612ef0565b9150509250929050565b6000806000606084860312156134c457600080fd5b600084013567ffffffffffffffff8111156134de57600080fd5b6134ea8682870161305f565b93505060206134fb86828701612ef0565b925050604084013567ffffffffffffffff81111561351857600080fd5b61352486828701612f9d565b9150509250925092565b60006020828403121561354057600080fd5b600061354e848285016130b3565b91505092915050565b60006020828403121561356957600080fd5b6000613577848285016130c8565b91505092915050565b60008060006060848603121561359557600080fd5b60006135a3868287016130b3565b93505060206135b486828701612ef0565b92505060406135c5868287016130b3565b9150509250925092565b60006135db83836136d9565b60208301905092915050565b60006135f38383613a13565b60208301905092915050565b61360881613ef6565b82525050565b600061361982613e7d565b6136238185613eb8565b935061362e83613e5d565b8060005b8381101561365f57815161364688826135cf565b975061365183613e9e565b925050600181019050613632565b5085935050505092915050565b600061367782613e88565b6136818185613ec9565b935061368c83613e6d565b8060005b838110156136bd5781516136a488826135e7565b97506136af83613eab565b925050600181019050613690565b5085935050505092915050565b6136d381613f08565b82525050565b6136e281613f14565b82525050565b6136f181613f14565b82525050565b600061370282613e93565b61370c8185613eda565b935061371c818560208601613f57565b61372581613f8a565b840191505092915050565b600061373b82613e93565b6137458185613eeb565b9350613755818560208601613f57565b80840191505092915050565b600061376e602683613eda565b91507f4f776e61626c653a206e6577206f776e657220697320746865207a65726f206160008301527f64647265737300000000000000000000000000000000000000000000000000006020830152604082019050919050565b60006137d4602b83613eda565b91507f6d696e74426f6e75733a2063616c6c6572206973206e6f742074686520626f6e60008301527f7573207265636f726465720000000000000000000000000000000000000000006020830152604082019050919050565b600061383a601883613eda565b91507f676574416464723a20504f4f4c5f4e4f545f45584953545300000000000000006000830152602082019050919050565b600061387a601d83613eda565b91507f757064617465426f6e75733a207265636f72646572206e6f74207365740000006000830152602082019050919050565b60006138ba602083613eda565b91507f4f776e61626c653a2063616c6c6572206973206e6f7420746865206f776e65726000830152602082019050919050565b60006138fa601f83613eda565b91507f4f776e61626c653a2063616c6c6572206973206e6f742074686520706f6f6c006000830152602082019050919050565b600061393a602283613eda565b91507f67657443726561746f72416464723a2043524541544f525f4e4f545f4558495360008301527f54530000000000000000000000000000000000000000000000000000000000006020830152604082019050919050565b60006139a0601483613eda565b91507f616464506f6f6c3a20504f4f4c5f4558495354530000000000000000000000006000830152602082019050919050565b60006139e0601583613eda565b91507f61646457506f6f6c3a20504f4f4c5f45584953545300000000000000000000006000830152602082019050919050565b613a1c81613f3e565b82525050565b613a2b81613f3e565b82525050565b6000613a3d8284613730565b915081905092915050565b6000602082019050613a5d60008301846135ff565b92915050565b6000604082019050613a7860008301856135ff565b613a8560208301846135ff565b9392505050565b6000608082019050613aa160008301876135ff565b613aae60208301866135ff565b613abb60408301856135ff565b613ac860608301846135ff565b95945050505050565b6000606082019050613ae660008301866135ff565b613af360208301856135ff565b8181036040830152613b05818461366c565b9050949350505050565b6000604082019050613b2460008301856135ff565b613b3160208301846136e8565b9392505050565b6000604082019050613b4d60008301856135ff565b613b5a6020830184613a22565b9392505050565b60006020820190508181036000830152613b7b818461360e565b905092915050565b6000602082019050613b9860008301846136ca565b92915050565b6000602082019050613bb360008301846136e8565b92915050565b60006020820190508181036000830152613bd381846136f7565b905092915050565b60006040820190508181036000830152613bf581856136f7565b9050613c0460208301846135ff565b9392505050565b60006040820190508181036000830152613c2581856136f7565b90508181036020830152613c39818461366c565b90509392505050565b60006020820190508181036000830152613c5b81613761565b9050919050565b60006020820190508181036000830152613c7b816137c7565b9050919050565b60006020820190508181036000830152613c9b8161382d565b9050919050565b60006020820190508181036000830152613cbb8161386d565b9050919050565b60006020820190508181036000830152613cdb816138ad565b9050919050565b60006020820190508181036000830152613cfb816138ed565b9050919050565b60006020820190508181036000830152613d1b8161392d565b9050919050565b60006020820190508181036000830152613d3b81613993565b9050919050565b60006020820190508181036000830152613d5b816139d3565b9050919050565b6000602082019050613d776000830184613a22565b92915050565b6000606082019050613d926000830186613a22565b613d9f60208301856135ff565b613dac6040830184613a22565b949350505050565b6000604051905081810181811067ffffffffffffffff82111715613dd757600080fd5b8060405250919050565b600067ffffffffffffffff821115613df857600080fd5b602082029050602081019050919050565b600067ffffffffffffffff821115613e2057600080fd5b602082029050602081019050919050565b600067ffffffffffffffff821115613e4857600080fd5b601f19601f8301169050602081019050919050565b6000819050602082019050919050565b6000819050602082019050919050565b600081519050919050565b600081519050919050565b600081519050919050565b6000602082019050919050565b6000602082019050919050565b600082825260208201905092915050565b600082825260208201905092915050565b600082825260208201905092915050565b600081905092915050565b6000613f0182613f1e565b9050919050565b60008115159050919050565b6000819050919050565b600073ffffffffffffffffffffffffffffffffffffffff82169050919050565b6000819050919050565b82818337600083830152505050565b60005b83811015613f75578082015181840152602081019050613f5a565b83811115613f84576000848401525b50505050565b6000601f19601f8301169050919050565b613fa481613ef6565b8114613faf57600080fd5b50565b613fbb81613f08565b8114613fc657600080fd5b50565b613fd281613f14565b8114613fdd57600080fd5b50565b613fe981613f3e565b8114613ff457600080fd5b5056fea264697066735822122055e17ae2f2cd9323e68d2869b05a42cf2f82a5a63daf5a2b6b099f862c32911864736f6c634300060c0033",
  "immutableReferences": {},
  "source": "// SPDX-License-Identifier: MIT\n\npragma solidity >=0.6.12;\npragma experimental ABIEncoderV2;\n\nimport \"../openzeppelin/contracts/math/SafeMath.sol\";\nimport \"../openzeppelin/contracts/access/Ownable.sol\";\nimport \"../interface/ICreator.sol\";\nimport \"../interface/ITeemoPool.sol\";\nimport \"../interface/ITeemoToken.sol\";\nimport \"../interface/IBonusRecord.sol\";\nimport \"../interface/IQuoteFactory.sol\";\n\ncontract PoolFactory is Ownable {\n    using SafeMath for uint256;\n\n    event AddPool(address indexed tokenAddr, address indexed poolAddr);\n    event AddPoolModule(address indexed tokenAddr, address indexed poolAddr, address indexed createAddr);\n    \n    address public quoteFactoryAddr;\n    address public teemoTokenAddr;\n    address public teemoGovTokenAddr;\n    address public bonusRecordAddr;\n    address public devAddr;\n    address[] public allPoolAddr;\n    mapping(address => uint256) public allTokenIndex;//tokenaddr =>array index\n    mapping(address => uint256) public allPoolIndex;// pooladdr  =>array index\n    mapping(string => address) public allCreatorInfo;\n\n    // false: test mode, true: production mode\n    bool public projectStatus;\n    bool public emergency;\n\n    constructor(\n        address _devAddr,\n        address _quoteFactoryAddr,\n        address _teemoTokenAddr,\n        address _teemoGovTokenAddr,\n        string[] memory _creatorNames,\n        address[] memory _creatorAddrs\n    ) public {\n        devAddr = _devAddr;\n        quoteFactoryAddr = _quoteFactoryAddr;\n        teemoTokenAddr = _teemoTokenAddr;\n        teemoGovTokenAddr = _teemoGovTokenAddr;\n        require(_creatorNames.length == _creatorAddrs.length, \"creator info err\");\n        for(uint256 i=0;i<_creatorNames.length;i++){\n            setCreatorInfo(_creatorNames[i],_creatorAddrs[i]);\n        }\n    }\n\n    modifier onlyPool() {\n        require(allPoolIndex[msg.sender] != 0, \"Ownable: caller is not the pool\");\n        _;\n    }\n\n    function poolLength() public view returns(uint256) {\n        return allPoolAddr.length;\n    }\n\n    function setQuoteFactoryAddr(address _quoteFactoryAddr) public onlyOwner {\n        quoteFactoryAddr = _quoteFactoryAddr;\n    }\n\n    function setTeemoTokenAddr(address _teemoTokenAddr) public onlyOwner {\n        teemoTokenAddr = _teemoTokenAddr;\n    }\n    \n    function setTeemoGovTokenAddr(address _teemoGovTokenAddr) public onlyOwner {\n        teemoGovTokenAddr = _teemoGovTokenAddr;\n    }\n\n    function setDevAddr(address _devAddr) public onlyOwner {\n        devAddr = _devAddr;\n    }\n\n    function setCreatorInfo(string memory _creatorName,address _creatorAddr) public onlyOwner {\n        allCreatorInfo[_creatorName] = _creatorAddr;\n    }\n\n    function addPool(address _tokenAddr, address _mainnetTokenAddr) public onlyOwner returns (address createAddr){\n        require(allTokenIndex[_tokenAddr] == 0, \"addPool: POOL_EXISTS\");\n        address creatorAddr = getCreatorAddr(\"POOL\");\n        createAddr = IPoolCreator(creatorAddr).createPool(_tokenAddr,_mainnetTokenAddr,address(this),quoteFactoryAddr);\n        allPoolAddr.push(createAddr);\n        allPoolIndex[createAddr] = allPoolAddr.length;\n        allTokenIndex[_tokenAddr] = allPoolAddr.length;\n        emit AddPool(_tokenAddr, createAddr);\n    }\n\n    function addWPool() public onlyOwner returns (address createAddr){\n        require(allTokenIndex[address(0)] == 0, \"addWPool: POOL_EXISTS\");\n        address creatorAddr = getCreatorAddr(\"WPOOL\");\n        createAddr = IWPoolCreator(creatorAddr).createPool(address(this),quoteFactoryAddr);\n        allPoolAddr.push(createAddr);\n        allPoolIndex[createAddr] = allPoolAddr.length;\n        allTokenIndex[address(0)] = allPoolAddr.length;\n        emit AddPool(address(0), createAddr);\n    }\n\n    function addPoolModule(string memory _creatorName,address _tokenAddr,uint256[] memory _args) public onlyOwner returns (address createAddr) {\n        address poolAddr = getAddr(_tokenAddr);\n        address creatorAddr = getCreatorAddr(_creatorName);\n        createAddr = ICreator(creatorAddr).create(poolAddr,_tokenAddr,_args);\n        ITeemoPool(poolAddr).setModuleAddr(_creatorName,createAddr);\n        emit AddPoolModule(_tokenAddr, poolAddr, createAddr);\n    }\n\n    function mintToken(uint256 _mintAmount) public onlyPool {\n        ITeemoToken(teemoTokenAddr).mint(devAddr, _mintAmount.div(10));\n        ITeemoToken(teemoTokenAddr).mint(address(this), _mintAmount);\n    }\n\n    function safeTeemoTransfer(address _to, uint256 _amount) public onlyPool {\n        uint256 teemoBal = ITeemoToken(teemoTokenAddr).balanceOf(address(this));\n        if (_amount > teemoBal) {\n            ITeemoToken(teemoTokenAddr).transfer(_to, teemoBal);\n        } else {\n            ITeemoToken(teemoTokenAddr).transfer(_to, _amount);\n        }\n    }\n\n    function mintGovToken(address _userAddr, uint256 _mintAmount) public onlyPool {\n        ITeemoToken(teemoGovTokenAddr).mint(_userAddr, _mintAmount);\n    }\n\n    function getAddr(address _tokenAddr) public view returns (address poolAddr){\n        poolAddr = allPoolAddr[allTokenIndex[_tokenAddr].sub(1)];\n        require(poolAddr != address(0), \"getAddr: POOL_NOT_EXISTS\");\n    }\n    function getCreatorAddr(string memory _creatorName) public view returns (address creatorAddr){\n        creatorAddr = allCreatorInfo[_creatorName];\n        require(creatorAddr != address(0), \"getCreatorAddr: CREATOR_NOT_EXISTS\");\n    }\n\n    function setBonusRecord(address _bonus) public onlyOwner {\n        bonusRecordAddr = _bonus;\n    }\n\n    function updateBonus(uint256 _updateType, address _user, uint256 _amount) public  onlyPool {\n        require(bonusRecordAddr != address(0), \"updateBonus: recorder not set\");\n        IBonusRecord(bonusRecordAddr).updateBonus(_updateType, _user, _amount);\n    }\n\n    function mintBonus(address _user, uint256 _amount) public {\n        require(msg.sender == bonusRecordAddr ,\"mintBonus: caller is not the bonus recorder\");\n        ITeemoToken(teemoTokenAddr).mint(_user, _amount);\n    }    \n\n    function setStatus(bool _status) public onlyOwner {\n        projectStatus = _status;\n    }\n\n    function getStatus() public view returns (bool status) {\n        status = projectStatus;\n    }\n\n    function setValidBlocks(uint256 _validBlocks) public onlyOwner {\n        for(uint256 i = 0; i < allPoolAddr.length; i++) {\n            ITeemoPool(allPoolAddr[i]).setValidBlocks(_validBlocks);\n        }\n    }\n    \n    function setEmergency(bool _emergency) public onlyOwner {\n        emergency = _emergency;\n    }\n\n    // \n    function setOpenPriceByOwner(address _poolAddr, string memory _symbol, bytes32 _orderID, uint256[] memory _price) public onlyOwner {\n        IQuoteFactory(quoteFactoryAddr).addPrice(_symbol, _price);\n        ITeemoPool(_poolAddr).setOpenPrice(_orderID);\n    }\n\n    // \n    function closeMarketByOwner(address _poolAddr, string memory _symbol, address _userAddr, bytes32 _orderID, uint256[] memory _price) public onlyOwner {\n        IQuoteFactory(quoteFactoryAddr).addPrice(_symbol, _price);\n        ITeemoPool(_poolAddr).closeMarketByOwner(_userAddr, _orderID);\n    }\n\n    // \n    function tradeLimitSwapsByOwner(address _poolAddr, string memory _symbol, bytes32[] memory _orderIDs, uint256[] memory _price) public onlyOwner {\n        IQuoteFactory(quoteFactoryAddr).addPrice(_symbol, _price);\n        ITeemoPool(_poolAddr).tradeLimitSwaps(_orderIDs);\n    }\n\n    // ()\n    function closeLimitSwapsByOwner(address _poolAddr, string memory _symbol, bytes32[] memory _orderIDs, uint256[] memory _price) public onlyOwner {\n        IQuoteFactory(quoteFactoryAddr).addPrice(_symbol, _price);\n        ITeemoPool(_poolAddr).closeLimitSwaps(_orderIDs);\n    }\n\n}\n",
  "sourcePath": "/Users/tong/Projects/drep-project/teemo-private/contracts/pool/PoolFactory.sol",
  "compiler": {
    "name": "solc",
    "version": "0.6.12+commit.27d51765.Emscripten.clang"
  },
  "schemaVersion": "3.3.2",
  "updatedAt": "2021-01-20T10:30:15.210Z",
  "devdoc": {
    "kind": "dev",
    "methods": {
      "owner()": {
        "details": "Returns the address of the current owner."
      },
      "renounceOwnership()": {
        "details": "Leaves the contract without owner. It will not be possible to call `onlyOwner` functions anymore. Can only be called by the current owner. NOTE: Renouncing ownership will leave the contract without an owner, thereby removing any functionality that is only available to the owner."
      },
      "transferOwnership(address)": {
        "details": "Transfers ownership of the contract to a new account (`newOwner`). Can only be called by the current owner."
      }
    },
    "version": 1
  },
  "userdoc": {
    "kind": "user",
    "methods": {},
    "version": 1
  }
}