{
  "contractName": "PoolProxy",
  "abi": [
    {
      "inputs": [
        {
          "internalType": "address",
          "name": "_poolFactoryAddr",
          "type": "address"
        }
      ],
      "stateMutability": "nonpayable",
      "type": "constructor"
    },
    {
      "anonymous": false,
      "inputs": [
        {
          "indexed": true,
          "internalType": "address",
          "name": "previousOwner",
          "type": "address"
        },
        {
          "indexed": true,
          "internalType": "address",
          "name": "newOwner",
          "type": "address"
        }
      ],
      "name": "OwnershipTransferred",
      "type": "event"
    },
    {
      "inputs": [],
      "name": "owner",
      "outputs": [
        {
          "internalType": "address",
          "name": "",
          "type": "address"
        }
      ],
      "stateMutability": "view",
      "type": "function"
    },
    {
      "inputs": [],
      "name": "poolFactoryAddr",
      "outputs": [
        {
          "internalType": "address",
          "name": "",
          "type": "address"
        }
      ],
      "stateMutability": "view",
      "type": "function"
    },
    {
      "inputs": [],
      "name": "renounceOwnership",
      "outputs": [],
      "stateMutability": "nonpayable",
      "type": "function"
    },
    {
      "inputs": [
        {
          "internalType": "address",
          "name": "newOwner",
          "type": "address"
        }
      ],
      "name": "transferOwnership",
      "outputs": [],
      "stateMutability": "nonpayable",
      "type": "function"
    },
    {
      "inputs": [
        {
          "internalType": "address",
          "name": "_poolFactoryAddr",
          "type": "address"
        }
      ],
      "name": "setPoolFactoryAddr",
      "outputs": [],
      "stateMutability": "nonpayable",
      "type": "function"
    },
    {
      "inputs": [],
      "name": "getAllPoolInfo",
      "outputs": [
        {
          "internalType": "address[]",
          "name": "allTeemoPoolAddr",
          "type": "address[]"
        },
        {
          "internalType": "address[]",
          "name": "allTokenAddr",
          "type": "address[]"
        },
        {
          "internalType": "address[]",
          "name": "allFundAddr",
          "type": "address[]"
        },
        {
          "internalType": "address[]",
          "name": "allRiskAddr",
          "type": "address[]"
        },
        {
          "internalType": "address[]",
          "name": "allSwapTradeAddr",
          "type": "address[]"
        },
        {
          "internalType": "address[]",
          "name": "allMineAddr",
          "type": "address[]"
        },
        {
          "internalType": "string[]",
          "name": "allSymbol",
          "type": "string[]"
        },
        {
          "internalType": "uint8[]",
          "name": "allDecimals",
          "type": "uint8[]"
        }
      ],
      "stateMutability": "view",
      "type": "function"
    },
    {
      "inputs": [],
      "name": "getAllPositionInfo",
      "outputs": [
        {
          "internalType": "address[]",
          "name": "allTeemoPoolAddr",
          "type": "address[]"
        },
        {
          "internalType": "uint256[]",
          "name": "allTotalAmount",
          "type": "uint256[]"
        },
        {
          "internalType": "uint256[]",
          "name": "allTotalSupply",
          "type": "uint256[]"
        },
        {
          "internalType": "uint256[]",
          "name": "allTotalTokenAmountIn",
          "type": "uint256[]"
        },
        {
          "internalType": "uint256[]",
          "name": "allTotalTokenAmountOut",
          "type": "uint256[]"
        },
        {
          "internalType": "uint256[]",
          "name": "allTotalTradeP",
          "type": "uint256[]"
        },
        {
          "internalType": "uint256[]",
          "name": "allTotalTradeL",
          "type": "uint256[]"
        },
        {
          "internalType": "uint256[]",
          "name": "allLongOrderTotalAmount",
          "type": "uint256[]"
        },
        {
          "internalType": "uint256[]",
          "name": "allShortOrderTotalAmount",
          "type": "uint256[]"
        },
        {
          "internalType": "int256[]",
          "name": "allTotalP",
          "type": "int256[]"
        },
        {
          "internalType": "int256[]",
          "name": "allTotalL",
          "type": "int256[]"
        }
      ],
      "stateMutability": "view",
      "type": "function"
    },
    {
      "inputs": [
        {
          "internalType": "address",
          "name": "teemoPoolAddr",
          "type": "address"
        }
      ],
      "name": "getPositionInfo",
      "outputs": [
        {
          "internalType": "uint256",
          "name": "totalAmount",
          "type": "uint256"
        },
        {
          "internalType": "uint256",
          "name": "totalSupply",
          "type": "uint256"
        },
        {
          "internalType": "uint256",
          "name": "totalTokenAmountIn",
          "type": "uint256"
        },
        {
          "internalType": "uint256",
          "name": "totalTokenAmountOut",
          "type": "uint256"
        },
        {
          "internalType": "uint256",
          "name": "totalTradeP",
          "type": "uint256"
        },
        {
          "internalType": "uint256",
          "name": "totalTradeL",
          "type": "uint256"
        },
        {
          "internalType": "uint256",
          "name": "longOrderTotalAmount",
          "type": "uint256"
        },
        {
          "internalType": "uint256",
          "name": "shortOrderTotalAmount",
          "type": "uint256"
        },
        {
          "internalType": "int256",
          "name": "totalP",
          "type": "int256"
        },
        {
          "internalType": "int256",
          "name": "totalL",
          "type": "int256"
        }
      ],
      "stateMutability": "view",
      "type": "function"
    },
    {
      "inputs": [],
      "name": "poolLength",
      "outputs": [
        {
          "internalType": "uint256",
          "name": "",
          "type": "uint256"
        }
      ],
      "stateMutability": "view",
      "type": "function"
    },
    {
      "inputs": [
        {
          "internalType": "address",
          "name": "_teemoPoolAddr",
          "type": "address"
        },
        {
          "internalType": "bytes32",
          "name": "_orderID",
          "type": "bytes32"
        }
      ],
      "name": "getOrder",
      "outputs": [
        {
          "internalType": "address",
          "name": "userAddr",
          "type": "address"
        },
        {
          "internalType": "string",
          "name": "symbol",
          "type": "string"
        },
        {
          "internalType": "uint256",
          "name": "tokenAmount",
          "type": "uint256"
        },
        {
          "internalType": "uint256",
          "name": "lever",
          "type": "uint256"
        },
        {
          "internalType": "uint256",
          "name": "bsFlag",
          "type": "uint256"
        },
        {
          "internalType": "uint256",
          "name": "openPrice",
          "type": "uint256"
        },
        {
          "internalType": "uint256",
          "name": "openTime",
          "type": "uint256"
        },
        {
          "internalType": "uint256",
          "name": "pLimitPrice",
          "type": "uint256"
        },
        {
          "internalType": "uint256",
          "name": "lLimitPrice",
          "type": "uint256"
        },
        {
          "internalType": "uint256",
          "name": "closePrice",
          "type": "uint256"
        },
        {
          "internalType": "uint256",
          "name": "closeTime",
          "type": "uint256"
        }
      ],
      "stateMutability": "view",
      "type": "function"
    },
    {
      "inputs": [
        {
          "internalType": "address",
          "name": "_teemoPoolAddr",
          "type": "address"
        },
        {
          "internalType": "bytes32",
          "name": "_orderID",
          "type": "bytes32"
        }
      ],
      "name": "getLimitOrder",
      "outputs": [
        {
          "internalType": "address",
          "name": "userAddr",
          "type": "address"
        },
        {
          "internalType": "string",
          "name": "symbol",
          "type": "string"
        },
        {
          "internalType": "uint256",
          "name": "tokenAmount",
          "type": "uint256"
        },
        {
          "internalType": "uint256",
          "name": "lever",
          "type": "uint256"
        },
        {
          "internalType": "uint256",
          "name": "bsFlag",
          "type": "uint256"
        },
        {
          "internalType": "uint256",
          "name": "openPrice",
          "type": "uint256"
        },
        {
          "internalType": "uint256",
          "name": "openTime",
          "type": "uint256"
        },
        {
          "internalType": "uint256",
          "name": "newPrice",
          "type": "uint256"
        },
        {
          "internalType": "uint256",
          "name": "pLimitPrice",
          "type": "uint256"
        },
        {
          "internalType": "uint256",
          "name": "lLimitPrice",
          "type": "uint256"
        },
        {
          "internalType": "uint256",
          "name": "closeTime",
          "type": "uint256"
        },
        {
          "internalType": "uint256",
          "name": "status",
          "type": "uint256"
        }
      ],
      "stateMutability": "view",
      "type": "function"
    }
  ],
  "bytecode": "0x60806040523480156200001157600080fd5b506040516200355f3803806200355f83398181016040528101906200003791906200014e565b6000620000496200012f60201b60201c565b9050806000806101000a81548173ffffffffffffffffffffffffffffffffffffffff021916908373ffffffffffffffffffffffffffffffffffffffff1602179055508073ffffffffffffffffffffffffffffffffffffffff16600073ffffffffffffffffffffffffffffffffffffffff167f8be0079c531659141344cd1fd0a4f28419497f9722a3daafe3b4186f6b6457e060405160405180910390a35080600160006101000a81548173ffffffffffffffffffffffffffffffffffffffff021916908373ffffffffffffffffffffffffffffffffffffffff16021790555050620001c8565b600033905090565b6000815190506200014881620001ae565b92915050565b6000602082840312156200016157600080fd5b6000620001718482850162000137565b91505092915050565b600062000187826200018e565b9050919050565b600073ffffffffffffffffffffffffffffffffffffffff82169050919050565b620001b9816200017a565b8114620001c557600080fd5b50565b61338780620001d86000396000f3fe608060405234801561001057600080fd5b50600436106100a95760003560e01c8063715018a611610071578063715018a61461016f57806386f28fc5146101795780638da5cb5b146101b4578063b06b9fbe146101d2578063f2fde38b146101f0578063fbd1d25a1461020c576100a9565b8063081e3eda146100ae5780630c73bda9146100cc5780632a0892e8146100f15780632a706f8e1461010d57806349651b6a14610135575b600080fd5b6100b6610245565b6040516100c39190612fe3565b60405180910390f35b6100d46102ec565b6040516100e8989796959493929190612dda565b60405180910390f35b61010b600480360381019061010691906125cd565b610cfe565b005b610115610d42565b60405161012c9b9a99989796959493929190612e90565b60405180910390f35b61014f600480360381019061014a919061261f565b6118c6565b6040516101669b9a99989796959493929190612c67565b60405180910390f35b610177611bc4565b005b610193600480360381019061018e919061261f565b611d17565b6040516101ab9c9b9a99989796959493929190612d19565b60405180910390f35b6101bc611d3a565b6040516101c99190612c4c565b60405180910390f35b6101da611d63565b6040516101e79190612c4c565b60405180910390f35b61020a600480360381019061020591906125cd565b611d89565b005b610226600480360381019061022191906125cd565b611f4b565b60405161023c9a99989796959493929190612ffe565b60405180910390f35b6000600160009054906101000a900473ffffffffffffffffffffffffffffffffffffffff1673ffffffffffffffffffffffffffffffffffffffff1663081e3eda6040518163ffffffff1660e01b815260040160206040518083038186803b1580156102af57600080fd5b505afa1580156102c3573d6000803e3d6000fd5b505050506040513d601f19601f820116820180604052508101906102e791906127cd565b905090565b6060806060806060806060806000600160009054906101000a900473ffffffffffffffffffffffffffffffffffffffff1673ffffffffffffffffffffffffffffffffffffffff1663081e3eda6040518163ffffffff1660e01b815260040160206040518083038186803b15801561036257600080fd5b505afa158015610376573d6000803e3d6000fd5b505050506040513d601f19601f8201168201806040525081019061039a91906127cd565b90508067ffffffffffffffff811180156103b357600080fd5b506040519080825280602002602001820160405280156103e25781602001602082028036833780820191505090505b5098508067ffffffffffffffff811180156103fc57600080fd5b5060405190808252806020026020018201604052801561042b5781602001602082028036833780820191505090505b5097508067ffffffffffffffff8111801561044557600080fd5b506040519080825280602002602001820160405280156104745781602001602082028036833780820191505090505b5096508067ffffffffffffffff8111801561048e57600080fd5b506040519080825280602002602001820160405280156104bd5781602001602082028036833780820191505090505b5095508067ffffffffffffffff811180156104d757600080fd5b506040519080825280602002602001820160405280156105065781602001602082028036833780820191505090505b5094508067ffffffffffffffff8111801561052057600080fd5b5060405190808252806020026020018201604052801561054f5781602001602082028036833780820191505090505b5093508067ffffffffffffffff8111801561056957600080fd5b5060405190808252806020026020018201604052801561059d57816020015b60608152602001906001900390816105885790505b5092508067ffffffffffffffff811180156105b757600080fd5b506040519080825280602002602001820160405280156105e65781602001602082028036833780820191505090505b50915060005b81811015610cf257600160009054906101000a900473ffffffffffffffffffffffffffffffffffffffff1673ffffffffffffffffffffffffffffffffffffffff16639612b0c4826040518263ffffffff1660e01b815260040161064f9190612fe3565b60206040518083038186803b15801561066757600080fd5b505afa15801561067b573d6000803e3d6000fd5b505050506040513d601f19601f8201168201806040525081019061069f91906125f6565b8a82815181106106ab57fe5b602002602001019073ffffffffffffffffffffffffffffffffffffffff16908173ffffffffffffffffffffffffffffffffffffffff16815250508981815181106106f157fe5b602002602001015173ffffffffffffffffffffffffffffffffffffffff16635fbe4d1d6040518163ffffffff1660e01b815260040160206040518083038186803b15801561073e57600080fd5b505afa158015610752573d6000803e3d6000fd5b505050506040513d601f19601f8201168201806040525081019061077691906125f6565b89828151811061078257fe5b602002602001019073ffffffffffffffffffffffffffffffffffffffff16908173ffffffffffffffffffffffffffffffffffffffff16815250508981815181106107c857fe5b602002602001015173ffffffffffffffffffffffffffffffffffffffff1663682cb9116040518163ffffffff1660e01b815260040160206040518083038186803b15801561081557600080fd5b505afa158015610829573d6000803e3d6000fd5b505050506040513d601f19601f8201168201806040525081019061084d91906125f6565b88828151811061085957fe5b602002602001019073ffffffffffffffffffffffffffffffffffffffff16908173ffffffffffffffffffffffffffffffffffffffff168152505089818151811061089f57fe5b602002602001015173ffffffffffffffffffffffffffffffffffffffff1663f58520396040518163ffffffff1660e01b815260040160206040518083038186803b1580156108ec57600080fd5b505afa158015610900573d6000803e3d6000fd5b505050506040513d601f19601f8201168201806040525081019061092491906125f6565b87828151811061093057fe5b602002602001019073ffffffffffffffffffffffffffffffffffffffff16908173ffffffffffffffffffffffffffffffffffffffff168152505089818151811061097657fe5b602002602001015173ffffffffffffffffffffffffffffffffffffffff1663a16098c06040518163ffffffff1660e01b815260040160206040518083038186803b1580156109c357600080fd5b505afa1580156109d7573d6000803e3d6000fd5b505050506040513d601f19601f820116820180604052508101906109fb91906125f6565b868281518110610a0757fe5b602002602001019073ffffffffffffffffffffffffffffffffffffffff16908173ffffffffffffffffffffffffffffffffffffffff1681525050898181518110610a4d57fe5b602002602001015173ffffffffffffffffffffffffffffffffffffffff1663f28342f76040518163ffffffff1660e01b815260040160206040518083038186803b158015610a9a57600080fd5b505afa158015610aae573d6000803e3d6000fd5b505050506040513d601f19601f82011682018060405250810190610ad291906125f6565b858281518110610ade57fe5b602002602001019073ffffffffffffffffffffffffffffffffffffffff16908173ffffffffffffffffffffffffffffffffffffffff1681525050600073ffffffffffffffffffffffffffffffffffffffff16898281518110610b3c57fe5b602002602001015173ffffffffffffffffffffffffffffffffffffffff1614610cc257888181518110610b6b57fe5b602002602001015173ffffffffffffffffffffffffffffffffffffffff166395d89b416040518163ffffffff1660e01b815260040160006040518083038186803b158015610bb857600080fd5b505afa158015610bcc573d6000803e3d6000fd5b505050506040513d6000823e3d601f19601f82011682018060405250810190610bf5919061278c565b848281518110610c0157fe5b6020026020010181905250888181518110610c1857fe5b602002602001015173ffffffffffffffffffffffffffffffffffffffff1663313ce5676040518163ffffffff1660e01b815260040160206040518083038186803b158015610c6557600080fd5b505afa158015610c79573d6000803e3d6000fd5b505050506040513d601f19601f82011682018060405250810190610c9d9190612832565b838281518110610ca957fe5b602002602001019060ff16908160ff1681525050610ce5565b6012838281518110610cd057fe5b602002602001019060ff16908160ff16815250505b80806001019150506105ec565b50509091929394959697565b80600160006101000a81548173ffffffffffffffffffffffffffffffffffffffff021916908373ffffffffffffffffffffffffffffffffffffffff16021790555050565b60608060608060608060608060608060606000600160009054906101000a900473ffffffffffffffffffffffffffffffffffffffff1673ffffffffffffffffffffffffffffffffffffffff1663081e3eda6040518163ffffffff1660e01b815260040160206040518083038186803b158015610dbd57600080fd5b505afa158015610dd1573d6000803e3d6000fd5b505050506040513d601f19601f82011682018060405250810190610df591906127cd565b90508067ffffffffffffffff81118015610e0e57600080fd5b50604051908082528060200260200182016040528015610e3d5781602001602082028036833780820191505090505b509b508067ffffffffffffffff81118015610e5757600080fd5b50604051908082528060200260200182016040528015610e865781602001602082028036833780820191505090505b509a508067ffffffffffffffff81118015610ea057600080fd5b50604051908082528060200260200182016040528015610ecf5781602001602082028036833780820191505090505b5099508067ffffffffffffffff81118015610ee957600080fd5b50604051908082528060200260200182016040528015610f185781602001602082028036833780820191505090505b5098508067ffffffffffffffff81118015610f3257600080fd5b50604051908082528060200260200182016040528015610f615781602001602082028036833780820191505090505b5097508067ffffffffffffffff81118015610f7b57600080fd5b50604051908082528060200260200182016040528015610faa5781602001602082028036833780820191505090505b5096508067ffffffffffffffff81118015610fc457600080fd5b50604051908082528060200260200182016040528015610ff35781602001602082028036833780820191505090505b5095508067ffffffffffffffff8111801561100d57600080fd5b5060405190808252806020026020018201604052801561103c5781602001602082028036833780820191505090505b5094508067ffffffffffffffff8111801561105657600080fd5b506040519080825280602002602001820160405280156110855781602001602082028036833780820191505090505b5093508067ffffffffffffffff8111801561109f57600080fd5b506040519080825280602002602001820160405280156110ce5781602001602082028036833780820191505090505b5092508067ffffffffffffffff811180156110e857600080fd5b506040519080825280602002602001820160405280156111175781602001602082028036833780820191505090505b50915060005b818110156118b757600160009054906101000a900473ffffffffffffffffffffffffffffffffffffffff1673ffffffffffffffffffffffffffffffffffffffff16639612b0c4826040518263ffffffff1660e01b81526004016111809190612fe3565b60206040518083038186803b15801561119857600080fd5b505afa1580156111ac573d6000803e3d6000fd5b505050506040513d601f19601f820116820180604052508101906111d091906125f6565b8d82815181106111dc57fe5b602002602001019073ffffffffffffffffffffffffffffffffffffffff16908173ffffffffffffffffffffffffffffffffffffffff168152505060008d828151811061122457fe5b602002602001015173ffffffffffffffffffffffffffffffffffffffff1663682cb9116040518163ffffffff1660e01b815260040160206040518083038186803b15801561127157600080fd5b505afa158015611285573d6000803e3d6000fd5b505050506040513d601f19601f820116820180604052508101906112a991906125f6565b90508073ffffffffffffffffffffffffffffffffffffffff16631a39d8ef6040518163ffffffff1660e01b815260040160206040518083038186803b1580156112f157600080fd5b505afa158015611305573d6000803e3d6000fd5b505050506040513d601f19601f8201168201806040525081019061132991906127cd565b8d838151811061133557fe5b6020026020010181815250508073ffffffffffffffffffffffffffffffffffffffff166318160ddd6040518163ffffffff1660e01b815260040160206040518083038186803b15801561138757600080fd5b505afa15801561139b573d6000803e3d6000fd5b505050506040513d601f19601f820116820180604052508101906113bf91906127cd565b8c83815181106113cb57fe5b6020026020010181815250508073ffffffffffffffffffffffffffffffffffffffff16633053f5216040518163ffffffff1660e01b815260040160206040518083038186803b15801561141d57600080fd5b505afa158015611431573d6000803e3d6000fd5b505050506040513d601f19601f8201168201806040525081019061145591906127cd565b8b838151811061146157fe5b6020026020010181815250508073ffffffffffffffffffffffffffffffffffffffff1663acc491c26040518163ffffffff1660e01b815260040160206040518083038186803b1580156114b357600080fd5b505afa1580156114c7573d6000803e3d6000fd5b505050506040513d601f19601f820116820180604052508101906114eb91906127cd565b8a83815181106114f757fe5b6020026020010181815250508073ffffffffffffffffffffffffffffffffffffffff16633246d2c56040518163ffffffff1660e01b815260040160206040518083038186803b15801561154957600080fd5b505afa15801561155d573d6000803e3d6000fd5b505050506040513d601f19601f8201168201806040525081019061158191906127cd565b89838151811061158d57fe5b6020026020010181815250508073ffffffffffffffffffffffffffffffffffffffff1663184f0c826040518163ffffffff1660e01b815260040160206040518083038186803b1580156115df57600080fd5b505afa1580156115f3573d6000803e3d6000fd5b505050506040513d601f19601f8201168201806040525081019061161791906127cd565b88838151811061162357fe5b60200260200101818152505060008e838151811061163d57fe5b602002602001015173ffffffffffffffffffffffffffffffffffffffff1663f58520396040518163ffffffff1660e01b815260040160206040518083038186803b15801561168a57600080fd5b505afa15801561169e573d6000803e3d6000fd5b505050506040513d601f19601f820116820180604052508101906116c291906125f6565b90506000808273ffffffffffffffffffffffffffffffffffffffff1663bc53a2be6040518163ffffffff1660e01b8152600401604080518083038186803b15801561170c57600080fd5b505afa158015611720573d6000803e3d6000fd5b505050506040513d601f19601f8201168201806040525081019061174491906127f6565b91509150818a868151811061175557fe5b6020026020010181815250508089868151811061176e57fe5b6020026020010181815250508273ffffffffffffffffffffffffffffffffffffffff1663f5f9b4656040518163ffffffff1660e01b815260040160206040518083038186803b1580156117c057600080fd5b505afa1580156117d4573d6000803e3d6000fd5b505050506040513d601f19601f820116820180604052508101906117f89190612763565b88868151811061180457fe5b6020026020010181815250508273ffffffffffffffffffffffffffffffffffffffff16638e8185096040518163ffffffff1660e01b815260040160206040518083038186803b15801561185657600080fd5b505afa15801561186a573d6000803e3d6000fd5b505050506040513d601f19601f8201168201806040525081019061188e9190612763565b87868151811061189a57fe5b60200260200101818152505050505050808060010191505061111d565b5050909192939495969798999a565b600060606000806000806000806000806000808d73ffffffffffffffffffffffffffffffffffffffff1663a16098c06040518163ffffffff1660e01b815260040160206040518083038186803b15801561191f57600080fd5b505afa158015611933573d6000803e3d6000fd5b505050506040513d601f19601f8201168201806040525081019061195791906125f6565b90508073ffffffffffffffffffffffffffffffffffffffff166339cbd01f8e6040518263ffffffff1660e01b81526004016119929190612f88565b60006040518083038186803b1580156119aa57600080fd5b505afa1580156119be573d6000803e3d6000fd5b505050506040513d6000823e3d601f19601f820116820180604052508101906119e7919061265b565b90919293949550909192939450909192935090919250909150905050809c50819d50829e50839f50505050508073ffffffffffffffffffffffffffffffffffffffff166339cbd01f8e6040518263ffffffff1660e01b8152600401611a4c9190612f88565b60006040518083038186803b158015611a6457600080fd5b505afa158015611a78573d6000803e3d6000fd5b505050506040513d6000823e3d601f19601f82011682018060405250810190611aa1919061265b565b9091929394959697989950909192939495969798509091929394959697509091929394959650909150905050809850819950829a50839b50505050508073ffffffffffffffffffffffffffffffffffffffff166339cbd01f8e6040518263ffffffff1660e01b8152600401611b169190612f88565b60006040518083038186803b158015611b2e57600080fd5b505afa158015611b42573d6000803e3d6000fd5b505050506040513d6000823e3d601f19601f82011682018060405250810190611b6b919061265b565b909192939495969798995090919293949596979850909192939495969750909192939495965090919293949550909192939450909192935080955081965082975083985050505050509295989b509295989b9093969950565b611bcc6124f3565b73ffffffffffffffffffffffffffffffffffffffff1660008054906101000a900473ffffffffffffffffffffffffffffffffffffffff1673ffffffffffffffffffffffffffffffffffffffff1614611c59576040517f08c379a0000000000000000000000000000000000000000000000000000000008152600401611c5090612fc3565b60405180910390fd5b600073ffffffffffffffffffffffffffffffffffffffff1660008054906101000a900473ffffffffffffffffffffffffffffffffffffffff1673ffffffffffffffffffffffffffffffffffffffff167f8be0079c531659141344cd1fd0a4f28419497f9722a3daafe3b4186f6b6457e060405160405180910390a360008060006101000a81548173ffffffffffffffffffffffffffffffffffffffff021916908373ffffffffffffffffffffffffffffffffffffffff160217905550565b600060606000806000806000806000806000809295989b509295989b509295989b565b60008060009054906101000a900473ffffffffffffffffffffffffffffffffffffffff16905090565b600160009054906101000a900473ffffffffffffffffffffffffffffffffffffffff1681565b611d916124f3565b73ffffffffffffffffffffffffffffffffffffffff1660008054906101000a900473ffffffffffffffffffffffffffffffffffffffff1673ffffffffffffffffffffffffffffffffffffffff1614611e1e576040517f08c379a0000000000000000000000000000000000000000000000000000000008152600401611e1590612fc3565b60405180910390fd5b600073ffffffffffffffffffffffffffffffffffffffff168173ffffffffffffffffffffffffffffffffffffffff161415611e8e576040517f08c379a0000000000000000000000000000000000000000000000000000000008152600401611e8590612fa3565b60405180910390fd5b8073ffffffffffffffffffffffffffffffffffffffff1660008054906101000a900473ffffffffffffffffffffffffffffffffffffffff1673ffffffffffffffffffffffffffffffffffffffff167f8be0079c531659141344cd1fd0a4f28419497f9722a3daafe3b4186f6b6457e060405160405180910390a3806000806101000a81548173ffffffffffffffffffffffffffffffffffffffff021916908373ffffffffffffffffffffffffffffffffffffffff16021790555050565b60008060008060008060008060008060008b73ffffffffffffffffffffffffffffffffffffffff1663682cb9116040518163ffffffff1660e01b815260040160206040518083038186803b158015611fa257600080fd5b505afa158015611fb6573d6000803e3d6000fd5b505050506040513d601f19601f82011682018060405250810190611fda91906125f6565b90508073ffffffffffffffffffffffffffffffffffffffff16631a39d8ef6040518163ffffffff1660e01b815260040160206040518083038186803b15801561202257600080fd5b505afa158015612036573d6000803e3d6000fd5b505050506040513d601f19601f8201168201806040525081019061205a91906127cd565b9a508073ffffffffffffffffffffffffffffffffffffffff166318160ddd6040518163ffffffff1660e01b815260040160206040518083038186803b1580156120a257600080fd5b505afa1580156120b6573d6000803e3d6000fd5b505050506040513d601f19601f820116820180604052508101906120da91906127cd565b99508073ffffffffffffffffffffffffffffffffffffffff16633053f5216040518163ffffffff1660e01b815260040160206040518083038186803b15801561212257600080fd5b505afa158015612136573d6000803e3d6000fd5b505050506040513d601f19601f8201168201806040525081019061215a91906127cd565b98508073ffffffffffffffffffffffffffffffffffffffff1663acc491c26040518163ffffffff1660e01b815260040160206040518083038186803b1580156121a257600080fd5b505afa1580156121b6573d6000803e3d6000fd5b505050506040513d601f19601f820116820180604052508101906121da91906127cd565b97508073ffffffffffffffffffffffffffffffffffffffff16633246d2c56040518163ffffffff1660e01b815260040160206040518083038186803b15801561222257600080fd5b505afa158015612236573d6000803e3d6000fd5b505050506040513d601f19601f8201168201806040525081019061225a91906127cd565b96508073ffffffffffffffffffffffffffffffffffffffff1663184f0c826040518163ffffffff1660e01b815260040160206040518083038186803b1580156122a257600080fd5b505afa1580156122b6573d6000803e3d6000fd5b505050506040513d601f19601f820116820180604052508101906122da91906127cd565b955060008c73ffffffffffffffffffffffffffffffffffffffff1663f58520396040518163ffffffff1660e01b815260040160206040518083038186803b15801561232457600080fd5b505afa158015612338573d6000803e3d6000fd5b505050506040513d601f19601f8201168201806040525081019061235c91906125f6565b90506000808273ffffffffffffffffffffffffffffffffffffffff1663bc53a2be6040518163ffffffff1660e01b8152600401604080518083038186803b1580156123a657600080fd5b505afa1580156123ba573d6000803e3d6000fd5b505050506040513d601f19601f820116820180604052508101906123de91906127f6565b915091508273ffffffffffffffffffffffffffffffffffffffff1663f5f9b4656040518163ffffffff1660e01b815260040160206040518083038186803b15801561242857600080fd5b505afa15801561243c573d6000803e3d6000fd5b505050506040513d601f19601f820116820180604052508101906124609190612763565b95508273ffffffffffffffffffffffffffffffffffffffff16638e8185096040518163ffffffff1660e01b815260040160206040518083038186803b1580156124a857600080fd5b505afa1580156124bc573d6000803e3d6000fd5b505050506040513d601f19601f820116820180604052508101906124e09190612763565b9450505050509193959799509193959799565b600033905090565b60008135905061250a816132de565b92915050565b60008151905061251f816132de565b92915050565b600081359050612534816132f5565b92915050565b6000815190506125498161330c565b92915050565b600082601f83011261256057600080fd5b815161257361256e826130c7565b61309a565b9150808252602083016020830185838301111561258f57600080fd5b61259a83828461329a565b50505092915050565b6000815190506125b281613323565b92915050565b6000815190506125c78161333a565b92915050565b6000602082840312156125df57600080fd5b60006125ed848285016124fb565b91505092915050565b60006020828403121561260857600080fd5b600061261684828501612510565b91505092915050565b6000806040838503121561263257600080fd5b6000612640858286016124fb565b925050602061265185828601612525565b9150509250929050565b60008060008060008060008060008060006101608c8e03121561267d57600080fd5b600061268b8e828f01612510565b9b505060208c015167ffffffffffffffff8111156126a857600080fd5b6126b48e828f0161254f565b9a505060406126c58e828f016125a3565b99505060606126d68e828f016125a3565b98505060806126e78e828f016125a3565b97505060a06126f88e828f016125a3565b96505060c06127098e828f016125a3565b95505060e061271a8e828f016125a3565b94505061010061272c8e828f016125a3565b93505061012061273e8e828f016125a3565b9250506101406127508e828f016125a3565b9150509295989b509295989b9093969950565b60006020828403121561277557600080fd5b60006127838482850161253a565b91505092915050565b60006020828403121561279e57600080fd5b600082015167ffffffffffffffff8111156127b857600080fd5b6127c48482850161254f565b91505092915050565b6000602082840312156127df57600080fd5b60006127ed848285016125a3565b91505092915050565b6000806040838503121561280957600080fd5b6000612817858286016125a3565b9250506020612828858286016125a3565b9150509250929050565b60006020828403121561284457600080fd5b6000612852848285016125b8565b91505092915050565b600061286783836128cf565b60208301905092915050565b600061287f8383612ae9565b60208301905092915050565b60006128978383612b07565b905092915050565b60006128ab8383612c1f565b60208301905092915050565b60006128c38383612c3d565b60208301905092915050565b6128d88161323d565b82525050565b6128e78161323d565b82525050565b60006128f882613143565b61290281856131c6565b935061290d836130f3565b8060005b8381101561293e578151612925888261285b565b975061293083613185565b925050600181019050612911565b5085935050505092915050565b60006129568261314e565b61296081856131d7565b935061296b83613103565b8060005b8381101561299c5781516129838882612873565b975061298e83613192565b92505060018101905061296f565b5085935050505092915050565b60006129b482613159565b6129be81856131e8565b9350836020820285016129d085613113565b8060005b85811015612a0c57848403895281516129ed858261288b565b94506129f88361319f565b925060208a019950506001810190506129d4565b50829750879550505050505092915050565b6000612a2982613164565b612a3381856131f9565b9350612a3e83613123565b8060005b83811015612a6f578151612a56888261289f565b9750612a61836131ac565b925050600181019050612a42565b5085935050505092915050565b6000612a878261316f565b612a91818561320a565b9350612a9c83613133565b8060005b83811015612acd578151612ab488826128b7565b9750612abf836131b9565b925050600181019050612aa0565b5085935050505092915050565b612ae38161324f565b82525050565b612af281613259565b82525050565b612b0181613259565b82525050565b6000612b128261317a565b612b1c818561321b565b9350612b2c81856020860161329a565b612b35816132cd565b840191505092915050565b6000612b4b8261317a565b612b55818561322c565b9350612b6581856020860161329a565b612b6e816132cd565b840191505092915050565b6000612b8660268361322c565b91507f4f776e61626c653a206e6577206f776e657220697320746865207a65726f206160008301527f64647265737300000000000000000000000000000000000000000000000000006020830152604082019050919050565b6000612bec60208361322c565b91507f4f776e61626c653a2063616c6c6572206973206e6f7420746865206f776e65726000830152602082019050919050565b612c2881613283565b82525050565b612c3781613283565b82525050565b612c468161328d565b82525050565b6000602082019050612c6160008301846128de565b92915050565b600061016082019050612c7d600083018e6128de565b8181036020830152612c8f818d612b40565b9050612c9e604083018c612c2e565b612cab606083018b612c2e565b612cb8608083018a612c2e565b612cc560a0830189612c2e565b612cd260c0830188612c2e565b612cdf60e0830187612c2e565b612ced610100830186612c2e565b612cfb610120830185612c2e565b612d09610140830184612c2e565b9c9b505050505050505050505050565b600061018082019050612d2f600083018f6128de565b8181036020830152612d41818e612b40565b9050612d50604083018d612c2e565b612d5d606083018c612c2e565b612d6a608083018b612c2e565b612d7760a083018a612c2e565b612d8460c0830189612c2e565b612d9160e0830188612c2e565b612d9f610100830187612c2e565b612dad610120830186612c2e565b612dbb610140830185612c2e565b612dc9610160830184612c2e565b9d9c50505050505050505050505050565b6000610100820190508181036000830152612df5818b6128ed565b90508181036020830152612e09818a6128ed565b90508181036040830152612e1d81896128ed565b90508181036060830152612e3181886128ed565b90508181036080830152612e4581876128ed565b905081810360a0830152612e5981866128ed565b905081810360c0830152612e6d81856129a9565b905081810360e0830152612e818184612a7c565b90509998505050505050505050565b6000610160820190508181036000830152612eab818e6128ed565b90508181036020830152612ebf818d612a1e565b90508181036040830152612ed3818c612a1e565b90508181036060830152612ee7818b612a1e565b90508181036080830152612efb818a612a1e565b905081810360a0830152612f0f8189612a1e565b905081810360c0830152612f238188612a1e565b905081810360e0830152612f378187612a1e565b9050818103610100830152612f4c8186612a1e565b9050818103610120830152612f61818561294b565b9050818103610140830152612f76818461294b565b90509c9b505050505050505050505050565b6000602082019050612f9d6000830184612ada565b92915050565b60006020820190508181036000830152612fbc81612b79565b9050919050565b60006020820190508181036000830152612fdc81612bdf565b9050919050565b6000602082019050612ff86000830184612c2e565b92915050565b600061014082019050613014600083018d612c2e565b613021602083018c612c2e565b61302e604083018b612c2e565b61303b606083018a612c2e565b6130486080830189612c2e565b61305560a0830188612c2e565b61306260c0830187612c2e565b61306f60e0830186612c2e565b61307d610100830185612af8565b61308b610120830184612af8565b9b9a5050505050505050505050565b6000604051905081810181811067ffffffffffffffff821117156130bd57600080fd5b8060405250919050565b600067ffffffffffffffff8211156130de57600080fd5b601f19601f8301169050602081019050919050565b6000819050602082019050919050565b6000819050602082019050919050565b6000819050602082019050919050565b6000819050602082019050919050565b6000819050602082019050919050565b600081519050919050565b600081519050919050565b600081519050919050565b600081519050919050565b600081519050919050565b600081519050919050565b6000602082019050919050565b6000602082019050919050565b6000602082019050919050565b6000602082019050919050565b6000602082019050919050565b600082825260208201905092915050565b600082825260208201905092915050565b600082825260208201905092915050565b600082825260208201905092915050565b600082825260208201905092915050565b600082825260208201905092915050565b600082825260208201905092915050565b600061324882613263565b9050919050565b6000819050919050565b6000819050919050565b600073ffffffffffffffffffffffffffffffffffffffff82169050919050565b6000819050919050565b600060ff82169050919050565b60005b838110156132b857808201518184015260208101905061329d565b838111156132c7576000848401525b50505050565b6000601f19601f8301169050919050565b6132e78161323d565b81146132f257600080fd5b50565b6132fe8161324f565b811461330957600080fd5b50565b61331581613259565b811461332057600080fd5b50565b61332c81613283565b811461333757600080fd5b50565b6133438161328d565b811461334e57600080fd5b5056fea2646970667358221220d25308f9594425e1fae32ad656251088860d4e67d9bca1c10f0e32b8f158e97964736f6c634300060c0033",
  "immutableReferences": {},
  "source": "// SPDX-License-Identifier: MIT\n\npragma solidity >=0.6.12;\npragma experimental ABIEncoderV2;\n\nimport \"../openzeppelin/contracts/access/Ownable.sol\";\nimport \"./TeemoPool.sol\";\nimport \"../trade/SwapTrade.sol\";\nimport \"../openzeppelin/contracts/token/ERC20/ERC20.sol\";\n// import \"../interface/ICreator.sol\";\nimport \"./PoolFactory.sol\";\nimport \"./TeemoPool.sol\";\nimport \"../fund/Fund.sol\";\nimport \"../risk/Risk.sol\";\n\ncontract PoolProxy is Ownable {\n    address public poolFactoryAddr;\n\n    constructor(\n        address _poolFactoryAddr\n    ) public {\n        poolFactoryAddr = _poolFactoryAddr;\n    }\n\n    function setPoolFactoryAddr(address _poolFactoryAddr) public {\n        poolFactoryAddr = _poolFactoryAddr;\n    }\n\n    function getAllPoolInfo()\n        public\n        view\n        returns (\n            address[] memory allTeemoPoolAddr,\n            address[] memory allTokenAddr,\n            address[] memory allFundAddr,\n            address[] memory allRiskAddr,\n            address[] memory allSwapTradeAddr,\n            address[] memory allMineAddr,\n            string[] memory allSymbol,\n            uint8[] memory allDecimals\n            //,uint256[] memory allBalanceOf\n        )\n    {\n        uint256 poolLength = PoolFactory(poolFactoryAddr).poolLength();\n        \n        allTeemoPoolAddr = new address[](poolLength);\n        allTokenAddr = new address[](poolLength);\n        allFundAddr = new address[](poolLength);\n        allRiskAddr = new address[](poolLength);\n        allSwapTradeAddr = new address[](poolLength);\n        allMineAddr = new address[](poolLength);\n        allSymbol = new string[](poolLength);\n        allDecimals = new uint8[](poolLength);\n        //allBalanceOf = new uint256[](poolLength);\n\n        for (uint256 i = 0; i < poolLength; i++) {\n            allTeemoPoolAddr[i] = PoolFactory(poolFactoryAddr).allPoolAddr(i);\n            allTokenAddr[i] = TeemoPool(allTeemoPoolAddr[i]).tokenAddr();\n            allFundAddr[i] = TeemoPool(allTeemoPoolAddr[i]).fundAddr();\n            allRiskAddr[i] = TeemoPool(allTeemoPoolAddr[i]).riskAddr();\n            allSwapTradeAddr[i] = TeemoPool(allTeemoPoolAddr[i]).swapTradeAddr();\n            allMineAddr[i] = TeemoPool(allTeemoPoolAddr[i]).mineAddr();\n\n            if (allTokenAddr[i] != address(0)) {\n                allSymbol[i] = ERC20(allTokenAddr[i]).symbol();\n                allDecimals[i] = ERC20(allTokenAddr[i]).decimals();\n            } else {\n                allDecimals[i] = 18;\n            }\n            //allBalanceOf[i] = ERC20(allTokenAddr[i]).balanceOf(msg.sender);\n        }\n    }\n\n    function getAllPositionInfo() public view returns(\n        address[] memory allTeemoPoolAddr,\n        uint256[] memory allTotalAmount,\n        uint256[] memory allTotalSupply,\n        uint256[] memory allTotalTokenAmountIn,\n        uint256[] memory allTotalTokenAmountOut,\n        uint256[] memory allTotalTradeP,\n        uint256[] memory allTotalTradeL,\n        uint256[] memory allLongOrderTotalAmount,\n        uint256[] memory allShortOrderTotalAmount,\n        int256[] memory allTotalP,\n        int256[] memory allTotalL\n    ) {\n        uint256 poolLength = PoolFactory(poolFactoryAddr).poolLength();\n        allTeemoPoolAddr = new address[](poolLength);\n        allTotalAmount = new uint256[](poolLength);\n        allTotalSupply = new uint256[](poolLength);\n        allTotalTokenAmountIn = new uint256[](poolLength);\n        allTotalTokenAmountOut = new uint256[](poolLength);\n        allTotalTradeP = new uint256[](poolLength);\n        allTotalTradeL = new uint256[](poolLength);\n        allLongOrderTotalAmount = new uint256[](poolLength);\n        allShortOrderTotalAmount = new uint256[](poolLength);\n        allTotalP = new int256[](poolLength);\n        allTotalL = new int256[](poolLength);\n        for (uint256 i = 0; i < poolLength; i++) {\n            allTeemoPoolAddr[i] = PoolFactory(poolFactoryAddr).allPoolAddr(i);\n            address fundAddr = TeemoPool(allTeemoPoolAddr[i]).fundAddr();\n            allTotalAmount[i] = Fund(fundAddr).totalAmount();\n            allTotalSupply[i] = Fund(fundAddr).totalSupply();\n            allTotalTokenAmountIn[i] = Fund(fundAddr).totalTokenAmountIn();\n            allTotalTokenAmountOut[i] = Fund(fundAddr).totalTokenAmountOut();\n            allTotalTradeP[i] = Fund(fundAddr).totalTradeP();\n            allTotalTradeL[i] = Fund(fundAddr).totalTradeL();\n \n            address riskAddr = TeemoPool(allTeemoPoolAddr[i]).riskAddr();\n            (uint256 longOrderTotalAmount, uint256 shortOrderTotalAmount) = Risk(riskAddr).getTotalOrderTotalAmount();\n            allLongOrderTotalAmount[i] = longOrderTotalAmount;\n            allShortOrderTotalAmount[i] = shortOrderTotalAmount;\n            allTotalP[i] = Risk(riskAddr).getTotalP();\n            allTotalL[i] = Risk(riskAddr).getTotalL();\n        }\n    }\n\n    function getPositionInfo(address teemoPoolAddr) public view returns(\n        uint256 totalAmount,\n        uint256 totalSupply,\n        uint256 totalTokenAmountIn,\n        uint256 totalTokenAmountOut,\n        uint256 totalTradeP,\n        uint256 totalTradeL,\n        uint256 longOrderTotalAmount, \n        uint256 shortOrderTotalAmount,\n        int256  totalP,\n        int256  totalL\n    ) {\n        address fundAddr = TeemoPool(teemoPoolAddr).fundAddr();\n        totalAmount = Fund(fundAddr).totalAmount();\n        totalSupply = Fund(fundAddr).totalSupply();\n        totalTokenAmountIn = Fund(fundAddr).totalTokenAmountIn();\n        totalTokenAmountOut = Fund(fundAddr).totalTokenAmountOut();\n        totalTradeP = Fund(fundAddr).totalTradeP();\n        totalTradeL = Fund(fundAddr).totalTradeL();\n\n        address riskAddr = TeemoPool(teemoPoolAddr).riskAddr();\n        (uint256 longOrderTotalAmount, uint256 shortOrderTotalAmount) = Risk(riskAddr).getTotalOrderTotalAmount();\n        totalP = Risk(riskAddr).getTotalP();\n        totalL = Risk(riskAddr).getTotalL();\n    }\n\n    function poolLength() public view returns(uint256) {\n        return PoolFactory(poolFactoryAddr).poolLength();\n    }\n\n    // function orderLength(address _teemoPoolAddr, address _userAddress) public view returns (uint256) {\n    //     //TeemoPool(_teemoPoolAddr).swapTradeAddr\n    // }\n\n    function getOrder(address _teemoPoolAddr, bytes32 _orderID)\n        public\n        view\n        returns (\n            address userAddr,\n            string memory symbol,\n            uint256 tokenAmount,\n            uint256 lever,\n            uint256 bsFlag,\n            uint256 openPrice,\n            uint256 openTime,\n            uint256 pLimitPrice,\n            uint256 lLimitPrice,\n            uint256 closePrice,\n            uint256 closeTime\n        )\n    {\n        address swapTradeAddr = TeemoPool(_teemoPoolAddr).swapTradeAddr();\n        (userAddr, symbol, tokenAmount, lever, , , , , , , ) = SwapTrade(swapTradeAddr).allOrderHash(_orderID);\n        (, , , , bsFlag, openPrice, openTime, pLimitPrice, , , ) = SwapTrade(swapTradeAddr).allOrderHash(_orderID);\n        (, , , , , , , pLimitPrice, lLimitPrice, closePrice, closeTime) = SwapTrade(swapTradeAddr).allOrderHash(_orderID);\n    }\n\n    function getLimitOrder(address _teemoPoolAddr, bytes32 _orderID)\n        public\n        view\n        returns (\n            address userAddr,\n            string memory symbol,\n            uint256 tokenAmount,\n            uint256 lever,\n            uint256 bsFlag,\n            uint256 openPrice,\n            uint256 openTime,\n            uint256 newPrice,\n            uint256 pLimitPrice,\n            uint256 lLimitPrice,\n            uint256 closeTime,\n            uint256 status\n        ) \n    {\n        //address swapTradeAddr = TeemoPool(_teemoPoolAddr).swapTradeAddr();\n        //userAddr, symbol, tokenAmount, lever, bsFlag, openPrice, openTime, newPrice, pLimitPrice, lLimitPrice, closeTime, status\n        //(userAddr, , , , , , , , , , , ) = SwapTrade(swapTradeAddr).allOrderHash(_orderID);\n        // (, , , , bsFlag, openPrice, openTime, pLimitPrice, , , , ) = SwapTrade(swapTradeAddr).allLimitOrderHash(_orderID);\n        // (, , , , , , , , pLimitPrice, lLimitPrice, closeTime, status) = SwapTrade(swapTradeAddr).allLimitOrderHash(_orderID);\n    }\n}\n",
  "sourcePath": "/Users/tong/Projects/drep-project/teemo-private/contracts/pool/PoolProxy.sol",
  "compiler": {
    "name": "solc",
    "version": "0.6.12+commit.27d51765.Emscripten.clang"
  },
  "schemaVersion": "3.3.2",
  "updatedAt": "2021-01-20T10:30:15.341Z",
  "devdoc": {
    "kind": "dev",
    "methods": {
      "owner()": {
        "details": "Returns the address of the current owner."
      },
      "renounceOwnership()": {
        "details": "Leaves the contract without owner. It will not be possible to call `onlyOwner` functions anymore. Can only be called by the current owner. NOTE: Renouncing ownership will leave the contract without an owner, thereby removing any functionality that is only available to the owner."
      },
      "transferOwnership(address)": {
        "details": "Transfers ownership of the contract to a new account (`newOwner`). Can only be called by the current owner."
      }
    },
    "version": 1
  },
  "userdoc": {
    "kind": "user",
    "methods": {},
    "version": 1
  }
}