{
  "contractName": "QuoteFactory",
  "abi": [
    {
      "inputs": [],
      "stateMutability": "nonpayable",
      "type": "constructor"
    },
    {
      "anonymous": false,
      "inputs": [
        {
          "indexed": true,
          "internalType": "string",
          "name": "symbol",
          "type": "string"
        },
        {
          "indexed": true,
          "internalType": "uint256",
          "name": "newPrice",
          "type": "uint256"
        }
      ],
      "name": "AddPrice",
      "type": "event"
    },
    {
      "anonymous": false,
      "inputs": [
        {
          "indexed": true,
          "internalType": "address",
          "name": "quoteAddr",
          "type": "address"
        }
      ],
      "name": "AddQuote",
      "type": "event"
    },
    {
      "anonymous": false,
      "inputs": [
        {
          "indexed": true,
          "internalType": "string",
          "name": "symbol",
          "type": "string"
        },
        {
          "indexed": true,
          "internalType": "uint256",
          "name": "blockIndex",
          "type": "uint256"
        }
      ],
      "name": "DelPrice",
      "type": "event"
    },
    {
      "anonymous": false,
      "inputs": [
        {
          "indexed": true,
          "internalType": "address",
          "name": "previousOwner",
          "type": "address"
        },
        {
          "indexed": true,
          "internalType": "address",
          "name": "newOwner",
          "type": "address"
        }
      ],
      "name": "OwnershipTransferred",
      "type": "event"
    },
    {
      "inputs": [],
      "name": "owner",
      "outputs": [
        {
          "internalType": "address",
          "name": "",
          "type": "address"
        }
      ],
      "stateMutability": "view",
      "type": "function"
    },
    {
      "inputs": [
        {
          "internalType": "address",
          "name": "",
          "type": "address"
        }
      ],
      "name": "quoter",
      "outputs": [
        {
          "internalType": "bool",
          "name": "",
          "type": "bool"
        }
      ],
      "stateMutability": "view",
      "type": "function"
    },
    {
      "inputs": [],
      "name": "renounceOwnership",
      "outputs": [],
      "stateMutability": "nonpayable",
      "type": "function"
    },
    {
      "inputs": [
        {
          "internalType": "address",
          "name": "newOwner",
          "type": "address"
        }
      ],
      "name": "transferOwnership",
      "outputs": [],
      "stateMutability": "nonpayable",
      "type": "function"
    },
    {
      "inputs": [
        {
          "internalType": "string",
          "name": "_symbol",
          "type": "string"
        }
      ],
      "name": "addQuote",
      "outputs": [
        {
          "internalType": "address",
          "name": "quoteAddr",
          "type": "address"
        }
      ],
      "stateMutability": "nonpayable",
      "type": "function"
    },
    {
      "inputs": [
        {
          "internalType": "string",
          "name": "_symbol",
          "type": "string"
        },
        {
          "internalType": "uint256[]",
          "name": "price",
          "type": "uint256[]"
        }
      ],
      "name": "addPrice",
      "outputs": [
        {
          "internalType": "uint256",
          "name": "newPrice",
          "type": "uint256"
        }
      ],
      "stateMutability": "nonpayable",
      "type": "function"
    },
    {
      "inputs": [
        {
          "internalType": "string",
          "name": "_symbol",
          "type": "string"
        },
        {
          "internalType": "uint256",
          "name": "blockIndex",
          "type": "uint256"
        }
      ],
      "name": "delPrice",
      "outputs": [],
      "stateMutability": "nonpayable",
      "type": "function"
    },
    {
      "inputs": [
        {
          "internalType": "address",
          "name": "_quoter",
          "type": "address"
        }
      ],
      "name": "addQuoter",
      "outputs": [],
      "stateMutability": "nonpayable",
      "type": "function"
    },
    {
      "inputs": [
        {
          "internalType": "address",
          "name": "_quoter",
          "type": "address"
        }
      ],
      "name": "delQuoter",
      "outputs": [],
      "stateMutability": "nonpayable",
      "type": "function"
    },
    {
      "inputs": [
        {
          "internalType": "string",
          "name": "_symbol",
          "type": "string"
        }
      ],
      "name": "getNewPrice",
      "outputs": [
        {
          "internalType": "uint256",
          "name": "blockIndex",
          "type": "uint256"
        },
        {
          "internalType": "uint256",
          "name": "newPrice",
          "type": "uint256"
        },
        {
          "internalType": "uint256",
          "name": "priceTime",
          "type": "uint256"
        }
      ],
      "stateMutability": "view",
      "type": "function"
    },
    {
      "inputs": [
        {
          "internalType": "string",
          "name": "_symbol",
          "type": "string"
        },
        {
          "internalType": "uint256",
          "name": "_blockIndex",
          "type": "uint256"
        }
      ],
      "name": "getLastPrice",
      "outputs": [
        {
          "internalType": "uint256",
          "name": "blockIndex",
          "type": "uint256"
        },
        {
          "internalType": "uint256",
          "name": "newPrice",
          "type": "uint256"
        },
        {
          "internalType": "uint256",
          "name": "priceTime",
          "type": "uint256"
        }
      ],
      "stateMutability": "view",
      "type": "function"
    },
    {
      "inputs": [
        {
          "internalType": "string",
          "name": "_symbol",
          "type": "string"
        }
      ],
      "name": "getAddr",
      "outputs": [
        {
          "internalType": "address",
          "name": "quoteAddr",
          "type": "address"
        }
      ],
      "stateMutability": "view",
      "type": "function"
    },
    {
      "inputs": [],
      "name": "symbolLength",
      "outputs": [
        {
          "internalType": "uint256",
          "name": "",
          "type": "uint256"
        }
      ],
      "stateMutability": "view",
      "type": "function"
    },
    {
      "inputs": [
        {
          "internalType": "uint256",
          "name": "_index",
          "type": "uint256"
        }
      ],
      "name": "getSymbol",
      "outputs": [
        {
          "internalType": "string",
          "name": "",
          "type": "string"
        }
      ],
      "stateMutability": "view",
      "type": "function"
    },
    {
      "inputs": [],
      "name": "symbols",
      "outputs": [
        {
          "internalType": "string[]",
          "name": "",
          "type": "string[]"
        }
      ],
      "stateMutability": "view",
      "type": "function"
    }
  ],
  "bytecode": "0x608060405234801561001057600080fd5b50600061002161011c60201b60201c565b9050806000806101000a81548173ffffffffffffffffffffffffffffffffffffffff021916908373ffffffffffffffffffffffffffffffffffffffff1602179055508073ffffffffffffffffffffffffffffffffffffffff16600073ffffffffffffffffffffffffffffffffffffffff167f8be0079c531659141344cd1fd0a4f28419497f9722a3daafe3b4186f6b6457e060405160405180910390a3506001600360003373ffffffffffffffffffffffffffffffffffffffff1673ffffffffffffffffffffffffffffffffffffffff16815260200190815260200160002060006101000a81548160ff021916908315150217905550610124565b600033905090565b612e7b806101336000396000f3fe60806040523480156200001157600080fd5b50600436106200010c5760003560e01c80638da5cb5b11620000a5578063d502db97116200006f578063d502db9714620002d1578063e8084a871462000307578063f2fde38b146200033f578063fc0fc6db146200035f576200010c565b80638da5cb5b1462000221578063a7da74f81462000243578063d053dd6e1462000263578063d4a06b871462000299576200010c565b80636418413c11620000e75780636418413c1462000189578063715018a614620001bf57806377c3139014620001cb578063849562bd1462000201576200010c565b806307039ff914620001115780632fb5c98814620001335780633c50bcd71462000153575b600080fd5b6200011b62000381565b6040516200012a919062001a51565b60405180910390f35b6200015160048036038101906200014b919062001481565b62000470565b005b6200017160048036038101906200016b9190620014f2565b62000565565b60405162000180919062001b84565b60405180910390f35b620001a76004803603810190620001a19190620015bf565b620006eb565b604051620001b6919062001ab6565b60405180910390f35b620001c9620007a9565b005b620001e96004803603810190620001e3919062001481565b62000901565b604051620001f8919062001a99565b60405180910390f35b6200021f600480360381019062000219919062001565565b62000921565b005b6200022b62000a7f565b6040516200023a919062001a34565b60405180910390f35b6200026160048036038101906200025b919062001481565b62000aa8565b005b6200028160048036038101906200027b9190620014ad565b62000b9d565b60405162000290919062001a34565b60405180910390f35b620002b76004803603810190620002b1919062001565565b62000ea4565b604051620002c89392919062001ba1565b60405180910390f35b620002ef6004803603810190620002e99190620014ad565b62000f5a565b604051620002fe919062001a34565b60405180910390f35b6200032560048036038101906200031f9190620014ad565b62001017565b604051620003369392919062001ba1565b60405180910390f35b6200035d600480360381019062000357919062001481565b620010c0565b005b620003696200128a565b60405162000378919062001b84565b60405180910390f35b60606002805480602002602001604051908101604052809291908181526020016000905b8282101562000467578382906000526020600020018054600181600116156101000203166002900480601f016020809104026020016040519081016040528092919081815260200182805460018160011615610100020316600290048015620004525780601f10620004265761010080835404028352916020019162000452565b820191906000526020600020905b8154815290600101906020018083116200043457829003601f168201915b505050505081526020019060010190620003a5565b50505050905090565b6200047a62001297565b73ffffffffffffffffffffffffffffffffffffffff1660008054906101000a900473ffffffffffffffffffffffffffffffffffffffff1673ffffffffffffffffffffffffffffffffffffffff16146200050a576040517f08c379a0000000000000000000000000000000000000000000000000000000008152600401620005019062001b40565b60405180910390fd5b6000600360008373ffffffffffffffffffffffffffffffffffffffff1673ffffffffffffffffffffffffffffffffffffffff16815260200190815260200160002060006101000a81548160ff02191690831515021790555050565b600060011515600360003373ffffffffffffffffffffffffffffffffffffffff1673ffffffffffffffffffffffffffffffffffffffff16815260200190815260200160002060009054906101000a900460ff16151514620005fd576040517f08c379a0000000000000000000000000000000000000000000000000000000008152600401620005f49062001b62565b60405180910390fd5b60006200060a8462000f5a565b90508073ffffffffffffffffffffffffffffffffffffffff1663f6ed06a4846040518263ffffffff1660e01b815260040162000647919062001a75565b602060405180830381600087803b1580156200066257600080fd5b505af115801562000677573d6000803e3d6000fd5b505050506040513d601f19601f820116820180604052508101906200069d9190620015eb565b91508184604051620006b0919062001a1b565b60405180910390207f23239e357550227dee169e4dc7ea1e83fee2e773c179541e55254b1bd8c89c8360405160405180910390a35092915050565b606060028281548110620006fb57fe5b906000526020600020018054600181600116156101000203166002900480601f0160208091040260200160405190810160405280929190818152602001828054600181600116156101000203166002900480156200079d5780601f1062000771576101008083540402835291602001916200079d565b820191906000526020600020905b8154815290600101906020018083116200077f57829003601f168201915b50505050509050919050565b620007b362001297565b73ffffffffffffffffffffffffffffffffffffffff1660008054906101000a900473ffffffffffffffffffffffffffffffffffffffff1673ffffffffffffffffffffffffffffffffffffffff161462000843576040517f08c379a00000000000000000000000000000000000000000000000000000000081526004016200083a9062001b40565b60405180910390fd5b600073ffffffffffffffffffffffffffffffffffffffff1660008054906101000a900473ffffffffffffffffffffffffffffffffffffffff1673ffffffffffffffffffffffffffffffffffffffff167f8be0079c531659141344cd1fd0a4f28419497f9722a3daafe3b4186f6b6457e060405160405180910390a360008060006101000a81548173ffffffffffffffffffffffffffffffffffffffff021916908373ffffffffffffffffffffffffffffffffffffffff160217905550565b60036020528060005260406000206000915054906101000a900460ff1681565b60011515600360003373ffffffffffffffffffffffffffffffffffffffff1673ffffffffffffffffffffffffffffffffffffffff16815260200190815260200160002060009054906101000a900460ff16151514620009b7576040517f08c379a0000000000000000000000000000000000000000000000000000000008152600401620009ae9062001b62565b60405180910390fd5b6000620009c48362000f5a565b90508073ffffffffffffffffffffffffffffffffffffffff1663aecaa316836040518263ffffffff1660e01b815260040162000a01919062001b84565b600060405180830381600087803b15801562000a1c57600080fd5b505af115801562000a31573d6000803e3d6000fd5b50505050818360405162000a46919062001a1b565b60405180910390207fbd5fbdde228050934cb50cbee0dd68a95f2a21c04959d430e30c3be3b236730d60405160405180910390a3505050565b60008060009054906101000a900473ffffffffffffffffffffffffffffffffffffffff16905090565b62000ab262001297565b73ffffffffffffffffffffffffffffffffffffffff1660008054906101000a900473ffffffffffffffffffffffffffffffffffffffff1673ffffffffffffffffffffffffffffffffffffffff161462000b42576040517f08c379a000000000000000000000000000000000000000000000000000000000815260040162000b399062001b40565b60405180910390fd5b6001600360008373ffffffffffffffffffffffffffffffffffffffff1673ffffffffffffffffffffffffffffffffffffffff16815260200190815260200160002060006101000a81548160ff02191690831515021790555050565b600062000ba962001297565b73ffffffffffffffffffffffffffffffffffffffff1660008054906101000a900473ffffffffffffffffffffffffffffffffffffffff1673ffffffffffffffffffffffffffffffffffffffff161462000c39576040517f08c379a000000000000000000000000000000000000000000000000000000000815260040162000c309062001b40565b60405180910390fd5b600073ffffffffffffffffffffffffffffffffffffffff1660018360405162000c63919062001a1b565b908152602001604051809103902060009054906101000a900473ffffffffffffffffffffffffffffffffffffffff1673ffffffffffffffffffffffffffffffffffffffff161462000ceb576040517f08c379a000000000000000000000000000000000000000000000000000000000815260040162000ce29062001b1e565b60405180910390fd5b60606040518060200162000cff906200129f565b6020820181038252601f19601f82011660405250905060008360405160200162000d2a919062001a1b565b604051602081830303815290604052805190602001209050808251602084016000f592508273ffffffffffffffffffffffffffffffffffffffff1663f62d1888856040518263ffffffff1660e01b815260040162000d89919062001ab6565b600060405180830381600087803b15801562000da457600080fd5b505af115801562000db9573d6000803e3d6000fd5b505050508260018560405162000dd0919062001a1b565b908152602001604051809103902060006101000a81548173ffffffffffffffffffffffffffffffffffffffff021916908373ffffffffffffffffffffffffffffffffffffffff16021790555060028490806001815401808255809150506001900390600052602060002001600090919091909150908051906020019062000e59929190620012ad565b508273ffffffffffffffffffffffffffffffffffffffff167f8d8c05992df8d984daec5ec2f26c66798cff86409636b8e53d3b9ecd165b12af60405160405180910390a25050919050565b60008060008062000eb58662000f5a565b90508073ffffffffffffffffffffffffffffffffffffffff166365fa2f7f866040518263ffffffff1660e01b815260040162000ef2919062001b84565b60606040518083038186803b15801562000f0b57600080fd5b505afa15801562000f20573d6000803e3d6000fd5b505050506040513d601f19601f8201168201806040525081019062000f46919062001617565b809450819550829650505050509250925092565b600060018260405162000f6e919062001a1b565b908152602001604051809103902060009054906101000a900473ffffffffffffffffffffffffffffffffffffffff169050600073ffffffffffffffffffffffffffffffffffffffff168173ffffffffffffffffffffffffffffffffffffffff16141562001012576040517f08c379a0000000000000000000000000000000000000000000000000000000008152600401620010099062001afc565b60405180910390fd5b919050565b600080600080620010288562000f5a565b90508073ffffffffffffffffffffffffffffffffffffffff1663a7b08aec6040518163ffffffff1660e01b815260040160606040518083038186803b1580156200107157600080fd5b505afa15801562001086573d6000803e3d6000fd5b505050506040513d601f19601f82011682018060405250810190620010ac919062001617565b809450819550829650505050509193909250565b620010ca62001297565b73ffffffffffffffffffffffffffffffffffffffff1660008054906101000a900473ffffffffffffffffffffffffffffffffffffffff1673ffffffffffffffffffffffffffffffffffffffff16146200115a576040517f08c379a0000000000000000000000000000000000000000000000000000000008152600401620011519062001b40565b60405180910390fd5b600073ffffffffffffffffffffffffffffffffffffffff168173ffffffffffffffffffffffffffffffffffffffff161415620011cd576040517f08c379a0000000000000000000000000000000000000000000000000000000008152600401620011c49062001ada565b60405180910390fd5b8073ffffffffffffffffffffffffffffffffffffffff1660008054906101000a900473ffffffffffffffffffffffffffffffffffffffff1673ffffffffffffffffffffffffffffffffffffffff167f8be0079c531659141344cd1fd0a4f28419497f9722a3daafe3b4186f6b6457e060405160405180910390a3806000806101000a81548173ffffffffffffffffffffffffffffffffffffffff021916908373ffffffffffffffffffffffffffffffffffffffff16021790555050565b6000600280549050905090565b600033905090565b6110658062001de183390190565b828054600181600116156101000203166002900490600052602060002090601f016020900481019282601f10620012f057805160ff191683800117855562001321565b8280016001018555821562001321579182015b828111156200132057825182559160200191906001019062001303565b5b50905062001330919062001334565b5090565b5b808211156200134f57600081600090555060010162001335565b5090565b600081359050620013648162001dac565b92915050565b600082601f8301126200137c57600080fd5b8135620013936200138d8262001c0c565b62001bde565b91508181835260208401935060208101905083856020840282011115620013b957600080fd5b60005b83811015620013ed5781620013d2888262001453565b845260208401935060208301925050600181019050620013bc565b5050505092915050565b600082601f8301126200140957600080fd5b8135620014206200141a8262001c35565b62001bde565b915080825260208301602083018583830111156200143d57600080fd5b6200144a83828462001d56565b50505092915050565b600081359050620014648162001dc6565b92915050565b6000815190506200147b8162001dc6565b92915050565b6000602082840312156200149457600080fd5b6000620014a48482850162001353565b91505092915050565b600060208284031215620014c057600080fd5b600082013567ffffffffffffffff811115620014db57600080fd5b620014e984828501620013f7565b91505092915050565b600080604083850312156200150657600080fd5b600083013567ffffffffffffffff8111156200152157600080fd5b6200152f85828601620013f7565b925050602083013567ffffffffffffffff8111156200154d57600080fd5b6200155b858286016200136a565b9150509250929050565b600080604083850312156200157957600080fd5b600083013567ffffffffffffffff8111156200159457600080fd5b620015a285828601620013f7565b9250506020620015b58582860162001453565b9150509250929050565b600060208284031215620015d257600080fd5b6000620015e28482850162001453565b91505092915050565b600060208284031215620015fe57600080fd5b60006200160e848285016200146a565b91505092915050565b6000806000606084860312156200162d57600080fd5b60006200163d868287016200146a565b935050602062001650868287016200146a565b925050604062001663868287016200146a565b9150509250925092565b60006200167b8383620017aa565b905092915050565b6000620016918383620019f9565b60208301905092915050565b620016a88162001d0c565b82525050565b6000620016bb8262001c82565b620016c7818562001cbd565b935083602082028501620016db8562001c62565b8060005b858110156200171d5784840389528151620016fb85826200166d565b9450620017088362001ca3565b925060208a01995050600181019050620016df565b50829750879550505050505092915050565b60006200173c8262001c8d565b62001748818562001cce565b9350620017558362001c72565b8060005b838110156200178c57815162001770888262001683565b97506200177d8362001cb0565b92505060018101905062001759565b5085935050505092915050565b620017a48162001d20565b82525050565b6000620017b78262001c98565b620017c3818562001cdf565b9350620017d581856020860162001d65565b620017e08162001d9b565b840191505092915050565b6000620017f88262001c98565b62001804818562001cf0565b93506200181681856020860162001d65565b620018218162001d9b565b840191505092915050565b6000620018398262001c98565b62001845818562001d01565b93506200185781856020860162001d65565b80840191505092915050565b60006200187260268362001cf0565b91507f4f776e61626c653a206e6577206f776e657220697320746865207a65726f206160008301527f64647265737300000000000000000000000000000000000000000000000000006020830152604082019050919050565b6000620018da60198362001cf0565b91507f676574416464723a2051756f74655f4e4f545f455849535453000000000000006000830152602082019050919050565b60006200191c60168362001cf0565b91507f61646451756f74653a2051756f74655f455849535453000000000000000000006000830152602082019050919050565b60006200195e60208362001cf0565b91507f4f776e61626c653a2063616c6c6572206973206e6f7420746865206f776e65726000830152602082019050919050565b6000620019a060218362001cf0565b91507f4f776e61626c653a2063616c6c6572206973206e6f74207468652071756f746560008301527f72000000000000000000000000000000000000000000000000000000000000006020830152604082019050919050565b62001a048162001d4c565b82525050565b62001a158162001d4c565b82525050565b600062001a2982846200182c565b915081905092915050565b600060208201905062001a4b60008301846200169d565b92915050565b6000602082019050818103600083015262001a6d8184620016ae565b905092915050565b6000602082019050818103600083015262001a9181846200172f565b905092915050565b600060208201905062001ab0600083018462001799565b92915050565b6000602082019050818103600083015262001ad28184620017eb565b905092915050565b6000602082019050818103600083015262001af58162001863565b9050919050565b6000602082019050818103600083015262001b1781620018cb565b9050919050565b6000602082019050818103600083015262001b39816200190d565b9050919050565b6000602082019050818103600083015262001b5b816200194f565b9050919050565b6000602082019050818103600083015262001b7d8162001991565b9050919050565b600060208201905062001b9b600083018462001a0a565b92915050565b600060608201905062001bb8600083018662001a0a565b62001bc7602083018562001a0a565b62001bd6604083018462001a0a565b949350505050565b6000604051905081810181811067ffffffffffffffff8211171562001c0257600080fd5b8060405250919050565b600067ffffffffffffffff82111562001c2457600080fd5b602082029050602081019050919050565b600067ffffffffffffffff82111562001c4d57600080fd5b601f19601f8301169050602081019050919050565b6000819050602082019050919050565b6000819050602082019050919050565b600081519050919050565b600081519050919050565b600081519050919050565b6000602082019050919050565b6000602082019050919050565b600082825260208201905092915050565b600082825260208201905092915050565b600082825260208201905092915050565b600082825260208201905092915050565b600081905092915050565b600062001d198262001d2c565b9050919050565b60008115159050919050565b600073ffffffffffffffffffffffffffffffffffffffff82169050919050565b6000819050919050565b82818337600083830152505050565b60005b8381101562001d8557808201518184015260208101905062001d68565b8381111562001d95576000848401525b50505050565b6000601f19601f8301169050919050565b62001db78162001d0c565b811462001dc357600080fd5b50565b62001dd18162001d4c565b811462001ddd57600080fd5b5056fe608060405234801561001057600080fd5b5060006100216100cc60201b60201c565b9050806000806101000a81548173ffffffffffffffffffffffffffffffffffffffff021916908373ffffffffffffffffffffffffffffffffffffffff1602179055508073ffffffffffffffffffffffffffffffffffffffff16600073ffffffffffffffffffffffffffffffffffffffff167f8be0079c531659141344cd1fd0a4f28419497f9722a3daafe3b4186f6b6457e060405160405180910390a35060006002819055506100d4565b600033905090565b610f82806100e36000396000f3fe608060405234801561001057600080fd5b50600436106100b45760003560e01c806395d89b411161007157806395d89b41146101d3578063a7b08aec14610256578063aecaa31614610282578063f2fde38b146102b0578063f62d1888146102f4578063f6ed06a4146103af576100b4565b806322f3c5c6146100b95780632e06d401146100de57806365fa2f7f146101275780636b6709b514610177578063715018a6146101955780638da5cb5b1461019f575b600080fd5b6100c161047b565b604051808381526020018281526020019250505060405180910390f35b61010a600480360360208110156100f457600080fd5b810190808035906020019092919050505061048d565b604051808381526020018281526020019250505060405180910390f35b6101536004803603602081101561013d57600080fd5b81019080803590602001909291905050506104b1565b60405180848152602001838152602001828152602001935050505060405180910390f35b61017f61050b565b6040518082815260200191505060405180910390f35b61019d610511565b005b6101a7610697565b604051808273ffffffffffffffffffffffffffffffffffffffff16815260200191505060405180910390f35b6101db6106c0565b6040518080602001828103825283818151815260200191508051906020019080838360005b8381101561021b578082015181840152602081019050610200565b50505050905090810190601f1680156102485780820380516001836020036101000a031916815260200191505b509250505060405180910390f35b61025e61075e565b60405180848152602001838152602001828152602001935050505060405180910390f35b6102ae6004803603602081101561029857600080fd5b810190808035906020019092919050505061077d565b005b6102f2600480360360208110156102c657600080fd5b81019080803573ffffffffffffffffffffffffffffffffffffffff16906020019092919050505061086e565b005b6103ad6004803603602081101561030a57600080fd5b810190808035906020019064010000000081111561032757600080fd5b82018360208201111561033957600080fd5b8035906020019184600183028401116401000000008311171561035b57600080fd5b91908080601f016020809104026020016040519081016040528093929190818152602001838380828437600081840152601f19601f820116905080830192505050505050509192919290505050610a79565b005b610465600480360360208110156103c557600080fd5b81019080803590602001906401000000008111156103e257600080fd5b8201836020820111156103f457600080fd5b8035906020019184602083028401116401000000008311171561041657600080fd5b919080806020026020016040519081016040528093929190818152602001838360200280828437600081840152601f19601f820116905080830192505050505050509192919290505050610b5b565b6040518082815260200191505060405180910390f35b60038060000154908060010154905082565b60056020528060005260406000206000915090508060000154908060010154905082565b60008060006104be610e6f565b600560008581526020019081526020016000206040518060400160405290816000820154815260200160018201548152505090508493508060000151925080602001519150509193909250565b60025481565b610519610c97565b73ffffffffffffffffffffffffffffffffffffffff1660008054906101000a900473ffffffffffffffffffffffffffffffffffffffff1673ffffffffffffffffffffffffffffffffffffffff16146105d9576040517f08c379a00000000000000000000000000000000000000000000000000000000081526004018080602001828103825260208152602001807f4f776e61626c653a2063616c6c6572206973206e6f7420746865206f776e657281525060200191505060405180910390fd5b600073ffffffffffffffffffffffffffffffffffffffff1660008054906101000a900473ffffffffffffffffffffffffffffffffffffffff1673ffffffffffffffffffffffffffffffffffffffff167f8be0079c531659141344cd1fd0a4f28419497f9722a3daafe3b4186f6b6457e060405160405180910390a360008060006101000a81548173ffffffffffffffffffffffffffffffffffffffff021916908373ffffffffffffffffffffffffffffffffffffffff160217905550565b60008060009054906101000a900473ffffffffffffffffffffffffffffffffffffffff16905090565b60018054600181600116156101000203166002900480601f0160208091040260200160405190810160405280929190818152602001828054600181600116156101000203166002900480156107565780601f1061072b57610100808354040283529160200191610756565b820191906000526020600020905b81548152906001019060200180831161073957829003601f168201915b505050505081565b6000806000600254925060036000015491506003600101549050909192565b610785610c97565b73ffffffffffffffffffffffffffffffffffffffff1660008054906101000a900473ffffffffffffffffffffffffffffffffffffffff1673ffffffffffffffffffffffffffffffffffffffff1614610845576040517f08c379a00000000000000000000000000000000000000000000000000000000081526004018080602001828103825260208152602001807f4f776e61626c653a2063616c6c6572206973206e6f7420746865206f776e657281525060200191505060405180910390fd5b600560008281526020019081526020016000206000808201600090556001820160009055505050565b610876610c97565b73ffffffffffffffffffffffffffffffffffffffff1660008054906101000a900473ffffffffffffffffffffffffffffffffffffffff1673ffffffffffffffffffffffffffffffffffffffff1614610936576040517f08c379a00000000000000000000000000000000000000000000000000000000081526004018080602001828103825260208152602001807f4f776e61626c653a2063616c6c6572206973206e6f7420746865206f776e657281525060200191505060405180910390fd5b600073ffffffffffffffffffffffffffffffffffffffff168173ffffffffffffffffffffffffffffffffffffffff1614156109bc576040517f08c379a0000000000000000000000000000000000000000000000000000000008152600401808060200182810382526026815260200180610f276026913960400191505060405180910390fd5b8073ffffffffffffffffffffffffffffffffffffffff1660008054906101000a900473ffffffffffffffffffffffffffffffffffffffff1673ffffffffffffffffffffffffffffffffffffffff167f8be0079c531659141344cd1fd0a4f28419497f9722a3daafe3b4186f6b6457e060405160405180910390a3806000806101000a81548173ffffffffffffffffffffffffffffffffffffffff021916908373ffffffffffffffffffffffffffffffffffffffff16021790555050565b610a81610c97565b73ffffffffffffffffffffffffffffffffffffffff1660008054906101000a900473ffffffffffffffffffffffffffffffffffffffff1673ffffffffffffffffffffffffffffffffffffffff1614610b41576040517f08c379a00000000000000000000000000000000000000000000000000000000081526004018080602001828103825260208152602001807f4f776e61626c653a2063616c6c6572206973206e6f7420746865206f776e657281525060200191505060405180910390fd5b8060019080519060200190610b57929190610e89565b5050565b6000610b65610c97565b73ffffffffffffffffffffffffffffffffffffffff1660008054906101000a900473ffffffffffffffffffffffffffffffffffffffff1673ffffffffffffffffffffffffffffffffffffffff1614610c25576040517f08c379a00000000000000000000000000000000000000000000000000000000081526004018080602001828103825260208152602001807f4f776e61626c653a2063616c6c6572206973206e6f7420746865206f776e657281525060200191505060405180910390fd5b6000825111610c3357600080fd5b6000805b8351811015610c6b576000848281518110610c4e57fe5b602002602001015190508083019250508080600101915050610c37565b506000610c82845183610c9f90919063ffffffff16565b9050610c8d81610ce9565b8092505050919050565b600033905090565b6000610ce183836040518060400160405280601a81526020017f536166654d6174683a206469766973696f6e206279207a65726f000000000000815250610da9565b905092915050565b60008111610d5f576040517f08c379a00000000000000000000000000000000000000000000000000000000081526004018080602001828103825260148152602001807f70726963652063616e6e6f74206265207a65726f00000000000000000000000081525060200191505060405180910390fd5b806003600001819055504260036001018190555060036005600043815260200190815260200160002060008201548160000155600182015481600101559050504360028190555050565b60008083118290610e55576040517f08c379a00000000000000000000000000000000000000000000000000000000081526004018080602001828103825283818151815260200191508051906020019080838360005b83811015610e1a578082015181840152602081019050610dff565b50505050905090810190601f168015610e475780820380516001836020036101000a031916815260200191505b509250505060405180910390fd5b506000838581610e6157fe5b049050809150509392505050565b604051806040016040528060008152602001600081525090565b828054600181600116156101000203166002900490600052602060002090601f016020900481019282601f10610eca57805160ff1916838001178555610ef8565b82800160010185558215610ef8579182015b82811115610ef7578251825591602001919060010190610edc565b5b509050610f059190610f09565b5090565b5b80821115610f22576000816000905550600101610f0a565b509056fe4f776e61626c653a206e6577206f776e657220697320746865207a65726f2061646472657373a26469706673582212207ec60c19aeaeee7736d88b1c34f3c53155181d5b1ef26f6ce288f0344e5df76764736f6c634300060c0033a26469706673582212207bf4bf62cd1549e937c476b0ece75e51271f6b13f88331f6001667363ba39e2e64736f6c634300060c0033",
  "immutableReferences": {},
  "source": "// SPDX-License-Identifier: MIT\n\npragma solidity 0.6.12;\npragma experimental ABIEncoderV2;\n\nimport \"../openzeppelin/contracts/math/SafeMath.sol\";\nimport \"../openzeppelin/contracts/access/Ownable.sol\";\nimport \"./Quote.sol\";\nimport \"../interface/IRisk.sol\";\n\n\ncontract QuoteFactory is Ownable {\n    using SafeMath for uint256;\n\n    event AddQuote(address indexed quoteAddr);\n    event AddPrice(string indexed symbol, uint256 indexed newPrice);\n    event DelPrice(string indexed symbol, uint256 indexed blockIndex);\n\n    mapping (string => address) private allQuotePool;// <btc/usdt,quoteAddr>\n    string[] private allSymbol;\n\n    mapping(address=>bool) public quoter;\n\n    modifier onlyQuoter() {\n        require(quoter[msg.sender] == true, \"Ownable: caller is not the quoter\");\n        _;\n    }\n    constructor() public {\n        quoter[msg.sender] = true;\n    }\n    // \n    function addQuote(string memory _symbol) public onlyOwner returns (address quoteAddr) {\n        require(allQuotePool[_symbol] == address(0), 'addQuote: Quote_EXISTS');\n        bytes memory bytecode = type(Quote).creationCode;\n        bytes32 salt = keccak256(abi.encodePacked(_symbol));\n        assembly {\n            quoteAddr := create2(0, add(bytecode, 32), mload(bytecode), salt)\n        }\n        Quote(quoteAddr).initialize(_symbol);\n        // Quote(quoteAddr).transferOwnership(msg.sender);\n        allQuotePool[_symbol] = quoteAddr;        \n        allSymbol.push(_symbol);\n        emit AddQuote(quoteAddr);\n    }\n\n    // \n    function addPrice(string memory _symbol,uint256[] memory price) public onlyQuoter returns(uint256 newPrice){\n        address quoteAddr = getAddr(_symbol);\n        newPrice = Quote(quoteAddr).addPrice(price);\n        emit AddPrice(_symbol, newPrice);\n    } \n\n    // \n    function delPrice(string memory _symbol,uint256 blockIndex) public onlyQuoter {\n        address quoteAddr = getAddr(_symbol);\n        Quote(quoteAddr).delPrice(blockIndex);\n        emit DelPrice(_symbol, blockIndex);\n    }\n\n    // \n    function addQuoter(address _quoter) public onlyOwner {\n        quoter[_quoter] = true;\n    }\n\n    // \n    function delQuoter(address _quoter) public onlyOwner {\n        quoter[_quoter] = false;\n    }\n\n    // \n    function getNewPrice(string memory _symbol) public view returns (uint256 blockIndex,uint256 newPrice,uint256 priceTime) {\n        address quoteAddr = getAddr(_symbol);\n        (blockIndex, newPrice, priceTime) = Quote(quoteAddr).getNewPrice();\n    }\n\n    // \n    function getLastPrice(string memory _symbol,uint256 _blockIndex) public view returns (uint256 blockIndex,uint256 newPrice,uint256 priceTime) {\n        address quoteAddr = getAddr(_symbol);\n        (blockIndex, newPrice, priceTime) = Quote(quoteAddr).getLastPrice(_blockIndex);\n    }\n\n    // \n    function getAddr(string memory _symbol) public view returns (address quoteAddr) {\n        quoteAddr = allQuotePool[_symbol];\n        require(quoteAddr != address(0), 'getAddr: Quote_NOT_EXISTS');\n    }    \n\n    function symbolLength() public view returns(uint256) {\n        return allSymbol.length;\n    }\n\n    function getSymbol(uint256 _index) public view returns(string memory) {\n        return allSymbol[_index];\n    }\n\n    function symbols() public view returns(string[] memory) {\n        return allSymbol;\n    }\n}",
  "sourcePath": "/Users/tong/Projects/drep-project/teemo-private/contracts/quote/QuoteFactory.sol",
  "compiler": {
    "name": "solc",
    "version": "0.6.12+commit.27d51765.Emscripten.clang"
  },
  "schemaVersion": "3.3.2",
  "updatedAt": "2021-01-25T05:45:37.501Z",
  "devdoc": {
    "kind": "dev",
    "methods": {
      "owner()": {
        "details": "Returns the address of the current owner."
      },
      "renounceOwnership()": {
        "details": "Leaves the contract without owner. It will not be possible to call `onlyOwner` functions anymore. Can only be called by the current owner. NOTE: Renouncing ownership will leave the contract without an owner, thereby removing any functionality that is only available to the owner."
      },
      "transferOwnership(address)": {
        "details": "Transfers ownership of the contract to a new account (`newOwner`). Can only be called by the current owner."
      }
    },
    "version": 1
  },
  "userdoc": {
    "kind": "user",
    "methods": {},
    "version": 1
  }
}