{
  "contractName": "QuoteFactory",
  "abi": [
    {
      "anonymous": false,
      "inputs": [
        {
          "indexed": true,
          "internalType": "string",
          "name": "symbol",
          "type": "string"
        },
        {
          "indexed": true,
          "internalType": "uint256",
          "name": "newPrice",
          "type": "uint256"
        }
      ],
      "name": "AddPrice",
      "type": "event"
    },
    {
      "anonymous": false,
      "inputs": [
        {
          "indexed": true,
          "internalType": "address",
          "name": "quoteAddr",
          "type": "address"
        }
      ],
      "name": "AddQuote",
      "type": "event"
    },
    {
      "anonymous": false,
      "inputs": [
        {
          "indexed": true,
          "internalType": "string",
          "name": "symbol",
          "type": "string"
        },
        {
          "indexed": true,
          "internalType": "uint256",
          "name": "blockIndex",
          "type": "uint256"
        }
      ],
      "name": "DelPrice",
      "type": "event"
    },
    {
      "anonymous": false,
      "inputs": [
        {
          "indexed": true,
          "internalType": "address",
          "name": "previousOwner",
          "type": "address"
        },
        {
          "indexed": true,
          "internalType": "address",
          "name": "newOwner",
          "type": "address"
        }
      ],
      "name": "OwnershipTransferred",
      "type": "event"
    },
    {
      "inputs": [],
      "name": "owner",
      "outputs": [
        {
          "internalType": "address",
          "name": "",
          "type": "address"
        }
      ],
      "stateMutability": "view",
      "type": "function"
    },
    {
      "inputs": [],
      "name": "renounceOwnership",
      "outputs": [],
      "stateMutability": "nonpayable",
      "type": "function"
    },
    {
      "inputs": [
        {
          "internalType": "address",
          "name": "newOwner",
          "type": "address"
        }
      ],
      "name": "transferOwnership",
      "outputs": [],
      "stateMutability": "nonpayable",
      "type": "function"
    },
    {
      "inputs": [
        {
          "internalType": "string",
          "name": "_symbol",
          "type": "string"
        }
      ],
      "name": "addQuote",
      "outputs": [
        {
          "internalType": "address",
          "name": "quoteAddr",
          "type": "address"
        }
      ],
      "stateMutability": "nonpayable",
      "type": "function"
    },
    {
      "inputs": [
        {
          "internalType": "string",
          "name": "_symbol",
          "type": "string"
        },
        {
          "internalType": "uint256[]",
          "name": "price",
          "type": "uint256[]"
        }
      ],
      "name": "addPrice",
      "outputs": [],
      "stateMutability": "nonpayable",
      "type": "function"
    },
    {
      "inputs": [
        {
          "internalType": "string",
          "name": "_symbol",
          "type": "string"
        },
        {
          "internalType": "uint256",
          "name": "blockIndex",
          "type": "uint256"
        }
      ],
      "name": "delPrice",
      "outputs": [],
      "stateMutability": "nonpayable",
      "type": "function"
    },
    {
      "inputs": [
        {
          "internalType": "string",
          "name": "_symbol",
          "type": "string"
        }
      ],
      "name": "getNewPrice",
      "outputs": [
        {
          "internalType": "uint256",
          "name": "blockIndex",
          "type": "uint256"
        },
        {
          "internalType": "uint256",
          "name": "newPrice",
          "type": "uint256"
        },
        {
          "internalType": "uint256",
          "name": "priceTime",
          "type": "uint256"
        }
      ],
      "stateMutability": "view",
      "type": "function"
    },
    {
      "inputs": [
        {
          "internalType": "string",
          "name": "_symbol",
          "type": "string"
        },
        {
          "internalType": "uint256",
          "name": "_blockIndex",
          "type": "uint256"
        }
      ],
      "name": "getLastPrice",
      "outputs": [
        {
          "internalType": "uint256",
          "name": "blockIndex",
          "type": "uint256"
        },
        {
          "internalType": "uint256",
          "name": "newPrice",
          "type": "uint256"
        },
        {
          "internalType": "uint256",
          "name": "priceTime",
          "type": "uint256"
        }
      ],
      "stateMutability": "view",
      "type": "function"
    },
    {
      "inputs": [
        {
          "internalType": "string",
          "name": "_symbol",
          "type": "string"
        }
      ],
      "name": "getAddr",
      "outputs": [
        {
          "internalType": "address",
          "name": "quoteAddr",
          "type": "address"
        }
      ],
      "stateMutability": "view",
      "type": "function"
    },
    {
      "inputs": [],
      "name": "symbolLength",
      "outputs": [
        {
          "internalType": "uint256",
          "name": "",
          "type": "uint256"
        }
      ],
      "stateMutability": "view",
      "type": "function"
    },
    {
      "inputs": [
        {
          "internalType": "uint256",
          "name": "_index",
          "type": "uint256"
        }
      ],
      "name": "getSymbol",
      "outputs": [
        {
          "internalType": "string",
          "name": "",
          "type": "string"
        }
      ],
      "stateMutability": "view",
      "type": "function"
    },
    {
      "inputs": [],
      "name": "symbols",
      "outputs": [
        {
          "internalType": "string[]",
          "name": "",
          "type": "string[]"
        }
      ],
      "stateMutability": "view",
      "type": "function"
    }
  ],
  "bytecode": "0x608060405234801561001057600080fd5b5060006100216100c460201b60201c565b9050806000806101000a81548173ffffffffffffffffffffffffffffffffffffffff021916908373ffffffffffffffffffffffffffffffffffffffff1602179055508073ffffffffffffffffffffffffffffffffffffffff16600073ffffffffffffffffffffffffffffffffffffffff167f8be0079c531659141344cd1fd0a4f28419497f9722a3daafe3b4186f6b6457e060405160405180910390a3506100cc565b600033905090565b612bb9806100db6000396000f3fe60806040523480156200001157600080fd5b5060043610620000c45760003560e01c8063d053dd6e116200007b578063d053dd6e146200018f578063d4a06b8714620001c5578063d502db9714620001fd578063e8084a871462000233578063f2fde38b146200026b578063fc0fc6db146200028b57620000c4565b806307039ff914620000c95780633c50bcd714620000eb5780636418413c146200010b578063715018a61462000141578063849562bd146200014d5780638da5cb5b146200016d575b600080fd5b620000d3620002ad565b604051620000e291906200179e565b60405180910390f35b6200010960048036038101906200010391906200128a565b6200039c565b005b62000129600480360381019062000123919062001357565b62000525565b604051620001389190620017e6565b60405180910390f35b6200014b620005e3565b005b6200016b6004803603810190620001659190620012fd565b6200073b565b005b620001776200089d565b60405162000186919062001764565b60405180910390f35b620001ad6004803603810190620001a7919062001245565b620008c6565b604051620001bc919062001764565b60405180910390f35b620001e36004803603810190620001dd9190620012fd565b62000c3c565b604051620001f493929190620018af565b60405180910390f35b6200021b600480360381019062000215919062001245565b62000cf2565b6040516200022a919062001764565b60405180910390f35b6200025160048036038101906200024b919062001245565b62000daf565b6040516200026293929190620018af565b60405180910390f35b62000289600480360381019062000283919062001219565b62000e58565b005b6200029562001022565b604051620002a4919062001892565b60405180910390f35b60606002805480602002602001604051908101604052809291908181526020016000905b8282101562000393578382906000526020600020018054600181600116156101000203166002900480601f0160208091040260200160405190810160405280929190818152602001828054600181600116156101000203166002900480156200037e5780601f1062000352576101008083540402835291602001916200037e565b820191906000526020600020905b8154815290600101906020018083116200036057829003601f168201915b505050505081526020019060010190620002d1565b50505050905090565b620003a66200102f565b73ffffffffffffffffffffffffffffffffffffffff1660008054906101000a900473ffffffffffffffffffffffffffffffffffffffff1673ffffffffffffffffffffffffffffffffffffffff161462000436576040517f08c379a00000000000000000000000000000000000000000000000000000000081526004016200042d9062001870565b60405180910390fd5b6000620004438362000cf2565b905060008173ffffffffffffffffffffffffffffffffffffffff1663f6ed06a4846040518263ffffffff1660e01b8152600401620004829190620017c2565b602060405180830381600087803b1580156200049d57600080fd5b505af1158015620004b2573d6000803e3d6000fd5b505050506040513d601f19601f82011682018060405250810190620004d8919062001383565b90508084604051620004eb91906200174b565b60405180910390207f23239e357550227dee169e4dc7ea1e83fee2e773c179541e55254b1bd8c89c8360405160405180910390a350505050565b6060600282815481106200053557fe5b906000526020600020018054600181600116156101000203166002900480601f016020809104026020016040519081016040528092919081815260200182805460018160011615610100020316600290048015620005d75780601f10620005ab57610100808354040283529160200191620005d7565b820191906000526020600020905b815481529060010190602001808311620005b957829003601f168201915b50505050509050919050565b620005ed6200102f565b73ffffffffffffffffffffffffffffffffffffffff1660008054906101000a900473ffffffffffffffffffffffffffffffffffffffff1673ffffffffffffffffffffffffffffffffffffffff16146200067d576040517f08c379a0000000000000000000000000000000000000000000000000000000008152600401620006749062001870565b60405180910390fd5b600073ffffffffffffffffffffffffffffffffffffffff1660008054906101000a900473ffffffffffffffffffffffffffffffffffffffff1673ffffffffffffffffffffffffffffffffffffffff167f8be0079c531659141344cd1fd0a4f28419497f9722a3daafe3b4186f6b6457e060405160405180910390a360008060006101000a81548173ffffffffffffffffffffffffffffffffffffffff021916908373ffffffffffffffffffffffffffffffffffffffff160217905550565b620007456200102f565b73ffffffffffffffffffffffffffffffffffffffff1660008054906101000a900473ffffffffffffffffffffffffffffffffffffffff1673ffffffffffffffffffffffffffffffffffffffff1614620007d5576040517f08c379a0000000000000000000000000000000000000000000000000000000008152600401620007cc9062001870565b60405180910390fd5b6000620007e28362000cf2565b90508073ffffffffffffffffffffffffffffffffffffffff1663aecaa316836040518263ffffffff1660e01b81526004016200081f919062001892565b600060405180830381600087803b1580156200083a57600080fd5b505af11580156200084f573d6000803e3d6000fd5b5050505081836040516200086491906200174b565b60405180910390207fbd5fbdde228050934cb50cbee0dd68a95f2a21c04959d430e30c3be3b236730d60405160405180910390a3505050565b60008060009054906101000a900473ffffffffffffffffffffffffffffffffffffffff16905090565b6000620008d26200102f565b73ffffffffffffffffffffffffffffffffffffffff1660008054906101000a900473ffffffffffffffffffffffffffffffffffffffff1673ffffffffffffffffffffffffffffffffffffffff161462000962576040517f08c379a0000000000000000000000000000000000000000000000000000000008152600401620009599062001870565b60405180910390fd5b600073ffffffffffffffffffffffffffffffffffffffff166001836040516200098c91906200174b565b908152602001604051809103902060009054906101000a900473ffffffffffffffffffffffffffffffffffffffff1673ffffffffffffffffffffffffffffffffffffffff161462000a14576040517f08c379a000000000000000000000000000000000000000000000000000000000815260040162000a0b906200184e565b60405180910390fd5b60606040518060200162000a289062001037565b6020820181038252601f19601f82011660405250905060008360405160200162000a5391906200174b565b604051602081830303815290604052805190602001209050808251602084016000f592508273ffffffffffffffffffffffffffffffffffffffff1663f62d1888856040518263ffffffff1660e01b815260040162000ab29190620017e6565b600060405180830381600087803b15801562000acd57600080fd5b505af115801562000ae2573d6000803e3d6000fd5b505050508273ffffffffffffffffffffffffffffffffffffffff1663f2fde38b336040518263ffffffff1660e01b815260040162000b21919062001781565b600060405180830381600087803b15801562000b3c57600080fd5b505af115801562000b51573d6000803e3d6000fd5b505050508260018560405162000b6891906200174b565b908152602001604051809103902060006101000a81548173ffffffffffffffffffffffffffffffffffffffff021916908373ffffffffffffffffffffffffffffffffffffffff16021790555060028490806001815401808255809150506001900390600052602060002001600090919091909150908051906020019062000bf192919062001045565b508273ffffffffffffffffffffffffffffffffffffffff167f8d8c05992df8d984daec5ec2f26c66798cff86409636b8e53d3b9ecd165b12af60405160405180910390a25050919050565b60008060008062000c4d8662000cf2565b90508073ffffffffffffffffffffffffffffffffffffffff166365fa2f7f866040518263ffffffff1660e01b815260040162000c8a919062001892565b60606040518083038186803b15801562000ca357600080fd5b505afa15801562000cb8573d6000803e3d6000fd5b505050506040513d601f19601f8201168201806040525081019062000cde9190620013af565b809450819550829650505050509250925092565b600060018260405162000d0691906200174b565b908152602001604051809103902060009054906101000a900473ffffffffffffffffffffffffffffffffffffffff169050600073ffffffffffffffffffffffffffffffffffffffff168173ffffffffffffffffffffffffffffffffffffffff16141562000daa576040517f08c379a000000000000000000000000000000000000000000000000000000000815260040162000da1906200182c565b60405180910390fd5b919050565b60008060008062000dc08562000cf2565b90508073ffffffffffffffffffffffffffffffffffffffff1663a7b08aec6040518163ffffffff1660e01b815260040160606040518083038186803b15801562000e0957600080fd5b505afa15801562000e1e573d6000803e3d6000fd5b505050506040513d601f19601f8201168201806040525081019062000e449190620013af565b809450819550829650505050509193909250565b62000e626200102f565b73ffffffffffffffffffffffffffffffffffffffff1660008054906101000a900473ffffffffffffffffffffffffffffffffffffffff1673ffffffffffffffffffffffffffffffffffffffff161462000ef2576040517f08c379a000000000000000000000000000000000000000000000000000000000815260040162000ee99062001870565b60405180910390fd5b600073ffffffffffffffffffffffffffffffffffffffff168173ffffffffffffffffffffffffffffffffffffffff16141562000f65576040517f08c379a000000000000000000000000000000000000000000000000000000000815260040162000f5c906200180a565b60405180910390fd5b8073ffffffffffffffffffffffffffffffffffffffff1660008054906101000a900473ffffffffffffffffffffffffffffffffffffffff1673ffffffffffffffffffffffffffffffffffffffff167f8be0079c531659141344cd1fd0a4f28419497f9722a3daafe3b4186f6b6457e060405160405180910390a3806000806101000a81548173ffffffffffffffffffffffffffffffffffffffff021916908373ffffffffffffffffffffffffffffffffffffffff16021790555050565b6000600280549050905090565b600033905090565b6110658062001b1f83390190565b828054600181600116156101000203166002900490600052602060002090601f016020900481019282601f106200108857805160ff1916838001178555620010b9565b82800160010185558215620010b9579182015b82811115620010b85782518255916020019190600101906200109b565b5b509050620010c89190620010cc565b5090565b5b80821115620010e7576000816000905550600101620010cd565b5090565b600081359050620010fc8162001aea565b92915050565b600082601f8301126200111457600080fd5b81356200112b62001125826200191a565b620018ec565b915081818352602084019350602081019050838560208402820111156200115157600080fd5b60005b838110156200118557816200116a8882620011eb565b84526020840193506020830192505060018101905062001154565b5050505092915050565b600082601f830112620011a157600080fd5b8135620011b8620011b28262001943565b620018ec565b91508082526020830160208301858383011115620011d557600080fd5b620011e283828462001a94565b50505092915050565b600081359050620011fc8162001b04565b92915050565b600081519050620012138162001b04565b92915050565b6000602082840312156200122c57600080fd5b60006200123c84828501620010eb565b91505092915050565b6000602082840312156200125857600080fd5b600082013567ffffffffffffffff8111156200127357600080fd5b62001281848285016200118f565b91505092915050565b600080604083850312156200129e57600080fd5b600083013567ffffffffffffffff811115620012b957600080fd5b620012c7858286016200118f565b925050602083013567ffffffffffffffff811115620012e557600080fd5b620012f38582860162001102565b9150509250929050565b600080604083850312156200131157600080fd5b600083013567ffffffffffffffff8111156200132c57600080fd5b6200133a858286016200118f565b92505060206200134d85828601620011eb565b9150509250929050565b6000602082840312156200136a57600080fd5b60006200137a84828501620011eb565b91505092915050565b6000602082840312156200139657600080fd5b6000620013a68482850162001202565b91505092915050565b600080600060608486031215620013c557600080fd5b6000620013d58682870162001202565b9350506020620013e88682870162001202565b9250506040620013fb8682870162001202565b9150509250925092565b600062001413838362001542565b905092915050565b600062001429838362001729565b60208301905092915050565b620014408162001a58565b82525050565b620014518162001a1a565b82525050565b6000620014648262001990565b620014708185620019cb565b935083602082028501620014848562001970565b8060005b85811015620014c65784840389528151620014a4858262001405565b9450620014b183620019b1565b925060208a0199505060018101905062001488565b50829750879550505050505092915050565b6000620014e5826200199b565b620014f18185620019dc565b9350620014fe8362001980565b8060005b83811015620015355781516200151988826200141b565b97506200152683620019be565b92505060018101905062001502565b5085935050505092915050565b60006200154f82620019a6565b6200155b8185620019ed565b93506200156d81856020860162001aa3565b620015788162001ad9565b840191505092915050565b60006200159082620019a6565b6200159c8185620019fe565b9350620015ae81856020860162001aa3565b620015b98162001ad9565b840191505092915050565b6000620015d182620019a6565b620015dd818562001a0f565b9350620015ef81856020860162001aa3565b80840191505092915050565b60006200160a602683620019fe565b91507f4f776e61626c653a206e6577206f776e657220697320746865207a65726f206160008301527f64647265737300000000000000000000000000000000000000000000000000006020830152604082019050919050565b600062001672601983620019fe565b91507f676574416464723a2051756f74655f4e4f545f455849535453000000000000006000830152602082019050919050565b6000620016b4601683620019fe565b91507f61646451756f74653a2051756f74655f455849535453000000000000000000006000830152602082019050919050565b6000620016f6602083620019fe565b91507f4f776e61626c653a2063616c6c6572206973206e6f7420746865206f776e65726000830152602082019050919050565b620017348162001a4e565b82525050565b620017458162001a4e565b82525050565b6000620017598284620015c4565b915081905092915050565b60006020820190506200177b600083018462001446565b92915050565b600060208201905062001798600083018462001435565b92915050565b60006020820190508181036000830152620017ba818462001457565b905092915050565b60006020820190508181036000830152620017de8184620014d8565b905092915050565b6000602082019050818103600083015262001802818462001583565b905092915050565b600060208201905081810360008301526200182581620015fb565b9050919050565b60006020820190508181036000830152620018478162001663565b9050919050565b600060208201905081810360008301526200186981620016a5565b9050919050565b600060208201905081810360008301526200188b81620016e7565b9050919050565b6000602082019050620018a960008301846200173a565b92915050565b6000606082019050620018c660008301866200173a565b620018d560208301856200173a565b620018e460408301846200173a565b949350505050565b6000604051905081810181811067ffffffffffffffff821117156200191057600080fd5b8060405250919050565b600067ffffffffffffffff8211156200193257600080fd5b602082029050602081019050919050565b600067ffffffffffffffff8211156200195b57600080fd5b601f19601f8301169050602081019050919050565b6000819050602082019050919050565b6000819050602082019050919050565b600081519050919050565b600081519050919050565b600081519050919050565b6000602082019050919050565b6000602082019050919050565b600082825260208201905092915050565b600082825260208201905092915050565b600082825260208201905092915050565b600082825260208201905092915050565b600081905092915050565b600062001a278262001a2e565b9050919050565b600073ffffffffffffffffffffffffffffffffffffffff82169050919050565b6000819050919050565b600062001a658262001a6c565b9050919050565b600062001a798262001a80565b9050919050565b600062001a8d8262001a2e565b9050919050565b82818337600083830152505050565b60005b8381101562001ac357808201518184015260208101905062001aa6565b8381111562001ad3576000848401525b50505050565b6000601f19601f8301169050919050565b62001af58162001a1a565b811462001b0157600080fd5b50565b62001b0f8162001a4e565b811462001b1b57600080fd5b5056fe608060405234801561001057600080fd5b5060006100216100cc60201b60201c565b9050806000806101000a81548173ffffffffffffffffffffffffffffffffffffffff021916908373ffffffffffffffffffffffffffffffffffffffff1602179055508073ffffffffffffffffffffffffffffffffffffffff16600073ffffffffffffffffffffffffffffffffffffffff167f8be0079c531659141344cd1fd0a4f28419497f9722a3daafe3b4186f6b6457e060405160405180910390a35060006002819055506100d4565b600033905090565b610f82806100e36000396000f3fe608060405234801561001057600080fd5b50600436106100b45760003560e01c806395d89b411161007157806395d89b41146101d3578063a7b08aec14610256578063aecaa31614610282578063f2fde38b146102b0578063f62d1888146102f4578063f6ed06a4146103af576100b4565b806322f3c5c6146100b95780632e06d401146100de57806365fa2f7f146101275780636b6709b514610177578063715018a6146101955780638da5cb5b1461019f575b600080fd5b6100c161047b565b604051808381526020018281526020019250505060405180910390f35b61010a600480360360208110156100f457600080fd5b810190808035906020019092919050505061048d565b604051808381526020018281526020019250505060405180910390f35b6101536004803603602081101561013d57600080fd5b81019080803590602001909291905050506104b1565b60405180848152602001838152602001828152602001935050505060405180910390f35b61017f61050b565b6040518082815260200191505060405180910390f35b61019d610511565b005b6101a7610697565b604051808273ffffffffffffffffffffffffffffffffffffffff16815260200191505060405180910390f35b6101db6106c0565b6040518080602001828103825283818151815260200191508051906020019080838360005b8381101561021b578082015181840152602081019050610200565b50505050905090810190601f1680156102485780820380516001836020036101000a031916815260200191505b509250505060405180910390f35b61025e61075e565b60405180848152602001838152602001828152602001935050505060405180910390f35b6102ae6004803603602081101561029857600080fd5b810190808035906020019092919050505061077d565b005b6102f2600480360360208110156102c657600080fd5b81019080803573ffffffffffffffffffffffffffffffffffffffff16906020019092919050505061086e565b005b6103ad6004803603602081101561030a57600080fd5b810190808035906020019064010000000081111561032757600080fd5b82018360208201111561033957600080fd5b8035906020019184600183028401116401000000008311171561035b57600080fd5b91908080601f016020809104026020016040519081016040528093929190818152602001838380828437600081840152601f19601f820116905080830192505050505050509192919290505050610a79565b005b610465600480360360208110156103c557600080fd5b81019080803590602001906401000000008111156103e257600080fd5b8201836020820111156103f457600080fd5b8035906020019184602083028401116401000000008311171561041657600080fd5b919080806020026020016040519081016040528093929190818152602001838360200280828437600081840152601f19601f820116905080830192505050505050509192919290505050610b5b565b6040518082815260200191505060405180910390f35b60038060000154908060010154905082565b60056020528060005260406000206000915090508060000154908060010154905082565b60008060006104be610e6f565b600560008581526020019081526020016000206040518060400160405290816000820154815260200160018201548152505090508493508060000151925080602001519150509193909250565b60025481565b610519610c97565b73ffffffffffffffffffffffffffffffffffffffff1660008054906101000a900473ffffffffffffffffffffffffffffffffffffffff1673ffffffffffffffffffffffffffffffffffffffff16146105d9576040517f08c379a00000000000000000000000000000000000000000000000000000000081526004018080602001828103825260208152602001807f4f776e61626c653a2063616c6c6572206973206e6f7420746865206f776e657281525060200191505060405180910390fd5b600073ffffffffffffffffffffffffffffffffffffffff1660008054906101000a900473ffffffffffffffffffffffffffffffffffffffff1673ffffffffffffffffffffffffffffffffffffffff167f8be0079c531659141344cd1fd0a4f28419497f9722a3daafe3b4186f6b6457e060405160405180910390a360008060006101000a81548173ffffffffffffffffffffffffffffffffffffffff021916908373ffffffffffffffffffffffffffffffffffffffff160217905550565b60008060009054906101000a900473ffffffffffffffffffffffffffffffffffffffff16905090565b60018054600181600116156101000203166002900480601f0160208091040260200160405190810160405280929190818152602001828054600181600116156101000203166002900480156107565780601f1061072b57610100808354040283529160200191610756565b820191906000526020600020905b81548152906001019060200180831161073957829003601f168201915b505050505081565b6000806000600254925060036000015491506003600101549050909192565b610785610c97565b73ffffffffffffffffffffffffffffffffffffffff1660008054906101000a900473ffffffffffffffffffffffffffffffffffffffff1673ffffffffffffffffffffffffffffffffffffffff1614610845576040517f08c379a00000000000000000000000000000000000000000000000000000000081526004018080602001828103825260208152602001807f4f776e61626c653a2063616c6c6572206973206e6f7420746865206f776e657281525060200191505060405180910390fd5b600560008281526020019081526020016000206000808201600090556001820160009055505050565b610876610c97565b73ffffffffffffffffffffffffffffffffffffffff1660008054906101000a900473ffffffffffffffffffffffffffffffffffffffff1673ffffffffffffffffffffffffffffffffffffffff1614610936576040517f08c379a00000000000000000000000000000000000000000000000000000000081526004018080602001828103825260208152602001807f4f776e61626c653a2063616c6c6572206973206e6f7420746865206f776e657281525060200191505060405180910390fd5b600073ffffffffffffffffffffffffffffffffffffffff168173ffffffffffffffffffffffffffffffffffffffff1614156109bc576040517f08c379a0000000000000000000000000000000000000000000000000000000008152600401808060200182810382526026815260200180610f276026913960400191505060405180910390fd5b8073ffffffffffffffffffffffffffffffffffffffff1660008054906101000a900473ffffffffffffffffffffffffffffffffffffffff1673ffffffffffffffffffffffffffffffffffffffff167f8be0079c531659141344cd1fd0a4f28419497f9722a3daafe3b4186f6b6457e060405160405180910390a3806000806101000a81548173ffffffffffffffffffffffffffffffffffffffff021916908373ffffffffffffffffffffffffffffffffffffffff16021790555050565b610a81610c97565b73ffffffffffffffffffffffffffffffffffffffff1660008054906101000a900473ffffffffffffffffffffffffffffffffffffffff1673ffffffffffffffffffffffffffffffffffffffff1614610b41576040517f08c379a00000000000000000000000000000000000000000000000000000000081526004018080602001828103825260208152602001807f4f776e61626c653a2063616c6c6572206973206e6f7420746865206f776e657281525060200191505060405180910390fd5b8060019080519060200190610b57929190610e89565b5050565b6000610b65610c97565b73ffffffffffffffffffffffffffffffffffffffff1660008054906101000a900473ffffffffffffffffffffffffffffffffffffffff1673ffffffffffffffffffffffffffffffffffffffff1614610c25576040517f08c379a00000000000000000000000000000000000000000000000000000000081526004018080602001828103825260208152602001807f4f776e61626c653a2063616c6c6572206973206e6f7420746865206f776e657281525060200191505060405180910390fd5b6000825111610c3357600080fd5b6000805b8351811015610c6b576000848281518110610c4e57fe5b602002602001015190508083019250508080600101915050610c37565b506000610c82845183610c9f90919063ffffffff16565b9050610c8d81610ce9565b8092505050919050565b600033905090565b6000610ce183836040518060400160405280601a81526020017f536166654d6174683a206469766973696f6e206279207a65726f000000000000815250610da9565b905092915050565b60008111610d5f576040517f08c379a00000000000000000000000000000000000000000000000000000000081526004018080602001828103825260148152602001807f70726963652063616e6e6f74206265207a65726f00000000000000000000000081525060200191505060405180910390fd5b806003600001819055504260036001018190555060036005600043815260200190815260200160002060008201548160000155600182015481600101559050504360028190555050565b60008083118290610e55576040517f08c379a00000000000000000000000000000000000000000000000000000000081526004018080602001828103825283818151815260200191508051906020019080838360005b83811015610e1a578082015181840152602081019050610dff565b50505050905090810190601f168015610e475780820380516001836020036101000a031916815260200191505b509250505060405180910390fd5b506000838581610e6157fe5b049050809150509392505050565b604051806040016040528060008152602001600081525090565b828054600181600116156101000203166002900490600052602060002090601f016020900481019282601f10610eca57805160ff1916838001178555610ef8565b82800160010185558215610ef8579182015b82811115610ef7578251825591602001919060010190610edc565b5b509050610f059190610f09565b5090565b5b80821115610f22576000816000905550600101610f0a565b509056fe4f776e61626c653a206e6577206f776e657220697320746865207a65726f2061646472657373a26469706673582212207ec60c19aeaeee7736d88b1c34f3c53155181d5b1ef26f6ce288f0344e5df76764736f6c634300060c0033a264697066735822122057ae8f753faf165fcadcdd7e8137aed5335e87f7ae6db5a1f1469496168055b764736f6c634300060c0033",
  "immutableReferences": {},
  "source": "// SPDX-License-Identifier: MIT\n\npragma solidity 0.6.12;\npragma experimental ABIEncoderV2;\n\nimport \"../openzeppelin/contracts/math/SafeMath.sol\";\nimport \"../openzeppelin/contracts/access/Ownable.sol\";\nimport \"./Quote.sol\";\n\ncontract QuoteFactory is Ownable {\n    using SafeMath for uint256;\n\n    event AddQuote(address indexed quoteAddr);\n    event AddPrice(string indexed symbol, uint256 indexed newPrice);\n    event DelPrice(string indexed symbol, uint256 indexed blockIndex);\n\n    mapping (string => address) private allQuotePool;// <btc/usdt,quoteAddr>\n    string[] private allSymbol;\n\n    // \n    function addQuote(string memory _symbol) public onlyOwner returns (address quoteAddr) {\n        require(allQuotePool[_symbol] == address(0), 'addQuote: Quote_EXISTS');\n        bytes memory bytecode = type(Quote).creationCode;\n        bytes32 salt = keccak256(abi.encodePacked(_symbol));\n        assembly {\n            quoteAddr := create2(0, add(bytecode, 32), mload(bytecode), salt)\n        }\n        Quote(quoteAddr).initialize(_symbol);\n        Quote(quoteAddr).transferOwnership(msg.sender);\n        allQuotePool[_symbol] = quoteAddr;        \n        allSymbol.push(_symbol);\n        emit AddQuote(quoteAddr);\n    }\n\n    // \n    function addPrice(string memory _symbol,uint256[] memory price) public onlyOwner {\n        address quoteAddr = getAddr(_symbol);\n        uint256 newprice = Quote(quoteAddr).addPrice(price);\n        emit AddPrice(_symbol, newprice);\n    } \n\n    // \n    function delPrice(string memory _symbol,uint256 blockIndex) public onlyOwner {\n        address quoteAddr = getAddr(_symbol);\n        Quote(quoteAddr).delPrice(blockIndex);\n        emit DelPrice(_symbol, blockIndex);\n    }\n\n    // \n    function getNewPrice(string memory _symbol) public view returns (uint256 blockIndex,uint256 newPrice,uint256 priceTime) {\n        address quoteAddr = getAddr(_symbol);\n        (blockIndex, newPrice, priceTime) = Quote(quoteAddr).getNewPrice();\n    }\n\n    // \n    function getLastPrice(string memory _symbol,uint256 _blockIndex) public view returns (uint256 blockIndex,uint256 newPrice,uint256 priceTime) {\n        address quoteAddr = getAddr(_symbol);\n        (blockIndex, newPrice, priceTime) = Quote(quoteAddr).getLastPrice(_blockIndex);\n    }\n\n    // \n    function getAddr(string memory _symbol) public view returns (address quoteAddr) {\n        quoteAddr = allQuotePool[_symbol];\n        require(quoteAddr != address(0), 'getAddr: Quote_NOT_EXISTS');\n    }    \n\n    function symbolLength() public view returns(uint256) {\n        return allSymbol.length;\n    }\n\n    function getSymbol(uint256 _index) public view returns(string memory) {\n        return allSymbol[_index];\n    }\n\n    function symbols() public view returns(string[] memory) {\n        return allSymbol;\n    }\n}",
  "sourcePath": "/Users/tong/Projects/drep-project/teemo-private/contracts/quote/QuoteFactory.sol",
  "compiler": {
    "name": "solc",
    "version": "0.6.12+commit.27d51765.Emscripten.clang"
  },
  "schemaVersion": "3.3.2",
  "updatedAt": "2021-01-15T12:05:33.903Z",
  "devdoc": {
    "kind": "dev",
    "methods": {
      "owner()": {
        "details": "Returns the address of the current owner."
      },
      "renounceOwnership()": {
        "details": "Leaves the contract without owner. It will not be possible to call `onlyOwner` functions anymore. Can only be called by the current owner. NOTE: Renouncing ownership will leave the contract without an owner, thereby removing any functionality that is only available to the owner."
      },
      "transferOwnership(address)": {
        "details": "Transfers ownership of the contract to a new account (`newOwner`). Can only be called by the current owner."
      }
    },
    "version": 1
  },
  "userdoc": {
    "kind": "user",
    "methods": {},
    "version": 1
  }
}