{
  "contractName": "QuoteFactory",
  "abi": [
    {
      "inputs": [],
      "stateMutability": "nonpayable",
      "type": "constructor"
    },
    {
      "anonymous": false,
      "inputs": [
        {
          "indexed": true,
          "internalType": "string",
          "name": "symbol",
          "type": "string"
        },
        {
          "indexed": true,
          "internalType": "uint256",
          "name": "newPrice",
          "type": "uint256"
        }
      ],
      "name": "AddPrice",
      "type": "event"
    },
    {
      "anonymous": false,
      "inputs": [
        {
          "indexed": true,
          "internalType": "address",
          "name": "quoteAddr",
          "type": "address"
        }
      ],
      "name": "AddQuote",
      "type": "event"
    },
    {
      "anonymous": false,
      "inputs": [
        {
          "indexed": true,
          "internalType": "string",
          "name": "symbol",
          "type": "string"
        },
        {
          "indexed": true,
          "internalType": "uint256",
          "name": "blockIndex",
          "type": "uint256"
        }
      ],
      "name": "DelPrice",
      "type": "event"
    },
    {
      "anonymous": false,
      "inputs": [
        {
          "indexed": true,
          "internalType": "address",
          "name": "previousOwner",
          "type": "address"
        },
        {
          "indexed": true,
          "internalType": "address",
          "name": "newOwner",
          "type": "address"
        }
      ],
      "name": "OwnershipTransferred",
      "type": "event"
    },
    {
      "inputs": [],
      "name": "owner",
      "outputs": [
        {
          "internalType": "address",
          "name": "",
          "type": "address"
        }
      ],
      "stateMutability": "view",
      "type": "function"
    },
    {
      "inputs": [
        {
          "internalType": "address",
          "name": "",
          "type": "address"
        }
      ],
      "name": "quoter",
      "outputs": [
        {
          "internalType": "bool",
          "name": "",
          "type": "bool"
        }
      ],
      "stateMutability": "view",
      "type": "function"
    },
    {
      "inputs": [],
      "name": "renounceOwnership",
      "outputs": [],
      "stateMutability": "nonpayable",
      "type": "function"
    },
    {
      "inputs": [
        {
          "internalType": "address",
          "name": "newOwner",
          "type": "address"
        }
      ],
      "name": "transferOwnership",
      "outputs": [],
      "stateMutability": "nonpayable",
      "type": "function"
    },
    {
      "inputs": [
        {
          "internalType": "string",
          "name": "_symbol",
          "type": "string"
        }
      ],
      "name": "addQuote",
      "outputs": [
        {
          "internalType": "address",
          "name": "quoteAddr",
          "type": "address"
        }
      ],
      "stateMutability": "nonpayable",
      "type": "function"
    },
    {
      "inputs": [
        {
          "internalType": "string",
          "name": "_symbol",
          "type": "string"
        },
        {
          "internalType": "uint256[]",
          "name": "price",
          "type": "uint256[]"
        }
      ],
      "name": "addPrice",
      "outputs": [],
      "stateMutability": "nonpayable",
      "type": "function"
    },
    {
      "inputs": [
        {
          "internalType": "string",
          "name": "_symbol",
          "type": "string"
        },
        {
          "internalType": "uint256",
          "name": "blockIndex",
          "type": "uint256"
        }
      ],
      "name": "delPrice",
      "outputs": [],
      "stateMutability": "nonpayable",
      "type": "function"
    },
    {
      "inputs": [
        {
          "internalType": "address",
          "name": "_quoter",
          "type": "address"
        }
      ],
      "name": "addQuoter",
      "outputs": [],
      "stateMutability": "nonpayable",
      "type": "function"
    },
    {
      "inputs": [
        {
          "internalType": "address",
          "name": "_quoter",
          "type": "address"
        }
      ],
      "name": "delQuoter",
      "outputs": [],
      "stateMutability": "nonpayable",
      "type": "function"
    },
    {
      "inputs": [
        {
          "internalType": "string",
          "name": "_symbol",
          "type": "string"
        }
      ],
      "name": "getNewPrice",
      "outputs": [
        {
          "internalType": "uint256",
          "name": "blockIndex",
          "type": "uint256"
        },
        {
          "internalType": "uint256",
          "name": "newPrice",
          "type": "uint256"
        },
        {
          "internalType": "uint256",
          "name": "priceTime",
          "type": "uint256"
        }
      ],
      "stateMutability": "view",
      "type": "function"
    },
    {
      "inputs": [
        {
          "internalType": "string",
          "name": "_symbol",
          "type": "string"
        },
        {
          "internalType": "uint256",
          "name": "_blockIndex",
          "type": "uint256"
        }
      ],
      "name": "getLastPrice",
      "outputs": [
        {
          "internalType": "uint256",
          "name": "blockIndex",
          "type": "uint256"
        },
        {
          "internalType": "uint256",
          "name": "newPrice",
          "type": "uint256"
        },
        {
          "internalType": "uint256",
          "name": "priceTime",
          "type": "uint256"
        }
      ],
      "stateMutability": "view",
      "type": "function"
    },
    {
      "inputs": [
        {
          "internalType": "string",
          "name": "_symbol",
          "type": "string"
        }
      ],
      "name": "getAddr",
      "outputs": [
        {
          "internalType": "address",
          "name": "quoteAddr",
          "type": "address"
        }
      ],
      "stateMutability": "view",
      "type": "function"
    },
    {
      "inputs": [],
      "name": "symbolLength",
      "outputs": [
        {
          "internalType": "uint256",
          "name": "",
          "type": "uint256"
        }
      ],
      "stateMutability": "view",
      "type": "function"
    },
    {
      "inputs": [
        {
          "internalType": "uint256",
          "name": "_index",
          "type": "uint256"
        }
      ],
      "name": "getSymbol",
      "outputs": [
        {
          "internalType": "string",
          "name": "",
          "type": "string"
        }
      ],
      "stateMutability": "view",
      "type": "function"
    },
    {
      "inputs": [],
      "name": "symbols",
      "outputs": [
        {
          "internalType": "string[]",
          "name": "",
          "type": "string[]"
        }
      ],
      "stateMutability": "view",
      "type": "function"
    }
  ],
  "bytecode": "0x608060405234801561001057600080fd5b50600061002161011c60201b60201c565b9050806000806101000a81548173ffffffffffffffffffffffffffffffffffffffff021916908373ffffffffffffffffffffffffffffffffffffffff1602179055508073ffffffffffffffffffffffffffffffffffffffff16600073ffffffffffffffffffffffffffffffffffffffff167f8be0079c531659141344cd1fd0a4f28419497f9722a3daafe3b4186f6b6457e060405160405180910390a3506001600360003373ffffffffffffffffffffffffffffffffffffffff1673ffffffffffffffffffffffffffffffffffffffff16815260200190815260200160002060006101000a81548160ff021916908315150217905550610124565b600033905090565b612e64806101336000396000f3fe60806040523480156200001157600080fd5b50600436106200010c5760003560e01c80638da5cb5b11620000a5578063d502db97116200006f578063d502db9714620002bb578063e8084a8714620002f1578063f2fde38b1462000329578063fc0fc6db1462000349576200010c565b80638da5cb5b146200020b578063a7da74f8146200022d578063d053dd6e146200024d578063d4a06b871462000283576200010c565b80636418413c11620000e75780636418413c1462000173578063715018a614620001a957806377c3139014620001b5578063849562bd14620001eb576200010c565b806307039ff914620001115780632fb5c98814620001335780633c50bcd71462000153575b600080fd5b6200011b6200036b565b6040516200012a919062001a3a565b60405180910390f35b6200015160048036038101906200014b91906200146a565b6200045a565b005b6200017160048036038101906200016b9190620014db565b6200054f565b005b6200019160048036038101906200018b9190620015a8565b620006d4565b604051620001a0919062001a9f565b60405180910390f35b620001b362000792565b005b620001d36004803603810190620001cd91906200146a565b620008ea565b604051620001e2919062001a82565b60405180910390f35b6200020960048036038101906200020391906200154e565b6200090a565b005b6200021562000a68565b60405162000224919062001a1d565b60405180910390f35b6200024b60048036038101906200024591906200146a565b62000a91565b005b6200026b600480360381019062000265919062001496565b62000b86565b6040516200027a919062001a1d565b60405180910390f35b620002a160048036038101906200029b91906200154e565b62000e8d565b604051620002b29392919062001b8a565b60405180910390f35b620002d96004803603810190620002d3919062001496565b62000f43565b604051620002e8919062001a1d565b60405180910390f35b6200030f600480360381019062000309919062001496565b62001000565b604051620003209392919062001b8a565b60405180910390f35b6200034760048036038101906200034191906200146a565b620010a9565b005b6200035362001273565b60405162000362919062001b6d565b60405180910390f35b60606002805480602002602001604051908101604052809291908181526020016000905b8282101562000451578382906000526020600020018054600181600116156101000203166002900480601f0160208091040260200160405190810160405280929190818152602001828054600181600116156101000203166002900480156200043c5780601f1062000410576101008083540402835291602001916200043c565b820191906000526020600020905b8154815290600101906020018083116200041e57829003601f168201915b5050505050815260200190600101906200038f565b50505050905090565b6200046462001280565b73ffffffffffffffffffffffffffffffffffffffff1660008054906101000a900473ffffffffffffffffffffffffffffffffffffffff1673ffffffffffffffffffffffffffffffffffffffff1614620004f4576040517f08c379a0000000000000000000000000000000000000000000000000000000008152600401620004eb9062001b29565b60405180910390fd5b6000600360008373ffffffffffffffffffffffffffffffffffffffff1673ffffffffffffffffffffffffffffffffffffffff16815260200190815260200160002060006101000a81548160ff02191690831515021790555050565b60011515600360003373ffffffffffffffffffffffffffffffffffffffff1673ffffffffffffffffffffffffffffffffffffffff16815260200190815260200160002060009054906101000a900460ff16151514620005e5576040517f08c379a0000000000000000000000000000000000000000000000000000000008152600401620005dc9062001b4b565b60405180910390fd5b6000620005f28362000f43565b905060008173ffffffffffffffffffffffffffffffffffffffff1663f6ed06a4846040518263ffffffff1660e01b815260040162000631919062001a5e565b602060405180830381600087803b1580156200064c57600080fd5b505af115801562000661573d6000803e3d6000fd5b505050506040513d601f19601f82011682018060405250810190620006879190620015d4565b905080846040516200069a919062001a04565b60405180910390207f23239e357550227dee169e4dc7ea1e83fee2e773c179541e55254b1bd8c89c8360405160405180910390a350505050565b606060028281548110620006e457fe5b906000526020600020018054600181600116156101000203166002900480601f016020809104026020016040519081016040528092919081815260200182805460018160011615610100020316600290048015620007865780601f106200075a5761010080835404028352916020019162000786565b820191906000526020600020905b8154815290600101906020018083116200076857829003601f168201915b50505050509050919050565b6200079c62001280565b73ffffffffffffffffffffffffffffffffffffffff1660008054906101000a900473ffffffffffffffffffffffffffffffffffffffff1673ffffffffffffffffffffffffffffffffffffffff16146200082c576040517f08c379a0000000000000000000000000000000000000000000000000000000008152600401620008239062001b29565b60405180910390fd5b600073ffffffffffffffffffffffffffffffffffffffff1660008054906101000a900473ffffffffffffffffffffffffffffffffffffffff1673ffffffffffffffffffffffffffffffffffffffff167f8be0079c531659141344cd1fd0a4f28419497f9722a3daafe3b4186f6b6457e060405160405180910390a360008060006101000a81548173ffffffffffffffffffffffffffffffffffffffff021916908373ffffffffffffffffffffffffffffffffffffffff160217905550565b60036020528060005260406000206000915054906101000a900460ff1681565b60011515600360003373ffffffffffffffffffffffffffffffffffffffff1673ffffffffffffffffffffffffffffffffffffffff16815260200190815260200160002060009054906101000a900460ff16151514620009a0576040517f08c379a0000000000000000000000000000000000000000000000000000000008152600401620009979062001b4b565b60405180910390fd5b6000620009ad8362000f43565b90508073ffffffffffffffffffffffffffffffffffffffff1663aecaa316836040518263ffffffff1660e01b8152600401620009ea919062001b6d565b600060405180830381600087803b15801562000a0557600080fd5b505af115801562000a1a573d6000803e3d6000fd5b50505050818360405162000a2f919062001a04565b60405180910390207fbd5fbdde228050934cb50cbee0dd68a95f2a21c04959d430e30c3be3b236730d60405160405180910390a3505050565b60008060009054906101000a900473ffffffffffffffffffffffffffffffffffffffff16905090565b62000a9b62001280565b73ffffffffffffffffffffffffffffffffffffffff1660008054906101000a900473ffffffffffffffffffffffffffffffffffffffff1673ffffffffffffffffffffffffffffffffffffffff161462000b2b576040517f08c379a000000000000000000000000000000000000000000000000000000000815260040162000b229062001b29565b60405180910390fd5b6001600360008373ffffffffffffffffffffffffffffffffffffffff1673ffffffffffffffffffffffffffffffffffffffff16815260200190815260200160002060006101000a81548160ff02191690831515021790555050565b600062000b9262001280565b73ffffffffffffffffffffffffffffffffffffffff1660008054906101000a900473ffffffffffffffffffffffffffffffffffffffff1673ffffffffffffffffffffffffffffffffffffffff161462000c22576040517f08c379a000000000000000000000000000000000000000000000000000000000815260040162000c199062001b29565b60405180910390fd5b600073ffffffffffffffffffffffffffffffffffffffff1660018360405162000c4c919062001a04565b908152602001604051809103902060009054906101000a900473ffffffffffffffffffffffffffffffffffffffff1673ffffffffffffffffffffffffffffffffffffffff161462000cd4576040517f08c379a000000000000000000000000000000000000000000000000000000000815260040162000ccb9062001b07565b60405180910390fd5b60606040518060200162000ce89062001288565b6020820181038252601f19601f82011660405250905060008360405160200162000d13919062001a04565b604051602081830303815290604052805190602001209050808251602084016000f592508273ffffffffffffffffffffffffffffffffffffffff1663f62d1888856040518263ffffffff1660e01b815260040162000d72919062001a9f565b600060405180830381600087803b15801562000d8d57600080fd5b505af115801562000da2573d6000803e3d6000fd5b505050508260018560405162000db9919062001a04565b908152602001604051809103902060006101000a81548173ffffffffffffffffffffffffffffffffffffffff021916908373ffffffffffffffffffffffffffffffffffffffff16021790555060028490806001815401808255809150506001900390600052602060002001600090919091909150908051906020019062000e4292919062001296565b508273ffffffffffffffffffffffffffffffffffffffff167f8d8c05992df8d984daec5ec2f26c66798cff86409636b8e53d3b9ecd165b12af60405160405180910390a25050919050565b60008060008062000e9e8662000f43565b90508073ffffffffffffffffffffffffffffffffffffffff166365fa2f7f866040518263ffffffff1660e01b815260040162000edb919062001b6d565b60606040518083038186803b15801562000ef457600080fd5b505afa15801562000f09573d6000803e3d6000fd5b505050506040513d601f19601f8201168201806040525081019062000f2f919062001600565b809450819550829650505050509250925092565b600060018260405162000f57919062001a04565b908152602001604051809103902060009054906101000a900473ffffffffffffffffffffffffffffffffffffffff169050600073ffffffffffffffffffffffffffffffffffffffff168173ffffffffffffffffffffffffffffffffffffffff16141562000ffb576040517f08c379a000000000000000000000000000000000000000000000000000000000815260040162000ff29062001ae5565b60405180910390fd5b919050565b600080600080620010118562000f43565b90508073ffffffffffffffffffffffffffffffffffffffff1663a7b08aec6040518163ffffffff1660e01b815260040160606040518083038186803b1580156200105a57600080fd5b505afa1580156200106f573d6000803e3d6000fd5b505050506040513d601f19601f8201168201806040525081019062001095919062001600565b809450819550829650505050509193909250565b620010b362001280565b73ffffffffffffffffffffffffffffffffffffffff1660008054906101000a900473ffffffffffffffffffffffffffffffffffffffff1673ffffffffffffffffffffffffffffffffffffffff161462001143576040517f08c379a00000000000000000000000000000000000000000000000000000000081526004016200113a9062001b29565b60405180910390fd5b600073ffffffffffffffffffffffffffffffffffffffff168173ffffffffffffffffffffffffffffffffffffffff161415620011b6576040517f08c379a0000000000000000000000000000000000000000000000000000000008152600401620011ad9062001ac3565b60405180910390fd5b8073ffffffffffffffffffffffffffffffffffffffff1660008054906101000a900473ffffffffffffffffffffffffffffffffffffffff1673ffffffffffffffffffffffffffffffffffffffff167f8be0079c531659141344cd1fd0a4f28419497f9722a3daafe3b4186f6b6457e060405160405180910390a3806000806101000a81548173ffffffffffffffffffffffffffffffffffffffff021916908373ffffffffffffffffffffffffffffffffffffffff16021790555050565b6000600280549050905090565b600033905090565b6110658062001dca83390190565b828054600181600116156101000203166002900490600052602060002090601f016020900481019282601f10620012d957805160ff19168380011785556200130a565b828001600101855582156200130a579182015b8281111562001309578251825591602001919060010190620012ec565b5b5090506200131991906200131d565b5090565b5b80821115620013385760008160009055506001016200131e565b5090565b6000813590506200134d8162001d95565b92915050565b600082601f8301126200136557600080fd5b81356200137c620013768262001bf5565b62001bc7565b91508181835260208401935060208101905083856020840282011115620013a257600080fd5b60005b83811015620013d65781620013bb88826200143c565b845260208401935060208301925050600181019050620013a5565b5050505092915050565b600082601f830112620013f257600080fd5b813562001409620014038262001c1e565b62001bc7565b915080825260208301602083018583830111156200142657600080fd5b6200143383828462001d3f565b50505092915050565b6000813590506200144d8162001daf565b92915050565b600081519050620014648162001daf565b92915050565b6000602082840312156200147d57600080fd5b60006200148d848285016200133c565b91505092915050565b600060208284031215620014a957600080fd5b600082013567ffffffffffffffff811115620014c457600080fd5b620014d284828501620013e0565b91505092915050565b60008060408385031215620014ef57600080fd5b600083013567ffffffffffffffff8111156200150a57600080fd5b6200151885828601620013e0565b925050602083013567ffffffffffffffff8111156200153657600080fd5b620015448582860162001353565b9150509250929050565b600080604083850312156200156257600080fd5b600083013567ffffffffffffffff8111156200157d57600080fd5b6200158b85828601620013e0565b92505060206200159e858286016200143c565b9150509250929050565b600060208284031215620015bb57600080fd5b6000620015cb848285016200143c565b91505092915050565b600060208284031215620015e757600080fd5b6000620015f78482850162001453565b91505092915050565b6000806000606084860312156200161657600080fd5b6000620016268682870162001453565b9350506020620016398682870162001453565b92505060406200164c8682870162001453565b9150509250925092565b600062001664838362001793565b905092915050565b60006200167a8383620019e2565b60208301905092915050565b620016918162001cf5565b82525050565b6000620016a48262001c6b565b620016b0818562001ca6565b935083602082028501620016c48562001c4b565b8060005b85811015620017065784840389528151620016e4858262001656565b9450620016f18362001c8c565b925060208a01995050600181019050620016c8565b50829750879550505050505092915050565b6000620017258262001c76565b62001731818562001cb7565b93506200173e8362001c5b565b8060005b83811015620017755781516200175988826200166c565b9750620017668362001c99565b92505060018101905062001742565b5085935050505092915050565b6200178d8162001d09565b82525050565b6000620017a08262001c81565b620017ac818562001cc8565b9350620017be81856020860162001d4e565b620017c98162001d84565b840191505092915050565b6000620017e18262001c81565b620017ed818562001cd9565b9350620017ff81856020860162001d4e565b6200180a8162001d84565b840191505092915050565b6000620018228262001c81565b6200182e818562001cea565b93506200184081856020860162001d4e565b80840191505092915050565b60006200185b60268362001cd9565b91507f4f776e61626c653a206e6577206f776e657220697320746865207a65726f206160008301527f64647265737300000000000000000000000000000000000000000000000000006020830152604082019050919050565b6000620018c360198362001cd9565b91507f676574416464723a2051756f74655f4e4f545f455849535453000000000000006000830152602082019050919050565b60006200190560168362001cd9565b91507f61646451756f74653a2051756f74655f455849535453000000000000000000006000830152602082019050919050565b60006200194760208362001cd9565b91507f4f776e61626c653a2063616c6c6572206973206e6f7420746865206f776e65726000830152602082019050919050565b60006200198960218362001cd9565b91507f4f776e61626c653a2063616c6c6572206973206e6f74207468652071756f746560008301527f72000000000000000000000000000000000000000000000000000000000000006020830152604082019050919050565b620019ed8162001d35565b82525050565b620019fe8162001d35565b82525050565b600062001a12828462001815565b915081905092915050565b600060208201905062001a34600083018462001686565b92915050565b6000602082019050818103600083015262001a56818462001697565b905092915050565b6000602082019050818103600083015262001a7a818462001718565b905092915050565b600060208201905062001a99600083018462001782565b92915050565b6000602082019050818103600083015262001abb8184620017d4565b905092915050565b6000602082019050818103600083015262001ade816200184c565b9050919050565b6000602082019050818103600083015262001b0081620018b4565b9050919050565b6000602082019050818103600083015262001b2281620018f6565b9050919050565b6000602082019050818103600083015262001b448162001938565b9050919050565b6000602082019050818103600083015262001b66816200197a565b9050919050565b600060208201905062001b846000830184620019f3565b92915050565b600060608201905062001ba16000830186620019f3565b62001bb06020830185620019f3565b62001bbf6040830184620019f3565b949350505050565b6000604051905081810181811067ffffffffffffffff8211171562001beb57600080fd5b8060405250919050565b600067ffffffffffffffff82111562001c0d57600080fd5b602082029050602081019050919050565b600067ffffffffffffffff82111562001c3657600080fd5b601f19601f8301169050602081019050919050565b6000819050602082019050919050565b6000819050602082019050919050565b600081519050919050565b600081519050919050565b600081519050919050565b6000602082019050919050565b6000602082019050919050565b600082825260208201905092915050565b600082825260208201905092915050565b600082825260208201905092915050565b600082825260208201905092915050565b600081905092915050565b600062001d028262001d15565b9050919050565b60008115159050919050565b600073ffffffffffffffffffffffffffffffffffffffff82169050919050565b6000819050919050565b82818337600083830152505050565b60005b8381101562001d6e57808201518184015260208101905062001d51565b8381111562001d7e576000848401525b50505050565b6000601f19601f8301169050919050565b62001da08162001cf5565b811462001dac57600080fd5b50565b62001dba8162001d35565b811462001dc657600080fd5b5056fe608060405234801561001057600080fd5b5060006100216100cc60201b60201c565b9050806000806101000a81548173ffffffffffffffffffffffffffffffffffffffff021916908373ffffffffffffffffffffffffffffffffffffffff1602179055508073ffffffffffffffffffffffffffffffffffffffff16600073ffffffffffffffffffffffffffffffffffffffff167f8be0079c531659141344cd1fd0a4f28419497f9722a3daafe3b4186f6b6457e060405160405180910390a35060006002819055506100d4565b600033905090565b610f82806100e36000396000f3fe608060405234801561001057600080fd5b50600436106100b45760003560e01c806395d89b411161007157806395d89b41146101d3578063a7b08aec14610256578063aecaa31614610282578063f2fde38b146102b0578063f62d1888146102f4578063f6ed06a4146103af576100b4565b806322f3c5c6146100b95780632e06d401146100de57806365fa2f7f146101275780636b6709b514610177578063715018a6146101955780638da5cb5b1461019f575b600080fd5b6100c161047b565b604051808381526020018281526020019250505060405180910390f35b61010a600480360360208110156100f457600080fd5b810190808035906020019092919050505061048d565b604051808381526020018281526020019250505060405180910390f35b6101536004803603602081101561013d57600080fd5b81019080803590602001909291905050506104b1565b60405180848152602001838152602001828152602001935050505060405180910390f35b61017f61050b565b6040518082815260200191505060405180910390f35b61019d610511565b005b6101a7610697565b604051808273ffffffffffffffffffffffffffffffffffffffff16815260200191505060405180910390f35b6101db6106c0565b6040518080602001828103825283818151815260200191508051906020019080838360005b8381101561021b578082015181840152602081019050610200565b50505050905090810190601f1680156102485780820380516001836020036101000a031916815260200191505b509250505060405180910390f35b61025e61075e565b60405180848152602001838152602001828152602001935050505060405180910390f35b6102ae6004803603602081101561029857600080fd5b810190808035906020019092919050505061077d565b005b6102f2600480360360208110156102c657600080fd5b81019080803573ffffffffffffffffffffffffffffffffffffffff16906020019092919050505061086e565b005b6103ad6004803603602081101561030a57600080fd5b810190808035906020019064010000000081111561032757600080fd5b82018360208201111561033957600080fd5b8035906020019184600183028401116401000000008311171561035b57600080fd5b91908080601f016020809104026020016040519081016040528093929190818152602001838380828437600081840152601f19601f820116905080830192505050505050509192919290505050610a79565b005b610465600480360360208110156103c557600080fd5b81019080803590602001906401000000008111156103e257600080fd5b8201836020820111156103f457600080fd5b8035906020019184602083028401116401000000008311171561041657600080fd5b919080806020026020016040519081016040528093929190818152602001838360200280828437600081840152601f19601f820116905080830192505050505050509192919290505050610b5b565b6040518082815260200191505060405180910390f35b60038060000154908060010154905082565b60056020528060005260406000206000915090508060000154908060010154905082565b60008060006104be610e6f565b600560008581526020019081526020016000206040518060400160405290816000820154815260200160018201548152505090508493508060000151925080602001519150509193909250565b60025481565b610519610c97565b73ffffffffffffffffffffffffffffffffffffffff1660008054906101000a900473ffffffffffffffffffffffffffffffffffffffff1673ffffffffffffffffffffffffffffffffffffffff16146105d9576040517f08c379a00000000000000000000000000000000000000000000000000000000081526004018080602001828103825260208152602001807f4f776e61626c653a2063616c6c6572206973206e6f7420746865206f776e657281525060200191505060405180910390fd5b600073ffffffffffffffffffffffffffffffffffffffff1660008054906101000a900473ffffffffffffffffffffffffffffffffffffffff1673ffffffffffffffffffffffffffffffffffffffff167f8be0079c531659141344cd1fd0a4f28419497f9722a3daafe3b4186f6b6457e060405160405180910390a360008060006101000a81548173ffffffffffffffffffffffffffffffffffffffff021916908373ffffffffffffffffffffffffffffffffffffffff160217905550565b60008060009054906101000a900473ffffffffffffffffffffffffffffffffffffffff16905090565b60018054600181600116156101000203166002900480601f0160208091040260200160405190810160405280929190818152602001828054600181600116156101000203166002900480156107565780601f1061072b57610100808354040283529160200191610756565b820191906000526020600020905b81548152906001019060200180831161073957829003601f168201915b505050505081565b6000806000600254925060036000015491506003600101549050909192565b610785610c97565b73ffffffffffffffffffffffffffffffffffffffff1660008054906101000a900473ffffffffffffffffffffffffffffffffffffffff1673ffffffffffffffffffffffffffffffffffffffff1614610845576040517f08c379a00000000000000000000000000000000000000000000000000000000081526004018080602001828103825260208152602001807f4f776e61626c653a2063616c6c6572206973206e6f7420746865206f776e657281525060200191505060405180910390fd5b600560008281526020019081526020016000206000808201600090556001820160009055505050565b610876610c97565b73ffffffffffffffffffffffffffffffffffffffff1660008054906101000a900473ffffffffffffffffffffffffffffffffffffffff1673ffffffffffffffffffffffffffffffffffffffff1614610936576040517f08c379a00000000000000000000000000000000000000000000000000000000081526004018080602001828103825260208152602001807f4f776e61626c653a2063616c6c6572206973206e6f7420746865206f776e657281525060200191505060405180910390fd5b600073ffffffffffffffffffffffffffffffffffffffff168173ffffffffffffffffffffffffffffffffffffffff1614156109bc576040517f08c379a0000000000000000000000000000000000000000000000000000000008152600401808060200182810382526026815260200180610f276026913960400191505060405180910390fd5b8073ffffffffffffffffffffffffffffffffffffffff1660008054906101000a900473ffffffffffffffffffffffffffffffffffffffff1673ffffffffffffffffffffffffffffffffffffffff167f8be0079c531659141344cd1fd0a4f28419497f9722a3daafe3b4186f6b6457e060405160405180910390a3806000806101000a81548173ffffffffffffffffffffffffffffffffffffffff021916908373ffffffffffffffffffffffffffffffffffffffff16021790555050565b610a81610c97565b73ffffffffffffffffffffffffffffffffffffffff1660008054906101000a900473ffffffffffffffffffffffffffffffffffffffff1673ffffffffffffffffffffffffffffffffffffffff1614610b41576040517f08c379a00000000000000000000000000000000000000000000000000000000081526004018080602001828103825260208152602001807f4f776e61626c653a2063616c6c6572206973206e6f7420746865206f776e657281525060200191505060405180910390fd5b8060019080519060200190610b57929190610e89565b5050565b6000610b65610c97565b73ffffffffffffffffffffffffffffffffffffffff1660008054906101000a900473ffffffffffffffffffffffffffffffffffffffff1673ffffffffffffffffffffffffffffffffffffffff1614610c25576040517f08c379a00000000000000000000000000000000000000000000000000000000081526004018080602001828103825260208152602001807f4f776e61626c653a2063616c6c6572206973206e6f7420746865206f776e657281525060200191505060405180910390fd5b6000825111610c3357600080fd5b6000805b8351811015610c6b576000848281518110610c4e57fe5b602002602001015190508083019250508080600101915050610c37565b506000610c82845183610c9f90919063ffffffff16565b9050610c8d81610ce9565b8092505050919050565b600033905090565b6000610ce183836040518060400160405280601a81526020017f536166654d6174683a206469766973696f6e206279207a65726f000000000000815250610da9565b905092915050565b60008111610d5f576040517f08c379a00000000000000000000000000000000000000000000000000000000081526004018080602001828103825260148152602001807f70726963652063616e6e6f74206265207a65726f00000000000000000000000081525060200191505060405180910390fd5b806003600001819055504260036001018190555060036005600043815260200190815260200160002060008201548160000155600182015481600101559050504360028190555050565b60008083118290610e55576040517f08c379a00000000000000000000000000000000000000000000000000000000081526004018080602001828103825283818151815260200191508051906020019080838360005b83811015610e1a578082015181840152602081019050610dff565b50505050905090810190601f168015610e475780820380516001836020036101000a031916815260200191505b509250505060405180910390fd5b506000838581610e6157fe5b049050809150509392505050565b604051806040016040528060008152602001600081525090565b828054600181600116156101000203166002900490600052602060002090601f016020900481019282601f10610eca57805160ff1916838001178555610ef8565b82800160010185558215610ef8579182015b82811115610ef7578251825591602001919060010190610edc565b5b509050610f059190610f09565b5090565b5b80821115610f22576000816000905550600101610f0a565b509056fe4f776e61626c653a206e6577206f776e657220697320746865207a65726f2061646472657373a26469706673582212207ec60c19aeaeee7736d88b1c34f3c53155181d5b1ef26f6ce288f0344e5df76764736f6c634300060c0033a2646970667358221220d07ed017a86b83b9f9728a87390d19c599b5a0cd09502b9f698d43f0e5c1fcfb64736f6c634300060c0033",
  "immutableReferences": {},
  "source": "// SPDX-License-Identifier: MIT\n\npragma solidity 0.6.12;\npragma experimental ABIEncoderV2;\n\nimport \"../openzeppelin/contracts/math/SafeMath.sol\";\nimport \"../openzeppelin/contracts/access/Ownable.sol\";\nimport \"./Quote.sol\";\n\ncontract QuoteFactory is Ownable {\n    using SafeMath for uint256;\n\n    event AddQuote(address indexed quoteAddr);\n    event AddPrice(string indexed symbol, uint256 indexed newPrice);\n    event DelPrice(string indexed symbol, uint256 indexed blockIndex);\n\n    mapping (string => address) private allQuotePool;// <btc/usdt,quoteAddr>\n    string[] private allSymbol;\n\n    mapping(address=>bool) public quoter;\n\n    modifier onlyQuoter() {\n        require(quoter[msg.sender] == true, \"Ownable: caller is not the quoter\");\n        _;\n    }\n    constructor() public {\n        quoter[msg.sender] = true;\n    }\n    // \n    function addQuote(string memory _symbol) public onlyOwner returns (address quoteAddr) {\n        require(allQuotePool[_symbol] == address(0), 'addQuote: Quote_EXISTS');\n        bytes memory bytecode = type(Quote).creationCode;\n        bytes32 salt = keccak256(abi.encodePacked(_symbol));\n        assembly {\n            quoteAddr := create2(0, add(bytecode, 32), mload(bytecode), salt)\n        }\n        Quote(quoteAddr).initialize(_symbol);\n        // Quote(quoteAddr).transferOwnership(msg.sender);\n        allQuotePool[_symbol] = quoteAddr;        \n        allSymbol.push(_symbol);\n        emit AddQuote(quoteAddr);\n    }\n\n    // \n    function addPrice(string memory _symbol,uint256[] memory price) public onlyQuoter {\n        address quoteAddr = getAddr(_symbol);\n        uint256 newprice = Quote(quoteAddr).addPrice(price);\n        emit AddPrice(_symbol, newprice);\n    } \n\n    // \n    function delPrice(string memory _symbol,uint256 blockIndex) public onlyQuoter {\n        address quoteAddr = getAddr(_symbol);\n        Quote(quoteAddr).delPrice(blockIndex);\n        emit DelPrice(_symbol, blockIndex);\n    }\n\n    // \n    function addQuoter(address _quoter) public onlyOwner {\n        quoter[_quoter] = true;\n    }\n\n    // \n    function delQuoter(address _quoter) public onlyOwner {\n        quoter[_quoter] = false;\n    }\n\n    // \n    function getNewPrice(string memory _symbol) public view returns (uint256 blockIndex,uint256 newPrice,uint256 priceTime) {\n        address quoteAddr = getAddr(_symbol);\n        (blockIndex, newPrice, priceTime) = Quote(quoteAddr).getNewPrice();\n    }\n\n    // \n    function getLastPrice(string memory _symbol,uint256 _blockIndex) public view returns (uint256 blockIndex,uint256 newPrice,uint256 priceTime) {\n        address quoteAddr = getAddr(_symbol);\n        (blockIndex, newPrice, priceTime) = Quote(quoteAddr).getLastPrice(_blockIndex);\n    }\n\n    // \n    function getAddr(string memory _symbol) public view returns (address quoteAddr) {\n        quoteAddr = allQuotePool[_symbol];\n        require(quoteAddr != address(0), 'getAddr: Quote_NOT_EXISTS');\n    }    \n\n    function symbolLength() public view returns(uint256) {\n        return allSymbol.length;\n    }\n\n    function getSymbol(uint256 _index) public view returns(string memory) {\n        return allSymbol[_index];\n    }\n\n    function symbols() public view returns(string[] memory) {\n        return allSymbol;\n    }\n}",
  "sourcePath": "/Users/tong/Projects/drep-project/teemo-private/contracts/quote/QuoteFactory.sol",
  "compiler": {
    "name": "solc",
    "version": "0.6.12+commit.27d51765.Emscripten.clang"
  },
  "schemaVersion": "3.3.2",
  "updatedAt": "2021-01-20T10:30:15.495Z",
  "devdoc": {
    "kind": "dev",
    "methods": {
      "owner()": {
        "details": "Returns the address of the current owner."
      },
      "renounceOwnership()": {
        "details": "Leaves the contract without owner. It will not be possible to call `onlyOwner` functions anymore. Can only be called by the current owner. NOTE: Renouncing ownership will leave the contract without an owner, thereby removing any functionality that is only available to the owner."
      },
      "transferOwnership(address)": {
        "details": "Transfers ownership of the contract to a new account (`newOwner`). Can only be called by the current owner."
      }
    },
    "version": 1
  },
  "userdoc": {
    "kind": "user",
    "methods": {},
    "version": 1
  }
}