{
  "contractName": "SwapTrade",
  "abi": [
    {
      "anonymous": false,
      "inputs": [
        {
          "indexed": true,
          "internalType": "address",
          "name": "previousOwner",
          "type": "address"
        },
        {
          "indexed": true,
          "internalType": "address",
          "name": "newOwner",
          "type": "address"
        }
      ],
      "name": "OwnershipTransferred",
      "type": "event"
    },
    {
      "inputs": [
        {
          "internalType": "bytes32",
          "name": "",
          "type": "bytes32"
        }
      ],
      "name": "allLimitOrderHash",
      "outputs": [
        {
          "internalType": "address",
          "name": "userAddr",
          "type": "address"
        },
        {
          "internalType": "string",
          "name": "symbol",
          "type": "string"
        },
        {
          "internalType": "uint256",
          "name": "tokenAmount",
          "type": "uint256"
        },
        {
          "internalType": "uint256",
          "name": "lever",
          "type": "uint256"
        },
        {
          "internalType": "uint256",
          "name": "bsFlag",
          "type": "uint256"
        },
        {
          "internalType": "uint256",
          "name": "openPrice",
          "type": "uint256"
        },
        {
          "internalType": "uint256",
          "name": "openTime",
          "type": "uint256"
        },
        {
          "internalType": "uint256",
          "name": "newPrice",
          "type": "uint256"
        },
        {
          "internalType": "uint256",
          "name": "pLimitPrice",
          "type": "uint256"
        },
        {
          "internalType": "uint256",
          "name": "lLimitPrice",
          "type": "uint256"
        },
        {
          "internalType": "uint256",
          "name": "closeTime",
          "type": "uint256"
        },
        {
          "internalType": "uint256",
          "name": "status",
          "type": "uint256"
        }
      ],
      "stateMutability": "view",
      "type": "function"
    },
    {
      "inputs": [
        {
          "internalType": "address",
          "name": "",
          "type": "address"
        },
        {
          "internalType": "uint256",
          "name": "",
          "type": "uint256"
        }
      ],
      "name": "allLimitOrderUser",
      "outputs": [
        {
          "internalType": "bytes32",
          "name": "",
          "type": "bytes32"
        }
      ],
      "stateMutability": "view",
      "type": "function"
    },
    {
      "inputs": [
        {
          "internalType": "bytes32",
          "name": "",
          "type": "bytes32"
        }
      ],
      "name": "allOrderHash",
      "outputs": [
        {
          "internalType": "address",
          "name": "userAddr",
          "type": "address"
        },
        {
          "internalType": "string",
          "name": "symbol",
          "type": "string"
        },
        {
          "internalType": "uint256",
          "name": "tokenAmount",
          "type": "uint256"
        },
        {
          "internalType": "uint256",
          "name": "lever",
          "type": "uint256"
        },
        {
          "internalType": "uint256",
          "name": "bsFlag",
          "type": "uint256"
        },
        {
          "internalType": "uint256",
          "name": "openPrice",
          "type": "uint256"
        },
        {
          "internalType": "uint256",
          "name": "openTime",
          "type": "uint256"
        },
        {
          "internalType": "uint256",
          "name": "pLimitPrice",
          "type": "uint256"
        },
        {
          "internalType": "uint256",
          "name": "lLimitPrice",
          "type": "uint256"
        },
        {
          "internalType": "uint256",
          "name": "closePrice",
          "type": "uint256"
        },
        {
          "internalType": "uint256",
          "name": "closeTime",
          "type": "uint256"
        }
      ],
      "stateMutability": "view",
      "type": "function"
    },
    {
      "inputs": [
        {
          "internalType": "address",
          "name": "",
          "type": "address"
        },
        {
          "internalType": "uint256",
          "name": "",
          "type": "uint256"
        }
      ],
      "name": "allOrderUser",
      "outputs": [
        {
          "internalType": "bytes32",
          "name": "",
          "type": "bytes32"
        }
      ],
      "stateMutability": "view",
      "type": "function"
    },
    {
      "inputs": [],
      "name": "owner",
      "outputs": [
        {
          "internalType": "address",
          "name": "",
          "type": "address"
        }
      ],
      "stateMutability": "view",
      "type": "function"
    },
    {
      "inputs": [],
      "name": "poolAddr",
      "outputs": [
        {
          "internalType": "address",
          "name": "",
          "type": "address"
        }
      ],
      "stateMutability": "view",
      "type": "function"
    },
    {
      "inputs": [],
      "name": "quoteFactoryAddr",
      "outputs": [
        {
          "internalType": "address",
          "name": "",
          "type": "address"
        }
      ],
      "stateMutability": "view",
      "type": "function"
    },
    {
      "inputs": [],
      "name": "renounceOwnership",
      "outputs": [],
      "stateMutability": "nonpayable",
      "type": "function"
    },
    {
      "inputs": [],
      "name": "tokenAddr",
      "outputs": [
        {
          "internalType": "address",
          "name": "",
          "type": "address"
        }
      ],
      "stateMutability": "view",
      "type": "function"
    },
    {
      "inputs": [
        {
          "internalType": "address",
          "name": "newOwner",
          "type": "address"
        }
      ],
      "name": "transferOwnership",
      "outputs": [],
      "stateMutability": "nonpayable",
      "type": "function"
    },
    {
      "inputs": [
        {
          "internalType": "address",
          "name": "_tokenAddr",
          "type": "address"
        },
        {
          "internalType": "address",
          "name": "_poolAddr",
          "type": "address"
        }
      ],
      "name": "initialize",
      "outputs": [],
      "stateMutability": "nonpayable",
      "type": "function"
    },
    {
      "inputs": [
        {
          "internalType": "address",
          "name": "_userAddress",
          "type": "address"
        }
      ],
      "name": "orderLength",
      "outputs": [
        {
          "internalType": "uint256",
          "name": "",
          "type": "uint256"
        }
      ],
      "stateMutability": "view",
      "type": "function"
    },
    {
      "inputs": [
        {
          "internalType": "address",
          "name": "_userAddress",
          "type": "address"
        }
      ],
      "name": "limitOrderLength",
      "outputs": [
        {
          "internalType": "uint256",
          "name": "",
          "type": "uint256"
        }
      ],
      "stateMutability": "view",
      "type": "function"
    },
    {
      "inputs": [
        {
          "internalType": "address",
          "name": "_userAddress",
          "type": "address"
        },
        {
          "internalType": "uint8",
          "name": "status",
          "type": "uint8"
        }
      ],
      "name": "getAllOrder",
      "outputs": [
        {
          "internalType": "bytes32[]",
          "name": "orderIds",
          "type": "bytes32[]"
        },
        {
          "components": [
            {
              "internalType": "address",
              "name": "userAddr",
              "type": "address"
            },
            {
              "internalType": "string",
              "name": "symbol",
              "type": "string"
            },
            {
              "internalType": "uint256",
              "name": "tokenAmount",
              "type": "uint256"
            },
            {
              "internalType": "uint256",
              "name": "lever",
              "type": "uint256"
            },
            {
              "internalType": "uint256",
              "name": "bsFlag",
              "type": "uint256"
            },
            {
              "internalType": "uint256",
              "name": "openPrice",
              "type": "uint256"
            },
            {
              "internalType": "uint256",
              "name": "openTime",
              "type": "uint256"
            },
            {
              "internalType": "uint256",
              "name": "pLimitPrice",
              "type": "uint256"
            },
            {
              "internalType": "uint256",
              "name": "lLimitPrice",
              "type": "uint256"
            },
            {
              "internalType": "uint256",
              "name": "closePrice",
              "type": "uint256"
            },
            {
              "internalType": "uint256",
              "name": "closeTime",
              "type": "uint256"
            }
          ],
          "internalType": "struct SwapTrade.SwapOrder[]",
          "name": "orders",
          "type": "tuple[]"
        }
      ],
      "stateMutability": "view",
      "type": "function"
    },
    {
      "inputs": [
        {
          "internalType": "address",
          "name": "_userAddress",
          "type": "address"
        },
        {
          "internalType": "uint8",
          "name": "status",
          "type": "uint8"
        }
      ],
      "name": "getAllLimitOrder",
      "outputs": [
        {
          "internalType": "bytes32[]",
          "name": "orderIds",
          "type": "bytes32[]"
        },
        {
          "components": [
            {
              "internalType": "address",
              "name": "userAddr",
              "type": "address"
            },
            {
              "internalType": "string",
              "name": "symbol",
              "type": "string"
            },
            {
              "internalType": "uint256",
              "name": "tokenAmount",
              "type": "uint256"
            },
            {
              "internalType": "uint256",
              "name": "lever",
              "type": "uint256"
            },
            {
              "internalType": "uint256",
              "name": "bsFlag",
              "type": "uint256"
            },
            {
              "internalType": "uint256",
              "name": "openPrice",
              "type": "uint256"
            },
            {
              "internalType": "uint256",
              "name": "openTime",
              "type": "uint256"
            },
            {
              "internalType": "uint256",
              "name": "newPrice",
              "type": "uint256"
            },
            {
              "internalType": "uint256",
              "name": "pLimitPrice",
              "type": "uint256"
            },
            {
              "internalType": "uint256",
              "name": "lLimitPrice",
              "type": "uint256"
            },
            {
              "internalType": "uint256",
              "name": "closeTime",
              "type": "uint256"
            },
            {
              "internalType": "uint256",
              "name": "status",
              "type": "uint256"
            }
          ],
          "internalType": "struct SwapTrade.SwapLimitOrder[]",
          "name": "orders",
          "type": "tuple[]"
        }
      ],
      "stateMutability": "view",
      "type": "function"
    },
    {
      "inputs": [
        {
          "internalType": "address",
          "name": "_userAddr",
          "type": "address"
        },
        {
          "internalType": "string",
          "name": "_symbol",
          "type": "string"
        },
        {
          "internalType": "uint256",
          "name": "_limitPrice",
          "type": "uint256"
        },
        {
          "internalType": "uint256",
          "name": "_tokenAmount",
          "type": "uint256"
        },
        {
          "internalType": "uint256",
          "name": "_lever",
          "type": "uint256"
        },
        {
          "internalType": "uint256",
          "name": "_bsFlag",
          "type": "uint256"
        },
        {
          "internalType": "uint256",
          "name": "_pLimitPrice",
          "type": "uint256"
        },
        {
          "internalType": "uint256",
          "name": "_lLimitPrice",
          "type": "uint256"
        }
      ],
      "name": "openLimitSwap",
      "outputs": [
        {
          "internalType": "bytes32",
          "name": "",
          "type": "bytes32"
        },
        {
          "internalType": "uint256",
          "name": "",
          "type": "uint256"
        }
      ],
      "stateMutability": "nonpayable",
      "type": "function"
    },
    {
      "inputs": [
        {
          "internalType": "address",
          "name": "_userAddr",
          "type": "address"
        },
        {
          "internalType": "bytes32",
          "name": "_orderID",
          "type": "bytes32"
        }
      ],
      "name": "cancelLimitSwap",
      "outputs": [
        {
          "internalType": "uint256",
          "name": "tokenAmount",
          "type": "uint256"
        }
      ],
      "stateMutability": "nonpayable",
      "type": "function"
    },
    {
      "inputs": [
        {
          "internalType": "bytes32",
          "name": "_orderID",
          "type": "bytes32"
        },
        {
          "internalType": "uint256",
          "name": "_blockIndex",
          "type": "uint256"
        }
      ],
      "name": "tradeLimitSwap",
      "outputs": [
        {
          "internalType": "bool",
          "name": "success",
          "type": "bool"
        },
        {
          "internalType": "address",
          "name": "userAddr",
          "type": "address"
        },
        {
          "internalType": "uint256",
          "name": "tokenAmount",
          "type": "uint256"
        }
      ],
      "stateMutability": "nonpayable",
      "type": "function"
    },
    {
      "inputs": [
        {
          "internalType": "address",
          "name": "_userAddr",
          "type": "address"
        },
        {
          "internalType": "string",
          "name": "_symbol",
          "type": "string"
        },
        {
          "internalType": "uint256",
          "name": "_tokenAmount",
          "type": "uint256"
        },
        {
          "internalType": "uint256",
          "name": "_lever",
          "type": "uint256"
        },
        {
          "internalType": "uint256",
          "name": "_bsFlag",
          "type": "uint256"
        },
        {
          "internalType": "uint256",
          "name": "_pLimitPrice",
          "type": "uint256"
        },
        {
          "internalType": "uint256",
          "name": "_lLimitPrice",
          "type": "uint256"
        },
        {
          "internalType": "uint256",
          "name": "_maxPrice",
          "type": "uint256"
        }
      ],
      "name": "openMarketSwap",
      "outputs": [
        {
          "internalType": "bytes32",
          "name": "",
          "type": "bytes32"
        },
        {
          "internalType": "uint256",
          "name": "",
          "type": "uint256"
        }
      ],
      "stateMutability": "nonpayable",
      "type": "function"
    },
    {
      "inputs": [
        {
          "internalType": "address",
          "name": "_userAddr",
          "type": "address"
        },
        {
          "internalType": "bytes32",
          "name": "_orderID",
          "type": "bytes32"
        }
      ],
      "name": "closeMarketSwap",
      "outputs": [
        {
          "internalType": "uint256",
          "name": "closePrice",
          "type": "uint256"
        },
        {
          "internalType": "uint256",
          "name": "plFlag",
          "type": "uint256"
        },
        {
          "internalType": "uint256",
          "name": "plAmount",
          "type": "uint256"
        },
        {
          "internalType": "uint256",
          "name": "tokenAmount",
          "type": "uint256"
        },
        {
          "internalType": "string",
          "name": "symbol",
          "type": "string"
        }
      ],
      "stateMutability": "nonpayable",
      "type": "function"
    },
    {
      "inputs": [
        {
          "internalType": "bytes32",
          "name": "_orderID",
          "type": "bytes32"
        },
        {
          "internalType": "uint256",
          "name": "_blockIndex",
          "type": "uint256"
        }
      ],
      "name": "closeLimitSwap",
      "outputs": [
        {
          "internalType": "bool",
          "name": "success",
          "type": "bool"
        },
        {
          "internalType": "address",
          "name": "userAddr",
          "type": "address"
        },
        {
          "internalType": "uint256",
          "name": "closePrice",
          "type": "uint256"
        },
        {
          "internalType": "uint256",
          "name": "closeType",
          "type": "uint256"
        },
        {
          "internalType": "uint256",
          "name": "plFlag",
          "type": "uint256"
        },
        {
          "internalType": "uint256",
          "name": "plAmount",
          "type": "uint256"
        },
        {
          "internalType": "uint256",
          "name": "tokenAmount",
          "type": "uint256"
        }
      ],
      "stateMutability": "nonpayable",
      "type": "function"
    },
    {
      "inputs": [
        {
          "internalType": "address",
          "name": "_userAddr",
          "type": "address"
        },
        {
          "internalType": "bytes32",
          "name": "_orderID",
          "type": "bytes32"
        },
        {
          "internalType": "uint256",
          "name": "_pLimitPrice",
          "type": "uint256"
        },
        {
          "internalType": "uint256",
          "name": "_lLimitPrice",
          "type": "uint256"
        }
      ],
      "name": "updateSwapByPrice",
      "outputs": [
        {
          "internalType": "uint256",
          "name": "pLimitRate",
          "type": "uint256"
        },
        {
          "internalType": "uint256",
          "name": "lLimitRate",
          "type": "uint256"
        }
      ],
      "stateMutability": "nonpayable",
      "type": "function"
    },
    {
      "inputs": [
        {
          "internalType": "address",
          "name": "_userAddr",
          "type": "address"
        },
        {
          "internalType": "bytes32",
          "name": "_orderID",
          "type": "bytes32"
        },
        {
          "internalType": "uint256",
          "name": "_pLimitRate",
          "type": "uint256"
        },
        {
          "internalType": "uint256",
          "name": "_lLimitRate",
          "type": "uint256"
        }
      ],
      "name": "updateSwapByRate",
      "outputs": [
        {
          "internalType": "uint256",
          "name": "pLimitPrice",
          "type": "uint256"
        },
        {
          "internalType": "uint256",
          "name": "lLimitPrice",
          "type": "uint256"
        }
      ],
      "stateMutability": "nonpayable",
      "type": "function"
    },
    {
      "inputs": [
        {
          "internalType": "uint256",
          "name": "_validBlocks",
          "type": "uint256"
        }
      ],
      "name": "setValidBlocks",
      "outputs": [],
      "stateMutability": "nonpayable",
      "type": "function"
    },
    {
      "inputs": [
        {
          "internalType": "bytes32",
          "name": "_orderID",
          "type": "bytes32"
        }
      ],
      "name": "setOrderPrice",
      "outputs": [
        {
          "internalType": "address",
          "name": "userAddr",
          "type": "address"
        },
        {
          "internalType": "uint256",
          "name": "openPrice",
          "type": "uint256"
        }
      ],
      "stateMutability": "nonpayable",
      "type": "function"
    },
    {
      "inputs": [
        {
          "internalType": "string",
          "name": "_symbol",
          "type": "string"
        }
      ],
      "name": "getNewPrice",
      "outputs": [
        {
          "internalType": "uint256",
          "name": "newPrice",
          "type": "uint256"
        },
        {
          "internalType": "uint256",
          "name": "priceTime",
          "type": "uint256"
        },
        {
          "internalType": "uint256",
          "name": "blockIndex",
          "type": "uint256"
        }
      ],
      "stateMutability": "view",
      "type": "function"
    },
    {
      "inputs": [
        {
          "internalType": "string",
          "name": "_symbol",
          "type": "string"
        },
        {
          "internalType": "uint256",
          "name": "_blockIndex",
          "type": "uint256"
        }
      ],
      "name": "getLastPrice",
      "outputs": [
        {
          "internalType": "uint256",
          "name": "newPrice",
          "type": "uint256"
        },
        {
          "internalType": "uint256",
          "name": "priceTime",
          "type": "uint256"
        }
      ],
      "stateMutability": "view",
      "type": "function"
    },
    {
      "inputs": [
        {
          "internalType": "bytes32",
          "name": "_orderID",
          "type": "bytes32"
        }
      ],
      "name": "getSymbol",
      "outputs": [
        {
          "internalType": "string",
          "name": "symbol",
          "type": "string"
        }
      ],
      "stateMutability": "view",
      "type": "function"
    },
    {
      "inputs": [
        {
          "internalType": "bytes32[]",
          "name": "_orderIDs",
          "type": "bytes32[]"
        }
      ],
      "name": "isValidating",
      "outputs": [
        {
          "internalType": "bool",
          "name": "status",
          "type": "bool"
        },
        {
          "internalType": "uint256",
          "name": "blockIndex",
          "type": "uint256"
        }
      ],
      "stateMutability": "view",
      "type": "function"
    }
  ],
  "bytecode": "0x60806040526103e86001553480156200001757600080fd5b5060006200002a620000ce60201b60201c565b9050806000806101000a81548173ffffffffffffffffffffffffffffffffffffffff021916908373ffffffffffffffffffffffffffffffffffffffff1602179055508073ffffffffffffffffffffffffffffffffffffffff16600073ffffffffffffffffffffffffffffffffffffffff167f8be0079c531659141344cd1fd0a4f28419497f9722a3daafe3b4186f6b6457e060405160405180910390a350620000d6565b600033905090565b615ba080620000e66000396000f3fe608060405234801561001057600080fd5b50600436106101cf5760003560e01c8063715018a611610104578063afcfb11a116100a2578063e8084a8711610071578063e8084a871461062c578063eadb2bdd1461065e578063f2fde38b1461067a578063fd0ceefb14610696576101cf565b8063afcfb11a1461057c578063bfc564e81461059a578063d4a06b87146105cb578063e1c873e3146105fc576101cf565b806386239ca7116100de57806386239ca7146104c15780638da5cb5b146104f2578063908219c61461051057806395e71c5014610541576101cf565b8063715018a6146104575780637593ce721461046157806384433e6e14610491576101cf565b80633d3f25171161017157806355e5d8dc1161014b57806355e5d8dc146103bb5780635cfac837146103eb5780635fbe4d1d1461041b5780636046cd9914610439576101cf565b80633d3f25171461033c578063485cc9551461036e578063509efd641461038a576101cf565b806327428feb116101ad57806327428feb1461026f57806333a7eb5b146102a057806334772557146102d157806339cbd01f14610302576101cf565b80631e2a565b146101d457806322dbfdca1461020857806326b3e7921461023e575b600080fd5b6101ee60048036038101906101e9919061448e565b6106c6565b6040516101ff9594939291906158a9565b60405180910390f35b610222600480360381019061021d91906146d9565b610a5e565b604051610235979695949392919061546a565b60405180910390f35b610258600480360381019061025391906144ca565b610d04565b6040516102669291906157d3565b60405180910390f35b61028960048036038101906102849190614633565b611055565b6040516102979291906153c5565b60405180910390f35b6102ba60048036038101906102b5919061452d565b61159d565b6040516102c892919061551d565b60405180910390f35b6102eb60048036038101906102e691906144ca565b6118a4565b6040516102f99291906157d3565b60405180910390f35b61031c600480360381019061031791906146b0565b611a72565b6040516103339b9a99989796959493929190615229565b60405180910390f35b610356600480360381019061035191906146d9565b611b84565b60405161036593929190615433565b60405180910390f35b61038860048036038101906103839190614452565b61207e565b005b6103a4600480360381019061039f91906146b0565b61227b565b6040516103b292919061539c565b60405180910390f35b6103d560048036038101906103d09190614400565b612461565b6040516103e291906157b8565b60405180910390f35b610405600480360381019061040091906146b0565b6124ad565b6040516104129190615546565b60405180910390f35b61042361256b565b604051610430919061520e565b60405180910390f35b610441612591565b60405161044e919061520e565b60405180910390f35b61045f6125b7565b005b61047b600480360381019061047691906145f7565b61270a565b6040516104889190615502565b60405180910390f35b6104ab60048036038101906104a691906145f7565b612738565b6040516104b89190615502565b60405180910390f35b6104db60048036038101906104d69190614633565b612766565b6040516104e99291906153fc565b60405180910390f35b6104fa612c94565b604051610507919061520e565b60405180910390f35b61052a6004803603810190610525919061452d565b612cbd565b60405161053892919061551d565b60405180910390f35b61055b600480360381019061055691906146b0565b6130dd565b6040516105739c9b9a999897969594939291906152db565b60405180910390f35b6105846131f5565b604051610591919061520e565b60405180910390f35b6105b460048036038101906105af919061466f565b61321b565b6040516105c29291906154d9565b60405180910390f35b6105e560048036038101906105e09190614756565b613328565b6040516105f39291906157d3565b60405180910390f35b61061660048036038101906106119190614400565b61342d565b60405161062391906157b8565b60405180910390f35b61064660048036038101906106419190614715565b613479565b60405161065593929190615872565b60405180910390f35b610678600480360381019061067391906147aa565b61353c565b005b610694600480360381019061068f9190614400565b6135db565b005b6106b060048036038101906106ab919061448e565b61379d565b6040516106bd91906157b8565b60405180910390f35b60008060008060606106d6613945565b73ffffffffffffffffffffffffffffffffffffffff1660008054906101000a900473ffffffffffffffffffffffffffffffffffffffff1673ffffffffffffffffffffffffffffffffffffffff1614610763576040517f08c379a000000000000000000000000000000000000000000000000000000000815260040161075a90615718565b60405180910390fd5b6000600560008881526020019081526020016000209050806001018054600181600116156101000203166002900480601f0160208091040260200160405190810160405280929190818152602001828054600181600116156101000203166002900480156108125780601f106107e757610100808354040283529160200191610812565b820191906000526020600020905b8154815290600101906020018083116107f557829003601f168201915b505050505091508773ffffffffffffffffffffffffffffffffffffffff168160000160009054906101000a900473ffffffffffffffffffffffffffffffffffffffff1673ffffffffffffffffffffffffffffffffffffffff16146108ab576040517f08c379a00000000000000000000000000000000000000000000000000000000081526004016108a290615698565b60405180910390fd5b60008160090154146108f2576040517f08c379a00000000000000000000000000000000000000000000000000000000081526004016108e990615638565b60405180910390fd5b60008160050154141561093a576040517f08c379a000000000000000000000000000000000000000000000000000000000815260040161093190615638565b60405180910390fd5b6000806109e2836001018054600181600116156101000203166002900480601f0160208091040260200160405190810160405280929190818152602001828054600181600116156101000203166002900480156109d85780601f106109ad576101008083540402835291602001916109d8565b820191906000526020600020905b8154815290600101906020018083116109bb57829003601f168201915b5050505050613479565b809350819450829a5050505043610a046001548361394d90919063ffffffff16565b10610a4c5782600201549450610a2d83600401548460020154856003015486600501548c6139a2565b80975081985050508783600901819055508183600a0181905550610a51565b600097505b5050509295509295909350565b6000806000806000806000610a71613945565b73ffffffffffffffffffffffffffffffffffffffff1660008054906101000a900473ffffffffffffffffffffffffffffffffffffffff1673ffffffffffffffffffffffffffffffffffffffff1614610afe576040517f08c379a0000000000000000000000000000000000000000000000000000000008152600401610af590615718565b60405180910390fd5b6000600560008b815260200190815260200160002090506000816009015414610b5c576040517f08c379a0000000000000000000000000000000000000000000000000000000008152600401610b5390615638565b60405180910390fd5b600080610c05836001018054600181600116156101000203166002900480601f016020809104026020016040519081016040528092919081815260200182805460018160011615610100020316600290048015610bfa5780601f10610bcf57610100808354040283529160200191610bfa565b820191906000526020600020905b815481529060010190602001808311610bdd57829003601f168201915b50505050508c613328565b9150915080836006015410610c4f576040517f08c379a0000000000000000000000000000000000000000000000000000000008152600401610c4690615658565b60405180910390fd5b610c7683600401548460050154856003015486600201548760070154886008015488613b2c565b809950819a50829c50505050600115158a15151415610cf557826002015493508260000160009054906101000a900473ffffffffffffffffffffffffffffffffffffffff169850610cda83600401548460020154856003015486600501548c6139a2565b80965081975050508783600901819055508083600a01819055505b50505092959891949750929550565b600080610d0f613945565b73ffffffffffffffffffffffffffffffffffffffff1660008054906101000a900473ffffffffffffffffffffffffffffffffffffffff1673ffffffffffffffffffffffffffffffffffffffff1614610d9c576040517f08c379a0000000000000000000000000000000000000000000000000000000008152600401610d9390615718565b60405180910390fd5b60006005600087815260200190815260200160002090508673ffffffffffffffffffffffffffffffffffffffff168160000160009054906101000a900473ffffffffffffffffffffffffffffffffffffffff1673ffffffffffffffffffffffffffffffffffffffff1614610e45576040517f08c379a0000000000000000000000000000000000000000000000000000000008152600401610e3c90615698565b60405180910390fd5b6000816009015414610e8c576040517f08c379a0000000000000000000000000000000000000000000000000000000008152600401610e8390615638565b60405180910390fd5b600181600401541415610f56576000851115610ef557600085118015610eb55750806005015485105b610ef4576040517f08c379a0000000000000000000000000000000000000000000000000000000008152600401610eeb906156b8565b60405180910390fd5b5b6000841115610f5157600084118015610f115750806005015484115b610f50576040517f08c379a0000000000000000000000000000000000000000000000000000000008152600401610f4790615738565b60405180910390fd5b5b61100f565b6000851115610fb257600085118015610f725750806005015485115b610fb1576040517f08c379a0000000000000000000000000000000000000000000000000000000008152600401610fa8906156f8565b60405180910390fd5b5b600084111561100e57600084118015610fce5750806005015484105b61100d576040517f08c379a000000000000000000000000000000000000000000000000000000000815260040161100490615778565b60405180910390fd5b5b5b6110228160040154826005015487613bc9565b92506110378160040154826005015486613c5e565b91508481600701819055508381600801819055505094509492505050565b606080600860008573ffffffffffffffffffffffffffffffffffffffff1673ffffffffffffffffffffffffffffffffffffffff1681526020019081526020016000208054806020026020016040519081016040528092919081815260200182805480156110e157602002820191906000526020600020905b8154815260200190600101908083116110cd575b505050505091506000805b83518110156112f1576110fd6140e3565b6007600086848151811061110d57fe5b60200260200101518152602001908152602001600020604051806101800160405290816000820160009054906101000a900473ffffffffffffffffffffffffffffffffffffffff1673ffffffffffffffffffffffffffffffffffffffff1673ffffffffffffffffffffffffffffffffffffffff168152602001600182018054600181600116156101000203166002900480601f01602080910402602001604051908101604052809291908181526020018280546001816001161561010002031660029004801561121e5780601f106111f35761010080835404028352916020019161121e565b820191906000526020600020905b81548152906001019060200180831161120157829003601f168201915b505050505081526020016002820154815260200160038201548152602001600482015481526020016005820154815260200160068201548152602001600782015481526020016008820154815260200160098201548152602001600a8201548152602001600b82015481525050905060008660ff1614806112a657508061016001518660ff16145b806112d5575060048660ff161480156112d45750600181610160015114806112d357506003816101600151145b5b5b156112e35782806001019350505b5080806001019150506110ec565b508067ffffffffffffffff8111801561130957600080fd5b5060405190808252806020026020018201604052801561134357816020015b6113306140e3565b8152602001906001900390816113285790505b5091506000805b84518110156115935761135b6140e3565b6007600087848151811061136b57fe5b60200260200101518152602001908152602001600020604051806101800160405290816000820160009054906101000a900473ffffffffffffffffffffffffffffffffffffffff1673ffffffffffffffffffffffffffffffffffffffff1673ffffffffffffffffffffffffffffffffffffffff168152602001600182018054600181600116156101000203166002900480601f01602080910402602001604051908101604052809291908181526020018280546001816001161561010002031660029004801561147c5780601f106114515761010080835404028352916020019161147c565b820191906000526020600020905b81548152906001019060200180831161145f57829003601f168201915b505050505081526020016002820154815260200160038201548152602001600482015481526020016005820154815260200160068201548152602001600782015481526020016008820154815260200160098201548152602001600a8201548152602001600b82015481525050905060008760ff16148061150457508061016001518760ff16145b80611533575060048760ff1614801561153257506001816101600151148061153157506003816101600151145b5b5b156115855785828151811061154457fe5b602002602001015186848151811061155857fe5b6020026020010181815250508085848151811061157157fe5b602002602001018190525082806001019350505b50808060010191505061134a565b5050509250929050565b6000806115a8613945565b73ffffffffffffffffffffffffffffffffffffffff1660008054906101000a900473ffffffffffffffffffffffffffffffffffffffff1673ffffffffffffffffffffffffffffffffffffffff1614611635576040517f08c379a000000000000000000000000000000000000000000000000000000000815260040161162c90615718565b60405180910390fd5b61163d61415a565b6116468a613479565b508260006002811061165457fe5b602002018360016002811061166557fe5b60200201828152508281525050506000435a8d8d8c8c8c60405160200161169297969594939291906157fc565b6040516020818303038152906040528051906020012090506040518061018001604052808d73ffffffffffffffffffffffffffffffffffffffff1681526020018c81526020018a81526020018981526020018881526020018b8152602001836001600281106116fd57fe5b602002015181526020018360006002811061171457fe5b602002015181526020018781526020018681526020016000815260200160028152506007600083815260200190815260200160002060008201518160000160006101000a81548173ffffffffffffffffffffffffffffffffffffffff021916908373ffffffffffffffffffffffffffffffffffffffff16021790555060208201518160010190805190602001906117ac92919061417c565b5060408201518160020155606082015181600301556080820151816004015560a0820151816005015560c0820151816006015560e082015181600701556101008201518160080155610120820151816009015561014082015181600a015561016082015181600b0155905050600860008d73ffffffffffffffffffffffffffffffffffffffff1673ffffffffffffffffffffffffffffffffffffffff168152602001908152602001600020819080600181540180825580915050600190039060005260206000200160009091909190915055808260006002811061188c57fe5b60200201519350935050509850989650505050505050565b6000806118af613945565b73ffffffffffffffffffffffffffffffffffffffff1660008054906101000a900473ffffffffffffffffffffffffffffffffffffffff1673ffffffffffffffffffffffffffffffffffffffff161461193c576040517f08c379a000000000000000000000000000000000000000000000000000000000815260040161193390615718565b60405180910390fd5b60006005600087815260200190815260200160002090508673ffffffffffffffffffffffffffffffffffffffff168160000160009054906101000a900473ffffffffffffffffffffffffffffffffffffffff1673ffffffffffffffffffffffffffffffffffffffff16146119e5576040517f08c379a00000000000000000000000000000000000000000000000000000000081526004016119dc90615698565b60405180910390fd5b6000816009015414611a2c576040517f08c379a0000000000000000000000000000000000000000000000000000000008152600401611a2390615638565b60405180910390fd5b611a3f8160040154826005015487613cf3565b9250611a548160040154826005015486613d69565b91508281600701819055508181600801819055505094509492505050565b60056020528060005260406000206000915090508060000160009054906101000a900473ffffffffffffffffffffffffffffffffffffffff1690806001018054600181600116156101000203166002900480601f016020809104026020016040519081016040528092919081815260200182805460018160011615610100020316600290048015611b445780601f10611b1957610100808354040283529160200191611b44565b820191906000526020600020905b815481529060010190602001808311611b2757829003601f168201915b50505050509080600201549080600301549080600401549080600501549080600601549080600701549080600801549080600901549080600a015490508b565b6000806000611b91613945565b73ffffffffffffffffffffffffffffffffffffffff1660008054906101000a900473ffffffffffffffffffffffffffffffffffffffff1673ffffffffffffffffffffffffffffffffffffffff1614611c1e576040517f08c379a0000000000000000000000000000000000000000000000000000000008152600401611c1590615718565b60405180910390fd5b6000600760008781526020019081526020016000209050600281600b015414611c7c576040517f08c379a0000000000000000000000000000000000000000000000000000000008152600401611c7390615758565b60405180910390fd5b600080611d25836001018054600181600116156101000203166002900480601f016020809104026020016040519081016040528092919081815260200182805460018160011615610100020316600290048015611d1a5780601f10611cef57610100808354040283529160200191611d1a565b820191906000526020600020905b815481529060010190602001808311611cfd57829003601f168201915b505050505088613328565b9150915080836006015410611d6f576040517f08c379a0000000000000000000000000000000000000000000000000000000008152600401611d6690615658565b60405180910390fd5b611d828360070154846005015484613ddf565b955060011515861515141561207457826002015493508260000160009054906101000a900473ffffffffffffffffffffffffffffffffffffffff1694508083600a0181905550600383600b01819055506040518061016001604052808460000160009054906101000a900473ffffffffffffffffffffffffffffffffffffffff1673ffffffffffffffffffffffffffffffffffffffff168152602001846001018054600181600116156101000203166002900480601f016020809104026020016040519081016040528092919081815260200182805460018160011615610100020316600290048015611eb65780601f10611e8b57610100808354040283529160200191611eb6565b820191906000526020600020905b815481529060010190602001808311611e9957829003601f168201915b505050505081526020018460020154815260200184600301548152602001846004015481526020018460050154815260200184600a015481526020018460080154815260200184600901548152602001600081526020016000815250600560008a815260200190815260200160002060008201518160000160006101000a81548173ffffffffffffffffffffffffffffffffffffffff021916908373ffffffffffffffffffffffffffffffffffffffff1602179055506020820151816001019080519060200190611f8892919061417c565b5060408201518160020155606082015181600301556080820151816004015560a0820151816005015560c0820151816006015560e082015181600701556101008201518160080155610120820151816009015561014082015181600a0155905050600660008460000160009054906101000a900473ffffffffffffffffffffffffffffffffffffffff1673ffffffffffffffffffffffffffffffffffffffff1673ffffffffffffffffffffffffffffffffffffffff1681526020019081526020016000208890806001815401808255809150506001900390600052602060002001600090919091909150555b5050509250925092565b612086613945565b73ffffffffffffffffffffffffffffffffffffffff1660008054906101000a900473ffffffffffffffffffffffffffffffffffffffff1673ffffffffffffffffffffffffffffffffffffffff1614612113576040517f08c379a000000000000000000000000000000000000000000000000000000000815260040161210a90615718565b60405180910390fd5b81600260006101000a81548173ffffffffffffffffffffffffffffffffffffffff021916908373ffffffffffffffffffffffffffffffffffffffff16021790555080600360006101000a81548173ffffffffffffffffffffffffffffffffffffffff021916908373ffffffffffffffffffffffffffffffffffffffff160217905550600360009054906101000a900473ffffffffffffffffffffffffffffffffffffffff1673ffffffffffffffffffffffffffffffffffffffff166358aafa3d6040518163ffffffff1660e01b8152600401602060405180830381600087803b1580156121ff57600080fd5b505af1158015612213573d6000803e3d6000fd5b505050506040513d601f19601f820116820180604052508101906122379190614429565b600460006101000a81548173ffffffffffffffffffffffffffffffffffffffff021916908373ffffffffffffffffffffffffffffffffffffffff1602179055505050565b600080612286613945565b73ffffffffffffffffffffffffffffffffffffffff1660008054906101000a900473ffffffffffffffffffffffffffffffffffffffff1673ffffffffffffffffffffffffffffffffffffffff1614612313576040517f08c379a000000000000000000000000000000000000000000000000000000000815260040161230a90615718565b60405180910390fd5b60006005600085815260200190815260200160002090506000816005015414612371576040517f08c379a000000000000000000000000000000000000000000000000000000000815260040161236890615598565b60405180910390fd5b6000612418826001018054600181600116156101000203166002900480601f01602080910402602001604051908101604052809291908181526020018280546001816001161561010002031660029004801561240e5780601f106123e35761010080835404028352916020019161240e565b820191906000526020600020905b8154815290600101906020018083116123f157829003601f168201915b5050505050613479565b5080925081945050508282600501819055508082600601819055508160000160009054906101000a900473ffffffffffffffffffffffffffffffffffffffff1693505050915091565b6000600860008373ffffffffffffffffffffffffffffffffffffffff1673ffffffffffffffffffffffffffffffffffffffff168152602001908152602001600020805490509050919050565b60606000600560008481526020019081526020016000209050806001018054600181600116156101000203166002900480601f01602080910402602001604051908101604052809291908181526020018280546001816001161561010002031660029004801561255e5780601f106125335761010080835404028352916020019161255e565b820191906000526020600020905b81548152906001019060200180831161254157829003601f168201915b5050505050915050919050565b600260009054906101000a900473ffffffffffffffffffffffffffffffffffffffff1681565b600360009054906101000a900473ffffffffffffffffffffffffffffffffffffffff1681565b6125bf613945565b73ffffffffffffffffffffffffffffffffffffffff1660008054906101000a900473ffffffffffffffffffffffffffffffffffffffff1673ffffffffffffffffffffffffffffffffffffffff161461264c576040517f08c379a000000000000000000000000000000000000000000000000000000000815260040161264390615718565b60405180910390fd5b600073ffffffffffffffffffffffffffffffffffffffff1660008054906101000a900473ffffffffffffffffffffffffffffffffffffffff1673ffffffffffffffffffffffffffffffffffffffff167f8be0079c531659141344cd1fd0a4f28419497f9722a3daafe3b4186f6b6457e060405160405180910390a360008060006101000a81548173ffffffffffffffffffffffffffffffffffffffff021916908373ffffffffffffffffffffffffffffffffffffffff160217905550565b6008602052816000526040600020818154811061272357fe5b90600052602060002001600091509150505481565b6006602052816000526040600020818154811061275157fe5b90600052602060002001600091509150505481565b606080600660008573ffffffffffffffffffffffffffffffffffffffff1673ffffffffffffffffffffffffffffffffffffffff1681526020019081526020016000208054806020026020016040519081016040528092919081815260200182805480156127f257602002820191906000526020600020905b8154815260200190600101908083116127de575b505050505091506000805b83518110156129f55761280e6141fc565b6005600086848151811061281e57fe5b60200260200101518152602001908152602001600020604051806101600160405290816000820160009054906101000a900473ffffffffffffffffffffffffffffffffffffffff1673ffffffffffffffffffffffffffffffffffffffff1673ffffffffffffffffffffffffffffffffffffffff168152602001600182018054600181600116156101000203166002900480601f01602080910402602001604051908101604052809291908181526020018280546001816001161561010002031660029004801561292f5780601f106129045761010080835404028352916020019161292f565b820191906000526020600020905b81548152906001019060200180831161291257829003601f168201915b505050505081526020016002820154815260200160038201548152602001600482015481526020016005820154815260200160068201548152602001600782015481526020016008820154815260200160098201548152602001600a82015481525050905060008660ff1614806129ba575060018660ff161480156129b957506000816101200151115b5b806129d9575060028660ff161480156129d857506000816101200151145b5b156129e75782806001019350505b5080806001019150506127fd565b508067ffffffffffffffff81118015612a0d57600080fd5b50604051908082528060200260200182016040528015612a4757816020015b612a346141fc565b815260200190600190039081612a2c5790505b5091506000805b8451811015612c8a57612a5f6141fc565b60056000878481518110612a6f57fe5b60200260200101518152602001908152602001600020604051806101600160405290816000820160009054906101000a900473ffffffffffffffffffffffffffffffffffffffff1673ffffffffffffffffffffffffffffffffffffffff1673ffffffffffffffffffffffffffffffffffffffff168152602001600182018054600181600116156101000203166002900480601f016020809104026020016040519081016040528092919081815260200182805460018160011615610100020316600290048015612b805780601f10612b5557610100808354040283529160200191612b80565b820191906000526020600020905b815481529060010190602001808311612b6357829003601f168201915b505050505081526020016002820154815260200160038201548152602001600482015481526020016005820154815260200160068201548152602001600782015481526020016008820154815260200160098201548152602001600a82015481525050905060008760ff161480612c0b575060018760ff16148015612c0a57506000816101200151115b5b80612c2a575060028760ff16148015612c2957506000816101200151145b5b15612c7c57858281518110612c3b57fe5b6020026020010151868481518110612c4f57fe5b60200260200101818152505080858481518110612c6857fe5b602002602001018190525082806001019350505b508080600101915050612a4e565b5050509250929050565b60008060009054906101000a900473ffffffffffffffffffffffffffffffffffffffff16905090565b600080612cc8613945565b73ffffffffffffffffffffffffffffffffffffffff1660008054906101000a900473ffffffffffffffffffffffffffffffffffffffff1673ffffffffffffffffffffffffffffffffffffffff1614612d55576040517f08c379a0000000000000000000000000000000000000000000000000000000008152600401612d4c90615718565b60405180910390fd5b612d5d61426c565b612d668a613479565b83600060038110612d7357fe5b6020020184600160038110612d8457fe5b6020020185600260038110612d9557fe5b602002018381525083815250838152505050506001871415612e0a578381600060038110612dbf57fe5b60200201511015612e05576040517f08c379a0000000000000000000000000000000000000000000000000000000008152600401612dfc90615798565b60405180910390fd5b612e5f565b8381600060038110612e1857fe5b60200201511115612e5e576040517f08c379a0000000000000000000000000000000000000000000000000000000008152600401612e5590615798565b60405180910390fd5b5b43612e8660015483600260038110612e7357fe5b602002015161394d90919063ffffffff16565b1015612ebd57600081600060038110612e9b57fe5b602002018181525050600081600160038110612eb357fe5b6020020181815250505b6000435a8d8d8d8d8d604051602001612edc97969594939291906157fc565b6040516020818303038152906040528051906020012090506040518061016001604052808d73ffffffffffffffffffffffffffffffffffffffff1681526020018c81526020018b81526020018a815260200189815260200183600060038110612f4157fe5b6020020151815260200183600160038110612f5857fe5b602002015181526020018881526020018781526020016000815260200160008152506005600083815260200190815260200160002060008201518160000160006101000a81548173ffffffffffffffffffffffffffffffffffffffff021916908373ffffffffffffffffffffffffffffffffffffffff1602179055506020820151816001019080519060200190612ff092919061417c565b5060408201518160020155606082015181600301556080820151816004015560a0820151816005015560c0820151816006015560e082015181600701556101008201518160080155610120820151816009015561014082015181600a0155905050600660008d73ffffffffffffffffffffffffffffffffffffffff1673ffffffffffffffffffffffffffffffffffffffff16815260200190815260200160002081908060018154018082558091505060019003906000526020600020016000909190919091505580826000600381106130c557fe5b60200201519350935050509850989650505050505050565b60076020528060005260406000206000915090508060000160009054906101000a900473ffffffffffffffffffffffffffffffffffffffff1690806001018054600181600116156101000203166002900480601f0160208091040260200160405190810160405280929190818152602001828054600181600116156101000203166002900480156131af5780601f10613184576101008083540402835291602001916131af565b820191906000526020600020905b81548152906001019060200180831161319257829003601f168201915b50505050509080600201549080600301549080600401549080600501549080600601549080600701549080600801549080600901549080600a01549080600b015490508c565b600460009054906101000a900473ffffffffffffffffffffffffffffffffffffffff1681565b6000806000600560008560008151811061323157fe5b60200260200101518152602001908152602001600020905060006132f0826001018054600181600116156101000203166002900480601f0160208091040260200160405190810160405280929190818152602001828054600181600116156101000203166002900480156132e65780601f106132bb576101008083540402835291602001916132e6565b820191906000526020600020905b8154815290600101906020018083116132c957829003601f168201915b5050505050613479565b925050504361330a6001548361394d90919063ffffffff16565b111561331c5760019350809250613321565b600093505b5050915091565b600080600460009054906101000a900473ffffffffffffffffffffffffffffffffffffffff1673ffffffffffffffffffffffffffffffffffffffff1663d4a06b8785856040518363ffffffff1660e01b8152600401613388929190615568565b60606040518083038186803b1580156133a057600080fd5b505afa1580156133b4573d6000803e3d6000fd5b505050506040513d601f19601f820116820180604052508101906133d891906147d3565b909150809250819350505060008211613426576040517f08c379a000000000000000000000000000000000000000000000000000000000815260040161341d90615678565b60405180910390fd5b9250929050565b6000600660008373ffffffffffffffffffffffffffffffffffffffff1673ffffffffffffffffffffffffffffffffffffffff168152602001908152602001600020805490509050919050565b6000806000600460009054906101000a900473ffffffffffffffffffffffffffffffffffffffff1673ffffffffffffffffffffffffffffffffffffffff1663e8084a87856040518263ffffffff1660e01b81526004016134d99190615546565b60606040518083038186803b1580156134f157600080fd5b505afa158015613505573d6000803e3d6000fd5b505050506040513d601f19601f8201168201806040525081019061352991906147d3565b8094508195508293505050509193909250565b613544613945565b73ffffffffffffffffffffffffffffffffffffffff1660008054906101000a900473ffffffffffffffffffffffffffffffffffffffff1673ffffffffffffffffffffffffffffffffffffffff16146135d1576040517f08c379a00000000000000000000000000000000000000000000000000000000081526004016135c890615718565b60405180910390fd5b8060018190555050565b6135e3613945565b73ffffffffffffffffffffffffffffffffffffffff1660008054906101000a900473ffffffffffffffffffffffffffffffffffffffff1673ffffffffffffffffffffffffffffffffffffffff1614613670576040517f08c379a000000000000000000000000000000000000000000000000000000000815260040161366790615718565b60405180910390fd5b600073ffffffffffffffffffffffffffffffffffffffff168173ffffffffffffffffffffffffffffffffffffffff1614156136e0576040517f08c379a00000000000000000000000000000000000000000000000000000000081526004016136d7906155f8565b60405180910390fd5b8073ffffffffffffffffffffffffffffffffffffffff1660008054906101000a900473ffffffffffffffffffffffffffffffffffffffff1673ffffffffffffffffffffffffffffffffffffffff167f8be0079c531659141344cd1fd0a4f28419497f9722a3daafe3b4186f6b6457e060405160405180910390a3806000806101000a81548173ffffffffffffffffffffffffffffffffffffffff021916908373ffffffffffffffffffffffffffffffffffffffff16021790555050565b60006137a7613945565b73ffffffffffffffffffffffffffffffffffffffff1660008054906101000a900473ffffffffffffffffffffffffffffffffffffffff1673ffffffffffffffffffffffffffffffffffffffff1614613834576040517f08c379a000000000000000000000000000000000000000000000000000000000815260040161382b90615718565b60405180910390fd5b60006007600084815260200190815260200160002090508373ffffffffffffffffffffffffffffffffffffffff168160000160009054906101000a900473ffffffffffffffffffffffffffffffffffffffff1673ffffffffffffffffffffffffffffffffffffffff16146138dd576040517f08c379a00000000000000000000000000000000000000000000000000000000081526004016138d4906155b8565b60405180910390fd5b600281600b015414613924576040517f08c379a000000000000000000000000000000000000000000000000000000000815260040161391b906155d8565b60405180910390fd5b806002015491504281600a0181905550600181600b01819055505092915050565b600033905090565b600080828401905083811015613998576040517f08c379a000000000000000000000000000000000000000000000000000000000815260040161398f90615618565b60405180910390fd5b8091505092915050565b6000806001871415613a6a57838310613a155760009150613a02846139f46139d38787613e0e90919063ffffffff16565b6139e6898b613e5890919063ffffffff16565b613e5890919063ffffffff16565b613ec890919063ffffffff16565b905085811115613a10578590505b613a65565b60019150613a6284613a54613a338688613e0e90919063ffffffff16565b613a46898b613e5890919063ffffffff16565b613e5890919063ffffffff16565b613ec890919063ffffffff16565b90505b613b22565b838310613ac55760019150613abe84613ab0613a8f8787613e0e90919063ffffffff16565b613aa2898b613e5890919063ffffffff16565b613e5890919063ffffffff16565b613ec890919063ffffffff16565b9050613b21565b60009150613b1284613b04613ae38688613e0e90919063ffffffff16565b613af6898b613e5890919063ffffffff16565b613e5890919063ffffffff16565b613ec890919063ffffffff16565b905085811115613b20578590505b5b5b9550959350505050565b6000806000613b3c8a8786613f12565b8093508194505050600015158315151415613bb7576000613b608b8b8b8b8c613f5d565b9050613b6d8b8287613fdc565b8094508195505050600015158415151415613bac57613b8d8b8787613fdc565b8094508195505050600115158415151415613ba757600291505b613bb1565b600391505b50613bbc565b600190505b9750975097945050505050565b600080821115613c57576001841415613c1b57613c1483613c066064613bf88688613e0e90919063ffffffff16565b613e5890919063ffffffff16565b613ec890919063ffffffff16565b9050613c56565b613c5383613c456064613c378787613e0e90919063ffffffff16565b613e5890919063ffffffff16565b613ec890919063ffffffff16565b90505b5b9392505050565b600080821115613cec576001841415613cb057613ca983613c9b6064613c8d8787613e0e90919063ffffffff16565b613e5890919063ffffffff16565b613ec890919063ffffffff16565b9050613ceb565b613ce883613cda6064613ccc8688613e0e90919063ffffffff16565b613e5890919063ffffffff16565b613ec890919063ffffffff16565b90505b5b9392505050565b600080821115613d62576000613d256064613d178587613e5890919063ffffffff16565b613ec890919063ffffffff16565b90506001851415613d4a57613d438185613e0e90919063ffffffff16565b9150613d60565b613d5d818561394d90919063ffffffff16565b91505b505b9392505050565b600080821115613dd8576000613d9b6064613d8d8587613e5890919063ffffffff16565b613ec890919063ffffffff16565b90506001851415613dc057613db9818561394d90919063ffffffff16565b9150613dd6565b613dd38185613e0e90919063ffffffff16565b91505b505b9392505050565b600082841115613dfa57818310613df557600190505b613e07565b818311613e0657600190505b5b9392505050565b6000613e5083836040518060400160405280601e81526020017f536166654d6174683a207375627472616374696f6e206f766572666c6f770000815250614027565b905092915050565b600080831415613e6b5760009050613ec2565b6000828402905082848281613e7c57fe5b0414613ebd576040517f08c379a0000000000000000000000000000000000000000000000000000000008152600401613eb4906156d8565b60405180910390fd5b809150505b92915050565b6000613f0a83836040518060400160405280601a81526020017f536166654d6174683a206469766973696f6e206279207a65726f000000000000815250614082565b905092915050565b6000806000841115613f50576001851415613f3b57838311613f3657839050600191505b613f4b565b838310613f4a57839050600191505b5b613f55565b600091505b935093915050565b600080613f9785613f8986613f7b878b613e5890919063ffffffff16565b613ec890919063ffffffff16565b613ec890919063ffffffff16565b90506001871415613fbc57613fb5818761394d90919063ffffffff16565b9150613fd2565b613fcf8187613e0e90919063ffffffff16565b91505b5095945050505050565b600080600084111561401a5760018514156140055783831061400057839050600191505b614015565b83831161401457839050600191505b5b61401f565b600091505b935093915050565b600083831115829061406f576040517f08c379a00000000000000000000000000000000000000000000000000000000081526004016140669190615546565b60405180910390fd5b5060008385039050809150509392505050565b600080831182906140c9576040517f08c379a00000000000000000000000000000000000000000000000000000000081526004016140c09190615546565b60405180910390fd5b5060008385816140d557fe5b049050809150509392505050565b604051806101800160405280600073ffffffffffffffffffffffffffffffffffffffff16815260200160608152602001600081526020016000815260200160008152602001600081526020016000815260200160008152602001600081526020016000815260200160008152602001600081525090565b6040518060400160405280600290602082028036833780820191505090505090565b828054600181600116156101000203166002900490600052602060002090601f016020900481019282601f106141bd57805160ff19168380011785556141eb565b828001600101855582156141eb579182015b828111156141ea5782518255916020019190600101906141cf565b5b5090506141f8919061428e565b5090565b604051806101600160405280600073ffffffffffffffffffffffffffffffffffffffff168152602001606081526020016000815260200160008152602001600081526020016000815260200160008152602001600081526020016000815260200160008152602001600081525090565b6040518060600160405280600390602082028036833780820191505090505090565b5b808211156142a757600081600090555060010161428f565b5090565b6000813590506142ba81615b0e565b92915050565b6000815190506142cf81615b0e565b92915050565b600082601f8301126142e657600080fd5b81356142f96142f482615930565b615903565b9150818183526020840193506020810190508385602084028201111561431e57600080fd5b60005b8381101561434e57816143348882614358565b845260208401935060208301925050600181019050614321565b5050505092915050565b60008135905061436781615b25565b92915050565b600082601f83011261437e57600080fd5b813561439161438c82615958565b615903565b915080825260208301602083018583830111156143ad57600080fd5b6143b8838284615abb565b50505092915050565b6000813590506143d081615b3c565b92915050565b6000815190506143e581615b3c565b92915050565b6000813590506143fa81615b53565b92915050565b60006020828403121561441257600080fd5b6000614420848285016142ab565b91505092915050565b60006020828403121561443b57600080fd5b6000614449848285016142c0565b91505092915050565b6000806040838503121561446557600080fd5b6000614473858286016142ab565b9250506020614484858286016142ab565b9150509250929050565b600080604083850312156144a157600080fd5b60006144af858286016142ab565b92505060206144c085828601614358565b9150509250929050565b600080600080608085870312156144e057600080fd5b60006144ee878288016142ab565b94505060206144ff87828801614358565b9350506040614510878288016143c1565b9250506060614521878288016143c1565b91505092959194509250565b600080600080600080600080610100898b03121561454a57600080fd5b60006145588b828c016142ab565b985050602089013567ffffffffffffffff81111561457557600080fd5b6145818b828c0161436d565b97505060406145928b828c016143c1565b96505060606145a38b828c016143c1565b95505060806145b48b828c016143c1565b94505060a06145c58b828c016143c1565b93505060c06145d68b828c016143c1565b92505060e06145e78b828c016143c1565b9150509295985092959890939650565b6000806040838503121561460a57600080fd5b6000614618858286016142ab565b9250506020614629858286016143c1565b9150509250929050565b6000806040838503121561464657600080fd5b6000614654858286016142ab565b9250506020614665858286016143eb565b9150509250929050565b60006020828403121561468157600080fd5b600082013567ffffffffffffffff81111561469b57600080fd5b6146a7848285016142d5565b91505092915050565b6000602082840312156146c257600080fd5b60006146d084828501614358565b91505092915050565b600080604083850312156146ec57600080fd5b60006146fa85828601614358565b925050602061470b858286016143c1565b9150509250929050565b60006020828403121561472757600080fd5b600082013567ffffffffffffffff81111561474157600080fd5b61474d8482850161436d565b91505092915050565b6000806040838503121561476957600080fd5b600083013567ffffffffffffffff81111561478357600080fd5b61478f8582860161436d565b92505060206147a0858286016143c1565b9150509250929050565b6000602082840312156147bc57600080fd5b60006147ca848285016143c1565b91505092915050565b6000806000606084860312156147e857600080fd5b60006147f6868287016143d6565b9350506020614807868287016143d6565b9250506040614818868287016143d6565b9150509250925092565b600061482e83836149d7565b60208301905092915050565b60006148468383614ffd565b905092915050565b600061485a8383615101565b905092915050565b61486b81615a5c565b82525050565b61487a81615a5c565b82525050565b600061488b826159b4565b6148958185615a07565b93506148a083615984565b8060005b838110156148d15781516148b88882614822565b97506148c3836159e0565b9250506001810190506148a4565b5085935050505092915050565b60006148e9826159bf565b6148f38185615a18565b93508360208202850161490585615994565b8060005b858110156149415784840389528151614922858261483a565b945061492d836159ed565b925060208a01995050600181019050614909565b50829750879550505050505092915050565b600061495e826159ca565b6149688185615a29565b93508360208202850161497a856159a4565b8060005b858110156149b65784840389528151614997858261484e565b94506149a2836159fa565b925060208a0199505060018101905061497e565b50829750879550505050505092915050565b6149d181615a6e565b82525050565b6149e081615a7a565b82525050565b6149ef81615a7a565b82525050565b6000614a00826159d5565b614a0a8185615a3a565b9350614a1a818560208601615aca565b614a2381615afd565b840191505092915050565b6000614a39826159d5565b614a438185615a4b565b9350614a53818560208601615aca565b614a5c81615afd565b840191505092915050565b6000614a74601a83615a4b565b91507f7365744f7264657250726963653a20414c52454144595f5345540000000000006000830152602082019050919050565b6000614ab4601f83615a4b565b91507f63616e63656c4c696d6974537761703a2055534552414444525f57524f4e47006000830152602082019050919050565b6000614af4602383615a4b565b91507f63616e63656c4c696d6974537761703a204f524445525f5354415455535f575260008301527f4f4e4700000000000000000000000000000000000000000000000000000000006020830152604082019050919050565b6000614b5a602683615a4b565b91507f4f776e61626c653a206e6577206f776e657220697320746865207a65726f206160008301527f64647265737300000000000000000000000000000000000000000000000000006020830152604082019050919050565b6000614bc0601b83615a4b565b91507f536166654d6174683a206164646974696f6e206f766572666c6f7700000000006000830152602082019050919050565b6000614c00601d83615a4b565b91507f636c6f7365537761703a204f524445525f5354415455535f57524f4e470000006000830152602082019050919050565b6000614c40602083615a4b565b91507f74726164654c696d6974537761703a204f524445525f54494d455f57524f4e476000830152602082019050919050565b6000614c80601e83615a4b565b91507f6765744c61737450726963653a204c4153545f50524943455f57524f4e4700006000830152602082019050919050565b6000614cc0601983615a4b565b91507f636c6f7365537761703a2055534552414444525f57524f4e47000000000000006000830152602082019050919050565b6000614d00602383615a4b565b91507f636c6f7365537761703a204f524445525f504c494d495450524943455f57524f60008301527f4e473100000000000000000000000000000000000000000000000000000000006020830152604082019050919050565b6000614d66602183615a4b565b91507f536166654d6174683a206d756c7469706c69636174696f6e206f766572666c6f60008301527f77000000000000000000000000000000000000000000000000000000000000006020830152604082019050919050565b6000614dcc602383615a4b565b91507f636c6f7365537761703a204f524445525f504c494d495450524943455f57524f60008301527f4e473300000000000000000000000000000000000000000000000000000000006020830152604082019050919050565b6000614e32602083615a4b565b91507f4f776e61626c653a2063616c6c6572206973206e6f7420746865206f776e65726000830152602082019050919050565b6000614e72602383615a4b565b91507f636c6f7365537761703a204f524445525f4c4c494d495450524943455f57524f60008301527f4e473200000000000000000000000000000000000000000000000000000000006020830152604082019050919050565b6000614ed8602283615a4b565b91507f74726164654c696d6974537761703a204f524445525f5354415455535f57524f60008301527f4e470000000000000000000000000000000000000000000000000000000000006020830152604082019050919050565b6000614f3e602383615a4b565b91507f636c6f7365537761703a204f524445525f4c4c494d495450524943455f57524f60008301527f4e473400000000000000000000000000000000000000000000000000000000006020830152604082019050919050565b6000614fa4602183615a4b565b91507f6f70656e4d61726b6574537761703a20534c4950504147455f544f4f5f48494760008301527f48000000000000000000000000000000000000000000000000000000000000006020830152604082019050919050565b6000610180830160008301516150166000860182614862565b506020830151848203602086015261502e82826149f5565b915050604083015161504360408601826151f0565b50606083015161505660608601826151f0565b50608083015161506960808601826151f0565b5060a083015161507c60a08601826151f0565b5060c083015161508f60c08601826151f0565b5060e08301516150a260e08601826151f0565b506101008301516150b76101008601826151f0565b506101208301516150cc6101208601826151f0565b506101408301516150e16101408601826151f0565b506101608301516150f66101608601826151f0565b508091505092915050565b60006101608301600083015161511a6000860182614862565b506020830151848203602086015261513282826149f5565b915050604083015161514760408601826151f0565b50606083015161515a60608601826151f0565b50608083015161516d60808601826151f0565b5060a083015161518060a08601826151f0565b5060c083015161519360c08601826151f0565b5060e08301516151a660e08601826151f0565b506101008301516151bb6101008601826151f0565b506101208301516151d06101208601826151f0565b506101408301516151e56101408601826151f0565b508091505092915050565b6151f981615aa4565b82525050565b61520881615aa4565b82525050565b60006020820190506152236000830184614871565b92915050565b60006101608201905061523f600083018e614871565b8181036020830152615251818d614a2e565b9050615260604083018c6151ff565b61526d606083018b6151ff565b61527a608083018a6151ff565b61528760a08301896151ff565b61529460c08301886151ff565b6152a160e08301876151ff565b6152af6101008301866151ff565b6152bd6101208301856151ff565b6152cb6101408301846151ff565b9c9b505050505050505050505050565b6000610180820190506152f1600083018f614871565b8181036020830152615303818e614a2e565b9050615312604083018d6151ff565b61531f606083018c6151ff565b61532c608083018b6151ff565b61533960a083018a6151ff565b61534660c08301896151ff565b61535360e08301886151ff565b6153616101008301876151ff565b61536f6101208301866151ff565b61537d6101408301856151ff565b61538b6101608301846151ff565b9d9c50505050505050505050505050565b60006040820190506153b16000830185614871565b6153be60208301846151ff565b9392505050565b600060408201905081810360008301526153df8185614880565b905081810360208301526153f381846148de565b90509392505050565b600060408201905081810360008301526154168185614880565b9050818103602083015261542a8184614953565b90509392505050565b600060608201905061544860008301866149c8565b6154556020830185614871565b61546260408301846151ff565b949350505050565b600060e08201905061547f600083018a6149c8565b61548c6020830189614871565b61549960408301886151ff565b6154a660608301876151ff565b6154b360808301866151ff565b6154c060a08301856151ff565b6154cd60c08301846151ff565b98975050505050505050565b60006040820190506154ee60008301856149c8565b6154fb60208301846151ff565b9392505050565b600060208201905061551760008301846149e6565b92915050565b600060408201905061553260008301856149e6565b61553f60208301846151ff565b9392505050565b600060208201905081810360008301526155608184614a2e565b905092915050565b600060408201905081810360008301526155828185614a2e565b905061559160208301846151ff565b9392505050565b600060208201905081810360008301526155b181614a67565b9050919050565b600060208201905081810360008301526155d181614aa7565b9050919050565b600060208201905081810360008301526155f181614ae7565b9050919050565b6000602082019050818103600083015261561181614b4d565b9050919050565b6000602082019050818103600083015261563181614bb3565b9050919050565b6000602082019050818103600083015261565181614bf3565b9050919050565b6000602082019050818103600083015261567181614c33565b9050919050565b6000602082019050818103600083015261569181614c73565b9050919050565b600060208201905081810360008301526156b181614cb3565b9050919050565b600060208201905081810360008301526156d181614cf3565b9050919050565b600060208201905081810360008301526156f181614d59565b9050919050565b6000602082019050818103600083015261571181614dbf565b9050919050565b6000602082019050818103600083015261573181614e25565b9050919050565b6000602082019050818103600083015261575181614e65565b9050919050565b6000602082019050818103600083015261577181614ecb565b9050919050565b6000602082019050818103600083015261579181614f31565b9050919050565b600060208201905081810360008301526157b181614f97565b9050919050565b60006020820190506157cd60008301846151ff565b92915050565b60006040820190506157e860008301856151ff565b6157f560208301846151ff565b9392505050565b600060e082019050615811600083018a6151ff565b61581e60208301896151ff565b61582b6040830188614871565b818103606083015261583d8187614a2e565b905061584c60808301866151ff565b61585960a08301856151ff565b61586660c08301846151ff565b98975050505050505050565b600060608201905061588760008301866151ff565b61589460208301856151ff565b6158a160408301846151ff565b949350505050565b600060a0820190506158be60008301886151ff565b6158cb60208301876151ff565b6158d860408301866151ff565b6158e560608301856151ff565b81810360808301526158f78184614a2e565b90509695505050505050565b6000604051905081810181811067ffffffffffffffff8211171561592657600080fd5b8060405250919050565b600067ffffffffffffffff82111561594757600080fd5b602082029050602081019050919050565b600067ffffffffffffffff82111561596f57600080fd5b601f19601f8301169050602081019050919050565b6000819050602082019050919050565b6000819050602082019050919050565b6000819050602082019050919050565b600081519050919050565b600081519050919050565b600081519050919050565b600081519050919050565b6000602082019050919050565b6000602082019050919050565b6000602082019050919050565b600082825260208201905092915050565b600082825260208201905092915050565b600082825260208201905092915050565b600082825260208201905092915050565b600082825260208201905092915050565b6000615a6782615a84565b9050919050565b60008115159050919050565b6000819050919050565b600073ffffffffffffffffffffffffffffffffffffffff82169050919050565b6000819050919050565b600060ff82169050919050565b82818337600083830152505050565b60005b83811015615ae8578082015181840152602081019050615acd565b83811115615af7576000848401525b50505050565b6000601f19601f8301169050919050565b615b1781615a5c565b8114615b2257600080fd5b50565b615b2e81615a7a565b8114615b3957600080fd5b50565b615b4581615aa4565b8114615b5057600080fd5b50565b615b5c81615aae565b8114615b6757600080fd5b5056fea26469706673582212201fa11c6da8212184ab9f67d4844e9f5ed76d6b793ea50966f528916969edaa5564736f6c634300060c0033",
  "immutableReferences": {},
  "source": "// SPDX-License-Identifier: MIT\npragma solidity >=0.6.12;\npragma experimental ABIEncoderV2;\n\nimport \"../openzeppelin/contracts/math/SafeMath.sol\";\nimport \"../openzeppelin/contracts/access/Ownable.sol\";\nimport \"../openzeppelin/contracts/utils/Strings.sol\";\nimport \"../quote/QuoteFactory.sol\";\nimport \"../interface/ISwapTrade.sol\";\nimport \"../interface/ITeemoPool.sol\";\nimport \"../libraries/SwapTradeLibrary.sol\";\n\ncontract SwapTrade is Ownable, ISwapTrade {\n    using SafeMath for uint256;\n\n    struct SwapLimitOrder {\n        address userAddr;\n        string symbol;\n        uint256 tokenAmount;\n        uint256 lever;\n        uint256 bsFlag;//  1 2\n        uint256 openPrice;// \n        uint256 openTime;// \n        uint256 newPrice;// \n        uint256 pLimitPrice;// \n        uint256 lLimitPrice;// \n        uint256 closeTime;// \n        uint256 status;//  1: 2 3\n    }\n    struct SwapOrder {\n        address userAddr;\n        string symbol;\n        uint256 tokenAmount;\n        uint256 lever;\n        uint256 bsFlag;//  1 2\n        uint256 openPrice;// \n        uint256 openTime;// \n        uint256 pLimitPrice;// \n        uint256 lLimitPrice;// \n        uint256 closePrice;// \n        uint256 closeTime;// \n    }\n\n    // \n    uint256 validBlocks = 1000;\n\n    address public tokenAddr;\n    address public poolAddr;\n    address public quoteFactoryAddr;\n    \n    mapping(bytes32 => SwapOrder) public allOrderHash;// =>\n    mapping(address => bytes32[]) public allOrderUser;// =>\n\n    mapping(bytes32 => SwapLimitOrder) public allLimitOrderHash;// =>\n    mapping(address => bytes32[]) public allLimitOrderUser;// =>\n\n    function initialize(address _tokenAddr, address _poolAddr) public onlyOwner{\n        tokenAddr = _tokenAddr;\n        poolAddr = _poolAddr;\n        quoteFactoryAddr = ITeemoPool(poolAddr).getQuoteFactoryAddr();\n    } \n\n    function orderLength(address _userAddress) public view returns(uint256) {\n        return allOrderUser[_userAddress].length;\n    }\n\n    function limitOrderLength(address _userAddress) public view returns(uint256) {\n        return allLimitOrderUser[_userAddress].length;\n    }\n\n    //0 1 2\n    function getAllOrder(address _userAddress, uint8 status) public view returns(\n        bytes32[] memory orderIds,\n        SwapOrder[] memory orders\n        ) {\n        orderIds = allOrderUser[_userAddress];\n        uint256 size = 0;\n        for (uint i = 0; i < orderIds.length; i++) {\n            SwapOrder memory order = allOrderHash[orderIds[i]];\n            if (status == 0 || (status == 1 && order.closePrice > 0) || (status == 2 && order.closePrice == 0)) {\n                size++;\n            }\n        }\n        orders = new SwapOrder[](size);\n        uint256 index = 0;\n        for (uint i = 0; i < orderIds.length; i++) {\n            SwapOrder memory order = allOrderHash[orderIds[i]];\n            if (status == 0 || (status == 1 && order.closePrice > 0) || (status == 2 && order.closePrice == 0)) {\n                orderIds[index] = orderIds[i];\n                orders[index] = order;\n                index++;\n            }\n        }\n    }\n\n    //0 1: 2 3 4-\n    function getAllLimitOrder(address _userAddress, uint8 status) public view returns(\n        bytes32[] memory orderIds,\n        SwapLimitOrder[] memory orders\n        ) {\n        orderIds = allLimitOrderUser[_userAddress];\n        uint256 size = 0;\n        for (uint i = 0; i < orderIds.length; i++) {\n            SwapLimitOrder memory order = allLimitOrderHash[orderIds[i]];\n            if (status == 0 || status == order.status || (status == 4 && (order.status == 1 || order.status == 3))) {\n                size++;\n            }\n        }\n        orders = new SwapLimitOrder[](size);\n        uint256 index = 0;\n        for (uint i = 0; i < orderIds.length; i++) {\n            SwapLimitOrder memory order = allLimitOrderHash[orderIds[i]];\n            if (status == 0 || status == order.status || (status == 4 && (order.status == 1 || order.status == 3))) {\n                orderIds[index] = orderIds[i];\n                orders[index] = order;\n                index++;\n            }\n        }\n    }\n\n    // \n    function openLimitSwap(address _userAddr,string memory _symbol,uint256 _limitPrice,uint256 _tokenAmount,uint256 _lever,uint256 _bsFlag,uint256 _pLimitPrice,uint256 _lLimitPrice) \n        public override onlyOwner \n        returns (bytes32, uint256) {\n        uint256[2] memory priceInfo;\n        (priceInfo[0],priceInfo[1], ) = getNewPrice(_symbol);\n        bytes32 orderID = keccak256(abi.encode(block.number,gasleft(),_userAddr,_symbol,_tokenAmount,_lever,_bsFlag));\n        allLimitOrderHash[orderID] = SwapLimitOrder({\n            userAddr: _userAddr,\n            symbol: _symbol,\n            tokenAmount: _tokenAmount,\n            lever: _lever,\n            bsFlag: _bsFlag,\n            openPrice: _limitPrice,\n            openTime: priceInfo[1],\n            newPrice: priceInfo[0],\n            pLimitPrice: _pLimitPrice,\n            lLimitPrice: _lLimitPrice,\n            closeTime: 0,\n            status: 2\n        });\n        allLimitOrderUser[_userAddr].push(orderID);\n        return (orderID,priceInfo[0]);\n    }\n    // \n    function cancelLimitSwap(address _userAddr,bytes32 _orderID) \n        public override onlyOwner\n        returns (uint256 tokenAmount)\n    {\n        SwapLimitOrder storage orderInfo = allLimitOrderHash[_orderID];\n        require(orderInfo.userAddr == _userAddr, \"cancelLimitSwap: USERADDR_WRONG\");\n        require(orderInfo.status == 2, \"cancelLimitSwap: ORDER_STATUS_WRONG\");\n        tokenAmount = orderInfo.tokenAmount;\n        orderInfo.closeTime = block.timestamp;\n        orderInfo.status = 1;\n    }\n    // \n    function tradeLimitSwap(bytes32 _orderID,uint256 _blockIndex) \n        public override onlyOwner\n        returns (bool success,address userAddr,uint256 tokenAmount)\n    {\n        SwapLimitOrder storage orderInfo = allLimitOrderHash[_orderID];\n        require(orderInfo.status == 2, \"tradeLimitSwap: ORDER_STATUS_WRONG\");\n        (uint256 tradePrice,uint256 priceTime) = getLastPrice(orderInfo.symbol,_blockIndex);\n        require(orderInfo.openTime < priceTime, \"tradeLimitSwap: ORDER_TIME_WRONG\");\n        success = SwapTradeLibrary.isTradeLimitSwap(orderInfo.newPrice,orderInfo.openPrice,tradePrice);\n        if(success == true){\n            tokenAmount = orderInfo.tokenAmount;\n            userAddr = orderInfo.userAddr;\n            orderInfo.closeTime = priceTime;\n            orderInfo.status = 3;\n            allOrderHash[_orderID] = SwapOrder({\n                userAddr: orderInfo.userAddr,\n                symbol: orderInfo.symbol,\n                tokenAmount: orderInfo.tokenAmount,\n                lever: orderInfo.lever,\n                bsFlag: orderInfo.bsFlag,\n                openPrice: orderInfo.openPrice,\n                openTime: orderInfo.closeTime,\n                pLimitPrice: orderInfo.pLimitPrice,\n                lLimitPrice: orderInfo.lLimitPrice,\n                closePrice: 0,\n                closeTime: 0\n            });\n            allOrderUser[orderInfo.userAddr].push(_orderID);            \n        }\n    }    \n\n    // \n    function openMarketSwap(address _userAddr,string memory _symbol,uint256 _tokenAmount,uint256 _lever,uint256 _bsFlag,uint256 _pLimitPrice,uint256 _lLimitPrice, uint256 _maxPrice) \n        public override onlyOwner returns (bytes32, uint256) {\n        uint256[3] memory priceInfo;\n        (priceInfo[0],priceInfo[1], priceInfo[2]) = getNewPrice(_symbol);\n        if(_bsFlag == 1){\n            require(priceInfo[0]>=_maxPrice, 'openMarketSwap: SLIPPAGE_TOO_HIGH');\n        }else{\n            require(priceInfo[0]<=_maxPrice, 'openMarketSwap: SLIPPAGE_TOO_HIGH');\n        }\n        if(priceInfo[2].add(validBlocks) < block.number){\n            priceInfo[0] = 0;\n            priceInfo[1] = 0;\n        }\n        bytes32 orderID = keccak256(abi.encode(block.number,gasleft(),_userAddr,_symbol,_tokenAmount,_lever,_bsFlag));\n        allOrderHash[orderID] = SwapOrder({\n            userAddr: _userAddr,\n            symbol: _symbol,\n            tokenAmount: _tokenAmount,\n            lever: _lever,\n            bsFlag: _bsFlag,\n            openPrice: priceInfo[0],\n            openTime: priceInfo[1],\n            pLimitPrice: _pLimitPrice,\n            lLimitPrice: _lLimitPrice,\n            closePrice: 0,\n            closeTime: 0\n        });\n        allOrderUser[_userAddr].push(orderID);\n        return (orderID,priceInfo[0]);\n    }\n\n    // \n    function closeMarketSwap(address _userAddr,bytes32 _orderID) \n        public override onlyOwner\n        returns (uint256 closePrice,uint256 plFlag,uint256 plAmount,uint256 tokenAmount, string memory symbol)\n    {\n        SwapOrder storage orderInfo = allOrderHash[_orderID];\n        symbol = orderInfo.symbol;\n        require(orderInfo.userAddr == _userAddr, \"closeSwap: USERADDR_WRONG\");\n        require(orderInfo.closePrice == 0, \"closeSwap: ORDER_STATUS_WRONG\");\n        require(orderInfo.openPrice != 0, \"closeSwap: ORDER_STATUS_WRONG\");\n        uint256 priceTime = 0;\n        uint256 blockIndex = 0;\n        (closePrice,priceTime, blockIndex) = getNewPrice(orderInfo.symbol);\n        if(blockIndex.add(validBlocks) >= block.number) {\n            tokenAmount = orderInfo.tokenAmount;\n            (plFlag, plAmount) = SwapTradeLibrary.calcSwapOrderPL(orderInfo.bsFlag,orderInfo.tokenAmount,orderInfo.lever,orderInfo.openPrice,closePrice);\n            orderInfo.closePrice = closePrice;\n            orderInfo.closeTime = priceTime;\n        }else{\n            closePrice = 0;\n        }\n    }\n\n    // \n    function closeLimitSwap(bytes32 _orderID,uint256 _blockIndex) \n        public override onlyOwner\n        returns (bool success,address userAddr,uint256 closePrice,uint256 closeType,uint256 plFlag,uint256 plAmount,uint256 tokenAmount)\n    {\n        SwapOrder storage orderInfo = allOrderHash[_orderID];\n        require(orderInfo.closePrice == 0, \"closeSwap: ORDER_STATUS_WRONG\");\n        (uint256 lastPrice,uint256 priceTime) = getLastPrice(orderInfo.symbol,_blockIndex);\n        require(orderInfo.openTime < priceTime, \"tradeLimitSwap: ORDER_TIME_WRONG\");\n        (success,closePrice,closeType) = SwapTradeLibrary.calcSwapOrderCloseInfo(orderInfo.bsFlag,orderInfo.openPrice,orderInfo.lever,orderInfo.tokenAmount,orderInfo.pLimitPrice,orderInfo.lLimitPrice,lastPrice);\n        if(success == true){\n            tokenAmount = orderInfo.tokenAmount;\n            userAddr = orderInfo.userAddr;\n            (plFlag, plAmount) = SwapTradeLibrary.calcSwapOrderPL(orderInfo.bsFlag,orderInfo.tokenAmount,orderInfo.lever,orderInfo.openPrice,closePrice);\n            orderInfo.closePrice = closePrice;\n            orderInfo.closeTime = priceTime;\n        }\n    }    \n    // \n    function updateSwapByPrice(address _userAddr,bytes32 _orderID,uint256 _pLimitPrice,uint256 _lLimitPrice) \n        public override onlyOwner \n        returns (uint256 pLimitRate,uint256 lLimitRate) {\n        SwapOrder storage orderInfo = allOrderHash[_orderID];\n        require(orderInfo.userAddr == _userAddr, \"closeSwap: USERADDR_WRONG\");\n        require(orderInfo.closePrice == 0, \"closeSwap: ORDER_STATUS_WRONG\");\n        if (orderInfo.bsFlag == 1) {\n            if (_pLimitPrice > 0) {\n                require(_pLimitPrice > 0 && _pLimitPrice < orderInfo.openPrice, \"closeSwap: ORDER_PLIMITPRICE_WRONG1\");                 \n            }\n            if (_lLimitPrice > 0) {\n                require(_lLimitPrice > 0 && _lLimitPrice > orderInfo.openPrice, \"closeSwap: ORDER_LLIMITPRICE_WRONG2\");   \n            }\n        } else {\n            if (_pLimitPrice > 0) {\n                require(_pLimitPrice > 0 && _pLimitPrice > orderInfo.openPrice, \"closeSwap: ORDER_PLIMITPRICE_WRONG3\");                 \n            }\n            if (_lLimitPrice > 0) {\n                require(_lLimitPrice > 0 && _lLimitPrice < orderInfo.openPrice, \"closeSwap: ORDER_LLIMITPRICE_WRONG4\");\n            }\n        }\n        pLimitRate = SwapTradeLibrary.calcSwapOrderPRate(orderInfo.bsFlag,orderInfo.openPrice,_pLimitPrice);\n        lLimitRate = SwapTradeLibrary.calcSwapOrderLRate(orderInfo.bsFlag,orderInfo.openPrice,_lLimitPrice);\n        orderInfo.pLimitPrice = _pLimitPrice;\n        orderInfo.lLimitPrice = _lLimitPrice;\n    }\n\n    // \n    function updateSwapByRate(address _userAddr,bytes32 _orderID,uint256 _pLimitRate,uint256 _lLimitRate) \n        public override onlyOwner \n        returns (uint256 pLimitPrice,uint256 lLimitPrice) {\n        SwapOrder storage orderInfo = allOrderHash[_orderID];\n        require(orderInfo.userAddr == _userAddr, \"closeSwap: USERADDR_WRONG\");\n        require(orderInfo.closePrice == 0, \"closeSwap: ORDER_STATUS_WRONG\");\n        pLimitPrice = SwapTradeLibrary.calcSwapOrderPPrice(orderInfo.bsFlag,orderInfo.openPrice,_pLimitRate);\n        lLimitPrice = SwapTradeLibrary.calcSwapOrderLPrice(orderInfo.bsFlag,orderInfo.openPrice,_lLimitRate);\n        orderInfo.pLimitPrice = pLimitPrice;\n        orderInfo.lLimitPrice = lLimitPrice;\n    }\n\n    function setValidBlocks(uint256 _validBlocks) public override onlyOwner {\n        validBlocks = _validBlocks;\n    }\n\n    // \n    function setOrderPrice(bytes32 _orderID) public override onlyOwner returns(address userAddr, uint256 openPrice) {\n        SwapOrder storage orderInfo = allOrderHash[_orderID];\n        require(orderInfo.openPrice == 0, \"setOrderPrice: ALREADY_SET\");\n        uint256 priceTime = 0;\n        (openPrice,priceTime, ) = getNewPrice(orderInfo.symbol);\n        orderInfo.openPrice = openPrice;\n        orderInfo.openTime = priceTime;\n        userAddr = orderInfo.userAddr;\n    }  \n\n    function getNewPrice(string memory _symbol) \n        public view \n        returns (uint256 newPrice,uint256 priceTime, uint256 blockIndex){\n        (blockIndex, newPrice, priceTime) = QuoteFactory(quoteFactoryAddr).getNewPrice(_symbol);\n    }\n\n    function getLastPrice(string memory _symbol,uint256 _blockIndex) \n        public view \n        returns (uint256 newPrice,uint256 priceTime){\n        (, newPrice,priceTime) = QuoteFactory(quoteFactoryAddr).getLastPrice(_symbol,_blockIndex);\n        require(newPrice > 0, \"getLastPrice: LAST_PRICE_WRONG\");\n    }\n\n    function getSymbol(bytes32 _orderID) public view override returns(string memory symbol) {\n        SwapOrder storage orderInfo = allOrderHash[_orderID];\n        symbol = orderInfo.symbol;\n    }\n\n    function isValidating(bytes32[] memory _orderIDs) public view override returns(bool status, uint256 blockIndex) {\n        SwapOrder storage orderInfo = allOrderHash[_orderIDs[0]];\n        (, , uint256 _blockIndex) = getNewPrice(orderInfo.symbol);\n        if(_blockIndex.add(validBlocks) > block.number){\n            status = true;\n            blockIndex = _blockIndex;\n        }else{\n            status = false;\n        }\n    }\n}\n",
  "sourcePath": "/Users/tong/Projects/drep-project/teemo-private/contracts/trade/SwapTrade.sol",
  "compiler": {
    "name": "solc",
    "version": "0.6.12+commit.27d51765.Emscripten.clang"
  },
  "schemaVersion": "3.3.2",
  "updatedAt": "2021-01-20T10:30:15.652Z",
  "devdoc": {
    "kind": "dev",
    "methods": {
      "owner()": {
        "details": "Returns the address of the current owner."
      },
      "renounceOwnership()": {
        "details": "Leaves the contract without owner. It will not be possible to call `onlyOwner` functions anymore. Can only be called by the current owner. NOTE: Renouncing ownership will leave the contract without an owner, thereby removing any functionality that is only available to the owner."
      },
      "transferOwnership(address)": {
        "details": "Transfers ownership of the contract to a new account (`newOwner`). Can only be called by the current owner."
      }
    },
    "version": 1
  },
  "userdoc": {
    "kind": "user",
    "methods": {},
    "version": 1
  }
}