{
  "contractName": "SwapTrade",
  "abi": [
    {
      "anonymous": false,
      "inputs": [
        {
          "indexed": true,
          "internalType": "address",
          "name": "previousOwner",
          "type": "address"
        },
        {
          "indexed": true,
          "internalType": "address",
          "name": "newOwner",
          "type": "address"
        }
      ],
      "name": "OwnershipTransferred",
      "type": "event"
    },
    {
      "inputs": [
        {
          "internalType": "bytes32",
          "name": "",
          "type": "bytes32"
        }
      ],
      "name": "allLimitOrderHash",
      "outputs": [
        {
          "internalType": "address",
          "name": "userAddr",
          "type": "address"
        },
        {
          "internalType": "string",
          "name": "symbol",
          "type": "string"
        },
        {
          "internalType": "uint256",
          "name": "tokenAmount",
          "type": "uint256"
        },
        {
          "internalType": "uint256",
          "name": "lever",
          "type": "uint256"
        },
        {
          "internalType": "uint256",
          "name": "bsFlag",
          "type": "uint256"
        },
        {
          "internalType": "uint256",
          "name": "openPrice",
          "type": "uint256"
        },
        {
          "internalType": "uint256",
          "name": "openTime",
          "type": "uint256"
        },
        {
          "internalType": "uint256",
          "name": "newPrice",
          "type": "uint256"
        },
        {
          "internalType": "uint256",
          "name": "pLimitPrice",
          "type": "uint256"
        },
        {
          "internalType": "uint256",
          "name": "lLimitPrice",
          "type": "uint256"
        },
        {
          "internalType": "uint256",
          "name": "closeTime",
          "type": "uint256"
        },
        {
          "internalType": "uint256",
          "name": "status",
          "type": "uint256"
        }
      ],
      "stateMutability": "view",
      "type": "function"
    },
    {
      "inputs": [
        {
          "internalType": "address",
          "name": "",
          "type": "address"
        },
        {
          "internalType": "uint256",
          "name": "",
          "type": "uint256"
        }
      ],
      "name": "allLimitOrderUser",
      "outputs": [
        {
          "internalType": "bytes32",
          "name": "",
          "type": "bytes32"
        }
      ],
      "stateMutability": "view",
      "type": "function"
    },
    {
      "inputs": [
        {
          "internalType": "bytes32",
          "name": "",
          "type": "bytes32"
        }
      ],
      "name": "allOrderHash",
      "outputs": [
        {
          "internalType": "address",
          "name": "userAddr",
          "type": "address"
        },
        {
          "internalType": "string",
          "name": "symbol",
          "type": "string"
        },
        {
          "internalType": "uint256",
          "name": "tokenAmount",
          "type": "uint256"
        },
        {
          "internalType": "uint256",
          "name": "lever",
          "type": "uint256"
        },
        {
          "internalType": "uint256",
          "name": "bsFlag",
          "type": "uint256"
        },
        {
          "internalType": "uint256",
          "name": "openPrice",
          "type": "uint256"
        },
        {
          "internalType": "uint256",
          "name": "openTime",
          "type": "uint256"
        },
        {
          "internalType": "uint256",
          "name": "pLimitPrice",
          "type": "uint256"
        },
        {
          "internalType": "uint256",
          "name": "lLimitPrice",
          "type": "uint256"
        },
        {
          "internalType": "uint256",
          "name": "closePrice",
          "type": "uint256"
        },
        {
          "internalType": "uint256",
          "name": "closeTime",
          "type": "uint256"
        }
      ],
      "stateMutability": "view",
      "type": "function"
    },
    {
      "inputs": [
        {
          "internalType": "address",
          "name": "",
          "type": "address"
        },
        {
          "internalType": "uint256",
          "name": "",
          "type": "uint256"
        }
      ],
      "name": "allOrderUser",
      "outputs": [
        {
          "internalType": "bytes32",
          "name": "",
          "type": "bytes32"
        }
      ],
      "stateMutability": "view",
      "type": "function"
    },
    {
      "inputs": [],
      "name": "owner",
      "outputs": [
        {
          "internalType": "address",
          "name": "",
          "type": "address"
        }
      ],
      "stateMutability": "view",
      "type": "function"
    },
    {
      "inputs": [],
      "name": "poolAddr",
      "outputs": [
        {
          "internalType": "address",
          "name": "",
          "type": "address"
        }
      ],
      "stateMutability": "view",
      "type": "function"
    },
    {
      "inputs": [],
      "name": "quoteFactoryAddr",
      "outputs": [
        {
          "internalType": "address",
          "name": "",
          "type": "address"
        }
      ],
      "stateMutability": "view",
      "type": "function"
    },
    {
      "inputs": [],
      "name": "renounceOwnership",
      "outputs": [],
      "stateMutability": "nonpayable",
      "type": "function"
    },
    {
      "inputs": [],
      "name": "tokenAddr",
      "outputs": [
        {
          "internalType": "address",
          "name": "",
          "type": "address"
        }
      ],
      "stateMutability": "view",
      "type": "function"
    },
    {
      "inputs": [
        {
          "internalType": "address",
          "name": "newOwner",
          "type": "address"
        }
      ],
      "name": "transferOwnership",
      "outputs": [],
      "stateMutability": "nonpayable",
      "type": "function"
    },
    {
      "inputs": [
        {
          "internalType": "address",
          "name": "_tokenAddr",
          "type": "address"
        },
        {
          "internalType": "address",
          "name": "_poolAddr",
          "type": "address"
        }
      ],
      "name": "initialize",
      "outputs": [],
      "stateMutability": "nonpayable",
      "type": "function"
    },
    {
      "inputs": [
        {
          "internalType": "address",
          "name": "_userAddress",
          "type": "address"
        }
      ],
      "name": "orderLength",
      "outputs": [
        {
          "internalType": "uint256",
          "name": "",
          "type": "uint256"
        }
      ],
      "stateMutability": "view",
      "type": "function"
    },
    {
      "inputs": [
        {
          "internalType": "address",
          "name": "_userAddress",
          "type": "address"
        }
      ],
      "name": "limitOrderLength",
      "outputs": [
        {
          "internalType": "uint256",
          "name": "",
          "type": "uint256"
        }
      ],
      "stateMutability": "view",
      "type": "function"
    },
    {
      "inputs": [
        {
          "internalType": "address",
          "name": "_userAddress",
          "type": "address"
        },
        {
          "internalType": "uint8",
          "name": "status",
          "type": "uint8"
        }
      ],
      "name": "getAllOrder",
      "outputs": [
        {
          "components": [
            {
              "internalType": "address",
              "name": "userAddr",
              "type": "address"
            },
            {
              "internalType": "string",
              "name": "symbol",
              "type": "string"
            },
            {
              "internalType": "uint256",
              "name": "tokenAmount",
              "type": "uint256"
            },
            {
              "internalType": "uint256",
              "name": "lever",
              "type": "uint256"
            },
            {
              "internalType": "uint256",
              "name": "bsFlag",
              "type": "uint256"
            },
            {
              "internalType": "uint256",
              "name": "openPrice",
              "type": "uint256"
            },
            {
              "internalType": "uint256",
              "name": "openTime",
              "type": "uint256"
            },
            {
              "internalType": "uint256",
              "name": "pLimitPrice",
              "type": "uint256"
            },
            {
              "internalType": "uint256",
              "name": "lLimitPrice",
              "type": "uint256"
            },
            {
              "internalType": "uint256",
              "name": "closePrice",
              "type": "uint256"
            },
            {
              "internalType": "uint256",
              "name": "closeTime",
              "type": "uint256"
            }
          ],
          "internalType": "struct SwapTrade.SwapOrder[]",
          "name": "orders",
          "type": "tuple[]"
        }
      ],
      "stateMutability": "view",
      "type": "function"
    },
    {
      "inputs": [
        {
          "internalType": "address",
          "name": "_userAddress",
          "type": "address"
        },
        {
          "internalType": "uint8",
          "name": "status",
          "type": "uint8"
        }
      ],
      "name": "getAllLimitOrder",
      "outputs": [
        {
          "components": [
            {
              "internalType": "address",
              "name": "userAddr",
              "type": "address"
            },
            {
              "internalType": "string",
              "name": "symbol",
              "type": "string"
            },
            {
              "internalType": "uint256",
              "name": "tokenAmount",
              "type": "uint256"
            },
            {
              "internalType": "uint256",
              "name": "lever",
              "type": "uint256"
            },
            {
              "internalType": "uint256",
              "name": "bsFlag",
              "type": "uint256"
            },
            {
              "internalType": "uint256",
              "name": "openPrice",
              "type": "uint256"
            },
            {
              "internalType": "uint256",
              "name": "openTime",
              "type": "uint256"
            },
            {
              "internalType": "uint256",
              "name": "newPrice",
              "type": "uint256"
            },
            {
              "internalType": "uint256",
              "name": "pLimitPrice",
              "type": "uint256"
            },
            {
              "internalType": "uint256",
              "name": "lLimitPrice",
              "type": "uint256"
            },
            {
              "internalType": "uint256",
              "name": "closeTime",
              "type": "uint256"
            },
            {
              "internalType": "uint256",
              "name": "status",
              "type": "uint256"
            }
          ],
          "internalType": "struct SwapTrade.SwapLimitOrder[]",
          "name": "orders",
          "type": "tuple[]"
        }
      ],
      "stateMutability": "view",
      "type": "function"
    },
    {
      "inputs": [
        {
          "internalType": "address",
          "name": "_userAddr",
          "type": "address"
        },
        {
          "internalType": "string",
          "name": "_symbol",
          "type": "string"
        },
        {
          "internalType": "uint256",
          "name": "_limitPrice",
          "type": "uint256"
        },
        {
          "internalType": "uint256",
          "name": "_tokenAmount",
          "type": "uint256"
        },
        {
          "internalType": "uint256",
          "name": "_lever",
          "type": "uint256"
        },
        {
          "internalType": "uint256",
          "name": "_bsFlag",
          "type": "uint256"
        },
        {
          "internalType": "uint256",
          "name": "_pLimitPrice",
          "type": "uint256"
        },
        {
          "internalType": "uint256",
          "name": "_lLimitPrice",
          "type": "uint256"
        }
      ],
      "name": "openLimitSwap",
      "outputs": [
        {
          "internalType": "bytes32",
          "name": "",
          "type": "bytes32"
        },
        {
          "internalType": "uint256",
          "name": "",
          "type": "uint256"
        }
      ],
      "stateMutability": "nonpayable",
      "type": "function"
    },
    {
      "inputs": [
        {
          "internalType": "address",
          "name": "_userAddr",
          "type": "address"
        },
        {
          "internalType": "bytes32",
          "name": "_orderID",
          "type": "bytes32"
        }
      ],
      "name": "cancelLimitSwap",
      "outputs": [
        {
          "internalType": "uint256",
          "name": "tokenAmount",
          "type": "uint256"
        }
      ],
      "stateMutability": "nonpayable",
      "type": "function"
    },
    {
      "inputs": [
        {
          "internalType": "bytes32",
          "name": "_orderID",
          "type": "bytes32"
        },
        {
          "internalType": "uint256",
          "name": "_blockIndex",
          "type": "uint256"
        }
      ],
      "name": "tradeLimitSwap",
      "outputs": [
        {
          "internalType": "bool",
          "name": "success",
          "type": "bool"
        },
        {
          "internalType": "address",
          "name": "userAddr",
          "type": "address"
        },
        {
          "internalType": "uint256",
          "name": "tokenAmount",
          "type": "uint256"
        }
      ],
      "stateMutability": "nonpayable",
      "type": "function"
    },
    {
      "inputs": [
        {
          "internalType": "address",
          "name": "_userAddr",
          "type": "address"
        },
        {
          "internalType": "string",
          "name": "_symbol",
          "type": "string"
        },
        {
          "internalType": "uint256",
          "name": "_tokenAmount",
          "type": "uint256"
        },
        {
          "internalType": "uint256",
          "name": "_lever",
          "type": "uint256"
        },
        {
          "internalType": "uint256",
          "name": "_bsFlag",
          "type": "uint256"
        },
        {
          "internalType": "uint256",
          "name": "_pLimitPrice",
          "type": "uint256"
        },
        {
          "internalType": "uint256",
          "name": "_lLimitPrice",
          "type": "uint256"
        },
        {
          "internalType": "uint256",
          "name": "_maxPrice",
          "type": "uint256"
        }
      ],
      "name": "openMarketSwap",
      "outputs": [
        {
          "internalType": "bytes32",
          "name": "",
          "type": "bytes32"
        },
        {
          "internalType": "uint256",
          "name": "",
          "type": "uint256"
        }
      ],
      "stateMutability": "nonpayable",
      "type": "function"
    },
    {
      "inputs": [
        {
          "internalType": "address",
          "name": "_userAddr",
          "type": "address"
        },
        {
          "internalType": "bytes32",
          "name": "_orderID",
          "type": "bytes32"
        }
      ],
      "name": "closeMarketSwap",
      "outputs": [
        {
          "internalType": "uint256",
          "name": "closePrice",
          "type": "uint256"
        },
        {
          "internalType": "uint256",
          "name": "plFlag",
          "type": "uint256"
        },
        {
          "internalType": "uint256",
          "name": "plAmount",
          "type": "uint256"
        },
        {
          "internalType": "uint256",
          "name": "tokenAmount",
          "type": "uint256"
        }
      ],
      "stateMutability": "nonpayable",
      "type": "function"
    },
    {
      "inputs": [
        {
          "internalType": "bytes32",
          "name": "_orderID",
          "type": "bytes32"
        },
        {
          "internalType": "uint256",
          "name": "_blockIndex",
          "type": "uint256"
        }
      ],
      "name": "closeLimitSwap",
      "outputs": [
        {
          "internalType": "bool",
          "name": "success",
          "type": "bool"
        },
        {
          "internalType": "address",
          "name": "userAddr",
          "type": "address"
        },
        {
          "internalType": "uint256",
          "name": "closePrice",
          "type": "uint256"
        },
        {
          "internalType": "uint256",
          "name": "closeType",
          "type": "uint256"
        },
        {
          "internalType": "uint256",
          "name": "plFlag",
          "type": "uint256"
        },
        {
          "internalType": "uint256",
          "name": "plAmount",
          "type": "uint256"
        },
        {
          "internalType": "uint256",
          "name": "tokenAmount",
          "type": "uint256"
        }
      ],
      "stateMutability": "nonpayable",
      "type": "function"
    },
    {
      "inputs": [
        {
          "internalType": "address",
          "name": "_userAddr",
          "type": "address"
        },
        {
          "internalType": "bytes32",
          "name": "_orderID",
          "type": "bytes32"
        },
        {
          "internalType": "uint256",
          "name": "_pLimitPrice",
          "type": "uint256"
        },
        {
          "internalType": "uint256",
          "name": "_lLimitPrice",
          "type": "uint256"
        }
      ],
      "name": "updateSwapByPrice",
      "outputs": [
        {
          "internalType": "uint256",
          "name": "pLimitRate",
          "type": "uint256"
        },
        {
          "internalType": "uint256",
          "name": "lLimitRate",
          "type": "uint256"
        }
      ],
      "stateMutability": "nonpayable",
      "type": "function"
    },
    {
      "inputs": [
        {
          "internalType": "address",
          "name": "_userAddr",
          "type": "address"
        },
        {
          "internalType": "bytes32",
          "name": "_orderID",
          "type": "bytes32"
        },
        {
          "internalType": "uint256",
          "name": "_pLimitRate",
          "type": "uint256"
        },
        {
          "internalType": "uint256",
          "name": "_lLimitRate",
          "type": "uint256"
        }
      ],
      "name": "updateSwapByRate",
      "outputs": [
        {
          "internalType": "uint256",
          "name": "pLimitPrice",
          "type": "uint256"
        },
        {
          "internalType": "uint256",
          "name": "lLimitPrice",
          "type": "uint256"
        }
      ],
      "stateMutability": "nonpayable",
      "type": "function"
    },
    {
      "inputs": [
        {
          "internalType": "string",
          "name": "_symbol",
          "type": "string"
        }
      ],
      "name": "getNewPrice",
      "outputs": [
        {
          "internalType": "uint256",
          "name": "newPrice",
          "type": "uint256"
        },
        {
          "internalType": "uint256",
          "name": "priceTime",
          "type": "uint256"
        }
      ],
      "stateMutability": "view",
      "type": "function"
    },
    {
      "inputs": [
        {
          "internalType": "string",
          "name": "_symbol",
          "type": "string"
        },
        {
          "internalType": "uint256",
          "name": "_blockIndex",
          "type": "uint256"
        }
      ],
      "name": "getLastPrice",
      "outputs": [
        {
          "internalType": "uint256",
          "name": "newPrice",
          "type": "uint256"
        },
        {
          "internalType": "uint256",
          "name": "priceTime",
          "type": "uint256"
        }
      ],
      "stateMutability": "view",
      "type": "function"
    }
  ],
  "bytecode": "0x60806040523480156200001157600080fd5b50600062000024620000c860201b60201c565b9050806000806101000a81548173ffffffffffffffffffffffffffffffffffffffff021916908373ffffffffffffffffffffffffffffffffffffffff1602179055508073ffffffffffffffffffffffffffffffffffffffff16600073ffffffffffffffffffffffffffffffffffffffff167f8be0079c531659141344cd1fd0a4f28419497f9722a3daafe3b4186f6b6457e060405160405180910390a350620000d0565b600033905090565b614eff80620000e06000396000f3fe608060405234801561001057600080fd5b50600436106101735760003560e01c8063715018a6116100de57806395e71c5011610097578063e1c873e311610071578063e1c873e31461050b578063e8084a871461053b578063f2fde38b1461056c578063fd0ceefb1461058857610173565b806395e71c5014610481578063afcfb11a146104bc578063d4a06b87146104da57610173565b8063715018a6146103985780637593ce72146103a257806384433e6e146103d257806386239ca7146104025780638da5cb5b14610432578063908219c61461045057610173565b806339cbd01f1161013057806339cbd01f146102a45780633d3f2517146102de578063485cc9551461031057806355e5d8dc1461032c5780635fbe4d1d1461035c5780636046cd991461037a57610173565b80631e2a565b1461017857806322dbfdca146101ab57806326b3e792146101e157806327428feb1461021257806333a7eb5b146102425780633477255714610273575b600080fd5b610192600480360381019061018d9190613b71565b6105b8565b6040516101a29493929190614c7e565b60405180910390f35b6101c560048036038101906101c09190613d7b565b61083b565b6040516101d897969594939291906148ff565b60405180910390f35b6101fb60048036038101906101f69190613bad565b610ae1565b604051610209929190614bdf565b60405180910390f35b61022c60048036038101906102279190613d16565b610e0a565b6040516102399190614884565b60405180910390f35b61025c60048036038101906102579190613c10565b611326565b60405161026a929190614989565b60405180910390f35b61028d60048036038101906102889190613bad565b61162c565b60405161029b929190614bdf565b60405180910390f35b6102be60048036038101906102b99190613d52565b6117fa565b6040516102d59b9a99989796959493929190614711565b60405180910390f35b6102f860048036038101906102f39190613d7b565b61190c565b604051610307939291906148c8565b60405180910390f35b61032a60048036038101906103259190613b35565b611e06565b005b61034660048036038101906103419190613ae3565b612003565b6040516103539190614bc4565b60405180910390f35b61036461204f565b60405161037191906146f6565b60405180910390f35b610382612075565b60405161038f91906146f6565b60405180910390f35b6103a061209b565b005b6103bc60048036038101906103b79190613cda565b6121ee565b6040516103c9919061496e565b60405180910390f35b6103ec60048036038101906103e79190613cda565b61221c565b6040516103f9919061496e565b60405180910390f35b61041c60048036038101906104179190613d16565b61224a565b60405161042991906148a6565b60405180910390f35b61043a61274c565b60405161044791906146f6565b60405180910390f35b61046a60048036038101906104659190613c10565b612775565b604051610478929190614989565b60405180910390f35b61049b60048036038101906104969190613d52565b612b21565b6040516104b39c9b9a999897969594939291906147c3565b60405180910390f35b6104c4612c39565b6040516104d191906146f6565b60405180910390f35b6104f460048036038101906104ef9190613df8565b612c5f565b604051610502929190614bdf565b60405180910390f35b61052560048036038101906105209190613ae3565b612d64565b6040516105329190614bc4565b60405180910390f35b61055560048036038101906105509190613db7565b612db0565b604051610563929190614bdf565b60405180910390f35b61058660048036038101906105819190613ae3565b612e6e565b005b6105a2600480360381019061059d9190613b71565b613030565b6040516105af9190614bc4565b60405180910390f35b6000806000806105c66131d8565b73ffffffffffffffffffffffffffffffffffffffff1660008054906101000a900473ffffffffffffffffffffffffffffffffffffffff1673ffffffffffffffffffffffffffffffffffffffff1614610653576040517f08c379a000000000000000000000000000000000000000000000000000000000815260040161064a90614b64565b60405180910390fd5b60006004600087815260200190815260200160002090508673ffffffffffffffffffffffffffffffffffffffff168160000160009054906101000a900473ffffffffffffffffffffffffffffffffffffffff1673ffffffffffffffffffffffffffffffffffffffff16146106fc576040517f08c379a00000000000000000000000000000000000000000000000000000000081526004016106f390614b24565b60405180910390fd5b6000816009015414610743576040517f08c379a000000000000000000000000000000000000000000000000000000000815260040161073a90614ac4565b60405180910390fd5b60006107ea826001018054600181600116156101000203166002900480601f0160208091040260200160405190810160405280929190818152602001828054600181600116156101000203166002900480156107e05780601f106107b5576101008083540402835291602001916107e0565b820191906000526020600020905b8154815290600101906020018083116107c357829003601f168201915b5050505050612db0565b80925081975050508160020154925061081682600401548360020154846003015485600501548a6131e0565b80955081965050508582600901819055508082600a0181905550505092959194509250565b600080600080600080600061084e6131d8565b73ffffffffffffffffffffffffffffffffffffffff1660008054906101000a900473ffffffffffffffffffffffffffffffffffffffff1673ffffffffffffffffffffffffffffffffffffffff16146108db576040517f08c379a00000000000000000000000000000000000000000000000000000000081526004016108d290614b64565b60405180910390fd5b6000600460008b815260200190815260200160002090506000816009015414610939576040517f08c379a000000000000000000000000000000000000000000000000000000000815260040161093090614ac4565b60405180910390fd5b6000806109e2836001018054600181600116156101000203166002900480601f0160208091040260200160405190810160405280929190818152602001828054600181600116156101000203166002900480156109d75780601f106109ac576101008083540402835291602001916109d7565b820191906000526020600020905b8154815290600101906020018083116109ba57829003601f168201915b50505050508c612c5f565b9150915080836006015410610a2c576040517f08c379a0000000000000000000000000000000000000000000000000000000008152600401610a2390614ae4565b60405180910390fd5b610a538360040154846005015485600301548660020154876007015488600801548861336a565b809950819a50829c50505050600115158a15151415610ad257826002015493508260000160009054906101000a900473ffffffffffffffffffffffffffffffffffffffff169850610ab783600401548460020154856003015486600501548c6131e0565b80965081975050508783600901819055508083600a01819055505b50505092959891949750929550565b600080610aec6131d8565b73ffffffffffffffffffffffffffffffffffffffff1660008054906101000a900473ffffffffffffffffffffffffffffffffffffffff1673ffffffffffffffffffffffffffffffffffffffff1614610b79576040517f08c379a0000000000000000000000000000000000000000000000000000000008152600401610b7090614b64565b60405180910390fd5b60006004600087815260200190815260200160002090508673ffffffffffffffffffffffffffffffffffffffff168160000160009054906101000a900473ffffffffffffffffffffffffffffffffffffffff1673ffffffffffffffffffffffffffffffffffffffff1614610c22576040517f08c379a0000000000000000000000000000000000000000000000000000000008152600401610c1990614b24565b60405180910390fd5b6000816009015414610c69576040517f08c379a0000000000000000000000000000000000000000000000000000000008152600401610c6090614ac4565b60405180910390fd5b600181600401541415610d1f57600085118015610c895750806005015485105b610cc8576040517f08c379a0000000000000000000000000000000000000000000000000000000008152600401610cbf90614a04565b60405180910390fd5b600084118015610cdb5750806005015484115b610d1a576040517f08c379a0000000000000000000000000000000000000000000000000000000008152600401610d1190614a44565b60405180910390fd5b610dc4565b600085118015610d325750806005015485115b610d71576040517f08c379a0000000000000000000000000000000000000000000000000000000008152600401610d6890614a04565b60405180910390fd5b600084118015610d845750806005015484105b610dc3576040517f08c379a0000000000000000000000000000000000000000000000000000000008152600401610dba90614a44565b60405180910390fd5b5b610dd78160040154826005015487613407565b9250610dec8160040154826005015486613407565b91508481600701819055508381600801819055505094509492505050565b606080600760008573ffffffffffffffffffffffffffffffffffffffff1673ffffffffffffffffffffffffffffffffffffffff168152602001908152602001600020805480602002602001604051908101604052809291908181526020018280548015610e9657602002820191906000526020600020905b815481526020019060010190808311610e82575b505050505090506000805b82518110156110a657610eb261386b565b60066000858481518110610ec257fe5b60200260200101518152602001908152602001600020604051806101800160405290816000820160009054906101000a900473ffffffffffffffffffffffffffffffffffffffff1673ffffffffffffffffffffffffffffffffffffffff1673ffffffffffffffffffffffffffffffffffffffff168152602001600182018054600181600116156101000203166002900480601f016020809104026020016040519081016040528092919081815260200182805460018160011615610100020316600290048015610fd35780601f10610fa857610100808354040283529160200191610fd3565b820191906000526020600020905b815481529060010190602001808311610fb657829003601f168201915b505050505081526020016002820154815260200160038201548152602001600482015481526020016005820154815260200160068201548152602001600782015481526020016008820154815260200160098201548152602001600a8201548152602001600b82015481525050905060008660ff16148061105b57508061016001518660ff16145b8061108a575060048660ff1614801561108957506001816101600151148061108857506003816101600151145b5b5b156110985782806001019350505b508080600101915050610ea1565b508067ffffffffffffffff811180156110be57600080fd5b506040519080825280602002602001820160405280156110f857816020015b6110e561386b565b8152602001906001900390816110dd5790505b5092506000805b835181101561131c5761111061386b565b6006600086848151811061112057fe5b60200260200101518152602001908152602001600020604051806101800160405290816000820160009054906101000a900473ffffffffffffffffffffffffffffffffffffffff1673ffffffffffffffffffffffffffffffffffffffff1673ffffffffffffffffffffffffffffffffffffffff168152602001600182018054600181600116156101000203166002900480601f0160208091040260200160405190810160405280929190818152602001828054600181600116156101000203166002900480156112315780601f1061120657610100808354040283529160200191611231565b820191906000526020600020905b81548152906001019060200180831161121457829003601f168201915b505050505081526020016002820154815260200160038201548152602001600482015481526020016005820154815260200160068201548152602001600782015481526020016008820154815260200160098201548152602001600a8201548152602001600b82015481525050905060008760ff1614806112b957508061016001518760ff16145b806112e8575060048760ff161480156112e75750600181610160015114806112e657506003816101600151145b5b5b1561130e57808684815181106112fa57fe5b602002602001018190525082806001019350505b5080806001019150506110ff565b5050505092915050565b6000806113316131d8565b73ffffffffffffffffffffffffffffffffffffffff1660008054906101000a900473ffffffffffffffffffffffffffffffffffffffff1673ffffffffffffffffffffffffffffffffffffffff16146113be576040517f08c379a00000000000000000000000000000000000000000000000000000000081526004016113b590614b64565b60405180910390fd5b6113c66138e2565b6113cf8a612db0565b826000600281106113dc57fe5b60200201836001600281106113ed57fe5b60200201828152508281525050506000435a8d8d8c8c8c60405160200161141a9796959493929190614c08565b6040516020818303038152906040528051906020012090506040518061018001604052808d73ffffffffffffffffffffffffffffffffffffffff1681526020018c81526020018a81526020018981526020018881526020018b81526020018360016002811061148557fe5b602002015181526020018360006002811061149c57fe5b602002015181526020018781526020018681526020016000815260200160028152506006600083815260200190815260200160002060008201518160000160006101000a81548173ffffffffffffffffffffffffffffffffffffffff021916908373ffffffffffffffffffffffffffffffffffffffff1602179055506020820151816001019080519060200190611534929190613904565b5060408201518160020155606082015181600301556080820151816004015560a0820151816005015560c0820151816006015560e082015181600701556101008201518160080155610120820151816009015561014082015181600a015561016082015181600b0155905050600760008d73ffffffffffffffffffffffffffffffffffffffff1673ffffffffffffffffffffffffffffffffffffffff168152602001908152602001600020819080600181540180825580915050600190039060005260206000200160009091909190915055808260006002811061161457fe5b60200201519350935050509850989650505050505050565b6000806116376131d8565b73ffffffffffffffffffffffffffffffffffffffff1660008054906101000a900473ffffffffffffffffffffffffffffffffffffffff1673ffffffffffffffffffffffffffffffffffffffff16146116c4576040517f08c379a00000000000000000000000000000000000000000000000000000000081526004016116bb90614b64565b60405180910390fd5b60006004600087815260200190815260200160002090508673ffffffffffffffffffffffffffffffffffffffff168160000160009054906101000a900473ffffffffffffffffffffffffffffffffffffffff1673ffffffffffffffffffffffffffffffffffffffff161461176d576040517f08c379a000000000000000000000000000000000000000000000000000000000815260040161176490614b24565b60405180910390fd5b60008160090154146117b4576040517f08c379a00000000000000000000000000000000000000000000000000000000081526004016117ab90614ac4565b60405180910390fd5b6117c7816004015482600501548761349c565b92506117dc816004015482600501548661349c565b91508281600701819055508181600801819055505094509492505050565b60046020528060005260406000206000915090508060000160009054906101000a900473ffffffffffffffffffffffffffffffffffffffff1690806001018054600181600116156101000203166002900480601f0160208091040260200160405190810160405280929190818152602001828054600181600116156101000203166002900480156118cc5780601f106118a1576101008083540402835291602001916118cc565b820191906000526020600020905b8154815290600101906020018083116118af57829003601f168201915b50505050509080600201549080600301549080600401549080600501549080600601549080600701549080600801549080600901549080600a015490508b565b60008060006119196131d8565b73ffffffffffffffffffffffffffffffffffffffff1660008054906101000a900473ffffffffffffffffffffffffffffffffffffffff1673ffffffffffffffffffffffffffffffffffffffff16146119a6576040517f08c379a000000000000000000000000000000000000000000000000000000000815260040161199d90614b64565b60405180910390fd5b6000600660008781526020019081526020016000209050600281600b015414611a04576040517f08c379a00000000000000000000000000000000000000000000000000000000081526004016119fb90614b84565b60405180910390fd5b600080611aad836001018054600181600116156101000203166002900480601f016020809104026020016040519081016040528092919081815260200182805460018160011615610100020316600290048015611aa25780601f10611a7757610100808354040283529160200191611aa2565b820191906000526020600020905b815481529060010190602001808311611a8557829003601f168201915b505050505088612c5f565b9150915080836006015410611af7576040517f08c379a0000000000000000000000000000000000000000000000000000000008152600401611aee90614ae4565b60405180910390fd5b611b0a8360070154846005015484613512565b9550600115158615151415611dfc57826002015493508260000160009054906101000a900473ffffffffffffffffffffffffffffffffffffffff1694508083600a0181905550600383600b01819055506040518061016001604052808460000160009054906101000a900473ffffffffffffffffffffffffffffffffffffffff1673ffffffffffffffffffffffffffffffffffffffff168152602001846001018054600181600116156101000203166002900480601f016020809104026020016040519081016040528092919081815260200182805460018160011615610100020316600290048015611c3e5780601f10611c1357610100808354040283529160200191611c3e565b820191906000526020600020905b815481529060010190602001808311611c2157829003601f168201915b505050505081526020018460020154815260200184600301548152602001846004015481526020018460050154815260200184600a015481526020018460080154815260200184600901548152602001600081526020016000815250600460008a815260200190815260200160002060008201518160000160006101000a81548173ffffffffffffffffffffffffffffffffffffffff021916908373ffffffffffffffffffffffffffffffffffffffff1602179055506020820151816001019080519060200190611d10929190613904565b5060408201518160020155606082015181600301556080820151816004015560a0820151816005015560c0820151816006015560e082015181600701556101008201518160080155610120820151816009015561014082015181600a0155905050600560008460000160009054906101000a900473ffffffffffffffffffffffffffffffffffffffff1673ffffffffffffffffffffffffffffffffffffffff1673ffffffffffffffffffffffffffffffffffffffff1681526020019081526020016000208890806001815401808255809150506001900390600052602060002001600090919091909150555b5050509250925092565b611e0e6131d8565b73ffffffffffffffffffffffffffffffffffffffff1660008054906101000a900473ffffffffffffffffffffffffffffffffffffffff1673ffffffffffffffffffffffffffffffffffffffff1614611e9b576040517f08c379a0000000000000000000000000000000000000000000000000000000008152600401611e9290614b64565b60405180910390fd5b81600160006101000a81548173ffffffffffffffffffffffffffffffffffffffff021916908373ffffffffffffffffffffffffffffffffffffffff16021790555080600260006101000a81548173ffffffffffffffffffffffffffffffffffffffff021916908373ffffffffffffffffffffffffffffffffffffffff160217905550600260009054906101000a900473ffffffffffffffffffffffffffffffffffffffff1673ffffffffffffffffffffffffffffffffffffffff166358aafa3d6040518163ffffffff1660e01b8152600401602060405180830381600087803b158015611f8757600080fd5b505af1158015611f9b573d6000803e3d6000fd5b505050506040513d601f19601f82011682018060405250810190611fbf9190613b0c565b600360006101000a81548173ffffffffffffffffffffffffffffffffffffffff021916908373ffffffffffffffffffffffffffffffffffffffff1602179055505050565b6000600760008373ffffffffffffffffffffffffffffffffffffffff1673ffffffffffffffffffffffffffffffffffffffff168152602001908152602001600020805490509050919050565b600160009054906101000a900473ffffffffffffffffffffffffffffffffffffffff1681565b600260009054906101000a900473ffffffffffffffffffffffffffffffffffffffff1681565b6120a36131d8565b73ffffffffffffffffffffffffffffffffffffffff1660008054906101000a900473ffffffffffffffffffffffffffffffffffffffff1673ffffffffffffffffffffffffffffffffffffffff1614612130576040517f08c379a000000000000000000000000000000000000000000000000000000000815260040161212790614b64565b60405180910390fd5b600073ffffffffffffffffffffffffffffffffffffffff1660008054906101000a900473ffffffffffffffffffffffffffffffffffffffff1673ffffffffffffffffffffffffffffffffffffffff167f8be0079c531659141344cd1fd0a4f28419497f9722a3daafe3b4186f6b6457e060405160405180910390a360008060006101000a81548173ffffffffffffffffffffffffffffffffffffffff021916908373ffffffffffffffffffffffffffffffffffffffff160217905550565b6007602052816000526040600020818154811061220757fe5b90600052602060002001600091509150505481565b6005602052816000526040600020818154811061223557fe5b90600052602060002001600091509150505481565b606080600560008573ffffffffffffffffffffffffffffffffffffffff1673ffffffffffffffffffffffffffffffffffffffff1681526020019081526020016000208054806020026020016040519081016040528092919081815260200182805480156122d657602002820191906000526020600020905b8154815260200190600101908083116122c2575b505050505090506000805b82518110156124d9576122f2613984565b6004600085848151811061230257fe5b60200260200101518152602001908152602001600020604051806101600160405290816000820160009054906101000a900473ffffffffffffffffffffffffffffffffffffffff1673ffffffffffffffffffffffffffffffffffffffff1673ffffffffffffffffffffffffffffffffffffffff168152602001600182018054600181600116156101000203166002900480601f0160208091040260200160405190810160405280929190818152602001828054600181600116156101000203166002900480156124135780601f106123e857610100808354040283529160200191612413565b820191906000526020600020905b8154815290600101906020018083116123f657829003601f168201915b505050505081526020016002820154815260200160038201548152602001600482015481526020016005820154815260200160068201548152602001600782015481526020016008820154815260200160098201548152602001600a82015481525050905060008660ff16148061249e575060018660ff1614801561249d57506000816101200151115b5b806124bd575060028660ff161480156124bc57506000816101200151145b5b156124cb5782806001019350505b5080806001019150506122e1565b508067ffffffffffffffff811180156124f157600080fd5b5060405190808252806020026020018201604052801561252b57816020015b612518613984565b8152602001906001900390816125105790505b5092506000805b835181101561274257612543613984565b6004600086848151811061255357fe5b60200260200101518152602001908152602001600020604051806101600160405290816000820160009054906101000a900473ffffffffffffffffffffffffffffffffffffffff1673ffffffffffffffffffffffffffffffffffffffff1673ffffffffffffffffffffffffffffffffffffffff168152602001600182018054600181600116156101000203166002900480601f0160208091040260200160405190810160405280929190818152602001828054600181600116156101000203166002900480156126645780601f1061263957610100808354040283529160200191612664565b820191906000526020600020905b81548152906001019060200180831161264757829003601f168201915b505050505081526020016002820154815260200160038201548152602001600482015481526020016005820154815260200160068201548152602001600782015481526020016008820154815260200160098201548152602001600a82015481525050905060008760ff1614806126ef575060018760ff161480156126ee57506000816101200151115b5b8061270e575060028760ff1614801561270d57506000816101200151145b5b15612734578086848151811061272057fe5b602002602001018190525082806001019350505b508080600101915050612532565b5050505092915050565b60008060009054906101000a900473ffffffffffffffffffffffffffffffffffffffff16905090565b6000806127806131d8565b73ffffffffffffffffffffffffffffffffffffffff1660008054906101000a900473ffffffffffffffffffffffffffffffffffffffff1673ffffffffffffffffffffffffffffffffffffffff161461280d576040517f08c379a000000000000000000000000000000000000000000000000000000000815260040161280490614b64565b60405180910390fd5b6128156138e2565b61281e8a612db0565b8260006002811061282b57fe5b602002018360016002811061283c57fe5b602002018281525082815250505060018714156128ac57838160006002811061286157fe5b602002015110156128a7576040517f08c379a000000000000000000000000000000000000000000000000000000000815260040161289e90614ba4565b60405180910390fd5b612901565b83816000600281106128ba57fe5b60200201511115612900576040517f08c379a00000000000000000000000000000000000000000000000000000000081526004016128f790614ba4565b60405180910390fd5b5b6000435a8d8d8d8d8d6040516020016129209796959493929190614c08565b6040516020818303038152906040528051906020012090506040518061016001604052808d73ffffffffffffffffffffffffffffffffffffffff1681526020018c81526020018b81526020018a81526020018981526020018360006002811061298557fe5b602002015181526020018360016002811061299c57fe5b602002015181526020018881526020018781526020016000815260200160008152506004600083815260200190815260200160002060008201518160000160006101000a81548173ffffffffffffffffffffffffffffffffffffffff021916908373ffffffffffffffffffffffffffffffffffffffff1602179055506020820151816001019080519060200190612a34929190613904565b5060408201518160020155606082015181600301556080820151816004015560a0820151816005015560c0820151816006015560e082015181600701556101008201518160080155610120820151816009015561014082015181600a0155905050600560008d73ffffffffffffffffffffffffffffffffffffffff1673ffffffffffffffffffffffffffffffffffffffff1681526020019081526020016000208190806001815401808255809150506001900390600052602060002001600090919091909150558082600060028110612b0957fe5b60200201519350935050509850989650505050505050565b60066020528060005260406000206000915090508060000160009054906101000a900473ffffffffffffffffffffffffffffffffffffffff1690806001018054600181600116156101000203166002900480601f016020809104026020016040519081016040528092919081815260200182805460018160011615610100020316600290048015612bf35780601f10612bc857610100808354040283529160200191612bf3565b820191906000526020600020905b815481529060010190602001808311612bd657829003601f168201915b50505050509080600201549080600301549080600401549080600501549080600601549080600701549080600801549080600901549080600a01549080600b015490508c565b600360009054906101000a900473ffffffffffffffffffffffffffffffffffffffff1681565b600080600360009054906101000a900473ffffffffffffffffffffffffffffffffffffffff1673ffffffffffffffffffffffffffffffffffffffff1663d4a06b8785856040518363ffffffff1660e01b8152600401612cbf9291906149d4565b60606040518083038186803b158015612cd757600080fd5b505afa158015612ceb573d6000803e3d6000fd5b505050506040513d601f19601f82011682018060405250810190612d0f9190613e4c565b909150809250819350505060008211612d5d576040517f08c379a0000000000000000000000000000000000000000000000000000000008152600401612d5490614b04565b60405180910390fd5b9250929050565b6000600560008373ffffffffffffffffffffffffffffffffffffffff1673ffffffffffffffffffffffffffffffffffffffff168152602001908152602001600020805490509050919050565b600080600360009054906101000a900473ffffffffffffffffffffffffffffffffffffffff1673ffffffffffffffffffffffffffffffffffffffff1663e8084a87846040518263ffffffff1660e01b8152600401612e0e91906149b2565b60606040518083038186803b158015612e2657600080fd5b505afa158015612e3a573d6000803e3d6000fd5b505050506040513d601f19601f82011682018060405250810190612e5e9190613e4c565b9091508092508193505050915091565b612e766131d8565b73ffffffffffffffffffffffffffffffffffffffff1660008054906101000a900473ffffffffffffffffffffffffffffffffffffffff1673ffffffffffffffffffffffffffffffffffffffff1614612f03576040517f08c379a0000000000000000000000000000000000000000000000000000000008152600401612efa90614b64565b60405180910390fd5b600073ffffffffffffffffffffffffffffffffffffffff168173ffffffffffffffffffffffffffffffffffffffff161415612f73576040517f08c379a0000000000000000000000000000000000000000000000000000000008152600401612f6a90614a84565b60405180910390fd5b8073ffffffffffffffffffffffffffffffffffffffff1660008054906101000a900473ffffffffffffffffffffffffffffffffffffffff1673ffffffffffffffffffffffffffffffffffffffff167f8be0079c531659141344cd1fd0a4f28419497f9722a3daafe3b4186f6b6457e060405160405180910390a3806000806101000a81548173ffffffffffffffffffffffffffffffffffffffff021916908373ffffffffffffffffffffffffffffffffffffffff16021790555050565b600061303a6131d8565b73ffffffffffffffffffffffffffffffffffffffff1660008054906101000a900473ffffffffffffffffffffffffffffffffffffffff1673ffffffffffffffffffffffffffffffffffffffff16146130c7576040517f08c379a00000000000000000000000000000000000000000000000000000000081526004016130be90614b64565b60405180910390fd5b60006006600084815260200190815260200160002090508373ffffffffffffffffffffffffffffffffffffffff168160000160009054906101000a900473ffffffffffffffffffffffffffffffffffffffff1673ffffffffffffffffffffffffffffffffffffffff1614613170576040517f08c379a000000000000000000000000000000000000000000000000000000000815260040161316790614a24565b60405180910390fd5b600281600b0154146131b7576040517f08c379a00000000000000000000000000000000000000000000000000000000081526004016131ae90614a64565b60405180910390fd5b806002015491504281600a0181905550600181600b01819055505092915050565b600033905090565b60008060018714156132a857838310613253576000915061324084613232613211878761354190919063ffffffff16565b613224898b61358b90919063ffffffff16565b61358b90919063ffffffff16565b6135fb90919063ffffffff16565b90508581111561324e578590505b6132a3565b600191506132a084613292613271868861354190919063ffffffff16565b613284898b61358b90919063ffffffff16565b61358b90919063ffffffff16565b6135fb90919063ffffffff16565b90505b613360565b83831061330357600191506132fc846132ee6132cd878761354190919063ffffffff16565b6132e0898b61358b90919063ffffffff16565b61358b90919063ffffffff16565b6135fb90919063ffffffff16565b905061335f565b6000915061335084613342613321868861354190919063ffffffff16565b613334898b61358b90919063ffffffff16565b61358b90919063ffffffff16565b6135fb90919063ffffffff16565b90508581111561335e578590505b5b5b9550959350505050565b600080600061337a8a8786613645565b80935081945050506000151583151514156133f557600061339e8b8b8b8b8c613690565b90506133ab8b828761370f565b80945081955050506000151584151514156133ea576133cb8b878761370f565b80945081955050506001151584151514156133e557600291505b6133ef565b600391505b506133fa565b600190505b9750975097945050505050565b60008082111561349557600184141561345957613452836134446064613436868861354190919063ffffffff16565b61358b90919063ffffffff16565b6135fb90919063ffffffff16565b9050613494565b613491836134836064613475878761354190919063ffffffff16565b61358b90919063ffffffff16565b6135fb90919063ffffffff16565b90505b5b9392505050565b60008082111561350b5760006134ce60646134c0858761358b90919063ffffffff16565b6135fb90919063ffffffff16565b905060018514156134f3576134ec818561354190919063ffffffff16565b9150613509565b613506818561375a90919063ffffffff16565b91505b505b9392505050565b60008284111561352d5781831061352857600190505b61353a565b81831161353957600190505b5b9392505050565b600061358383836040518060400160405280601e81526020017f536166654d6174683a207375627472616374696f6e206f766572666c6f7700008152506137af565b905092915050565b60008083141561359e57600090506135f5565b60008284029050828482816135af57fe5b04146135f0576040517f08c379a00000000000000000000000000000000000000000000000000000000081526004016135e790614b44565b60405180910390fd5b809150505b92915050565b600061363d83836040518060400160405280601a81526020017f536166654d6174683a206469766973696f6e206279207a65726f00000000000081525061380a565b905092915050565b600080600084111561368357600185141561366e5783831161366957839050600191505b61367e565b83831061367d57839050600191505b5b613688565b600091505b935093915050565b6000806136ca856136bc866136ae878b61358b90919063ffffffff16565b6135fb90919063ffffffff16565b6135fb90919063ffffffff16565b905060018714156136ef576136e8818761375a90919063ffffffff16565b9150613705565b613702818761354190919063ffffffff16565b91505b5095945050505050565b600080600084111561374d5760018514156137385783831061373357839050600191505b613748565b83831161374757839050600191505b5b613752565b600091505b935093915050565b6000808284019050838110156137a5576040517f08c379a000000000000000000000000000000000000000000000000000000000815260040161379c90614aa4565b60405180910390fd5b8091505092915050565b60008383111582906137f7576040517f08c379a00000000000000000000000000000000000000000000000000000000081526004016137ee91906149b2565b60405180910390fd5b5060008385039050809150509392505050565b60008083118290613851576040517f08c379a000000000000000000000000000000000000000000000000000000000815260040161384891906149b2565b60405180910390fd5b50600083858161385d57fe5b049050809150509392505050565b604051806101800160405280600073ffffffffffffffffffffffffffffffffffffffff16815260200160608152602001600081526020016000815260200160008152602001600081526020016000815260200160008152602001600081526020016000815260200160008152602001600081525090565b6040518060400160405280600290602082028036833780820191505090505090565b828054600181600116156101000203166002900490600052602060002090601f016020900481019282601f1061394557805160ff1916838001178555613973565b82800160010185558215613973579182015b82811115613972578251825591602001919060010190613957565b5b50905061398091906139f4565b5090565b604051806101600160405280600073ffffffffffffffffffffffffffffffffffffffff168152602001606081526020016000815260200160008152602001600081526020016000815260200160008152602001600081526020016000815260200160008152602001600081525090565b5b80821115613a0d5760008160009055506001016139f5565b5090565b600081359050613a2081614e6d565b92915050565b600081519050613a3581614e6d565b92915050565b600081359050613a4a81614e84565b92915050565b600082601f830112613a6157600080fd5b8135613a74613a6f82614cf0565b614cc3565b91508082526020830160208301858383011115613a9057600080fd5b613a9b838284614e1a565b50505092915050565b600081359050613ab381614e9b565b92915050565b600081519050613ac881614e9b565b92915050565b600081359050613add81614eb2565b92915050565b600060208284031215613af557600080fd5b6000613b0384828501613a11565b91505092915050565b600060208284031215613b1e57600080fd5b6000613b2c84828501613a26565b91505092915050565b60008060408385031215613b4857600080fd5b6000613b5685828601613a11565b9250506020613b6785828601613a11565b9150509250929050565b60008060408385031215613b8457600080fd5b6000613b9285828601613a11565b9250506020613ba385828601613a3b565b9150509250929050565b60008060008060808587031215613bc357600080fd5b6000613bd187828801613a11565b9450506020613be287828801613a3b565b9350506040613bf387828801613aa4565b9250506060613c0487828801613aa4565b91505092959194509250565b600080600080600080600080610100898b031215613c2d57600080fd5b6000613c3b8b828c01613a11565b985050602089013567ffffffffffffffff811115613c5857600080fd5b613c648b828c01613a50565b9750506040613c758b828c01613aa4565b9650506060613c868b828c01613aa4565b9550506080613c978b828c01613aa4565b94505060a0613ca88b828c01613aa4565b93505060c0613cb98b828c01613aa4565b92505060e0613cca8b828c01613aa4565b9150509295985092959890939650565b60008060408385031215613ced57600080fd5b6000613cfb85828601613a11565b9250506020613d0c85828601613aa4565b9150509250929050565b60008060408385031215613d2957600080fd5b6000613d3785828601613a11565b9250506020613d4885828601613ace565b9150509250929050565b600060208284031215613d6457600080fd5b6000613d7284828501613a3b565b91505092915050565b60008060408385031215613d8e57600080fd5b6000613d9c85828601613a3b565b9250506020613dad85828601613aa4565b9150509250929050565b600060208284031215613dc957600080fd5b600082013567ffffffffffffffff811115613de357600080fd5b613def84828501613a50565b91505092915050565b60008060408385031215613e0b57600080fd5b600083013567ffffffffffffffff811115613e2557600080fd5b613e3185828601613a50565b9250506020613e4285828601613aa4565b9150509250929050565b600080600060608486031215613e6157600080fd5b6000613e6f86828701613ab9565b9350506020613e8086828701613ab9565b9250506040613e9186828701613ab9565b9150509250925092565b6000613ea783836144e5565b905092915050565b6000613ebb83836145e9565b905092915050565b613ecc81614dbb565b82525050565b613edb81614dbb565b82525050565b6000613eec82614d3c565b613ef68185614d77565b935083602082028501613f0885614d1c565b8060005b85811015613f445784840389528151613f258582613e9b565b9450613f3083614d5d565b925060208a01995050600181019050613f0c565b50829750879550505050505092915050565b6000613f6182614d47565b613f6b8185614d88565b935083602082028501613f7d85614d2c565b8060005b85811015613fb95784840389528151613f9a8582613eaf565b9450613fa583614d6a565b925060208a01995050600181019050613f81565b50829750879550505050505092915050565b613fd481614dcd565b82525050565b613fe381614dd9565b82525050565b6000613ff482614d52565b613ffe8185614d99565b935061400e818560208601614e29565b61401781614e5c565b840191505092915050565b600061402d82614d52565b6140378185614daa565b9350614047818560208601614e29565b61405081614e5c565b840191505092915050565b6000614068602283614daa565b91507f636c6f7365537761703a204f524445525f504c494d495450524943455f57524f60008301527f4e470000000000000000000000000000000000000000000000000000000000006020830152604082019050919050565b60006140ce601f83614daa565b91507f63616e63656c4c696d6974537761703a2055534552414444525f57524f4e47006000830152602082019050919050565b600061410e602283614daa565b91507f636c6f7365537761703a204f524445525f4c4c494d495450524943455f57524f60008301527f4e470000000000000000000000000000000000000000000000000000000000006020830152604082019050919050565b6000614174602383614daa565b91507f63616e63656c4c696d6974537761703a204f524445525f5354415455535f575260008301527f4f4e4700000000000000000000000000000000000000000000000000000000006020830152604082019050919050565b60006141da602683614daa565b91507f4f776e61626c653a206e6577206f776e657220697320746865207a65726f206160008301527f64647265737300000000000000000000000000000000000000000000000000006020830152604082019050919050565b6000614240601b83614daa565b91507f536166654d6174683a206164646974696f6e206f766572666c6f7700000000006000830152602082019050919050565b6000614280601d83614daa565b91507f636c6f7365537761703a204f524445525f5354415455535f57524f4e470000006000830152602082019050919050565b60006142c0602083614daa565b91507f74726164654c696d6974537761703a204f524445525f54494d455f57524f4e476000830152602082019050919050565b6000614300601e83614daa565b91507f6765744c61737450726963653a204c4153545f50524943455f57524f4e4700006000830152602082019050919050565b6000614340601983614daa565b91507f636c6f7365537761703a2055534552414444525f57524f4e47000000000000006000830152602082019050919050565b6000614380602183614daa565b91507f536166654d6174683a206d756c7469706c69636174696f6e206f766572666c6f60008301527f77000000000000000000000000000000000000000000000000000000000000006020830152604082019050919050565b60006143e6602083614daa565b91507f4f776e61626c653a2063616c6c6572206973206e6f7420746865206f776e65726000830152602082019050919050565b6000614426602283614daa565b91507f74726164654c696d6974537761703a204f524445525f5354415455535f57524f60008301527f4e470000000000000000000000000000000000000000000000000000000000006020830152604082019050919050565b600061448c602183614daa565b91507f6f70656e4d61726b6574537761703a20534c4950504147455f544f4f5f48494760008301527f48000000000000000000000000000000000000000000000000000000000000006020830152604082019050919050565b6000610180830160008301516144fe6000860182613ec3565b50602083015184820360208601526145168282613fe9565b915050604083015161452b60408601826146d8565b50606083015161453e60608601826146d8565b50608083015161455160808601826146d8565b5060a083015161456460a08601826146d8565b5060c083015161457760c08601826146d8565b5060e083015161458a60e08601826146d8565b5061010083015161459f6101008601826146d8565b506101208301516145b46101208601826146d8565b506101408301516145c96101408601826146d8565b506101608301516145de6101608601826146d8565b508091505092915050565b6000610160830160008301516146026000860182613ec3565b506020830151848203602086015261461a8282613fe9565b915050604083015161462f60408601826146d8565b50606083015161464260608601826146d8565b50608083015161465560808601826146d8565b5060a083015161466860a08601826146d8565b5060c083015161467b60c08601826146d8565b5060e083015161468e60e08601826146d8565b506101008301516146a36101008601826146d8565b506101208301516146b86101208601826146d8565b506101408301516146cd6101408601826146d8565b508091505092915050565b6146e181614e03565b82525050565b6146f081614e03565b82525050565b600060208201905061470b6000830184613ed2565b92915050565b600061016082019050614727600083018e613ed2565b8181036020830152614739818d614022565b9050614748604083018c6146e7565b614755606083018b6146e7565b614762608083018a6146e7565b61476f60a08301896146e7565b61477c60c08301886146e7565b61478960e08301876146e7565b6147976101008301866146e7565b6147a56101208301856146e7565b6147b36101408301846146e7565b9c9b505050505050505050505050565b6000610180820190506147d9600083018f613ed2565b81810360208301526147eb818e614022565b90506147fa604083018d6146e7565b614807606083018c6146e7565b614814608083018b6146e7565b61482160a083018a6146e7565b61482e60c08301896146e7565b61483b60e08301886146e7565b6148496101008301876146e7565b6148576101208301866146e7565b6148656101408301856146e7565b6148736101608301846146e7565b9d9c50505050505050505050505050565b6000602082019050818103600083015261489e8184613ee1565b905092915050565b600060208201905081810360008301526148c08184613f56565b905092915050565b60006060820190506148dd6000830186613fcb565b6148ea6020830185613ed2565b6148f760408301846146e7565b949350505050565b600060e082019050614914600083018a613fcb565b6149216020830189613ed2565b61492e60408301886146e7565b61493b60608301876146e7565b61494860808301866146e7565b61495560a08301856146e7565b61496260c08301846146e7565b98975050505050505050565b60006020820190506149836000830184613fda565b92915050565b600060408201905061499e6000830185613fda565b6149ab60208301846146e7565b9392505050565b600060208201905081810360008301526149cc8184614022565b905092915050565b600060408201905081810360008301526149ee8185614022565b90506149fd60208301846146e7565b9392505050565b60006020820190508181036000830152614a1d8161405b565b9050919050565b60006020820190508181036000830152614a3d816140c1565b9050919050565b60006020820190508181036000830152614a5d81614101565b9050919050565b60006020820190508181036000830152614a7d81614167565b9050919050565b60006020820190508181036000830152614a9d816141cd565b9050919050565b60006020820190508181036000830152614abd81614233565b9050919050565b60006020820190508181036000830152614add81614273565b9050919050565b60006020820190508181036000830152614afd816142b3565b9050919050565b60006020820190508181036000830152614b1d816142f3565b9050919050565b60006020820190508181036000830152614b3d81614333565b9050919050565b60006020820190508181036000830152614b5d81614373565b9050919050565b60006020820190508181036000830152614b7d816143d9565b9050919050565b60006020820190508181036000830152614b9d81614419565b9050919050565b60006020820190508181036000830152614bbd8161447f565b9050919050565b6000602082019050614bd960008301846146e7565b92915050565b6000604082019050614bf460008301856146e7565b614c0160208301846146e7565b9392505050565b600060e082019050614c1d600083018a6146e7565b614c2a60208301896146e7565b614c376040830188613ed2565b8181036060830152614c498187614022565b9050614c5860808301866146e7565b614c6560a08301856146e7565b614c7260c08301846146e7565b98975050505050505050565b6000608082019050614c9360008301876146e7565b614ca060208301866146e7565b614cad60408301856146e7565b614cba60608301846146e7565b95945050505050565b6000604051905081810181811067ffffffffffffffff82111715614ce657600080fd5b8060405250919050565b600067ffffffffffffffff821115614d0757600080fd5b601f19601f8301169050602081019050919050565b6000819050602082019050919050565b6000819050602082019050919050565b600081519050919050565b600081519050919050565b600081519050919050565b6000602082019050919050565b6000602082019050919050565b600082825260208201905092915050565b600082825260208201905092915050565b600082825260208201905092915050565b600082825260208201905092915050565b6000614dc682614de3565b9050919050565b60008115159050919050565b6000819050919050565b600073ffffffffffffffffffffffffffffffffffffffff82169050919050565b6000819050919050565b600060ff82169050919050565b82818337600083830152505050565b60005b83811015614e47578082015181840152602081019050614e2c565b83811115614e56576000848401525b50505050565b6000601f19601f8301169050919050565b614e7681614dbb565b8114614e8157600080fd5b50565b614e8d81614dd9565b8114614e9857600080fd5b50565b614ea481614e03565b8114614eaf57600080fd5b50565b614ebb81614e0d565b8114614ec657600080fd5b5056fea26469706673582212209a45aed692a9d15c2224d38db9eb5088146d15320f3a5f2d6cbf755e91a1ea1064736f6c634300060c0033",
  "immutableReferences": {},
  "source": "// SPDX-License-Identifier: MIT\npragma solidity >=0.6.12;\npragma experimental ABIEncoderV2;\n\nimport \"../openzeppelin/contracts/math/SafeMath.sol\";\nimport \"../openzeppelin/contracts/access/Ownable.sol\";\nimport \"../openzeppelin/contracts/utils/Strings.sol\";\nimport \"../quote/QuoteFactory.sol\";\nimport \"../interface/ISwapTrade.sol\";\nimport \"../interface/ITeemoPool.sol\";\nimport \"../libraries/SwapTradeLibrary.sol\";\n\ncontract SwapTrade is Ownable, ISwapTrade {\n    using SafeMath for uint256;\n\n    struct SwapLimitOrder {\n        address userAddr;\n        string symbol;\n        uint256 tokenAmount;\n        uint256 lever;\n        uint256 bsFlag;//  1 2\n        uint256 openPrice;// \n        uint256 openTime;// \n        uint256 newPrice;// \n        uint256 pLimitPrice;// \n        uint256 lLimitPrice;// \n        uint256 closeTime;// \n        uint256 status;//  1: 2 3\n    }\n    struct SwapOrder {\n        address userAddr;\n        string symbol;\n        uint256 tokenAmount;\n        uint256 lever;\n        uint256 bsFlag;//  1 2\n        uint256 openPrice;// \n        uint256 openTime;// \n        uint256 pLimitPrice;// \n        uint256 lLimitPrice;// \n        uint256 closePrice;// \n        uint256 closeTime;// \n    }\n    address public tokenAddr;\n    address public poolAddr;\n    address public quoteFactoryAddr;\n    \n    mapping(bytes32 => SwapOrder) public allOrderHash;// =>\n    mapping(address => bytes32[]) public allOrderUser;// =>\n\n    mapping(bytes32 => SwapLimitOrder) public allLimitOrderHash;// =>\n    mapping(address => bytes32[]) public allLimitOrderUser;// =>\n\n    function initialize(address _tokenAddr, address _poolAddr) public onlyOwner{\n        tokenAddr = _tokenAddr;\n        poolAddr = _poolAddr;\n        quoteFactoryAddr = ITeemoPool(poolAddr).getQuoteFactoryAddr();\n    } \n\n    function orderLength(address _userAddress) public view returns(uint256) {\n        return allOrderUser[_userAddress].length;\n    }\n\n    function limitOrderLength(address _userAddress) public view returns(uint256) {\n        return allLimitOrderUser[_userAddress].length;\n    }\n\n    //0 1 2\n    function getAllOrder(address _userAddress, uint8 status) public view returns(SwapOrder[] memory orders) {\n        bytes32[] memory orderIds = allOrderUser[_userAddress];\n        uint256 size = 0;\n        for (uint i = 0; i < orderIds.length; i++) {\n            SwapOrder memory order = allOrderHash[orderIds[i]];\n            if (status == 0 || (status == 1 && order.closePrice > 0) || (status == 2 && order.closePrice == 0)) {\n                size++;\n            }\n        }\n        orders = new SwapOrder[](size);\n        uint256 index = 0;\n        for (uint i = 0; i < orderIds.length; i++) {\n            SwapOrder memory order = allOrderHash[orderIds[i]];\n            if (status == 0 || (status == 1 && order.closePrice > 0) || (status == 2 && order.closePrice == 0)) {\n                orders[index] = order;\n                index++;\n            }\n        }\n    }\n\n    //0 1: 2 3 4-\n    function getAllLimitOrder(address _userAddress, uint8 status) public view returns(SwapLimitOrder[] memory orders) {\n        bytes32[] memory orderIds = allLimitOrderUser[_userAddress];\n        uint256 size = 0;\n        for (uint i = 0; i < orderIds.length; i++) {\n            SwapLimitOrder memory order = allLimitOrderHash[orderIds[i]];\n            if (status == 0 || status == order.status || (status == 4 && (order.status == 1 || order.status == 3))) {\n                size++;\n            }\n        }\n        orders = new SwapLimitOrder[](size);\n        uint256 index = 0;\n        for (uint i = 0; i < orderIds.length; i++) {\n            SwapLimitOrder memory order = allLimitOrderHash[orderIds[i]];\n            if (status == 0 || status == order.status || (status == 4 && (order.status == 1 || order.status == 3))) {\n                orders[index] = order;\n                index++;\n            }\n        }\n    }\n\n    // \n    function openLimitSwap(address _userAddr,string memory _symbol,uint256 _limitPrice,uint256 _tokenAmount,uint256 _lever,uint256 _bsFlag,uint256 _pLimitPrice,uint256 _lLimitPrice) \n        public override onlyOwner \n        returns (bytes32, uint256) {\n        uint256[2] memory priceInfo;\n        (priceInfo[0],priceInfo[1]) = getNewPrice(_symbol);\n        bytes32 orderID = keccak256(abi.encode(block.number,gasleft(),_userAddr,_symbol,_tokenAmount,_lever,_bsFlag));\n        allLimitOrderHash[orderID] = SwapLimitOrder({\n            userAddr: _userAddr,\n            symbol: _symbol,\n            tokenAmount: _tokenAmount,\n            lever: _lever,\n            bsFlag: _bsFlag,\n            openPrice: _limitPrice,\n            openTime: priceInfo[1],\n            newPrice: priceInfo[0],\n            pLimitPrice: _pLimitPrice,\n            lLimitPrice: _lLimitPrice,\n            closeTime: 0,\n            status: 2\n        });\n        allLimitOrderUser[_userAddr].push(orderID);\n        return (orderID,priceInfo[0]);\n    }\n    // \n    function cancelLimitSwap(address _userAddr,bytes32 _orderID) \n        public override onlyOwner\n        returns (uint256 tokenAmount)\n    {\n        SwapLimitOrder storage orderInfo = allLimitOrderHash[_orderID];\n        require(orderInfo.userAddr == _userAddr, \"cancelLimitSwap: USERADDR_WRONG\");\n        require(orderInfo.status == 2, \"cancelLimitSwap: ORDER_STATUS_WRONG\");\n        tokenAmount = orderInfo.tokenAmount;\n        orderInfo.closeTime = block.timestamp;\n        orderInfo.status = 1;\n    }\n    // \n    function tradeLimitSwap(bytes32 _orderID,uint256 _blockIndex) \n        public override onlyOwner\n        returns (bool success,address userAddr,uint256 tokenAmount)\n    {\n        SwapLimitOrder storage orderInfo = allLimitOrderHash[_orderID];\n        require(orderInfo.status == 2, \"tradeLimitSwap: ORDER_STATUS_WRONG\");\n        (uint256 tradePrice,uint256 priceTime) = getLastPrice(orderInfo.symbol,_blockIndex);\n        require(orderInfo.openTime < priceTime, \"tradeLimitSwap: ORDER_TIME_WRONG\");\n        success = SwapTradeLibrary.isTradeLimitSwap(orderInfo.newPrice,orderInfo.openPrice,tradePrice);\n        if(success == true){\n            tokenAmount = orderInfo.tokenAmount;\n            userAddr = orderInfo.userAddr;\n            orderInfo.closeTime = priceTime;\n            orderInfo.status = 3;\n            allOrderHash[_orderID] = SwapOrder({\n                userAddr: orderInfo.userAddr,\n                symbol: orderInfo.symbol,\n                tokenAmount: orderInfo.tokenAmount,\n                lever: orderInfo.lever,\n                bsFlag: orderInfo.bsFlag,\n                openPrice: orderInfo.openPrice,\n                openTime: orderInfo.closeTime,\n                pLimitPrice: orderInfo.pLimitPrice,\n                lLimitPrice: orderInfo.lLimitPrice,\n                closePrice: 0,\n                closeTime: 0\n            });\n            allOrderUser[orderInfo.userAddr].push(_orderID);            \n        }\n    }    \n\n    // \n    function openMarketSwap(address _userAddr,string memory _symbol,uint256 _tokenAmount,uint256 _lever,uint256 _bsFlag,uint256 _pLimitPrice,uint256 _lLimitPrice, uint256 _maxPrice) \n        public override onlyOwner returns (bytes32, uint256) {\n        uint256[2] memory priceInfo;\n        (priceInfo[0],priceInfo[1]) = getNewPrice(_symbol);\n        if(_bsFlag == 1){\n            require(priceInfo[0]>=_maxPrice, 'openMarketSwap: SLIPPAGE_TOO_HIGH');\n        }else{\n            require(priceInfo[0]<=_maxPrice, 'openMarketSwap: SLIPPAGE_TOO_HIGH');\n        }\n        bytes32 orderID = keccak256(abi.encode(block.number,gasleft(),_userAddr,_symbol,_tokenAmount,_lever,_bsFlag));\n        allOrderHash[orderID] = SwapOrder({\n            userAddr: _userAddr,\n            symbol: _symbol,\n            tokenAmount: _tokenAmount,\n            lever: _lever,\n            bsFlag: _bsFlag,\n            openPrice: priceInfo[0],\n            openTime: priceInfo[1],\n            pLimitPrice: _pLimitPrice,\n            lLimitPrice: _lLimitPrice,\n            closePrice: 0,\n            closeTime: 0\n        });\n        allOrderUser[_userAddr].push(orderID);\n        return (orderID,priceInfo[0]);\n    }\n\n    // \n    function closeMarketSwap(address _userAddr,bytes32 _orderID) \n        public override onlyOwner\n        returns (uint256 closePrice,uint256 plFlag,uint256 plAmount,uint256 tokenAmount)\n    {\n        SwapOrder storage orderInfo = allOrderHash[_orderID];\n        require(orderInfo.userAddr == _userAddr, \"closeSwap: USERADDR_WRONG\");\n        require(orderInfo.closePrice == 0, \"closeSwap: ORDER_STATUS_WRONG\");\n        uint256 priceTime = 0;\n        (closePrice,priceTime) = getNewPrice(orderInfo.symbol);\n        tokenAmount = orderInfo.tokenAmount;\n        (plFlag, plAmount) = SwapTradeLibrary.calcSwapOrderPL(orderInfo.bsFlag,orderInfo.tokenAmount,orderInfo.lever,orderInfo.openPrice,closePrice);\n        orderInfo.closePrice = closePrice;\n        orderInfo.closeTime = priceTime;\n    }\n\n    // \n    function closeLimitSwap(bytes32 _orderID,uint256 _blockIndex) \n        public override onlyOwner\n        returns (bool success,address userAddr,uint256 closePrice,uint256 closeType,uint256 plFlag,uint256 plAmount,uint256 tokenAmount)\n    {\n        SwapOrder storage orderInfo = allOrderHash[_orderID];\n        require(orderInfo.closePrice == 0, \"closeSwap: ORDER_STATUS_WRONG\");\n        (uint256 lastPrice,uint256 priceTime) = getLastPrice(orderInfo.symbol,_blockIndex);\n        require(orderInfo.openTime < priceTime, \"tradeLimitSwap: ORDER_TIME_WRONG\");\n        (success,closePrice,closeType) = SwapTradeLibrary.calcSwapOrderCloseInfo(orderInfo.bsFlag,orderInfo.openPrice,orderInfo.lever,orderInfo.tokenAmount,orderInfo.pLimitPrice,orderInfo.lLimitPrice,lastPrice);\n        if(success == true){\n            tokenAmount = orderInfo.tokenAmount;\n            userAddr = orderInfo.userAddr;\n            (plFlag, plAmount) = SwapTradeLibrary.calcSwapOrderPL(orderInfo.bsFlag,orderInfo.tokenAmount,orderInfo.lever,orderInfo.openPrice,closePrice);\n            orderInfo.closePrice = closePrice;\n            orderInfo.closeTime = priceTime;\n        }\n    }    \n    // \n    function updateSwapByPrice(address _userAddr,bytes32 _orderID,uint256 _pLimitPrice,uint256 _lLimitPrice) \n        public override onlyOwner \n        returns (uint256 pLimitRate,uint256 lLimitRate) {\n        SwapOrder storage orderInfo = allOrderHash[_orderID];\n        require(orderInfo.userAddr == _userAddr, \"closeSwap: USERADDR_WRONG\");\n        require(orderInfo.closePrice == 0, \"closeSwap: ORDER_STATUS_WRONG\");\n        if(orderInfo.bsFlag == 1){\n            require(_pLimitPrice > 0 && _pLimitPrice < orderInfo.openPrice, \"closeSwap: ORDER_PLIMITPRICE_WRONG\"); \n            require(_lLimitPrice > 0 && _lLimitPrice > orderInfo.openPrice, \"closeSwap: ORDER_LLIMITPRICE_WRONG\");\n        }else{\n            require(_pLimitPrice > 0 && _pLimitPrice > orderInfo.openPrice, \"closeSwap: ORDER_PLIMITPRICE_WRONG\"); \n            require(_lLimitPrice > 0 && _lLimitPrice < orderInfo.openPrice, \"closeSwap: ORDER_LLIMITPRICE_WRONG\"); \n        }\n        pLimitRate = SwapTradeLibrary.calcSwapOrderPRate(orderInfo.bsFlag,orderInfo.openPrice,_pLimitPrice);\n        lLimitRate = SwapTradeLibrary.calcSwapOrderPRate(orderInfo.bsFlag,orderInfo.openPrice,_lLimitPrice);\n        orderInfo.pLimitPrice = _pLimitPrice;\n        orderInfo.lLimitPrice = _lLimitPrice;\n    }\n\n    // \n    function updateSwapByRate(address _userAddr,bytes32 _orderID,uint256 _pLimitRate,uint256 _lLimitRate) \n        public override onlyOwner \n        returns (uint256 pLimitPrice,uint256 lLimitPrice) {\n        SwapOrder storage orderInfo = allOrderHash[_orderID];\n        require(orderInfo.userAddr == _userAddr, \"closeSwap: USERADDR_WRONG\");\n        require(orderInfo.closePrice == 0, \"closeSwap: ORDER_STATUS_WRONG\");\n        pLimitPrice = SwapTradeLibrary.calcSwapOrderPPrice(orderInfo.bsFlag,orderInfo.openPrice,_pLimitRate);\n        lLimitPrice = SwapTradeLibrary.calcSwapOrderPPrice(orderInfo.bsFlag,orderInfo.openPrice,_lLimitRate);\n        orderInfo.pLimitPrice = pLimitPrice;\n        orderInfo.lLimitPrice = lLimitPrice;\n    }    \n    function getNewPrice(string memory _symbol) \n        public view \n        returns (uint256 newPrice,uint256 priceTime){\n        (, newPrice,priceTime) = QuoteFactory(quoteFactoryAddr).getNewPrice(_symbol);\n    }\n    function getLastPrice(string memory _symbol,uint256 _blockIndex) \n        public view \n        returns (uint256 newPrice,uint256 priceTime){\n        (, newPrice,priceTime) = QuoteFactory(quoteFactoryAddr).getLastPrice(_symbol,_blockIndex);\n        require(newPrice > 0, \"getLastPrice: LAST_PRICE_WRONG\");\n    }\n}\n",
  "sourcePath": "/Users/tong/Projects/drep-project/teemo-private/contracts/trade/SwapTrade.sol",
  "compiler": {
    "name": "solc",
    "version": "0.6.12+commit.27d51765.Emscripten.clang"
  },
  "schemaVersion": "3.3.2",
  "updatedAt": "2021-01-15T07:50:04.898Z",
  "devdoc": {
    "kind": "dev",
    "methods": {
      "owner()": {
        "details": "Returns the address of the current owner."
      },
      "renounceOwnership()": {
        "details": "Leaves the contract without owner. It will not be possible to call `onlyOwner` functions anymore. Can only be called by the current owner. NOTE: Renouncing ownership will leave the contract without an owner, thereby removing any functionality that is only available to the owner."
      },
      "transferOwnership(address)": {
        "details": "Transfers ownership of the contract to a new account (`newOwner`). Can only be called by the current owner."
      }
    },
    "version": 1
  },
  "userdoc": {
    "kind": "user",
    "methods": {},
    "version": 1
  }
}