{
  "contractName": "SwapTrade",
  "abi": [
    {
      "anonymous": false,
      "inputs": [
        {
          "indexed": true,
          "internalType": "address",
          "name": "previousOwner",
          "type": "address"
        },
        {
          "indexed": true,
          "internalType": "address",
          "name": "newOwner",
          "type": "address"
        }
      ],
      "name": "OwnershipTransferred",
      "type": "event"
    },
    {
      "inputs": [
        {
          "internalType": "bytes32",
          "name": "",
          "type": "bytes32"
        }
      ],
      "name": "allLimitOrderHash",
      "outputs": [
        {
          "internalType": "address",
          "name": "userAddr",
          "type": "address"
        },
        {
          "internalType": "string",
          "name": "symbol",
          "type": "string"
        },
        {
          "internalType": "uint256",
          "name": "tokenAmount",
          "type": "uint256"
        },
        {
          "internalType": "uint256",
          "name": "lever",
          "type": "uint256"
        },
        {
          "internalType": "uint256",
          "name": "bsFlag",
          "type": "uint256"
        },
        {
          "internalType": "uint256",
          "name": "openPrice",
          "type": "uint256"
        },
        {
          "internalType": "uint256",
          "name": "openTime",
          "type": "uint256"
        },
        {
          "internalType": "uint256",
          "name": "newPrice",
          "type": "uint256"
        },
        {
          "internalType": "uint256",
          "name": "pLimitPrice",
          "type": "uint256"
        },
        {
          "internalType": "uint256",
          "name": "lLimitPrice",
          "type": "uint256"
        },
        {
          "internalType": "uint256",
          "name": "closeTime",
          "type": "uint256"
        },
        {
          "internalType": "uint256",
          "name": "status",
          "type": "uint256"
        }
      ],
      "stateMutability": "view",
      "type": "function"
    },
    {
      "inputs": [
        {
          "internalType": "address",
          "name": "",
          "type": "address"
        },
        {
          "internalType": "uint256",
          "name": "",
          "type": "uint256"
        }
      ],
      "name": "allLimitOrderUser",
      "outputs": [
        {
          "internalType": "bytes32",
          "name": "",
          "type": "bytes32"
        }
      ],
      "stateMutability": "view",
      "type": "function"
    },
    {
      "inputs": [
        {
          "internalType": "bytes32",
          "name": "",
          "type": "bytes32"
        }
      ],
      "name": "allOrderHash",
      "outputs": [
        {
          "internalType": "address",
          "name": "userAddr",
          "type": "address"
        },
        {
          "internalType": "string",
          "name": "symbol",
          "type": "string"
        },
        {
          "internalType": "uint256",
          "name": "tokenAmount",
          "type": "uint256"
        },
        {
          "internalType": "uint256",
          "name": "lever",
          "type": "uint256"
        },
        {
          "internalType": "uint256",
          "name": "bsFlag",
          "type": "uint256"
        },
        {
          "internalType": "uint256",
          "name": "openPrice",
          "type": "uint256"
        },
        {
          "internalType": "uint256",
          "name": "openTime",
          "type": "uint256"
        },
        {
          "internalType": "uint256",
          "name": "pLimitPrice",
          "type": "uint256"
        },
        {
          "internalType": "uint256",
          "name": "lLimitPrice",
          "type": "uint256"
        },
        {
          "internalType": "uint256",
          "name": "closePrice",
          "type": "uint256"
        },
        {
          "internalType": "uint256",
          "name": "closeTime",
          "type": "uint256"
        }
      ],
      "stateMutability": "view",
      "type": "function"
    },
    {
      "inputs": [
        {
          "internalType": "address",
          "name": "",
          "type": "address"
        },
        {
          "internalType": "uint256",
          "name": "",
          "type": "uint256"
        }
      ],
      "name": "allOrderUser",
      "outputs": [
        {
          "internalType": "bytes32",
          "name": "",
          "type": "bytes32"
        }
      ],
      "stateMutability": "view",
      "type": "function"
    },
    {
      "inputs": [],
      "name": "owner",
      "outputs": [
        {
          "internalType": "address",
          "name": "",
          "type": "address"
        }
      ],
      "stateMutability": "view",
      "type": "function"
    },
    {
      "inputs": [],
      "name": "poolAddr",
      "outputs": [
        {
          "internalType": "address",
          "name": "",
          "type": "address"
        }
      ],
      "stateMutability": "view",
      "type": "function"
    },
    {
      "inputs": [],
      "name": "quoteFactoryAddr",
      "outputs": [
        {
          "internalType": "address",
          "name": "",
          "type": "address"
        }
      ],
      "stateMutability": "view",
      "type": "function"
    },
    {
      "inputs": [],
      "name": "renounceOwnership",
      "outputs": [],
      "stateMutability": "nonpayable",
      "type": "function"
    },
    {
      "inputs": [],
      "name": "tokenAddr",
      "outputs": [
        {
          "internalType": "address",
          "name": "",
          "type": "address"
        }
      ],
      "stateMutability": "view",
      "type": "function"
    },
    {
      "inputs": [
        {
          "internalType": "address",
          "name": "newOwner",
          "type": "address"
        }
      ],
      "name": "transferOwnership",
      "outputs": [],
      "stateMutability": "nonpayable",
      "type": "function"
    },
    {
      "inputs": [
        {
          "internalType": "address",
          "name": "_tokenAddr",
          "type": "address"
        },
        {
          "internalType": "address",
          "name": "_poolAddr",
          "type": "address"
        }
      ],
      "name": "initialize",
      "outputs": [],
      "stateMutability": "nonpayable",
      "type": "function"
    },
    {
      "inputs": [
        {
          "internalType": "address",
          "name": "_userAddress",
          "type": "address"
        }
      ],
      "name": "orderLength",
      "outputs": [
        {
          "internalType": "uint256",
          "name": "",
          "type": "uint256"
        }
      ],
      "stateMutability": "view",
      "type": "function"
    },
    {
      "inputs": [
        {
          "internalType": "address",
          "name": "_userAddress",
          "type": "address"
        }
      ],
      "name": "limitOrderLength",
      "outputs": [
        {
          "internalType": "uint256",
          "name": "",
          "type": "uint256"
        }
      ],
      "stateMutability": "view",
      "type": "function"
    },
    {
      "inputs": [
        {
          "internalType": "address",
          "name": "_userAddress",
          "type": "address"
        },
        {
          "internalType": "uint8",
          "name": "status",
          "type": "uint8"
        }
      ],
      "name": "getAllOrder",
      "outputs": [
        {
          "internalType": "bytes32[]",
          "name": "orderIds",
          "type": "bytes32[]"
        },
        {
          "components": [
            {
              "internalType": "address",
              "name": "userAddr",
              "type": "address"
            },
            {
              "internalType": "string",
              "name": "symbol",
              "type": "string"
            },
            {
              "internalType": "uint256",
              "name": "tokenAmount",
              "type": "uint256"
            },
            {
              "internalType": "uint256",
              "name": "lever",
              "type": "uint256"
            },
            {
              "internalType": "uint256",
              "name": "bsFlag",
              "type": "uint256"
            },
            {
              "internalType": "uint256",
              "name": "openPrice",
              "type": "uint256"
            },
            {
              "internalType": "uint256",
              "name": "openTime",
              "type": "uint256"
            },
            {
              "internalType": "uint256",
              "name": "pLimitPrice",
              "type": "uint256"
            },
            {
              "internalType": "uint256",
              "name": "lLimitPrice",
              "type": "uint256"
            },
            {
              "internalType": "uint256",
              "name": "closePrice",
              "type": "uint256"
            },
            {
              "internalType": "uint256",
              "name": "closeTime",
              "type": "uint256"
            }
          ],
          "internalType": "struct SwapTrade.SwapOrder[]",
          "name": "orders",
          "type": "tuple[]"
        }
      ],
      "stateMutability": "view",
      "type": "function"
    },
    {
      "inputs": [
        {
          "internalType": "address",
          "name": "_userAddress",
          "type": "address"
        },
        {
          "internalType": "uint8",
          "name": "status",
          "type": "uint8"
        }
      ],
      "name": "getAllLimitOrder",
      "outputs": [
        {
          "internalType": "bytes32[]",
          "name": "orderIds",
          "type": "bytes32[]"
        },
        {
          "components": [
            {
              "internalType": "address",
              "name": "userAddr",
              "type": "address"
            },
            {
              "internalType": "string",
              "name": "symbol",
              "type": "string"
            },
            {
              "internalType": "uint256",
              "name": "tokenAmount",
              "type": "uint256"
            },
            {
              "internalType": "uint256",
              "name": "lever",
              "type": "uint256"
            },
            {
              "internalType": "uint256",
              "name": "bsFlag",
              "type": "uint256"
            },
            {
              "internalType": "uint256",
              "name": "openPrice",
              "type": "uint256"
            },
            {
              "internalType": "uint256",
              "name": "openTime",
              "type": "uint256"
            },
            {
              "internalType": "uint256",
              "name": "newPrice",
              "type": "uint256"
            },
            {
              "internalType": "uint256",
              "name": "pLimitPrice",
              "type": "uint256"
            },
            {
              "internalType": "uint256",
              "name": "lLimitPrice",
              "type": "uint256"
            },
            {
              "internalType": "uint256",
              "name": "closeTime",
              "type": "uint256"
            },
            {
              "internalType": "uint256",
              "name": "status",
              "type": "uint256"
            }
          ],
          "internalType": "struct SwapTrade.SwapLimitOrder[]",
          "name": "orders",
          "type": "tuple[]"
        }
      ],
      "stateMutability": "view",
      "type": "function"
    },
    {
      "inputs": [
        {
          "internalType": "address",
          "name": "_userAddr",
          "type": "address"
        },
        {
          "internalType": "string",
          "name": "_symbol",
          "type": "string"
        },
        {
          "internalType": "uint256",
          "name": "_limitPrice",
          "type": "uint256"
        },
        {
          "internalType": "uint256",
          "name": "_tokenAmount",
          "type": "uint256"
        },
        {
          "internalType": "uint256",
          "name": "_lever",
          "type": "uint256"
        },
        {
          "internalType": "uint256",
          "name": "_bsFlag",
          "type": "uint256"
        },
        {
          "internalType": "uint256",
          "name": "_pLimitPrice",
          "type": "uint256"
        },
        {
          "internalType": "uint256",
          "name": "_lLimitPrice",
          "type": "uint256"
        }
      ],
      "name": "openLimitSwap",
      "outputs": [
        {
          "internalType": "bytes32",
          "name": "",
          "type": "bytes32"
        },
        {
          "internalType": "uint256",
          "name": "",
          "type": "uint256"
        }
      ],
      "stateMutability": "nonpayable",
      "type": "function"
    },
    {
      "inputs": [
        {
          "internalType": "address",
          "name": "_userAddr",
          "type": "address"
        },
        {
          "internalType": "bytes32",
          "name": "_orderID",
          "type": "bytes32"
        }
      ],
      "name": "cancelLimitSwap",
      "outputs": [
        {
          "internalType": "uint256",
          "name": "tokenAmount",
          "type": "uint256"
        }
      ],
      "stateMutability": "nonpayable",
      "type": "function"
    },
    {
      "inputs": [
        {
          "internalType": "bytes32",
          "name": "_orderID",
          "type": "bytes32"
        },
        {
          "internalType": "uint256",
          "name": "_blockIndex",
          "type": "uint256"
        }
      ],
      "name": "tradeLimitSwap",
      "outputs": [
        {
          "internalType": "bool",
          "name": "",
          "type": "bool"
        },
        {
          "internalType": "address",
          "name": "",
          "type": "address"
        },
        {
          "internalType": "uint256",
          "name": "",
          "type": "uint256"
        },
        {
          "internalType": "uint256",
          "name": "",
          "type": "uint256"
        },
        {
          "internalType": "string",
          "name": "",
          "type": "string"
        },
        {
          "internalType": "uint256",
          "name": "",
          "type": "uint256"
        }
      ],
      "stateMutability": "nonpayable",
      "type": "function"
    },
    {
      "inputs": [
        {
          "internalType": "address",
          "name": "_userAddr",
          "type": "address"
        },
        {
          "internalType": "string",
          "name": "_symbol",
          "type": "string"
        },
        {
          "internalType": "uint256",
          "name": "_tokenAmount",
          "type": "uint256"
        },
        {
          "internalType": "uint256",
          "name": "_lever",
          "type": "uint256"
        },
        {
          "internalType": "uint256",
          "name": "_bsFlag",
          "type": "uint256"
        },
        {
          "internalType": "uint256",
          "name": "_pLimitPrice",
          "type": "uint256"
        },
        {
          "internalType": "uint256",
          "name": "_lLimitPrice",
          "type": "uint256"
        },
        {
          "internalType": "uint256",
          "name": "_maxPrice",
          "type": "uint256"
        }
      ],
      "name": "openMarketSwap",
      "outputs": [
        {
          "internalType": "bytes32",
          "name": "",
          "type": "bytes32"
        },
        {
          "internalType": "uint256",
          "name": "",
          "type": "uint256"
        }
      ],
      "stateMutability": "nonpayable",
      "type": "function"
    },
    {
      "inputs": [
        {
          "internalType": "address",
          "name": "_userAddr",
          "type": "address"
        },
        {
          "internalType": "bytes32",
          "name": "_orderID",
          "type": "bytes32"
        }
      ],
      "name": "closeMarketSwap",
      "outputs": [
        {
          "internalType": "uint256",
          "name": "closePrice",
          "type": "uint256"
        },
        {
          "internalType": "uint256",
          "name": "plFlag",
          "type": "uint256"
        },
        {
          "internalType": "uint256",
          "name": "bsFlag",
          "type": "uint256"
        },
        {
          "internalType": "uint256",
          "name": "plAmount",
          "type": "uint256"
        },
        {
          "internalType": "uint256",
          "name": "tokenAmount",
          "type": "uint256"
        },
        {
          "internalType": "string",
          "name": "symbol",
          "type": "string"
        }
      ],
      "stateMutability": "nonpayable",
      "type": "function"
    },
    {
      "inputs": [
        {
          "internalType": "bytes32",
          "name": "_orderID",
          "type": "bytes32"
        },
        {
          "internalType": "uint256",
          "name": "_blockIndex",
          "type": "uint256"
        }
      ],
      "name": "closeLimitSwap",
      "outputs": [
        {
          "internalType": "bool",
          "name": "success",
          "type": "bool"
        },
        {
          "internalType": "address",
          "name": "userAddr",
          "type": "address"
        },
        {
          "internalType": "uint256",
          "name": "closePrice",
          "type": "uint256"
        },
        {
          "internalType": "uint256",
          "name": "closeType",
          "type": "uint256"
        },
        {
          "internalType": "uint256",
          "name": "plFlag",
          "type": "uint256"
        },
        {
          "internalType": "uint256",
          "name": "bsFlag",
          "type": "uint256"
        },
        {
          "internalType": "uint256",
          "name": "plAmount",
          "type": "uint256"
        },
        {
          "internalType": "uint256",
          "name": "tokenAmount",
          "type": "uint256"
        },
        {
          "internalType": "string",
          "name": "symbol",
          "type": "string"
        }
      ],
      "stateMutability": "nonpayable",
      "type": "function"
    },
    {
      "inputs": [
        {
          "internalType": "address",
          "name": "_userAddr",
          "type": "address"
        },
        {
          "internalType": "bytes32",
          "name": "_orderID",
          "type": "bytes32"
        },
        {
          "internalType": "uint256",
          "name": "_pLimitPrice",
          "type": "uint256"
        },
        {
          "internalType": "uint256",
          "name": "_lLimitPrice",
          "type": "uint256"
        }
      ],
      "name": "updateSwapByPrice",
      "outputs": [
        {
          "internalType": "uint256",
          "name": "pLimitRate",
          "type": "uint256"
        },
        {
          "internalType": "uint256",
          "name": "lLimitRate",
          "type": "uint256"
        }
      ],
      "stateMutability": "nonpayable",
      "type": "function"
    },
    {
      "inputs": [
        {
          "internalType": "address",
          "name": "_userAddr",
          "type": "address"
        },
        {
          "internalType": "bytes32",
          "name": "_orderID",
          "type": "bytes32"
        },
        {
          "internalType": "uint256",
          "name": "_pLimitRate",
          "type": "uint256"
        },
        {
          "internalType": "uint256",
          "name": "_lLimitRate",
          "type": "uint256"
        }
      ],
      "name": "updateSwapByRate",
      "outputs": [
        {
          "internalType": "uint256",
          "name": "pLimitPrice",
          "type": "uint256"
        },
        {
          "internalType": "uint256",
          "name": "lLimitPrice",
          "type": "uint256"
        }
      ],
      "stateMutability": "nonpayable",
      "type": "function"
    },
    {
      "inputs": [
        {
          "internalType": "uint256",
          "name": "_validBlocks",
          "type": "uint256"
        }
      ],
      "name": "setValidBlocks",
      "outputs": [],
      "stateMutability": "nonpayable",
      "type": "function"
    },
    {
      "inputs": [
        {
          "internalType": "bytes32",
          "name": "_orderID",
          "type": "bytes32"
        }
      ],
      "name": "setOrderPrice",
      "outputs": [
        {
          "internalType": "address",
          "name": "",
          "type": "address"
        },
        {
          "internalType": "uint256",
          "name": "",
          "type": "uint256"
        },
        {
          "internalType": "string",
          "name": "",
          "type": "string"
        },
        {
          "internalType": "uint256",
          "name": "",
          "type": "uint256"
        },
        {
          "internalType": "uint256",
          "name": "",
          "type": "uint256"
        }
      ],
      "stateMutability": "nonpayable",
      "type": "function"
    },
    {
      "inputs": [
        {
          "internalType": "string",
          "name": "_symbol",
          "type": "string"
        }
      ],
      "name": "getNewPrice",
      "outputs": [
        {
          "internalType": "uint256",
          "name": "newPrice",
          "type": "uint256"
        },
        {
          "internalType": "uint256",
          "name": "priceTime",
          "type": "uint256"
        },
        {
          "internalType": "uint256",
          "name": "blockIndex",
          "type": "uint256"
        }
      ],
      "stateMutability": "view",
      "type": "function"
    },
    {
      "inputs": [
        {
          "internalType": "string",
          "name": "_symbol",
          "type": "string"
        },
        {
          "internalType": "uint256",
          "name": "_blockIndex",
          "type": "uint256"
        }
      ],
      "name": "getLastPrice",
      "outputs": [
        {
          "internalType": "uint256",
          "name": "newPrice",
          "type": "uint256"
        },
        {
          "internalType": "uint256",
          "name": "priceTime",
          "type": "uint256"
        }
      ],
      "stateMutability": "view",
      "type": "function"
    },
    {
      "inputs": [
        {
          "internalType": "bytes32[]",
          "name": "_orderIDs",
          "type": "bytes32[]"
        }
      ],
      "name": "isValidating",
      "outputs": [
        {
          "internalType": "bool",
          "name": "status",
          "type": "bool"
        },
        {
          "internalType": "uint256",
          "name": "blockIndex",
          "type": "uint256"
        }
      ],
      "stateMutability": "view",
      "type": "function"
    }
  ],
  "bytecode": "0x608060405260646001553480156200001657600080fd5b50600062000029620000cd60201b60201c565b9050806000806101000a81548173ffffffffffffffffffffffffffffffffffffffff021916908373ffffffffffffffffffffffffffffffffffffffff1602179055508073ffffffffffffffffffffffffffffffffffffffff16600073ffffffffffffffffffffffffffffffffffffffff167f8be0079c531659141344cd1fd0a4f28419497f9722a3daafe3b4186f6b6457e060405160405180910390a350620000d5565b600033905090565b615a8d80620000e56000396000f3fe608060405234801561001057600080fd5b50600436106101c45760003560e01c80637593ce72116100f9578063bfc564e811610097578063e8084a8711610071578063e8084a87146105fa578063eadb2bdd1461062c578063f2fde38b14610648578063fd0ceefb14610664576101c4565b8063bfc564e814610568578063d4a06b8714610599578063e1c873e3146105ca576101c4565b80638da5cb5b116100d35780638da5cb5b146104c0578063908219c6146104de57806395e71c501461050f578063afcfb11a1461054a576101c4565b80637593ce721461042f57806384433e6e1461045f57806386239ca71461048f576101c4565b80633d3f25171161016657806355e5d8dc1161014057806355e5d8dc146103b95780635fbe4d1d146103e95780636046cd9914610407578063715018a614610425576101c4565b80633d3f251714610334578063485cc95514610369578063509efd6414610385576101c4565b806327428feb116101a257806327428feb1461026757806333a7eb5b1461029857806334772557146102c957806339cbd01f146102fa576101c4565b80631e2a565b146101c957806322dbfdca146101fe57806326b3e79214610236575b600080fd5b6101e360048036038101906101de9190614478565b610694565b6040516101f596959493929190615788565b60405180910390f35b610218600480360381019061021391906146c3565b610a7b565b60405161022d99989796959493929190615384565b60405180910390f35b610250600480360381019061024b91906144b4565b610dcb565b60405161025e9291906156b2565b60405180910390f35b610281600480360381019061027c919061461d565b610fca565b60405161028f9291906152ae565b60405180910390f35b6102b260048036038101906102ad9190614517565b611512565b6040516102c092919061545c565b60405180910390f35b6102e360048036038101906102de91906144b4565b611819565b6040516102f19291906156b2565b60405180910390f35b610314600480360381019061030f919061469a565b6119e7565b60405161032b9b9a999897969594939291906150e1565b60405180910390f35b61034e600480360381019061034991906146c3565b611af9565b6040516103609695949392919061531c565b60405180910390f35b610383600480360381019061037e919061443c565b6120b1565b005b61039f600480360381019061039a919061469a565b6122ae565b6040516103b0959493929190615254565b60405180910390f35b6103d360048036038101906103ce91906143ea565b61254e565b6040516103e09190615697565b60405180910390f35b6103f161259a565b6040516103fe91906150c6565b60405180910390f35b61040f6125c0565b60405161041c91906150c6565b60405180910390f35b61042d6125e6565b005b610449600480360381019061044491906145e1565b612739565b6040516104569190615441565b60405180910390f35b610479600480360381019061047491906145e1565b612767565b6040516104869190615441565b60405180910390f35b6104a960048036038101906104a4919061461d565b612795565b6040516104b79291906152e5565b60405180910390f35b6104c8612cc3565b6040516104d591906150c6565b60405180910390f35b6104f860048036038101906104f39190614517565b612cec565b60405161050692919061545c565b60405180910390f35b6105296004803603810190610524919061469a565b613055565b6040516105419c9b9a99989796959493929190615193565b60405180910390f35b61055261316d565b60405161055f91906150c6565b60405180910390f35b610582600480360381019061057d9190614659565b613193565b604051610590929190615418565b60405180910390f35b6105b360048036038101906105ae9190614740565b6132a0565b6040516105c19291906156b2565b60405180910390f35b6105e460048036038101906105df91906143ea565b613362565b6040516105f19190615697565b60405180910390f35b610614600480360381019061060f91906146ff565b6133ae565b60405161062393929190615751565b60405180910390f35b61064660048036038101906106419190614794565b613471565b005b610662600480360381019061065d91906143ea565b613510565b005b61067e60048036038101906106799190614478565b6136d2565b60405161068b9190615697565b60405180910390f35b600080600080600060606106a661387a565b73ffffffffffffffffffffffffffffffffffffffff1660008054906101000a900473ffffffffffffffffffffffffffffffffffffffff1673ffffffffffffffffffffffffffffffffffffffff1614610733576040517f08c379a000000000000000000000000000000000000000000000000000000000815260040161072a90615657565b60405180910390fd5b6000600560008981526020019081526020016000209050806001018054600181600116156101000203166002900480601f0160208091040260200160405190810160405280929190818152602001828054600181600116156101000203166002900480156107e25780601f106107b7576101008083540402835291602001916107e2565b820191906000526020600020905b8154815290600101906020018083116107c557829003601f168201915b50505050509150806004015494508873ffffffffffffffffffffffffffffffffffffffff168160000160009054906101000a900473ffffffffffffffffffffffffffffffffffffffff1673ffffffffffffffffffffffffffffffffffffffff1614610882576040517f08c379a000000000000000000000000000000000000000000000000000000000815260040161087990615617565b60405180910390fd5b60008160090154146108c9576040517f08c379a00000000000000000000000000000000000000000000000000000000081526004016108c0906155d7565b60405180910390fd5b600081600501541415610911576040517f08c379a0000000000000000000000000000000000000000000000000000000008152600401610908906155d7565b60405180910390fd5b6000806109b9836001018054600181600116156101000203166002900480601f0160208091040260200160405190810160405280929190818152602001828054600181600116156101000203166002900480156109af5780601f10610984576101008083540402835291602001916109af565b820191906000526020600020905b81548152906001019060200180831161099257829003601f168201915b50505050506133ae565b809350819450829b5050505081836006015410610a0b576040517f08c379a0000000000000000000000000000000000000000000000000000000008152600401610a0290615557565b60405180910390fd5b43610a216001548361388290919063ffffffff16565b10610a695782600201549450610a4a83600401548460020154856003015486600501548d6138d7565b80975081995050508883600901819055508183600a0181905550610a6e565b600098505b5050509295509295509295565b6000806000806000806000806060610a9161387a565b73ffffffffffffffffffffffffffffffffffffffff1660008054906101000a900473ffffffffffffffffffffffffffffffffffffffff1673ffffffffffffffffffffffffffffffffffffffff1614610b1e576040517f08c379a0000000000000000000000000000000000000000000000000000000008152600401610b1590615657565b60405180910390fd5b6000600560008d815260200190815260200160002090506000816009015414610b7c576040517f08c379a0000000000000000000000000000000000000000000000000000000008152600401610b73906155d7565b60405180910390fd5b600080610c25836001018054600181600116156101000203166002900480601f016020809104026020016040519081016040528092919081815260200182805460018160011615610100020316600290048015610c1a5780601f10610bef57610100808354040283529160200191610c1a565b820191906000526020600020905b815481529060010190602001808311610bfd57829003601f168201915b50505050508e6132a0565b9150915080836006015410610c6f576040517f08c379a0000000000000000000000000000000000000000000000000000000008152600401610c66906155f7565b60405180910390fd5b610c9683600401548460050154856003015486600201548760070154886008015488613a61565b809b50819c50829e50505050600115158c15151415610dbb57826001018054600181600116156101000203166002900480601f016020809104026020016040519081016040528092919081815260200182805460018160011615610100020316600290048015610d475780601f10610d1c57610100808354040283529160200191610d47565b820191906000526020600020905b815481529060010190602001808311610d2a57829003601f168201915b5050505050935082600401549650826002015494508260000160009054906101000a900473ffffffffffffffffffffffffffffffffffffffff169a50610da083600401548460020154856003015486600501548e6138d7565b80975081995050508983600901819055508083600a01819055505b5050509295985092959850929598565b600080610dd661387a565b73ffffffffffffffffffffffffffffffffffffffff1660008054906101000a900473ffffffffffffffffffffffffffffffffffffffff1673ffffffffffffffffffffffffffffffffffffffff1614610e63576040517f08c379a0000000000000000000000000000000000000000000000000000000008152600401610e5a90615657565b60405180910390fd5b60006005600087815260200190815260200160002090508673ffffffffffffffffffffffffffffffffffffffff168160000160009054906101000a900473ffffffffffffffffffffffffffffffffffffffff1673ffffffffffffffffffffffffffffffffffffffff1614610f0c576040517f08c379a0000000000000000000000000000000000000000000000000000000008152600401610f0390615617565b60405180910390fd5b6000816009015414610f53576040517f08c379a0000000000000000000000000000000000000000000000000000000008152600401610f4a906155d7565b60405180910390fd5b600181600401541415610f7457610f6f81600501548686613afe565b610f84565b610f8381600501548686613afe565b5b610f978160040154826005015487613bb3565b9250610fac8160040154826005015486613c48565b91508481600701819055508381600801819055505094509492505050565b606080600860008573ffffffffffffffffffffffffffffffffffffffff1673ffffffffffffffffffffffffffffffffffffffff16815260200190815260200160002080548060200260200160405190810160405280929190818152602001828054801561105657602002820191906000526020600020905b815481526020019060010190808311611042575b505050505091506000805b8351811015611266576110726140cd565b6007600086848151811061108257fe5b60200260200101518152602001908152602001600020604051806101800160405290816000820160009054906101000a900473ffffffffffffffffffffffffffffffffffffffff1673ffffffffffffffffffffffffffffffffffffffff1673ffffffffffffffffffffffffffffffffffffffff168152602001600182018054600181600116156101000203166002900480601f0160208091040260200160405190810160405280929190818152602001828054600181600116156101000203166002900480156111935780601f1061116857610100808354040283529160200191611193565b820191906000526020600020905b81548152906001019060200180831161117657829003601f168201915b505050505081526020016002820154815260200160038201548152602001600482015481526020016005820154815260200160068201548152602001600782015481526020016008820154815260200160098201548152602001600a8201548152602001600b82015481525050905060008660ff16148061121b57508061016001518660ff16145b8061124a575060048660ff1614801561124957506001816101600151148061124857506003816101600151145b5b5b156112585782806001019350505b508080600101915050611061565b508067ffffffffffffffff8111801561127e57600080fd5b506040519080825280602002602001820160405280156112b857816020015b6112a56140cd565b81526020019060019003908161129d5790505b5091506000805b8451811015611508576112d06140cd565b600760008784815181106112e057fe5b60200260200101518152602001908152602001600020604051806101800160405290816000820160009054906101000a900473ffffffffffffffffffffffffffffffffffffffff1673ffffffffffffffffffffffffffffffffffffffff1673ffffffffffffffffffffffffffffffffffffffff168152602001600182018054600181600116156101000203166002900480601f0160208091040260200160405190810160405280929190818152602001828054600181600116156101000203166002900480156113f15780601f106113c6576101008083540402835291602001916113f1565b820191906000526020600020905b8154815290600101906020018083116113d457829003601f168201915b505050505081526020016002820154815260200160038201548152602001600482015481526020016005820154815260200160068201548152602001600782015481526020016008820154815260200160098201548152602001600a8201548152602001600b82015481525050905060008760ff16148061147957508061016001518760ff16145b806114a8575060048760ff161480156114a75750600181610160015114806114a657506003816101600151145b5b5b156114fa578582815181106114b957fe5b60200260200101518684815181106114cd57fe5b602002602001018181525050808584815181106114e657fe5b602002602001018190525082806001019350505b5080806001019150506112bf565b5050509250929050565b60008061151d61387a565b73ffffffffffffffffffffffffffffffffffffffff1660008054906101000a900473ffffffffffffffffffffffffffffffffffffffff1673ffffffffffffffffffffffffffffffffffffffff16146115aa576040517f08c379a00000000000000000000000000000000000000000000000000000000081526004016115a190615657565b60405180910390fd5b6115b2614144565b6115bb8a6133ae565b50826000600281106115c957fe5b60200201836001600281106115da57fe5b60200201828152508281525050506000435a8d8d8c8c8c60405160200161160797969594939291906156db565b6040516020818303038152906040528051906020012090506040518061018001604052808d73ffffffffffffffffffffffffffffffffffffffff1681526020018c81526020018a81526020018981526020018881526020018b81526020018360016002811061167257fe5b602002015181526020018360006002811061168957fe5b602002015181526020018781526020018681526020016000815260200160028152506007600083815260200190815260200160002060008201518160000160006101000a81548173ffffffffffffffffffffffffffffffffffffffff021916908373ffffffffffffffffffffffffffffffffffffffff1602179055506020820151816001019080519060200190611721929190614166565b5060408201518160020155606082015181600301556080820151816004015560a0820151816005015560c0820151816006015560e082015181600701556101008201518160080155610120820151816009015561014082015181600a015561016082015181600b0155905050600860008d73ffffffffffffffffffffffffffffffffffffffff1673ffffffffffffffffffffffffffffffffffffffff168152602001908152602001600020819080600181540180825580915050600190039060005260206000200160009091909190915055808260006002811061180157fe5b60200201519350935050509850989650505050505050565b60008061182461387a565b73ffffffffffffffffffffffffffffffffffffffff1660008054906101000a900473ffffffffffffffffffffffffffffffffffffffff1673ffffffffffffffffffffffffffffffffffffffff16146118b1576040517f08c379a00000000000000000000000000000000000000000000000000000000081526004016118a890615657565b60405180910390fd5b60006005600087815260200190815260200160002090508673ffffffffffffffffffffffffffffffffffffffff168160000160009054906101000a900473ffffffffffffffffffffffffffffffffffffffff1673ffffffffffffffffffffffffffffffffffffffff161461195a576040517f08c379a000000000000000000000000000000000000000000000000000000000815260040161195190615617565b60405180910390fd5b60008160090154146119a1576040517f08c379a0000000000000000000000000000000000000000000000000000000008152600401611998906155d7565b60405180910390fd5b6119b48160040154826005015487613cdd565b92506119c98160040154826005015486613d53565b91508281600701819055508181600801819055505094509492505050565b60056020528060005260406000206000915090508060000160009054906101000a900473ffffffffffffffffffffffffffffffffffffffff1690806001018054600181600116156101000203166002900480601f016020809104026020016040519081016040528092919081815260200182805460018160011615610100020316600290048015611ab95780601f10611a8e57610100808354040283529160200191611ab9565b820191906000526020600020905b815481529060010190602001808311611a9c57829003601f168201915b50505050509080600201549080600301549080600401549080600501549080600601549080600701549080600801549080600901549080600a015490508b565b60008060008060606000611b0b61387a565b73ffffffffffffffffffffffffffffffffffffffff1660008054906101000a900473ffffffffffffffffffffffffffffffffffffffff1673ffffffffffffffffffffffffffffffffffffffff1614611b98576040517f08c379a0000000000000000000000000000000000000000000000000000000008152600401611b8f90615657565b60405180910390fd5b6000600760008a81526020019081526020016000209050600281600b015414611bf6576040517f08c379a0000000000000000000000000000000000000000000000000000000008152600401611bed90615677565b60405180910390fd5b600080611c9f836001018054600181600116156101000203166002900480601f016020809104026020016040519081016040528092919081815260200182805460018160011615610100020316600290048015611c945780601f10611c6957610100808354040283529160200191611c94565b820191906000526020600020905b815481529060010190602001808311611c7757829003601f168201915b50505050508b6132a0565b9150915080836006015410611ce9576040517f08c379a0000000000000000000000000000000000000000000000000000000008152600401611ce0906155f7565b60405180910390fd5b6000611cfe8460070154856005015485613dc9565b9050600115158115151415611fc2578184600a0181905550600384600b01819055506040518061016001604052808560000160009054906101000a900473ffffffffffffffffffffffffffffffffffffffff1673ffffffffffffffffffffffffffffffffffffffff168152602001856001018054600181600116156101000203166002900480601f016020809104026020016040519081016040528092919081815260200182805460018160011615610100020316600290048015611e045780601f10611dd957610100808354040283529160200191611e04565b820191906000526020600020905b815481529060010190602001808311611de757829003601f168201915b505050505081526020018560020154815260200185600301548152602001856004015481526020018560050154815260200185600a015481526020018560080154815260200185600901548152602001600081526020016000815250600560008e815260200190815260200160002060008201518160000160006101000a81548173ffffffffffffffffffffffffffffffffffffffff021916908373ffffffffffffffffffffffffffffffffffffffff1602179055506020820151816001019080519060200190611ed6929190614166565b5060408201518160020155606082015181600301556080820151816004015560a0820151816005015560c0820151816006015560e082015181600701556101008201518160080155610120820151816009015561014082015181600a0155905050600660008560000160009054906101000a900473ffffffffffffffffffffffffffffffffffffffff1673ffffffffffffffffffffffffffffffffffffffff1673ffffffffffffffffffffffffffffffffffffffff1681526020019081526020016000208c90806001815401808255809150506001900390600052602060002001600090919091909150555b808460000160009054906101000a900473ffffffffffffffffffffffffffffffffffffffff1685600201548660050154876001018860040154818054600181600116156101000203166002900480601f0160208091040260200160405190810160405280929190818152602001828054600181600116156101000203166002900480156120905780601f1061206557610100808354040283529160200191612090565b820191906000526020600020905b81548152906001019060200180831161207357829003601f168201915b50505050509150995099509950995099509950505050509295509295509295565b6120b961387a565b73ffffffffffffffffffffffffffffffffffffffff1660008054906101000a900473ffffffffffffffffffffffffffffffffffffffff1673ffffffffffffffffffffffffffffffffffffffff1614612146576040517f08c379a000000000000000000000000000000000000000000000000000000000815260040161213d90615657565b60405180910390fd5b81600260006101000a81548173ffffffffffffffffffffffffffffffffffffffff021916908373ffffffffffffffffffffffffffffffffffffffff16021790555080600360006101000a81548173ffffffffffffffffffffffffffffffffffffffff021916908373ffffffffffffffffffffffffffffffffffffffff160217905550600360009054906101000a900473ffffffffffffffffffffffffffffffffffffffff1673ffffffffffffffffffffffffffffffffffffffff166358aafa3d6040518163ffffffff1660e01b8152600401602060405180830381600087803b15801561223257600080fd5b505af1158015612246573d6000803e3d6000fd5b505050506040513d601f19601f8201168201806040525081019061226a9190614413565b600460006101000a81548173ffffffffffffffffffffffffffffffffffffffff021916908373ffffffffffffffffffffffffffffffffffffffff1602179055505050565b60008060606000806122be61387a565b73ffffffffffffffffffffffffffffffffffffffff1660008054906101000a900473ffffffffffffffffffffffffffffffffffffffff1673ffffffffffffffffffffffffffffffffffffffff161461234b576040517f08c379a000000000000000000000000000000000000000000000000000000000815260040161234290615657565b60405180910390fd5b600060056000888152602001908152602001600020905060008160050154146123a9576040517f08c379a00000000000000000000000000000000000000000000000000000000081526004016123a0906154d7565b60405180910390fd5b600080612451836001018054600181600116156101000203166002900480601f0160208091040260200160405190810160405280929190818152602001828054600181600116156101000203166002900480156124475780601f1061241c57610100808354040283529160200191612447565b820191906000526020600020905b81548152906001019060200180831161242a57829003601f168201915b50505050506133ae565b50915091508183600501819055508083600601819055508260000160009054906101000a900473ffffffffffffffffffffffffffffffffffffffff16828460010185600401548660020154828054600181600116156101000203166002900480601f0160208091040260200160405190810160405280929190818152602001828054600181600116156101000203166002900480156125315780601f1061250657610100808354040283529160200191612531565b820191906000526020600020905b81548152906001019060200180831161251457829003601f168201915b505050505092509750975097509750975050505091939590929450565b6000600860008373ffffffffffffffffffffffffffffffffffffffff1673ffffffffffffffffffffffffffffffffffffffff168152602001908152602001600020805490509050919050565b600260009054906101000a900473ffffffffffffffffffffffffffffffffffffffff1681565b600360009054906101000a900473ffffffffffffffffffffffffffffffffffffffff1681565b6125ee61387a565b73ffffffffffffffffffffffffffffffffffffffff1660008054906101000a900473ffffffffffffffffffffffffffffffffffffffff1673ffffffffffffffffffffffffffffffffffffffff161461267b576040517f08c379a000000000000000000000000000000000000000000000000000000000815260040161267290615657565b60405180910390fd5b600073ffffffffffffffffffffffffffffffffffffffff1660008054906101000a900473ffffffffffffffffffffffffffffffffffffffff1673ffffffffffffffffffffffffffffffffffffffff167f8be0079c531659141344cd1fd0a4f28419497f9722a3daafe3b4186f6b6457e060405160405180910390a360008060006101000a81548173ffffffffffffffffffffffffffffffffffffffff021916908373ffffffffffffffffffffffffffffffffffffffff160217905550565b6008602052816000526040600020818154811061275257fe5b90600052602060002001600091509150505481565b6006602052816000526040600020818154811061278057fe5b90600052602060002001600091509150505481565b606080600660008573ffffffffffffffffffffffffffffffffffffffff1673ffffffffffffffffffffffffffffffffffffffff16815260200190815260200160002080548060200260200160405190810160405280929190818152602001828054801561282157602002820191906000526020600020905b81548152602001906001019080831161280d575b505050505091506000805b8351811015612a245761283d6141e6565b6005600086848151811061284d57fe5b60200260200101518152602001908152602001600020604051806101600160405290816000820160009054906101000a900473ffffffffffffffffffffffffffffffffffffffff1673ffffffffffffffffffffffffffffffffffffffff1673ffffffffffffffffffffffffffffffffffffffff168152602001600182018054600181600116156101000203166002900480601f01602080910402602001604051908101604052809291908181526020018280546001816001161561010002031660029004801561295e5780601f106129335761010080835404028352916020019161295e565b820191906000526020600020905b81548152906001019060200180831161294157829003601f168201915b505050505081526020016002820154815260200160038201548152602001600482015481526020016005820154815260200160068201548152602001600782015481526020016008820154815260200160098201548152602001600a82015481525050905060008660ff1614806129e9575060018660ff161480156129e857506000816101200151115b5b80612a08575060028660ff16148015612a0757506000816101200151145b5b15612a165782806001019350505b50808060010191505061282c565b508067ffffffffffffffff81118015612a3c57600080fd5b50604051908082528060200260200182016040528015612a7657816020015b612a636141e6565b815260200190600190039081612a5b5790505b5091506000805b8451811015612cb957612a8e6141e6565b60056000878481518110612a9e57fe5b60200260200101518152602001908152602001600020604051806101600160405290816000820160009054906101000a900473ffffffffffffffffffffffffffffffffffffffff1673ffffffffffffffffffffffffffffffffffffffff1673ffffffffffffffffffffffffffffffffffffffff168152602001600182018054600181600116156101000203166002900480601f016020809104026020016040519081016040528092919081815260200182805460018160011615610100020316600290048015612baf5780601f10612b8457610100808354040283529160200191612baf565b820191906000526020600020905b815481529060010190602001808311612b9257829003601f168201915b505050505081526020016002820154815260200160038201548152602001600482015481526020016005820154815260200160068201548152602001600782015481526020016008820154815260200160098201548152602001600a82015481525050905060008760ff161480612c3a575060018760ff16148015612c3957506000816101200151115b5b80612c59575060028760ff16148015612c5857506000816101200151145b5b15612cab57858281518110612c6a57fe5b6020026020010151868481518110612c7e57fe5b60200260200101818152505080858481518110612c9757fe5b602002602001018190525082806001019350505b508080600101915050612a7d565b5050509250929050565b60008060009054906101000a900473ffffffffffffffffffffffffffffffffffffffff16905090565b600080612cf761387a565b73ffffffffffffffffffffffffffffffffffffffff1660008054906101000a900473ffffffffffffffffffffffffffffffffffffffff1673ffffffffffffffffffffffffffffffffffffffff1614612d84576040517f08c379a0000000000000000000000000000000000000000000000000000000008152600401612d7b90615657565b60405180910390fd5b612d8c614256565b612d958a6133ae565b83600060038110612da257fe5b6020020184600160038110612db357fe5b6020020185600260038110612dc457fe5b6020020183815250838152508381525050505043612dfe60015483600260038110612deb57fe5b602002015161388290919063ffffffff16565b1015612e3557600081600060038110612e1357fe5b602002018181525050600081600160038110612e2b57fe5b6020020181815250505b6000435a8d8d8d8d8d604051602001612e5497969594939291906156db565b6040516020818303038152906040528051906020012090506040518061016001604052808d73ffffffffffffffffffffffffffffffffffffffff1681526020018c81526020018b81526020018a815260200189815260200183600060038110612eb957fe5b6020020151815260200183600160038110612ed057fe5b602002015181526020018881526020018781526020016000815260200160008152506005600083815260200190815260200160002060008201518160000160006101000a81548173ffffffffffffffffffffffffffffffffffffffff021916908373ffffffffffffffffffffffffffffffffffffffff1602179055506020820151816001019080519060200190612f68929190614166565b5060408201518160020155606082015181600301556080820151816004015560a0820151816005015560c0820151816006015560e082015181600701556101008201518160080155610120820151816009015561014082015181600a0155905050600660008d73ffffffffffffffffffffffffffffffffffffffff1673ffffffffffffffffffffffffffffffffffffffff168152602001908152602001600020819080600181540180825580915050600190039060005260206000200160009091909190915055808260006003811061303d57fe5b60200201519350935050509850989650505050505050565b60076020528060005260406000206000915090508060000160009054906101000a900473ffffffffffffffffffffffffffffffffffffffff1690806001018054600181600116156101000203166002900480601f0160208091040260200160405190810160405280929190818152602001828054600181600116156101000203166002900480156131275780601f106130fc57610100808354040283529160200191613127565b820191906000526020600020905b81548152906001019060200180831161310a57829003601f168201915b50505050509080600201549080600301549080600401549080600501549080600601549080600701549080600801549080600901549080600a01549080600b015490508c565b600460009054906101000a900473ffffffffffffffffffffffffffffffffffffffff1681565b600080600060056000856000815181106131a957fe5b6020026020010151815260200190815260200160002090506000613268826001018054600181600116156101000203166002900480601f01602080910402602001604051908101604052809291908181526020018280546001816001161561010002031660029004801561325e5780601f106132335761010080835404028352916020019161325e565b820191906000526020600020905b81548152906001019060200180831161324157829003601f168201915b50505050506133ae565b92505050436132826001548361388290919063ffffffff16565b11156132945760019350809250613299565b600093505b5050915091565b600080600460009054906101000a900473ffffffffffffffffffffffffffffffffffffffff1673ffffffffffffffffffffffffffffffffffffffff1663d4a06b8785856040518363ffffffff1660e01b81526004016133009291906154a7565b60606040518083038186803b15801561331857600080fd5b505afa15801561332c573d6000803e3d6000fd5b505050506040513d601f19601f8201168201806040525081019061335091906147bd565b90915080925081935050509250929050565b6000600660008373ffffffffffffffffffffffffffffffffffffffff1673ffffffffffffffffffffffffffffffffffffffff168152602001908152602001600020805490509050919050565b6000806000600460009054906101000a900473ffffffffffffffffffffffffffffffffffffffff1673ffffffffffffffffffffffffffffffffffffffff1663e8084a87856040518263ffffffff1660e01b815260040161340e9190615485565b60606040518083038186803b15801561342657600080fd5b505afa15801561343a573d6000803e3d6000fd5b505050506040513d601f19601f8201168201806040525081019061345e91906147bd565b8094508195508293505050509193909250565b61347961387a565b73ffffffffffffffffffffffffffffffffffffffff1660008054906101000a900473ffffffffffffffffffffffffffffffffffffffff1673ffffffffffffffffffffffffffffffffffffffff1614613506576040517f08c379a00000000000000000000000000000000000000000000000000000000081526004016134fd90615657565b60405180910390fd5b8060018190555050565b61351861387a565b73ffffffffffffffffffffffffffffffffffffffff1660008054906101000a900473ffffffffffffffffffffffffffffffffffffffff1673ffffffffffffffffffffffffffffffffffffffff16146135a5576040517f08c379a000000000000000000000000000000000000000000000000000000000815260040161359c90615657565b60405180910390fd5b600073ffffffffffffffffffffffffffffffffffffffff168173ffffffffffffffffffffffffffffffffffffffff161415613615576040517f08c379a000000000000000000000000000000000000000000000000000000000815260040161360c90615597565b60405180910390fd5b8073ffffffffffffffffffffffffffffffffffffffff1660008054906101000a900473ffffffffffffffffffffffffffffffffffffffff1673ffffffffffffffffffffffffffffffffffffffff167f8be0079c531659141344cd1fd0a4f28419497f9722a3daafe3b4186f6b6457e060405160405180910390a3806000806101000a81548173ffffffffffffffffffffffffffffffffffffffff021916908373ffffffffffffffffffffffffffffffffffffffff16021790555050565b60006136dc61387a565b73ffffffffffffffffffffffffffffffffffffffff1660008054906101000a900473ffffffffffffffffffffffffffffffffffffffff1673ffffffffffffffffffffffffffffffffffffffff1614613769576040517f08c379a000000000000000000000000000000000000000000000000000000000815260040161376090615657565b60405180910390fd5b60006007600084815260200190815260200160002090508373ffffffffffffffffffffffffffffffffffffffff168160000160009054906101000a900473ffffffffffffffffffffffffffffffffffffffff1673ffffffffffffffffffffffffffffffffffffffff1614613812576040517f08c379a000000000000000000000000000000000000000000000000000000000815260040161380990615517565b60405180910390fd5b600281600b015414613859576040517f08c379a000000000000000000000000000000000000000000000000000000000815260040161385090615577565b60405180910390fd5b806002015491504281600a0181905550600181600b01819055505092915050565b600033905090565b6000808284019050838110156138cd576040517f08c379a00000000000000000000000000000000000000000000000000000000081526004016138c4906155b7565b60405180910390fd5b8091505092915050565b600080600187141561399f5783831061394a5760009150613937846139296139088787613df890919063ffffffff16565b61391b898b613e4290919063ffffffff16565b613e4290919063ffffffff16565b613eb290919063ffffffff16565b905085811115613945578590505b61399a565b60019150613997846139896139688688613df890919063ffffffff16565b61397b898b613e4290919063ffffffff16565b613e4290919063ffffffff16565b613eb290919063ffffffff16565b90505b613a57565b8383106139fa57600191506139f3846139e56139c48787613df890919063ffffffff16565b6139d7898b613e4290919063ffffffff16565b613e4290919063ffffffff16565b613eb290919063ffffffff16565b9050613a56565b60009150613a4784613a39613a188688613df890919063ffffffff16565b613a2b898b613e4290919063ffffffff16565b613e4290919063ffffffff16565b613eb290919063ffffffff16565b905085811115613a55578590505b5b5b9550959350505050565b6000806000613a718a8786613efc565b8093508194505050600015158315151415613aec576000613a958b8b8b8b8c613f47565b9050613aa28b8287613fc6565b8094508195505050600015158415151415613ae157613ac28b8787613fc6565b8094508195505050600115158415151415613adc57600291505b613ae6565b600391505b50613af1565b600190505b9750975097945050505050565b6000821115613b5657600082118015613b1657508282105b613b55576040517f08c379a0000000000000000000000000000000000000000000000000000000008152600401613b4c906154f7565b60405180910390fd5b5b6000811115613bae57600081118015613b6e57508281115b613bad576040517f08c379a0000000000000000000000000000000000000000000000000000000008152600401613ba490615537565b60405180910390fd5b5b505050565b600080821115613c41576001841415613c0557613bfe83613bf06064613be28688613df890919063ffffffff16565b613e4290919063ffffffff16565b613eb290919063ffffffff16565b9050613c40565b613c3d83613c2f6064613c218787613df890919063ffffffff16565b613e4290919063ffffffff16565b613eb290919063ffffffff16565b90505b5b9392505050565b600080821115613cd6576001841415613c9a57613c9383613c856064613c778787613df890919063ffffffff16565b613e4290919063ffffffff16565b613eb290919063ffffffff16565b9050613cd5565b613cd283613cc46064613cb68688613df890919063ffffffff16565b613e4290919063ffffffff16565b613eb290919063ffffffff16565b90505b5b9392505050565b600080821115613d4c576000613d0f6064613d018587613e4290919063ffffffff16565b613eb290919063ffffffff16565b90506001851415613d3457613d2d8185613df890919063ffffffff16565b9150613d4a565b613d47818561388290919063ffffffff16565b91505b505b9392505050565b600080821115613dc2576000613d856064613d778587613e4290919063ffffffff16565b613eb290919063ffffffff16565b90506001851415613daa57613da3818561388290919063ffffffff16565b9150613dc0565b613dbd8185613df890919063ffffffff16565b91505b505b9392505050565b600082841115613de457818310613ddf57600190505b613df1565b818311613df057600190505b5b9392505050565b6000613e3a83836040518060400160405280601e81526020017f536166654d6174683a207375627472616374696f6e206f766572666c6f770000815250614011565b905092915050565b600080831415613e555760009050613eac565b6000828402905082848281613e6657fe5b0414613ea7576040517f08c379a0000000000000000000000000000000000000000000000000000000008152600401613e9e90615637565b60405180910390fd5b809150505b92915050565b6000613ef483836040518060400160405280601a81526020017f536166654d6174683a206469766973696f6e206279207a65726f00000000000081525061406c565b905092915050565b6000806000841115613f3a576001851415613f2557838311613f2057839050600191505b613f35565b838310613f3457839050600191505b5b613f3f565b600091505b935093915050565b600080613f8185613f7386613f65878b613e4290919063ffffffff16565b613eb290919063ffffffff16565b613eb290919063ffffffff16565b90506001871415613fa657613f9f818761388290919063ffffffff16565b9150613fbc565b613fb98187613df890919063ffffffff16565b91505b5095945050505050565b6000806000841115614004576001851415613fef57838310613fea57839050600191505b613fff565b838311613ffe57839050600191505b5b614009565b600091505b935093915050565b6000838311158290614059576040517f08c379a00000000000000000000000000000000000000000000000000000000081526004016140509190615485565b60405180910390fd5b5060008385039050809150509392505050565b600080831182906140b3576040517f08c379a00000000000000000000000000000000000000000000000000000000081526004016140aa9190615485565b60405180910390fd5b5060008385816140bf57fe5b049050809150509392505050565b604051806101800160405280600073ffffffffffffffffffffffffffffffffffffffff16815260200160608152602001600081526020016000815260200160008152602001600081526020016000815260200160008152602001600081526020016000815260200160008152602001600081525090565b6040518060400160405280600290602082028036833780820191505090505090565b828054600181600116156101000203166002900490600052602060002090601f016020900481019282601f106141a757805160ff19168380011785556141d5565b828001600101855582156141d5579182015b828111156141d45782518255916020019190600101906141b9565b5b5090506141e29190614278565b5090565b604051806101600160405280600073ffffffffffffffffffffffffffffffffffffffff168152602001606081526020016000815260200160008152602001600081526020016000815260200160008152602001600081526020016000815260200160008152602001600081525090565b6040518060600160405280600390602082028036833780820191505090505090565b5b80821115614291576000816000905550600101614279565b5090565b6000813590506142a4816159fb565b92915050565b6000815190506142b9816159fb565b92915050565b600082601f8301126142d057600080fd5b81356142e36142de8261581d565b6157f0565b9150818183526020840193506020810190508385602084028201111561430857600080fd5b60005b83811015614338578161431e8882614342565b84526020840193506020830192505060018101905061430b565b5050505092915050565b60008135905061435181615a12565b92915050565b600082601f83011261436857600080fd5b813561437b61437682615845565b6157f0565b9150808252602083016020830185838301111561439757600080fd5b6143a28382846159a8565b50505092915050565b6000813590506143ba81615a29565b92915050565b6000815190506143cf81615a29565b92915050565b6000813590506143e481615a40565b92915050565b6000602082840312156143fc57600080fd5b600061440a84828501614295565b91505092915050565b60006020828403121561442557600080fd5b6000614433848285016142aa565b91505092915050565b6000806040838503121561444f57600080fd5b600061445d85828601614295565b925050602061446e85828601614295565b9150509250929050565b6000806040838503121561448b57600080fd5b600061449985828601614295565b92505060206144aa85828601614342565b9150509250929050565b600080600080608085870312156144ca57600080fd5b60006144d887828801614295565b94505060206144e987828801614342565b93505060406144fa878288016143ab565b925050606061450b878288016143ab565b91505092959194509250565b600080600080600080600080610100898b03121561453457600080fd5b60006145428b828c01614295565b985050602089013567ffffffffffffffff81111561455f57600080fd5b61456b8b828c01614357565b975050604061457c8b828c016143ab565b965050606061458d8b828c016143ab565b955050608061459e8b828c016143ab565b94505060a06145af8b828c016143ab565b93505060c06145c08b828c016143ab565b92505060e06145d18b828c016143ab565b9150509295985092959890939650565b600080604083850312156145f457600080fd5b600061460285828601614295565b9250506020614613858286016143ab565b9150509250929050565b6000806040838503121561463057600080fd5b600061463e85828601614295565b925050602061464f858286016143d5565b9150509250929050565b60006020828403121561466b57600080fd5b600082013567ffffffffffffffff81111561468557600080fd5b614691848285016142bf565b91505092915050565b6000602082840312156146ac57600080fd5b60006146ba84828501614342565b91505092915050565b600080604083850312156146d657600080fd5b60006146e485828601614342565b92505060206146f5858286016143ab565b9150509250929050565b60006020828403121561471157600080fd5b600082013567ffffffffffffffff81111561472b57600080fd5b61473784828501614357565b91505092915050565b6000806040838503121561475357600080fd5b600083013567ffffffffffffffff81111561476d57600080fd5b61477985828601614357565b925050602061478a858286016143ab565b9150509250929050565b6000602082840312156147a657600080fd5b60006147b4848285016143ab565b91505092915050565b6000806000606084860312156147d257600080fd5b60006147e0868287016143c0565b93505060206147f1868287016143c0565b9250506040614802868287016143c0565b9150509250925092565b600061481883836149c1565b60208301905092915050565b60006148308383614eb5565b905092915050565b60006148448383614fb9565b905092915050565b61485581615949565b82525050565b61486481615949565b82525050565b6000614875826158a1565b61487f81856158f4565b935061488a83615871565b8060005b838110156148bb5781516148a2888261480c565b97506148ad836158cd565b92505060018101905061488e565b5085935050505092915050565b60006148d3826158ac565b6148dd8185615905565b9350836020820285016148ef85615881565b8060005b8581101561492b578484038952815161490c8582614824565b9450614917836158da565b925060208a019950506001810190506148f3565b50829750879550505050505092915050565b6000614948826158b7565b6149528185615916565b93508360208202850161496485615891565b8060005b858110156149a057848403895281516149818582614838565b945061498c836158e7565b925060208a01995050600181019050614968565b50829750879550505050505092915050565b6149bb8161595b565b82525050565b6149ca81615967565b82525050565b6149d981615967565b82525050565b60006149ea826158c2565b6149f48185615927565b9350614a048185602086016159b7565b614a0d816159ea565b840191505092915050565b6000614a23826158c2565b614a2d8185615938565b9350614a3d8185602086016159b7565b614a46816159ea565b840191505092915050565b6000614a5e601a83615938565b91507f7365744f7264657250726963653a20414c52454144595f5345540000000000006000830152602082019050919050565b6000614a9e602283615938565b91507f636c6f7365537761703a204f524445525f504c494d495450524943455f57524f60008301527f4e470000000000000000000000000000000000000000000000000000000000006020830152604082019050919050565b6000614b04601f83615938565b91507f63616e63656c4c696d6974537761703a2055534552414444525f57524f4e47006000830152602082019050919050565b6000614b44602283615938565b91507f636c6f7365537761703a204f524445525f4c4c494d495450524943455f57524f60008301527f4e470000000000000000000000000000000000000000000000000000000000006020830152604082019050919050565b6000614baa601b83615938565b91507f636c6f7365537761703a204f524445525f54494d455f57524f4e4700000000006000830152602082019050919050565b6000614bea602383615938565b91507f63616e63656c4c696d6974537761703a204f524445525f5354415455535f575260008301527f4f4e4700000000000000000000000000000000000000000000000000000000006020830152604082019050919050565b6000614c50602683615938565b91507f4f776e61626c653a206e6577206f776e657220697320746865207a65726f206160008301527f64647265737300000000000000000000000000000000000000000000000000006020830152604082019050919050565b6000614cb6601b83615938565b91507f536166654d6174683a206164646974696f6e206f766572666c6f7700000000006000830152602082019050919050565b6000614cf6601d83615938565b91507f636c6f7365537761703a204f524445525f5354415455535f57524f4e470000006000830152602082019050919050565b6000614d36602083615938565b91507f74726164654c696d6974537761703a204f524445525f54494d455f57524f4e476000830152602082019050919050565b6000614d76601983615938565b91507f636c6f7365537761703a2055534552414444525f57524f4e47000000000000006000830152602082019050919050565b6000614db6602183615938565b91507f536166654d6174683a206d756c7469706c69636174696f6e206f766572666c6f60008301527f77000000000000000000000000000000000000000000000000000000000000006020830152604082019050919050565b6000614e1c602083615938565b91507f4f776e61626c653a2063616c6c6572206973206e6f7420746865206f776e65726000830152602082019050919050565b6000614e5c602283615938565b91507f74726164654c696d6974537761703a204f524445525f5354415455535f57524f60008301527f4e470000000000000000000000000000000000000000000000000000000000006020830152604082019050919050565b600061018083016000830151614ece600086018261484c565b5060208301518482036020860152614ee682826149df565b9150506040830151614efb60408601826150a8565b506060830151614f0e60608601826150a8565b506080830151614f2160808601826150a8565b5060a0830151614f3460a08601826150a8565b5060c0830151614f4760c08601826150a8565b5060e0830151614f5a60e08601826150a8565b50610100830151614f6f6101008601826150a8565b50610120830151614f846101208601826150a8565b50610140830151614f996101408601826150a8565b50610160830151614fae6101608601826150a8565b508091505092915050565b600061016083016000830151614fd2600086018261484c565b5060208301518482036020860152614fea82826149df565b9150506040830151614fff60408601826150a8565b50606083015161501260608601826150a8565b50608083015161502560808601826150a8565b5060a083015161503860a08601826150a8565b5060c083015161504b60c08601826150a8565b5060e083015161505e60e08601826150a8565b506101008301516150736101008601826150a8565b506101208301516150886101208601826150a8565b5061014083015161509d6101408601826150a8565b508091505092915050565b6150b181615991565b82525050565b6150c081615991565b82525050565b60006020820190506150db600083018461485b565b92915050565b6000610160820190506150f7600083018e61485b565b8181036020830152615109818d614a18565b9050615118604083018c6150b7565b615125606083018b6150b7565b615132608083018a6150b7565b61513f60a08301896150b7565b61514c60c08301886150b7565b61515960e08301876150b7565b6151676101008301866150b7565b6151756101208301856150b7565b6151836101408301846150b7565b9c9b505050505050505050505050565b6000610180820190506151a9600083018f61485b565b81810360208301526151bb818e614a18565b90506151ca604083018d6150b7565b6151d7606083018c6150b7565b6151e4608083018b6150b7565b6151f160a083018a6150b7565b6151fe60c08301896150b7565b61520b60e08301886150b7565b6152196101008301876150b7565b6152276101208301866150b7565b6152356101408301856150b7565b6152436101608301846150b7565b9d9c50505050505050505050505050565b600060a082019050615269600083018861485b565b61527660208301876150b7565b81810360408301526152888186614a18565b905061529760608301856150b7565b6152a460808301846150b7565b9695505050505050565b600060408201905081810360008301526152c8818561486a565b905081810360208301526152dc81846148c8565b90509392505050565b600060408201905081810360008301526152ff818561486a565b90508181036020830152615313818461493d565b90509392505050565b600060c08201905061533160008301896149b2565b61533e602083018861485b565b61534b60408301876150b7565b61535860608301866150b7565b818103608083015261536a8185614a18565b905061537960a08301846150b7565b979650505050505050565b60006101208201905061539a600083018c6149b2565b6153a7602083018b61485b565b6153b4604083018a6150b7565b6153c160608301896150b7565b6153ce60808301886150b7565b6153db60a08301876150b7565b6153e860c08301866150b7565b6153f560e08301856150b7565b8181036101008301526154088184614a18565b90509a9950505050505050505050565b600060408201905061542d60008301856149b2565b61543a60208301846150b7565b9392505050565b600060208201905061545660008301846149d0565b92915050565b600060408201905061547160008301856149d0565b61547e60208301846150b7565b9392505050565b6000602082019050818103600083015261549f8184614a18565b905092915050565b600060408201905081810360008301526154c18185614a18565b90506154d060208301846150b7565b9392505050565b600060208201905081810360008301526154f081614a51565b9050919050565b6000602082019050818103600083015261551081614a91565b9050919050565b6000602082019050818103600083015261553081614af7565b9050919050565b6000602082019050818103600083015261555081614b37565b9050919050565b6000602082019050818103600083015261557081614b9d565b9050919050565b6000602082019050818103600083015261559081614bdd565b9050919050565b600060208201905081810360008301526155b081614c43565b9050919050565b600060208201905081810360008301526155d081614ca9565b9050919050565b600060208201905081810360008301526155f081614ce9565b9050919050565b6000602082019050818103600083015261561081614d29565b9050919050565b6000602082019050818103600083015261563081614d69565b9050919050565b6000602082019050818103600083015261565081614da9565b9050919050565b6000602082019050818103600083015261567081614e0f565b9050919050565b6000602082019050818103600083015261569081614e4f565b9050919050565b60006020820190506156ac60008301846150b7565b92915050565b60006040820190506156c760008301856150b7565b6156d460208301846150b7565b9392505050565b600060e0820190506156f0600083018a6150b7565b6156fd60208301896150b7565b61570a604083018861485b565b818103606083015261571c8187614a18565b905061572b60808301866150b7565b61573860a08301856150b7565b61574560c08301846150b7565b98975050505050505050565b600060608201905061576660008301866150b7565b61577360208301856150b7565b61578060408301846150b7565b949350505050565b600060c08201905061579d60008301896150b7565b6157aa60208301886150b7565b6157b760408301876150b7565b6157c460608301866150b7565b6157d160808301856150b7565b81810360a08301526157e38184614a18565b9050979650505050505050565b6000604051905081810181811067ffffffffffffffff8211171561581357600080fd5b8060405250919050565b600067ffffffffffffffff82111561583457600080fd5b602082029050602081019050919050565b600067ffffffffffffffff82111561585c57600080fd5b601f19601f8301169050602081019050919050565b6000819050602082019050919050565b6000819050602082019050919050565b6000819050602082019050919050565b600081519050919050565b600081519050919050565b600081519050919050565b600081519050919050565b6000602082019050919050565b6000602082019050919050565b6000602082019050919050565b600082825260208201905092915050565b600082825260208201905092915050565b600082825260208201905092915050565b600082825260208201905092915050565b600082825260208201905092915050565b600061595482615971565b9050919050565b60008115159050919050565b6000819050919050565b600073ffffffffffffffffffffffffffffffffffffffff82169050919050565b6000819050919050565b600060ff82169050919050565b82818337600083830152505050565b60005b838110156159d55780820151818401526020810190506159ba565b838111156159e4576000848401525b50505050565b6000601f19601f8301169050919050565b615a0481615949565b8114615a0f57600080fd5b50565b615a1b81615967565b8114615a2657600080fd5b50565b615a3281615991565b8114615a3d57600080fd5b50565b615a498161599b565b8114615a5457600080fd5b5056fea2646970667358221220de6cc886fda0ee62b13112aae3c7ec90dd0af4b00afbb706ad5e31e096afac8f64736f6c634300060c0033",
  "immutableReferences": {},
  "source": "// SPDX-License-Identifier: MIT\npragma solidity >=0.6.12;\npragma experimental ABIEncoderV2;\n\nimport \"../openzeppelin/contracts/math/SafeMath.sol\";\nimport \"../openzeppelin/contracts/access/Ownable.sol\";\nimport \"../openzeppelin/contracts/utils/Strings.sol\";\nimport \"../quote/QuoteFactory.sol\";\nimport \"../interface/ISwapTrade.sol\";\nimport \"../interface/ITeemoPool.sol\";\nimport \"../libraries/SwapTradeLibrary.sol\";\n\ncontract SwapTrade is Ownable, ISwapTrade {\n    using SafeMath for uint256;\n\n    struct SwapLimitOrder {\n        address userAddr;\n        string symbol;\n        uint256 tokenAmount;\n        uint256 lever;\n        uint256 bsFlag;//  1 2\n        uint256 openPrice;// \n        uint256 openTime;// \n        uint256 newPrice;// \n        uint256 pLimitPrice;// \n        uint256 lLimitPrice;// \n        uint256 closeTime;// \n        uint256 status;//  1: 2 3\n    }\n    struct SwapOrder {\n        address userAddr;\n        string symbol;\n        uint256 tokenAmount;\n        uint256 lever;\n        uint256 bsFlag;//  1 2\n        uint256 openPrice;// \n        uint256 openTime;// \n        uint256 pLimitPrice;// \n        uint256 lLimitPrice;// \n        uint256 closePrice;// \n        uint256 closeTime;// \n    }\n\n    // \n    uint256 validBlocks = 100;\n\n    address public tokenAddr;\n    address public poolAddr;\n    address public quoteFactoryAddr;\n    \n    mapping(bytes32 => SwapOrder) public allOrderHash;// =>\n    mapping(address => bytes32[]) public allOrderUser;// =>\n\n    mapping(bytes32 => SwapLimitOrder) public allLimitOrderHash;// =>\n    mapping(address => bytes32[]) public allLimitOrderUser;// =>\n\n    function initialize(address _tokenAddr, address _poolAddr) public onlyOwner{\n        tokenAddr = _tokenAddr;\n        poolAddr = _poolAddr;\n        quoteFactoryAddr = ITeemoPool(poolAddr).getQuoteFactoryAddr();\n    } \n\n    function orderLength(address _userAddress) public view returns(uint256) {\n        return allOrderUser[_userAddress].length;\n    }\n\n    function limitOrderLength(address _userAddress) public view returns(uint256) {\n        return allLimitOrderUser[_userAddress].length;\n    }\n\n    //0 1 2\n    function getAllOrder(address _userAddress, uint8 status) public view returns(\n        bytes32[] memory orderIds,\n        SwapOrder[] memory orders\n        ) {\n        orderIds = allOrderUser[_userAddress];\n        uint256 size = 0;\n        for (uint i = 0; i < orderIds.length; i++) {\n            SwapOrder memory order = allOrderHash[orderIds[i]];\n            if (status == 0 || (status == 1 && order.closePrice > 0) || (status == 2 && order.closePrice == 0)) {\n                size++;\n            }\n        }\n        orders = new SwapOrder[](size);\n        uint256 index = 0;\n        for (uint i = 0; i < orderIds.length; i++) {\n            SwapOrder memory order = allOrderHash[orderIds[i]];\n            if (status == 0 || (status == 1 && order.closePrice > 0) || (status == 2 && order.closePrice == 0)) {\n                orderIds[index] = orderIds[i];\n                orders[index] = order;\n                index++;\n            }\n        }\n    }\n\n    //0 1: 2 3 4-\n    function getAllLimitOrder(address _userAddress, uint8 status) public view returns(\n        bytes32[] memory orderIds,\n        SwapLimitOrder[] memory orders\n        ) {\n        orderIds = allLimitOrderUser[_userAddress];\n        uint256 size = 0;\n        for (uint i = 0; i < orderIds.length; i++) {\n            SwapLimitOrder memory order = allLimitOrderHash[orderIds[i]];\n            if (status == 0 || status == order.status || (status == 4 && (order.status == 1 || order.status == 3))) {\n                size++;\n            }\n        }\n        orders = new SwapLimitOrder[](size);\n        uint256 index = 0;\n        for (uint i = 0; i < orderIds.length; i++) {\n            SwapLimitOrder memory order = allLimitOrderHash[orderIds[i]];\n            if (status == 0 || status == order.status || (status == 4 && (order.status == 1 || order.status == 3))) {\n                orderIds[index] = orderIds[i];\n                orders[index] = order;\n                index++;\n            }\n        }\n    }\n\n    // \n    function openLimitSwap(\n        address _userAddr,\n        string memory _symbol,\n        uint256 _limitPrice,\n        uint256 _tokenAmount,\n        uint256 _lever,\n        uint256 _bsFlag,\n        uint256 _pLimitPrice,\n        uint256 _lLimitPrice\n    ) \n        public \n        override \n        onlyOwner \n        returns (\n            bytes32, \n            uint256\n        ) \n    {\n        uint256[2] memory priceInfo;\n        (priceInfo[0],priceInfo[1], ) = getNewPrice(_symbol);\n        bytes32 orderID = keccak256(abi.encode(block.number,gasleft(),_userAddr,_symbol,_tokenAmount,_lever,_bsFlag));\n        allLimitOrderHash[orderID] = SwapLimitOrder({\n            userAddr: _userAddr,\n            symbol: _symbol,\n            tokenAmount: _tokenAmount,\n            lever: _lever,\n            bsFlag: _bsFlag,\n            openPrice: _limitPrice,\n            openTime: priceInfo[1],\n            newPrice: priceInfo[0],\n            pLimitPrice: _pLimitPrice,\n            lLimitPrice: _lLimitPrice,\n            closeTime: 0,\n            status: 2\n        });\n        allLimitOrderUser[_userAddr].push(orderID);\n        return (orderID,priceInfo[0]);\n    }\n\n    // \n    function cancelLimitSwap(\n        address _userAddr,\n        bytes32 _orderID\n    ) \n        public\n        override \n        onlyOwner\n        returns (uint256 tokenAmount)\n    {\n        SwapLimitOrder storage orderInfo = allLimitOrderHash[_orderID];\n        require(orderInfo.userAddr == _userAddr, \"cancelLimitSwap: USERADDR_WRONG\");\n        require(orderInfo.status == 2, \"cancelLimitSwap: ORDER_STATUS_WRONG\");\n        tokenAmount = orderInfo.tokenAmount;\n        orderInfo.closeTime = block.timestamp;\n        orderInfo.status = 1;\n    }\n\n    // \n    function tradeLimitSwap(\n        bytes32 _orderID,\n        uint256 _blockIndex\n    ) \n        public \n        override \n        onlyOwner\n        returns (\n            bool,\n            address,\n            uint256, \n            uint256, \n            string memory, \n            uint256\n        )\n    {\n        SwapLimitOrder storage orderInfo = allLimitOrderHash[_orderID];\n        require(orderInfo.status == 2, \"tradeLimitSwap: ORDER_STATUS_WRONG\");\n        (uint256 tradePrice,uint256 priceTime) = getLastPrice(orderInfo.symbol,_blockIndex);\n        require(orderInfo.openTime < priceTime, \"tradeLimitSwap: ORDER_TIME_WRONG\");\n        bool success = SwapTradeLibrary.isTradeLimitSwap(orderInfo.newPrice,orderInfo.openPrice,tradePrice);\n        if(success == true){\n            orderInfo.closeTime = priceTime;\n            orderInfo.status = 3;\n            allOrderHash[_orderID] = SwapOrder({\n                userAddr: orderInfo.userAddr,\n                symbol: orderInfo.symbol,\n                tokenAmount: orderInfo.tokenAmount,\n                lever: orderInfo.lever,\n                bsFlag: orderInfo.bsFlag,\n                openPrice: orderInfo.openPrice,\n                openTime: orderInfo.closeTime,\n                pLimitPrice: orderInfo.pLimitPrice,\n                lLimitPrice: orderInfo.lLimitPrice,\n                closePrice: 0,\n                closeTime: 0\n            });\n            allOrderUser[orderInfo.userAddr].push(_orderID);            \n        }\n        return(\n            success,\n            orderInfo.userAddr,\n            orderInfo.tokenAmount,\n            orderInfo.openPrice,\n            orderInfo.symbol,\n            orderInfo.bsFlag\n        );\n    }    \n\n    // \n    function openMarketSwap(\n        address _userAddr,\n        string memory _symbol,\n        uint256 _tokenAmount,\n        uint256 _lever,\n        uint256 _bsFlag,\n        uint256 _pLimitPrice,\n        uint256 _lLimitPrice, \n        uint256 _maxPrice\n    ) \n        public override onlyOwner returns (bytes32, uint256) {\n        uint256[3] memory priceInfo;\n        (priceInfo[0],priceInfo[1], priceInfo[2]) = getNewPrice(_symbol);\n        // if(_bsFlag == 1){\n        //     require(priceInfo[0]>=_maxPrice, 'openMarketSwap: SLIPPAGE_TOO_HIGH');\n        // }else{\n        //     require(priceInfo[0]<=_maxPrice, 'openMarketSwap: SLIPPAGE_TOO_HIGH');\n        // }\n        if(priceInfo[2].add(validBlocks) < block.number){\n            priceInfo[0] = 0;\n            priceInfo[1] = 0;\n        }\n        bytes32 orderID = keccak256(abi.encode(block.number,gasleft(),_userAddr,_symbol,_tokenAmount,_lever,_bsFlag));\n        allOrderHash[orderID] = SwapOrder({\n            userAddr: _userAddr,\n            symbol: _symbol,\n            tokenAmount: _tokenAmount,\n            lever: _lever,\n            bsFlag: _bsFlag,\n            openPrice: priceInfo[0],\n            openTime: priceInfo[1],\n            pLimitPrice: _pLimitPrice,\n            lLimitPrice: _lLimitPrice,\n            closePrice: 0,\n            closeTime: 0\n        });\n        allOrderUser[_userAddr].push(orderID);\n        return (orderID,priceInfo[0]);\n    }\n\n    // \n    function closeMarketSwap(address _userAddr,bytes32 _orderID) \n        public override onlyOwner\n        returns (uint256 closePrice,uint256 plFlag,uint256 bsFlag, uint256 plAmount,uint256 tokenAmount, string memory symbol)\n    {\n        SwapOrder storage orderInfo = allOrderHash[_orderID];\n        symbol = orderInfo.symbol;\n        bsFlag = orderInfo.bsFlag;\n        require(orderInfo.userAddr == _userAddr, \"closeSwap: USERADDR_WRONG\");\n        require(orderInfo.closePrice == 0, \"closeSwap: ORDER_STATUS_WRONG\");\n        require(orderInfo.openPrice != 0, \"closeSwap: ORDER_STATUS_WRONG\");\n        uint256 priceTime = 0;\n        uint256 blockIndex = 0;\n        (closePrice,priceTime, blockIndex) = getNewPrice(orderInfo.symbol);\n        require(orderInfo.openTime < priceTime, \"closeSwap: ORDER_TIME_WRONG\");\n        if(blockIndex.add(validBlocks) >= block.number) {\n            tokenAmount = orderInfo.tokenAmount;\n            (plFlag, plAmount) = SwapTradeLibrary.calcSwapOrderPL(orderInfo.bsFlag,orderInfo.tokenAmount,orderInfo.lever,orderInfo.openPrice,closePrice);\n            orderInfo.closePrice = closePrice;\n            orderInfo.closeTime = priceTime;\n        }else{\n            closePrice = 0;\n        }\n    }\n\n    // \n    function closeLimitSwap(\n        bytes32 _orderID,\n        uint256 _blockIndex\n    ) \n        public \n        override \n        onlyOwner\n        returns (\n            bool success,\n            address userAddr,\n            uint256 closePrice,\n            uint256 closeType,\n            uint256 plFlag, \n            uint256 bsFlag, \n            uint256 plAmount,\n            uint256 tokenAmount, \n            string memory symbol\n        )\n    {\n        SwapOrder storage orderInfo = allOrderHash[_orderID];\n        require(orderInfo.closePrice == 0, \"closeSwap: ORDER_STATUS_WRONG\");\n        (uint256 lastPrice,uint256 priceTime) = getLastPrice(orderInfo.symbol,_blockIndex);\n        require(orderInfo.openTime < priceTime, \"tradeLimitSwap: ORDER_TIME_WRONG\");\n        (success,closePrice,closeType) = SwapTradeLibrary.calcSwapOrderCloseInfo(orderInfo.bsFlag,orderInfo.openPrice,orderInfo.lever,orderInfo.tokenAmount,orderInfo.pLimitPrice,orderInfo.lLimitPrice,lastPrice);\n        if(success == true){\n            symbol = orderInfo.symbol;\n            bsFlag = orderInfo.bsFlag;\n            tokenAmount = orderInfo.tokenAmount;\n            userAddr = orderInfo.userAddr;\n            (plFlag, plAmount) = SwapTradeLibrary.calcSwapOrderPL(orderInfo.bsFlag,orderInfo.tokenAmount,orderInfo.lever,orderInfo.openPrice,closePrice);\n            orderInfo.closePrice = closePrice;\n            orderInfo.closeTime = priceTime;\n        }\n    }    \n    // \n    function updateSwapByPrice(address _userAddr,bytes32 _orderID,uint256 _pLimitPrice,uint256 _lLimitPrice) \n        public override onlyOwner \n        returns (uint256 pLimitRate,uint256 lLimitRate) {\n        SwapOrder storage orderInfo = allOrderHash[_orderID];\n        require(orderInfo.userAddr == _userAddr, \"closeSwap: USERADDR_WRONG\");\n        require(orderInfo.closePrice == 0, \"closeSwap: ORDER_STATUS_WRONG\");\n        if (orderInfo.bsFlag == 1) {\n            _updateLimitPrice(orderInfo.openPrice, _pLimitPrice, _lLimitPrice);\n        } else {\n            _updateLimitPrice(orderInfo.openPrice, _pLimitPrice, _lLimitPrice);\n        }\n        pLimitRate = SwapTradeLibrary.calcSwapOrderPRate(orderInfo.bsFlag,orderInfo.openPrice,_pLimitPrice);\n        lLimitRate = SwapTradeLibrary.calcSwapOrderLRate(orderInfo.bsFlag,orderInfo.openPrice,_lLimitPrice);\n        orderInfo.pLimitPrice = _pLimitPrice;\n        orderInfo.lLimitPrice = _lLimitPrice;\n    }\n\n    function _updateLimitPrice(uint256 _openPrice, uint256 _pLimitPrice, uint256 _lLimitPrice) internal pure {\n        if (_pLimitPrice > 0) {\n            require(_pLimitPrice > 0 && _pLimitPrice < _openPrice, \"closeSwap: ORDER_PLIMITPRICE_WRONG\");                 \n        }\n        if (_lLimitPrice > 0) {\n            require(_lLimitPrice > 0 && _lLimitPrice > _openPrice, \"closeSwap: ORDER_LLIMITPRICE_WRONG\");   \n        }\n    }\n\n    // \n    function updateSwapByRate(address _userAddr,bytes32 _orderID,uint256 _pLimitRate,uint256 _lLimitRate) \n        public override onlyOwner \n        returns (uint256 pLimitPrice,uint256 lLimitPrice) {\n        SwapOrder storage orderInfo = allOrderHash[_orderID];\n        require(orderInfo.userAddr == _userAddr, \"closeSwap: USERADDR_WRONG\");\n        require(orderInfo.closePrice == 0, \"closeSwap: ORDER_STATUS_WRONG\");\n        pLimitPrice = SwapTradeLibrary.calcSwapOrderPPrice(orderInfo.bsFlag,orderInfo.openPrice,_pLimitRate);\n        lLimitPrice = SwapTradeLibrary.calcSwapOrderLPrice(orderInfo.bsFlag,orderInfo.openPrice,_lLimitRate);\n        orderInfo.pLimitPrice = pLimitPrice;\n        orderInfo.lLimitPrice = lLimitPrice;\n    }\n\n    function setValidBlocks(uint256 _validBlocks) public override onlyOwner {\n        validBlocks = _validBlocks;\n    }\n\n    // \n    function setOrderPrice(bytes32 _orderID) \n        public \n        override \n        onlyOwner \n        returns(\n            address, \n            uint256, \n            string memory, \n            uint256, \n            uint256\n        ) \n    {\n        SwapOrder storage orderInfo = allOrderHash[_orderID];\n        require(orderInfo.openPrice == 0, \"setOrderPrice: ALREADY_SET\");\n        (uint256 openPrice, uint256 priceTime, ) = getNewPrice(orderInfo.symbol);\n        orderInfo.openPrice = openPrice;\n        orderInfo.openTime = priceTime;\n        return(\n            orderInfo.userAddr,\n            openPrice,\n            orderInfo.symbol,\n            orderInfo.bsFlag,\n            orderInfo.tokenAmount\n        );\n    }  \n\n    function getNewPrice(string memory _symbol) \n        public view \n        returns (uint256 newPrice,uint256 priceTime, uint256 blockIndex){\n        (blockIndex, newPrice, priceTime) = QuoteFactory(quoteFactoryAddr).getNewPrice(_symbol);\n    }\n\n    function getLastPrice(string memory _symbol,uint256 _blockIndex) \n        public \n        view \n        returns (uint256 newPrice,uint256 priceTime){\n        (, newPrice,priceTime) = QuoteFactory(quoteFactoryAddr).getLastPrice(_symbol,_blockIndex);\n        // require(newPrice > 0, \"getLastPrice: LAST_PRICE_WRONG\");\n    }\n\n    function isValidating(bytes32[] memory _orderIDs) public view override returns(bool status, uint256 blockIndex) {\n        SwapOrder storage orderInfo = allOrderHash[_orderIDs[0]];\n        (, , uint256 _blockIndex) = getNewPrice(orderInfo.symbol);\n        if(_blockIndex.add(validBlocks) > block.number){\n            status = true;\n            blockIndex = _blockIndex;\n        }else{\n            status = false;\n        }\n    }\n}\n",
  "sourcePath": "/Users/tong/Projects/drep-project/teemo-private/contracts/trade/SwapTrade.sol",
  "compiler": {
    "name": "solc",
    "version": "0.6.12+commit.27d51765.Emscripten.clang"
  },
  "schemaVersion": "3.3.2",
  "updatedAt": "2021-01-25T05:45:37.795Z",
  "devdoc": {
    "kind": "dev",
    "methods": {
      "owner()": {
        "details": "Returns the address of the current owner."
      },
      "renounceOwnership()": {
        "details": "Leaves the contract without owner. It will not be possible to call `onlyOwner` functions anymore. Can only be called by the current owner. NOTE: Renouncing ownership will leave the contract without an owner, thereby removing any functionality that is only available to the owner."
      },
      "transferOwnership(address)": {
        "details": "Transfers ownership of the contract to a new account (`newOwner`). Can only be called by the current owner."
      }
    },
    "version": 1
  },
  "userdoc": {
    "kind": "user",
    "methods": {},
    "version": 1
  }
}