{
  "contractName": "SwapTrade",
  "abi": [
    {
      "anonymous": false,
      "inputs": [
        {
          "indexed": true,
          "internalType": "address",
          "name": "previousOwner",
          "type": "address"
        },
        {
          "indexed": true,
          "internalType": "address",
          "name": "newOwner",
          "type": "address"
        }
      ],
      "name": "OwnershipTransferred",
      "type": "event"
    },
    {
      "inputs": [
        {
          "internalType": "bytes32",
          "name": "",
          "type": "bytes32"
        }
      ],
      "name": "allLimitOrderHash",
      "outputs": [
        {
          "internalType": "address",
          "name": "userAddr",
          "type": "address"
        },
        {
          "internalType": "string",
          "name": "symbol",
          "type": "string"
        },
        {
          "internalType": "uint256",
          "name": "tokenAmount",
          "type": "uint256"
        },
        {
          "internalType": "uint256",
          "name": "lever",
          "type": "uint256"
        },
        {
          "internalType": "uint256",
          "name": "bsFlag",
          "type": "uint256"
        },
        {
          "internalType": "uint256",
          "name": "openPrice",
          "type": "uint256"
        },
        {
          "internalType": "uint256",
          "name": "openTime",
          "type": "uint256"
        },
        {
          "internalType": "uint256",
          "name": "newPrice",
          "type": "uint256"
        },
        {
          "internalType": "uint256",
          "name": "pLimitPrice",
          "type": "uint256"
        },
        {
          "internalType": "uint256",
          "name": "lLimitPrice",
          "type": "uint256"
        },
        {
          "internalType": "uint256",
          "name": "closeTime",
          "type": "uint256"
        },
        {
          "internalType": "uint256",
          "name": "status",
          "type": "uint256"
        }
      ],
      "stateMutability": "view",
      "type": "function"
    },
    {
      "inputs": [
        {
          "internalType": "address",
          "name": "",
          "type": "address"
        },
        {
          "internalType": "uint256",
          "name": "",
          "type": "uint256"
        }
      ],
      "name": "allLimitOrderUser",
      "outputs": [
        {
          "internalType": "bytes32",
          "name": "",
          "type": "bytes32"
        }
      ],
      "stateMutability": "view",
      "type": "function"
    },
    {
      "inputs": [
        {
          "internalType": "bytes32",
          "name": "",
          "type": "bytes32"
        }
      ],
      "name": "allOrderHash",
      "outputs": [
        {
          "internalType": "address",
          "name": "userAddr",
          "type": "address"
        },
        {
          "internalType": "string",
          "name": "symbol",
          "type": "string"
        },
        {
          "internalType": "uint256",
          "name": "tokenAmount",
          "type": "uint256"
        },
        {
          "internalType": "uint256",
          "name": "lever",
          "type": "uint256"
        },
        {
          "internalType": "uint256",
          "name": "bsFlag",
          "type": "uint256"
        },
        {
          "internalType": "uint256",
          "name": "openPrice",
          "type": "uint256"
        },
        {
          "internalType": "uint256",
          "name": "openTime",
          "type": "uint256"
        },
        {
          "internalType": "uint256",
          "name": "pLimitPrice",
          "type": "uint256"
        },
        {
          "internalType": "uint256",
          "name": "lLimitPrice",
          "type": "uint256"
        },
        {
          "internalType": "uint256",
          "name": "closePrice",
          "type": "uint256"
        },
        {
          "internalType": "uint256",
          "name": "closeTime",
          "type": "uint256"
        }
      ],
      "stateMutability": "view",
      "type": "function"
    },
    {
      "inputs": [
        {
          "internalType": "address",
          "name": "",
          "type": "address"
        },
        {
          "internalType": "uint256",
          "name": "",
          "type": "uint256"
        }
      ],
      "name": "allOrderUser",
      "outputs": [
        {
          "internalType": "bytes32",
          "name": "",
          "type": "bytes32"
        }
      ],
      "stateMutability": "view",
      "type": "function"
    },
    {
      "inputs": [],
      "name": "owner",
      "outputs": [
        {
          "internalType": "address",
          "name": "",
          "type": "address"
        }
      ],
      "stateMutability": "view",
      "type": "function"
    },
    {
      "inputs": [],
      "name": "poolAddr",
      "outputs": [
        {
          "internalType": "address",
          "name": "",
          "type": "address"
        }
      ],
      "stateMutability": "view",
      "type": "function"
    },
    {
      "inputs": [],
      "name": "quoteFactoryAddr",
      "outputs": [
        {
          "internalType": "address",
          "name": "",
          "type": "address"
        }
      ],
      "stateMutability": "view",
      "type": "function"
    },
    {
      "inputs": [],
      "name": "renounceOwnership",
      "outputs": [],
      "stateMutability": "nonpayable",
      "type": "function"
    },
    {
      "inputs": [],
      "name": "tokenAddr",
      "outputs": [
        {
          "internalType": "address",
          "name": "",
          "type": "address"
        }
      ],
      "stateMutability": "view",
      "type": "function"
    },
    {
      "inputs": [
        {
          "internalType": "address",
          "name": "newOwner",
          "type": "address"
        }
      ],
      "name": "transferOwnership",
      "outputs": [],
      "stateMutability": "nonpayable",
      "type": "function"
    },
    {
      "inputs": [
        {
          "internalType": "address",
          "name": "_tokenAddr",
          "type": "address"
        },
        {
          "internalType": "address",
          "name": "_poolAddr",
          "type": "address"
        }
      ],
      "name": "initialize",
      "outputs": [],
      "stateMutability": "nonpayable",
      "type": "function"
    },
    {
      "inputs": [
        {
          "internalType": "address",
          "name": "_userAddress",
          "type": "address"
        }
      ],
      "name": "orderLength",
      "outputs": [
        {
          "internalType": "uint256",
          "name": "",
          "type": "uint256"
        }
      ],
      "stateMutability": "view",
      "type": "function"
    },
    {
      "inputs": [
        {
          "internalType": "address",
          "name": "_userAddress",
          "type": "address"
        }
      ],
      "name": "limitOrderLength",
      "outputs": [
        {
          "internalType": "uint256",
          "name": "",
          "type": "uint256"
        }
      ],
      "stateMutability": "view",
      "type": "function"
    },
    {
      "inputs": [
        {
          "internalType": "address",
          "name": "_userAddress",
          "type": "address"
        },
        {
          "internalType": "uint8",
          "name": "status",
          "type": "uint8"
        }
      ],
      "name": "getAllOrder",
      "outputs": [
        {
          "internalType": "bytes32[]",
          "name": "orderIds",
          "type": "bytes32[]"
        },
        {
          "components": [
            {
              "internalType": "address",
              "name": "userAddr",
              "type": "address"
            },
            {
              "internalType": "string",
              "name": "symbol",
              "type": "string"
            },
            {
              "internalType": "uint256",
              "name": "tokenAmount",
              "type": "uint256"
            },
            {
              "internalType": "uint256",
              "name": "lever",
              "type": "uint256"
            },
            {
              "internalType": "uint256",
              "name": "bsFlag",
              "type": "uint256"
            },
            {
              "internalType": "uint256",
              "name": "openPrice",
              "type": "uint256"
            },
            {
              "internalType": "uint256",
              "name": "openTime",
              "type": "uint256"
            },
            {
              "internalType": "uint256",
              "name": "pLimitPrice",
              "type": "uint256"
            },
            {
              "internalType": "uint256",
              "name": "lLimitPrice",
              "type": "uint256"
            },
            {
              "internalType": "uint256",
              "name": "closePrice",
              "type": "uint256"
            },
            {
              "internalType": "uint256",
              "name": "closeTime",
              "type": "uint256"
            }
          ],
          "internalType": "struct SwapTrade.SwapOrder[]",
          "name": "orders",
          "type": "tuple[]"
        }
      ],
      "stateMutability": "view",
      "type": "function"
    },
    {
      "inputs": [
        {
          "internalType": "address",
          "name": "_userAddress",
          "type": "address"
        },
        {
          "internalType": "uint8",
          "name": "status",
          "type": "uint8"
        }
      ],
      "name": "getAllLimitOrder",
      "outputs": [
        {
          "internalType": "bytes32[]",
          "name": "orderIds",
          "type": "bytes32[]"
        },
        {
          "components": [
            {
              "internalType": "address",
              "name": "userAddr",
              "type": "address"
            },
            {
              "internalType": "string",
              "name": "symbol",
              "type": "string"
            },
            {
              "internalType": "uint256",
              "name": "tokenAmount",
              "type": "uint256"
            },
            {
              "internalType": "uint256",
              "name": "lever",
              "type": "uint256"
            },
            {
              "internalType": "uint256",
              "name": "bsFlag",
              "type": "uint256"
            },
            {
              "internalType": "uint256",
              "name": "openPrice",
              "type": "uint256"
            },
            {
              "internalType": "uint256",
              "name": "openTime",
              "type": "uint256"
            },
            {
              "internalType": "uint256",
              "name": "newPrice",
              "type": "uint256"
            },
            {
              "internalType": "uint256",
              "name": "pLimitPrice",
              "type": "uint256"
            },
            {
              "internalType": "uint256",
              "name": "lLimitPrice",
              "type": "uint256"
            },
            {
              "internalType": "uint256",
              "name": "closeTime",
              "type": "uint256"
            },
            {
              "internalType": "uint256",
              "name": "status",
              "type": "uint256"
            }
          ],
          "internalType": "struct SwapTrade.SwapLimitOrder[]",
          "name": "orders",
          "type": "tuple[]"
        }
      ],
      "stateMutability": "view",
      "type": "function"
    },
    {
      "inputs": [
        {
          "internalType": "address",
          "name": "_userAddr",
          "type": "address"
        },
        {
          "internalType": "string",
          "name": "_symbol",
          "type": "string"
        },
        {
          "internalType": "uint256",
          "name": "_limitPrice",
          "type": "uint256"
        },
        {
          "internalType": "uint256",
          "name": "_tokenAmount",
          "type": "uint256"
        },
        {
          "internalType": "uint256",
          "name": "_lever",
          "type": "uint256"
        },
        {
          "internalType": "uint256",
          "name": "_bsFlag",
          "type": "uint256"
        },
        {
          "internalType": "uint256",
          "name": "_pLimitPrice",
          "type": "uint256"
        },
        {
          "internalType": "uint256",
          "name": "_lLimitPrice",
          "type": "uint256"
        }
      ],
      "name": "openLimitSwap",
      "outputs": [
        {
          "internalType": "bytes32",
          "name": "",
          "type": "bytes32"
        },
        {
          "internalType": "uint256",
          "name": "",
          "type": "uint256"
        }
      ],
      "stateMutability": "nonpayable",
      "type": "function"
    },
    {
      "inputs": [
        {
          "internalType": "address",
          "name": "_userAddr",
          "type": "address"
        },
        {
          "internalType": "bytes32",
          "name": "_orderID",
          "type": "bytes32"
        }
      ],
      "name": "cancelLimitSwap",
      "outputs": [
        {
          "internalType": "uint256",
          "name": "tokenAmount",
          "type": "uint256"
        }
      ],
      "stateMutability": "nonpayable",
      "type": "function"
    },
    {
      "inputs": [
        {
          "internalType": "bytes32",
          "name": "_orderID",
          "type": "bytes32"
        },
        {
          "internalType": "uint256",
          "name": "_blockIndex",
          "type": "uint256"
        }
      ],
      "name": "tradeLimitSwap",
      "outputs": [
        {
          "internalType": "bool",
          "name": "success",
          "type": "bool"
        },
        {
          "internalType": "address",
          "name": "userAddr",
          "type": "address"
        },
        {
          "internalType": "uint256",
          "name": "tokenAmount",
          "type": "uint256"
        }
      ],
      "stateMutability": "nonpayable",
      "type": "function"
    },
    {
      "inputs": [
        {
          "internalType": "address",
          "name": "_userAddr",
          "type": "address"
        },
        {
          "internalType": "string",
          "name": "_symbol",
          "type": "string"
        },
        {
          "internalType": "uint256",
          "name": "_tokenAmount",
          "type": "uint256"
        },
        {
          "internalType": "uint256",
          "name": "_lever",
          "type": "uint256"
        },
        {
          "internalType": "uint256",
          "name": "_bsFlag",
          "type": "uint256"
        },
        {
          "internalType": "uint256",
          "name": "_pLimitPrice",
          "type": "uint256"
        },
        {
          "internalType": "uint256",
          "name": "_lLimitPrice",
          "type": "uint256"
        },
        {
          "internalType": "uint256",
          "name": "_maxPrice",
          "type": "uint256"
        }
      ],
      "name": "openMarketSwap",
      "outputs": [
        {
          "internalType": "bytes32",
          "name": "",
          "type": "bytes32"
        },
        {
          "internalType": "uint256",
          "name": "",
          "type": "uint256"
        }
      ],
      "stateMutability": "nonpayable",
      "type": "function"
    },
    {
      "inputs": [
        {
          "internalType": "address",
          "name": "_userAddr",
          "type": "address"
        },
        {
          "internalType": "bytes32",
          "name": "_orderID",
          "type": "bytes32"
        }
      ],
      "name": "closeMarketSwap",
      "outputs": [
        {
          "internalType": "uint256",
          "name": "closePrice",
          "type": "uint256"
        },
        {
          "internalType": "uint256",
          "name": "plFlag",
          "type": "uint256"
        },
        {
          "internalType": "uint256",
          "name": "plAmount",
          "type": "uint256"
        },
        {
          "internalType": "uint256",
          "name": "tokenAmount",
          "type": "uint256"
        }
      ],
      "stateMutability": "nonpayable",
      "type": "function"
    },
    {
      "inputs": [
        {
          "internalType": "bytes32",
          "name": "_orderID",
          "type": "bytes32"
        },
        {
          "internalType": "uint256",
          "name": "_blockIndex",
          "type": "uint256"
        }
      ],
      "name": "closeLimitSwap",
      "outputs": [
        {
          "internalType": "bool",
          "name": "success",
          "type": "bool"
        },
        {
          "internalType": "address",
          "name": "userAddr",
          "type": "address"
        },
        {
          "internalType": "uint256",
          "name": "closePrice",
          "type": "uint256"
        },
        {
          "internalType": "uint256",
          "name": "closeType",
          "type": "uint256"
        },
        {
          "internalType": "uint256",
          "name": "plFlag",
          "type": "uint256"
        },
        {
          "internalType": "uint256",
          "name": "plAmount",
          "type": "uint256"
        },
        {
          "internalType": "uint256",
          "name": "tokenAmount",
          "type": "uint256"
        }
      ],
      "stateMutability": "nonpayable",
      "type": "function"
    },
    {
      "inputs": [
        {
          "internalType": "address",
          "name": "_userAddr",
          "type": "address"
        },
        {
          "internalType": "bytes32",
          "name": "_orderID",
          "type": "bytes32"
        },
        {
          "internalType": "uint256",
          "name": "_pLimitPrice",
          "type": "uint256"
        },
        {
          "internalType": "uint256",
          "name": "_lLimitPrice",
          "type": "uint256"
        }
      ],
      "name": "updateSwapByPrice",
      "outputs": [
        {
          "internalType": "uint256",
          "name": "pLimitRate",
          "type": "uint256"
        },
        {
          "internalType": "uint256",
          "name": "lLimitRate",
          "type": "uint256"
        }
      ],
      "stateMutability": "nonpayable",
      "type": "function"
    },
    {
      "inputs": [
        {
          "internalType": "address",
          "name": "_userAddr",
          "type": "address"
        },
        {
          "internalType": "bytes32",
          "name": "_orderID",
          "type": "bytes32"
        },
        {
          "internalType": "uint256",
          "name": "_pLimitRate",
          "type": "uint256"
        },
        {
          "internalType": "uint256",
          "name": "_lLimitRate",
          "type": "uint256"
        }
      ],
      "name": "updateSwapByRate",
      "outputs": [
        {
          "internalType": "uint256",
          "name": "pLimitPrice",
          "type": "uint256"
        },
        {
          "internalType": "uint256",
          "name": "lLimitPrice",
          "type": "uint256"
        }
      ],
      "stateMutability": "nonpayable",
      "type": "function"
    },
    {
      "inputs": [
        {
          "internalType": "string",
          "name": "_symbol",
          "type": "string"
        }
      ],
      "name": "getNewPrice",
      "outputs": [
        {
          "internalType": "uint256",
          "name": "newPrice",
          "type": "uint256"
        },
        {
          "internalType": "uint256",
          "name": "priceTime",
          "type": "uint256"
        }
      ],
      "stateMutability": "view",
      "type": "function"
    },
    {
      "inputs": [
        {
          "internalType": "string",
          "name": "_symbol",
          "type": "string"
        },
        {
          "internalType": "uint256",
          "name": "_blockIndex",
          "type": "uint256"
        }
      ],
      "name": "getLastPrice",
      "outputs": [
        {
          "internalType": "uint256",
          "name": "newPrice",
          "type": "uint256"
        },
        {
          "internalType": "uint256",
          "name": "priceTime",
          "type": "uint256"
        }
      ],
      "stateMutability": "view",
      "type": "function"
    }
  ],
  "bytecode": "0x60806040523480156200001157600080fd5b50600062000024620000c860201b60201c565b9050806000806101000a81548173ffffffffffffffffffffffffffffffffffffffff021916908373ffffffffffffffffffffffffffffffffffffffff1602179055508073ffffffffffffffffffffffffffffffffffffffff16600073ffffffffffffffffffffffffffffffffffffffff167f8be0079c531659141344cd1fd0a4f28419497f9722a3daafe3b4186f6b6457e060405160405180910390a350620000d0565b600033905090565b61504180620000e06000396000f3fe608060405234801561001057600080fd5b50600436106101735760003560e01c8063715018a6116100de57806395e71c5011610097578063e1c873e311610071578063e1c873e31461050d578063e8084a871461053d578063f2fde38b1461056e578063fd0ceefb1461058a57610173565b806395e71c5014610483578063afcfb11a146104be578063d4a06b87146104dc57610173565b8063715018a6146103995780637593ce72146103a357806384433e6e146103d357806386239ca7146104035780638da5cb5b14610434578063908219c61461045257610173565b806339cbd01f1161013057806339cbd01f146102a55780633d3f2517146102df578063485cc9551461031157806355e5d8dc1461032d5780635fbe4d1d1461035d5780636046cd991461037b57610173565b80631e2a565b1461017857806322dbfdca146101ab57806326b3e792146101e157806327428feb1461021257806333a7eb5b146102435780633477255714610274575b600080fd5b610192600480360381019061018d9190613bcb565b6105ba565b6040516101a29493929190614d87565b60405180910390f35b6101c560048036038101906101c09190613dd5565b61083d565b6040516101d89796959493929190614a08565b60405180910390f35b6101fb60048036038101906101f69190613c07565b610ae3565b604051610209929190614ce8565b60405180910390f35b61022c60048036038101906102279190613d70565b610e0c565b60405161023a929190614963565b60405180910390f35b61025d60048036038101906102589190613c6a565b611354565b60405161026b929190614a92565b60405180910390f35b61028e60048036038101906102899190613c07565b61165a565b60405161029c929190614ce8565b60405180910390f35b6102bf60048036038101906102ba9190613dac565b611828565b6040516102d69b9a999897969594939291906147f0565b60405180910390f35b6102f960048036038101906102f49190613dd5565b61193a565b604051610308939291906149d1565b60405180910390f35b61032b60048036038101906103269190613b8f565b611e34565b005b61034760048036038101906103429190613b3d565b612031565b6040516103549190614ccd565b60405180910390f35b61036561207d565b60405161037291906147d5565b60405180910390f35b6103836120a3565b60405161039091906147d5565b60405180910390f35b6103a16120c9565b005b6103bd60048036038101906103b89190613d34565b61221c565b6040516103ca9190614a77565b60405180910390f35b6103ed60048036038101906103e89190613d34565b61224a565b6040516103fa9190614a77565b60405180910390f35b61041d60048036038101906104189190613d70565b612278565b60405161042b92919061499a565b60405180910390f35b61043c6127a6565b60405161044991906147d5565b60405180910390f35b61046c60048036038101906104679190613c6a565b6127cf565b60405161047a929190614a92565b60405180910390f35b61049d60048036038101906104989190613dac565b612b7b565b6040516104b59c9b9a999897969594939291906148a2565b60405180910390f35b6104c6612c93565b6040516104d391906147d5565b60405180910390f35b6104f660048036038101906104f19190613e52565b612cb9565b604051610504929190614ce8565b60405180910390f35b61052760048036038101906105229190613b3d565b612dbe565b6040516105349190614ccd565b60405180910390f35b61055760048036038101906105529190613e11565b612e0a565b604051610565929190614ce8565b60405180910390f35b61058860048036038101906105839190613b3d565b612ec8565b005b6105a4600480360381019061059f9190613bcb565b61308a565b6040516105b19190614ccd565b60405180910390f35b6000806000806105c8613232565b73ffffffffffffffffffffffffffffffffffffffff1660008054906101000a900473ffffffffffffffffffffffffffffffffffffffff1673ffffffffffffffffffffffffffffffffffffffff1614610655576040517f08c379a000000000000000000000000000000000000000000000000000000000815260040161064c90614c6d565b60405180910390fd5b60006004600087815260200190815260200160002090508673ffffffffffffffffffffffffffffffffffffffff168160000160009054906101000a900473ffffffffffffffffffffffffffffffffffffffff1673ffffffffffffffffffffffffffffffffffffffff16146106fe576040517f08c379a00000000000000000000000000000000000000000000000000000000081526004016106f590614c2d565b60405180910390fd5b6000816009015414610745576040517f08c379a000000000000000000000000000000000000000000000000000000000815260040161073c90614bcd565b60405180910390fd5b60006107ec826001018054600181600116156101000203166002900480601f0160208091040260200160405190810160405280929190818152602001828054600181600116156101000203166002900480156107e25780601f106107b7576101008083540402835291602001916107e2565b820191906000526020600020905b8154815290600101906020018083116107c557829003601f168201915b5050505050612e0a565b80925081975050508160020154925061081882600401548360020154846003015485600501548a61323a565b80955081965050508582600901819055508082600a0181905550505092959194509250565b6000806000806000806000610850613232565b73ffffffffffffffffffffffffffffffffffffffff1660008054906101000a900473ffffffffffffffffffffffffffffffffffffffff1673ffffffffffffffffffffffffffffffffffffffff16146108dd576040517f08c379a00000000000000000000000000000000000000000000000000000000081526004016108d490614c6d565b60405180910390fd5b6000600460008b81526020019081526020016000209050600081600901541461093b576040517f08c379a000000000000000000000000000000000000000000000000000000000815260040161093290614bcd565b60405180910390fd5b6000806109e4836001018054600181600116156101000203166002900480601f0160208091040260200160405190810160405280929190818152602001828054600181600116156101000203166002900480156109d95780601f106109ae576101008083540402835291602001916109d9565b820191906000526020600020905b8154815290600101906020018083116109bc57829003601f168201915b50505050508c612cb9565b9150915080836006015410610a2e576040517f08c379a0000000000000000000000000000000000000000000000000000000008152600401610a2590614bed565b60405180910390fd5b610a55836004015484600501548560030154866002015487600701548860080154886133c4565b809950819a50829c50505050600115158a15151415610ad457826002015493508260000160009054906101000a900473ffffffffffffffffffffffffffffffffffffffff169850610ab983600401548460020154856003015486600501548c61323a565b80965081975050508783600901819055508083600a01819055505b50505092959891949750929550565b600080610aee613232565b73ffffffffffffffffffffffffffffffffffffffff1660008054906101000a900473ffffffffffffffffffffffffffffffffffffffff1673ffffffffffffffffffffffffffffffffffffffff1614610b7b576040517f08c379a0000000000000000000000000000000000000000000000000000000008152600401610b7290614c6d565b60405180910390fd5b60006004600087815260200190815260200160002090508673ffffffffffffffffffffffffffffffffffffffff168160000160009054906101000a900473ffffffffffffffffffffffffffffffffffffffff1673ffffffffffffffffffffffffffffffffffffffff1614610c24576040517f08c379a0000000000000000000000000000000000000000000000000000000008152600401610c1b90614c2d565b60405180910390fd5b6000816009015414610c6b576040517f08c379a0000000000000000000000000000000000000000000000000000000008152600401610c6290614bcd565b60405180910390fd5b600181600401541415610d2157600085118015610c8b5750806005015485105b610cca576040517f08c379a0000000000000000000000000000000000000000000000000000000008152600401610cc190614b0d565b60405180910390fd5b600084118015610cdd5750806005015484115b610d1c576040517f08c379a0000000000000000000000000000000000000000000000000000000008152600401610d1390614b4d565b60405180910390fd5b610dc6565b600085118015610d345750806005015485115b610d73576040517f08c379a0000000000000000000000000000000000000000000000000000000008152600401610d6a90614b0d565b60405180910390fd5b600084118015610d865750806005015484105b610dc5576040517f08c379a0000000000000000000000000000000000000000000000000000000008152600401610dbc90614b4d565b60405180910390fd5b5b610dd98160040154826005015487613461565b9250610dee8160040154826005015486613461565b91508481600701819055508381600801819055505094509492505050565b606080600760008573ffffffffffffffffffffffffffffffffffffffff1673ffffffffffffffffffffffffffffffffffffffff168152602001908152602001600020805480602002602001604051908101604052809291908181526020018280548015610e9857602002820191906000526020600020905b815481526020019060010190808311610e84575b505050505091506000805b83518110156110a857610eb46138c5565b60066000868481518110610ec457fe5b60200260200101518152602001908152602001600020604051806101800160405290816000820160009054906101000a900473ffffffffffffffffffffffffffffffffffffffff1673ffffffffffffffffffffffffffffffffffffffff1673ffffffffffffffffffffffffffffffffffffffff168152602001600182018054600181600116156101000203166002900480601f016020809104026020016040519081016040528092919081815260200182805460018160011615610100020316600290048015610fd55780601f10610faa57610100808354040283529160200191610fd5565b820191906000526020600020905b815481529060010190602001808311610fb857829003601f168201915b505050505081526020016002820154815260200160038201548152602001600482015481526020016005820154815260200160068201548152602001600782015481526020016008820154815260200160098201548152602001600a8201548152602001600b82015481525050905060008660ff16148061105d57508061016001518660ff16145b8061108c575060048660ff1614801561108b57506001816101600151148061108a57506003816101600151145b5b5b1561109a5782806001019350505b508080600101915050610ea3565b508067ffffffffffffffff811180156110c057600080fd5b506040519080825280602002602001820160405280156110fa57816020015b6110e76138c5565b8152602001906001900390816110df5790505b5091506000805b845181101561134a576111126138c5565b6006600087848151811061112257fe5b60200260200101518152602001908152602001600020604051806101800160405290816000820160009054906101000a900473ffffffffffffffffffffffffffffffffffffffff1673ffffffffffffffffffffffffffffffffffffffff1673ffffffffffffffffffffffffffffffffffffffff168152602001600182018054600181600116156101000203166002900480601f0160208091040260200160405190810160405280929190818152602001828054600181600116156101000203166002900480156112335780601f1061120857610100808354040283529160200191611233565b820191906000526020600020905b81548152906001019060200180831161121657829003601f168201915b505050505081526020016002820154815260200160038201548152602001600482015481526020016005820154815260200160068201548152602001600782015481526020016008820154815260200160098201548152602001600a8201548152602001600b82015481525050905060008760ff1614806112bb57508061016001518760ff16145b806112ea575060048760ff161480156112e95750600181610160015114806112e857506003816101600151145b5b5b1561133c578582815181106112fb57fe5b602002602001015186848151811061130f57fe5b6020026020010181815250508085848151811061132857fe5b602002602001018190525082806001019350505b508080600101915050611101565b5050509250929050565b60008061135f613232565b73ffffffffffffffffffffffffffffffffffffffff1660008054906101000a900473ffffffffffffffffffffffffffffffffffffffff1673ffffffffffffffffffffffffffffffffffffffff16146113ec576040517f08c379a00000000000000000000000000000000000000000000000000000000081526004016113e390614c6d565b60405180910390fd5b6113f461393c565b6113fd8a612e0a565b8260006002811061140a57fe5b602002018360016002811061141b57fe5b60200201828152508281525050506000435a8d8d8c8c8c6040516020016114489796959493929190614d11565b6040516020818303038152906040528051906020012090506040518061018001604052808d73ffffffffffffffffffffffffffffffffffffffff1681526020018c81526020018a81526020018981526020018881526020018b8152602001836001600281106114b357fe5b60200201518152602001836000600281106114ca57fe5b602002015181526020018781526020018681526020016000815260200160028152506006600083815260200190815260200160002060008201518160000160006101000a81548173ffffffffffffffffffffffffffffffffffffffff021916908373ffffffffffffffffffffffffffffffffffffffff160217905550602082015181600101908051906020019061156292919061395e565b5060408201518160020155606082015181600301556080820151816004015560a0820151816005015560c0820151816006015560e082015181600701556101008201518160080155610120820151816009015561014082015181600a015561016082015181600b0155905050600760008d73ffffffffffffffffffffffffffffffffffffffff1673ffffffffffffffffffffffffffffffffffffffff168152602001908152602001600020819080600181540180825580915050600190039060005260206000200160009091909190915055808260006002811061164257fe5b60200201519350935050509850989650505050505050565b600080611665613232565b73ffffffffffffffffffffffffffffffffffffffff1660008054906101000a900473ffffffffffffffffffffffffffffffffffffffff1673ffffffffffffffffffffffffffffffffffffffff16146116f2576040517f08c379a00000000000000000000000000000000000000000000000000000000081526004016116e990614c6d565b60405180910390fd5b60006004600087815260200190815260200160002090508673ffffffffffffffffffffffffffffffffffffffff168160000160009054906101000a900473ffffffffffffffffffffffffffffffffffffffff1673ffffffffffffffffffffffffffffffffffffffff161461179b576040517f08c379a000000000000000000000000000000000000000000000000000000000815260040161179290614c2d565b60405180910390fd5b60008160090154146117e2576040517f08c379a00000000000000000000000000000000000000000000000000000000081526004016117d990614bcd565b60405180910390fd5b6117f581600401548260050154876134f6565b925061180a81600401548260050154866134f6565b91508281600701819055508181600801819055505094509492505050565b60046020528060005260406000206000915090508060000160009054906101000a900473ffffffffffffffffffffffffffffffffffffffff1690806001018054600181600116156101000203166002900480601f0160208091040260200160405190810160405280929190818152602001828054600181600116156101000203166002900480156118fa5780601f106118cf576101008083540402835291602001916118fa565b820191906000526020600020905b8154815290600101906020018083116118dd57829003601f168201915b50505050509080600201549080600301549080600401549080600501549080600601549080600701549080600801549080600901549080600a015490508b565b6000806000611947613232565b73ffffffffffffffffffffffffffffffffffffffff1660008054906101000a900473ffffffffffffffffffffffffffffffffffffffff1673ffffffffffffffffffffffffffffffffffffffff16146119d4576040517f08c379a00000000000000000000000000000000000000000000000000000000081526004016119cb90614c6d565b60405180910390fd5b6000600660008781526020019081526020016000209050600281600b015414611a32576040517f08c379a0000000000000000000000000000000000000000000000000000000008152600401611a2990614c8d565b60405180910390fd5b600080611adb836001018054600181600116156101000203166002900480601f016020809104026020016040519081016040528092919081815260200182805460018160011615610100020316600290048015611ad05780601f10611aa557610100808354040283529160200191611ad0565b820191906000526020600020905b815481529060010190602001808311611ab357829003601f168201915b505050505088612cb9565b9150915080836006015410611b25576040517f08c379a0000000000000000000000000000000000000000000000000000000008152600401611b1c90614bed565b60405180910390fd5b611b38836007015484600501548461356c565b9550600115158615151415611e2a57826002015493508260000160009054906101000a900473ffffffffffffffffffffffffffffffffffffffff1694508083600a0181905550600383600b01819055506040518061016001604052808460000160009054906101000a900473ffffffffffffffffffffffffffffffffffffffff1673ffffffffffffffffffffffffffffffffffffffff168152602001846001018054600181600116156101000203166002900480601f016020809104026020016040519081016040528092919081815260200182805460018160011615610100020316600290048015611c6c5780601f10611c4157610100808354040283529160200191611c6c565b820191906000526020600020905b815481529060010190602001808311611c4f57829003601f168201915b505050505081526020018460020154815260200184600301548152602001846004015481526020018460050154815260200184600a015481526020018460080154815260200184600901548152602001600081526020016000815250600460008a815260200190815260200160002060008201518160000160006101000a81548173ffffffffffffffffffffffffffffffffffffffff021916908373ffffffffffffffffffffffffffffffffffffffff1602179055506020820151816001019080519060200190611d3e92919061395e565b5060408201518160020155606082015181600301556080820151816004015560a0820151816005015560c0820151816006015560e082015181600701556101008201518160080155610120820151816009015561014082015181600a0155905050600560008460000160009054906101000a900473ffffffffffffffffffffffffffffffffffffffff1673ffffffffffffffffffffffffffffffffffffffff1673ffffffffffffffffffffffffffffffffffffffff1681526020019081526020016000208890806001815401808255809150506001900390600052602060002001600090919091909150555b5050509250925092565b611e3c613232565b73ffffffffffffffffffffffffffffffffffffffff1660008054906101000a900473ffffffffffffffffffffffffffffffffffffffff1673ffffffffffffffffffffffffffffffffffffffff1614611ec9576040517f08c379a0000000000000000000000000000000000000000000000000000000008152600401611ec090614c6d565b60405180910390fd5b81600160006101000a81548173ffffffffffffffffffffffffffffffffffffffff021916908373ffffffffffffffffffffffffffffffffffffffff16021790555080600260006101000a81548173ffffffffffffffffffffffffffffffffffffffff021916908373ffffffffffffffffffffffffffffffffffffffff160217905550600260009054906101000a900473ffffffffffffffffffffffffffffffffffffffff1673ffffffffffffffffffffffffffffffffffffffff166358aafa3d6040518163ffffffff1660e01b8152600401602060405180830381600087803b158015611fb557600080fd5b505af1158015611fc9573d6000803e3d6000fd5b505050506040513d601f19601f82011682018060405250810190611fed9190613b66565b600360006101000a81548173ffffffffffffffffffffffffffffffffffffffff021916908373ffffffffffffffffffffffffffffffffffffffff1602179055505050565b6000600760008373ffffffffffffffffffffffffffffffffffffffff1673ffffffffffffffffffffffffffffffffffffffff168152602001908152602001600020805490509050919050565b600160009054906101000a900473ffffffffffffffffffffffffffffffffffffffff1681565b600260009054906101000a900473ffffffffffffffffffffffffffffffffffffffff1681565b6120d1613232565b73ffffffffffffffffffffffffffffffffffffffff1660008054906101000a900473ffffffffffffffffffffffffffffffffffffffff1673ffffffffffffffffffffffffffffffffffffffff161461215e576040517f08c379a000000000000000000000000000000000000000000000000000000000815260040161215590614c6d565b60405180910390fd5b600073ffffffffffffffffffffffffffffffffffffffff1660008054906101000a900473ffffffffffffffffffffffffffffffffffffffff1673ffffffffffffffffffffffffffffffffffffffff167f8be0079c531659141344cd1fd0a4f28419497f9722a3daafe3b4186f6b6457e060405160405180910390a360008060006101000a81548173ffffffffffffffffffffffffffffffffffffffff021916908373ffffffffffffffffffffffffffffffffffffffff160217905550565b6007602052816000526040600020818154811061223557fe5b90600052602060002001600091509150505481565b6005602052816000526040600020818154811061226357fe5b90600052602060002001600091509150505481565b606080600560008573ffffffffffffffffffffffffffffffffffffffff1673ffffffffffffffffffffffffffffffffffffffff16815260200190815260200160002080548060200260200160405190810160405280929190818152602001828054801561230457602002820191906000526020600020905b8154815260200190600101908083116122f0575b505050505091506000805b8351811015612507576123206139de565b6004600086848151811061233057fe5b60200260200101518152602001908152602001600020604051806101600160405290816000820160009054906101000a900473ffffffffffffffffffffffffffffffffffffffff1673ffffffffffffffffffffffffffffffffffffffff1673ffffffffffffffffffffffffffffffffffffffff168152602001600182018054600181600116156101000203166002900480601f0160208091040260200160405190810160405280929190818152602001828054600181600116156101000203166002900480156124415780601f1061241657610100808354040283529160200191612441565b820191906000526020600020905b81548152906001019060200180831161242457829003601f168201915b505050505081526020016002820154815260200160038201548152602001600482015481526020016005820154815260200160068201548152602001600782015481526020016008820154815260200160098201548152602001600a82015481525050905060008660ff1614806124cc575060018660ff161480156124cb57506000816101200151115b5b806124eb575060028660ff161480156124ea57506000816101200151145b5b156124f95782806001019350505b50808060010191505061230f565b508067ffffffffffffffff8111801561251f57600080fd5b5060405190808252806020026020018201604052801561255957816020015b6125466139de565b81526020019060019003908161253e5790505b5091506000805b845181101561279c576125716139de565b6004600087848151811061258157fe5b60200260200101518152602001908152602001600020604051806101600160405290816000820160009054906101000a900473ffffffffffffffffffffffffffffffffffffffff1673ffffffffffffffffffffffffffffffffffffffff1673ffffffffffffffffffffffffffffffffffffffff168152602001600182018054600181600116156101000203166002900480601f0160208091040260200160405190810160405280929190818152602001828054600181600116156101000203166002900480156126925780601f1061266757610100808354040283529160200191612692565b820191906000526020600020905b81548152906001019060200180831161267557829003601f168201915b505050505081526020016002820154815260200160038201548152602001600482015481526020016005820154815260200160068201548152602001600782015481526020016008820154815260200160098201548152602001600a82015481525050905060008760ff16148061271d575060018760ff1614801561271c57506000816101200151115b5b8061273c575060028760ff1614801561273b57506000816101200151145b5b1561278e5785828151811061274d57fe5b602002602001015186848151811061276157fe5b6020026020010181815250508085848151811061277a57fe5b602002602001018190525082806001019350505b508080600101915050612560565b5050509250929050565b60008060009054906101000a900473ffffffffffffffffffffffffffffffffffffffff16905090565b6000806127da613232565b73ffffffffffffffffffffffffffffffffffffffff1660008054906101000a900473ffffffffffffffffffffffffffffffffffffffff1673ffffffffffffffffffffffffffffffffffffffff1614612867576040517f08c379a000000000000000000000000000000000000000000000000000000000815260040161285e90614c6d565b60405180910390fd5b61286f61393c565b6128788a612e0a565b8260006002811061288557fe5b602002018360016002811061289657fe5b602002018281525082815250505060018714156129065783816000600281106128bb57fe5b60200201511015612901576040517f08c379a00000000000000000000000000000000000000000000000000000000081526004016128f890614cad565b60405180910390fd5b61295b565b838160006002811061291457fe5b6020020151111561295a576040517f08c379a000000000000000000000000000000000000000000000000000000000815260040161295190614cad565b60405180910390fd5b5b6000435a8d8d8d8d8d60405160200161297a9796959493929190614d11565b6040516020818303038152906040528051906020012090506040518061016001604052808d73ffffffffffffffffffffffffffffffffffffffff1681526020018c81526020018b81526020018a8152602001898152602001836000600281106129df57fe5b60200201518152602001836001600281106129f657fe5b602002015181526020018881526020018781526020016000815260200160008152506004600083815260200190815260200160002060008201518160000160006101000a81548173ffffffffffffffffffffffffffffffffffffffff021916908373ffffffffffffffffffffffffffffffffffffffff1602179055506020820151816001019080519060200190612a8e92919061395e565b5060408201518160020155606082015181600301556080820151816004015560a0820151816005015560c0820151816006015560e082015181600701556101008201518160080155610120820151816009015561014082015181600a0155905050600560008d73ffffffffffffffffffffffffffffffffffffffff1673ffffffffffffffffffffffffffffffffffffffff1681526020019081526020016000208190806001815401808255809150506001900390600052602060002001600090919091909150558082600060028110612b6357fe5b60200201519350935050509850989650505050505050565b60066020528060005260406000206000915090508060000160009054906101000a900473ffffffffffffffffffffffffffffffffffffffff1690806001018054600181600116156101000203166002900480601f016020809104026020016040519081016040528092919081815260200182805460018160011615610100020316600290048015612c4d5780601f10612c2257610100808354040283529160200191612c4d565b820191906000526020600020905b815481529060010190602001808311612c3057829003601f168201915b50505050509080600201549080600301549080600401549080600501549080600601549080600701549080600801549080600901549080600a01549080600b015490508c565b600360009054906101000a900473ffffffffffffffffffffffffffffffffffffffff1681565b600080600360009054906101000a900473ffffffffffffffffffffffffffffffffffffffff1673ffffffffffffffffffffffffffffffffffffffff1663d4a06b8785856040518363ffffffff1660e01b8152600401612d19929190614add565b60606040518083038186803b158015612d3157600080fd5b505afa158015612d45573d6000803e3d6000fd5b505050506040513d601f19601f82011682018060405250810190612d699190613ea6565b909150809250819350505060008211612db7576040517f08c379a0000000000000000000000000000000000000000000000000000000008152600401612dae90614c0d565b60405180910390fd5b9250929050565b6000600560008373ffffffffffffffffffffffffffffffffffffffff1673ffffffffffffffffffffffffffffffffffffffff168152602001908152602001600020805490509050919050565b600080600360009054906101000a900473ffffffffffffffffffffffffffffffffffffffff1673ffffffffffffffffffffffffffffffffffffffff1663e8084a87846040518263ffffffff1660e01b8152600401612e689190614abb565b60606040518083038186803b158015612e8057600080fd5b505afa158015612e94573d6000803e3d6000fd5b505050506040513d601f19601f82011682018060405250810190612eb89190613ea6565b9091508092508193505050915091565b612ed0613232565b73ffffffffffffffffffffffffffffffffffffffff1660008054906101000a900473ffffffffffffffffffffffffffffffffffffffff1673ffffffffffffffffffffffffffffffffffffffff1614612f5d576040517f08c379a0000000000000000000000000000000000000000000000000000000008152600401612f5490614c6d565b60405180910390fd5b600073ffffffffffffffffffffffffffffffffffffffff168173ffffffffffffffffffffffffffffffffffffffff161415612fcd576040517f08c379a0000000000000000000000000000000000000000000000000000000008152600401612fc490614b8d565b60405180910390fd5b8073ffffffffffffffffffffffffffffffffffffffff1660008054906101000a900473ffffffffffffffffffffffffffffffffffffffff1673ffffffffffffffffffffffffffffffffffffffff167f8be0079c531659141344cd1fd0a4f28419497f9722a3daafe3b4186f6b6457e060405160405180910390a3806000806101000a81548173ffffffffffffffffffffffffffffffffffffffff021916908373ffffffffffffffffffffffffffffffffffffffff16021790555050565b6000613094613232565b73ffffffffffffffffffffffffffffffffffffffff1660008054906101000a900473ffffffffffffffffffffffffffffffffffffffff1673ffffffffffffffffffffffffffffffffffffffff1614613121576040517f08c379a000000000000000000000000000000000000000000000000000000000815260040161311890614c6d565b60405180910390fd5b60006006600084815260200190815260200160002090508373ffffffffffffffffffffffffffffffffffffffff168160000160009054906101000a900473ffffffffffffffffffffffffffffffffffffffff1673ffffffffffffffffffffffffffffffffffffffff16146131ca576040517f08c379a00000000000000000000000000000000000000000000000000000000081526004016131c190614b2d565b60405180910390fd5b600281600b015414613211576040517f08c379a000000000000000000000000000000000000000000000000000000000815260040161320890614b6d565b60405180910390fd5b806002015491504281600a0181905550600181600b01819055505092915050565b600033905090565b6000806001871415613302578383106132ad576000915061329a8461328c61326b878761359b90919063ffffffff16565b61327e898b6135e590919063ffffffff16565b6135e590919063ffffffff16565b61365590919063ffffffff16565b9050858111156132a8578590505b6132fd565b600191506132fa846132ec6132cb868861359b90919063ffffffff16565b6132de898b6135e590919063ffffffff16565b6135e590919063ffffffff16565b61365590919063ffffffff16565b90505b6133ba565b83831061335d576001915061335684613348613327878761359b90919063ffffffff16565b61333a898b6135e590919063ffffffff16565b6135e590919063ffffffff16565b61365590919063ffffffff16565b90506133b9565b600091506133aa8461339c61337b868861359b90919063ffffffff16565b61338e898b6135e590919063ffffffff16565b6135e590919063ffffffff16565b61365590919063ffffffff16565b9050858111156133b8578590505b5b5b9550959350505050565b60008060006133d48a878661369f565b809350819450505060001515831515141561344f5760006133f88b8b8b8b8c6136ea565b90506134058b8287613769565b8094508195505050600015158415151415613444576134258b8787613769565b809450819550505060011515841515141561343f57600291505b613449565b600391505b50613454565b600190505b9750975097945050505050565b6000808211156134ef5760018414156134b3576134ac8361349e6064613490868861359b90919063ffffffff16565b6135e590919063ffffffff16565b61365590919063ffffffff16565b90506134ee565b6134eb836134dd60646134cf878761359b90919063ffffffff16565b6135e590919063ffffffff16565b61365590919063ffffffff16565b90505b5b9392505050565b600080821115613565576000613528606461351a85876135e590919063ffffffff16565b61365590919063ffffffff16565b9050600185141561354d57613546818561359b90919063ffffffff16565b9150613563565b61356081856137b490919063ffffffff16565b91505b505b9392505050565b6000828411156135875781831061358257600190505b613594565b81831161359357600190505b5b9392505050565b60006135dd83836040518060400160405280601e81526020017f536166654d6174683a207375627472616374696f6e206f766572666c6f770000815250613809565b905092915050565b6000808314156135f8576000905061364f565b600082840290508284828161360957fe5b041461364a576040517f08c379a000000000000000000000000000000000000000000000000000000000815260040161364190614c4d565b60405180910390fd5b809150505b92915050565b600061369783836040518060400160405280601a81526020017f536166654d6174683a206469766973696f6e206279207a65726f000000000000815250613864565b905092915050565b60008060008411156136dd5760018514156136c8578383116136c357839050600191505b6136d8565b8383106136d757839050600191505b5b6136e2565b600091505b935093915050565b6000806137248561371686613708878b6135e590919063ffffffff16565b61365590919063ffffffff16565b61365590919063ffffffff16565b905060018714156137495761374281876137b490919063ffffffff16565b915061375f565b61375c818761359b90919063ffffffff16565b91505b5095945050505050565b60008060008411156137a75760018514156137925783831061378d57839050600191505b6137a2565b8383116137a157839050600191505b5b6137ac565b600091505b935093915050565b6000808284019050838110156137ff576040517f08c379a00000000000000000000000000000000000000000000000000000000081526004016137f690614bad565b60405180910390fd5b8091505092915050565b6000838311158290613851576040517f08c379a00000000000000000000000000000000000000000000000000000000081526004016138489190614abb565b60405180910390fd5b5060008385039050809150509392505050565b600080831182906138ab576040517f08c379a00000000000000000000000000000000000000000000000000000000081526004016138a29190614abb565b60405180910390fd5b5060008385816138b757fe5b049050809150509392505050565b604051806101800160405280600073ffffffffffffffffffffffffffffffffffffffff16815260200160608152602001600081526020016000815260200160008152602001600081526020016000815260200160008152602001600081526020016000815260200160008152602001600081525090565b6040518060400160405280600290602082028036833780820191505090505090565b828054600181600116156101000203166002900490600052602060002090601f016020900481019282601f1061399f57805160ff19168380011785556139cd565b828001600101855582156139cd579182015b828111156139cc5782518255916020019190600101906139b1565b5b5090506139da9190613a4e565b5090565b604051806101600160405280600073ffffffffffffffffffffffffffffffffffffffff168152602001606081526020016000815260200160008152602001600081526020016000815260200160008152602001600081526020016000815260200160008152602001600081525090565b5b80821115613a67576000816000905550600101613a4f565b5090565b600081359050613a7a81614faf565b92915050565b600081519050613a8f81614faf565b92915050565b600081359050613aa481614fc6565b92915050565b600082601f830112613abb57600080fd5b8135613ace613ac982614df9565b614dcc565b91508082526020830160208301858383011115613aea57600080fd5b613af5838284614f5c565b50505092915050565b600081359050613b0d81614fdd565b92915050565b600081519050613b2281614fdd565b92915050565b600081359050613b3781614ff4565b92915050565b600060208284031215613b4f57600080fd5b6000613b5d84828501613a6b565b91505092915050565b600060208284031215613b7857600080fd5b6000613b8684828501613a80565b91505092915050565b60008060408385031215613ba257600080fd5b6000613bb085828601613a6b565b9250506020613bc185828601613a6b565b9150509250929050565b60008060408385031215613bde57600080fd5b6000613bec85828601613a6b565b9250506020613bfd85828601613a95565b9150509250929050565b60008060008060808587031215613c1d57600080fd5b6000613c2b87828801613a6b565b9450506020613c3c87828801613a95565b9350506040613c4d87828801613afe565b9250506060613c5e87828801613afe565b91505092959194509250565b600080600080600080600080610100898b031215613c8757600080fd5b6000613c958b828c01613a6b565b985050602089013567ffffffffffffffff811115613cb257600080fd5b613cbe8b828c01613aaa565b9750506040613ccf8b828c01613afe565b9650506060613ce08b828c01613afe565b9550506080613cf18b828c01613afe565b94505060a0613d028b828c01613afe565b93505060c0613d138b828c01613afe565b92505060e0613d248b828c01613afe565b9150509295985092959890939650565b60008060408385031215613d4757600080fd5b6000613d5585828601613a6b565b9250506020613d6685828601613afe565b9150509250929050565b60008060408385031215613d8357600080fd5b6000613d9185828601613a6b565b9250506020613da285828601613b28565b9150509250929050565b600060208284031215613dbe57600080fd5b6000613dcc84828501613a95565b91505092915050565b60008060408385031215613de857600080fd5b6000613df685828601613a95565b9250506020613e0785828601613afe565b9150509250929050565b600060208284031215613e2357600080fd5b600082013567ffffffffffffffff811115613e3d57600080fd5b613e4984828501613aaa565b91505092915050565b60008060408385031215613e6557600080fd5b600083013567ffffffffffffffff811115613e7f57600080fd5b613e8b85828601613aaa565b9250506020613e9c85828601613afe565b9150509250929050565b600080600060608486031215613ebb57600080fd5b6000613ec986828701613b13565b9350506020613eda86828701613b13565b9250506040613eeb86828701613b13565b9150509250925092565b6000613f0183836140aa565b60208301905092915050565b6000613f1983836145c4565b905092915050565b6000613f2d83836146c8565b905092915050565b613f3e81614efd565b82525050565b613f4d81614efd565b82525050565b6000613f5e82614e55565b613f688185614ea8565b9350613f7383614e25565b8060005b83811015613fa4578151613f8b8882613ef5565b9750613f9683614e81565b925050600181019050613f77565b5085935050505092915050565b6000613fbc82614e60565b613fc68185614eb9565b935083602082028501613fd885614e35565b8060005b858110156140145784840389528151613ff58582613f0d565b945061400083614e8e565b925060208a01995050600181019050613fdc565b50829750879550505050505092915050565b600061403182614e6b565b61403b8185614eca565b93508360208202850161404d85614e45565b8060005b85811015614089578484038952815161406a8582613f21565b945061407583614e9b565b925060208a01995050600181019050614051565b50829750879550505050505092915050565b6140a481614f0f565b82525050565b6140b381614f1b565b82525050565b6140c281614f1b565b82525050565b60006140d382614e76565b6140dd8185614edb565b93506140ed818560208601614f6b565b6140f681614f9e565b840191505092915050565b600061410c82614e76565b6141168185614eec565b9350614126818560208601614f6b565b61412f81614f9e565b840191505092915050565b6000614147602283614eec565b91507f636c6f7365537761703a204f524445525f504c494d495450524943455f57524f60008301527f4e470000000000000000000000000000000000000000000000000000000000006020830152604082019050919050565b60006141ad601f83614eec565b91507f63616e63656c4c696d6974537761703a2055534552414444525f57524f4e47006000830152602082019050919050565b60006141ed602283614eec565b91507f636c6f7365537761703a204f524445525f4c4c494d495450524943455f57524f60008301527f4e470000000000000000000000000000000000000000000000000000000000006020830152604082019050919050565b6000614253602383614eec565b91507f63616e63656c4c696d6974537761703a204f524445525f5354415455535f575260008301527f4f4e4700000000000000000000000000000000000000000000000000000000006020830152604082019050919050565b60006142b9602683614eec565b91507f4f776e61626c653a206e6577206f776e657220697320746865207a65726f206160008301527f64647265737300000000000000000000000000000000000000000000000000006020830152604082019050919050565b600061431f601b83614eec565b91507f536166654d6174683a206164646974696f6e206f766572666c6f7700000000006000830152602082019050919050565b600061435f601d83614eec565b91507f636c6f7365537761703a204f524445525f5354415455535f57524f4e470000006000830152602082019050919050565b600061439f602083614eec565b91507f74726164654c696d6974537761703a204f524445525f54494d455f57524f4e476000830152602082019050919050565b60006143df601e83614eec565b91507f6765744c61737450726963653a204c4153545f50524943455f57524f4e4700006000830152602082019050919050565b600061441f601983614eec565b91507f636c6f7365537761703a2055534552414444525f57524f4e47000000000000006000830152602082019050919050565b600061445f602183614eec565b91507f536166654d6174683a206d756c7469706c69636174696f6e206f766572666c6f60008301527f77000000000000000000000000000000000000000000000000000000000000006020830152604082019050919050565b60006144c5602083614eec565b91507f4f776e61626c653a2063616c6c6572206973206e6f7420746865206f776e65726000830152602082019050919050565b6000614505602283614eec565b91507f74726164654c696d6974537761703a204f524445525f5354415455535f57524f60008301527f4e470000000000000000000000000000000000000000000000000000000000006020830152604082019050919050565b600061456b602183614eec565b91507f6f70656e4d61726b6574537761703a20534c4950504147455f544f4f5f48494760008301527f48000000000000000000000000000000000000000000000000000000000000006020830152604082019050919050565b6000610180830160008301516145dd6000860182613f35565b50602083015184820360208601526145f582826140c8565b915050604083015161460a60408601826147b7565b50606083015161461d60608601826147b7565b50608083015161463060808601826147b7565b5060a083015161464360a08601826147b7565b5060c083015161465660c08601826147b7565b5060e083015161466960e08601826147b7565b5061010083015161467e6101008601826147b7565b506101208301516146936101208601826147b7565b506101408301516146a86101408601826147b7565b506101608301516146bd6101608601826147b7565b508091505092915050565b6000610160830160008301516146e16000860182613f35565b50602083015184820360208601526146f982826140c8565b915050604083015161470e60408601826147b7565b50606083015161472160608601826147b7565b50608083015161473460808601826147b7565b5060a083015161474760a08601826147b7565b5060c083015161475a60c08601826147b7565b5060e083015161476d60e08601826147b7565b506101008301516147826101008601826147b7565b506101208301516147976101208601826147b7565b506101408301516147ac6101408601826147b7565b508091505092915050565b6147c081614f45565b82525050565b6147cf81614f45565b82525050565b60006020820190506147ea6000830184613f44565b92915050565b600061016082019050614806600083018e613f44565b8181036020830152614818818d614101565b9050614827604083018c6147c6565b614834606083018b6147c6565b614841608083018a6147c6565b61484e60a08301896147c6565b61485b60c08301886147c6565b61486860e08301876147c6565b6148766101008301866147c6565b6148846101208301856147c6565b6148926101408301846147c6565b9c9b505050505050505050505050565b6000610180820190506148b8600083018f613f44565b81810360208301526148ca818e614101565b90506148d9604083018d6147c6565b6148e6606083018c6147c6565b6148f3608083018b6147c6565b61490060a083018a6147c6565b61490d60c08301896147c6565b61491a60e08301886147c6565b6149286101008301876147c6565b6149366101208301866147c6565b6149446101408301856147c6565b6149526101608301846147c6565b9d9c50505050505050505050505050565b6000604082019050818103600083015261497d8185613f53565b905081810360208301526149918184613fb1565b90509392505050565b600060408201905081810360008301526149b48185613f53565b905081810360208301526149c88184614026565b90509392505050565b60006060820190506149e6600083018661409b565b6149f36020830185613f44565b614a0060408301846147c6565b949350505050565b600060e082019050614a1d600083018a61409b565b614a2a6020830189613f44565b614a3760408301886147c6565b614a4460608301876147c6565b614a5160808301866147c6565b614a5e60a08301856147c6565b614a6b60c08301846147c6565b98975050505050505050565b6000602082019050614a8c60008301846140b9565b92915050565b6000604082019050614aa760008301856140b9565b614ab460208301846147c6565b9392505050565b60006020820190508181036000830152614ad58184614101565b905092915050565b60006040820190508181036000830152614af78185614101565b9050614b0660208301846147c6565b9392505050565b60006020820190508181036000830152614b268161413a565b9050919050565b60006020820190508181036000830152614b46816141a0565b9050919050565b60006020820190508181036000830152614b66816141e0565b9050919050565b60006020820190508181036000830152614b8681614246565b9050919050565b60006020820190508181036000830152614ba6816142ac565b9050919050565b60006020820190508181036000830152614bc681614312565b9050919050565b60006020820190508181036000830152614be681614352565b9050919050565b60006020820190508181036000830152614c0681614392565b9050919050565b60006020820190508181036000830152614c26816143d2565b9050919050565b60006020820190508181036000830152614c4681614412565b9050919050565b60006020820190508181036000830152614c6681614452565b9050919050565b60006020820190508181036000830152614c86816144b8565b9050919050565b60006020820190508181036000830152614ca6816144f8565b9050919050565b60006020820190508181036000830152614cc68161455e565b9050919050565b6000602082019050614ce260008301846147c6565b92915050565b6000604082019050614cfd60008301856147c6565b614d0a60208301846147c6565b9392505050565b600060e082019050614d26600083018a6147c6565b614d3360208301896147c6565b614d406040830188613f44565b8181036060830152614d528187614101565b9050614d6160808301866147c6565b614d6e60a08301856147c6565b614d7b60c08301846147c6565b98975050505050505050565b6000608082019050614d9c60008301876147c6565b614da960208301866147c6565b614db660408301856147c6565b614dc360608301846147c6565b95945050505050565b6000604051905081810181811067ffffffffffffffff82111715614def57600080fd5b8060405250919050565b600067ffffffffffffffff821115614e1057600080fd5b601f19601f8301169050602081019050919050565b6000819050602082019050919050565b6000819050602082019050919050565b6000819050602082019050919050565b600081519050919050565b600081519050919050565b600081519050919050565b600081519050919050565b6000602082019050919050565b6000602082019050919050565b6000602082019050919050565b600082825260208201905092915050565b600082825260208201905092915050565b600082825260208201905092915050565b600082825260208201905092915050565b600082825260208201905092915050565b6000614f0882614f25565b9050919050565b60008115159050919050565b6000819050919050565b600073ffffffffffffffffffffffffffffffffffffffff82169050919050565b6000819050919050565b600060ff82169050919050565b82818337600083830152505050565b60005b83811015614f89578082015181840152602081019050614f6e565b83811115614f98576000848401525b50505050565b6000601f19601f8301169050919050565b614fb881614efd565b8114614fc357600080fd5b50565b614fcf81614f1b565b8114614fda57600080fd5b50565b614fe681614f45565b8114614ff157600080fd5b50565b614ffd81614f4f565b811461500857600080fd5b5056fea2646970667358221220e80388f3e30f11d787404b84f206bce6fada7fb42cf5276fb1601a54a5cc712764736f6c634300060c0033",
  "immutableReferences": {},
  "source": "// SPDX-License-Identifier: MIT\npragma solidity >=0.6.12;\npragma experimental ABIEncoderV2;\n\nimport \"../openzeppelin/contracts/math/SafeMath.sol\";\nimport \"../openzeppelin/contracts/access/Ownable.sol\";\nimport \"../openzeppelin/contracts/utils/Strings.sol\";\nimport \"../quote/QuoteFactory.sol\";\nimport \"../interface/ISwapTrade.sol\";\nimport \"../interface/ITeemoPool.sol\";\nimport \"../libraries/SwapTradeLibrary.sol\";\n\ncontract SwapTrade is Ownable, ISwapTrade {\n    using SafeMath for uint256;\n\n    struct SwapLimitOrder {\n        address userAddr;\n        string symbol;\n        uint256 tokenAmount;\n        uint256 lever;\n        uint256 bsFlag;//  1 2\n        uint256 openPrice;// \n        uint256 openTime;// \n        uint256 newPrice;// \n        uint256 pLimitPrice;// \n        uint256 lLimitPrice;// \n        uint256 closeTime;// \n        uint256 status;//  1: 2 3\n    }\n    struct SwapOrder {\n        address userAddr;\n        string symbol;\n        uint256 tokenAmount;\n        uint256 lever;\n        uint256 bsFlag;//  1 2\n        uint256 openPrice;// \n        uint256 openTime;// \n        uint256 pLimitPrice;// \n        uint256 lLimitPrice;// \n        uint256 closePrice;// \n        uint256 closeTime;// \n    }\n    address public tokenAddr;\n    address public poolAddr;\n    address public quoteFactoryAddr;\n    \n    mapping(bytes32 => SwapOrder) public allOrderHash;// =>\n    mapping(address => bytes32[]) public allOrderUser;// =>\n\n    mapping(bytes32 => SwapLimitOrder) public allLimitOrderHash;// =>\n    mapping(address => bytes32[]) public allLimitOrderUser;// =>\n\n    function initialize(address _tokenAddr, address _poolAddr) public onlyOwner{\n        tokenAddr = _tokenAddr;\n        poolAddr = _poolAddr;\n        quoteFactoryAddr = ITeemoPool(poolAddr).getQuoteFactoryAddr();\n    } \n\n    function orderLength(address _userAddress) public view returns(uint256) {\n        return allOrderUser[_userAddress].length;\n    }\n\n    function limitOrderLength(address _userAddress) public view returns(uint256) {\n        return allLimitOrderUser[_userAddress].length;\n    }\n\n    //0 1 2\n    function getAllOrder(address _userAddress, uint8 status) public view returns(\n        bytes32[] memory orderIds,\n        SwapOrder[] memory orders\n        ) {\n        orderIds = allOrderUser[_userAddress];\n        uint256 size = 0;\n        for (uint i = 0; i < orderIds.length; i++) {\n            SwapOrder memory order = allOrderHash[orderIds[i]];\n            if (status == 0 || (status == 1 && order.closePrice > 0) || (status == 2 && order.closePrice == 0)) {\n                size++;\n            }\n        }\n        orders = new SwapOrder[](size);\n        uint256 index = 0;\n        for (uint i = 0; i < orderIds.length; i++) {\n            SwapOrder memory order = allOrderHash[orderIds[i]];\n            if (status == 0 || (status == 1 && order.closePrice > 0) || (status == 2 && order.closePrice == 0)) {\n                orderIds[index] = orderIds[i];\n                orders[index] = order;\n                index++;\n            }\n        }\n    }\n\n    //0 1: 2 3 4-\n    function getAllLimitOrder(address _userAddress, uint8 status) public view returns(\n        bytes32[] memory orderIds,\n        SwapLimitOrder[] memory orders\n        ) {\n        orderIds = allLimitOrderUser[_userAddress];\n        uint256 size = 0;\n        for (uint i = 0; i < orderIds.length; i++) {\n            SwapLimitOrder memory order = allLimitOrderHash[orderIds[i]];\n            if (status == 0 || status == order.status || (status == 4 && (order.status == 1 || order.status == 3))) {\n                size++;\n            }\n        }\n        orders = new SwapLimitOrder[](size);\n        uint256 index = 0;\n        for (uint i = 0; i < orderIds.length; i++) {\n            SwapLimitOrder memory order = allLimitOrderHash[orderIds[i]];\n            if (status == 0 || status == order.status || (status == 4 && (order.status == 1 || order.status == 3))) {\n                orderIds[index] = orderIds[i];\n                orders[index] = order;\n                index++;\n            }\n        }\n    }\n\n    // \n    function openLimitSwap(address _userAddr,string memory _symbol,uint256 _limitPrice,uint256 _tokenAmount,uint256 _lever,uint256 _bsFlag,uint256 _pLimitPrice,uint256 _lLimitPrice) \n        public override onlyOwner \n        returns (bytes32, uint256) {\n        uint256[2] memory priceInfo;\n        (priceInfo[0],priceInfo[1]) = getNewPrice(_symbol);\n        bytes32 orderID = keccak256(abi.encode(block.number,gasleft(),_userAddr,_symbol,_tokenAmount,_lever,_bsFlag));\n        allLimitOrderHash[orderID] = SwapLimitOrder({\n            userAddr: _userAddr,\n            symbol: _symbol,\n            tokenAmount: _tokenAmount,\n            lever: _lever,\n            bsFlag: _bsFlag,\n            openPrice: _limitPrice,\n            openTime: priceInfo[1],\n            newPrice: priceInfo[0],\n            pLimitPrice: _pLimitPrice,\n            lLimitPrice: _lLimitPrice,\n            closeTime: 0,\n            status: 2\n        });\n        allLimitOrderUser[_userAddr].push(orderID);\n        return (orderID,priceInfo[0]);\n    }\n    // \n    function cancelLimitSwap(address _userAddr,bytes32 _orderID) \n        public override onlyOwner\n        returns (uint256 tokenAmount)\n    {\n        SwapLimitOrder storage orderInfo = allLimitOrderHash[_orderID];\n        require(orderInfo.userAddr == _userAddr, \"cancelLimitSwap: USERADDR_WRONG\");\n        require(orderInfo.status == 2, \"cancelLimitSwap: ORDER_STATUS_WRONG\");\n        tokenAmount = orderInfo.tokenAmount;\n        orderInfo.closeTime = block.timestamp;\n        orderInfo.status = 1;\n    }\n    // \n    function tradeLimitSwap(bytes32 _orderID,uint256 _blockIndex) \n        public override onlyOwner\n        returns (bool success,address userAddr,uint256 tokenAmount)\n    {\n        SwapLimitOrder storage orderInfo = allLimitOrderHash[_orderID];\n        require(orderInfo.status == 2, \"tradeLimitSwap: ORDER_STATUS_WRONG\");\n        (uint256 tradePrice,uint256 priceTime) = getLastPrice(orderInfo.symbol,_blockIndex);\n        require(orderInfo.openTime < priceTime, \"tradeLimitSwap: ORDER_TIME_WRONG\");\n        success = SwapTradeLibrary.isTradeLimitSwap(orderInfo.newPrice,orderInfo.openPrice,tradePrice);\n        if(success == true){\n            tokenAmount = orderInfo.tokenAmount;\n            userAddr = orderInfo.userAddr;\n            orderInfo.closeTime = priceTime;\n            orderInfo.status = 3;\n            allOrderHash[_orderID] = SwapOrder({\n                userAddr: orderInfo.userAddr,\n                symbol: orderInfo.symbol,\n                tokenAmount: orderInfo.tokenAmount,\n                lever: orderInfo.lever,\n                bsFlag: orderInfo.bsFlag,\n                openPrice: orderInfo.openPrice,\n                openTime: orderInfo.closeTime,\n                pLimitPrice: orderInfo.pLimitPrice,\n                lLimitPrice: orderInfo.lLimitPrice,\n                closePrice: 0,\n                closeTime: 0\n            });\n            allOrderUser[orderInfo.userAddr].push(_orderID);            \n        }\n    }    \n\n    // \n    function openMarketSwap(address _userAddr,string memory _symbol,uint256 _tokenAmount,uint256 _lever,uint256 _bsFlag,uint256 _pLimitPrice,uint256 _lLimitPrice, uint256 _maxPrice) \n        public override onlyOwner returns (bytes32, uint256) {\n        uint256[2] memory priceInfo;\n        (priceInfo[0],priceInfo[1]) = getNewPrice(_symbol);\n        if(_bsFlag == 1){\n            require(priceInfo[0]>=_maxPrice, 'openMarketSwap: SLIPPAGE_TOO_HIGH');\n        }else{\n            require(priceInfo[0]<=_maxPrice, 'openMarketSwap: SLIPPAGE_TOO_HIGH');\n        }\n        bytes32 orderID = keccak256(abi.encode(block.number,gasleft(),_userAddr,_symbol,_tokenAmount,_lever,_bsFlag));\n        allOrderHash[orderID] = SwapOrder({\n            userAddr: _userAddr,\n            symbol: _symbol,\n            tokenAmount: _tokenAmount,\n            lever: _lever,\n            bsFlag: _bsFlag,\n            openPrice: priceInfo[0],\n            openTime: priceInfo[1],\n            pLimitPrice: _pLimitPrice,\n            lLimitPrice: _lLimitPrice,\n            closePrice: 0,\n            closeTime: 0\n        });\n        allOrderUser[_userAddr].push(orderID);\n        return (orderID,priceInfo[0]);\n    }\n\n    // \n    function closeMarketSwap(address _userAddr,bytes32 _orderID) \n        public override onlyOwner\n        returns (uint256 closePrice,uint256 plFlag,uint256 plAmount,uint256 tokenAmount)\n    {\n        SwapOrder storage orderInfo = allOrderHash[_orderID];\n        require(orderInfo.userAddr == _userAddr, \"closeSwap: USERADDR_WRONG\");\n        require(orderInfo.closePrice == 0, \"closeSwap: ORDER_STATUS_WRONG\");\n        uint256 priceTime = 0;\n        (closePrice,priceTime) = getNewPrice(orderInfo.symbol);\n        tokenAmount = orderInfo.tokenAmount;\n        (plFlag, plAmount) = SwapTradeLibrary.calcSwapOrderPL(orderInfo.bsFlag,orderInfo.tokenAmount,orderInfo.lever,orderInfo.openPrice,closePrice);\n        orderInfo.closePrice = closePrice;\n        orderInfo.closeTime = priceTime;\n    }\n\n    // \n    function closeLimitSwap(bytes32 _orderID,uint256 _blockIndex) \n        public override onlyOwner\n        returns (bool success,address userAddr,uint256 closePrice,uint256 closeType,uint256 plFlag,uint256 plAmount,uint256 tokenAmount)\n    {\n        SwapOrder storage orderInfo = allOrderHash[_orderID];\n        require(orderInfo.closePrice == 0, \"closeSwap: ORDER_STATUS_WRONG\");\n        (uint256 lastPrice,uint256 priceTime) = getLastPrice(orderInfo.symbol,_blockIndex);\n        require(orderInfo.openTime < priceTime, \"tradeLimitSwap: ORDER_TIME_WRONG\");\n        (success,closePrice,closeType) = SwapTradeLibrary.calcSwapOrderCloseInfo(orderInfo.bsFlag,orderInfo.openPrice,orderInfo.lever,orderInfo.tokenAmount,orderInfo.pLimitPrice,orderInfo.lLimitPrice,lastPrice);\n        if(success == true){\n            tokenAmount = orderInfo.tokenAmount;\n            userAddr = orderInfo.userAddr;\n            (plFlag, plAmount) = SwapTradeLibrary.calcSwapOrderPL(orderInfo.bsFlag,orderInfo.tokenAmount,orderInfo.lever,orderInfo.openPrice,closePrice);\n            orderInfo.closePrice = closePrice;\n            orderInfo.closeTime = priceTime;\n        }\n    }    \n    // \n    function updateSwapByPrice(address _userAddr,bytes32 _orderID,uint256 _pLimitPrice,uint256 _lLimitPrice) \n        public override onlyOwner \n        returns (uint256 pLimitRate,uint256 lLimitRate) {\n        SwapOrder storage orderInfo = allOrderHash[_orderID];\n        require(orderInfo.userAddr == _userAddr, \"closeSwap: USERADDR_WRONG\");\n        require(orderInfo.closePrice == 0, \"closeSwap: ORDER_STATUS_WRONG\");\n        if(orderInfo.bsFlag == 1){\n            require(_pLimitPrice > 0 && _pLimitPrice < orderInfo.openPrice, \"closeSwap: ORDER_PLIMITPRICE_WRONG\"); \n            require(_lLimitPrice > 0 && _lLimitPrice > orderInfo.openPrice, \"closeSwap: ORDER_LLIMITPRICE_WRONG\");\n        }else{\n            require(_pLimitPrice > 0 && _pLimitPrice > orderInfo.openPrice, \"closeSwap: ORDER_PLIMITPRICE_WRONG\"); \n            require(_lLimitPrice > 0 && _lLimitPrice < orderInfo.openPrice, \"closeSwap: ORDER_LLIMITPRICE_WRONG\"); \n        }\n        pLimitRate = SwapTradeLibrary.calcSwapOrderPRate(orderInfo.bsFlag,orderInfo.openPrice,_pLimitPrice);\n        lLimitRate = SwapTradeLibrary.calcSwapOrderPRate(orderInfo.bsFlag,orderInfo.openPrice,_lLimitPrice);\n        orderInfo.pLimitPrice = _pLimitPrice;\n        orderInfo.lLimitPrice = _lLimitPrice;\n    }\n\n    // \n    function updateSwapByRate(address _userAddr,bytes32 _orderID,uint256 _pLimitRate,uint256 _lLimitRate) \n        public override onlyOwner \n        returns (uint256 pLimitPrice,uint256 lLimitPrice) {\n        SwapOrder storage orderInfo = allOrderHash[_orderID];\n        require(orderInfo.userAddr == _userAddr, \"closeSwap: USERADDR_WRONG\");\n        require(orderInfo.closePrice == 0, \"closeSwap: ORDER_STATUS_WRONG\");\n        pLimitPrice = SwapTradeLibrary.calcSwapOrderPPrice(orderInfo.bsFlag,orderInfo.openPrice,_pLimitRate);\n        lLimitPrice = SwapTradeLibrary.calcSwapOrderPPrice(orderInfo.bsFlag,orderInfo.openPrice,_lLimitRate);\n        orderInfo.pLimitPrice = pLimitPrice;\n        orderInfo.lLimitPrice = lLimitPrice;\n    }    \n    function getNewPrice(string memory _symbol) \n        public view \n        returns (uint256 newPrice,uint256 priceTime){\n        (, newPrice,priceTime) = QuoteFactory(quoteFactoryAddr).getNewPrice(_symbol);\n    }\n    function getLastPrice(string memory _symbol,uint256 _blockIndex) \n        public view \n        returns (uint256 newPrice,uint256 priceTime){\n        (, newPrice,priceTime) = QuoteFactory(quoteFactoryAddr).getLastPrice(_symbol,_blockIndex);\n        require(newPrice > 0, \"getLastPrice: LAST_PRICE_WRONG\");\n    }\n}\n",
  "sourcePath": "/Users/tong/Projects/drep-project/teemo-private/contracts/trade/SwapTrade.sol",
  "compiler": {
    "name": "solc",
    "version": "0.6.12+commit.27d51765.Emscripten.clang"
  },
  "schemaVersion": "3.3.2",
  "updatedAt": "2021-01-15T12:13:17.339Z",
  "devdoc": {
    "kind": "dev",
    "methods": {
      "owner()": {
        "details": "Returns the address of the current owner."
      },
      "renounceOwnership()": {
        "details": "Leaves the contract without owner. It will not be possible to call `onlyOwner` functions anymore. Can only be called by the current owner. NOTE: Renouncing ownership will leave the contract without an owner, thereby removing any functionality that is only available to the owner."
      },
      "transferOwnership(address)": {
        "details": "Transfers ownership of the contract to a new account (`newOwner`). Can only be called by the current owner."
      }
    },
    "version": 1
  },
  "userdoc": {
    "kind": "user",
    "methods": {},
    "version": 1
  }
}