{
  "contractName": "SwapTrade",
  "abi": [
    {
      "anonymous": false,
      "inputs": [
        {
          "indexed": true,
          "internalType": "address",
          "name": "previousOwner",
          "type": "address"
        },
        {
          "indexed": true,
          "internalType": "address",
          "name": "newOwner",
          "type": "address"
        }
      ],
      "name": "OwnershipTransferred",
      "type": "event"
    },
    {
      "inputs": [
        {
          "internalType": "bytes32",
          "name": "",
          "type": "bytes32"
        }
      ],
      "name": "allLimitOrderHash",
      "outputs": [
        {
          "internalType": "address",
          "name": "userAddr",
          "type": "address"
        },
        {
          "internalType": "string",
          "name": "symbol",
          "type": "string"
        },
        {
          "internalType": "uint256",
          "name": "tokenAmount",
          "type": "uint256"
        },
        {
          "internalType": "uint256",
          "name": "lever",
          "type": "uint256"
        },
        {
          "internalType": "uint256",
          "name": "bsFlag",
          "type": "uint256"
        },
        {
          "internalType": "uint256",
          "name": "openPrice",
          "type": "uint256"
        },
        {
          "internalType": "uint256",
          "name": "openTime",
          "type": "uint256"
        },
        {
          "internalType": "uint256",
          "name": "newPrice",
          "type": "uint256"
        },
        {
          "internalType": "uint256",
          "name": "pLimitPrice",
          "type": "uint256"
        },
        {
          "internalType": "uint256",
          "name": "lLimitPrice",
          "type": "uint256"
        },
        {
          "internalType": "uint256",
          "name": "closeTime",
          "type": "uint256"
        },
        {
          "internalType": "uint256",
          "name": "status",
          "type": "uint256"
        }
      ],
      "stateMutability": "view",
      "type": "function"
    },
    {
      "inputs": [
        {
          "internalType": "address",
          "name": "",
          "type": "address"
        },
        {
          "internalType": "uint256",
          "name": "",
          "type": "uint256"
        }
      ],
      "name": "allLimitOrderUser",
      "outputs": [
        {
          "internalType": "bytes32",
          "name": "",
          "type": "bytes32"
        }
      ],
      "stateMutability": "view",
      "type": "function"
    },
    {
      "inputs": [
        {
          "internalType": "bytes32",
          "name": "",
          "type": "bytes32"
        }
      ],
      "name": "allOrderHash",
      "outputs": [
        {
          "internalType": "address",
          "name": "userAddr",
          "type": "address"
        },
        {
          "internalType": "string",
          "name": "symbol",
          "type": "string"
        },
        {
          "internalType": "uint256",
          "name": "tokenAmount",
          "type": "uint256"
        },
        {
          "internalType": "uint256",
          "name": "lever",
          "type": "uint256"
        },
        {
          "internalType": "uint256",
          "name": "bsFlag",
          "type": "uint256"
        },
        {
          "internalType": "uint256",
          "name": "openPrice",
          "type": "uint256"
        },
        {
          "internalType": "uint256",
          "name": "openTime",
          "type": "uint256"
        },
        {
          "internalType": "uint256",
          "name": "pLimitPrice",
          "type": "uint256"
        },
        {
          "internalType": "uint256",
          "name": "lLimitPrice",
          "type": "uint256"
        },
        {
          "internalType": "uint256",
          "name": "closePrice",
          "type": "uint256"
        },
        {
          "internalType": "uint256",
          "name": "closeTime",
          "type": "uint256"
        }
      ],
      "stateMutability": "view",
      "type": "function"
    },
    {
      "inputs": [
        {
          "internalType": "address",
          "name": "",
          "type": "address"
        },
        {
          "internalType": "uint256",
          "name": "",
          "type": "uint256"
        }
      ],
      "name": "allOrderUser",
      "outputs": [
        {
          "internalType": "bytes32",
          "name": "",
          "type": "bytes32"
        }
      ],
      "stateMutability": "view",
      "type": "function"
    },
    {
      "inputs": [],
      "name": "owner",
      "outputs": [
        {
          "internalType": "address",
          "name": "",
          "type": "address"
        }
      ],
      "stateMutability": "view",
      "type": "function"
    },
    {
      "inputs": [],
      "name": "poolAddr",
      "outputs": [
        {
          "internalType": "address",
          "name": "",
          "type": "address"
        }
      ],
      "stateMutability": "view",
      "type": "function"
    },
    {
      "inputs": [],
      "name": "quoteFactoryAddr",
      "outputs": [
        {
          "internalType": "address",
          "name": "",
          "type": "address"
        }
      ],
      "stateMutability": "view",
      "type": "function"
    },
    {
      "inputs": [],
      "name": "renounceOwnership",
      "outputs": [],
      "stateMutability": "nonpayable",
      "type": "function"
    },
    {
      "inputs": [],
      "name": "tokenAddr",
      "outputs": [
        {
          "internalType": "address",
          "name": "",
          "type": "address"
        }
      ],
      "stateMutability": "view",
      "type": "function"
    },
    {
      "inputs": [
        {
          "internalType": "address",
          "name": "newOwner",
          "type": "address"
        }
      ],
      "name": "transferOwnership",
      "outputs": [],
      "stateMutability": "nonpayable",
      "type": "function"
    },
    {
      "inputs": [
        {
          "internalType": "address",
          "name": "_tokenAddr",
          "type": "address"
        },
        {
          "internalType": "address",
          "name": "_poolAddr",
          "type": "address"
        }
      ],
      "name": "initialize",
      "outputs": [],
      "stateMutability": "nonpayable",
      "type": "function"
    },
    {
      "inputs": [
        {
          "internalType": "address",
          "name": "_userAddress",
          "type": "address"
        },
        {
          "internalType": "uint8",
          "name": "status",
          "type": "uint8"
        }
      ],
      "name": "getAllOrder",
      "outputs": [
        {
          "components": [
            {
              "internalType": "address",
              "name": "userAddr",
              "type": "address"
            },
            {
              "internalType": "string",
              "name": "symbol",
              "type": "string"
            },
            {
              "internalType": "uint256",
              "name": "tokenAmount",
              "type": "uint256"
            },
            {
              "internalType": "uint256",
              "name": "lever",
              "type": "uint256"
            },
            {
              "internalType": "uint256",
              "name": "bsFlag",
              "type": "uint256"
            },
            {
              "internalType": "uint256",
              "name": "openPrice",
              "type": "uint256"
            },
            {
              "internalType": "uint256",
              "name": "openTime",
              "type": "uint256"
            },
            {
              "internalType": "uint256",
              "name": "pLimitPrice",
              "type": "uint256"
            },
            {
              "internalType": "uint256",
              "name": "lLimitPrice",
              "type": "uint256"
            },
            {
              "internalType": "uint256",
              "name": "closePrice",
              "type": "uint256"
            },
            {
              "internalType": "uint256",
              "name": "closeTime",
              "type": "uint256"
            }
          ],
          "internalType": "struct SwapTrade.SwapOrder[]",
          "name": "orders",
          "type": "tuple[]"
        }
      ],
      "stateMutability": "view",
      "type": "function"
    },
    {
      "inputs": [
        {
          "internalType": "address",
          "name": "_userAddress",
          "type": "address"
        },
        {
          "internalType": "uint8",
          "name": "status",
          "type": "uint8"
        }
      ],
      "name": "getAllLimitOrder",
      "outputs": [
        {
          "components": [
            {
              "internalType": "address",
              "name": "userAddr",
              "type": "address"
            },
            {
              "internalType": "string",
              "name": "symbol",
              "type": "string"
            },
            {
              "internalType": "uint256",
              "name": "tokenAmount",
              "type": "uint256"
            },
            {
              "internalType": "uint256",
              "name": "lever",
              "type": "uint256"
            },
            {
              "internalType": "uint256",
              "name": "bsFlag",
              "type": "uint256"
            },
            {
              "internalType": "uint256",
              "name": "openPrice",
              "type": "uint256"
            },
            {
              "internalType": "uint256",
              "name": "openTime",
              "type": "uint256"
            },
            {
              "internalType": "uint256",
              "name": "newPrice",
              "type": "uint256"
            },
            {
              "internalType": "uint256",
              "name": "pLimitPrice",
              "type": "uint256"
            },
            {
              "internalType": "uint256",
              "name": "lLimitPrice",
              "type": "uint256"
            },
            {
              "internalType": "uint256",
              "name": "closeTime",
              "type": "uint256"
            },
            {
              "internalType": "uint256",
              "name": "status",
              "type": "uint256"
            }
          ],
          "internalType": "struct SwapTrade.SwapLimitOrder[]",
          "name": "orders",
          "type": "tuple[]"
        }
      ],
      "stateMutability": "view",
      "type": "function"
    },
    {
      "inputs": [
        {
          "internalType": "address",
          "name": "_userAddr",
          "type": "address"
        },
        {
          "internalType": "string",
          "name": "_symbol",
          "type": "string"
        },
        {
          "internalType": "uint256",
          "name": "_limitPrice",
          "type": "uint256"
        },
        {
          "internalType": "uint256",
          "name": "_tokenAmount",
          "type": "uint256"
        },
        {
          "internalType": "uint256",
          "name": "_lever",
          "type": "uint256"
        },
        {
          "internalType": "uint256",
          "name": "_bsFlag",
          "type": "uint256"
        },
        {
          "internalType": "uint256",
          "name": "_pLimitPrice",
          "type": "uint256"
        },
        {
          "internalType": "uint256",
          "name": "_lLimitPrice",
          "type": "uint256"
        }
      ],
      "name": "openLimitSwap",
      "outputs": [
        {
          "internalType": "bytes32",
          "name": "",
          "type": "bytes32"
        },
        {
          "internalType": "uint256",
          "name": "",
          "type": "uint256"
        }
      ],
      "stateMutability": "nonpayable",
      "type": "function"
    },
    {
      "inputs": [
        {
          "internalType": "address",
          "name": "_userAddr",
          "type": "address"
        },
        {
          "internalType": "bytes32",
          "name": "_orderID",
          "type": "bytes32"
        }
      ],
      "name": "cancelLimitSwap",
      "outputs": [
        {
          "internalType": "uint256",
          "name": "tokenAmount",
          "type": "uint256"
        }
      ],
      "stateMutability": "nonpayable",
      "type": "function"
    },
    {
      "inputs": [
        {
          "internalType": "bytes32",
          "name": "_orderID",
          "type": "bytes32"
        },
        {
          "internalType": "uint256",
          "name": "_blockIndex",
          "type": "uint256"
        }
      ],
      "name": "tradeLimitSwap",
      "outputs": [
        {
          "internalType": "bool",
          "name": "success",
          "type": "bool"
        },
        {
          "internalType": "address",
          "name": "userAddr",
          "type": "address"
        },
        {
          "internalType": "uint256",
          "name": "tokenAmount",
          "type": "uint256"
        }
      ],
      "stateMutability": "nonpayable",
      "type": "function"
    },
    {
      "inputs": [
        {
          "internalType": "address",
          "name": "_userAddr",
          "type": "address"
        },
        {
          "internalType": "string",
          "name": "_symbol",
          "type": "string"
        },
        {
          "internalType": "uint256",
          "name": "_tokenAmount",
          "type": "uint256"
        },
        {
          "internalType": "uint256",
          "name": "_lever",
          "type": "uint256"
        },
        {
          "internalType": "uint256",
          "name": "_bsFlag",
          "type": "uint256"
        },
        {
          "internalType": "uint256",
          "name": "_pLimitPrice",
          "type": "uint256"
        },
        {
          "internalType": "uint256",
          "name": "_lLimitPrice",
          "type": "uint256"
        },
        {
          "internalType": "uint256",
          "name": "_maxPrice",
          "type": "uint256"
        }
      ],
      "name": "openMarketSwap",
      "outputs": [
        {
          "internalType": "bytes32",
          "name": "",
          "type": "bytes32"
        },
        {
          "internalType": "uint256",
          "name": "",
          "type": "uint256"
        }
      ],
      "stateMutability": "nonpayable",
      "type": "function"
    },
    {
      "inputs": [
        {
          "internalType": "address",
          "name": "_userAddr",
          "type": "address"
        },
        {
          "internalType": "bytes32",
          "name": "_orderID",
          "type": "bytes32"
        }
      ],
      "name": "closeMarketSwap",
      "outputs": [
        {
          "internalType": "uint256",
          "name": "closePrice",
          "type": "uint256"
        },
        {
          "internalType": "uint256",
          "name": "plFlag",
          "type": "uint256"
        },
        {
          "internalType": "uint256",
          "name": "plAmount",
          "type": "uint256"
        },
        {
          "internalType": "uint256",
          "name": "tokenAmount",
          "type": "uint256"
        }
      ],
      "stateMutability": "nonpayable",
      "type": "function"
    },
    {
      "inputs": [
        {
          "internalType": "bytes32",
          "name": "_orderID",
          "type": "bytes32"
        },
        {
          "internalType": "uint256",
          "name": "_blockIndex",
          "type": "uint256"
        }
      ],
      "name": "closeLimitSwap",
      "outputs": [
        {
          "internalType": "bool",
          "name": "success",
          "type": "bool"
        },
        {
          "internalType": "address",
          "name": "userAddr",
          "type": "address"
        },
        {
          "internalType": "uint256",
          "name": "closePrice",
          "type": "uint256"
        },
        {
          "internalType": "uint256",
          "name": "closeType",
          "type": "uint256"
        },
        {
          "internalType": "uint256",
          "name": "plFlag",
          "type": "uint256"
        },
        {
          "internalType": "uint256",
          "name": "plAmount",
          "type": "uint256"
        },
        {
          "internalType": "uint256",
          "name": "tokenAmount",
          "type": "uint256"
        }
      ],
      "stateMutability": "nonpayable",
      "type": "function"
    },
    {
      "inputs": [
        {
          "internalType": "address",
          "name": "_userAddr",
          "type": "address"
        },
        {
          "internalType": "bytes32",
          "name": "_orderID",
          "type": "bytes32"
        },
        {
          "internalType": "uint256",
          "name": "_pLimitPrice",
          "type": "uint256"
        },
        {
          "internalType": "uint256",
          "name": "_lLimitPrice",
          "type": "uint256"
        }
      ],
      "name": "updateSwapByPrice",
      "outputs": [
        {
          "internalType": "uint256",
          "name": "pLimitRate",
          "type": "uint256"
        },
        {
          "internalType": "uint256",
          "name": "lLimitRate",
          "type": "uint256"
        }
      ],
      "stateMutability": "nonpayable",
      "type": "function"
    },
    {
      "inputs": [
        {
          "internalType": "address",
          "name": "_userAddr",
          "type": "address"
        },
        {
          "internalType": "bytes32",
          "name": "_orderID",
          "type": "bytes32"
        },
        {
          "internalType": "uint256",
          "name": "_pLimitRate",
          "type": "uint256"
        },
        {
          "internalType": "uint256",
          "name": "_lLimitRate",
          "type": "uint256"
        }
      ],
      "name": "updateSwapByRate",
      "outputs": [
        {
          "internalType": "uint256",
          "name": "pLimitPrice",
          "type": "uint256"
        },
        {
          "internalType": "uint256",
          "name": "lLimitPrice",
          "type": "uint256"
        }
      ],
      "stateMutability": "nonpayable",
      "type": "function"
    },
    {
      "inputs": [
        {
          "internalType": "string",
          "name": "_symbol",
          "type": "string"
        }
      ],
      "name": "getNewPrice",
      "outputs": [
        {
          "internalType": "uint256",
          "name": "newPrice",
          "type": "uint256"
        },
        {
          "internalType": "uint256",
          "name": "priceTime",
          "type": "uint256"
        }
      ],
      "stateMutability": "view",
      "type": "function"
    },
    {
      "inputs": [
        {
          "internalType": "string",
          "name": "_symbol",
          "type": "string"
        },
        {
          "internalType": "uint256",
          "name": "_blockIndex",
          "type": "uint256"
        }
      ],
      "name": "getLastPrice",
      "outputs": [
        {
          "internalType": "uint256",
          "name": "newPrice",
          "type": "uint256"
        },
        {
          "internalType": "uint256",
          "name": "priceTime",
          "type": "uint256"
        }
      ],
      "stateMutability": "view",
      "type": "function"
    }
  ],
  "bytecode": "0x60806040523480156200001157600080fd5b50600062000024620000c860201b60201c565b9050806000806101000a81548173ffffffffffffffffffffffffffffffffffffffff021916908373ffffffffffffffffffffffffffffffffffffffff1602179055508073ffffffffffffffffffffffffffffffffffffffff16600073ffffffffffffffffffffffffffffffffffffffff167f8be0079c531659141344cd1fd0a4f28419497f9722a3daafe3b4186f6b6457e060405160405180910390a350620000d0565b600033905090565b614de180620000e06000396000f3fe608060405234801561001057600080fd5b506004361061014d5760003560e01c8063715018a6116100c357806395e71c501161007c57806395e71c501461042b578063afcfb11a14610466578063d4a06b8714610484578063e8084a87146104b5578063f2fde38b146104e6578063fd0ceefb146105025761014d565b8063715018a6146103425780637593ce721461034c57806384433e6e1461037c57806386239ca7146103ac5780638da5cb5b146103dc578063908219c6146103fa5761014d565b80633477255711610115578063347725571461024d57806339cbd01f1461027e5780633d3f2517146102b8578063485cc955146102ea5780635fbe4d1d146103065780636046cd99146103245761014d565b80631e2a565b1461015257806322dbfdca1461018557806326b3e792146101bb57806327428feb146101ec57806333a7eb5b1461021c575b600080fd5b61016c60048036038101906101679190613a53565b610532565b60405161017c9493929190614b60565b60405180910390f35b61019f600480360381019061019a9190613c5d565b6107b5565b6040516101b297969594939291906147e1565b60405180910390f35b6101d560048036038101906101d09190613a8f565b610a5b565b6040516101e3929190614ac1565b60405180910390f35b61020660048036038101906102019190613bf8565b610d84565b6040516102139190614766565b60405180910390f35b61023660048036038101906102319190613af2565b6112a0565b60405161024492919061486b565b60405180910390f35b61026760048036038101906102629190613a8f565b6115a6565b604051610275929190614ac1565b60405180910390f35b61029860048036038101906102939190613c34565b611774565b6040516102af9b9a999897969594939291906145f3565b60405180910390f35b6102d260048036038101906102cd9190613c5d565b611886565b6040516102e1939291906147aa565b60405180910390f35b61030460048036038101906102ff9190613a17565b611d80565b005b61030e611f7d565b60405161031b91906145d8565b60405180910390f35b61032c611fa3565b60405161033991906145d8565b60405180910390f35b61034a611fc9565b005b61036660048036038101906103619190613bbc565b61211c565b6040516103739190614850565b60405180910390f35b61039660048036038101906103919190613bbc565b61214a565b6040516103a39190614850565b60405180910390f35b6103c660048036038101906103c19190613bf8565b612178565b6040516103d39190614788565b60405180910390f35b6103e461267a565b6040516103f191906145d8565b60405180910390f35b610414600480360381019061040f9190613af2565b6126a3565b60405161042292919061486b565b60405180910390f35b61044560048036038101906104409190613c34565b612a4f565b60405161045d9c9b9a999897969594939291906146a5565b60405180910390f35b61046e612b67565b60405161047b91906145d8565b60405180910390f35b61049e60048036038101906104999190613cda565b612b8d565b6040516104ac929190614ac1565b60405180910390f35b6104cf60048036038101906104ca9190613c99565b612c92565b6040516104dd929190614ac1565b60405180910390f35b61050060048036038101906104fb91906139c5565b612d50565b005b61051c60048036038101906105179190613a53565b612f12565b6040516105299190614aa6565b60405180910390f35b6000806000806105406130ba565b73ffffffffffffffffffffffffffffffffffffffff1660008054906101000a900473ffffffffffffffffffffffffffffffffffffffff1673ffffffffffffffffffffffffffffffffffffffff16146105cd576040517f08c379a00000000000000000000000000000000000000000000000000000000081526004016105c490614a46565b60405180910390fd5b60006004600087815260200190815260200160002090508673ffffffffffffffffffffffffffffffffffffffff168160000160009054906101000a900473ffffffffffffffffffffffffffffffffffffffff1673ffffffffffffffffffffffffffffffffffffffff1614610676576040517f08c379a000000000000000000000000000000000000000000000000000000000815260040161066d90614a06565b60405180910390fd5b60008160090154146106bd576040517f08c379a00000000000000000000000000000000000000000000000000000000081526004016106b4906149a6565b60405180910390fd5b6000610764826001018054600181600116156101000203166002900480601f01602080910402602001604051908101604052809291908181526020018280546001816001161561010002031660029004801561075a5780601f1061072f5761010080835404028352916020019161075a565b820191906000526020600020905b81548152906001019060200180831161073d57829003601f168201915b5050505050612c92565b80925081975050508160020154925061079082600401548360020154846003015485600501548a6130c2565b80955081965050508582600901819055508082600a0181905550505092959194509250565b60008060008060008060006107c86130ba565b73ffffffffffffffffffffffffffffffffffffffff1660008054906101000a900473ffffffffffffffffffffffffffffffffffffffff1673ffffffffffffffffffffffffffffffffffffffff1614610855576040517f08c379a000000000000000000000000000000000000000000000000000000000815260040161084c90614a46565b60405180910390fd5b6000600460008b8152602001908152602001600020905060008160090154146108b3576040517f08c379a00000000000000000000000000000000000000000000000000000000081526004016108aa906149a6565b60405180910390fd5b60008061095c836001018054600181600116156101000203166002900480601f0160208091040260200160405190810160405280929190818152602001828054600181600116156101000203166002900480156109515780601f1061092657610100808354040283529160200191610951565b820191906000526020600020905b81548152906001019060200180831161093457829003601f168201915b50505050508c612b8d565b91509150808360060154106109a6576040517f08c379a000000000000000000000000000000000000000000000000000000000815260040161099d906149c6565b60405180910390fd5b6109cd8360040154846005015485600301548660020154876007015488600801548861324c565b809950819a50829c50505050600115158a15151415610a4c57826002015493508260000160009054906101000a900473ffffffffffffffffffffffffffffffffffffffff169850610a3183600401548460020154856003015486600501548c6130c2565b80965081975050508783600901819055508083600a01819055505b50505092959891949750929550565b600080610a666130ba565b73ffffffffffffffffffffffffffffffffffffffff1660008054906101000a900473ffffffffffffffffffffffffffffffffffffffff1673ffffffffffffffffffffffffffffffffffffffff1614610af3576040517f08c379a0000000000000000000000000000000000000000000000000000000008152600401610aea90614a46565b60405180910390fd5b60006004600087815260200190815260200160002090508673ffffffffffffffffffffffffffffffffffffffff168160000160009054906101000a900473ffffffffffffffffffffffffffffffffffffffff1673ffffffffffffffffffffffffffffffffffffffff1614610b9c576040517f08c379a0000000000000000000000000000000000000000000000000000000008152600401610b9390614a06565b60405180910390fd5b6000816009015414610be3576040517f08c379a0000000000000000000000000000000000000000000000000000000008152600401610bda906149a6565b60405180910390fd5b600181600401541415610c9957600085118015610c035750806005015485105b610c42576040517f08c379a0000000000000000000000000000000000000000000000000000000008152600401610c39906148e6565b60405180910390fd5b600084118015610c555750806005015484115b610c94576040517f08c379a0000000000000000000000000000000000000000000000000000000008152600401610c8b90614926565b60405180910390fd5b610d3e565b600085118015610cac5750806005015485115b610ceb576040517f08c379a0000000000000000000000000000000000000000000000000000000008152600401610ce2906148e6565b60405180910390fd5b600084118015610cfe5750806005015484105b610d3d576040517f08c379a0000000000000000000000000000000000000000000000000000000008152600401610d3490614926565b60405180910390fd5b5b610d5181600401548260050154876132e9565b9250610d6681600401548260050154866132e9565b91508481600701819055508381600801819055505094509492505050565b606080600760008573ffffffffffffffffffffffffffffffffffffffff1673ffffffffffffffffffffffffffffffffffffffff168152602001908152602001600020805480602002602001604051908101604052809291908181526020018280548015610e1057602002820191906000526020600020905b815481526020019060010190808311610dfc575b505050505090506000805b825181101561102057610e2c61374d565b60066000858481518110610e3c57fe5b60200260200101518152602001908152602001600020604051806101800160405290816000820160009054906101000a900473ffffffffffffffffffffffffffffffffffffffff1673ffffffffffffffffffffffffffffffffffffffff1673ffffffffffffffffffffffffffffffffffffffff168152602001600182018054600181600116156101000203166002900480601f016020809104026020016040519081016040528092919081815260200182805460018160011615610100020316600290048015610f4d5780601f10610f2257610100808354040283529160200191610f4d565b820191906000526020600020905b815481529060010190602001808311610f3057829003601f168201915b505050505081526020016002820154815260200160038201548152602001600482015481526020016005820154815260200160068201548152602001600782015481526020016008820154815260200160098201548152602001600a8201548152602001600b82015481525050905060008660ff161480610fd557508061016001518660ff16145b80611004575060048660ff1614801561100357506001816101600151148061100257506003816101600151145b5b5b156110125782806001019350505b508080600101915050610e1b565b508067ffffffffffffffff8111801561103857600080fd5b5060405190808252806020026020018201604052801561107257816020015b61105f61374d565b8152602001906001900390816110575790505b5092506000805b83518110156112965761108a61374d565b6006600086848151811061109a57fe5b60200260200101518152602001908152602001600020604051806101800160405290816000820160009054906101000a900473ffffffffffffffffffffffffffffffffffffffff1673ffffffffffffffffffffffffffffffffffffffff1673ffffffffffffffffffffffffffffffffffffffff168152602001600182018054600181600116156101000203166002900480601f0160208091040260200160405190810160405280929190818152602001828054600181600116156101000203166002900480156111ab5780601f10611180576101008083540402835291602001916111ab565b820191906000526020600020905b81548152906001019060200180831161118e57829003601f168201915b505050505081526020016002820154815260200160038201548152602001600482015481526020016005820154815260200160068201548152602001600782015481526020016008820154815260200160098201548152602001600a8201548152602001600b82015481525050905060008760ff16148061123357508061016001518760ff16145b80611262575060048760ff1614801561126157506001816101600151148061126057506003816101600151145b5b5b15611288578086848151811061127457fe5b602002602001018190525082806001019350505b508080600101915050611079565b5050505092915050565b6000806112ab6130ba565b73ffffffffffffffffffffffffffffffffffffffff1660008054906101000a900473ffffffffffffffffffffffffffffffffffffffff1673ffffffffffffffffffffffffffffffffffffffff1614611338576040517f08c379a000000000000000000000000000000000000000000000000000000000815260040161132f90614a46565b60405180910390fd5b6113406137c4565b6113498a612c92565b8260006002811061135657fe5b602002018360016002811061136757fe5b60200201828152508281525050506000435a8d8d8c8c8c6040516020016113949796959493929190614aea565b6040516020818303038152906040528051906020012090506040518061018001604052808d73ffffffffffffffffffffffffffffffffffffffff1681526020018c81526020018a81526020018981526020018881526020018b8152602001836001600281106113ff57fe5b602002015181526020018360006002811061141657fe5b602002015181526020018781526020018681526020016000815260200160028152506006600083815260200190815260200160002060008201518160000160006101000a81548173ffffffffffffffffffffffffffffffffffffffff021916908373ffffffffffffffffffffffffffffffffffffffff16021790555060208201518160010190805190602001906114ae9291906137e6565b5060408201518160020155606082015181600301556080820151816004015560a0820151816005015560c0820151816006015560e082015181600701556101008201518160080155610120820151816009015561014082015181600a015561016082015181600b0155905050600760008d73ffffffffffffffffffffffffffffffffffffffff1673ffffffffffffffffffffffffffffffffffffffff168152602001908152602001600020819080600181540180825580915050600190039060005260206000200160009091909190915055808260006002811061158e57fe5b60200201519350935050509850989650505050505050565b6000806115b16130ba565b73ffffffffffffffffffffffffffffffffffffffff1660008054906101000a900473ffffffffffffffffffffffffffffffffffffffff1673ffffffffffffffffffffffffffffffffffffffff161461163e576040517f08c379a000000000000000000000000000000000000000000000000000000000815260040161163590614a46565b60405180910390fd5b60006004600087815260200190815260200160002090508673ffffffffffffffffffffffffffffffffffffffff168160000160009054906101000a900473ffffffffffffffffffffffffffffffffffffffff1673ffffffffffffffffffffffffffffffffffffffff16146116e7576040517f08c379a00000000000000000000000000000000000000000000000000000000081526004016116de90614a06565b60405180910390fd5b600081600901541461172e576040517f08c379a0000000000000000000000000000000000000000000000000000000008152600401611725906149a6565b60405180910390fd5b611741816004015482600501548761337e565b9250611756816004015482600501548661337e565b91508281600701819055508181600801819055505094509492505050565b60046020528060005260406000206000915090508060000160009054906101000a900473ffffffffffffffffffffffffffffffffffffffff1690806001018054600181600116156101000203166002900480601f0160208091040260200160405190810160405280929190818152602001828054600181600116156101000203166002900480156118465780601f1061181b57610100808354040283529160200191611846565b820191906000526020600020905b81548152906001019060200180831161182957829003601f168201915b50505050509080600201549080600301549080600401549080600501549080600601549080600701549080600801549080600901549080600a015490508b565b60008060006118936130ba565b73ffffffffffffffffffffffffffffffffffffffff1660008054906101000a900473ffffffffffffffffffffffffffffffffffffffff1673ffffffffffffffffffffffffffffffffffffffff1614611920576040517f08c379a000000000000000000000000000000000000000000000000000000000815260040161191790614a46565b60405180910390fd5b6000600660008781526020019081526020016000209050600281600b01541461197e576040517f08c379a000000000000000000000000000000000000000000000000000000000815260040161197590614a66565b60405180910390fd5b600080611a27836001018054600181600116156101000203166002900480601f016020809104026020016040519081016040528092919081815260200182805460018160011615610100020316600290048015611a1c5780601f106119f157610100808354040283529160200191611a1c565b820191906000526020600020905b8154815290600101906020018083116119ff57829003601f168201915b505050505088612b8d565b9150915080836006015410611a71576040517f08c379a0000000000000000000000000000000000000000000000000000000008152600401611a68906149c6565b60405180910390fd5b611a8483600701548460050154846133f4565b9550600115158615151415611d7657826002015493508260000160009054906101000a900473ffffffffffffffffffffffffffffffffffffffff1694508083600a0181905550600383600b01819055506040518061016001604052808460000160009054906101000a900473ffffffffffffffffffffffffffffffffffffffff1673ffffffffffffffffffffffffffffffffffffffff168152602001846001018054600181600116156101000203166002900480601f016020809104026020016040519081016040528092919081815260200182805460018160011615610100020316600290048015611bb85780601f10611b8d57610100808354040283529160200191611bb8565b820191906000526020600020905b815481529060010190602001808311611b9b57829003601f168201915b505050505081526020018460020154815260200184600301548152602001846004015481526020018460050154815260200184600a015481526020018460080154815260200184600901548152602001600081526020016000815250600460008a815260200190815260200160002060008201518160000160006101000a81548173ffffffffffffffffffffffffffffffffffffffff021916908373ffffffffffffffffffffffffffffffffffffffff1602179055506020820151816001019080519060200190611c8a9291906137e6565b5060408201518160020155606082015181600301556080820151816004015560a0820151816005015560c0820151816006015560e082015181600701556101008201518160080155610120820151816009015561014082015181600a0155905050600560008460000160009054906101000a900473ffffffffffffffffffffffffffffffffffffffff1673ffffffffffffffffffffffffffffffffffffffff1673ffffffffffffffffffffffffffffffffffffffff1681526020019081526020016000208890806001815401808255809150506001900390600052602060002001600090919091909150555b5050509250925092565b611d886130ba565b73ffffffffffffffffffffffffffffffffffffffff1660008054906101000a900473ffffffffffffffffffffffffffffffffffffffff1673ffffffffffffffffffffffffffffffffffffffff1614611e15576040517f08c379a0000000000000000000000000000000000000000000000000000000008152600401611e0c90614a46565b60405180910390fd5b81600160006101000a81548173ffffffffffffffffffffffffffffffffffffffff021916908373ffffffffffffffffffffffffffffffffffffffff16021790555080600260006101000a81548173ffffffffffffffffffffffffffffffffffffffff021916908373ffffffffffffffffffffffffffffffffffffffff160217905550600260009054906101000a900473ffffffffffffffffffffffffffffffffffffffff1673ffffffffffffffffffffffffffffffffffffffff166358aafa3d6040518163ffffffff1660e01b8152600401602060405180830381600087803b158015611f0157600080fd5b505af1158015611f15573d6000803e3d6000fd5b505050506040513d601f19601f82011682018060405250810190611f3991906139ee565b600360006101000a81548173ffffffffffffffffffffffffffffffffffffffff021916908373ffffffffffffffffffffffffffffffffffffffff1602179055505050565b600160009054906101000a900473ffffffffffffffffffffffffffffffffffffffff1681565b600260009054906101000a900473ffffffffffffffffffffffffffffffffffffffff1681565b611fd16130ba565b73ffffffffffffffffffffffffffffffffffffffff1660008054906101000a900473ffffffffffffffffffffffffffffffffffffffff1673ffffffffffffffffffffffffffffffffffffffff161461205e576040517f08c379a000000000000000000000000000000000000000000000000000000000815260040161205590614a46565b60405180910390fd5b600073ffffffffffffffffffffffffffffffffffffffff1660008054906101000a900473ffffffffffffffffffffffffffffffffffffffff1673ffffffffffffffffffffffffffffffffffffffff167f8be0079c531659141344cd1fd0a4f28419497f9722a3daafe3b4186f6b6457e060405160405180910390a360008060006101000a81548173ffffffffffffffffffffffffffffffffffffffff021916908373ffffffffffffffffffffffffffffffffffffffff160217905550565b6007602052816000526040600020818154811061213557fe5b90600052602060002001600091509150505481565b6005602052816000526040600020818154811061216357fe5b90600052602060002001600091509150505481565b606080600560008573ffffffffffffffffffffffffffffffffffffffff1673ffffffffffffffffffffffffffffffffffffffff16815260200190815260200160002080548060200260200160405190810160405280929190818152602001828054801561220457602002820191906000526020600020905b8154815260200190600101908083116121f0575b505050505090506000805b825181101561240757612220613866565b6004600085848151811061223057fe5b60200260200101518152602001908152602001600020604051806101600160405290816000820160009054906101000a900473ffffffffffffffffffffffffffffffffffffffff1673ffffffffffffffffffffffffffffffffffffffff1673ffffffffffffffffffffffffffffffffffffffff168152602001600182018054600181600116156101000203166002900480601f0160208091040260200160405190810160405280929190818152602001828054600181600116156101000203166002900480156123415780601f1061231657610100808354040283529160200191612341565b820191906000526020600020905b81548152906001019060200180831161232457829003601f168201915b505050505081526020016002820154815260200160038201548152602001600482015481526020016005820154815260200160068201548152602001600782015481526020016008820154815260200160098201548152602001600a82015481525050905060008660ff1614806123cc575060018660ff161480156123cb57506000816101200151115b5b806123eb575060028660ff161480156123ea57506000816101200151145b5b156123f95782806001019350505b50808060010191505061220f565b508067ffffffffffffffff8111801561241f57600080fd5b5060405190808252806020026020018201604052801561245957816020015b612446613866565b81526020019060019003908161243e5790505b5092506000805b835181101561267057612471613866565b6004600086848151811061248157fe5b60200260200101518152602001908152602001600020604051806101600160405290816000820160009054906101000a900473ffffffffffffffffffffffffffffffffffffffff1673ffffffffffffffffffffffffffffffffffffffff1673ffffffffffffffffffffffffffffffffffffffff168152602001600182018054600181600116156101000203166002900480601f0160208091040260200160405190810160405280929190818152602001828054600181600116156101000203166002900480156125925780601f1061256757610100808354040283529160200191612592565b820191906000526020600020905b81548152906001019060200180831161257557829003601f168201915b505050505081526020016002820154815260200160038201548152602001600482015481526020016005820154815260200160068201548152602001600782015481526020016008820154815260200160098201548152602001600a82015481525050905060008760ff16148061261d575060018760ff1614801561261c57506000816101200151115b5b8061263c575060028760ff1614801561263b57506000816101200151145b5b15612662578086848151811061264e57fe5b602002602001018190525082806001019350505b508080600101915050612460565b5050505092915050565b60008060009054906101000a900473ffffffffffffffffffffffffffffffffffffffff16905090565b6000806126ae6130ba565b73ffffffffffffffffffffffffffffffffffffffff1660008054906101000a900473ffffffffffffffffffffffffffffffffffffffff1673ffffffffffffffffffffffffffffffffffffffff161461273b576040517f08c379a000000000000000000000000000000000000000000000000000000000815260040161273290614a46565b60405180910390fd5b6127436137c4565b61274c8a612c92565b8260006002811061275957fe5b602002018360016002811061276a57fe5b602002018281525082815250505060018714156127da57838160006002811061278f57fe5b602002015110156127d5576040517f08c379a00000000000000000000000000000000000000000000000000000000081526004016127cc90614a86565b60405180910390fd5b61282f565b83816000600281106127e857fe5b6020020151111561282e576040517f08c379a000000000000000000000000000000000000000000000000000000000815260040161282590614a86565b60405180910390fd5b5b6000435a8d8d8d8d8d60405160200161284e9796959493929190614aea565b6040516020818303038152906040528051906020012090506040518061016001604052808d73ffffffffffffffffffffffffffffffffffffffff1681526020018c81526020018b81526020018a8152602001898152602001836000600281106128b357fe5b60200201518152602001836001600281106128ca57fe5b602002015181526020018881526020018781526020016000815260200160008152506004600083815260200190815260200160002060008201518160000160006101000a81548173ffffffffffffffffffffffffffffffffffffffff021916908373ffffffffffffffffffffffffffffffffffffffff16021790555060208201518160010190805190602001906129629291906137e6565b5060408201518160020155606082015181600301556080820151816004015560a0820151816005015560c0820151816006015560e082015181600701556101008201518160080155610120820151816009015561014082015181600a0155905050600560008d73ffffffffffffffffffffffffffffffffffffffff1673ffffffffffffffffffffffffffffffffffffffff1681526020019081526020016000208190806001815401808255809150506001900390600052602060002001600090919091909150558082600060028110612a3757fe5b60200201519350935050509850989650505050505050565b60066020528060005260406000206000915090508060000160009054906101000a900473ffffffffffffffffffffffffffffffffffffffff1690806001018054600181600116156101000203166002900480601f016020809104026020016040519081016040528092919081815260200182805460018160011615610100020316600290048015612b215780601f10612af657610100808354040283529160200191612b21565b820191906000526020600020905b815481529060010190602001808311612b0457829003601f168201915b50505050509080600201549080600301549080600401549080600501549080600601549080600701549080600801549080600901549080600a01549080600b015490508c565b600360009054906101000a900473ffffffffffffffffffffffffffffffffffffffff1681565b600080600360009054906101000a900473ffffffffffffffffffffffffffffffffffffffff1673ffffffffffffffffffffffffffffffffffffffff1663d4a06b8785856040518363ffffffff1660e01b8152600401612bed9291906148b6565b60606040518083038186803b158015612c0557600080fd5b505afa158015612c19573d6000803e3d6000fd5b505050506040513d601f19601f82011682018060405250810190612c3d9190613d2e565b909150809250819350505060008211612c8b576040517f08c379a0000000000000000000000000000000000000000000000000000000008152600401612c82906149e6565b60405180910390fd5b9250929050565b600080600360009054906101000a900473ffffffffffffffffffffffffffffffffffffffff1673ffffffffffffffffffffffffffffffffffffffff1663e8084a87846040518263ffffffff1660e01b8152600401612cf09190614894565b60606040518083038186803b158015612d0857600080fd5b505afa158015612d1c573d6000803e3d6000fd5b505050506040513d601f19601f82011682018060405250810190612d409190613d2e565b9091508092508193505050915091565b612d586130ba565b73ffffffffffffffffffffffffffffffffffffffff1660008054906101000a900473ffffffffffffffffffffffffffffffffffffffff1673ffffffffffffffffffffffffffffffffffffffff1614612de5576040517f08c379a0000000000000000000000000000000000000000000000000000000008152600401612ddc90614a46565b60405180910390fd5b600073ffffffffffffffffffffffffffffffffffffffff168173ffffffffffffffffffffffffffffffffffffffff161415612e55576040517f08c379a0000000000000000000000000000000000000000000000000000000008152600401612e4c90614966565b60405180910390fd5b8073ffffffffffffffffffffffffffffffffffffffff1660008054906101000a900473ffffffffffffffffffffffffffffffffffffffff1673ffffffffffffffffffffffffffffffffffffffff167f8be0079c531659141344cd1fd0a4f28419497f9722a3daafe3b4186f6b6457e060405160405180910390a3806000806101000a81548173ffffffffffffffffffffffffffffffffffffffff021916908373ffffffffffffffffffffffffffffffffffffffff16021790555050565b6000612f1c6130ba565b73ffffffffffffffffffffffffffffffffffffffff1660008054906101000a900473ffffffffffffffffffffffffffffffffffffffff1673ffffffffffffffffffffffffffffffffffffffff1614612fa9576040517f08c379a0000000000000000000000000000000000000000000000000000000008152600401612fa090614a46565b60405180910390fd5b60006006600084815260200190815260200160002090508373ffffffffffffffffffffffffffffffffffffffff168160000160009054906101000a900473ffffffffffffffffffffffffffffffffffffffff1673ffffffffffffffffffffffffffffffffffffffff1614613052576040517f08c379a000000000000000000000000000000000000000000000000000000000815260040161304990614906565b60405180910390fd5b600281600b015414613099576040517f08c379a000000000000000000000000000000000000000000000000000000000815260040161309090614946565b60405180910390fd5b806002015491504281600a0181905550600181600b01819055505092915050565b600033905090565b600080600187141561318a578383106131355760009150613122846131146130f3878761342390919063ffffffff16565b613106898b61346d90919063ffffffff16565b61346d90919063ffffffff16565b6134dd90919063ffffffff16565b905085811115613130578590505b613185565b6001915061318284613174613153868861342390919063ffffffff16565b613166898b61346d90919063ffffffff16565b61346d90919063ffffffff16565b6134dd90919063ffffffff16565b90505b613242565b8383106131e557600191506131de846131d06131af878761342390919063ffffffff16565b6131c2898b61346d90919063ffffffff16565b61346d90919063ffffffff16565b6134dd90919063ffffffff16565b9050613241565b6000915061323284613224613203868861342390919063ffffffff16565b613216898b61346d90919063ffffffff16565b61346d90919063ffffffff16565b6134dd90919063ffffffff16565b905085811115613240578590505b5b5b9550959350505050565b600080600061325c8a8786613527565b80935081945050506000151583151514156132d75760006132808b8b8b8b8c613572565b905061328d8b82876135f1565b80945081955050506000151584151514156132cc576132ad8b87876135f1565b80945081955050506001151584151514156132c757600291505b6132d1565b600391505b506132dc565b600190505b9750975097945050505050565b60008082111561337757600184141561333b57613334836133266064613318868861342390919063ffffffff16565b61346d90919063ffffffff16565b6134dd90919063ffffffff16565b9050613376565b613373836133656064613357878761342390919063ffffffff16565b61346d90919063ffffffff16565b6134dd90919063ffffffff16565b90505b5b9392505050565b6000808211156133ed5760006133b060646133a2858761346d90919063ffffffff16565b6134dd90919063ffffffff16565b905060018514156133d5576133ce818561342390919063ffffffff16565b91506133eb565b6133e8818561363c90919063ffffffff16565b91505b505b9392505050565b60008284111561340f5781831061340a57600190505b61341c565b81831161341b57600190505b5b9392505050565b600061346583836040518060400160405280601e81526020017f536166654d6174683a207375627472616374696f6e206f766572666c6f770000815250613691565b905092915050565b60008083141561348057600090506134d7565b600082840290508284828161349157fe5b04146134d2576040517f08c379a00000000000000000000000000000000000000000000000000000000081526004016134c990614a26565b60405180910390fd5b809150505b92915050565b600061351f83836040518060400160405280601a81526020017f536166654d6174683a206469766973696f6e206279207a65726f0000000000008152506136ec565b905092915050565b60008060008411156135655760018514156135505783831161354b57839050600191505b613560565b83831061355f57839050600191505b5b61356a565b600091505b935093915050565b6000806135ac8561359e86613590878b61346d90919063ffffffff16565b6134dd90919063ffffffff16565b6134dd90919063ffffffff16565b905060018714156135d1576135ca818761363c90919063ffffffff16565b91506135e7565b6135e4818761342390919063ffffffff16565b91505b5095945050505050565b600080600084111561362f57600185141561361a5783831061361557839050600191505b61362a565b83831161362957839050600191505b5b613634565b600091505b935093915050565b600080828401905083811015613687576040517f08c379a000000000000000000000000000000000000000000000000000000000815260040161367e90614986565b60405180910390fd5b8091505092915050565b60008383111582906136d9576040517f08c379a00000000000000000000000000000000000000000000000000000000081526004016136d09190614894565b60405180910390fd5b5060008385039050809150509392505050565b60008083118290613733576040517f08c379a000000000000000000000000000000000000000000000000000000000815260040161372a9190614894565b60405180910390fd5b50600083858161373f57fe5b049050809150509392505050565b604051806101800160405280600073ffffffffffffffffffffffffffffffffffffffff16815260200160608152602001600081526020016000815260200160008152602001600081526020016000815260200160008152602001600081526020016000815260200160008152602001600081525090565b6040518060400160405280600290602082028036833780820191505090505090565b828054600181600116156101000203166002900490600052602060002090601f016020900481019282601f1061382757805160ff1916838001178555613855565b82800160010185558215613855579182015b82811115613854578251825591602001919060010190613839565b5b50905061386291906138d6565b5090565b604051806101600160405280600073ffffffffffffffffffffffffffffffffffffffff168152602001606081526020016000815260200160008152602001600081526020016000815260200160008152602001600081526020016000815260200160008152602001600081525090565b5b808211156138ef5760008160009055506001016138d7565b5090565b60008135905061390281614d4f565b92915050565b60008151905061391781614d4f565b92915050565b60008135905061392c81614d66565b92915050565b600082601f83011261394357600080fd5b813561395661395182614bd2565b614ba5565b9150808252602083016020830185838301111561397257600080fd5b61397d838284614cfc565b50505092915050565b60008135905061399581614d7d565b92915050565b6000815190506139aa81614d7d565b92915050565b6000813590506139bf81614d94565b92915050565b6000602082840312156139d757600080fd5b60006139e5848285016138f3565b91505092915050565b600060208284031215613a0057600080fd5b6000613a0e84828501613908565b91505092915050565b60008060408385031215613a2a57600080fd5b6000613a38858286016138f3565b9250506020613a49858286016138f3565b9150509250929050565b60008060408385031215613a6657600080fd5b6000613a74858286016138f3565b9250506020613a858582860161391d565b9150509250929050565b60008060008060808587031215613aa557600080fd5b6000613ab3878288016138f3565b9450506020613ac48782880161391d565b9350506040613ad587828801613986565b9250506060613ae687828801613986565b91505092959194509250565b600080600080600080600080610100898b031215613b0f57600080fd5b6000613b1d8b828c016138f3565b985050602089013567ffffffffffffffff811115613b3a57600080fd5b613b468b828c01613932565b9750506040613b578b828c01613986565b9650506060613b688b828c01613986565b9550506080613b798b828c01613986565b94505060a0613b8a8b828c01613986565b93505060c0613b9b8b828c01613986565b92505060e0613bac8b828c01613986565b9150509295985092959890939650565b60008060408385031215613bcf57600080fd5b6000613bdd858286016138f3565b9250506020613bee85828601613986565b9150509250929050565b60008060408385031215613c0b57600080fd5b6000613c19858286016138f3565b9250506020613c2a858286016139b0565b9150509250929050565b600060208284031215613c4657600080fd5b6000613c548482850161391d565b91505092915050565b60008060408385031215613c7057600080fd5b6000613c7e8582860161391d565b9250506020613c8f85828601613986565b9150509250929050565b600060208284031215613cab57600080fd5b600082013567ffffffffffffffff811115613cc557600080fd5b613cd184828501613932565b91505092915050565b60008060408385031215613ced57600080fd5b600083013567ffffffffffffffff811115613d0757600080fd5b613d1385828601613932565b9250506020613d2485828601613986565b9150509250929050565b600080600060608486031215613d4357600080fd5b6000613d518682870161399b565b9350506020613d628682870161399b565b9250506040613d738682870161399b565b9150509250925092565b6000613d8983836143c7565b905092915050565b6000613d9d83836144cb565b905092915050565b613dae81614c9d565b82525050565b613dbd81614c9d565b82525050565b6000613dce82614c1e565b613dd88185614c59565b935083602082028501613dea85614bfe565b8060005b85811015613e265784840389528151613e078582613d7d565b9450613e1283614c3f565b925060208a01995050600181019050613dee565b50829750879550505050505092915050565b6000613e4382614c29565b613e4d8185614c6a565b935083602082028501613e5f85614c0e565b8060005b85811015613e9b5784840389528151613e7c8582613d91565b9450613e8783614c4c565b925060208a01995050600181019050613e63565b50829750879550505050505092915050565b613eb681614caf565b82525050565b613ec581614cbb565b82525050565b6000613ed682614c34565b613ee08185614c7b565b9350613ef0818560208601614d0b565b613ef981614d3e565b840191505092915050565b6000613f0f82614c34565b613f198185614c8c565b9350613f29818560208601614d0b565b613f3281614d3e565b840191505092915050565b6000613f4a602283614c8c565b91507f636c6f7365537761703a204f524445525f504c494d495450524943455f57524f60008301527f4e470000000000000000000000000000000000000000000000000000000000006020830152604082019050919050565b6000613fb0601f83614c8c565b91507f63616e63656c4c696d6974537761703a2055534552414444525f57524f4e47006000830152602082019050919050565b6000613ff0602283614c8c565b91507f636c6f7365537761703a204f524445525f4c4c494d495450524943455f57524f60008301527f4e470000000000000000000000000000000000000000000000000000000000006020830152604082019050919050565b6000614056602383614c8c565b91507f63616e63656c4c696d6974537761703a204f524445525f5354415455535f575260008301527f4f4e4700000000000000000000000000000000000000000000000000000000006020830152604082019050919050565b60006140bc602683614c8c565b91507f4f776e61626c653a206e6577206f776e657220697320746865207a65726f206160008301527f64647265737300000000000000000000000000000000000000000000000000006020830152604082019050919050565b6000614122601b83614c8c565b91507f536166654d6174683a206164646974696f6e206f766572666c6f7700000000006000830152602082019050919050565b6000614162601d83614c8c565b91507f636c6f7365537761703a204f524445525f5354415455535f57524f4e470000006000830152602082019050919050565b60006141a2602083614c8c565b91507f74726164654c696d6974537761703a204f524445525f54494d455f57524f4e476000830152602082019050919050565b60006141e2601e83614c8c565b91507f6765744c61737450726963653a204c4153545f50524943455f57524f4e4700006000830152602082019050919050565b6000614222601983614c8c565b91507f636c6f7365537761703a2055534552414444525f57524f4e47000000000000006000830152602082019050919050565b6000614262602183614c8c565b91507f536166654d6174683a206d756c7469706c69636174696f6e206f766572666c6f60008301527f77000000000000000000000000000000000000000000000000000000000000006020830152604082019050919050565b60006142c8602083614c8c565b91507f4f776e61626c653a2063616c6c6572206973206e6f7420746865206f776e65726000830152602082019050919050565b6000614308602283614c8c565b91507f74726164654c696d6974537761703a204f524445525f5354415455535f57524f60008301527f4e470000000000000000000000000000000000000000000000000000000000006020830152604082019050919050565b600061436e602183614c8c565b91507f6f70656e4d61726b6574537761703a20534c4950504147455f544f4f5f48494760008301527f48000000000000000000000000000000000000000000000000000000000000006020830152604082019050919050565b6000610180830160008301516143e06000860182613da5565b50602083015184820360208601526143f88282613ecb565b915050604083015161440d60408601826145ba565b50606083015161442060608601826145ba565b50608083015161443360808601826145ba565b5060a083015161444660a08601826145ba565b5060c083015161445960c08601826145ba565b5060e083015161446c60e08601826145ba565b506101008301516144816101008601826145ba565b506101208301516144966101208601826145ba565b506101408301516144ab6101408601826145ba565b506101608301516144c06101608601826145ba565b508091505092915050565b6000610160830160008301516144e46000860182613da5565b50602083015184820360208601526144fc8282613ecb565b915050604083015161451160408601826145ba565b50606083015161452460608601826145ba565b50608083015161453760808601826145ba565b5060a083015161454a60a08601826145ba565b5060c083015161455d60c08601826145ba565b5060e083015161457060e08601826145ba565b506101008301516145856101008601826145ba565b5061012083015161459a6101208601826145ba565b506101408301516145af6101408601826145ba565b508091505092915050565b6145c381614ce5565b82525050565b6145d281614ce5565b82525050565b60006020820190506145ed6000830184613db4565b92915050565b600061016082019050614609600083018e613db4565b818103602083015261461b818d613f04565b905061462a604083018c6145c9565b614637606083018b6145c9565b614644608083018a6145c9565b61465160a08301896145c9565b61465e60c08301886145c9565b61466b60e08301876145c9565b6146796101008301866145c9565b6146876101208301856145c9565b6146956101408301846145c9565b9c9b505050505050505050505050565b6000610180820190506146bb600083018f613db4565b81810360208301526146cd818e613f04565b90506146dc604083018d6145c9565b6146e9606083018c6145c9565b6146f6608083018b6145c9565b61470360a083018a6145c9565b61471060c08301896145c9565b61471d60e08301886145c9565b61472b6101008301876145c9565b6147396101208301866145c9565b6147476101408301856145c9565b6147556101608301846145c9565b9d9c50505050505050505050505050565b600060208201905081810360008301526147808184613dc3565b905092915050565b600060208201905081810360008301526147a28184613e38565b905092915050565b60006060820190506147bf6000830186613ead565b6147cc6020830185613db4565b6147d960408301846145c9565b949350505050565b600060e0820190506147f6600083018a613ead565b6148036020830189613db4565b61481060408301886145c9565b61481d60608301876145c9565b61482a60808301866145c9565b61483760a08301856145c9565b61484460c08301846145c9565b98975050505050505050565b60006020820190506148656000830184613ebc565b92915050565b60006040820190506148806000830185613ebc565b61488d60208301846145c9565b9392505050565b600060208201905081810360008301526148ae8184613f04565b905092915050565b600060408201905081810360008301526148d08185613f04565b90506148df60208301846145c9565b9392505050565b600060208201905081810360008301526148ff81613f3d565b9050919050565b6000602082019050818103600083015261491f81613fa3565b9050919050565b6000602082019050818103600083015261493f81613fe3565b9050919050565b6000602082019050818103600083015261495f81614049565b9050919050565b6000602082019050818103600083015261497f816140af565b9050919050565b6000602082019050818103600083015261499f81614115565b9050919050565b600060208201905081810360008301526149bf81614155565b9050919050565b600060208201905081810360008301526149df81614195565b9050919050565b600060208201905081810360008301526149ff816141d5565b9050919050565b60006020820190508181036000830152614a1f81614215565b9050919050565b60006020820190508181036000830152614a3f81614255565b9050919050565b60006020820190508181036000830152614a5f816142bb565b9050919050565b60006020820190508181036000830152614a7f816142fb565b9050919050565b60006020820190508181036000830152614a9f81614361565b9050919050565b6000602082019050614abb60008301846145c9565b92915050565b6000604082019050614ad660008301856145c9565b614ae360208301846145c9565b9392505050565b600060e082019050614aff600083018a6145c9565b614b0c60208301896145c9565b614b196040830188613db4565b8181036060830152614b2b8187613f04565b9050614b3a60808301866145c9565b614b4760a08301856145c9565b614b5460c08301846145c9565b98975050505050505050565b6000608082019050614b7560008301876145c9565b614b8260208301866145c9565b614b8f60408301856145c9565b614b9c60608301846145c9565b95945050505050565b6000604051905081810181811067ffffffffffffffff82111715614bc857600080fd5b8060405250919050565b600067ffffffffffffffff821115614be957600080fd5b601f19601f8301169050602081019050919050565b6000819050602082019050919050565b6000819050602082019050919050565b600081519050919050565b600081519050919050565b600081519050919050565b6000602082019050919050565b6000602082019050919050565b600082825260208201905092915050565b600082825260208201905092915050565b600082825260208201905092915050565b600082825260208201905092915050565b6000614ca882614cc5565b9050919050565b60008115159050919050565b6000819050919050565b600073ffffffffffffffffffffffffffffffffffffffff82169050919050565b6000819050919050565b600060ff82169050919050565b82818337600083830152505050565b60005b83811015614d29578082015181840152602081019050614d0e565b83811115614d38576000848401525b50505050565b6000601f19601f8301169050919050565b614d5881614c9d565b8114614d6357600080fd5b50565b614d6f81614cbb565b8114614d7a57600080fd5b50565b614d8681614ce5565b8114614d9157600080fd5b50565b614d9d81614cef565b8114614da857600080fd5b5056fea26469706673582212202d45f22eec83d374b94ea739d84fd999b433ce2476f7079ac8eb732952d28e3a64736f6c634300060c0033",
  "immutableReferences": {},
  "source": "// SPDX-License-Identifier: MIT\npragma solidity >=0.6.12;\npragma experimental ABIEncoderV2;\n\nimport \"../openzeppelin/contracts/math/SafeMath.sol\";\nimport \"../openzeppelin/contracts/access/Ownable.sol\";\nimport \"../openzeppelin/contracts/utils/Strings.sol\";\nimport \"../quote/QuoteFactory.sol\";\nimport \"../interface/ISwapTrade.sol\";\nimport \"../interface/ITeemoPool.sol\";\nimport \"../libraries/SwapTradeLibrary.sol\";\n\ncontract SwapTrade is Ownable, ISwapTrade {\n    using SafeMath for uint256;\n\n    struct SwapLimitOrder {\n        address userAddr;\n        string symbol;\n        uint256 tokenAmount;\n        uint256 lever;\n        uint256 bsFlag;//  1 2\n        uint256 openPrice;// \n        uint256 openTime;// \n        uint256 newPrice;// \n        uint256 pLimitPrice;// \n        uint256 lLimitPrice;// \n        uint256 closeTime;// \n        uint256 status;//  1: 2 3\n    }\n    struct SwapOrder {\n        address userAddr;\n        string symbol;\n        uint256 tokenAmount;\n        uint256 lever;\n        uint256 bsFlag;//  1 2\n        uint256 openPrice;// \n        uint256 openTime;// \n        uint256 pLimitPrice;// \n        uint256 lLimitPrice;// \n        uint256 closePrice;// \n        uint256 closeTime;// \n    }\n    address public tokenAddr;\n    address public poolAddr;\n    address public quoteFactoryAddr;\n    \n    mapping(bytes32 => SwapOrder) public allOrderHash;// =>\n    mapping(address => bytes32[]) public allOrderUser;// =>\n\n    mapping(bytes32 => SwapLimitOrder) public allLimitOrderHash;// =>\n    mapping(address => bytes32[]) public allLimitOrderUser;// =>\n\n    function initialize(address _tokenAddr, address _poolAddr) public onlyOwner{\n        tokenAddr = _tokenAddr;\n        poolAddr = _poolAddr;\n        quoteFactoryAddr = ITeemoPool(poolAddr).getQuoteFactoryAddr();\n    } \n\n    //0 1 2\n    function getAllOrder(address _userAddress, uint8 status) public view returns(SwapOrder[] memory orders) {\n        bytes32[] memory orderIds = allOrderUser[_userAddress];\n        uint256 size = 0;\n        for (uint i = 0; i < orderIds.length; i++) {\n            SwapOrder memory order = allOrderHash[orderIds[i]];\n            if (status == 0 || (status == 1 && order.closePrice > 0) || (status == 2 && order.closePrice == 0)) {\n                size++;\n            }\n        }\n        orders = new SwapOrder[](size);\n        uint256 index = 0;\n        for (uint i = 0; i < orderIds.length; i++) {\n            SwapOrder memory order = allOrderHash[orderIds[i]];\n            if (status == 0 || (status == 1 && order.closePrice > 0) || (status == 2 && order.closePrice == 0)) {\n                orders[index] = order;\n                index++;\n            }\n        }\n    }\n\n    //0 1: 2 3 4-\n    function getAllLimitOrder(address _userAddress, uint8 status) public view returns(SwapLimitOrder[] memory orders) {\n        bytes32[] memory orderIds = allLimitOrderUser[_userAddress];\n        uint256 size = 0;\n        for (uint i = 0; i < orderIds.length; i++) {\n            SwapLimitOrder memory order = allLimitOrderHash[orderIds[i]];\n            if (status == 0 || status == order.status || (status == 4 && (order.status == 1 || order.status == 3))) {\n                size++;\n            }\n        }\n        orders = new SwapLimitOrder[](size);\n        uint256 index = 0;\n        for (uint i = 0; i < orderIds.length; i++) {\n            SwapLimitOrder memory order = allLimitOrderHash[orderIds[i]];\n            if (status == 0 || status == order.status || (status == 4 && (order.status == 1 || order.status == 3))) {\n                orders[index] = order;\n                index++;\n            }\n        }\n    }\n\n    // \n    function openLimitSwap(address _userAddr,string memory _symbol,uint256 _limitPrice,uint256 _tokenAmount,uint256 _lever,uint256 _bsFlag,uint256 _pLimitPrice,uint256 _lLimitPrice) \n        public override onlyOwner \n        returns (bytes32, uint256) {\n        uint256[2] memory priceInfo;\n        (priceInfo[0],priceInfo[1]) = getNewPrice(_symbol);\n        bytes32 orderID = keccak256(abi.encode(block.number,gasleft(),_userAddr,_symbol,_tokenAmount,_lever,_bsFlag));\n        allLimitOrderHash[orderID] = SwapLimitOrder({\n            userAddr: _userAddr,\n            symbol: _symbol,\n            tokenAmount: _tokenAmount,\n            lever: _lever,\n            bsFlag: _bsFlag,\n            openPrice: _limitPrice,\n            openTime: priceInfo[1],\n            newPrice: priceInfo[0],\n            pLimitPrice: _pLimitPrice,\n            lLimitPrice: _lLimitPrice,\n            closeTime: 0,\n            status: 2\n        });\n        allLimitOrderUser[_userAddr].push(orderID);\n        return (orderID,priceInfo[0]);\n    }\n    // \n    function cancelLimitSwap(address _userAddr,bytes32 _orderID) \n        public override onlyOwner\n        returns (uint256 tokenAmount)\n    {\n        SwapLimitOrder storage orderInfo = allLimitOrderHash[_orderID];\n        require(orderInfo.userAddr == _userAddr, \"cancelLimitSwap: USERADDR_WRONG\");\n        require(orderInfo.status == 2, \"cancelLimitSwap: ORDER_STATUS_WRONG\");\n        tokenAmount = orderInfo.tokenAmount;\n        orderInfo.closeTime = block.timestamp;\n        orderInfo.status = 1;\n    }\n    // \n    function tradeLimitSwap(bytes32 _orderID,uint256 _blockIndex) \n        public override onlyOwner\n        returns (bool success,address userAddr,uint256 tokenAmount)\n    {\n        SwapLimitOrder storage orderInfo = allLimitOrderHash[_orderID];\n        require(orderInfo.status == 2, \"tradeLimitSwap: ORDER_STATUS_WRONG\");\n        (uint256 tradePrice,uint256 priceTime) = getLastPrice(orderInfo.symbol,_blockIndex);\n        require(orderInfo.openTime < priceTime, \"tradeLimitSwap: ORDER_TIME_WRONG\");\n        success = SwapTradeLibrary.isTradeLimitSwap(orderInfo.newPrice,orderInfo.openPrice,tradePrice);\n        if(success == true){\n            tokenAmount = orderInfo.tokenAmount;\n            userAddr = orderInfo.userAddr;\n            orderInfo.closeTime = priceTime;\n            orderInfo.status = 3;\n            allOrderHash[_orderID] = SwapOrder({\n                userAddr: orderInfo.userAddr,\n                symbol: orderInfo.symbol,\n                tokenAmount: orderInfo.tokenAmount,\n                lever: orderInfo.lever,\n                bsFlag: orderInfo.bsFlag,\n                openPrice: orderInfo.openPrice,\n                openTime: orderInfo.closeTime,\n                pLimitPrice: orderInfo.pLimitPrice,\n                lLimitPrice: orderInfo.lLimitPrice,\n                closePrice: 0,\n                closeTime: 0\n            });\n            allOrderUser[orderInfo.userAddr].push(_orderID);            \n        }\n    }    \n\n    // \n    function openMarketSwap(address _userAddr,string memory _symbol,uint256 _tokenAmount,uint256 _lever,uint256 _bsFlag,uint256 _pLimitPrice,uint256 _lLimitPrice, uint256 _maxPrice) \n        public override onlyOwner returns (bytes32, uint256) {\n        uint256[2] memory priceInfo;\n        (priceInfo[0],priceInfo[1]) = getNewPrice(_symbol);\n        if(_bsFlag == 1){\n            require(priceInfo[0]>=_maxPrice, 'openMarketSwap: SLIPPAGE_TOO_HIGH');\n        }else{\n            require(priceInfo[0]<=_maxPrice, 'openMarketSwap: SLIPPAGE_TOO_HIGH');\n        }\n        bytes32 orderID = keccak256(abi.encode(block.number,gasleft(),_userAddr,_symbol,_tokenAmount,_lever,_bsFlag));\n        allOrderHash[orderID] = SwapOrder({\n            userAddr: _userAddr,\n            symbol: _symbol,\n            tokenAmount: _tokenAmount,\n            lever: _lever,\n            bsFlag: _bsFlag,\n            openPrice: priceInfo[0],\n            openTime: priceInfo[1],\n            pLimitPrice: _pLimitPrice,\n            lLimitPrice: _lLimitPrice,\n            closePrice: 0,\n            closeTime: 0\n        });\n        allOrderUser[_userAddr].push(orderID);\n        return (orderID,priceInfo[0]);\n    }\n\n    // \n    function closeMarketSwap(address _userAddr,bytes32 _orderID) \n        public override onlyOwner\n        returns (uint256 closePrice,uint256 plFlag,uint256 plAmount,uint256 tokenAmount)\n    {\n        SwapOrder storage orderInfo = allOrderHash[_orderID];\n        require(orderInfo.userAddr == _userAddr, \"closeSwap: USERADDR_WRONG\");\n        require(orderInfo.closePrice == 0, \"closeSwap: ORDER_STATUS_WRONG\");\n        uint256 priceTime = 0;\n        (closePrice,priceTime) = getNewPrice(orderInfo.symbol);\n        tokenAmount = orderInfo.tokenAmount;\n        (plFlag, plAmount) = SwapTradeLibrary.calcSwapOrderPL(orderInfo.bsFlag,orderInfo.tokenAmount,orderInfo.lever,orderInfo.openPrice,closePrice);\n        orderInfo.closePrice = closePrice;\n        orderInfo.closeTime = priceTime;\n    }\n\n    // \n    function closeLimitSwap(bytes32 _orderID,uint256 _blockIndex) \n        public override onlyOwner\n        returns (bool success,address userAddr,uint256 closePrice,uint256 closeType,uint256 plFlag,uint256 plAmount,uint256 tokenAmount)\n    {\n        SwapOrder storage orderInfo = allOrderHash[_orderID];\n        require(orderInfo.closePrice == 0, \"closeSwap: ORDER_STATUS_WRONG\");\n        (uint256 lastPrice,uint256 priceTime) = getLastPrice(orderInfo.symbol,_blockIndex);\n        require(orderInfo.openTime < priceTime, \"tradeLimitSwap: ORDER_TIME_WRONG\");\n        (success,closePrice,closeType) = SwapTradeLibrary.calcSwapOrderCloseInfo(orderInfo.bsFlag,orderInfo.openPrice,orderInfo.lever,orderInfo.tokenAmount,orderInfo.pLimitPrice,orderInfo.lLimitPrice,lastPrice);\n        if(success == true){\n            tokenAmount = orderInfo.tokenAmount;\n            userAddr = orderInfo.userAddr;\n            (plFlag, plAmount) = SwapTradeLibrary.calcSwapOrderPL(orderInfo.bsFlag,orderInfo.tokenAmount,orderInfo.lever,orderInfo.openPrice,closePrice);\n            orderInfo.closePrice = closePrice;\n            orderInfo.closeTime = priceTime;\n        }\n    }    \n    // \n    function updateSwapByPrice(address _userAddr,bytes32 _orderID,uint256 _pLimitPrice,uint256 _lLimitPrice) \n        public override onlyOwner \n        returns (uint256 pLimitRate,uint256 lLimitRate) {\n        SwapOrder storage orderInfo = allOrderHash[_orderID];\n        require(orderInfo.userAddr == _userAddr, \"closeSwap: USERADDR_WRONG\");\n        require(orderInfo.closePrice == 0, \"closeSwap: ORDER_STATUS_WRONG\");\n        if(orderInfo.bsFlag == 1){\n            require(_pLimitPrice > 0 && _pLimitPrice < orderInfo.openPrice, \"closeSwap: ORDER_PLIMITPRICE_WRONG\"); \n            require(_lLimitPrice > 0 && _lLimitPrice > orderInfo.openPrice, \"closeSwap: ORDER_LLIMITPRICE_WRONG\");\n        }else{\n            require(_pLimitPrice > 0 && _pLimitPrice > orderInfo.openPrice, \"closeSwap: ORDER_PLIMITPRICE_WRONG\"); \n            require(_lLimitPrice > 0 && _lLimitPrice < orderInfo.openPrice, \"closeSwap: ORDER_LLIMITPRICE_WRONG\"); \n        }\n        pLimitRate = SwapTradeLibrary.calcSwapOrderPRate(orderInfo.bsFlag,orderInfo.openPrice,_pLimitPrice);\n        lLimitRate = SwapTradeLibrary.calcSwapOrderPRate(orderInfo.bsFlag,orderInfo.openPrice,_lLimitPrice);\n        orderInfo.pLimitPrice = _pLimitPrice;\n        orderInfo.lLimitPrice = _lLimitPrice;\n    }\n\n    // \n    function updateSwapByRate(address _userAddr,bytes32 _orderID,uint256 _pLimitRate,uint256 _lLimitRate) \n        public override onlyOwner \n        returns (uint256 pLimitPrice,uint256 lLimitPrice) {\n        SwapOrder storage orderInfo = allOrderHash[_orderID];\n        require(orderInfo.userAddr == _userAddr, \"closeSwap: USERADDR_WRONG\");\n        require(orderInfo.closePrice == 0, \"closeSwap: ORDER_STATUS_WRONG\");\n        pLimitPrice = SwapTradeLibrary.calcSwapOrderPPrice(orderInfo.bsFlag,orderInfo.openPrice,_pLimitRate);\n        lLimitPrice = SwapTradeLibrary.calcSwapOrderPPrice(orderInfo.bsFlag,orderInfo.openPrice,_lLimitRate);\n        orderInfo.pLimitPrice = pLimitPrice;\n        orderInfo.lLimitPrice = lLimitPrice;\n    }    \n    function getNewPrice(string memory _symbol) \n        public view \n        returns (uint256 newPrice,uint256 priceTime){\n        (, newPrice,priceTime) = QuoteFactory(quoteFactoryAddr).getNewPrice(_symbol);\n    }\n    function getLastPrice(string memory _symbol,uint256 _blockIndex) \n        public view \n        returns (uint256 newPrice,uint256 priceTime){\n        (, newPrice,priceTime) = QuoteFactory(quoteFactoryAddr).getLastPrice(_symbol,_blockIndex);\n        require(newPrice > 0, \"getLastPrice: LAST_PRICE_WRONG\");\n    }\n}\n",
  "sourcePath": "/Users/tong/Projects/drep-project/teemo-private/contracts/trade/SwapTrade.sol",
  "compiler": {
    "name": "solc",
    "version": "0.6.12+commit.27d51765.Emscripten.clang"
  },
  "schemaVersion": "3.3.2",
  "updatedAt": "2021-01-15T02:30:36.878Z",
  "devdoc": {
    "kind": "dev",
    "methods": {
      "owner()": {
        "details": "Returns the address of the current owner."
      },
      "renounceOwnership()": {
        "details": "Leaves the contract without owner. It will not be possible to call `onlyOwner` functions anymore. Can only be called by the current owner. NOTE: Renouncing ownership will leave the contract without an owner, thereby removing any functionality that is only available to the owner."
      },
      "transferOwnership(address)": {
        "details": "Transfers ownership of the contract to a new account (`newOwner`). Can only be called by the current owner."
      }
    },
    "version": 1
  },
  "userdoc": {
    "kind": "user",
    "methods": {},
    "version": 1
  }
}