{
  "contractName": "TeemoPool",
  "abi": [
    {
      "anonymous": false,
      "inputs": [
        {
          "indexed": true,
          "internalType": "address",
          "name": "owner",
          "type": "address"
        },
        {
          "indexed": true,
          "internalType": "address",
          "name": "spender",
          "type": "address"
        },
        {
          "indexed": false,
          "internalType": "uint256",
          "name": "value",
          "type": "uint256"
        }
      ],
      "name": "Approval",
      "type": "event"
    },
    {
      "anonymous": false,
      "inputs": [
        {
          "indexed": true,
          "internalType": "uint256",
          "name": "tokenAmount",
          "type": "uint256"
        }
      ],
      "name": "CancelLimitSwap",
      "type": "event"
    },
    {
      "anonymous": false,
      "inputs": [
        {
          "indexed": true,
          "internalType": "address",
          "name": "userAddr",
          "type": "address"
        },
        {
          "indexed": true,
          "internalType": "uint256",
          "name": "closePrice",
          "type": "uint256"
        },
        {
          "indexed": true,
          "internalType": "uint256",
          "name": "closeType",
          "type": "uint256"
        },
        {
          "indexed": false,
          "internalType": "uint256",
          "name": "plFlag",
          "type": "uint256"
        },
        {
          "indexed": false,
          "internalType": "uint256",
          "name": "plAmount",
          "type": "uint256"
        }
      ],
      "name": "CloseLimitSwap",
      "type": "event"
    },
    {
      "anonymous": false,
      "inputs": [
        {
          "indexed": true,
          "internalType": "bytes32",
          "name": "orderID",
          "type": "bytes32"
        },
        {
          "indexed": false,
          "internalType": "string",
          "name": "symbol",
          "type": "string"
        },
        {
          "indexed": false,
          "internalType": "address",
          "name": "userAddr",
          "type": "address"
        },
        {
          "indexed": true,
          "internalType": "uint256",
          "name": "closePrice",
          "type": "uint256"
        },
        {
          "indexed": true,
          "internalType": "uint256",
          "name": "plFlag",
          "type": "uint256"
        },
        {
          "indexed": false,
          "internalType": "uint256",
          "name": "plAmount",
          "type": "uint256"
        },
        {
          "indexed": false,
          "internalType": "uint256",
          "name": "time",
          "type": "uint256"
        }
      ],
      "name": "CloseMarketSwap",
      "type": "event"
    },
    {
      "anonymous": false,
      "inputs": [
        {
          "indexed": true,
          "internalType": "address",
          "name": "tokenAddr",
          "type": "address"
        },
        {
          "indexed": true,
          "internalType": "address",
          "name": "userAddr",
          "type": "address"
        },
        {
          "indexed": true,
          "internalType": "uint256",
          "name": "amount",
          "type": "uint256"
        }
      ],
      "name": "EmergencyWithdraw",
      "type": "event"
    },
    {
      "anonymous": false,
      "inputs": [
        {
          "indexed": true,
          "internalType": "bytes32[]",
          "name": "orderIDs",
          "type": "bytes32[]"
        }
      ],
      "name": "FailedCloseLimitSwap",
      "type": "event"
    },
    {
      "anonymous": false,
      "inputs": [
        {
          "indexed": true,
          "internalType": "bytes32[]",
          "name": "orderIDs",
          "type": "bytes32[]"
        }
      ],
      "name": "FailedTradeLimitSwap",
      "type": "event"
    },
    {
      "anonymous": false,
      "inputs": [
        {
          "indexed": false,
          "internalType": "address",
          "name": "_userAddr",
          "type": "address"
        },
        {
          "indexed": true,
          "internalType": "uint256",
          "name": "lpAmount",
          "type": "uint256"
        },
        {
          "indexed": true,
          "internalType": "uint256",
          "name": "teemoTokenAmount",
          "type": "uint256"
        }
      ],
      "name": "LPDeposit",
      "type": "event"
    },
    {
      "anonymous": false,
      "inputs": [
        {
          "indexed": false,
          "internalType": "address",
          "name": "_userAddr",
          "type": "address"
        },
        {
          "indexed": true,
          "internalType": "uint256",
          "name": "tokenAmount",
          "type": "uint256"
        }
      ],
      "name": "LPWithdraw",
      "type": "event"
    },
    {
      "anonymous": false,
      "inputs": [
        {
          "indexed": true,
          "internalType": "bytes32",
          "name": "orderID",
          "type": "bytes32"
        },
        {
          "indexed": true,
          "internalType": "uint256",
          "name": "openPrice",
          "type": "uint256"
        }
      ],
      "name": "OpenLimitSwap",
      "type": "event"
    },
    {
      "anonymous": false,
      "inputs": [
        {
          "indexed": true,
          "internalType": "bytes32",
          "name": "orderID",
          "type": "bytes32"
        },
        {
          "indexed": false,
          "internalType": "string",
          "name": "symbol",
          "type": "string"
        },
        {
          "indexed": true,
          "internalType": "uint256",
          "name": "openPrice",
          "type": "uint256"
        },
        {
          "indexed": false,
          "internalType": "uint256",
          "name": "time",
          "type": "uint256"
        }
      ],
      "name": "OpenMarketSwap",
      "type": "event"
    },
    {
      "anonymous": false,
      "inputs": [
        {
          "indexed": true,
          "internalType": "address",
          "name": "previousOwner",
          "type": "address"
        },
        {
          "indexed": true,
          "internalType": "address",
          "name": "newOwner",
          "type": "address"
        }
      ],
      "name": "OwnershipTransferred",
      "type": "event"
    },
    {
      "anonymous": false,
      "inputs": [
        {
          "indexed": true,
          "internalType": "address",
          "name": "userAddr",
          "type": "address"
        },
        {
          "indexed": true,
          "internalType": "bytes32",
          "name": "_orderID",
          "type": "bytes32"
        },
        {
          "indexed": true,
          "internalType": "uint256",
          "name": "_price",
          "type": "uint256"
        },
        {
          "indexed": false,
          "internalType": "uint256",
          "name": "time",
          "type": "uint256"
        }
      ],
      "name": "SetOrderPrice",
      "type": "event"
    },
    {
      "anonymous": false,
      "inputs": [
        {
          "indexed": false,
          "internalType": "address",
          "name": "_userAddr",
          "type": "address"
        },
        {
          "indexed": true,
          "internalType": "uint256",
          "name": "tokenAmount",
          "type": "uint256"
        },
        {
          "indexed": true,
          "internalType": "uint256",
          "name": "teemoTokenAmount",
          "type": "uint256"
        }
      ],
      "name": "StartMine",
      "type": "event"
    },
    {
      "anonymous": false,
      "inputs": [
        {
          "indexed": false,
          "internalType": "address",
          "name": "_userAddr",
          "type": "address"
        },
        {
          "indexed": true,
          "internalType": "uint256",
          "name": "tokenAmount",
          "type": "uint256"
        },
        {
          "indexed": true,
          "internalType": "uint256",
          "name": "teemoTokenAmount",
          "type": "uint256"
        }
      ],
      "name": "StopMine",
      "type": "event"
    },
    {
      "anonymous": false,
      "inputs": [
        {
          "indexed": true,
          "internalType": "address",
          "name": "success",
          "type": "address"
        },
        {
          "indexed": true,
          "internalType": "uint256",
          "name": "tokenAmount",
          "type": "uint256"
        },
        {
          "indexed": false,
          "internalType": "uint256",
          "name": "time",
          "type": "uint256"
        }
      ],
      "name": "TradeLimitSwap",
      "type": "event"
    },
    {
      "anonymous": false,
      "inputs": [
        {
          "indexed": true,
          "internalType": "address",
          "name": "from",
          "type": "address"
        },
        {
          "indexed": true,
          "internalType": "address",
          "name": "to",
          "type": "address"
        },
        {
          "indexed": false,
          "internalType": "uint256",
          "name": "value",
          "type": "uint256"
        }
      ],
      "name": "Transfer",
      "type": "event"
    },
    {
      "anonymous": false,
      "inputs": [
        {
          "indexed": true,
          "internalType": "uint256",
          "name": "pLimitPrice",
          "type": "uint256"
        },
        {
          "indexed": true,
          "internalType": "uint256",
          "name": "lLimitPrice",
          "type": "uint256"
        }
      ],
      "name": "UpdateSwap",
      "type": "event"
    },
    {
      "inputs": [
        {
          "internalType": "address",
          "name": "owner",
          "type": "address"
        },
        {
          "internalType": "address",
          "name": "spender",
          "type": "address"
        }
      ],
      "name": "allowance",
      "outputs": [
        {
          "internalType": "uint256",
          "name": "",
          "type": "uint256"
        }
      ],
      "stateMutability": "view",
      "type": "function"
    },
    {
      "inputs": [
        {
          "internalType": "address",
          "name": "spender",
          "type": "address"
        },
        {
          "internalType": "uint256",
          "name": "amount",
          "type": "uint256"
        }
      ],
      "name": "approve",
      "outputs": [
        {
          "internalType": "bool",
          "name": "",
          "type": "bool"
        }
      ],
      "stateMutability": "nonpayable",
      "type": "function"
    },
    {
      "inputs": [
        {
          "internalType": "address",
          "name": "account",
          "type": "address"
        }
      ],
      "name": "balanceOf",
      "outputs": [
        {
          "internalType": "uint256",
          "name": "",
          "type": "uint256"
        }
      ],
      "stateMutability": "view",
      "type": "function"
    },
    {
      "inputs": [],
      "name": "decimals",
      "outputs": [
        {
          "internalType": "uint8",
          "name": "",
          "type": "uint8"
        }
      ],
      "stateMutability": "view",
      "type": "function"
    },
    {
      "inputs": [
        {
          "internalType": "address",
          "name": "spender",
          "type": "address"
        },
        {
          "internalType": "uint256",
          "name": "subtractedValue",
          "type": "uint256"
        }
      ],
      "name": "decreaseAllowance",
      "outputs": [
        {
          "internalType": "bool",
          "name": "",
          "type": "bool"
        }
      ],
      "stateMutability": "nonpayable",
      "type": "function"
    },
    {
      "inputs": [
        {
          "internalType": "address",
          "name": "spender",
          "type": "address"
        },
        {
          "internalType": "uint256",
          "name": "addedValue",
          "type": "uint256"
        }
      ],
      "name": "increaseAllowance",
      "outputs": [
        {
          "internalType": "bool",
          "name": "",
          "type": "bool"
        }
      ],
      "stateMutability": "nonpayable",
      "type": "function"
    },
    {
      "inputs": [],
      "name": "mainnetTokenAddr",
      "outputs": [
        {
          "internalType": "address",
          "name": "",
          "type": "address"
        }
      ],
      "stateMutability": "view",
      "type": "function"
    },
    {
      "inputs": [],
      "name": "name",
      "outputs": [
        {
          "internalType": "string",
          "name": "",
          "type": "string"
        }
      ],
      "stateMutability": "view",
      "type": "function"
    },
    {
      "inputs": [],
      "name": "owner",
      "outputs": [
        {
          "internalType": "address",
          "name": "",
          "type": "address"
        }
      ],
      "stateMutability": "view",
      "type": "function"
    },
    {
      "inputs": [],
      "name": "poolFactoryAddr",
      "outputs": [
        {
          "internalType": "address",
          "name": "",
          "type": "address"
        }
      ],
      "stateMutability": "view",
      "type": "function"
    },
    {
      "inputs": [],
      "name": "quoteFactoryAddr",
      "outputs": [
        {
          "internalType": "address",
          "name": "",
          "type": "address"
        }
      ],
      "stateMutability": "view",
      "type": "function"
    },
    {
      "inputs": [],
      "name": "renounceOwnership",
      "outputs": [],
      "stateMutability": "nonpayable",
      "type": "function"
    },
    {
      "inputs": [],
      "name": "symbol",
      "outputs": [
        {
          "internalType": "string",
          "name": "",
          "type": "string"
        }
      ],
      "stateMutability": "view",
      "type": "function"
    },
    {
      "inputs": [],
      "name": "tokenAddr",
      "outputs": [
        {
          "internalType": "address",
          "name": "",
          "type": "address"
        }
      ],
      "stateMutability": "view",
      "type": "function"
    },
    {
      "inputs": [],
      "name": "totalSupply",
      "outputs": [
        {
          "internalType": "uint256",
          "name": "",
          "type": "uint256"
        }
      ],
      "stateMutability": "view",
      "type": "function"
    },
    {
      "inputs": [
        {
          "internalType": "address",
          "name": "recipient",
          "type": "address"
        },
        {
          "internalType": "uint256",
          "name": "amount",
          "type": "uint256"
        }
      ],
      "name": "transfer",
      "outputs": [
        {
          "internalType": "bool",
          "name": "",
          "type": "bool"
        }
      ],
      "stateMutability": "nonpayable",
      "type": "function"
    },
    {
      "inputs": [
        {
          "internalType": "address",
          "name": "sender",
          "type": "address"
        },
        {
          "internalType": "address",
          "name": "recipient",
          "type": "address"
        },
        {
          "internalType": "uint256",
          "name": "amount",
          "type": "uint256"
        }
      ],
      "name": "transferFrom",
      "outputs": [
        {
          "internalType": "bool",
          "name": "",
          "type": "bool"
        }
      ],
      "stateMutability": "nonpayable",
      "type": "function"
    },
    {
      "inputs": [
        {
          "internalType": "address",
          "name": "newOwner",
          "type": "address"
        }
      ],
      "name": "transferOwnership",
      "outputs": [],
      "stateMutability": "nonpayable",
      "type": "function"
    },
    {
      "inputs": [
        {
          "internalType": "address",
          "name": "_tokenAddr",
          "type": "address"
        },
        {
          "internalType": "address",
          "name": "_mainnetTokenAddr",
          "type": "address"
        },
        {
          "internalType": "address",
          "name": "_poolFactoryAddr",
          "type": "address"
        },
        {
          "internalType": "address",
          "name": "_quoteFactoryAddr",
          "type": "address"
        }
      ],
      "name": "initialize",
      "outputs": [],
      "stateMutability": "nonpayable",
      "type": "function"
    },
    {
      "inputs": [
        {
          "internalType": "string",
          "name": "_moduleName",
          "type": "string"
        }
      ],
      "name": "getModuleAddr",
      "outputs": [
        {
          "internalType": "address",
          "name": "moduleAddr",
          "type": "address"
        }
      ],
      "stateMutability": "view",
      "type": "function"
    },
    {
      "inputs": [],
      "name": "getQuoteFactoryAddr",
      "outputs": [
        {
          "internalType": "address",
          "name": "",
          "type": "address"
        }
      ],
      "stateMutability": "view",
      "type": "function"
    },
    {
      "inputs": [
        {
          "internalType": "uint256",
          "name": "_tokenAmount",
          "type": "uint256"
        },
        {
          "internalType": "bool",
          "name": "mine",
          "type": "bool"
        }
      ],
      "name": "lpDeposit",
      "outputs": [],
      "stateMutability": "nonpayable",
      "type": "function"
    },
    {
      "inputs": [
        {
          "internalType": "uint256",
          "name": "_lpAmount",
          "type": "uint256"
        }
      ],
      "name": "startMine",
      "outputs": [],
      "stateMutability": "nonpayable",
      "type": "function"
    },
    {
      "inputs": [
        {
          "internalType": "uint256",
          "name": "_lpAmount",
          "type": "uint256"
        }
      ],
      "name": "lpWithdraw",
      "outputs": [],
      "stateMutability": "nonpayable",
      "type": "function"
    },
    {
      "inputs": [
        {
          "internalType": "uint256",
          "name": "_lpAmount",
          "type": "uint256"
        }
      ],
      "name": "stopMine",
      "outputs": [],
      "stateMutability": "nonpayable",
      "type": "function"
    },
    {
      "inputs": [
        {
          "internalType": "string",
          "name": "_symbol",
          "type": "string"
        },
        {
          "internalType": "uint256",
          "name": "_limitPrice",
          "type": "uint256"
        },
        {
          "internalType": "uint256",
          "name": "_tokenAmount",
          "type": "uint256"
        },
        {
          "internalType": "uint256",
          "name": "_lever",
          "type": "uint256"
        },
        {
          "internalType": "uint256",
          "name": "_bsFlag",
          "type": "uint256"
        },
        {
          "internalType": "uint256",
          "name": "_pLimitPrice",
          "type": "uint256"
        },
        {
          "internalType": "uint256",
          "name": "_lLimitPrice",
          "type": "uint256"
        }
      ],
      "name": "openLimitSwap",
      "outputs": [],
      "stateMutability": "nonpayable",
      "type": "function"
    },
    {
      "inputs": [
        {
          "internalType": "bytes32",
          "name": "_orderID",
          "type": "bytes32"
        }
      ],
      "name": "cancelLimitSwap",
      "outputs": [],
      "stateMutability": "nonpayable",
      "type": "function"
    },
    {
      "inputs": [
        {
          "internalType": "bytes32[]",
          "name": "_orderIDs",
          "type": "bytes32[]"
        }
      ],
      "name": "tradeLimitSwaps",
      "outputs": [],
      "stateMutability": "nonpayable",
      "type": "function"
    },
    {
      "inputs": [
        {
          "internalType": "bytes32",
          "name": "_orderID",
          "type": "bytes32"
        },
        {
          "internalType": "uint256",
          "name": "_blockIndex",
          "type": "uint256"
        }
      ],
      "name": "tradeLimitSwap",
      "outputs": [],
      "stateMutability": "nonpayable",
      "type": "function"
    },
    {
      "inputs": [
        {
          "internalType": "string",
          "name": "_symbol",
          "type": "string"
        },
        {
          "internalType": "uint256",
          "name": "_tokenAmount",
          "type": "uint256"
        },
        {
          "internalType": "uint256",
          "name": "_lever",
          "type": "uint256"
        },
        {
          "internalType": "uint256",
          "name": "_bsFlag",
          "type": "uint256"
        },
        {
          "internalType": "uint256",
          "name": "_pLimitPrice",
          "type": "uint256"
        },
        {
          "internalType": "uint256",
          "name": "_lLimitPrice",
          "type": "uint256"
        },
        {
          "internalType": "uint256",
          "name": "_maxPrice",
          "type": "uint256"
        }
      ],
      "name": "openMarketSwap",
      "outputs": [],
      "stateMutability": "nonpayable",
      "type": "function"
    },
    {
      "inputs": [
        {
          "internalType": "bytes32",
          "name": "_orderID",
          "type": "bytes32"
        }
      ],
      "name": "closeMarketSwap",
      "outputs": [],
      "stateMutability": "nonpayable",
      "type": "function"
    },
    {
      "inputs": [
        {
          "internalType": "bytes32[]",
          "name": "_orderIDs",
          "type": "bytes32[]"
        }
      ],
      "name": "closeLimitSwaps",
      "outputs": [],
      "stateMutability": "nonpayable",
      "type": "function"
    },
    {
      "inputs": [
        {
          "internalType": "bytes32",
          "name": "_orderID",
          "type": "bytes32"
        },
        {
          "internalType": "uint256",
          "name": "_blockIndex",
          "type": "uint256"
        }
      ],
      "name": "closeLimitSwap",
      "outputs": [],
      "stateMutability": "nonpayable",
      "type": "function"
    },
    {
      "inputs": [
        {
          "internalType": "bytes32",
          "name": "_orderID",
          "type": "bytes32"
        },
        {
          "internalType": "uint256",
          "name": "_pLimitPrice",
          "type": "uint256"
        },
        {
          "internalType": "uint256",
          "name": "_lLimitPrice",
          "type": "uint256"
        }
      ],
      "name": "updateSwapByPrice",
      "outputs": [],
      "stateMutability": "nonpayable",
      "type": "function"
    },
    {
      "inputs": [
        {
          "internalType": "bytes32",
          "name": "_orderID",
          "type": "bytes32"
        },
        {
          "internalType": "uint256",
          "name": "_pLimitRate",
          "type": "uint256"
        },
        {
          "internalType": "uint256",
          "name": "_lLimitRate",
          "type": "uint256"
        }
      ],
      "name": "updateSwapByRate",
      "outputs": [],
      "stateMutability": "nonpayable",
      "type": "function"
    },
    {
      "inputs": [
        {
          "internalType": "bytes32",
          "name": "_orderID",
          "type": "bytes32"
        }
      ],
      "name": "setOpenPrice",
      "outputs": [],
      "stateMutability": "nonpayable",
      "type": "function"
    },
    {
      "inputs": [
        {
          "internalType": "address",
          "name": "_userAddr",
          "type": "address"
        },
        {
          "internalType": "bytes32",
          "name": "_orderID",
          "type": "bytes32"
        }
      ],
      "name": "closeMarketByOwner",
      "outputs": [],
      "stateMutability": "nonpayable",
      "type": "function"
    },
    {
      "inputs": [
        {
          "internalType": "uint256",
          "name": "_valideBlocks",
          "type": "uint256"
        }
      ],
      "name": "setValidBlocks",
      "outputs": [],
      "stateMutability": "nonpayable",
      "type": "function"
    },
    {
      "inputs": [
        {
          "internalType": "string",
          "name": "_symbol",
          "type": "string"
        },
        {
          "internalType": "uint256",
          "name": "_price",
          "type": "uint256"
        }
      ],
      "name": "updateTicker",
      "outputs": [],
      "stateMutability": "nonpayable",
      "type": "function"
    },
    {
      "inputs": [
        {
          "internalType": "address",
          "name": "_tokenAddr",
          "type": "address"
        },
        {
          "internalType": "address",
          "name": "_to",
          "type": "address"
        },
        {
          "internalType": "uint256",
          "name": "_amount",
          "type": "uint256"
        }
      ],
      "name": "emergencyWithdraw",
      "outputs": [],
      "stateMutability": "nonpayable",
      "type": "function"
    }
  ],
  "bytecode": "0x60806040523480156200001157600080fd5b506040518060400160405280600581526020017f544d4f4c500000000000000000000000000000000000000000000000000000008152506040518060400160405280600581526020017f544d4f4c500000000000000000000000000000000000000000000000000000008152508160039080519060200190620000969291906200018d565b508060049080519060200190620000af9291906200018d565b506012600560006101000a81548160ff021916908360ff16021790555050506000620000e06200018560201b60201c565b905080600560016101000a81548173ffffffffffffffffffffffffffffffffffffffff021916908373ffffffffffffffffffffffffffffffffffffffff1602179055508073ffffffffffffffffffffffffffffffffffffffff16600073ffffffffffffffffffffffffffffffffffffffff167f8be0079c531659141344cd1fd0a4f28419497f9722a3daafe3b4186f6b6457e060405160405180910390a35062000233565b600033905090565b828054600181600116156101000203166002900490600052602060002090601f016020900481019282601f10620001d057805160ff191683800117855562000201565b8280016001018555821562000201579182015b8281111562000200578251825591602001919060010190620001e3565b5b50905062000210919062000214565b5090565b5b808211156200022f57600081600090555060010162000215565b5090565b615a1380620002436000396000f3fe608060405234801561001057600080fd5b50600436106102485760003560e01c8063715018a61161013b578063afcfb11a116100b8578063dd62ed3e1161007c578063dd62ed3e146106af578063e63ea408146106df578063eadb2bdd146106fb578063f2fde38b14610717578063f8c8765e1461073357610248565b8063afcfb11a1461060b578063b06b9fbe14610629578063c554ebcb14610647578063cee87f5f14610677578063dc58bd721461069357610248565b806395d89b41116100ff57806395d89b41146105555780639aa9e7d2146105735780639ff242961461058f578063a457c2d7146105ab578063a9059cbb146105db57610248565b8063715018a6146104d75780638268b8dd146104e157806385006ba2146104ff5780638da5cb5b1461051b5780638edc2e371461053957610248565b80633d3f2517116101c957806369cd55951161018d57806369cd5595146104375780636d95fbf8146104535780636e04679f1461046f5780636f8d2d841461048b57806370a08231146104a757610248565b80633d3f2517146103a757806358aafa3d146103c35780635dc96a45146103e15780635fbe4d1d146103fd57806363d24aa71461041b57610248565b806322dbfdca1161021057806322dbfdca146102f157806323b872dd1461030d578063252f6adf1461033d578063313ce56714610359578063395093511461037757610248565b80630282ad671461024d57806306fdde0314610269578063095ea7b31461028757806309a5d5bf146102b757806318160ddd146102d3575b600080fd5b61026760048036038101906102629190614786565b61074f565b005b6102716108b5565b60405161027e91906153c5565b60405180910390f35b6102a1600480360381019061029c9190614365565b610957565b6040516102ae91906152c1565b60405180910390f35b6102d160048036038101906102cc9190614890565b610975565b005b6102db610ac2565b6040516102e8919061564f565b60405180910390f35b61030b6004803603810190610306919061467e565b610acc565b005b610327600480360381019061032291906142da565b610c30565b60405161033491906152c1565b60405180910390f35b61035760048036038101906103529190614329565b610d09565b005b610361610dae565b60405161036e9190615693565b60405180910390f35b610391600480360381019061038c9190614365565b610dc5565b60405161039e91906152c1565b60405180910390f35b6103c160048036038101906103bc919061467e565b610e78565b005b6103cb610fcb565b6040516103d89190615094565b60405180910390f35b6103fb60048036038101906103f691906147da565b610ff5565b005b6104056111f8565b6040516104129190615094565b60405180910390f35b61043560048036038101906104309190614430565b61121e565b005b610451600480360381019061044c9190614655565b611374565b005b61046d600480360381019061046891906147da565b611381565b005b610489600480360381019061048491906148e2565b61155f565b005b6104a560048036038101906104a09190614655565b61170b565b005b6104c160048036038101906104bc91906141c0565b6118e7565b6040516104ce919061564f565b60405180910390f35b6104df61192f565b005b6104e9611a87565b6040516104f69190615094565b60405180910390f35b610519600480360381019061051491906146f6565b611aad565b005b610523611bb6565b6040516105309190615094565b60405180910390f35b610553600480360381019061054e9190614430565b611be0565b005b61055d611d36565b60405161056a91906153c5565b60405180910390f35b61058d60048036038101906105889190614890565b611dd8565b005b6105a960048036038101906105a49190614890565b611e30565b005b6105c560048036038101906105c09190614365565b611e89565b6040516105d291906152c1565b60405180910390f35b6105f560048036038101906105f09190614365565b611f56565b60405161060291906152c1565b60405180910390f35b610613611f74565b6040516106209190615094565b60405180910390f35b610631611f9a565b60405161063e9190615094565b60405180910390f35b610661600480360381019061065c9190614745565b611fc0565b60405161066e9190615094565b60405180910390f35b610691600480360381019061068c9190614655565b612076565b005b6106ad60048036038101906106a891906146f6565b6121a3565b005b6106c960048036038101906106c4919061423b565b6122ac565b6040516106d6919061564f565b60405180910390f35b6106f960048036038101906106f491906142da565b612333565b005b61071560048036038101906107109190614890565b6123da565b005b610731600480360381019061072c91906141c0565b61251c565b005b61074d60048036038101906107489190614277565b6126e3565b005b610757612884565b73ffffffffffffffffffffffffffffffffffffffff16600560019054906101000a900473ffffffffffffffffffffffffffffffffffffffff1673ffffffffffffffffffffffffffffffffffffffff16146107e6576040517f08c379a00000000000000000000000000000000000000000000000000000000081526004016107dd9061556f565b60405180910390fd5b6108246040518060400160405280600481526020017f5249534b00000000000000000000000000000000000000000000000000000000815250611fc0565b73ffffffffffffffffffffffffffffffffffffffff1663da2b0dc183836040518363ffffffff1660e01b815260040161085e92919061547f565b602060405180830381600087803b15801561087857600080fd5b505af115801561088c573d6000803e3d6000fd5b505050506040513d601f19601f820116820180604052508101906108b09190614471565b505050565b606060038054600181600116156101000203166002900480601f01602080910402602001604051908101604052809291908181526020018280546001816001161561010002031660029004801561094d5780601f106109225761010080835404028352916020019161094d565b820191906000526020600020905b81548152906001019060200180831161093057829003601f168201915b5050505050905090565b600061096b610964612884565b848461288c565b6001905092915050565b61098130333084612a57565b60006109c16040518060400160405280600481526020017f46554e4400000000000000000000000000000000000000000000000000000000815250611fc0565b73ffffffffffffffffffffffffffffffffffffffff1663f3fef3a333846040518363ffffffff1660e01b81526004016109fb9291906151bd565b602060405180830381600087803b158015610a1557600080fd5b505af1158015610a29573d6000803e3d6000fd5b505050506040513d601f19601f82011682018060405250810190610a4d91906148b9565b9050610a593083612b91565b610a86600660009054906101000a900473ffffffffffffffffffffffffffffffffffffffff163383612d3f565b807fec6b5f6209de8a40ef6115a103a7312d2e22f043a81da1965a5038c95753742e33604051610ab691906150af565b60405180910390a25050565b6000600254905090565b6000806000806000806000806060610b186040518060400160405280600981526020017f5357415054524144450000000000000000000000000000000000000000000000815250611fc0565b73ffffffffffffffffffffffffffffffffffffffff166322dbfdca8c8c6040518363ffffffff1660e01b8152600401610b529291906152f7565b600060405180830381600087803b158015610b6c57600080fd5b505af1158015610b80573d6000803e3d6000fd5b505050506040513d6000823e3d601f19601f82011682018060405250810190610ba9919061453b565b9850985098509850985098509850985098508815610c2357610bd08782868b898888612e76565b85878973ffffffffffffffffffffffffffffffffffffffff167f1631bac4756e0c03f6c433a46f1eab5c1caf99854cc351c23dc3eec9fc5d26d08887604051610c1a92919061566a565b60405180910390a45b5050505050505050505050565b6000610c3d848484613148565b610cfe84610c49612884565b610cf98560405180606001604052806028815260200161599160289139600160008b73ffffffffffffffffffffffffffffffffffffffff1673ffffffffffffffffffffffffffffffffffffffff1681526020019081526020016000206000610caf612884565b73ffffffffffffffffffffffffffffffffffffffff1673ffffffffffffffffffffffffffffffffffffffff168152602001908152602001600020546133dd9092919063ffffffff16565b61288c565b600190509392505050565b610d11612884565b73ffffffffffffffffffffffffffffffffffffffff16600560019054906101000a900473ffffffffffffffffffffffffffffffffffffffff1673ffffffffffffffffffffffffffffffffffffffff1614610da0576040517f08c379a0000000000000000000000000000000000000000000000000000000008152600401610d979061556f565b60405180910390fd5b610daa8282613438565b5050565b6000600560009054906101000a900460ff16905090565b6000610e6e610dd2612884565b84610e698560016000610de3612884565b73ffffffffffffffffffffffffffffffffffffffff1673ffffffffffffffffffffffffffffffffffffffff16815260200190815260200160002060008973ffffffffffffffffffffffffffffffffffffffff1673ffffffffffffffffffffffffffffffffffffffff1681526020019081526020016000205461357690919063ffffffff16565b61288c565b6001905092915050565b60008060008060606000610ec06040518060400160405280600981526020017f5357415054524144450000000000000000000000000000000000000000000000815250611fc0565b73ffffffffffffffffffffffffffffffffffffffff16633d3f251789896040518363ffffffff1660e01b8152600401610efa9291906152f7565b600060405180830381600087803b158015610f1457600080fd5b505af1158015610f28573d6000803e3d6000fd5b505050506040513d6000823e3d601f19601f82011682018060405250810190610f51919061449a565b9550955095509550955095508515610fc157610f716000848484886135cb565b838573ffffffffffffffffffffffffffffffffffffffff167fe72088d8c99245a37e459ef084c10708e613c2821738bf5c1dec8cc359d6cf4d42604051610fb8919061564f565b60405180910390a35b5050505050505050565b6000600960009054906101000a900473ffffffffffffffffffffffffffffffffffffffff16905090565b610ffd613751565b600860009054906101000a900473ffffffffffffffffffffffffffffffffffffffff1673ffffffffffffffffffffffffffffffffffffffff16635cb4554160013360006040518463ffffffff1660e01b815260040161105e93929190615357565b600060405180830381600087803b15801561107857600080fd5b505af115801561108c573d6000803e3d6000fd5b505050506110be600660009054906101000a900473ffffffffffffffffffffffffffffffffffffffff16333089612a57565b6000806110ff6040518060400160405280600981526020017f5357415054524144450000000000000000000000000000000000000000000000815250611fc0565b73ffffffffffffffffffffffffffffffffffffffff1663908219c6338b8b8b8b8b8b8b6040518963ffffffff1660e01b8152600401611145989796959493929190615138565b6040805180830381600087803b15801561115e57600080fd5b505af1158015611172573d6000803e3d6000fd5b505050506040513d601f19601f8201168201806040525081019061119691906146ba565b9150915060008111156111b2576111b16000828b898c6135cb565b5b80827f365f046eee0dbb4ae04f44575210ea42ab49806174a43f0a26d2d0daf161b1ba8b426040516111e592919061547f565b60405180910390a3505050505050505050565b600660009054906101000a900473ffffffffffffffffffffffffffffffffffffffff1681565b60008061125f6040518060400160405280600981526020017f5357415054524144450000000000000000000000000000000000000000000000815250611fc0565b73ffffffffffffffffffffffffffffffffffffffff1663bfc564e8846040518263ffffffff1660e01b8152600401611297919061529f565b604080518083038186803b1580156112ae57600080fd5b505afa1580156112c2573d6000803e3d6000fd5b505050506040513d601f19601f820116820180604052508101906112e69190614619565b91509150811561132c5760005b83518110156113265761131984828151811061130b57fe5b602002602001015183610acc565b80806001019150506112f3565b5061136f565b8260405161133a9190615066565b60405180910390207f6e29a260a8215ad988d22e2cdebba1d4e5215885b2449ee6318cedf160d0945460405160405180910390a25b505050565b61137e3382613438565b50565b611389613751565b600860009054906101000a900473ffffffffffffffffffffffffffffffffffffffff1673ffffffffffffffffffffffffffffffffffffffff16635cb4554160013360006040518463ffffffff1660e01b81526004016113ea93929190615357565b600060405180830381600087803b15801561140457600080fd5b505af1158015611418573d6000803e3d6000fd5b5050505061144a600660009054906101000a900473ffffffffffffffffffffffffffffffffffffffff16333088612a57565b60008061148b6040518060400160405280600981526020017f5357415054524144450000000000000000000000000000000000000000000000815250611fc0565b73ffffffffffffffffffffffffffffffffffffffff166333a7eb5b338b8b8b8b8b8b8b6040518963ffffffff1660e01b81526004016114d1989796959493929190615138565b6040805180830381600087803b1580156114ea57600080fd5b505af11580156114fe573d6000803e3d6000fd5b505050506040513d601f19601f8201168201806040525081019061152291906146ba565b9150915080827f1f466e013c07bc16eafd2ccf7854d6c715f9f3e8a6a4e87bc4e2d7c7b323cae660405160405180910390a3505050505050505050565b61158d600660009054906101000a900473ffffffffffffffffffffffffffffffffffffffff16333085612a57565b60006115cd6040518060400160405280600481526020017f46554e4400000000000000000000000000000000000000000000000000000000815250611fc0565b73ffffffffffffffffffffffffffffffffffffffff166347e7ef2433856040518363ffffffff1660e01b81526004016116079291906151bd565b602060405180830381600087803b15801561162157600080fd5b505af1158015611635573d6000803e3d6000fd5b505050506040513d601f19601f8201168201806040525081019061165991906148b9565b90506000151582151514156116b15761167233826138ea565b6000817f991d73f5e17d46d419b8d00ea1ba02099a33278bef6ba16f591c3869fc665842336040516116a491906150af565b60405180910390a3611706565b6116bb30826138ea565b60006116c960013384613a7e565b905080827f991d73f5e17d46d419b8d00ea1ba02099a33278bef6ba16f591c3869fc665842336040516116fc91906150af565b60405180910390a3505b505050565b611713612884565b73ffffffffffffffffffffffffffffffffffffffff16600560019054906101000a900473ffffffffffffffffffffffffffffffffffffffff1673ffffffffffffffffffffffffffffffffffffffff16146117a2576040517f08c379a00000000000000000000000000000000000000000000000000000000081526004016117999061556f565b60405180910390fd5b60008060606000806117e86040518060400160405280600981526020017f5357415054524144450000000000000000000000000000000000000000000000815250611fc0565b73ffffffffffffffffffffffffffffffffffffffff1663509efd64876040518263ffffffff1660e01b815260040161182091906152dc565b600060405180830381600087803b15801561183a57600080fd5b505af115801561184e573d6000803e3d6000fd5b505050506040513d6000823e3d601f19601f8201168201806040525081019061187791906143a1565b9450945094509450945061188f6000858585856135cb565b83868673ffffffffffffffffffffffffffffffffffffffff167f67db57ede852f4140318cf5b135e0ea01230a62c0a3beda37612e479e8a7641f426040516118d7919061564f565b60405180910390a4505050505050565b60008060008373ffffffffffffffffffffffffffffffffffffffff1673ffffffffffffffffffffffffffffffffffffffff168152602001908152602001600020549050919050565b611937612884565b73ffffffffffffffffffffffffffffffffffffffff16600560019054906101000a900473ffffffffffffffffffffffffffffffffffffffff1673ffffffffffffffffffffffffffffffffffffffff16146119c6576040517f08c379a00000000000000000000000000000000000000000000000000000000081526004016119bd9061556f565b60405180910390fd5b600073ffffffffffffffffffffffffffffffffffffffff16600560019054906101000a900473ffffffffffffffffffffffffffffffffffffffff1673ffffffffffffffffffffffffffffffffffffffff167f8be0079c531659141344cd1fd0a4f28419497f9722a3daafe3b4186f6b6457e060405160405180910390a36000600560016101000a81548173ffffffffffffffffffffffffffffffffffffffff021916908373ffffffffffffffffffffffffffffffffffffffff160217905550565b600760009054906101000a900473ffffffffffffffffffffffffffffffffffffffff1681565b600080611aee6040518060400160405280600981526020017f5357415054524144450000000000000000000000000000000000000000000000815250611fc0565b73ffffffffffffffffffffffffffffffffffffffff166334772557338787876040518563ffffffff1660e01b8152600401611b2c94939291906150f3565b6040805180830381600087803b158015611b4557600080fd5b505af1158015611b59573d6000803e3d6000fd5b505050506040513d601f19601f82011682018060405250810190611b7d919061491e565b9150915080827f634910b514717fe132500771fb9e0ca49e263609b88f4cc5aa1c6507b4e0bede60405160405180910390a35050505050565b6000600560019054906101000a900473ffffffffffffffffffffffffffffffffffffffff16905090565b600080611c216040518060400160405280600981526020017f5357415054524144450000000000000000000000000000000000000000000000815250611fc0565b73ffffffffffffffffffffffffffffffffffffffff1663bfc564e8846040518263ffffffff1660e01b8152600401611c59919061529f565b604080518083038186803b158015611c7057600080fd5b505afa158015611c84573d6000803e3d6000fd5b505050506040513d601f19601f82011682018060405250810190611ca89190614619565b915091508115611cee5760005b8351811015611ce857611cdb848281518110611ccd57fe5b602002602001015183610e78565b8080600101915050611cb5565b50611d31565b82604051611cfc9190615066565b60405180910390207f202ececce4ec8527e534b19e88bed7d30e89196abc6815c8f7f71aae3ff11a4460405160405180910390a25b505050565b606060048054600181600116156101000203166002900480601f016020809104026020016040519081016040528092919081815260200182805460018160011615610100020316600290048015611dce5780601f10611da357610100808354040283529160200191611dce565b820191906000526020600020905b815481529060010190602001808311611db157829003601f168201915b5050505050905090565b611de3303383612d3f565b6000611df160003384613a7e565b905080827fc10b273d1e1478889bf14cfc20976c0178f47d6164f92d53745fe0c67988201f33604051611e2491906150af565b60405180910390a35050565b611e3c30333084612a57565b6000611e4a60013384613a7e565b905080827fab5f5548654b65d796f84aaee73cdd7fea9a28bf7a29fb80cb4451425797b4e633604051611e7d91906150af565b60405180910390a35050565b6000611f4c611e96612884565b84611f47856040518060600160405280602581526020016159b96025913960016000611ec0612884565b73ffffffffffffffffffffffffffffffffffffffff1673ffffffffffffffffffffffffffffffffffffffff16815260200190815260200160002060008a73ffffffffffffffffffffffffffffffffffffffff1673ffffffffffffffffffffffffffffffffffffffff168152602001908152602001600020546133dd9092919063ffffffff16565b61288c565b6001905092915050565b6000611f6a611f63612884565b8484613148565b6001905092915050565b600960009054906101000a900473ffffffffffffffffffffffffffffffffffffffff1681565b600860009054906101000a900473ffffffffffffffffffffffffffffffffffffffff1681565b6000600860009054906101000a900473ffffffffffffffffffffffffffffffffffffffff1673ffffffffffffffffffffffffffffffffffffffff16635d1495e930846040518363ffffffff1660e01b815260040161201f929190615246565b60206040518083038186803b15801561203757600080fd5b505afa15801561204b573d6000803e3d6000fd5b505050506040513d601f19601f8201168201806040525081019061206f91906141e9565b9050919050565b60006120b66040518060400160405280600981526020017f5357415054524144450000000000000000000000000000000000000000000000815250611fc0565b73ffffffffffffffffffffffffffffffffffffffff1663fd0ceefb33846040518363ffffffff1660e01b81526004016120f09291906150ca565b602060405180830381600087803b15801561210a57600080fd5b505af115801561211e573d6000803e3d6000fd5b505050506040513d601f19601f8201168201806040525081019061214291906148b9565b9050612172600660009054906101000a900473ffffffffffffffffffffffffffffffffffffffff16333084612a57565b807fde92ebff3e22b9f7cb899264130ad9f45c1b3c0dd3cd3b222814e343fafa22b960405160405180910390a25050565b6000806121e46040518060400160405280600981526020017f5357415054524144450000000000000000000000000000000000000000000000815250611fc0565b73ffffffffffffffffffffffffffffffffffffffff166326b3e792338787876040518563ffffffff1660e01b815260040161222294939291906150f3565b6040805180830381600087803b15801561223b57600080fd5b505af115801561224f573d6000803e3d6000fd5b505050506040513d601f19601f82011682018060405250810190612273919061491e565b9150915080827f634910b514717fe132500771fb9e0ca49e263609b88f4cc5aa1c6507b4e0bede60405160405180910390a35050505050565b6000600160008473ffffffffffffffffffffffffffffffffffffffff1673ffffffffffffffffffffffffffffffffffffffff16815260200190815260200160002060008373ffffffffffffffffffffffffffffffffffffffff1673ffffffffffffffffffffffffffffffffffffffff16815260200190815260200160002054905092915050565b61233b612884565b73ffffffffffffffffffffffffffffffffffffffff16600560019054906101000a900473ffffffffffffffffffffffffffffffffffffffff1673ffffffffffffffffffffffffffffffffffffffff16146123ca576040517f08c379a00000000000000000000000000000000000000000000000000000000081526004016123c19061556f565b60405180910390fd5b6123d5838383612d3f565b505050565b6123e2612884565b73ffffffffffffffffffffffffffffffffffffffff16600560019054906101000a900473ffffffffffffffffffffffffffffffffffffffff1673ffffffffffffffffffffffffffffffffffffffff1614612471576040517f08c379a00000000000000000000000000000000000000000000000000000000081526004016124689061556f565b60405180910390fd5b6124af6040518060400160405280600981526020017f5357415054524144450000000000000000000000000000000000000000000000815250611fc0565b73ffffffffffffffffffffffffffffffffffffffff1663eadb2bdd826040518263ffffffff1660e01b81526004016124e7919061564f565b600060405180830381600087803b15801561250157600080fd5b505af1158015612515573d6000803e3d6000fd5b5050505050565b612524612884565b73ffffffffffffffffffffffffffffffffffffffff16600560019054906101000a900473ffffffffffffffffffffffffffffffffffffffff1673ffffffffffffffffffffffffffffffffffffffff16146125b3576040517f08c379a00000000000000000000000000000000000000000000000000000000081526004016125aa9061556f565b60405180910390fd5b600073ffffffffffffffffffffffffffffffffffffffff168173ffffffffffffffffffffffffffffffffffffffff161415612623576040517f08c379a000000000000000000000000000000000000000000000000000000000815260040161261a9061550f565b60405180910390fd5b8073ffffffffffffffffffffffffffffffffffffffff16600560019054906101000a900473ffffffffffffffffffffffffffffffffffffffff1673ffffffffffffffffffffffffffffffffffffffff167f8be0079c531659141344cd1fd0a4f28419497f9722a3daafe3b4186f6b6457e060405160405180910390a380600560016101000a81548173ffffffffffffffffffffffffffffffffffffffff021916908373ffffffffffffffffffffffffffffffffffffffff16021790555050565b6126eb612884565b73ffffffffffffffffffffffffffffffffffffffff16600560019054906101000a900473ffffffffffffffffffffffffffffffffffffffff1673ffffffffffffffffffffffffffffffffffffffff161461277a576040517f08c379a00000000000000000000000000000000000000000000000000000000081526004016127719061556f565b60405180910390fd5b83600660006101000a81548173ffffffffffffffffffffffffffffffffffffffff021916908373ffffffffffffffffffffffffffffffffffffffff16021790555082600760006101000a81548173ffffffffffffffffffffffffffffffffffffffff021916908373ffffffffffffffffffffffffffffffffffffffff16021790555081600860006101000a81548173ffffffffffffffffffffffffffffffffffffffff021916908373ffffffffffffffffffffffffffffffffffffffff16021790555080600960006101000a81548173ffffffffffffffffffffffffffffffffffffffff021916908373ffffffffffffffffffffffffffffffffffffffff16021790555050505050565b600033905090565b600073ffffffffffffffffffffffffffffffffffffffff168373ffffffffffffffffffffffffffffffffffffffff1614156128fc576040517f08c379a00000000000000000000000000000000000000000000000000000000081526004016128f3906155cf565b60405180910390fd5b600073ffffffffffffffffffffffffffffffffffffffff168273ffffffffffffffffffffffffffffffffffffffff16141561296c576040517f08c379a00000000000000000000000000000000000000000000000000000000081526004016129639061552f565b60405180910390fd5b80600160008573ffffffffffffffffffffffffffffffffffffffff1673ffffffffffffffffffffffffffffffffffffffff16815260200190815260200160002060008473ffffffffffffffffffffffffffffffffffffffff1673ffffffffffffffffffffffffffffffffffffffff168152602001908152602001600020819055508173ffffffffffffffffffffffffffffffffffffffff168373ffffffffffffffffffffffffffffffffffffffff167f8c5be1e5ebec7d5bd14f71427d1e84f3dd0314c0f7b2291e5b200ac8c7c3b92583604051612a4a919061564f565b60405180910390a3505050565b600060608573ffffffffffffffffffffffffffffffffffffffff166323b872dd868686604051602401612a8c939291906151e6565b6040516020818303038152906040529060e01b6020820180517bffffffffffffffffffffffffffffffffffffffffffffffffffffffff8381831617835250505050604051612ada919061507d565b6000604051808303816000865af19150503d8060008114612b17576040519150601f19603f3d011682016040523d82523d6000602084013e612b1c565b606091505b5091509150818015612b4a5750600081511480612b49575080806020019051810190612b489190614471565b5b5b612b89576040517f08c379a0000000000000000000000000000000000000000000000000000000008152600401612b809061560f565b60405180910390fd5b505050505050565b600073ffffffffffffffffffffffffffffffffffffffff168273ffffffffffffffffffffffffffffffffffffffff161415612c01576040517f08c379a0000000000000000000000000000000000000000000000000000000008152600401612bf89061558f565b60405180910390fd5b612c0d82600083613e8b565b612c7881604051806060016040528060228152602001615949602291396000808673ffffffffffffffffffffffffffffffffffffffff1673ffffffffffffffffffffffffffffffffffffffff168152602001908152602001600020546133dd9092919063ffffffff16565b6000808473ffffffffffffffffffffffffffffffffffffffff1673ffffffffffffffffffffffffffffffffffffffff16815260200190815260200160002081905550612ccf81600254613e9090919063ffffffff16565b600281905550600073ffffffffffffffffffffffffffffffffffffffff168273ffffffffffffffffffffffffffffffffffffffff167fddf252ad1be2c89b69c2b068fc378daa952ba7f163c4a11628f55a4df523b3ef83604051612d33919061564f565b60405180910390a35050565b600060608473ffffffffffffffffffffffffffffffffffffffff1663a9059cbb8585604051602401612d72929190615276565b6040516020818303038152906040529060e01b6020820180517bffffffffffffffffffffffffffffffffffffffffffffffffffffffff8381831617835250505050604051612dc0919061507d565b6000604051808303816000865af19150503d8060008114612dfd576040519150601f19603f3d011682016040523d82523d6000602084013e612e02565b606091505b5091509150818015612e305750600081511480612e2f575080806020019051810190612e2e9190614471565b5b5b612e6f576040517f08c379a0000000000000000000000000000000000000000000000000000000008152600401612e66906154cf565b60405180910390fd5b5050505050565b6000612eb66040518060400160405280600481526020017f46554e4400000000000000000000000000000000000000000000000000000000815250611fc0565b90508073ffffffffffffffffffffffffffffffffffffffff1663de9ff4c285856040518363ffffffff1660e01b8152600401612ef392919061566a565b600060405180830381600087803b158015612f0d57600080fd5b505af1158015612f21573d6000803e3d6000fd5b505050506000881115612f3d57612f3c6001898989866135cb565b5b600860009054906101000a900473ffffffffffffffffffffffffffffffffffffffff1673ffffffffffffffffffffffffffffffffffffffff16634e69d5606040518163ffffffff1660e01b815260040160206040518083038186803b158015612fa557600080fd5b505afa158015612fb9573d6000803e3d6000fd5b505050506040513d601f19601f82011682018060405250810190612fdd9190614471565b1561307457600184141561302f5761302a600660009054906101000a900473ffffffffffffffffffffffffffffffffffffffff1686613025868661357690919063ffffffff16565b612d3f565b61306f565b61306e600660009054906101000a900473ffffffffffffffffffffffffffffffffffffffff16866130698686613e9090919063ffffffff16565b612d3f565b5b6130a2565b6130a1600660009054906101000a900473ffffffffffffffffffffffffffffffffffffffff168684612d3f565b5b600184141561313e57600860009054906101000a900473ffffffffffffffffffffffffffffffffffffffff1673ffffffffffffffffffffffffffffffffffffffff16635cb45541600287866040518463ffffffff1660e01b815260040161310b9392919061538e565b600060405180830381600087803b15801561312557600080fd5b505af1158015613139573d6000803e3d6000fd5b505050505b5050505050505050565b600073ffffffffffffffffffffffffffffffffffffffff168373ffffffffffffffffffffffffffffffffffffffff1614156131b8576040517f08c379a00000000000000000000000000000000000000000000000000000000081526004016131af906155af565b60405180910390fd5b600073ffffffffffffffffffffffffffffffffffffffff168273ffffffffffffffffffffffffffffffffffffffff161415613228576040517f08c379a000000000000000000000000000000000000000000000000000000000815260040161321f906154af565b60405180910390fd5b613233838383613e8b565b61329e8160405180606001604052806026815260200161596b602691396000808773ffffffffffffffffffffffffffffffffffffffff1673ffffffffffffffffffffffffffffffffffffffff168152602001908152602001600020546133dd9092919063ffffffff16565b6000808573ffffffffffffffffffffffffffffffffffffffff1673ffffffffffffffffffffffffffffffffffffffff16815260200190815260200160002081905550613331816000808573ffffffffffffffffffffffffffffffffffffffff1673ffffffffffffffffffffffffffffffffffffffff1681526020019081526020016000205461357690919063ffffffff16565b6000808473ffffffffffffffffffffffffffffffffffffffff1673ffffffffffffffffffffffffffffffffffffffff168152602001908152602001600020819055508173ffffffffffffffffffffffffffffffffffffffff168373ffffffffffffffffffffffffffffffffffffffff167fddf252ad1be2c89b69c2b068fc378daa952ba7f163c4a11628f55a4df523b3ef836040516133d0919061564f565b60405180910390a3505050565b6000838311158290613425576040517f08c379a000000000000000000000000000000000000000000000000000000000815260040161341c91906153c5565b60405180910390fd5b5060008385039050809150509392505050565b600080600080600060606134806040518060400160405280600981526020017f5357415054524144450000000000000000000000000000000000000000000000815250611fc0565b73ffffffffffffffffffffffffffffffffffffffff16631e2a565b89896040518363ffffffff1660e01b81526004016134ba92919061521d565b600060405180830381600087803b1580156134d457600080fd5b505af11580156134e8573d6000803e3d6000fd5b505050506040513d6000823e3d601f19601f82011682018060405250810190613511919061495a565b95509550955095509550955061352c8682868b898888612e76565b8486887fc2f1c5c0613a36ffb87619c8f0143759ee15b53f0bff852377b4d993904cfa3a848c884260405161356494939291906153e7565b60405180910390a45050505050505050565b6000808284019050838110156135c1576040517f08c379a00000000000000000000000000000000000000000000000000000000081526004016135b89061554f565b60405180910390fd5b8091505092915050565b600060018314156135db57600190505b60008660ff16141561369a576136256040518060400160405280600481526020017f5249534b00000000000000000000000000000000000000000000000000000000815250611fc0565b73ffffffffffffffffffffffffffffffffffffffff1663fdbd56db858388866040518563ffffffff1660e01b81526004016136639493929190615433565b600060405180830381600087803b15801561367d57600080fd5b505af1158015613691573d6000803e3d6000fd5b50505050613749565b6136d86040518060400160405280600481526020017f5249534b00000000000000000000000000000000000000000000000000000000815250611fc0565b73ffffffffffffffffffffffffffffffffffffffff16638d2066dc858388866040518563ffffffff1660e01b81526004016137169493929190615433565b600060405180830381600087803b15801561373057600080fd5b505af1158015613744573d6000803e3d6000fd5b505050505b505050505050565b6000600860009054906101000a900473ffffffffffffffffffffffffffffffffffffffff1673ffffffffffffffffffffffffffffffffffffffff1663ffaef0386040518163ffffffff1660e01b815260040160206040518083038186803b1580156137bb57600080fd5b505afa1580156137cf573d6000803e3d6000fd5b505050506040513d601f19601f820116820180604052508101906137f391906148b9565b905080341015613838576040517f08c379a000000000000000000000000000000000000000000000000000000000815260040161382f906154ef565b60405180910390fd5b6000600860009054906101000a900473ffffffffffffffffffffffffffffffffffffffff1673ffffffffffffffffffffffffffffffffffffffff1663e8a353926040518163ffffffff1660e01b815260040160206040518083038186803b1580156138a257600080fd5b505afa1580156138b6573d6000803e3d6000fd5b505050506040513d601f19601f820116820180604052508101906138da9190614212565b90506138e68183613eda565b5050565b600073ffffffffffffffffffffffffffffffffffffffff168273ffffffffffffffffffffffffffffffffffffffff16141561395a576040517f08c379a00000000000000000000000000000000000000000000000000000000081526004016139519061562f565b60405180910390fd5b61396660008383613e8b565b61397b8160025461357690919063ffffffff16565b6002819055506139d2816000808573ffffffffffffffffffffffffffffffffffffffff1673ffffffffffffffffffffffffffffffffffffffff1681526020019081526020016000205461357690919063ffffffff16565b6000808473ffffffffffffffffffffffffffffffffffffffff1673ffffffffffffffffffffffffffffffffffffffff168152602001908152602001600020819055508173ffffffffffffffffffffffffffffffffffffffff16600073ffffffffffffffffffffffffffffffffffffffff167fddf252ad1be2c89b69c2b068fc378daa952ba7f163c4a11628f55a4df523b3ef83604051613a72919061564f565b60405180910390a35050565b6000808415613b5d57613ac56040518060400160405280600481526020017f4d494e4500000000000000000000000000000000000000000000000000000000815250611fc0565b73ffffffffffffffffffffffffffffffffffffffff166347e7ef2485856040518363ffffffff1660e01b8152600401613aff929190615276565b6040805180830381600087803b158015613b1857600080fd5b505af1158015613b2c573d6000803e3d6000fd5b505050506040513d601f19601f82011682018060405250810190613b50919061491e565b8093508192505050613c2f565b613b9b6040518060400160405280600481526020017f4d494e4500000000000000000000000000000000000000000000000000000000815250611fc0565b73ffffffffffffffffffffffffffffffffffffffff1663f3fef3a385856040518363ffffffff1660e01b8152600401613bd5929190615276565b6040805180830381600087803b158015613bee57600080fd5b505af1158015613c02573d6000803e3d6000fd5b505050506040513d601f19601f82011682018060405250810190613c26919061491e565b80935081925050505b600860009054906101000a900473ffffffffffffffffffffffffffffffffffffffff1673ffffffffffffffffffffffffffffffffffffffff16634e69d5606040518163ffffffff1660e01b815260040160206040518083038186803b158015613c9757600080fd5b505afa158015613cab573d6000803e3d6000fd5b505050506040513d601f19601f82011682018060405250810190613ccf9190614471565b15613df157600860009054906101000a900473ffffffffffffffffffffffffffffffffffffffff1673ffffffffffffffffffffffffffffffffffffffff1663c634d032826040518263ffffffff1660e01b8152600401613d2f919061564f565b600060405180830381600087803b158015613d4957600080fd5b505af1158015613d5d573d6000803e3d6000fd5b50505050600860009054906101000a900473ffffffffffffffffffffffffffffffffffffffff1673ffffffffffffffffffffffffffffffffffffffff1663cd049a9385846040518363ffffffff1660e01b8152600401613dbe929190615276565b600060405180830381600087803b158015613dd857600080fd5b505af1158015613dec573d6000803e3d6000fd5b505050505b600860009054906101000a900473ffffffffffffffffffffffffffffffffffffffff1673ffffffffffffffffffffffffffffffffffffffff16635cb45541600086856040518463ffffffff1660e01b8152600401613e5193929190615320565b600060405180830381600087803b158015613e6b57600080fd5b505af1158015613e7f573d6000803e3d6000fd5b50505050509392505050565b505050565b6000613ed283836040518060400160405280601e81526020017f536166654d6174683a207375627472616374696f6e206f766572666c6f7700008152506133dd565b905092915050565b60008273ffffffffffffffffffffffffffffffffffffffff1682600067ffffffffffffffff81118015613f0c57600080fd5b506040519080825280601f01601f191660200182016040528015613f3f5781602001600182028036833780820191505090505b50604051613f4d919061507d565b60006040518083038185875af1925050503d8060008114613f8a576040519150601f19603f3d011682016040523d82523d6000602084013e613f8f565b606091505b5050905080613fd3576040517f08c379a0000000000000000000000000000000000000000000000000000000008152600401613fca906155ef565b60405180910390fd5b505050565b600081359050613fe7816158d5565b92915050565b600081519050613ffc816158d5565b92915050565b600081519050614011816158ec565b92915050565b600082601f83011261402857600080fd5b813561403b614036826156db565b6156ae565b9150818183526020840193506020810190508385602084028201111561406057600080fd5b60005b83811015614090578161407688826140c4565b845260208401935060208301925050600181019050614063565b5050505092915050565b6000813590506140a981615903565b92915050565b6000815190506140be81615903565b92915050565b6000813590506140d38161591a565b92915050565b6000815190506140e88161591a565b92915050565b600082601f8301126140ff57600080fd5b813561411261410d82615703565b6156ae565b9150808252602083016020830185838301111561412e57600080fd5b614139838284615882565b50505092915050565b600082601f83011261415357600080fd5b815161416661416182615703565b6156ae565b9150808252602083016020830185838301111561418257600080fd5b61418d838284615891565b50505092915050565b6000813590506141a581615931565b92915050565b6000815190506141ba81615931565b92915050565b6000602082840312156141d257600080fd5b60006141e084828501613fd8565b91505092915050565b6000602082840312156141fb57600080fd5b600061420984828501613fed565b91505092915050565b60006020828403121561422457600080fd5b600061423284828501614002565b91505092915050565b6000806040838503121561424e57600080fd5b600061425c85828601613fd8565b925050602061426d85828601613fd8565b9150509250929050565b6000806000806080858703121561428d57600080fd5b600061429b87828801613fd8565b94505060206142ac87828801613fd8565b93505060406142bd87828801613fd8565b92505060606142ce87828801613fd8565b91505092959194509250565b6000806000606084860312156142ef57600080fd5b60006142fd86828701613fd8565b935050602061430e86828701613fd8565b925050604061431f86828701614196565b9150509250925092565b6000806040838503121561433c57600080fd5b600061434a85828601613fd8565b925050602061435b858286016140c4565b9150509250929050565b6000806040838503121561437857600080fd5b600061438685828601613fd8565b925050602061439785828601614196565b9150509250929050565b600080600080600060a086880312156143b957600080fd5b60006143c788828901613fed565b95505060206143d8888289016141ab565b945050604086015167ffffffffffffffff8111156143f557600080fd5b61440188828901614142565b9350506060614412888289016141ab565b9250506080614423888289016141ab565b9150509295509295909350565b60006020828403121561444257600080fd5b600082013567ffffffffffffffff81111561445c57600080fd5b61446884828501614017565b91505092915050565b60006020828403121561448357600080fd5b6000614491848285016140af565b91505092915050565b60008060008060008060c087890312156144b357600080fd5b60006144c189828a016140af565b96505060206144d289828a01613fed565b95505060406144e389828a016141ab565b94505060606144f489828a016141ab565b935050608087015167ffffffffffffffff81111561451157600080fd5b61451d89828a01614142565b92505060a061452e89828a016141ab565b9150509295509295509295565b60008060008060008060008060006101208a8c03121561455a57600080fd5b60006145688c828d016140af565b99505060206145798c828d01613fed565b985050604061458a8c828d016141ab565b975050606061459b8c828d016141ab565b96505060806145ac8c828d016141ab565b95505060a06145bd8c828d016141ab565b94505060c06145ce8c828d016141ab565b93505060e06145df8c828d016141ab565b9250506101008a015167ffffffffffffffff8111156145fd57600080fd5b6146098c828d01614142565b9150509295985092959850929598565b6000806040838503121561462c57600080fd5b600061463a858286016140af565b925050602061464b858286016141ab565b9150509250929050565b60006020828403121561466757600080fd5b6000614675848285016140c4565b91505092915050565b6000806040838503121561469157600080fd5b600061469f858286016140c4565b92505060206146b085828601614196565b9150509250929050565b600080604083850312156146cd57600080fd5b60006146db858286016140d9565b92505060206146ec858286016141ab565b9150509250929050565b60008060006060848603121561470b57600080fd5b6000614719868287016140c4565b935050602061472a86828701614196565b925050604061473b86828701614196565b9150509250925092565b60006020828403121561475757600080fd5b600082013567ffffffffffffffff81111561477157600080fd5b61477d848285016140ee565b91505092915050565b6000806040838503121561479957600080fd5b600083013567ffffffffffffffff8111156147b357600080fd5b6147bf858286016140ee565b92505060206147d085828601614196565b9150509250929050565b600080600080600080600060e0888a0312156147f557600080fd5b600088013567ffffffffffffffff81111561480f57600080fd5b61481b8a828b016140ee565b975050602061482c8a828b01614196565b965050604061483d8a828b01614196565b955050606061484e8a828b01614196565b945050608061485f8a828b01614196565b93505060a06148708a828b01614196565b92505060c06148818a828b01614196565b91505092959891949750929550565b6000602082840312156148a257600080fd5b60006148b084828501614196565b91505092915050565b6000602082840312156148cb57600080fd5b60006148d9848285016141ab565b91505092915050565b600080604083850312156148f557600080fd5b600061490385828601614196565b92505060206149148582860161409a565b9150509250929050565b6000806040838503121561493157600080fd5b600061493f858286016141ab565b9250506020614950858286016141ab565b9150509250929050565b60008060008060008060c0878903121561497357600080fd5b600061498189828a016141ab565b965050602061499289828a016141ab565b95505060406149a389828a016141ab565b94505060606149b489828a016141ab565b93505060806149c589828a016141ab565b92505060a087015167ffffffffffffffff8111156149e257600080fd5b6149ee89828a01614142565b9150509295509295509295565b6000614a078383614b14565b60208301905092915050565b6000614a1f8383614b32565b60208301905092915050565b614a3481615816565b82525050565b614a43816157a5565b82525050565b6000614a548261573f565b614a5e818561576d565b9350614a698361572f565b8060005b83811015614a9a578151614a8188826149fb565b9750614a8c83615760565b925050600181019050614a6d565b5085935050505092915050565b6000614ab28261573f565b614abc818561577e565b9350614ac78361572f565b8060005b83811015614af8578151614adf8882614a13565b9750614aea83615760565b925050600181019050614acb565b5085935050505092915050565b614b0e816157c9565b82525050565b614b1d816157d5565b82525050565b614b2c816157d5565b82525050565b614b3b816157d5565b82525050565b6000614b4c8261574a565b614b568185615789565b9350614b66818560208601615891565b80840191505092915050565b614b7b81615828565b82525050565b614b8a8161583a565b82525050565b614b998161584c565b82525050565b6000614baa82615755565b614bb48185615794565b9350614bc4818560208601615891565b614bcd816158c4565b840191505092915050565b6000614be5602383615794565b91507f45524332303a207472616e7366657220746f20746865207a65726f206164647260008301527f65737300000000000000000000000000000000000000000000000000000000006020830152604082019050919050565b6000614c4b601f83615794565b91507f5472616e7366657248656c7065723a205452414e534645525f4641494c4544006000830152602082019050919050565b6000614c8b602083615794565b91507f5f666565526563656976653a20696e737566666963656e7420666f72206665656000830152602082019050919050565b6000614ccb602683615794565b91507f4f776e61626c653a206e6577206f776e657220697320746865207a65726f206160008301527f64647265737300000000000000000000000000000000000000000000000000006020830152604082019050919050565b6000614d31602283615794565b91507f45524332303a20617070726f766520746f20746865207a65726f20616464726560008301527f73730000000000000000000000000000000000000000000000000000000000006020830152604082019050919050565b6000614d97601b83615794565b91507f536166654d6174683a206164646974696f6e206f766572666c6f7700000000006000830152602082019050919050565b6000614dd7602083615794565b91507f4f776e61626c653a2063616c6c6572206973206e6f7420746865206f776e65726000830152602082019050919050565b6000614e17602183615794565b91507f45524332303a206275726e2066726f6d20746865207a65726f2061646472657360008301527f73000000000000000000000000000000000000000000000000000000000000006020830152604082019050919050565b6000614e7d602583615794565b91507f45524332303a207472616e736665722066726f6d20746865207a65726f20616460008301527f64726573730000000000000000000000000000000000000000000000000000006020830152604082019050919050565b6000614ee3602483615794565b91507f45524332303a20617070726f76652066726f6d20746865207a65726f2061646460008301527f72657373000000000000000000000000000000000000000000000000000000006020830152604082019050919050565b6000614f49602383615794565b91507f5472616e7366657248656c7065723a204554485f5452414e534645525f46414960008301527f4c454400000000000000000000000000000000000000000000000000000000006020830152604082019050919050565b6000614faf602483615794565b91507f5472616e7366657248656c7065723a205452414e534645525f46524f4d5f464160008301527f494c4544000000000000000000000000000000000000000000000000000000006020830152604082019050919050565b6000615015601f83615794565b91507f45524332303a206d696e7420746f20746865207a65726f2061646472657373006000830152602082019050919050565b615051816157ff565b82525050565b61506081615809565b82525050565b60006150728284614aa7565b915081905092915050565b60006150898284614b41565b915081905092915050565b60006020820190506150a96000830184614a3a565b92915050565b60006020820190506150c46000830184614a2b565b92915050565b60006040820190506150df6000830185614a2b565b6150ec6020830184614b23565b9392505050565b60006080820190506151086000830187614a2b565b6151156020830186614b23565b6151226040830185615048565b61512f6060830184615048565b95945050505050565b60006101008201905061514e600083018b614a2b565b8181036020830152615160818a614b9f565b905061516f6040830189615048565b61517c6060830188615048565b6151896080830187615048565b61519660a0830186615048565b6151a360c0830185615048565b6151b060e0830184615048565b9998505050505050505050565b60006040820190506151d26000830185614a2b565b6151df6020830184615048565b9392505050565b60006060820190506151fb6000830186614a3a565b6152086020830185614a3a565b6152156040830184615048565b949350505050565b60006040820190506152326000830185614a3a565b61523f6020830184614b23565b9392505050565b600060408201905061525b6000830185614a3a565b818103602083015261526d8184614b9f565b90509392505050565b600060408201905061528b6000830185614a3a565b6152986020830184615048565b9392505050565b600060208201905081810360008301526152b98184614a49565b905092915050565b60006020820190506152d66000830184614b05565b92915050565b60006020820190506152f16000830184614b23565b92915050565b600060408201905061530c6000830185614b23565b6153196020830184615048565b9392505050565b60006060820190506153356000830186614b72565b6153426020830185614a3a565b61534f6040830184615048565b949350505050565b600060608201905061536c6000830186614b81565b6153796020830185614a2b565b6153866040830184614b72565b949350505050565b60006060820190506153a36000830186614b90565b6153b06020830185614a3a565b6153bd6040830184615048565b949350505050565b600060208201905081810360008301526153df8184614b9f565b905092915050565b600060808201905081810360008301526154018187614b9f565b90506154106020830186614a3a565b61541d6040830185615048565b61542a6060830184615048565b95945050505050565b6000608082019050818103600083015261544d8187614b9f565b905061545c6020830186614b05565b6154696040830185615048565b6154766060830184615048565b95945050505050565b600060408201905081810360008301526154998185614b9f565b90506154a86020830184615048565b9392505050565b600060208201905081810360008301526154c881614bd8565b9050919050565b600060208201905081810360008301526154e881614c3e565b9050919050565b6000602082019050818103600083015261550881614c7e565b9050919050565b6000602082019050818103600083015261552881614cbe565b9050919050565b6000602082019050818103600083015261554881614d24565b9050919050565b6000602082019050818103600083015261556881614d8a565b9050919050565b6000602082019050818103600083015261558881614dca565b9050919050565b600060208201905081810360008301526155a881614e0a565b9050919050565b600060208201905081810360008301526155c881614e70565b9050919050565b600060208201905081810360008301526155e881614ed6565b9050919050565b6000602082019050818103600083015261560881614f3c565b9050919050565b6000602082019050818103600083015261562881614fa2565b9050919050565b6000602082019050818103600083015261564881615008565b9050919050565b60006020820190506156646000830184615048565b92915050565b600060408201905061567f6000830185615048565b61568c6020830184615048565b9392505050565b60006020820190506156a86000830184615057565b92915050565b6000604051905081810181811067ffffffffffffffff821117156156d157600080fd5b8060405250919050565b600067ffffffffffffffff8211156156f257600080fd5b602082029050602081019050919050565b600067ffffffffffffffff82111561571a57600080fd5b601f19601f8301169050602081019050919050565b6000819050602082019050919050565b600081519050919050565b600081519050919050565b600081519050919050565b6000602082019050919050565b600082825260208201905092915050565b600081905092915050565b600081905092915050565b600082825260208201905092915050565b60006157b0826157df565b9050919050565b60006157c2826157df565b9050919050565b60008115159050919050565b6000819050919050565b600073ffffffffffffffffffffffffffffffffffffffff82169050919050565b6000819050919050565b600060ff82169050919050565b60006158218261585e565b9050919050565b6000615833826157ff565b9050919050565b6000615845826157ff565b9050919050565b6000615857826157ff565b9050919050565b600061586982615870565b9050919050565b600061587b826157df565b9050919050565b82818337600083830152505050565b60005b838110156158af578082015181840152602081019050615894565b838111156158be576000848401525b50505050565b6000601f19601f8301169050919050565b6158de816157a5565b81146158e957600080fd5b50565b6158f5816157b7565b811461590057600080fd5b50565b61590c816157c9565b811461591757600080fd5b50565b615923816157d5565b811461592e57600080fd5b50565b61593a816157ff565b811461594557600080fd5b5056fe45524332303a206275726e20616d6f756e7420657863656564732062616c616e636545524332303a207472616e7366657220616d6f756e7420657863656564732062616c616e636545524332303a207472616e7366657220616d6f756e74206578636565647320616c6c6f77616e636545524332303a2064656372656173656420616c6c6f77616e63652062656c6f77207a65726fa2646970667358221220325cf68ce0dba4e5f45cc4f635e7225c6088e6c331463435cece2813ba9b9f8b64736f6c634300060c0033",
  "immutableReferences": {},
  "source": "// SPDX-License-Identifier: MIT\n\npragma solidity >=0.6.12;\npragma experimental ABIEncoderV2;\n\nimport \"../openzeppelin/contracts/token/ERC20/ERC20.sol\";\nimport \"../openzeppelin/contracts/math/SafeMath.sol\";\nimport \"../openzeppelin/contracts/access/Ownable.sol\";\nimport '../libraries/TransferHelper.sol';\nimport \"../interface/IFund.sol\";\nimport \"../interface/IRisk.sol\";\nimport \"../interface/ISwapTrade.sol\";\nimport \"../interface/IMine.sol\";\nimport \"../interface/IPoolFactory.sol\";\n\ncontract TeemoPool is ERC20(\"TMOLP\", \"TMOLP\"), Ownable {\n    using SafeMath for uint256;\n\n    address public tokenAddr;\n    address public mainnetTokenAddr;\n    address public poolFactoryAddr;\n    address public quoteFactoryAddr;\n\n    // mapping(string => address) public allModuleInfo;\n\n    // address public fundAddr;\n    // address public riskAddr;\n    // address public swapTradeAddr;\n    // address public mineAddr;\n\n    event OpenLimitSwap(bytes32 indexed orderID, uint256 indexed openPrice);\n    event CancelLimitSwap(uint256 indexed tokenAmount);\n    event TradeLimitSwap(address indexed success,uint256 indexed tokenAmount, uint256 time);\n    event OpenMarketSwap(bytes32 indexed orderID, string symbol, uint256 indexed openPrice, uint256 time);\n    event CloseMarketSwap(bytes32 indexed orderID, string symbol, address userAddr, uint256 indexed closePrice,uint256 indexed plFlag,uint256 plAmount, uint256 time);\n    event CloseLimitSwap(address indexed userAddr,uint256 indexed closePrice,uint256 indexed closeType,uint256 plFlag,uint256 plAmount);\n    event UpdateSwap(uint256 indexed pLimitPrice, uint256 indexed lLimitPrice);\n    event FailedCloseLimitSwap(bytes32[] indexed orderIDs);\n    event FailedTradeLimitSwap(bytes32[] indexed orderIDs);\n\n    event LPDeposit(address _userAddr,uint256 indexed lpAmount,uint256 indexed teemoTokenAmount);\n    event LPWithdraw(address _userAddr,uint256 indexed tokenAmount);\n    event StartMine(address _userAddr,uint256 indexed tokenAmount,uint256 indexed teemoTokenAmount);\n    event StopMine(address _userAddr,uint256 indexed tokenAmount,uint256 indexed teemoTokenAmount);\n\n    event SetOrderPrice(address indexed userAddr, bytes32 indexed _orderID, uint256 indexed _price, uint256 time);\n    event EmergencyWithdraw(address indexed tokenAddr, address indexed userAddr, uint256 indexed amount);\n\n    function initialize(address _tokenAddr, address _mainnetTokenAddr, address _poolFactoryAddr, address _quoteFactoryAddr) public onlyOwner{\n        tokenAddr = _tokenAddr;\n        mainnetTokenAddr = _mainnetTokenAddr;\n        poolFactoryAddr = _poolFactoryAddr;\n        quoteFactoryAddr = _quoteFactoryAddr;\n    }\n\n    // function setModuleAddr(string memory _moduleName,address _moduleAddr) public onlyOwner {\n    //     allModuleInfo[_moduleName] = _moduleAddr;\n    //     if(keccak256(bytes(_moduleName)) == keccak256(bytes(\"FUND\"))){\n    //         fundAddr = getModuleAddr(_moduleName);\n    //     }else if(keccak256(bytes(_moduleName)) == keccak256(bytes(\"RISK\"))){\n    //         riskAddr = getModuleAddr(_moduleName);\n    //     }else if(keccak256(bytes(_moduleName)) == keccak256(bytes(\"SWAPTRADE\"))){\n    //         swapTradeAddr = getModuleAddr(_moduleName);\n    //     }else if(keccak256(bytes(_moduleName)) == keccak256(bytes(\"MINE\"))){\n    //         mineAddr = getModuleAddr(_moduleName);\n    //     }\n    // }\n\n    // modifier onlyNotEmergency() {\n    //     bool emergency = IPoolFactory(poolFactoryAddr).getEmergency();\n    //     require(emergency == false, \"Emergency Condition\");\n    //     _;\n    // }\n\n    function getModuleAddr(string memory _moduleName) public view returns (address moduleAddr) {\n        moduleAddr = IPoolFactory(poolFactoryAddr).getPoolModuleAddr(address(this), _moduleName);\n    }\n\n    function getQuoteFactoryAddr() public view returns(address) {\n        return quoteFactoryAddr;\n    }\n \n    // LP\n    function lpDeposit(uint256 _tokenAmount,bool mine) public {\n        TransferHelper.safeTransferFrom(tokenAddr,msg.sender,address(this), _tokenAmount);\n        uint256 lpAmount = IFund(getModuleAddr(\"FUND\")).deposit(msg.sender, _tokenAmount);\n        if(mine == false){\n            _mint(msg.sender,lpAmount);\n            emit LPDeposit(msg.sender, lpAmount, 0);\n        }else{\n            _mint(address(this),lpAmount);\n            uint256 userTeemoTokenAmount = _mineType(true, msg.sender, lpAmount);\n            emit LPDeposit(msg.sender, lpAmount, userTeemoTokenAmount);\n        }    \n    }\n\n    // LP\n    function startMine(uint256 _lpAmount) public {\n        TransferHelper.safeTransferFrom(address(this),msg.sender,address(this), _lpAmount);\n        uint256 userTeemoTokenAmount = _mineType(true, msg.sender, _lpAmount);\n        emit StartMine(msg.sender, _lpAmount, userTeemoTokenAmount);\n    }\n   \n    // LP\n    function lpWithdraw(uint256 _lpAmount) public {  \n        TransferHelper.safeTransferFrom(address(this),msg.sender,address(this),_lpAmount);\n        uint256 tokenAmount = IFund(getModuleAddr(\"FUND\")).withdraw(msg.sender, _lpAmount);\n        _burn(address(this),_lpAmount);// lptoken\n        TransferHelper.safeTransfer(tokenAddr,msg.sender,tokenAmount);\n        emit LPWithdraw(msg.sender, tokenAmount);\n    }\n\n    // LP\n    function stopMine(uint256 _lpAmount) public {\n        TransferHelper.safeTransfer(address(this),msg.sender,_lpAmount);\n        uint256 userTeemoTokenAmount = _mineType(false, msg.sender, _lpAmount);\n        emit StopMine(msg.sender, _lpAmount, userTeemoTokenAmount);\n    }\n\n    function _mineType(bool _mine, address _userAddr, uint256 _lpAmount) internal returns(uint256 userTeemoTokenAmount){\n        uint256 teemoTokenAmount;\n        if(_mine){\n            (teemoTokenAmount, userTeemoTokenAmount) = IMine(getModuleAddr(\"MINE\")).deposit(_userAddr,_lpAmount); // \n        }else{\n            (teemoTokenAmount, userTeemoTokenAmount) = IMine(getModuleAddr(\"MINE\")).withdraw(_userAddr,_lpAmount); //\n        }\n        if(IPoolFactory(poolFactoryAddr).getStatus()){\n            IPoolFactory(poolFactoryAddr).mintToken(teemoTokenAmount);\n            IPoolFactory(poolFactoryAddr).safeTeemoTransfer(_userAddr,userTeemoTokenAmount);\n        }\n        IPoolFactory(poolFactoryAddr).updateBonus(0, _userAddr,userTeemoTokenAmount);\n    }\n\n    // \n    function openLimitSwap(string memory _symbol,uint256 _limitPrice,uint256 _tokenAmount,uint256 _lever,uint256 _bsFlag,uint256 _pLimitPrice,uint256 _lLimitPrice) public {\n        _feeReceive();\n        IPoolFactory(poolFactoryAddr).updateBonus(1, msg.sender,0);\n        TransferHelper.safeTransferFrom(tokenAddr,msg.sender,address(this),_tokenAmount);\n        (bytes32 orderID, uint256 openPrice) = ISwapTrade(getModuleAddr(\"SWAPTRADE\")).openLimitSwap(msg.sender,_symbol,_limitPrice,_tokenAmount,_lever,_bsFlag,_pLimitPrice,_lLimitPrice);\n        emit OpenLimitSwap(orderID, openPrice);\n    }\n\n    // \n    function cancelLimitSwap(bytes32 _orderID) public {\n        uint256 tokenAmount = ISwapTrade(getModuleAddr(\"SWAPTRADE\")).cancelLimitSwap(msg.sender,_orderID);\n        TransferHelper.safeTransferFrom(tokenAddr,msg.sender,address(this),tokenAmount);\n        emit CancelLimitSwap(tokenAmount);\n    }\n\n    // \n    function tradeLimitSwaps(bytes32[] memory _orderIDs) public {\n        (bool status, uint256 _blockIndex) = ISwapTrade(getModuleAddr(\"SWAPTRADE\")).isValidating(_orderIDs);\n        if(status){\n            for(uint256 i=0;i<_orderIDs.length;i++){\n                tradeLimitSwap(_orderIDs[i],_blockIndex);\n            }\n        }else{\n            emit FailedTradeLimitSwap(_orderIDs);\n        }\n    }\n\n    function tradeLimitSwap(bytes32 _orderID,uint256 _blockIndex) public {\n        (bool success,address userAddr,uint256 tokenAmount, uint256 openPrice, string memory symbol, uint256 bsFlag) = ISwapTrade(getModuleAddr(\"SWAPTRADE\")).tradeLimitSwap(_orderID,_blockIndex);\n        if(success){\n            _riskOrder(0, openPrice, symbol, bsFlag, tokenAmount);\n            emit TradeLimitSwap(userAddr,tokenAmount, block.timestamp);\n        }\n    }        \n        \n    // \n    function openMarketSwap(string memory _symbol,uint256 _tokenAmount,uint256 _lever,uint256 _bsFlag,uint256 _pLimitPrice,uint256 _lLimitPrice, uint256 _maxPrice) public {\n        _feeReceive();\n        IPoolFactory(poolFactoryAddr).updateBonus(1, msg.sender, 0);\n        TransferHelper.safeTransferFrom(tokenAddr,msg.sender,address(this),_tokenAmount);\n        (bytes32 orderID, uint256 openPrice) = ISwapTrade(getModuleAddr(\"SWAPTRADE\")).openMarketSwap(msg.sender,_symbol,_tokenAmount,_lever,_bsFlag,_pLimitPrice,_lLimitPrice, _maxPrice);\n        if(openPrice > 0) {\n            _riskOrder(0, openPrice, _symbol, _bsFlag, _tokenAmount);\n        }\n        emit OpenMarketSwap(orderID, _symbol,openPrice, block.timestamp);\n    }\n\n    // \n    function closeMarketSwap(bytes32 _orderID) public {\n        _closeMarketSwap(msg.sender, _orderID);\n    }\n\n    // ()\n    function closeLimitSwaps(bytes32[] memory _orderIDs) public {\n        (bool status, uint256 _blockIndex) = ISwapTrade(getModuleAddr(\"SWAPTRADE\")).isValidating(_orderIDs);\n        if(status) {\n            for(uint256 i=0;i<_orderIDs.length;i++){\n                closeLimitSwap(_orderIDs[i],_blockIndex);\n            }\n        }else{\n            emit FailedCloseLimitSwap(_orderIDs);\n        }\n    }\n\n    function closeLimitSwap(bytes32 _orderID,uint256 _blockIndex) public {\n        (bool success,address userAddr,uint256 closePrice,uint256 closeType,uint256 plFlag, uint256 bsFlag, uint256 plAmount,uint256 tradeAmount, string memory symbol) = ISwapTrade(getModuleAddr(\"SWAPTRADE\")).closeLimitSwap(_orderID,_blockIndex);\n        if(success){\n            _closeSwap(closePrice, symbol, bsFlag, userAddr, plFlag, plAmount, tradeAmount);\n            emit CloseLimitSwap(userAddr,closePrice,closeType,plFlag,plAmount);\n        }\n    }\n\n    // \n    function updateSwapByPrice(bytes32 _orderID,uint256 _pLimitPrice,uint256 _lLimitPrice) public {\n        (uint256 pLimitRate,uint256 lLimitRate) = ISwapTrade(getModuleAddr(\"SWAPTRADE\")).updateSwapByPrice(msg.sender, _orderID,_pLimitPrice,_lLimitPrice);\n        emit UpdateSwap(pLimitRate, lLimitRate);\n    }\n\n    // \n    function updateSwapByRate(bytes32 _orderID,uint256 _pLimitRate,uint256 _lLimitRate) public {\n        (uint256 pLimitPrice,uint256 lLimitPrice) = ISwapTrade(getModuleAddr(\"SWAPTRADE\")).updateSwapByRate(msg.sender, _orderID,_pLimitRate,_lLimitRate);\n        emit UpdateSwap(pLimitPrice, lLimitPrice);\n    }\n\n    // \n    function setOpenPrice(bytes32 _orderID) public onlyOwner{\n        (address userAddr, uint256 openPrice, string memory symbol, uint256 bsFlag, uint256 tokenAmount) = ISwapTrade(getModuleAddr(\"SWAPTRADE\")).setOrderPrice(_orderID);\n        _riskOrder(0, openPrice, symbol, bsFlag, tokenAmount);\n        emit SetOrderPrice(userAddr, _orderID, openPrice, block.timestamp);\n    } \n\n    // \n    function closeMarketByOwner(address _userAddr, bytes32 _orderID) public onlyOwner {\n        _closeMarketSwap(_userAddr, _orderID);\n    }\n\n    function setValidBlocks(uint256 _valideBlocks) public onlyOwner {\n        ISwapTrade(getModuleAddr(\"SWAPTRADE\")).setValidBlocks(_valideBlocks);\n    }\n    \n    function updateTicker(string memory _symbol, uint256 _price) public onlyOwner {\n        IRisk(getModuleAddr(\"RISK\")).ticker(_symbol, _price);\n    }\n\n    function emergencyWithdraw(address _tokenAddr, address _to, uint256 _amount) public onlyOwner {\n        TransferHelper.safeTransfer(_tokenAddr, _to, _amount);\n    }\n\n    function _closeMarketSwap(address _userAddr, bytes32 _orderID) internal {\n        (uint256 closePrice,uint256 plFlag, uint256 bsFlag, uint256 plAmount,uint256 tradeAmount, string memory symbol) = ISwapTrade(getModuleAddr(\"SWAPTRADE\")).closeMarketSwap(_userAddr, _orderID);\n        _closeSwap(closePrice, symbol, bsFlag, _userAddr, plFlag, plAmount, tradeAmount);\n        emit CloseMarketSwap(_orderID, symbol, _userAddr, closePrice, plFlag, plAmount, block.timestamp);\n    }\n\n    function _closeSwap(uint256 _closePrice, string memory _symbol, uint256 _bsFlag, address _userAddr, uint256 _plFlag, uint256 _plAmount, uint256 _tradeAmount) internal {\n        address fundAddr = getModuleAddr(\"FUND\");\n        IFund(fundAddr).tradePL(_plFlag, _plAmount);\n        if(_closePrice > 0) {\n            _riskOrder(1, _closePrice, _symbol, _bsFlag, _tradeAmount);\n        }\n        if(IPoolFactory(poolFactoryAddr).getStatus()){\n            if(_plFlag == 1){// \n                TransferHelper.safeTransfer(tokenAddr,_userAddr,_tradeAmount.add(_plAmount));\n            }else{\n                TransferHelper.safeTransfer(tokenAddr,_userAddr,_tradeAmount.sub(_plAmount));\n            }\n        }else{\n            TransferHelper.safeTransfer(tokenAddr,_userAddr,_tradeAmount);\n        }\n        if(_plFlag == 1){\n            IPoolFactory(poolFactoryAddr).updateBonus(2, _userAddr,_plAmount);\n        }\n    }\n\n    function _riskOrder(uint8 _riskType, uint256 _price, string memory _symbol, uint256 _bsFlag, uint256 _tokenAmount) internal {\n        bool longOrder = false;\n        if(_bsFlag == 1){\n            longOrder = true;\n        }\n        if(_riskType == 0){\n            IRisk(getModuleAddr(\"RISK\")).createOrder(_symbol, longOrder, _price, _tokenAmount);\n        }else{\n            IRisk(getModuleAddr(\"RISK\")).closeOrder(_symbol, longOrder, _price, _tokenAmount);\n        }\n    }\n\n    function _feeReceive() internal {\n        uint256 fee = IPoolFactory(poolFactoryAddr).getOpenFee();\n        require(msg.value >= fee, \"_feeReceive: insufficent for fee\");\n        address payable receiver = IPoolFactory(poolFactoryAddr).getFeeReceiver();\n        TransferHelper.safeTransferETH(receiver,fee);\n    }\n\n}\n",
  "sourcePath": "/Users/tong/Projects/drep-project/teemo-private/contracts/pool/TeemoPool.sol",
  "compiler": {
    "name": "solc",
    "version": "0.6.12+commit.27d51765.Emscripten.clang"
  },
  "schemaVersion": "3.3.2",
  "updatedAt": "2021-01-25T05:45:37.357Z",
  "devdoc": {
    "kind": "dev",
    "methods": {
      "allowance(address,address)": {
        "details": "See {IERC20-allowance}."
      },
      "approve(address,uint256)": {
        "details": "See {IERC20-approve}. Requirements: - `spender` cannot be the zero address."
      },
      "balanceOf(address)": {
        "details": "See {IERC20-balanceOf}."
      },
      "decimals()": {
        "details": "Returns the number of decimals used to get its user representation. For example, if `decimals` equals `2`, a balance of `505` tokens should be displayed to a user as `5,05` (`505 / 10 ** 2`). Tokens usually opt for a value of 18, imitating the relationship between Ether and Wei. This is the value {ERC20} uses, unless {_setupDecimals} is called. NOTE: This information is only used for _display_ purposes: it in no way affects any of the arithmetic of the contract, including {IERC20-balanceOf} and {IERC20-transfer}."
      },
      "decreaseAllowance(address,uint256)": {
        "details": "Atomically decreases the allowance granted to `spender` by the caller. This is an alternative to {approve} that can be used as a mitigation for problems described in {IERC20-approve}. Emits an {Approval} event indicating the updated allowance. Requirements: - `spender` cannot be the zero address. - `spender` must have allowance for the caller of at least `subtractedValue`."
      },
      "increaseAllowance(address,uint256)": {
        "details": "Atomically increases the allowance granted to `spender` by the caller. This is an alternative to {approve} that can be used as a mitigation for problems described in {IERC20-approve}. Emits an {Approval} event indicating the updated allowance. Requirements: - `spender` cannot be the zero address."
      },
      "name()": {
        "details": "Returns the name of the token."
      },
      "owner()": {
        "details": "Returns the address of the current owner."
      },
      "renounceOwnership()": {
        "details": "Leaves the contract without owner. It will not be possible to call `onlyOwner` functions anymore. Can only be called by the current owner. NOTE: Renouncing ownership will leave the contract without an owner, thereby removing any functionality that is only available to the owner."
      },
      "symbol()": {
        "details": "Returns the symbol of the token, usually a shorter version of the name."
      },
      "totalSupply()": {
        "details": "See {IERC20-totalSupply}."
      },
      "transfer(address,uint256)": {
        "details": "See {IERC20-transfer}. Requirements: - `recipient` cannot be the zero address. - the caller must have a balance of at least `amount`."
      },
      "transferFrom(address,address,uint256)": {
        "details": "See {IERC20-transferFrom}. Emits an {Approval} event indicating the updated allowance. This is not required by the EIP. See the note at the beginning of {ERC20}; Requirements: - `sender` and `recipient` cannot be the zero address. - `sender` must have a balance of at least `amount`. - the caller must have allowance for ``sender``'s tokens of at least `amount`."
      },
      "transferOwnership(address)": {
        "details": "Transfers ownership of the contract to a new account (`newOwner`). Can only be called by the current owner."
      }
    },
    "version": 1
  },
  "userdoc": {
    "kind": "user",
    "methods": {},
    "version": 1
  }
}