{
  "contractName": "TeemoWPool",
  "abi": [
    {
      "anonymous": false,
      "inputs": [
        {
          "indexed": true,
          "internalType": "address",
          "name": "owner",
          "type": "address"
        },
        {
          "indexed": true,
          "internalType": "address",
          "name": "spender",
          "type": "address"
        },
        {
          "indexed": false,
          "internalType": "uint256",
          "name": "value",
          "type": "uint256"
        }
      ],
      "name": "Approval",
      "type": "event"
    },
    {
      "anonymous": false,
      "inputs": [
        {
          "indexed": true,
          "internalType": "uint256",
          "name": "tokenAmount",
          "type": "uint256"
        }
      ],
      "name": "CancelLimitSwap",
      "type": "event"
    },
    {
      "anonymous": false,
      "inputs": [
        {
          "indexed": true,
          "internalType": "address",
          "name": "userAddr",
          "type": "address"
        },
        {
          "indexed": true,
          "internalType": "uint256",
          "name": "closePrice",
          "type": "uint256"
        },
        {
          "indexed": true,
          "internalType": "uint256",
          "name": "closeType",
          "type": "uint256"
        },
        {
          "indexed": false,
          "internalType": "uint256",
          "name": "plFlag",
          "type": "uint256"
        },
        {
          "indexed": false,
          "internalType": "uint256",
          "name": "plAmount",
          "type": "uint256"
        }
      ],
      "name": "CloseLimitSwap",
      "type": "event"
    },
    {
      "anonymous": false,
      "inputs": [
        {
          "indexed": true,
          "internalType": "uint256",
          "name": "closePrice",
          "type": "uint256"
        },
        {
          "indexed": true,
          "internalType": "uint256",
          "name": "plFlag",
          "type": "uint256"
        },
        {
          "indexed": true,
          "internalType": "uint256",
          "name": "plAmount",
          "type": "uint256"
        }
      ],
      "name": "CloseMarketSwap",
      "type": "event"
    },
    {
      "anonymous": false,
      "inputs": [
        {
          "indexed": false,
          "internalType": "address",
          "name": "_userAddr",
          "type": "address"
        },
        {
          "indexed": true,
          "internalType": "uint256",
          "name": "lpAmount",
          "type": "uint256"
        },
        {
          "indexed": true,
          "internalType": "uint256",
          "name": "teemoTokenAmount",
          "type": "uint256"
        }
      ],
      "name": "LPDeposit",
      "type": "event"
    },
    {
      "anonymous": false,
      "inputs": [
        {
          "indexed": false,
          "internalType": "address",
          "name": "_userAddr",
          "type": "address"
        },
        {
          "indexed": true,
          "internalType": "uint256",
          "name": "tokenAmount",
          "type": "uint256"
        }
      ],
      "name": "LPWithdraw",
      "type": "event"
    },
    {
      "anonymous": false,
      "inputs": [
        {
          "indexed": true,
          "internalType": "bytes32",
          "name": "orderID",
          "type": "bytes32"
        },
        {
          "indexed": true,
          "internalType": "uint256",
          "name": "openPrice",
          "type": "uint256"
        }
      ],
      "name": "OpenLimitSwap",
      "type": "event"
    },
    {
      "anonymous": false,
      "inputs": [
        {
          "indexed": true,
          "internalType": "bytes32",
          "name": "orderID",
          "type": "bytes32"
        },
        {
          "indexed": true,
          "internalType": "uint256",
          "name": "openPrice",
          "type": "uint256"
        }
      ],
      "name": "OpenMarketSwap",
      "type": "event"
    },
    {
      "anonymous": false,
      "inputs": [
        {
          "indexed": true,
          "internalType": "address",
          "name": "previousOwner",
          "type": "address"
        },
        {
          "indexed": true,
          "internalType": "address",
          "name": "newOwner",
          "type": "address"
        }
      ],
      "name": "OwnershipTransferred",
      "type": "event"
    },
    {
      "anonymous": false,
      "inputs": [
        {
          "indexed": false,
          "internalType": "address",
          "name": "_userAddr",
          "type": "address"
        },
        {
          "indexed": true,
          "internalType": "uint256",
          "name": "tokenAmount",
          "type": "uint256"
        },
        {
          "indexed": true,
          "internalType": "uint256",
          "name": "teemoTokenAmount",
          "type": "uint256"
        }
      ],
      "name": "StartMine",
      "type": "event"
    },
    {
      "anonymous": false,
      "inputs": [
        {
          "indexed": false,
          "internalType": "address",
          "name": "_userAddr",
          "type": "address"
        },
        {
          "indexed": true,
          "internalType": "uint256",
          "name": "tokenAmount",
          "type": "uint256"
        },
        {
          "indexed": true,
          "internalType": "uint256",
          "name": "teemoTokenAmount",
          "type": "uint256"
        }
      ],
      "name": "StopMine",
      "type": "event"
    },
    {
      "anonymous": false,
      "inputs": [
        {
          "indexed": true,
          "internalType": "address",
          "name": "success",
          "type": "address"
        },
        {
          "indexed": true,
          "internalType": "uint256",
          "name": "tokenAmount",
          "type": "uint256"
        }
      ],
      "name": "TradeLimitSwap",
      "type": "event"
    },
    {
      "anonymous": false,
      "inputs": [
        {
          "indexed": true,
          "internalType": "address",
          "name": "from",
          "type": "address"
        },
        {
          "indexed": true,
          "internalType": "address",
          "name": "to",
          "type": "address"
        },
        {
          "indexed": false,
          "internalType": "uint256",
          "name": "value",
          "type": "uint256"
        }
      ],
      "name": "Transfer",
      "type": "event"
    },
    {
      "anonymous": false,
      "inputs": [
        {
          "indexed": true,
          "internalType": "uint256",
          "name": "pLimitPrice",
          "type": "uint256"
        },
        {
          "indexed": true,
          "internalType": "uint256",
          "name": "lLimitPrice",
          "type": "uint256"
        }
      ],
      "name": "UpdateSwap",
      "type": "event"
    },
    {
      "inputs": [
        {
          "internalType": "string",
          "name": "",
          "type": "string"
        }
      ],
      "name": "allModuleInfo",
      "outputs": [
        {
          "internalType": "address",
          "name": "",
          "type": "address"
        }
      ],
      "stateMutability": "view",
      "type": "function",
      "constant": true
    },
    {
      "inputs": [
        {
          "internalType": "address",
          "name": "owner",
          "type": "address"
        },
        {
          "internalType": "address",
          "name": "spender",
          "type": "address"
        }
      ],
      "name": "allowance",
      "outputs": [
        {
          "internalType": "uint256",
          "name": "",
          "type": "uint256"
        }
      ],
      "stateMutability": "view",
      "type": "function",
      "constant": true
    },
    {
      "inputs": [
        {
          "internalType": "address",
          "name": "spender",
          "type": "address"
        },
        {
          "internalType": "uint256",
          "name": "amount",
          "type": "uint256"
        }
      ],
      "name": "approve",
      "outputs": [
        {
          "internalType": "bool",
          "name": "",
          "type": "bool"
        }
      ],
      "stateMutability": "nonpayable",
      "type": "function"
    },
    {
      "inputs": [
        {
          "internalType": "address",
          "name": "account",
          "type": "address"
        }
      ],
      "name": "balanceOf",
      "outputs": [
        {
          "internalType": "uint256",
          "name": "",
          "type": "uint256"
        }
      ],
      "stateMutability": "view",
      "type": "function",
      "constant": true
    },
    {
      "inputs": [],
      "name": "decimals",
      "outputs": [
        {
          "internalType": "uint8",
          "name": "",
          "type": "uint8"
        }
      ],
      "stateMutability": "view",
      "type": "function",
      "constant": true
    },
    {
      "inputs": [
        {
          "internalType": "address",
          "name": "spender",
          "type": "address"
        },
        {
          "internalType": "uint256",
          "name": "subtractedValue",
          "type": "uint256"
        }
      ],
      "name": "decreaseAllowance",
      "outputs": [
        {
          "internalType": "bool",
          "name": "",
          "type": "bool"
        }
      ],
      "stateMutability": "nonpayable",
      "type": "function"
    },
    {
      "inputs": [],
      "name": "fundAddr",
      "outputs": [
        {
          "internalType": "address",
          "name": "",
          "type": "address"
        }
      ],
      "stateMutability": "view",
      "type": "function",
      "constant": true
    },
    {
      "inputs": [
        {
          "internalType": "address",
          "name": "spender",
          "type": "address"
        },
        {
          "internalType": "uint256",
          "name": "addedValue",
          "type": "uint256"
        }
      ],
      "name": "increaseAllowance",
      "outputs": [
        {
          "internalType": "bool",
          "name": "",
          "type": "bool"
        }
      ],
      "stateMutability": "nonpayable",
      "type": "function"
    },
    {
      "inputs": [],
      "name": "mainnetTokenAddr",
      "outputs": [
        {
          "internalType": "address",
          "name": "",
          "type": "address"
        }
      ],
      "stateMutability": "view",
      "type": "function",
      "constant": true
    },
    {
      "inputs": [],
      "name": "mineAddr",
      "outputs": [
        {
          "internalType": "address",
          "name": "",
          "type": "address"
        }
      ],
      "stateMutability": "view",
      "type": "function",
      "constant": true
    },
    {
      "inputs": [],
      "name": "name",
      "outputs": [
        {
          "internalType": "string",
          "name": "",
          "type": "string"
        }
      ],
      "stateMutability": "view",
      "type": "function",
      "constant": true
    },
    {
      "inputs": [],
      "name": "owner",
      "outputs": [
        {
          "internalType": "address",
          "name": "",
          "type": "address"
        }
      ],
      "stateMutability": "view",
      "type": "function",
      "constant": true
    },
    {
      "inputs": [],
      "name": "poolFactoryAddr",
      "outputs": [
        {
          "internalType": "address",
          "name": "",
          "type": "address"
        }
      ],
      "stateMutability": "view",
      "type": "function",
      "constant": true
    },
    {
      "inputs": [],
      "name": "quoteFactoryAddr",
      "outputs": [
        {
          "internalType": "address",
          "name": "",
          "type": "address"
        }
      ],
      "stateMutability": "view",
      "type": "function",
      "constant": true
    },
    {
      "inputs": [],
      "name": "renounceOwnership",
      "outputs": [],
      "stateMutability": "nonpayable",
      "type": "function"
    },
    {
      "inputs": [],
      "name": "riskAddr",
      "outputs": [
        {
          "internalType": "address",
          "name": "",
          "type": "address"
        }
      ],
      "stateMutability": "view",
      "type": "function",
      "constant": true
    },
    {
      "inputs": [],
      "name": "swapTradeAddr",
      "outputs": [
        {
          "internalType": "address",
          "name": "",
          "type": "address"
        }
      ],
      "stateMutability": "view",
      "type": "function",
      "constant": true
    },
    {
      "inputs": [],
      "name": "symbol",
      "outputs": [
        {
          "internalType": "string",
          "name": "",
          "type": "string"
        }
      ],
      "stateMutability": "view",
      "type": "function",
      "constant": true
    },
    {
      "inputs": [],
      "name": "tokenAddr",
      "outputs": [
        {
          "internalType": "address",
          "name": "",
          "type": "address"
        }
      ],
      "stateMutability": "view",
      "type": "function",
      "constant": true
    },
    {
      "inputs": [],
      "name": "totalSupply",
      "outputs": [
        {
          "internalType": "uint256",
          "name": "",
          "type": "uint256"
        }
      ],
      "stateMutability": "view",
      "type": "function",
      "constant": true
    },
    {
      "inputs": [
        {
          "internalType": "address",
          "name": "recipient",
          "type": "address"
        },
        {
          "internalType": "uint256",
          "name": "amount",
          "type": "uint256"
        }
      ],
      "name": "transfer",
      "outputs": [
        {
          "internalType": "bool",
          "name": "",
          "type": "bool"
        }
      ],
      "stateMutability": "nonpayable",
      "type": "function"
    },
    {
      "inputs": [
        {
          "internalType": "address",
          "name": "sender",
          "type": "address"
        },
        {
          "internalType": "address",
          "name": "recipient",
          "type": "address"
        },
        {
          "internalType": "uint256",
          "name": "amount",
          "type": "uint256"
        }
      ],
      "name": "transferFrom",
      "outputs": [
        {
          "internalType": "bool",
          "name": "",
          "type": "bool"
        }
      ],
      "stateMutability": "nonpayable",
      "type": "function"
    },
    {
      "inputs": [
        {
          "internalType": "address",
          "name": "newOwner",
          "type": "address"
        }
      ],
      "name": "transferOwnership",
      "outputs": [],
      "stateMutability": "nonpayable",
      "type": "function"
    },
    {
      "inputs": [
        {
          "internalType": "address",
          "name": "_poolFactoryAddr",
          "type": "address"
        },
        {
          "internalType": "address",
          "name": "_quoteFactoryAddr",
          "type": "address"
        }
      ],
      "name": "initialize",
      "outputs": [],
      "stateMutability": "nonpayable",
      "type": "function"
    },
    {
      "inputs": [
        {
          "internalType": "string",
          "name": "_moduleName",
          "type": "string"
        },
        {
          "internalType": "address",
          "name": "_moduleAddr",
          "type": "address"
        }
      ],
      "name": "setModuleAddr",
      "outputs": [],
      "stateMutability": "nonpayable",
      "type": "function"
    },
    {
      "inputs": [
        {
          "internalType": "string",
          "name": "_moduleName",
          "type": "string"
        }
      ],
      "name": "getModuleAddr",
      "outputs": [
        {
          "internalType": "address",
          "name": "moduleAddr",
          "type": "address"
        }
      ],
      "stateMutability": "view",
      "type": "function",
      "constant": true
    },
    {
      "inputs": [],
      "name": "getQuoteFactoryAddr",
      "outputs": [
        {
          "internalType": "address",
          "name": "",
          "type": "address"
        }
      ],
      "stateMutability": "nonpayable",
      "type": "function"
    },
    {
      "inputs": [
        {
          "internalType": "bool",
          "name": "mine",
          "type": "bool"
        }
      ],
      "name": "lpDeposit",
      "outputs": [],
      "stateMutability": "payable",
      "type": "function",
      "payable": true
    },
    {
      "inputs": [
        {
          "internalType": "uint256",
          "name": "_lpAmount",
          "type": "uint256"
        }
      ],
      "name": "startMine",
      "outputs": [],
      "stateMutability": "nonpayable",
      "type": "function"
    },
    {
      "inputs": [
        {
          "internalType": "uint256",
          "name": "_lpAmount",
          "type": "uint256"
        }
      ],
      "name": "lpWithdraw",
      "outputs": [],
      "stateMutability": "nonpayable",
      "type": "function"
    },
    {
      "inputs": [
        {
          "internalType": "uint256",
          "name": "_lpAmount",
          "type": "uint256"
        }
      ],
      "name": "stopMine",
      "outputs": [],
      "stateMutability": "nonpayable",
      "type": "function"
    },
    {
      "inputs": [
        {
          "internalType": "string",
          "name": "_symbol",
          "type": "string"
        },
        {
          "internalType": "uint256",
          "name": "_limitPrice",
          "type": "uint256"
        },
        {
          "internalType": "uint256",
          "name": "_lever",
          "type": "uint256"
        },
        {
          "internalType": "uint256",
          "name": "_bsFlag",
          "type": "uint256"
        },
        {
          "internalType": "uint256",
          "name": "_pLimitPrice",
          "type": "uint256"
        },
        {
          "internalType": "uint256",
          "name": "_lLimitPrice",
          "type": "uint256"
        }
      ],
      "name": "openLimitSwap",
      "outputs": [],
      "stateMutability": "payable",
      "type": "function",
      "payable": true
    },
    {
      "inputs": [
        {
          "internalType": "bytes32",
          "name": "_orderID",
          "type": "bytes32"
        }
      ],
      "name": "cancelLimitSwap",
      "outputs": [],
      "stateMutability": "nonpayable",
      "type": "function"
    },
    {
      "inputs": [
        {
          "internalType": "bytes32[]",
          "name": "_orderIDs",
          "type": "bytes32[]"
        },
        {
          "internalType": "uint256",
          "name": "_blockIndex",
          "type": "uint256"
        }
      ],
      "name": "tradeLimitSwaps",
      "outputs": [],
      "stateMutability": "nonpayable",
      "type": "function"
    },
    {
      "inputs": [
        {
          "internalType": "bytes32",
          "name": "_orderID",
          "type": "bytes32"
        },
        {
          "internalType": "uint256",
          "name": "_blockIndex",
          "type": "uint256"
        }
      ],
      "name": "tradeLimitSwap",
      "outputs": [],
      "stateMutability": "nonpayable",
      "type": "function"
    },
    {
      "inputs": [
        {
          "internalType": "string",
          "name": "_symbol",
          "type": "string"
        },
        {
          "internalType": "uint256",
          "name": "_lever",
          "type": "uint256"
        },
        {
          "internalType": "uint256",
          "name": "_bsFlag",
          "type": "uint256"
        },
        {
          "internalType": "uint256",
          "name": "_pLimitPrice",
          "type": "uint256"
        },
        {
          "internalType": "uint256",
          "name": "_lLimitPrice",
          "type": "uint256"
        },
        {
          "internalType": "uint256",
          "name": "_maxPrice",
          "type": "uint256"
        }
      ],
      "name": "openMarketSwap",
      "outputs": [],
      "stateMutability": "payable",
      "type": "function",
      "payable": true
    },
    {
      "inputs": [
        {
          "internalType": "bytes32",
          "name": "_orderID",
          "type": "bytes32"
        }
      ],
      "name": "closeMarketSwap",
      "outputs": [],
      "stateMutability": "nonpayable",
      "type": "function"
    },
    {
      "inputs": [
        {
          "internalType": "bytes32[]",
          "name": "_orderIDs",
          "type": "bytes32[]"
        },
        {
          "internalType": "uint256",
          "name": "_blockIndex",
          "type": "uint256"
        }
      ],
      "name": "closeLimitSwaps",
      "outputs": [],
      "stateMutability": "nonpayable",
      "type": "function"
    },
    {
      "inputs": [
        {
          "internalType": "bytes32",
          "name": "_orderID",
          "type": "bytes32"
        },
        {
          "internalType": "uint256",
          "name": "_blockIndex",
          "type": "uint256"
        }
      ],
      "name": "closeLimitSwap",
      "outputs": [],
      "stateMutability": "nonpayable",
      "type": "function"
    },
    {
      "inputs": [
        {
          "internalType": "bytes32",
          "name": "_orderID",
          "type": "bytes32"
        },
        {
          "internalType": "uint256",
          "name": "_pLimitPrice",
          "type": "uint256"
        },
        {
          "internalType": "uint256",
          "name": "_lLimitPrice",
          "type": "uint256"
        }
      ],
      "name": "updateSwapByPrice",
      "outputs": [],
      "stateMutability": "nonpayable",
      "type": "function"
    },
    {
      "inputs": [
        {
          "internalType": "bytes32",
          "name": "_orderID",
          "type": "bytes32"
        },
        {
          "internalType": "uint256",
          "name": "_pLimitRate",
          "type": "uint256"
        },
        {
          "internalType": "uint256",
          "name": "_lLimitRate",
          "type": "uint256"
        }
      ],
      "name": "updateSwapByRate",
      "outputs": [],
      "stateMutability": "nonpayable",
      "type": "function"
    }
  ],
  "bytecode": "0x60806040523480156200001157600080fd5b506040518060400160405280600581526020017f544d4f4c500000000000000000000000000000000000000000000000000000008152506040518060400160405280600581526020017f544d4f4c500000000000000000000000000000000000000000000000000000008152508160039080519060200190620000969291906200018d565b508060049080519060200190620000af9291906200018d565b506012600560006101000a81548160ff021916908360ff16021790555050506000620000e06200018560201b60201c565b905080600560016101000a81548173ffffffffffffffffffffffffffffffffffffffff021916908373ffffffffffffffffffffffffffffffffffffffff1602179055508073ffffffffffffffffffffffffffffffffffffffff16600073ffffffffffffffffffffffffffffffffffffffff167f8be0079c531659141344cd1fd0a4f28419497f9722a3daafe3b4186f6b6457e060405160405180910390a35062000233565b600033905090565b828054600181600116156101000203166002900490600052602060002090601f016020900481019282601f10620001d057805160ff191683800117855562000201565b8280016001018555821562000201579182015b8281111562000200578251825591602001919060010190620001e3565b5b50905062000210919062000214565b5090565b5b808211156200022f57600081600090555060010162000215565b5090565b614c3680620002436000396000f3fe6080604052600436106102465760003560e01c80638da5cb5b11610139578063bb294b60116100b6578063e2d563591161007a578063e2d5635914610893578063f28342f7146108bc578063f2fde38b146108e7578063f46e5bdd14610910578063f58520391461092c578063f696ec791461095757610246565b8063bb294b601461078a578063c554ebcb146107c7578063cee87f5f14610804578063dc58bd721461082d578063dd62ed3e1461085657610246565b8063a457c2d7116100fd578063a457c2d714610691578063a72d18fb146106ce578063a9059cbb146106f7578063afcfb11a14610734578063b06b9fbe1461075f57610246565b80638da5cb5b146105be57806395d89b41146105e95780639aa9e7d2146106145780639ff242961461063d578063a16098c01461066657610246565b8063485cc955116101c75780636f5af2031161018b5780636f5af203146104ed57806370a0823114610516578063715018a6146105535780638268b8dd1461056a57806385006ba21461059557610246565b8063485cc9551461041a57806358aafa3d146104435780635fbe4d1d1461046e578063682cb9111461049957806369cd5595146104c457610246565b806323b872dd1161020e57806323b872dd14610330578063313ce5671461036d578063395093511461039857806339fe0e7e146103d55780633d3f2517146103f157610246565b806306fdde031461024b578063095ea7b31461027657806309a5d5bf146102b357806318160ddd146102dc57806322dbfdca14610307575b600080fd5b34801561025757600080fd5b50610260610973565b60405161026d9190614768565b60405180910390f35b34801561028257600080fd5b5061029d60048036038101906102989190613aaf565b610a15565b6040516102aa9190614724565b60405180910390f35b3480156102bf57600080fd5b506102da60048036038101906102d59190613ea4565b610a33565b005b3480156102e857600080fd5b506102f1610b42565b6040516102fe919061490a565b60405180910390f35b34801561031357600080fd5b5061032e60048036038101906103299190613ca7565b610b4c565b005b34801561033c57600080fd5b5061035760048036038101906103529190613a60565b610e01565b6040516103649190614724565b60405180910390f35b34801561037957600080fd5b50610382610eda565b60405161038f919061494e565b60405180910390f35b3480156103a457600080fd5b506103bf60048036038101906103ba9190613aaf565b610ef1565b6040516103cc9190614724565b60405180910390f35b6103ef60048036038101906103ea9190613b3f565b610fa4565b005b3480156103fd57600080fd5b5061041860048036038101906104139190613ca7565b6112c8565b005b34801561042657600080fd5b50610441600480360381019061043c9190613a24565b6113db565b005b34801561044f57600080fd5b5061045861157c565b60405161046591906144e8565b60405180910390f35b34801561047a57600080fd5b506104836115a6565b60405161049091906144e8565b60405180910390f35b3480156104a557600080fd5b506104ae6115cc565b6040516104bb91906144e8565b60405180910390f35b3480156104d057600080fd5b506104eb60048036038101906104e69190613c7e565b6115f2565b005b3480156104f957600080fd5b50610514600480360381019061050f9190613aeb565b611867565b005b34801561052257600080fd5b5061053d600480360381019061053891906139fb565b6118a2565b60405161054a919061490a565b60405180910390f35b34801561055f57600080fd5b506105686118ea565b005b34801561057657600080fd5b5061057f611a42565b60405161058c91906144e8565b60405180910390f35b3480156105a157600080fd5b506105bc60048036038101906105b79190613d1f565b611a68565b005b3480156105ca57600080fd5b506105d3611b56565b6040516105e091906144e8565b60405180910390f35b3480156105f557600080fd5b506105fe611b80565b60405161060b9190614768565b60405180910390f35b34801561062057600080fd5b5061063b60048036038101906106369190613ea4565b611c22565b005b34801561064957600080fd5b50610664600480360381019061065f9190613ea4565b611e3c565b005b34801561067257600080fd5b5061067b612057565b60405161068891906144e8565b60405180910390f35b34801561069d57600080fd5b506106b860048036038101906106b39190613aaf565b61207d565b6040516106c59190614724565b60405180910390f35b3480156106da57600080fd5b506106f560048036038101906106f09190613aeb565b61214a565b005b34801561070357600080fd5b5061071e60048036038101906107199190613aaf565b612185565b60405161072b9190614724565b60405180910390f35b34801561074057600080fd5b506107496121a3565b60405161075691906144e8565b60405180910390f35b34801561076b57600080fd5b506107746121c9565b60405161078191906144e8565b60405180910390f35b34801561079657600080fd5b506107b160048036038101906107ac9190613d6e565b6121ef565b6040516107be91906144e8565b60405180910390f35b3480156107d357600080fd5b506107ee60048036038101906107e99190613d6e565b612238565b6040516107fb91906144e8565b60405180910390f35b34801561081057600080fd5b5061082b60048036038101906108269190613c7e565b6122f0565b005b34801561083957600080fd5b50610854600480360381019061084f9190613d1f565b61241b565b005b34801561086257600080fd5b5061087d60048036038101906108789190613a24565b612509565b60405161088a919061490a565b60405180910390f35b34801561089f57600080fd5b506108ba60048036038101906108b59190613daf565b612590565b005b3480156108c857600080fd5b506108d16128eb565b6040516108de91906144e8565b60405180910390f35b3480156108f357600080fd5b5061090e600480360381019061090991906139fb565b612911565b005b61092a60048036038101906109259190613e03565b612ad8565b005b34801561093857600080fd5b50610941612bd1565b60405161094e91906144e8565b60405180910390f35b610971600480360381019061096c9190613e03565b612bf7565b005b606060038054600181600116156101000203166002900480601f016020809104026020016040519081016040528092919081815260200182805460018160011615610100020316600290048015610a0b5780601f106109e057610100808354040283529160200191610a0b565b820191906000526020600020905b8154815290600101906020018083116109ee57829003601f168201915b5050505050905090565b6000610a29610a22612cf0565b8484612cf8565b6001905092915050565b610a3f30333084612ec3565b6000600b60009054906101000a900473ffffffffffffffffffffffffffffffffffffffff1673ffffffffffffffffffffffffffffffffffffffff1663f3fef3a333846040518363ffffffff1660e01b8152600401610a9e929190614611565b602060405180830381600087803b158015610ab857600080fd5b505af1158015610acc573d6000803e3d6000fd5b505050506040513d601f19601f82011682018060405250810190610af09190613ecd565b9050610afc3083612ffd565b610b0633826131ab565b807fec6b5f6209de8a40ef6115a103a7312d2e22f043a81da1965a5038c95753742e33604051610b369190614503565b60405180910390a25050565b6000600254905090565b6000806000806000806000600d60009054906101000a900473ffffffffffffffffffffffffffffffffffffffff1673ffffffffffffffffffffffffffffffffffffffff166322dbfdca8a8a6040518363ffffffff1660e01b8152600401610bb492919061473f565b60e060405180830381600087803b158015610bce57600080fd5b505af1158015610be2573d6000803e3d6000fd5b505050506040513d601f19601f82011682018060405250810190610c069190613be0565b9650965096509650965096509650600115158715151415610df657600b60009054906101000a900473ffffffffffffffffffffffffffffffffffffffff1673ffffffffffffffffffffffffffffffffffffffff1663a64ec3ba878386866040518563ffffffff1660e01b8152600401610c8294939291906146df565b600060405180830381600087803b158015610c9c57600080fd5b505af1158015610cb0573d6000803e3d6000fd5b505050506000610cca600a836132a990919063ffffffff16565b9050600860009054906101000a900473ffffffffffffffffffffffffffffffffffffffff1673ffffffffffffffffffffffffffffffffffffffff1663d688c1b988836040518363ffffffff1660e01b8152600401610d299291906146b6565b600060405180830381600087803b158015610d4357600080fd5b505af1158015610d57573d6000803e3d6000fd5b505050506001841415610d8557610d8087610d7b85856132f390919063ffffffff16565b6131ab565b610da2565b610da187610d9c858561334890919063ffffffff16565b6131ab565b5b84868873ffffffffffffffffffffffffffffffffffffffff167f1631bac4756e0c03f6c433a46f1eab5c1caf99854cc351c23dc3eec9fc5d26d08787604051610dec929190614925565b60405180910390a4505b505050505050505050565b6000610e0e848484613392565b610ecf84610e1a612cf0565b610eca85604051806060016040528060288152602001614bb460289139600160008b73ffffffffffffffffffffffffffffffffffffffff1673ffffffffffffffffffffffffffffffffffffffff1681526020019081526020016000206000610e80612cf0565b73ffffffffffffffffffffffffffffffffffffffff1673ffffffffffffffffffffffffffffffffffffffff168152602001908152602001600020546136279092919063ffffffff16565b612cf8565b600190509392505050565b6000600560009054906101000a900460ff16905090565b6000610f9a610efe612cf0565b84610f958560016000610f0f612cf0565b73ffffffffffffffffffffffffffffffffffffffff1673ffffffffffffffffffffffffffffffffffffffff16815260200190815260200160002060008973ffffffffffffffffffffffffffffffffffffffff1673ffffffffffffffffffffffffffffffffffffffff168152602001908152602001600020546132f390919063ffffffff16565b612cf8565b6001905092915050565b6000600b60009054906101000a900473ffffffffffffffffffffffffffffffffffffffff1673ffffffffffffffffffffffffffffffffffffffff166347e7ef2433346040518363ffffffff1660e01b8152600401611003929190614611565b602060405180830381600087803b15801561101d57600080fd5b505af1158015611031573d6000803e3d6000fd5b505050506040513d601f19601f820116820180604052508101906110559190613ecd565b90506000151582151514156110ad5761106e3382613682565b6000817f991d73f5e17d46d419b8d00ea1ba02099a33278bef6ba16f591c3869fc665842336040516110a09190614503565b60405180910390a36112c4565b6110b73082613682565b600080600e60009054906101000a900473ffffffffffffffffffffffffffffffffffffffff1673ffffffffffffffffffffffffffffffffffffffff166347e7ef2433856040518363ffffffff1660e01b8152600401611117929190614611565b6040805180830381600087803b15801561113057600080fd5b505af1158015611144573d6000803e3d6000fd5b505050506040513d601f19601f820116820180604052508101906111689190613ef6565b91509150600860009054906101000a900473ffffffffffffffffffffffffffffffffffffffff1673ffffffffffffffffffffffffffffffffffffffff1663c634d032836040518263ffffffff1660e01b81526004016111c7919061490a565b600060405180830381600087803b1580156111e157600080fd5b505af11580156111f5573d6000803e3d6000fd5b50505050600860009054906101000a900473ffffffffffffffffffffffffffffffffffffffff1673ffffffffffffffffffffffffffffffffffffffff1663cd049a9333836040518363ffffffff1660e01b8152600401611256929190614611565b600060405180830381600087803b15801561127057600080fd5b505af1158015611284573d6000803e3d6000fd5b5050505080837f991d73f5e17d46d419b8d00ea1ba02099a33278bef6ba16f591c3869fc665842336040516112b99190614503565b60405180910390a350505b5050565b6000806000600d60009054906101000a900473ffffffffffffffffffffffffffffffffffffffff1673ffffffffffffffffffffffffffffffffffffffff16633d3f251786866040518363ffffffff1660e01b815260040161132a92919061473f565b606060405180830381600087803b15801561134457600080fd5b505af1158015611358573d6000803e3d6000fd5b505050506040513d601f19601f8201168201806040525081019061137c9190613b91565b9250925092506001151583151514156113d457808273ffffffffffffffffffffffffffffffffffffffff167f60b3f5c3416dc0099a7252e08ee74dfa33c0444317f770740cdffce1526d4e3760405160405180910390a35b5050505050565b6113e3612cf0565b73ffffffffffffffffffffffffffffffffffffffff16600560019054906101000a900473ffffffffffffffffffffffffffffffffffffffff1673ffffffffffffffffffffffffffffffffffffffff1614611472576040517f08c379a00000000000000000000000000000000000000000000000000000000081526004016114699061482a565b60405180910390fd5b6000600660006101000a81548173ffffffffffffffffffffffffffffffffffffffff021916908373ffffffffffffffffffffffffffffffffffffffff1602179055506000600760006101000a81548173ffffffffffffffffffffffffffffffffffffffff021916908373ffffffffffffffffffffffffffffffffffffffff16021790555081600860006101000a81548173ffffffffffffffffffffffffffffffffffffffff021916908373ffffffffffffffffffffffffffffffffffffffff16021790555080600960006101000a81548173ffffffffffffffffffffffffffffffffffffffff021916908373ffffffffffffffffffffffffffffffffffffffff1602179055505050565b6000600960009054906101000a900473ffffffffffffffffffffffffffffffffffffffff16905090565b600660009054906101000a900473ffffffffffffffffffffffffffffffffffffffff1681565b600b60009054906101000a900473ffffffffffffffffffffffffffffffffffffffff1681565b600080600080600d60009054906101000a900473ffffffffffffffffffffffffffffffffffffffff1673ffffffffffffffffffffffffffffffffffffffff16631e2a565b33876040518363ffffffff1660e01b815260040161165592919061451e565b608060405180830381600087803b15801561166f57600080fd5b505af1158015611683573d6000803e3d6000fd5b505050506040513d601f19601f820116820180604052508101906116a79190613f32565b9350935093509350600b60009054906101000a900473ffffffffffffffffffffffffffffffffffffffff1673ffffffffffffffffffffffffffffffffffffffff1663a64ec3ba338386866040518563ffffffff1660e01b8152600401611710949392919061463a565b600060405180830381600087803b15801561172a57600080fd5b505af115801561173e573d6000803e3d6000fd5b505050506000611758600a836132a990919063ffffffff16565b9050600860009054906101000a900473ffffffffffffffffffffffffffffffffffffffff1673ffffffffffffffffffffffffffffffffffffffff1663d688c1b933836040518363ffffffff1660e01b81526004016117b7929190614611565b600060405180830381600087803b1580156117d157600080fd5b505af11580156117e5573d6000803e3d6000fd5b5050505060018414156118135761180e3361180985856132f390919063ffffffff16565b6131ab565b611830565b61182f3361182a858561334890919063ffffffff16565b6131ab565b5b8284867f8fbff8498ed65172cf01ecd87c4eca700c1295bc9d1e26b73a145a490b6342e560405160405180910390a4505050505050565b60005b825181101561189d5761189083828151811061188257fe5b602002602001015183610b4c565b808060010191505061186a565b505050565b60008060008373ffffffffffffffffffffffffffffffffffffffff1673ffffffffffffffffffffffffffffffffffffffff168152602001908152602001600020549050919050565b6118f2612cf0565b73ffffffffffffffffffffffffffffffffffffffff16600560019054906101000a900473ffffffffffffffffffffffffffffffffffffffff1673ffffffffffffffffffffffffffffffffffffffff1614611981576040517f08c379a00000000000000000000000000000000000000000000000000000000081526004016119789061482a565b60405180910390fd5b600073ffffffffffffffffffffffffffffffffffffffff16600560019054906101000a900473ffffffffffffffffffffffffffffffffffffffff1673ffffffffffffffffffffffffffffffffffffffff167f8be0079c531659141344cd1fd0a4f28419497f9722a3daafe3b4186f6b6457e060405160405180910390a36000600560016101000a81548173ffffffffffffffffffffffffffffffffffffffff021916908373ffffffffffffffffffffffffffffffffffffffff160217905550565b600760009054906101000a900473ffffffffffffffffffffffffffffffffffffffff1681565b600080600d60009054906101000a900473ffffffffffffffffffffffffffffffffffffffff1673ffffffffffffffffffffffffffffffffffffffff166334772557338787876040518563ffffffff1660e01b8152600401611acc9493929190614547565b6040805180830381600087803b158015611ae557600080fd5b505af1158015611af9573d6000803e3d6000fd5b505050506040513d601f19601f82011682018060405250810190611b1d9190613ef6565b9150915080827f634910b514717fe132500771fb9e0ca49e263609b88f4cc5aa1c6507b4e0bede60405160405180910390a35050505050565b6000600560019054906101000a900473ffffffffffffffffffffffffffffffffffffffff16905090565b606060048054600181600116156101000203166002900480601f016020809104026020016040519081016040528092919081815260200182805460018160011615610100020316600290048015611c185780601f10611bed57610100808354040283529160200191611c18565b820191906000526020600020905b815481529060010190602001808311611bfb57829003601f168201915b5050505050905090565b600080600e60009054906101000a900473ffffffffffffffffffffffffffffffffffffffff1673ffffffffffffffffffffffffffffffffffffffff1663f3fef3a333856040518363ffffffff1660e01b8152600401611c82929190614611565b6040805180830381600087803b158015611c9b57600080fd5b505af1158015611caf573d6000803e3d6000fd5b505050506040513d601f19601f82011682018060405250810190611cd39190613ef6565b91509150611ce13384612185565b50600860009054906101000a900473ffffffffffffffffffffffffffffffffffffffff1673ffffffffffffffffffffffffffffffffffffffff1663c634d032836040518263ffffffff1660e01b8152600401611d3d919061490a565b600060405180830381600087803b158015611d5757600080fd5b505af1158015611d6b573d6000803e3d6000fd5b50505050600860009054906101000a900473ffffffffffffffffffffffffffffffffffffffff1673ffffffffffffffffffffffffffffffffffffffff1663cd049a9333836040518363ffffffff1660e01b8152600401611dcc929190614611565b600060405180830381600087803b158015611de657600080fd5b505af1158015611dfa573d6000803e3d6000fd5b5050505080837fc10b273d1e1478889bf14cfc20976c0178f47d6164f92d53745fe0c67988201f33604051611e2f9190614503565b60405180910390a3505050565b611e4830333084612ec3565b600080600e60009054906101000a900473ffffffffffffffffffffffffffffffffffffffff1673ffffffffffffffffffffffffffffffffffffffff166347e7ef2433856040518363ffffffff1660e01b8152600401611ea8929190614611565b6040805180830381600087803b158015611ec157600080fd5b505af1158015611ed5573d6000803e3d6000fd5b505050506040513d601f19601f82011682018060405250810190611ef99190613ef6565b91509150600860009054906101000a900473ffffffffffffffffffffffffffffffffffffffff1673ffffffffffffffffffffffffffffffffffffffff1663c634d032836040518263ffffffff1660e01b8152600401611f58919061490a565b600060405180830381600087803b158015611f7257600080fd5b505af1158015611f86573d6000803e3d6000fd5b50505050600860009054906101000a900473ffffffffffffffffffffffffffffffffffffffff1673ffffffffffffffffffffffffffffffffffffffff1663cd049a9333836040518363ffffffff1660e01b8152600401611fe7929190614611565b600060405180830381600087803b15801561200157600080fd5b505af1158015612015573d6000803e3d6000fd5b5050505081837fab5f5548654b65d796f84aaee73cdd7fea9a28bf7a29fb80cb4451425797b4e63360405161204a9190614503565b60405180910390a3505050565b600d60009054906101000a900473ffffffffffffffffffffffffffffffffffffffff1681565b600061214061208a612cf0565b8461213b85604051806060016040528060258152602001614bdc60259139600160006120b4612cf0565b73ffffffffffffffffffffffffffffffffffffffff1673ffffffffffffffffffffffffffffffffffffffff16815260200190815260200160002060008a73ffffffffffffffffffffffffffffffffffffffff1673ffffffffffffffffffffffffffffffffffffffff168152602001908152602001600020546136279092919063ffffffff16565b612cf8565b6001905092915050565b60005b82518110156121805761217383828151811061216557fe5b6020026020010151836112c8565b808060010191505061214d565b505050565b6000612199612192612cf0565b8484613392565b6001905092915050565b600960009054906101000a900473ffffffffffffffffffffffffffffffffffffffff1681565b600860009054906101000a900473ffffffffffffffffffffffffffffffffffffffff1681565b600a818051602081018201805184825260208301602085012081835280955050505050506000915054906101000a900473ffffffffffffffffffffffffffffffffffffffff1681565b6000600a8260405161224a91906144d1565b908152602001604051809103902060009054906101000a900473ffffffffffffffffffffffffffffffffffffffff169050600073ffffffffffffffffffffffffffffffffffffffff168173ffffffffffffffffffffffffffffffffffffffff1614156122eb576040517f08c379a00000000000000000000000000000000000000000000000000000000081526004016122e2906147aa565b60405180910390fd5b919050565b6000600d60009054906101000a900473ffffffffffffffffffffffffffffffffffffffff1673ffffffffffffffffffffffffffffffffffffffff1663fd0ceefb33846040518363ffffffff1660e01b815260040161234f92919061451e565b602060405180830381600087803b15801561236957600080fd5b505af115801561237d573d6000803e3d6000fd5b505050506040513d601f19601f820116820180604052508101906123a19190613ecd565b90503373ffffffffffffffffffffffffffffffffffffffff166108fc829081150290604051600060405180830381858888f193505050501580156123e9573d6000803e3d6000fd5b50807fde92ebff3e22b9f7cb899264130ad9f45c1b3c0dd3cd3b222814e343fafa22b960405160405180910390a25050565b600080600d60009054906101000a900473ffffffffffffffffffffffffffffffffffffffff1673ffffffffffffffffffffffffffffffffffffffff166326b3e792338787876040518563ffffffff1660e01b815260040161247f9493929190614547565b6040805180830381600087803b15801561249857600080fd5b505af11580156124ac573d6000803e3d6000fd5b505050506040513d601f19601f820116820180604052508101906124d09190613ef6565b9150915080827f634910b514717fe132500771fb9e0ca49e263609b88f4cc5aa1c6507b4e0bede60405160405180910390a35050505050565b6000600160008473ffffffffffffffffffffffffffffffffffffffff1673ffffffffffffffffffffffffffffffffffffffff16815260200190815260200160002060008373ffffffffffffffffffffffffffffffffffffffff1673ffffffffffffffffffffffffffffffffffffffff16815260200190815260200160002054905092915050565b612598612cf0565b73ffffffffffffffffffffffffffffffffffffffff16600560019054906101000a900473ffffffffffffffffffffffffffffffffffffffff1673ffffffffffffffffffffffffffffffffffffffff1614612627576040517f08c379a000000000000000000000000000000000000000000000000000000000815260040161261e9061482a565b60405180910390fd5b80600a8360405161263891906144d1565b908152602001604051809103902060006101000a81548173ffffffffffffffffffffffffffffffffffffffff021916908373ffffffffffffffffffffffffffffffffffffffff1602179055506040518060400160405280600481526020017f46554e4400000000000000000000000000000000000000000000000000000000815250805190602001208280519060200120141561271d576126d882612238565b600b60006101000a81548173ffffffffffffffffffffffffffffffffffffffff021916908373ffffffffffffffffffffffffffffffffffffffff1602179055506128e7565b6040518060400160405280600481526020017f5249534b0000000000000000000000000000000000000000000000000000000081525080519060200120828051906020012014156127b65761277182612238565b600c60006101000a81548173ffffffffffffffffffffffffffffffffffffffff021916908373ffffffffffffffffffffffffffffffffffffffff1602179055506128e6565b6040518060400160405280600981526020017f5357415054524144450000000000000000000000000000000000000000000000815250805190602001208280519060200120141561284f5761280a82612238565b600d60006101000a81548173ffffffffffffffffffffffffffffffffffffffff021916908373ffffffffffffffffffffffffffffffffffffffff1602179055506128e5565b6040518060400160405280600481526020017f4d494e450000000000000000000000000000000000000000000000000000000081525080519060200120828051906020012014156128e4576128a382612238565b600e60006101000a81548173ffffffffffffffffffffffffffffffffffffffff021916908373ffffffffffffffffffffffffffffffffffffffff1602179055505b5b5b5b5050565b600e60009054906101000a900473ffffffffffffffffffffffffffffffffffffffff1681565b612919612cf0565b73ffffffffffffffffffffffffffffffffffffffff16600560019054906101000a900473ffffffffffffffffffffffffffffffffffffffff1673ffffffffffffffffffffffffffffffffffffffff16146129a8576040517f08c379a000000000000000000000000000000000000000000000000000000000815260040161299f9061482a565b60405180910390fd5b600073ffffffffffffffffffffffffffffffffffffffff168173ffffffffffffffffffffffffffffffffffffffff161415612a18576040517f08c379a0000000000000000000000000000000000000000000000000000000008152600401612a0f906147ca565b60405180910390fd5b8073ffffffffffffffffffffffffffffffffffffffff16600560019054906101000a900473ffffffffffffffffffffffffffffffffffffffff1673ffffffffffffffffffffffffffffffffffffffff167f8be0079c531659141344cd1fd0a4f28419497f9722a3daafe3b4186f6b6457e060405160405180910390a380600560016101000a81548173ffffffffffffffffffffffffffffffffffffffff021916908373ffffffffffffffffffffffffffffffffffffffff16021790555050565b600080600d60009054906101000a900473ffffffffffffffffffffffffffffffffffffffff1673ffffffffffffffffffffffffffffffffffffffff1663908219c6338a348b8b8b8b8b6040518963ffffffff1660e01b8152600401612b4498979695949392919061458c565b6040805180830381600087803b158015612b5d57600080fd5b505af1158015612b71573d6000803e3d6000fd5b505050506040513d601f19601f82011682018060405250810190612b959190613ce3565b9150915080827f25d9e37502f8a0459e86cf55a239ab08b467e42b619ebe6652b8224c3faae2f760405160405180910390a35050505050505050565b600c60009054906101000a900473ffffffffffffffffffffffffffffffffffffffff1681565b600080600d60009054906101000a900473ffffffffffffffffffffffffffffffffffffffff1673ffffffffffffffffffffffffffffffffffffffff166333a7eb5b338a8a348b8b8b8b6040518963ffffffff1660e01b8152600401612c6398979695949392919061458c565b6040805180830381600087803b158015612c7c57600080fd5b505af1158015612c90573d6000803e3d6000fd5b505050506040513d601f19601f82011682018060405250810190612cb49190613ce3565b9150915080827f1f466e013c07bc16eafd2ccf7854d6c715f9f3e8a6a4e87bc4e2d7c7b323cae660405160405180910390a35050505050505050565b600033905090565b600073ffffffffffffffffffffffffffffffffffffffff168373ffffffffffffffffffffffffffffffffffffffff161415612d68576040517f08c379a0000000000000000000000000000000000000000000000000000000008152600401612d5f9061488a565b60405180910390fd5b600073ffffffffffffffffffffffffffffffffffffffff168273ffffffffffffffffffffffffffffffffffffffff161415612dd8576040517f08c379a0000000000000000000000000000000000000000000000000000000008152600401612dcf906147ea565b60405180910390fd5b80600160008573ffffffffffffffffffffffffffffffffffffffff1673ffffffffffffffffffffffffffffffffffffffff16815260200190815260200160002060008473ffffffffffffffffffffffffffffffffffffffff1673ffffffffffffffffffffffffffffffffffffffff168152602001908152602001600020819055508173ffffffffffffffffffffffffffffffffffffffff168373ffffffffffffffffffffffffffffffffffffffff167f8c5be1e5ebec7d5bd14f71427d1e84f3dd0314c0f7b2291e5b200ac8c7c3b92583604051612eb6919061490a565b60405180910390a3505050565b600060608573ffffffffffffffffffffffffffffffffffffffff166323b872dd868686604051602401612ef89392919061467f565b6040516020818303038152906040529060e01b6020820180517bffffffffffffffffffffffffffffffffffffffffffffffffffffffff8381831617835250505050604051612f4691906144ba565b6000604051808303816000865af19150503d8060008114612f83576040519150601f19603f3d011682016040523d82523d6000602084013e612f88565b606091505b5091509150818015612fb65750600081511480612fb5575080806020019051810190612fb49190613b68565b5b5b612ff5576040517f08c379a0000000000000000000000000000000000000000000000000000000008152600401612fec906148ca565b60405180910390fd5b505050505050565b600073ffffffffffffffffffffffffffffffffffffffff168273ffffffffffffffffffffffffffffffffffffffff16141561306d576040517f08c379a00000000000000000000000000000000000000000000000000000000081526004016130649061484a565b60405180910390fd5b61307982600083613816565b6130e481604051806060016040528060228152602001614b6c602291396000808673ffffffffffffffffffffffffffffffffffffffff1673ffffffffffffffffffffffffffffffffffffffff168152602001908152602001600020546136279092919063ffffffff16565b6000808473ffffffffffffffffffffffffffffffffffffffff1673ffffffffffffffffffffffffffffffffffffffff1681526020019081526020016000208190555061313b8160025461334890919063ffffffff16565b600281905550600073ffffffffffffffffffffffffffffffffffffffff168273ffffffffffffffffffffffffffffffffffffffff167fddf252ad1be2c89b69c2b068fc378daa952ba7f163c4a11628f55a4df523b3ef8360405161319f919061490a565b60405180910390a35050565b60008273ffffffffffffffffffffffffffffffffffffffff1682600067ffffffffffffffff811180156131dd57600080fd5b506040519080825280601f01601f1916602001820160405280156132105781602001600182028036833780820191505090505b5060405161321e91906144ba565b60006040518083038185875af1925050503d806000811461325b576040519150601f19603f3d011682016040523d82523d6000602084013e613260565b606091505b50509050806132a4576040517f08c379a000000000000000000000000000000000000000000000000000000000815260040161329b906148aa565b60405180910390fd5b505050565b60006132eb83836040518060400160405280601a81526020017f536166654d6174683a206469766973696f6e206279207a65726f00000000000081525061381b565b905092915050565b60008082840190508381101561333e576040517f08c379a00000000000000000000000000000000000000000000000000000000081526004016133359061480a565b60405180910390fd5b8091505092915050565b600061338a83836040518060400160405280601e81526020017f536166654d6174683a207375627472616374696f6e206f766572666c6f770000815250613627565b905092915050565b600073ffffffffffffffffffffffffffffffffffffffff168373ffffffffffffffffffffffffffffffffffffffff161415613402576040517f08c379a00000000000000000000000000000000000000000000000000000000081526004016133f99061486a565b60405180910390fd5b600073ffffffffffffffffffffffffffffffffffffffff168273ffffffffffffffffffffffffffffffffffffffff161415613472576040517f08c379a00000000000000000000000000000000000000000000000000000000081526004016134699061478a565b60405180910390fd5b61347d838383613816565b6134e881604051806060016040528060268152602001614b8e602691396000808773ffffffffffffffffffffffffffffffffffffffff1673ffffffffffffffffffffffffffffffffffffffff168152602001908152602001600020546136279092919063ffffffff16565b6000808573ffffffffffffffffffffffffffffffffffffffff1673ffffffffffffffffffffffffffffffffffffffff1681526020019081526020016000208190555061357b816000808573ffffffffffffffffffffffffffffffffffffffff1673ffffffffffffffffffffffffffffffffffffffff168152602001908152602001600020546132f390919063ffffffff16565b6000808473ffffffffffffffffffffffffffffffffffffffff1673ffffffffffffffffffffffffffffffffffffffff168152602001908152602001600020819055508173ffffffffffffffffffffffffffffffffffffffff168373ffffffffffffffffffffffffffffffffffffffff167fddf252ad1be2c89b69c2b068fc378daa952ba7f163c4a11628f55a4df523b3ef8360405161361a919061490a565b60405180910390a3505050565b600083831115829061366f576040517f08c379a00000000000000000000000000000000000000000000000000000000081526004016136669190614768565b60405180910390fd5b5060008385039050809150509392505050565b600073ffffffffffffffffffffffffffffffffffffffff168273ffffffffffffffffffffffffffffffffffffffff1614156136f2576040517f08c379a00000000000000000000000000000000000000000000000000000000081526004016136e9906148ea565b60405180910390fd5b6136fe60008383613816565b613713816002546132f390919063ffffffff16565b60028190555061376a816000808573ffffffffffffffffffffffffffffffffffffffff1673ffffffffffffffffffffffffffffffffffffffff168152602001908152602001600020546132f390919063ffffffff16565b6000808473ffffffffffffffffffffffffffffffffffffffff1673ffffffffffffffffffffffffffffffffffffffff168152602001908152602001600020819055508173ffffffffffffffffffffffffffffffffffffffff16600073ffffffffffffffffffffffffffffffffffffffff167fddf252ad1be2c89b69c2b068fc378daa952ba7f163c4a11628f55a4df523b3ef8360405161380a919061490a565b60405180910390a35050565b505050565b60008083118290613862576040517f08c379a00000000000000000000000000000000000000000000000000000000081526004016138599190614768565b60405180910390fd5b50600083858161386e57fe5b049050809150509392505050565b60008135905061388b81614b0f565b92915050565b6000815190506138a081614b0f565b92915050565b600082601f8301126138b757600080fd5b81356138ca6138c582614996565b614969565b915081818352602084019350602081019050838560208402820111156138ef57600080fd5b60005b8381101561391f57816139058882613953565b8452602084019350602083019250506001810190506138f2565b5050505092915050565b60008135905061393881614b26565b92915050565b60008151905061394d81614b26565b92915050565b60008135905061396281614b3d565b92915050565b60008151905061397781614b3d565b92915050565b600082601f83011261398e57600080fd5b81356139a161399c826149be565b614969565b915080825260208301602083018583830111156139bd57600080fd5b6139c8838284614abc565b50505092915050565b6000813590506139e081614b54565b92915050565b6000815190506139f581614b54565b92915050565b600060208284031215613a0d57600080fd5b6000613a1b8482850161387c565b91505092915050565b60008060408385031215613a3757600080fd5b6000613a458582860161387c565b9250506020613a568582860161387c565b9150509250929050565b600080600060608486031215613a7557600080fd5b6000613a838682870161387c565b9350506020613a948682870161387c565b9250506040613aa5868287016139d1565b9150509250925092565b60008060408385031215613ac257600080fd5b6000613ad08582860161387c565b9250506020613ae1858286016139d1565b9150509250929050565b60008060408385031215613afe57600080fd5b600083013567ffffffffffffffff811115613b1857600080fd5b613b24858286016138a6565b9250506020613b35858286016139d1565b9150509250929050565b600060208284031215613b5157600080fd5b6000613b5f84828501613929565b91505092915050565b600060208284031215613b7a57600080fd5b6000613b888482850161393e565b91505092915050565b600080600060608486031215613ba657600080fd5b6000613bb48682870161393e565b9350506020613bc586828701613891565b9250506040613bd6868287016139e6565b9150509250925092565b600080600080600080600060e0888a031215613bfb57600080fd5b6000613c098a828b0161393e565b9750506020613c1a8a828b01613891565b9650506040613c2b8a828b016139e6565b9550506060613c3c8a828b016139e6565b9450506080613c4d8a828b016139e6565b93505060a0613c5e8a828b016139e6565b92505060c0613c6f8a828b016139e6565b91505092959891949750929550565b600060208284031215613c9057600080fd5b6000613c9e84828501613953565b91505092915050565b60008060408385031215613cba57600080fd5b6000613cc885828601613953565b9250506020613cd9858286016139d1565b9150509250929050565b60008060408385031215613cf657600080fd5b6000613d0485828601613968565b9250506020613d15858286016139e6565b9150509250929050565b600080600060608486031215613d3457600080fd5b6000613d4286828701613953565b9350506020613d53868287016139d1565b9250506040613d64868287016139d1565b9150509250925092565b600060208284031215613d8057600080fd5b600082013567ffffffffffffffff811115613d9a57600080fd5b613da68482850161397d565b91505092915050565b60008060408385031215613dc257600080fd5b600083013567ffffffffffffffff811115613ddc57600080fd5b613de88582860161397d565b9250506020613df98582860161387c565b9150509250929050565b60008060008060008060c08789031215613e1c57600080fd5b600087013567ffffffffffffffff811115613e3657600080fd5b613e4289828a0161397d565b9650506020613e5389828a016139d1565b9550506040613e6489828a016139d1565b9450506060613e7589828a016139d1565b9350506080613e8689828a016139d1565b92505060a0613e9789828a016139d1565b9150509295509295509295565b600060208284031215613eb657600080fd5b6000613ec4848285016139d1565b91505092915050565b600060208284031215613edf57600080fd5b6000613eed848285016139e6565b91505092915050565b60008060408385031215613f0957600080fd5b6000613f17858286016139e6565b9250506020613f28858286016139e6565b9150509250929050565b60008060008060808587031215613f4857600080fd5b6000613f56878288016139e6565b9450506020613f67878288016139e6565b9350506040613f78878288016139e6565b9250506060613f89878288016139e6565b91505092959194509250565b613f9e81614a86565b82525050565b613fad81614a27565b82525050565b613fbc81614a39565b82525050565b613fcb81614a45565b82525050565b6000613fdc826149ea565b613fe68185614a00565b9350613ff6818560208601614acb565b80840191505092915050565b600061400d826149f5565b6140178185614a0b565b9350614027818560208601614acb565b61403081614afe565b840191505092915050565b6000614046826149f5565b6140508185614a1c565b9350614060818560208601614acb565b80840191505092915050565b6000614079602383614a0b565b91507f45524332303a207472616e7366657220746f20746865207a65726f206164647260008301527f65737300000000000000000000000000000000000000000000000000000000006020830152604082019050919050565b60006140df601983614a0b565b91507f6765744d6f64756c65416464723a206d6f64756c6520657272000000000000006000830152602082019050919050565b600061411f602683614a0b565b91507f4f776e61626c653a206e6577206f776e657220697320746865207a65726f206160008301527f64647265737300000000000000000000000000000000000000000000000000006020830152604082019050919050565b6000614185602283614a0b565b91507f45524332303a20617070726f766520746f20746865207a65726f20616464726560008301527f73730000000000000000000000000000000000000000000000000000000000006020830152604082019050919050565b60006141eb601b83614a0b565b91507f536166654d6174683a206164646974696f6e206f766572666c6f7700000000006000830152602082019050919050565b600061422b602083614a0b565b91507f4f776e61626c653a2063616c6c6572206973206e6f7420746865206f776e65726000830152602082019050919050565b600061426b602183614a0b565b91507f45524332303a206275726e2066726f6d20746865207a65726f2061646472657360008301527f73000000000000000000000000000000000000000000000000000000000000006020830152604082019050919050565b60006142d1602583614a0b565b91507f45524332303a207472616e736665722066726f6d20746865207a65726f20616460008301527f64726573730000000000000000000000000000000000000000000000000000006020830152604082019050919050565b6000614337602483614a0b565b91507f45524332303a20617070726f76652066726f6d20746865207a65726f2061646460008301527f72657373000000000000000000000000000000000000000000000000000000006020830152604082019050919050565b600061439d602383614a0b565b91507f5472616e7366657248656c7065723a204554485f5452414e534645525f46414960008301527f4c454400000000000000000000000000000000000000000000000000000000006020830152604082019050919050565b6000614403602483614a0b565b91507f5472616e7366657248656c7065723a205452414e534645525f46524f4d5f464160008301527f494c4544000000000000000000000000000000000000000000000000000000006020830152604082019050919050565b6000614469601f83614a0b565b91507f45524332303a206d696e7420746f20746865207a65726f2061646472657373006000830152602082019050919050565b6144a581614a6f565b82525050565b6144b481614a79565b82525050565b60006144c68284613fd1565b915081905092915050565b60006144dd828461403b565b915081905092915050565b60006020820190506144fd6000830184613fa4565b92915050565b60006020820190506145186000830184613f95565b92915050565b60006040820190506145336000830185613f95565b6145406020830184613fc2565b9392505050565b600060808201905061455c6000830187613f95565b6145696020830186613fc2565b614576604083018561449c565b614583606083018461449c565b95945050505050565b6000610100820190506145a2600083018b613f95565b81810360208301526145b4818a614002565b90506145c3604083018961449c565b6145d0606083018861449c565b6145dd608083018761449c565b6145ea60a083018661449c565b6145f760c083018561449c565b61460460e083018461449c565b9998505050505050505050565b60006040820190506146266000830185613f95565b614633602083018461449c565b9392505050565b600060808201905061464f6000830187613f95565b61465c602083018661449c565b614669604083018561449c565b614676606083018461449c565b95945050505050565b60006060820190506146946000830186613fa4565b6146a16020830185613fa4565b6146ae604083018461449c565b949350505050565b60006040820190506146cb6000830185613fa4565b6146d8602083018461449c565b9392505050565b60006080820190506146f46000830187613fa4565b614701602083018661449c565b61470e604083018561449c565b61471b606083018461449c565b95945050505050565b60006020820190506147396000830184613fb3565b92915050565b60006040820190506147546000830185613fc2565b614761602083018461449c565b9392505050565b600060208201905081810360008301526147828184614002565b905092915050565b600060208201905081810360008301526147a38161406c565b9050919050565b600060208201905081810360008301526147c3816140d2565b9050919050565b600060208201905081810360008301526147e381614112565b9050919050565b6000602082019050818103600083015261480381614178565b9050919050565b60006020820190508181036000830152614823816141de565b9050919050565b600060208201905081810360008301526148438161421e565b9050919050565b600060208201905081810360008301526148638161425e565b9050919050565b60006020820190508181036000830152614883816142c4565b9050919050565b600060208201905081810360008301526148a38161432a565b9050919050565b600060208201905081810360008301526148c381614390565b9050919050565b600060208201905081810360008301526148e3816143f6565b9050919050565b600060208201905081810360008301526149038161445c565b9050919050565b600060208201905061491f600083018461449c565b92915050565b600060408201905061493a600083018561449c565b614947602083018461449c565b9392505050565b600060208201905061496360008301846144ab565b92915050565b6000604051905081810181811067ffffffffffffffff8211171561498c57600080fd5b8060405250919050565b600067ffffffffffffffff8211156149ad57600080fd5b602082029050602081019050919050565b600067ffffffffffffffff8211156149d557600080fd5b601f19601f8301169050602081019050919050565b600081519050919050565b600081519050919050565b600081905092915050565b600082825260208201905092915050565b600081905092915050565b6000614a3282614a4f565b9050919050565b60008115159050919050565b6000819050919050565b600073ffffffffffffffffffffffffffffffffffffffff82169050919050565b6000819050919050565b600060ff82169050919050565b6000614a9182614a98565b9050919050565b6000614aa382614aaa565b9050919050565b6000614ab582614a4f565b9050919050565b82818337600083830152505050565b60005b83811015614ae9578082015181840152602081019050614ace565b83811115614af8576000848401525b50505050565b6000601f19601f8301169050919050565b614b1881614a27565b8114614b2357600080fd5b50565b614b2f81614a39565b8114614b3a57600080fd5b50565b614b4681614a45565b8114614b5157600080fd5b50565b614b5d81614a6f565b8114614b6857600080fd5b5056fe45524332303a206275726e20616d6f756e7420657863656564732062616c616e636545524332303a207472616e7366657220616d6f756e7420657863656564732062616c616e636545524332303a207472616e7366657220616d6f756e74206578636565647320616c6c6f77616e636545524332303a2064656372656173656420616c6c6f77616e63652062656c6f77207a65726fa264697066735822122020e9a159bb7c4c00f7675856219c8f71a5ee43dfec4b29d46b4b79ee22d40df564736f6c634300060c0033",
  "immutableReferences": {},
  "source": "// SPDX-License-Identifier: MIT\n\npragma solidity >=0.6.12;\npragma experimental ABIEncoderV2;\n\nimport \"../openzeppelin/contracts/token/ERC20/ERC20.sol\";\nimport \"../openzeppelin/contracts/math/SafeMath.sol\";\nimport \"../openzeppelin/contracts/access/Ownable.sol\";\nimport '../libraries/TransferHelper.sol';\nimport \"../interface/IFund.sol\";\nimport \"../interface/IRisk.sol\";\nimport \"../interface/ISwapTrade.sol\";\nimport \"../interface/IMine.sol\";\nimport \"../interface/IPoolFactory.sol\";\nimport \"../interface/ITeemoPool.sol\";\n\ncontract TeemoWPool is ERC20(\"TMOLP\", \"TMOLP\"), ITeemoPool, Ownable {\n    using SafeMath for uint256;\n\n    address public tokenAddr;\n    address public mainnetTokenAddr;\n    address public poolFactoryAddr;\n    address public quoteFactoryAddr;\n    mapping(string => address) public allModuleInfo;\n    address public fundAddr;\n    address public riskAddr;\n    address public swapTradeAddr;\n    address public mineAddr;\n\n    event OpenLimitSwap(bytes32 indexed orderID, uint256 indexed openPrice);\n    event CancelLimitSwap(uint256 indexed tokenAmount);\n    event TradeLimitSwap(address indexed success,uint256 indexed tokenAmount);\n    event OpenMarketSwap(bytes32 indexed orderID, uint256 indexed openPrice);\n    event CloseMarketSwap(uint256 indexed closePrice,uint256 indexed plFlag,uint256 indexed plAmount);\n    event CloseLimitSwap(address indexed userAddr,uint256 indexed closePrice,uint256 indexed closeType,uint256 plFlag,uint256 plAmount);\n    event UpdateSwap(uint256 indexed pLimitPrice, uint256 indexed lLimitPrice);\n\n    event LPDeposit(address _userAddr,uint256 indexed lpAmount,uint256 indexed teemoTokenAmount);\n    event LPWithdraw(address _userAddr,uint256 indexed tokenAmount);\n    event StartMine(address _userAddr,uint256 indexed tokenAmount,uint256 indexed teemoTokenAmount);\n    event StopMine(address _userAddr,uint256 indexed tokenAmount,uint256 indexed teemoTokenAmount);\n\n    function initialize(address _poolFactoryAddr, address _quoteFactoryAddr) public onlyOwner{\n        tokenAddr = address(0);\n        mainnetTokenAddr = address(0);\n        poolFactoryAddr = _poolFactoryAddr;\n        quoteFactoryAddr = _quoteFactoryAddr;\n    }\n\n    function setModuleAddr(string memory _moduleName,address _moduleAddr) public override onlyOwner {\n        allModuleInfo[_moduleName] = _moduleAddr;\n        if(keccak256(bytes(_moduleName)) == keccak256(bytes(\"FUND\"))){\n            fundAddr = getModuleAddr(_moduleName);\n        }else if(keccak256(bytes(_moduleName)) == keccak256(bytes(\"RISK\"))){\n            riskAddr = getModuleAddr(_moduleName);\n        }else if(keccak256(bytes(_moduleName)) == keccak256(bytes(\"SWAPTRADE\"))){\n            swapTradeAddr = getModuleAddr(_moduleName);\n        }else if(keccak256(bytes(_moduleName)) == keccak256(bytes(\"MINE\"))){\n            mineAddr = getModuleAddr(_moduleName);\n        }\n    }\n    function getModuleAddr(string memory _moduleName) public view returns (address moduleAddr) {\n        moduleAddr = allModuleInfo[_moduleName];\n        require(moduleAddr != address(0), \"getModuleAddr: module err\");\n    }\n    function getQuoteFactoryAddr() public override returns (address){\n        return quoteFactoryAddr;\n    }\n    // LP\n    function lpDeposit(bool mine) public payable {\n        uint256 lpAmount = IFund(fundAddr).deposit(msg.sender, msg.value);\n        if(mine == false){// TeemoToken\n            _mint(msg.sender,lpAmount);\n            emit LPDeposit(msg.sender, lpAmount, 0); \n        }else{\n            _mint(address(this),lpAmount);\n            (uint256 teemoTokenAmount,uint256 userTeemoTokenAmount) = IMine(mineAddr).deposit(msg.sender,lpAmount);\n            IPoolFactory(poolFactoryAddr).mintToken(teemoTokenAmount);\n            IPoolFactory(poolFactoryAddr).safeTeemoTransfer(msg.sender,userTeemoTokenAmount);\n            emit LPDeposit(msg.sender, lpAmount, userTeemoTokenAmount); \n        }       \n    }\n\n    // \n    function startMine(uint256 _lpAmount) public {\n        //transferFrom(msg.sender, address(this), _lpAmount);\n        TransferHelper.safeTransferFrom(address(this),msg.sender,address(this),_lpAmount);\n        (uint256 teemoTokenAmount, uint256 userTeemoTokenAmount) = IMine(mineAddr).deposit(msg.sender,_lpAmount);\n        IPoolFactory(poolFactoryAddr).mintToken(teemoTokenAmount);\n        IPoolFactory(poolFactoryAddr).safeTeemoTransfer(msg.sender,userTeemoTokenAmount);   \n        emit StartMine(msg.sender, _lpAmount, teemoTokenAmount);\n    }\n\n    // LP\n    function lpWithdraw(uint256 _lpAmount) public {  \n        //transferFrom(msg.sender, address(this), _lpAmount);\n        TransferHelper.safeTransferFrom(address(this),msg.sender,address(this),_lpAmount);\n        uint256 tokenAmount = IFund(fundAddr).withdraw(msg.sender, _lpAmount);\n        _burn(address(this),_lpAmount);\n        //msg.sender.transfer(tokenAmount);\n        TransferHelper.safeTransferETH(msg.sender,tokenAmount);\n        emit LPWithdraw(msg.sender, tokenAmount);\n    }\n\n    // \n    function stopMine(uint256 _lpAmount) public {\n        (uint256 teemoTokenAmount, uint256 userTeemoTokenAmount) = IMine(mineAddr).withdraw(msg.sender,_lpAmount); //lptokenTMO,lptoken\n        transfer(msg.sender, _lpAmount);\n        IPoolFactory(poolFactoryAddr).mintToken(teemoTokenAmount);\n        IPoolFactory(poolFactoryAddr).safeTeemoTransfer(msg.sender,userTeemoTokenAmount);   \n        emit StopMine(msg.sender, _lpAmount, userTeemoTokenAmount);\n    }\n\n    // \n    function openLimitSwap(string memory _symbol,uint256 _limitPrice,uint256 _lever,uint256 _bsFlag,uint256 _pLimitPrice,uint256 _lLimitPrice) public payable {\n        (bytes32 orderID, uint256 openPrice) = ISwapTrade(swapTradeAddr).openLimitSwap(msg.sender,_symbol,_limitPrice,msg.value,_lever,_bsFlag,_pLimitPrice,_lLimitPrice);\n        emit OpenLimitSwap(orderID, openPrice);\n    }\n\n    // \n    function cancelLimitSwap(bytes32 _orderID) public {\n        uint256 tokenAmount = ISwapTrade(swapTradeAddr).cancelLimitSwap(msg.sender,_orderID);\n        msg.sender.transfer(tokenAmount);\n        emit CancelLimitSwap(tokenAmount);\n    }\n\n    // \n    function tradeLimitSwaps(bytes32[] memory _orderIDs,uint256 _blockIndex) public {\n        for(uint256 i=0;i<_orderIDs.length;i++){\n            tradeLimitSwap(_orderIDs[i],_blockIndex);\n        }\n    }\n    function tradeLimitSwap(bytes32 _orderID,uint256 _blockIndex) public {\n        (bool success,address userAddr,uint256 tokenAmount) = ISwapTrade(swapTradeAddr).tradeLimitSwap(_orderID,_blockIndex);\n        if(success == true){\n            emit TradeLimitSwap(userAddr,tokenAmount);\n        }\n    }  \n\n    // \n    function openMarketSwap(string memory _symbol,uint256 _lever,uint256 _bsFlag,uint256 _pLimitPrice,uint256 _lLimitPrice, uint256 _maxPrice) public payable {\n        (bytes32 orderID, uint256 openPrice) = ISwapTrade(swapTradeAddr).openMarketSwap(msg.sender,_symbol,msg.value,_lever,_bsFlag,_pLimitPrice,_lLimitPrice, _maxPrice);        \n        emit OpenMarketSwap(orderID, openPrice);\n    }\n\n    // \n    function closeMarketSwap(bytes32 _orderID) public {\n        (uint256 closePrice,uint256 plFlag,uint256 plAmount,uint256 tradeAmount) = ISwapTrade(swapTradeAddr).closeMarketSwap(msg.sender, _orderID);\n        IFund(fundAddr).tradePL(msg.sender, tradeAmount, plFlag, plAmount);\n        uint256 mintAmount = tradeAmount.div(10);\n        IPoolFactory(poolFactoryAddr).mintGovToken(msg.sender, mintAmount);\n        if (plFlag == 1) {// \n            //msg.sender.transfer(tradeAmount.add(plAmount));\n            TransferHelper.safeTransferETH(msg.sender,tradeAmount.add(plAmount));\n        } else {\n            //msg.sender.transfer(tradeAmount.sub(plAmount));\n            TransferHelper.safeTransferETH(msg.sender,tradeAmount.sub(plAmount));\n        }\n        emit CloseMarketSwap(closePrice, plFlag, plAmount);\n    }\n\n    // ()\n    function closeLimitSwaps(bytes32[] memory _orderIDs,uint256 _blockIndex) public {\n        for(uint256 i=0;i<_orderIDs.length;i++){\n            closeLimitSwap(_orderIDs[i],_blockIndex);\n        }\n    }\n    function closeLimitSwap(bytes32 _orderID,uint256 _blockIndex) public {\n        (bool success,address userAddr,uint256 closePrice,uint256 closeType,uint256 plFlag,uint256 plAmount,uint256 tradeAmount) = ISwapTrade(swapTradeAddr).closeLimitSwap(_orderID,_blockIndex);\n        if(success == true){\n            IFund(fundAddr).tradePL(userAddr, tradeAmount, plFlag, plAmount);\n            uint256 mintAmount = tradeAmount.div(10);\n            IPoolFactory(poolFactoryAddr).mintGovToken(userAddr, mintAmount);\n            if (plFlag == 1) {// \n                TransferHelper.safeTransferETH(userAddr,tradeAmount.add(plAmount));\n            } else {\n                TransferHelper.safeTransferETH(userAddr,tradeAmount.sub(plAmount));\n            }\n            emit CloseLimitSwap(userAddr,closePrice,closeType,plFlag,plAmount);\n        }\n    }\n\n    // \n    function updateSwapByPrice(bytes32 _orderID,uint256 _pLimitPrice,uint256 _lLimitPrice) public {\n        (uint256 pLimitRate,uint256 lLimitRate) = ISwapTrade(swapTradeAddr).updateSwapByPrice(msg.sender, _orderID,_pLimitPrice,_lLimitPrice);\n        emit UpdateSwap(pLimitRate, lLimitRate);\n    }\n\n    // \n    function updateSwapByRate(bytes32 _orderID,uint256 _pLimitRate,uint256 _lLimitRate) public {\n        (uint256 pLimitPrice,uint256 lLimitPrice) = ISwapTrade(swapTradeAddr).updateSwapByRate(msg.sender, _orderID,_pLimitRate,_lLimitRate);\n        emit UpdateSwap(pLimitPrice, lLimitPrice);\n    }    \n}\n",
  "sourcePath": "/Users/tong/Projects/drep-project/teemo-private/contracts/pool/TeemoWPool.sol",
  "compiler": {
    "name": "solc",
    "version": "0.6.12+commit.27d51765.Emscripten.clang"
  },
  "schemaVersion": "3.3.2",
  "updatedAt": "2021-01-14T06:17:15.687Z",
  "networkType": "ethereum",
  "devdoc": {
    "kind": "dev",
    "methods": {
      "allowance(address,address)": {
        "details": "See {IERC20-allowance}."
      },
      "approve(address,uint256)": {
        "details": "See {IERC20-approve}. Requirements: - `spender` cannot be the zero address."
      },
      "balanceOf(address)": {
        "details": "See {IERC20-balanceOf}."
      },
      "decimals()": {
        "details": "Returns the number of decimals used to get its user representation. For example, if `decimals` equals `2`, a balance of `505` tokens should be displayed to a user as `5,05` (`505 / 10 ** 2`). Tokens usually opt for a value of 18, imitating the relationship between Ether and Wei. This is the value {ERC20} uses, unless {_setupDecimals} is called. NOTE: This information is only used for _display_ purposes: it in no way affects any of the arithmetic of the contract, including {IERC20-balanceOf} and {IERC20-transfer}."
      },
      "decreaseAllowance(address,uint256)": {
        "details": "Atomically decreases the allowance granted to `spender` by the caller. This is an alternative to {approve} that can be used as a mitigation for problems described in {IERC20-approve}. Emits an {Approval} event indicating the updated allowance. Requirements: - `spender` cannot be the zero address. - `spender` must have allowance for the caller of at least `subtractedValue`."
      },
      "increaseAllowance(address,uint256)": {
        "details": "Atomically increases the allowance granted to `spender` by the caller. This is an alternative to {approve} that can be used as a mitigation for problems described in {IERC20-approve}. Emits an {Approval} event indicating the updated allowance. Requirements: - `spender` cannot be the zero address."
      },
      "name()": {
        "details": "Returns the name of the token."
      },
      "owner()": {
        "details": "Returns the address of the current owner."
      },
      "renounceOwnership()": {
        "details": "Leaves the contract without owner. It will not be possible to call `onlyOwner` functions anymore. Can only be called by the current owner. NOTE: Renouncing ownership will leave the contract without an owner, thereby removing any functionality that is only available to the owner."
      },
      "symbol()": {
        "details": "Returns the symbol of the token, usually a shorter version of the name."
      },
      "totalSupply()": {
        "details": "See {IERC20-totalSupply}."
      },
      "transfer(address,uint256)": {
        "details": "See {IERC20-transfer}. Requirements: - `recipient` cannot be the zero address. - the caller must have a balance of at least `amount`."
      },
      "transferFrom(address,address,uint256)": {
        "details": "See {IERC20-transferFrom}. Emits an {Approval} event indicating the updated allowance. This is not required by the EIP. See the note at the beginning of {ERC20}; Requirements: - `sender` and `recipient` cannot be the zero address. - `sender` must have a balance of at least `amount`. - the caller must have allowance for ``sender``'s tokens of at least `amount`."
      },
      "transferOwnership(address)": {
        "details": "Transfers ownership of the contract to a new account (`newOwner`). Can only be called by the current owner."
      }
    },
    "version": 1
  },
  "userdoc": {
    "kind": "user",
    "methods": {},
    "version": 1
  }
}