{
  "contractName": "TeemoPool",
  "abi": [
    {
      "anonymous": false,
      "inputs": [
        {
          "indexed": true,
          "internalType": "address",
          "name": "owner",
          "type": "address"
        },
        {
          "indexed": true,
          "internalType": "address",
          "name": "spender",
          "type": "address"
        },
        {
          "indexed": false,
          "internalType": "uint256",
          "name": "value",
          "type": "uint256"
        }
      ],
      "name": "Approval",
      "type": "event"
    },
    {
      "anonymous": false,
      "inputs": [
        {
          "indexed": true,
          "internalType": "uint256",
          "name": "tokenAmount",
          "type": "uint256"
        }
      ],
      "name": "CancelLimitSwap",
      "type": "event"
    },
    {
      "anonymous": false,
      "inputs": [
        {
          "indexed": true,
          "internalType": "address",
          "name": "userAddr",
          "type": "address"
        },
        {
          "indexed": true,
          "internalType": "uint256",
          "name": "closePrice",
          "type": "uint256"
        },
        {
          "indexed": true,
          "internalType": "uint256",
          "name": "closeType",
          "type": "uint256"
        },
        {
          "indexed": false,
          "internalType": "uint256",
          "name": "plFlag",
          "type": "uint256"
        },
        {
          "indexed": false,
          "internalType": "uint256",
          "name": "plAmount",
          "type": "uint256"
        }
      ],
      "name": "CloseLimitSwap",
      "type": "event"
    },
    {
      "anonymous": false,
      "inputs": [
        {
          "indexed": true,
          "internalType": "bytes32",
          "name": "orderID",
          "type": "bytes32"
        },
        {
          "indexed": false,
          "internalType": "string",
          "name": "symbol",
          "type": "string"
        },
        {
          "indexed": false,
          "internalType": "address",
          "name": "userAddr",
          "type": "address"
        },
        {
          "indexed": true,
          "internalType": "uint256",
          "name": "closePrice",
          "type": "uint256"
        },
        {
          "indexed": true,
          "internalType": "uint256",
          "name": "plFlag",
          "type": "uint256"
        },
        {
          "indexed": false,
          "internalType": "uint256",
          "name": "plAmount",
          "type": "uint256"
        }
      ],
      "name": "CloseMarketSwap",
      "type": "event"
    },
    {
      "anonymous": false,
      "inputs": [
        {
          "indexed": true,
          "internalType": "address",
          "name": "tokenAddr",
          "type": "address"
        },
        {
          "indexed": true,
          "internalType": "address",
          "name": "userAddr",
          "type": "address"
        },
        {
          "indexed": true,
          "internalType": "uint256",
          "name": "amount",
          "type": "uint256"
        }
      ],
      "name": "EmergencyWithdraw",
      "type": "event"
    },
    {
      "anonymous": false,
      "inputs": [
        {
          "indexed": true,
          "internalType": "bytes32[]",
          "name": "orderIDs",
          "type": "bytes32[]"
        }
      ],
      "name": "FailedCloseLimitSwap",
      "type": "event"
    },
    {
      "anonymous": false,
      "inputs": [
        {
          "indexed": true,
          "internalType": "bytes32[]",
          "name": "orderIDs",
          "type": "bytes32[]"
        }
      ],
      "name": "FailedTradeLimitSwap",
      "type": "event"
    },
    {
      "anonymous": false,
      "inputs": [
        {
          "indexed": false,
          "internalType": "address",
          "name": "_userAddr",
          "type": "address"
        },
        {
          "indexed": true,
          "internalType": "uint256",
          "name": "lpAmount",
          "type": "uint256"
        },
        {
          "indexed": true,
          "internalType": "uint256",
          "name": "teemoTokenAmount",
          "type": "uint256"
        }
      ],
      "name": "LPDeposit",
      "type": "event"
    },
    {
      "anonymous": false,
      "inputs": [
        {
          "indexed": false,
          "internalType": "address",
          "name": "_userAddr",
          "type": "address"
        },
        {
          "indexed": true,
          "internalType": "uint256",
          "name": "tokenAmount",
          "type": "uint256"
        }
      ],
      "name": "LPWithdraw",
      "type": "event"
    },
    {
      "anonymous": false,
      "inputs": [
        {
          "indexed": true,
          "internalType": "bytes32",
          "name": "orderID",
          "type": "bytes32"
        },
        {
          "indexed": true,
          "internalType": "uint256",
          "name": "openPrice",
          "type": "uint256"
        }
      ],
      "name": "OpenLimitSwap",
      "type": "event"
    },
    {
      "anonymous": false,
      "inputs": [
        {
          "indexed": true,
          "internalType": "bytes32",
          "name": "orderID",
          "type": "bytes32"
        },
        {
          "indexed": false,
          "internalType": "string",
          "name": "symbol",
          "type": "string"
        },
        {
          "indexed": true,
          "internalType": "uint256",
          "name": "openPrice",
          "type": "uint256"
        }
      ],
      "name": "OpenMarketSwap",
      "type": "event"
    },
    {
      "anonymous": false,
      "inputs": [
        {
          "indexed": true,
          "internalType": "address",
          "name": "previousOwner",
          "type": "address"
        },
        {
          "indexed": true,
          "internalType": "address",
          "name": "newOwner",
          "type": "address"
        }
      ],
      "name": "OwnershipTransferred",
      "type": "event"
    },
    {
      "anonymous": false,
      "inputs": [
        {
          "indexed": true,
          "internalType": "address",
          "name": "userAddr",
          "type": "address"
        },
        {
          "indexed": true,
          "internalType": "bytes32",
          "name": "_orderID",
          "type": "bytes32"
        },
        {
          "indexed": true,
          "internalType": "uint256",
          "name": "_price",
          "type": "uint256"
        }
      ],
      "name": "SetOrderPrice",
      "type": "event"
    },
    {
      "anonymous": false,
      "inputs": [
        {
          "indexed": false,
          "internalType": "address",
          "name": "_userAddr",
          "type": "address"
        },
        {
          "indexed": true,
          "internalType": "uint256",
          "name": "tokenAmount",
          "type": "uint256"
        },
        {
          "indexed": true,
          "internalType": "uint256",
          "name": "teemoTokenAmount",
          "type": "uint256"
        }
      ],
      "name": "StartMine",
      "type": "event"
    },
    {
      "anonymous": false,
      "inputs": [
        {
          "indexed": false,
          "internalType": "address",
          "name": "_userAddr",
          "type": "address"
        },
        {
          "indexed": true,
          "internalType": "uint256",
          "name": "tokenAmount",
          "type": "uint256"
        },
        {
          "indexed": true,
          "internalType": "uint256",
          "name": "teemoTokenAmount",
          "type": "uint256"
        }
      ],
      "name": "StopMine",
      "type": "event"
    },
    {
      "anonymous": false,
      "inputs": [
        {
          "indexed": true,
          "internalType": "address",
          "name": "success",
          "type": "address"
        },
        {
          "indexed": true,
          "internalType": "uint256",
          "name": "tokenAmount",
          "type": "uint256"
        }
      ],
      "name": "TradeLimitSwap",
      "type": "event"
    },
    {
      "anonymous": false,
      "inputs": [
        {
          "indexed": true,
          "internalType": "address",
          "name": "from",
          "type": "address"
        },
        {
          "indexed": true,
          "internalType": "address",
          "name": "to",
          "type": "address"
        },
        {
          "indexed": false,
          "internalType": "uint256",
          "name": "value",
          "type": "uint256"
        }
      ],
      "name": "Transfer",
      "type": "event"
    },
    {
      "anonymous": false,
      "inputs": [
        {
          "indexed": true,
          "internalType": "uint256",
          "name": "pLimitPrice",
          "type": "uint256"
        },
        {
          "indexed": true,
          "internalType": "uint256",
          "name": "lLimitPrice",
          "type": "uint256"
        }
      ],
      "name": "UpdateSwap",
      "type": "event"
    },
    {
      "inputs": [
        {
          "internalType": "string",
          "name": "",
          "type": "string"
        }
      ],
      "name": "allModuleInfo",
      "outputs": [
        {
          "internalType": "address",
          "name": "",
          "type": "address"
        }
      ],
      "stateMutability": "view",
      "type": "function"
    },
    {
      "inputs": [
        {
          "internalType": "address",
          "name": "owner",
          "type": "address"
        },
        {
          "internalType": "address",
          "name": "spender",
          "type": "address"
        }
      ],
      "name": "allowance",
      "outputs": [
        {
          "internalType": "uint256",
          "name": "",
          "type": "uint256"
        }
      ],
      "stateMutability": "view",
      "type": "function"
    },
    {
      "inputs": [
        {
          "internalType": "address",
          "name": "spender",
          "type": "address"
        },
        {
          "internalType": "uint256",
          "name": "amount",
          "type": "uint256"
        }
      ],
      "name": "approve",
      "outputs": [
        {
          "internalType": "bool",
          "name": "",
          "type": "bool"
        }
      ],
      "stateMutability": "nonpayable",
      "type": "function"
    },
    {
      "inputs": [
        {
          "internalType": "address",
          "name": "account",
          "type": "address"
        }
      ],
      "name": "balanceOf",
      "outputs": [
        {
          "internalType": "uint256",
          "name": "",
          "type": "uint256"
        }
      ],
      "stateMutability": "view",
      "type": "function"
    },
    {
      "inputs": [],
      "name": "decimals",
      "outputs": [
        {
          "internalType": "uint8",
          "name": "",
          "type": "uint8"
        }
      ],
      "stateMutability": "view",
      "type": "function"
    },
    {
      "inputs": [
        {
          "internalType": "address",
          "name": "spender",
          "type": "address"
        },
        {
          "internalType": "uint256",
          "name": "subtractedValue",
          "type": "uint256"
        }
      ],
      "name": "decreaseAllowance",
      "outputs": [
        {
          "internalType": "bool",
          "name": "",
          "type": "bool"
        }
      ],
      "stateMutability": "nonpayable",
      "type": "function"
    },
    {
      "inputs": [],
      "name": "fundAddr",
      "outputs": [
        {
          "internalType": "address",
          "name": "",
          "type": "address"
        }
      ],
      "stateMutability": "view",
      "type": "function"
    },
    {
      "inputs": [
        {
          "internalType": "address",
          "name": "spender",
          "type": "address"
        },
        {
          "internalType": "uint256",
          "name": "addedValue",
          "type": "uint256"
        }
      ],
      "name": "increaseAllowance",
      "outputs": [
        {
          "internalType": "bool",
          "name": "",
          "type": "bool"
        }
      ],
      "stateMutability": "nonpayable",
      "type": "function"
    },
    {
      "inputs": [],
      "name": "mainnetTokenAddr",
      "outputs": [
        {
          "internalType": "address",
          "name": "",
          "type": "address"
        }
      ],
      "stateMutability": "view",
      "type": "function"
    },
    {
      "inputs": [],
      "name": "mineAddr",
      "outputs": [
        {
          "internalType": "address",
          "name": "",
          "type": "address"
        }
      ],
      "stateMutability": "view",
      "type": "function"
    },
    {
      "inputs": [],
      "name": "name",
      "outputs": [
        {
          "internalType": "string",
          "name": "",
          "type": "string"
        }
      ],
      "stateMutability": "view",
      "type": "function"
    },
    {
      "inputs": [],
      "name": "owner",
      "outputs": [
        {
          "internalType": "address",
          "name": "",
          "type": "address"
        }
      ],
      "stateMutability": "view",
      "type": "function"
    },
    {
      "inputs": [],
      "name": "poolFactoryAddr",
      "outputs": [
        {
          "internalType": "address",
          "name": "",
          "type": "address"
        }
      ],
      "stateMutability": "view",
      "type": "function"
    },
    {
      "inputs": [],
      "name": "quoteFactoryAddr",
      "outputs": [
        {
          "internalType": "address",
          "name": "",
          "type": "address"
        }
      ],
      "stateMutability": "view",
      "type": "function"
    },
    {
      "inputs": [],
      "name": "renounceOwnership",
      "outputs": [],
      "stateMutability": "nonpayable",
      "type": "function"
    },
    {
      "inputs": [],
      "name": "riskAddr",
      "outputs": [
        {
          "internalType": "address",
          "name": "",
          "type": "address"
        }
      ],
      "stateMutability": "view",
      "type": "function"
    },
    {
      "inputs": [],
      "name": "swapTradeAddr",
      "outputs": [
        {
          "internalType": "address",
          "name": "",
          "type": "address"
        }
      ],
      "stateMutability": "view",
      "type": "function"
    },
    {
      "inputs": [],
      "name": "symbol",
      "outputs": [
        {
          "internalType": "string",
          "name": "",
          "type": "string"
        }
      ],
      "stateMutability": "view",
      "type": "function"
    },
    {
      "inputs": [],
      "name": "tokenAddr",
      "outputs": [
        {
          "internalType": "address",
          "name": "",
          "type": "address"
        }
      ],
      "stateMutability": "view",
      "type": "function"
    },
    {
      "inputs": [],
      "name": "totalSupply",
      "outputs": [
        {
          "internalType": "uint256",
          "name": "",
          "type": "uint256"
        }
      ],
      "stateMutability": "view",
      "type": "function"
    },
    {
      "inputs": [
        {
          "internalType": "address",
          "name": "recipient",
          "type": "address"
        },
        {
          "internalType": "uint256",
          "name": "amount",
          "type": "uint256"
        }
      ],
      "name": "transfer",
      "outputs": [
        {
          "internalType": "bool",
          "name": "",
          "type": "bool"
        }
      ],
      "stateMutability": "nonpayable",
      "type": "function"
    },
    {
      "inputs": [
        {
          "internalType": "address",
          "name": "sender",
          "type": "address"
        },
        {
          "internalType": "address",
          "name": "recipient",
          "type": "address"
        },
        {
          "internalType": "uint256",
          "name": "amount",
          "type": "uint256"
        }
      ],
      "name": "transferFrom",
      "outputs": [
        {
          "internalType": "bool",
          "name": "",
          "type": "bool"
        }
      ],
      "stateMutability": "nonpayable",
      "type": "function"
    },
    {
      "inputs": [
        {
          "internalType": "address",
          "name": "newOwner",
          "type": "address"
        }
      ],
      "name": "transferOwnership",
      "outputs": [],
      "stateMutability": "nonpayable",
      "type": "function"
    },
    {
      "inputs": [
        {
          "internalType": "address",
          "name": "_tokenAddr",
          "type": "address"
        },
        {
          "internalType": "address",
          "name": "_mainnetTokenAddr",
          "type": "address"
        },
        {
          "internalType": "address",
          "name": "_poolFactoryAddr",
          "type": "address"
        },
        {
          "internalType": "address",
          "name": "_quoteFactoryAddr",
          "type": "address"
        }
      ],
      "name": "initialize",
      "outputs": [],
      "stateMutability": "nonpayable",
      "type": "function"
    },
    {
      "inputs": [
        {
          "internalType": "string",
          "name": "_moduleName",
          "type": "string"
        },
        {
          "internalType": "address",
          "name": "_moduleAddr",
          "type": "address"
        }
      ],
      "name": "setModuleAddr",
      "outputs": [],
      "stateMutability": "nonpayable",
      "type": "function"
    },
    {
      "inputs": [
        {
          "internalType": "string",
          "name": "_moduleName",
          "type": "string"
        }
      ],
      "name": "getModuleAddr",
      "outputs": [
        {
          "internalType": "address",
          "name": "moduleAddr",
          "type": "address"
        }
      ],
      "stateMutability": "view",
      "type": "function"
    },
    {
      "inputs": [],
      "name": "getQuoteFactoryAddr",
      "outputs": [
        {
          "internalType": "address",
          "name": "",
          "type": "address"
        }
      ],
      "stateMutability": "view",
      "type": "function"
    },
    {
      "inputs": [
        {
          "internalType": "uint256",
          "name": "_tokenAmount",
          "type": "uint256"
        },
        {
          "internalType": "bool",
          "name": "mine",
          "type": "bool"
        }
      ],
      "name": "lpDeposit",
      "outputs": [],
      "stateMutability": "nonpayable",
      "type": "function"
    },
    {
      "inputs": [
        {
          "internalType": "uint256",
          "name": "_lpAmount",
          "type": "uint256"
        }
      ],
      "name": "startMine",
      "outputs": [],
      "stateMutability": "nonpayable",
      "type": "function"
    },
    {
      "inputs": [
        {
          "internalType": "uint256",
          "name": "_lpAmount",
          "type": "uint256"
        }
      ],
      "name": "lpWithdraw",
      "outputs": [],
      "stateMutability": "nonpayable",
      "type": "function"
    },
    {
      "inputs": [
        {
          "internalType": "uint256",
          "name": "_lpAmount",
          "type": "uint256"
        }
      ],
      "name": "stopMine",
      "outputs": [],
      "stateMutability": "nonpayable",
      "type": "function"
    },
    {
      "inputs": [
        {
          "internalType": "string",
          "name": "_symbol",
          "type": "string"
        },
        {
          "internalType": "uint256",
          "name": "_limitPrice",
          "type": "uint256"
        },
        {
          "internalType": "uint256",
          "name": "_tokenAmount",
          "type": "uint256"
        },
        {
          "internalType": "uint256",
          "name": "_lever",
          "type": "uint256"
        },
        {
          "internalType": "uint256",
          "name": "_bsFlag",
          "type": "uint256"
        },
        {
          "internalType": "uint256",
          "name": "_pLimitPrice",
          "type": "uint256"
        },
        {
          "internalType": "uint256",
          "name": "_lLimitPrice",
          "type": "uint256"
        }
      ],
      "name": "openLimitSwap",
      "outputs": [],
      "stateMutability": "nonpayable",
      "type": "function"
    },
    {
      "inputs": [
        {
          "internalType": "bytes32",
          "name": "_orderID",
          "type": "bytes32"
        }
      ],
      "name": "cancelLimitSwap",
      "outputs": [],
      "stateMutability": "nonpayable",
      "type": "function"
    },
    {
      "inputs": [
        {
          "internalType": "bytes32[]",
          "name": "_orderIDs",
          "type": "bytes32[]"
        }
      ],
      "name": "tradeLimitSwaps",
      "outputs": [],
      "stateMutability": "nonpayable",
      "type": "function"
    },
    {
      "inputs": [
        {
          "internalType": "bytes32",
          "name": "_orderID",
          "type": "bytes32"
        },
        {
          "internalType": "uint256",
          "name": "_blockIndex",
          "type": "uint256"
        }
      ],
      "name": "tradeLimitSwap",
      "outputs": [],
      "stateMutability": "nonpayable",
      "type": "function"
    },
    {
      "inputs": [
        {
          "internalType": "string",
          "name": "_symbol",
          "type": "string"
        },
        {
          "internalType": "uint256",
          "name": "_tokenAmount",
          "type": "uint256"
        },
        {
          "internalType": "uint256",
          "name": "_lever",
          "type": "uint256"
        },
        {
          "internalType": "uint256",
          "name": "_bsFlag",
          "type": "uint256"
        },
        {
          "internalType": "uint256",
          "name": "_pLimitPrice",
          "type": "uint256"
        },
        {
          "internalType": "uint256",
          "name": "_lLimitPrice",
          "type": "uint256"
        },
        {
          "internalType": "uint256",
          "name": "_maxPrice",
          "type": "uint256"
        }
      ],
      "name": "openMarketSwap",
      "outputs": [],
      "stateMutability": "nonpayable",
      "type": "function"
    },
    {
      "inputs": [
        {
          "internalType": "bytes32",
          "name": "_orderID",
          "type": "bytes32"
        }
      ],
      "name": "closeMarketSwap",
      "outputs": [],
      "stateMutability": "nonpayable",
      "type": "function"
    },
    {
      "inputs": [
        {
          "internalType": "bytes32[]",
          "name": "_orderIDs",
          "type": "bytes32[]"
        }
      ],
      "name": "closeLimitSwaps",
      "outputs": [],
      "stateMutability": "nonpayable",
      "type": "function"
    },
    {
      "inputs": [
        {
          "internalType": "bytes32",
          "name": "_orderID",
          "type": "bytes32"
        },
        {
          "internalType": "uint256",
          "name": "_blockIndex",
          "type": "uint256"
        }
      ],
      "name": "closeLimitSwap",
      "outputs": [],
      "stateMutability": "nonpayable",
      "type": "function"
    },
    {
      "inputs": [
        {
          "internalType": "bytes32",
          "name": "_orderID",
          "type": "bytes32"
        },
        {
          "internalType": "uint256",
          "name": "_pLimitPrice",
          "type": "uint256"
        },
        {
          "internalType": "uint256",
          "name": "_lLimitPrice",
          "type": "uint256"
        }
      ],
      "name": "updateSwapByPrice",
      "outputs": [],
      "stateMutability": "nonpayable",
      "type": "function"
    },
    {
      "inputs": [
        {
          "internalType": "bytes32",
          "name": "_orderID",
          "type": "bytes32"
        },
        {
          "internalType": "uint256",
          "name": "_pLimitRate",
          "type": "uint256"
        },
        {
          "internalType": "uint256",
          "name": "_lLimitRate",
          "type": "uint256"
        }
      ],
      "name": "updateSwapByRate",
      "outputs": [],
      "stateMutability": "nonpayable",
      "type": "function"
    },
    {
      "inputs": [
        {
          "internalType": "bytes32",
          "name": "_orderID",
          "type": "bytes32"
        }
      ],
      "name": "setOpenPrice",
      "outputs": [
        {
          "internalType": "address",
          "name": "userAddr",
          "type": "address"
        },
        {
          "internalType": "uint256",
          "name": "openPrice",
          "type": "uint256"
        }
      ],
      "stateMutability": "nonpayable",
      "type": "function"
    },
    {
      "inputs": [
        {
          "internalType": "address",
          "name": "_userAddr",
          "type": "address"
        },
        {
          "internalType": "bytes32",
          "name": "_orderID",
          "type": "bytes32"
        }
      ],
      "name": "closeMarketByOwner",
      "outputs": [],
      "stateMutability": "nonpayable",
      "type": "function"
    },
    {
      "inputs": [
        {
          "internalType": "uint256",
          "name": "_valideBlocks",
          "type": "uint256"
        }
      ],
      "name": "setValidBlocks",
      "outputs": [],
      "stateMutability": "nonpayable",
      "type": "function"
    }
  ],
  "bytecode": "0x60806040523480156200001157600080fd5b506040518060400160405280600581526020017f544d4f4c500000000000000000000000000000000000000000000000000000008152506040518060400160405280600581526020017f544d4f4c500000000000000000000000000000000000000000000000000000008152508160039080519060200190620000969291906200018d565b508060049080519060200190620000af9291906200018d565b506012600560006101000a81548160ff021916908360ff16021790555050506000620000e06200018560201b60201c565b905080600560016101000a81548173ffffffffffffffffffffffffffffffffffffffff021916908373ffffffffffffffffffffffffffffffffffffffff1602179055508073ffffffffffffffffffffffffffffffffffffffff16600073ffffffffffffffffffffffffffffffffffffffff167f8be0079c531659141344cd1fd0a4f28419497f9722a3daafe3b4186f6b6457e060405160405180910390a35062000233565b600033905090565b828054600181600116156101000203166002900490600052602060002090601f016020900481019282601f10620001d057805160ff191683800117855562000201565b8280016001018555821562000201579182015b8281111562000200578251825591602001919060010190620001e3565b5b50905062000210919062000214565b5090565b5b808211156200022f57600081600090555060010162000215565b5090565b61590d80620002436000396000f3fe608060405234801561001057600080fd5b50600436106102745760003560e01c806385006ba211610151578063bb294b60116100c3578063e2d5635911610087578063e2d5635914610770578063eadb2bdd1461078c578063f28342f7146107a8578063f2fde38b146107c6578063f5852039146107e2578063f8c8765e1461080057610274565b8063bb294b60146106a8578063c554ebcb146106d8578063cee87f5f14610708578063dc58bd7214610724578063dd62ed3e1461074057610274565b80639ff24296116101155780639ff24296146105d2578063a16098c0146105ee578063a457c2d71461060c578063a9059cbb1461063c578063afcfb11a1461066c578063b06b9fbe1461068a57610274565b806385006ba2146105425780638da5cb5b1461055e5780638edc2e371461057c57806395d89b41146105985780639aa9e7d2146105b657610274565b80635dc96a45116101ea5780636d95fbf8116101ae5780636d95fbf8146104815780636e04679f1461049d5780636f8d2d84146104b957806370a08231146104ea578063715018a61461051a5780638268b8dd1461052457610274565b80635dc96a45146103f15780635fbe4d1d1461040d57806363d24aa71461042b578063682cb9111461044757806369cd55951461046557610274565b806323b872dd1161023c57806323b872dd1461031d578063252f6adf1461034d578063313ce5671461036957806339509351146103875780633d3f2517146103b757806358aafa3d146103d357610274565b806306fdde0314610279578063095ea7b31461029757806309a5d5bf146102c757806318160ddd146102e357806322dbfdca14610301575b600080fd5b61028161081c565b60405161028e919061535b565b60405180910390f35b6102b160048036038101906102ac9190614441565b6108be565b6040516102be919061528e565b60405180910390f35b6102e160048036038101906102dc9190614887565b6108dc565b005b6102eb610a0e565b6040516102f89190615579565b60405180910390f35b61031b60048036038101906103169190614675565b610a18565b005b610337600480360381019061033291906143b6565b610b50565b604051610344919061528e565b60405180910390f35b61036760048036038101906103629190614405565b610c29565b005b610371610dd9565b60405161037e91906155bd565b60405180910390f35b6103a1600480360381019061039c9190614441565b610df0565b6040516103ae919061528e565b60405180910390f35b6103d160048036038101906103cc9190614675565b610ea3565b005b6103db610faf565b6040516103e8919061504c565b60405180910390f35b61040b600480360381019061040691906147d1565b610fd9565b005b61041561110c565b604051610422919061504c565b60405180910390f35b610445600480360381019061044091906144b9565b611132565b005b61044f61126d565b60405161045c919061504c565b60405180910390f35b61047f600480360381019061047a919061464c565b611293565b005b61049b600480360381019061049691906147d1565b6113ab565b005b6104b760048036038101906104b291906148d9565b6114d3565b005b6104d360048036038101906104ce919061464c565b61195e565b6040516104e19291906151fe565b60405180910390f35b61050460048036038101906104ff91906142ee565b611af6565b6040516105119190615579565b60405180910390f35b610522611b3e565b005b61052c611c96565b604051610539919061504c565b60405180910390f35b61055c600480360381019061055791906146ed565b611cbc565b005b610566611daa565b604051610573919061504c565b60405180910390f35b610596600480360381019061059191906144b9565b611dd4565b005b6105a0611f0f565b6040516105ad919061535b565b60405180910390f35b6105d060048036038101906105cb9190614887565b611fb1565b005b6105ec60048036038101906105e79190614887565b612303565b005b6105f6612656565b604051610603919061504c565b60405180910390f35b61062660048036038101906106219190614441565b61267c565b604051610633919061528e565b60405180910390f35b61065660048036038101906106519190614441565b612749565b604051610663919061528e565b60405180910390f35b610674612767565b604051610681919061504c565b60405180910390f35b61069261278d565b60405161069f919061504c565b60405180910390f35b6106c260048036038101906106bd919061473c565b6127b3565b6040516106cf919061504c565b60405180910390f35b6106f260048036038101906106ed919061473c565b6127fc565b6040516106ff919061504c565b60405180910390f35b610722600480360381019061071d919061464c565b6128b4565b005b61073e600480360381019061073991906146ed565b6129c6565b005b61075a60048036038101906107559190614317565b612ab4565b6040516107679190615579565b60405180910390f35b61078a6004803603810190610785919061477d565b612b3b565b005b6107a660048036038101906107a19190614887565b612e96565b005b6107b0612fbd565b6040516107bd919061504c565b60405180910390f35b6107e060048036038101906107db91906142ee565b612fe3565b005b6107ea6131aa565b6040516107f7919061504c565b60405180910390f35b61081a60048036038101906108159190614353565b6131d0565b005b606060038054600181600116156101000203166002900480601f0160208091040260200160405190810160405280929190818152602001828054600181600116156101000203166002900480156108b45780601f10610889576101008083540402835291602001916108b4565b820191906000526020600020905b81548152906001019060200180831161089757829003601f168201915b5050505050905090565b60006108d26108cb613371565b8484613379565b6001905092915050565b6108e830333084613544565b6000600b60009054906101000a900473ffffffffffffffffffffffffffffffffffffffff1673ffffffffffffffffffffffffffffffffffffffff1663f3fef3a333846040518363ffffffff1660e01b8152600401610947929190615175565b602060405180830381600087803b15801561096157600080fd5b505af1158015610975573d6000803e3d6000fd5b505050506040513d601f19601f8201168201806040525081019061099991906148b0565b90506109a5308361367e565b6109d2600660009054906101000a900473ffffffffffffffffffffffffffffffffffffffff16338361382c565b807fec6b5f6209de8a40ef6115a103a7312d2e22f043a81da1965a5038c95753742e33604051610a029190615067565b60405180910390a25050565b6000600254905090565b6000806000806000806000600d60009054906101000a900473ffffffffffffffffffffffffffffffffffffffff1673ffffffffffffffffffffffffffffffffffffffff166322dbfdca8a8a6040518363ffffffff1660e01b8152600401610a809291906152c4565b60e060405180830381600087803b158015610a9a57600080fd5b505af1158015610aae573d6000803e3d6000fd5b505050506040513d601f19601f82011682018060405250810190610ad29190614572565b96509650965096509650965096508615610b4557610af286848484613963565b83858773ffffffffffffffffffffffffffffffffffffffff167f1631bac4756e0c03f6c433a46f1eab5c1caf99854cc351c23dc3eec9fc5d26d08686604051610b3c929190615594565b60405180910390a45b505050505050505050565b6000610b5d848484613bf3565b610c1e84610b69613371565b610c198560405180606001604052806028815260200161588b60289139600160008b73ffffffffffffffffffffffffffffffffffffffff1673ffffffffffffffffffffffffffffffffffffffff1681526020019081526020016000206000610bcf613371565b73ffffffffffffffffffffffffffffffffffffffff1673ffffffffffffffffffffffffffffffffffffffff16815260200190815260200160002054613e889092919063ffffffff16565b613379565b600190509392505050565b610c31613371565b73ffffffffffffffffffffffffffffffffffffffff16600560019054906101000a900473ffffffffffffffffffffffffffffffffffffffff1673ffffffffffffffffffffffffffffffffffffffff1614610cc0576040517f08c379a0000000000000000000000000000000000000000000000000000000008152600401610cb7906154b9565b60405180910390fd5b6000806000806060600d60009054906101000a900473ffffffffffffffffffffffffffffffffffffffff1673ffffffffffffffffffffffffffffffffffffffff16631e2a565b88886040518363ffffffff1660e01b8152600401610d259291906151d5565b600060405180830381600087803b158015610d3f57600080fd5b505af1158015610d53573d6000803e3d6000fd5b505050506040513d6000823e3d601f19601f82011682018060405250810190610d7c9190614951565b94509450945094509450610d9287858585613963565b8385877f6316c994971506a5470aeacc33e966cab0826d565427926a14495b693aeee830848b88604051610dc8939291906153bb565b60405180910390a450505050505050565b6000600560009054906101000a900460ff16905090565b6000610e99610dfd613371565b84610e948560016000610e0e613371565b73ffffffffffffffffffffffffffffffffffffffff1673ffffffffffffffffffffffffffffffffffffffff16815260200190815260200160002060008973ffffffffffffffffffffffffffffffffffffffff1673ffffffffffffffffffffffffffffffffffffffff16815260200190815260200160002054613ee390919063ffffffff16565b613379565b6001905092915050565b6000806000600d60009054906101000a900473ffffffffffffffffffffffffffffffffffffffff1673ffffffffffffffffffffffffffffffffffffffff16633d3f251786866040518363ffffffff1660e01b8152600401610f059291906152c4565b606060405180830381600087803b158015610f1f57600080fd5b505af1158015610f33573d6000803e3d6000fd5b505050506040513d601f19601f82011682018060405250810190610f579190614523565b9250925092508215610fa857808273ffffffffffffffffffffffffffffffffffffffff167f60b3f5c3416dc0099a7252e08ee74dfa33c0444317f770740cdffce1526d4e3760405160405180910390a35b5050505050565b6000600960009054906101000a900473ffffffffffffffffffffffffffffffffffffffff16905090565b611007600660009054906101000a900473ffffffffffffffffffffffffffffffffffffffff16333089613544565b600080600d60009054906101000a900473ffffffffffffffffffffffffffffffffffffffff1673ffffffffffffffffffffffffffffffffffffffff1663908219c6338b8b8b8b8b8b8b6040518963ffffffff1660e01b81526004016110739897969594939291906150f0565b6040805180830381600087803b15801561108c57600080fd5b505af11580156110a0573d6000803e3d6000fd5b505050506040513d601f19601f820116820180604052508101906110c491906146b1565b9150915080827fae0d3238e10327fe3bd928db0a94f780903a668a0b55f821c36a670aa5daea938b6040516110f9919061535b565b60405180910390a3505050505050505050565b600660009054906101000a900473ffffffffffffffffffffffffffffffffffffffff1681565b600080600d60009054906101000a900473ffffffffffffffffffffffffffffffffffffffff1673ffffffffffffffffffffffffffffffffffffffff1663bfc564e8846040518263ffffffff1660e01b8152600401611190919061526c565b604080518083038186803b1580156111a757600080fd5b505afa1580156111bb573d6000803e3d6000fd5b505050506040513d601f19601f820116820180604052508101906111df9190614610565b9150915081156112255760005b835181101561121f5761121284828151811061120457fe5b602002602001015183610a18565b80806001019150506111ec565b50611268565b826040516112339190615007565b60405180910390207f6e29a260a8215ad988d22e2cdebba1d4e5215885b2449ee6318cedf160d0945460405160405180910390a25b505050565b600b60009054906101000a900473ffffffffffffffffffffffffffffffffffffffff1681565b6000806000806060600d60009054906101000a900473ffffffffffffffffffffffffffffffffffffffff1673ffffffffffffffffffffffffffffffffffffffff16631e2a565b33886040518363ffffffff1660e01b81526004016112f8929190615082565b600060405180830381600087803b15801561131257600080fd5b505af1158015611326573d6000803e3d6000fd5b505050506040513d6000823e3d601f19601f8201168201806040525081019061134f9190614951565b9450945094509450945061136533858585613963565b8385877f6316c994971506a5470aeacc33e966cab0826d565427926a14495b693aeee83084338860405161139b9392919061537d565b60405180910390a4505050505050565b6113d9600660009054906101000a900473ffffffffffffffffffffffffffffffffffffffff16333088613544565b600080600d60009054906101000a900473ffffffffffffffffffffffffffffffffffffffff1673ffffffffffffffffffffffffffffffffffffffff166333a7eb5b338b8b8b8b8b8b8b6040518963ffffffff1660e01b81526004016114459897969594939291906150f0565b6040805180830381600087803b15801561145e57600080fd5b505af1158015611472573d6000803e3d6000fd5b505050506040513d601f19601f8201168201806040525081019061149691906146b1565b9150915080827f1f466e013c07bc16eafd2ccf7854d6c715f9f3e8a6a4e87bc4e2d7c7b323cae660405160405180910390a3505050505050505050565b611501600660009054906101000a900473ffffffffffffffffffffffffffffffffffffffff16333085613544565b6000600b60009054906101000a900473ffffffffffffffffffffffffffffffffffffffff1673ffffffffffffffffffffffffffffffffffffffff166347e7ef2433856040518363ffffffff1660e01b8152600401611560929190615175565b602060405180830381600087803b15801561157a57600080fd5b505af115801561158e573d6000803e3d6000fd5b505050506040513d601f19601f820116820180604052508101906115b291906148b0565b905060001515821515141561160a576115cb3382613f38565b6000817f991d73f5e17d46d419b8d00ea1ba02099a33278bef6ba16f591c3869fc665842336040516115fd9190615067565b60405180910390a3611959565b6116143082613f38565b600080600e60009054906101000a900473ffffffffffffffffffffffffffffffffffffffff1673ffffffffffffffffffffffffffffffffffffffff166347e7ef2433856040518363ffffffff1660e01b8152600401611674929190615175565b6040805180830381600087803b15801561168d57600080fd5b505af11580156116a1573d6000803e3d6000fd5b505050506040513d601f19601f820116820180604052508101906116c59190614915565b91509150600860009054906101000a900473ffffffffffffffffffffffffffffffffffffffff1673ffffffffffffffffffffffffffffffffffffffff16634e69d5606040518163ffffffff1660e01b815260040160206040518083038186803b15801561173157600080fd5b505afa158015611745573d6000803e3d6000fd5b505050506040513d601f19601f8201168201806040525081019061176991906144fa565b1561188b57600860009054906101000a900473ffffffffffffffffffffffffffffffffffffffff1673ffffffffffffffffffffffffffffffffffffffff1663c634d032836040518263ffffffff1660e01b81526004016117c99190615579565b600060405180830381600087803b1580156117e357600080fd5b505af11580156117f7573d6000803e3d6000fd5b50505050600860009054906101000a900473ffffffffffffffffffffffffffffffffffffffff1673ffffffffffffffffffffffffffffffffffffffff1663cd049a9333836040518363ffffffff1660e01b8152600401611858929190615175565b600060405180830381600087803b15801561187257600080fd5b505af1158015611886573d6000803e3d6000fd5b505050505b600860009054906101000a900473ffffffffffffffffffffffffffffffffffffffff1673ffffffffffffffffffffffffffffffffffffffff16635cb45541600033846040518463ffffffff1660e01b81526004016118eb939291906152ed565b600060405180830381600087803b15801561190557600080fd5b505af1158015611919573d6000803e3d6000fd5b5050505080837f991d73f5e17d46d419b8d00ea1ba02099a33278bef6ba16f591c3869fc6658423360405161194e9190615067565b60405180910390a350505b505050565b600080611969613371565b73ffffffffffffffffffffffffffffffffffffffff16600560019054906101000a900473ffffffffffffffffffffffffffffffffffffffff1673ffffffffffffffffffffffffffffffffffffffff16146119f8576040517f08c379a00000000000000000000000000000000000000000000000000000000081526004016119ef906154b9565b60405180910390fd5b600d60009054906101000a900473ffffffffffffffffffffffffffffffffffffffff1673ffffffffffffffffffffffffffffffffffffffff1663509efd64846040518263ffffffff1660e01b8152600401611a5391906152a9565b6040805180830381600087803b158015611a6c57600080fd5b505af1158015611a80573d6000803e3d6000fd5b505050506040513d601f19601f82011682018060405250810190611aa4919061447d565b809250819350505080838373ffffffffffffffffffffffffffffffffffffffff167f8185c276a1c0637020430f8bcec2244f0cc67428b23d07d89128d6b900b5d38960405160405180910390a4915091565b60008060008373ffffffffffffffffffffffffffffffffffffffff1673ffffffffffffffffffffffffffffffffffffffff168152602001908152602001600020549050919050565b611b46613371565b73ffffffffffffffffffffffffffffffffffffffff16600560019054906101000a900473ffffffffffffffffffffffffffffffffffffffff1673ffffffffffffffffffffffffffffffffffffffff1614611bd5576040517f08c379a0000000000000000000000000000000000000000000000000000000008152600401611bcc906154b9565b60405180910390fd5b600073ffffffffffffffffffffffffffffffffffffffff16600560019054906101000a900473ffffffffffffffffffffffffffffffffffffffff1673ffffffffffffffffffffffffffffffffffffffff167f8be0079c531659141344cd1fd0a4f28419497f9722a3daafe3b4186f6b6457e060405160405180910390a36000600560016101000a81548173ffffffffffffffffffffffffffffffffffffffff021916908373ffffffffffffffffffffffffffffffffffffffff160217905550565b600760009054906101000a900473ffffffffffffffffffffffffffffffffffffffff1681565b600080600d60009054906101000a900473ffffffffffffffffffffffffffffffffffffffff1673ffffffffffffffffffffffffffffffffffffffff166334772557338787876040518563ffffffff1660e01b8152600401611d2094939291906150ab565b6040805180830381600087803b158015611d3957600080fd5b505af1158015611d4d573d6000803e3d6000fd5b505050506040513d601f19601f82011682018060405250810190611d719190614915565b9150915080827f634910b514717fe132500771fb9e0ca49e263609b88f4cc5aa1c6507b4e0bede60405160405180910390a35050505050565b6000600560019054906101000a900473ffffffffffffffffffffffffffffffffffffffff16905090565b600080600d60009054906101000a900473ffffffffffffffffffffffffffffffffffffffff1673ffffffffffffffffffffffffffffffffffffffff1663bfc564e8846040518263ffffffff1660e01b8152600401611e32919061526c565b604080518083038186803b158015611e4957600080fd5b505afa158015611e5d573d6000803e3d6000fd5b505050506040513d601f19601f82011682018060405250810190611e819190614610565b915091508115611ec75760005b8351811015611ec157611eb4848281518110611ea657fe5b602002602001015183610ea3565b8080600101915050611e8e565b50611f0a565b82604051611ed59190615007565b60405180910390207f202ececce4ec8527e534b19e88bed7d30e89196abc6815c8f7f71aae3ff11a4460405160405180910390a25b505050565b606060048054600181600116156101000203166002900480601f016020809104026020016040519081016040528092919081815260200182805460018160011615610100020316600290048015611fa75780601f10611f7c57610100808354040283529160200191611fa7565b820191906000526020600020905b815481529060010190602001808311611f8a57829003601f168201915b5050505050905090565b600080600e60009054906101000a900473ffffffffffffffffffffffffffffffffffffffff1673ffffffffffffffffffffffffffffffffffffffff1663f3fef3a333856040518363ffffffff1660e01b8152600401612011929190615175565b6040805180830381600087803b15801561202a57600080fd5b505af115801561203e573d6000803e3d6000fd5b505050506040513d601f19601f820116820180604052508101906120629190614915565b9150915061207130338561382c565b600860009054906101000a900473ffffffffffffffffffffffffffffffffffffffff1673ffffffffffffffffffffffffffffffffffffffff16634e69d5606040518163ffffffff1660e01b815260040160206040518083038186803b1580156120d957600080fd5b505afa1580156120ed573d6000803e3d6000fd5b505050506040513d601f19601f8201168201806040525081019061211191906144fa565b1561223357600860009054906101000a900473ffffffffffffffffffffffffffffffffffffffff1673ffffffffffffffffffffffffffffffffffffffff1663c634d032836040518263ffffffff1660e01b81526004016121719190615579565b600060405180830381600087803b15801561218b57600080fd5b505af115801561219f573d6000803e3d6000fd5b50505050600860009054906101000a900473ffffffffffffffffffffffffffffffffffffffff1673ffffffffffffffffffffffffffffffffffffffff1663cd049a9333836040518363ffffffff1660e01b8152600401612200929190615175565b600060405180830381600087803b15801561221a57600080fd5b505af115801561222e573d6000803e3d6000fd5b505050505b600860009054906101000a900473ffffffffffffffffffffffffffffffffffffffff1673ffffffffffffffffffffffffffffffffffffffff16635cb45541600033846040518463ffffffff1660e01b8152600401612293939291906152ed565b600060405180830381600087803b1580156122ad57600080fd5b505af11580156122c1573d6000803e3d6000fd5b5050505080837fc10b273d1e1478889bf14cfc20976c0178f47d6164f92d53745fe0c67988201f336040516122f69190615067565b60405180910390a3505050565b61230f30333084613544565b600080600e60009054906101000a900473ffffffffffffffffffffffffffffffffffffffff1673ffffffffffffffffffffffffffffffffffffffff166347e7ef2433856040518363ffffffff1660e01b815260040161236f929190615175565b6040805180830381600087803b15801561238857600080fd5b505af115801561239c573d6000803e3d6000fd5b505050506040513d601f19601f820116820180604052508101906123c09190614915565b91509150600860009054906101000a900473ffffffffffffffffffffffffffffffffffffffff1673ffffffffffffffffffffffffffffffffffffffff16634e69d5606040518163ffffffff1660e01b815260040160206040518083038186803b15801561242c57600080fd5b505afa158015612440573d6000803e3d6000fd5b505050506040513d601f19601f8201168201806040525081019061246491906144fa565b1561258657600860009054906101000a900473ffffffffffffffffffffffffffffffffffffffff1673ffffffffffffffffffffffffffffffffffffffff1663c634d032836040518263ffffffff1660e01b81526004016124c49190615579565b600060405180830381600087803b1580156124de57600080fd5b505af11580156124f2573d6000803e3d6000fd5b50505050600860009054906101000a900473ffffffffffffffffffffffffffffffffffffffff1673ffffffffffffffffffffffffffffffffffffffff1663cd049a9333836040518363ffffffff1660e01b8152600401612553929190615175565b600060405180830381600087803b15801561256d57600080fd5b505af1158015612581573d6000803e3d6000fd5b505050505b600860009054906101000a900473ffffffffffffffffffffffffffffffffffffffff1673ffffffffffffffffffffffffffffffffffffffff16635cb45541600033846040518463ffffffff1660e01b81526004016125e6939291906152ed565b600060405180830381600087803b15801561260057600080fd5b505af1158015612614573d6000803e3d6000fd5b5050505081837fab5f5548654b65d796f84aaee73cdd7fea9a28bf7a29fb80cb4451425797b4e6336040516126499190615067565b60405180910390a3505050565b600d60009054906101000a900473ffffffffffffffffffffffffffffffffffffffff1681565b600061273f612689613371565b8461273a856040518060600160405280602581526020016158b360259139600160006126b3613371565b73ffffffffffffffffffffffffffffffffffffffff1673ffffffffffffffffffffffffffffffffffffffff16815260200190815260200160002060008a73ffffffffffffffffffffffffffffffffffffffff1673ffffffffffffffffffffffffffffffffffffffff16815260200190815260200160002054613e889092919063ffffffff16565b613379565b6001905092915050565b600061275d612756613371565b8484613bf3565b6001905092915050565b600960009054906101000a900473ffffffffffffffffffffffffffffffffffffffff1681565b600860009054906101000a900473ffffffffffffffffffffffffffffffffffffffff1681565b600a818051602081018201805184825260208301602085012081835280955050505050506000915054906101000a900473ffffffffffffffffffffffffffffffffffffffff1681565b6000600a8260405161280e9190615035565b908152602001604051809103902060009054906101000a900473ffffffffffffffffffffffffffffffffffffffff169050600073ffffffffffffffffffffffffffffffffffffffff168173ffffffffffffffffffffffffffffffffffffffff1614156128af576040517f08c379a00000000000000000000000000000000000000000000000000000000081526004016128a690615439565b60405180910390fd5b919050565b6000600d60009054906101000a900473ffffffffffffffffffffffffffffffffffffffff1673ffffffffffffffffffffffffffffffffffffffff1663fd0ceefb33846040518363ffffffff1660e01b8152600401612913929190615082565b602060405180830381600087803b15801561292d57600080fd5b505af1158015612941573d6000803e3d6000fd5b505050506040513d601f19601f8201168201806040525081019061296591906148b0565b9050612995600660009054906101000a900473ffffffffffffffffffffffffffffffffffffffff16333084613544565b807fde92ebff3e22b9f7cb899264130ad9f45c1b3c0dd3cd3b222814e343fafa22b960405160405180910390a25050565b600080600d60009054906101000a900473ffffffffffffffffffffffffffffffffffffffff1673ffffffffffffffffffffffffffffffffffffffff166326b3e792338787876040518563ffffffff1660e01b8152600401612a2a94939291906150ab565b6040805180830381600087803b158015612a4357600080fd5b505af1158015612a57573d6000803e3d6000fd5b505050506040513d601f19601f82011682018060405250810190612a7b9190614915565b9150915080827f634910b514717fe132500771fb9e0ca49e263609b88f4cc5aa1c6507b4e0bede60405160405180910390a35050505050565b6000600160008473ffffffffffffffffffffffffffffffffffffffff1673ffffffffffffffffffffffffffffffffffffffff16815260200190815260200160002060008373ffffffffffffffffffffffffffffffffffffffff1673ffffffffffffffffffffffffffffffffffffffff16815260200190815260200160002054905092915050565b612b43613371565b73ffffffffffffffffffffffffffffffffffffffff16600560019054906101000a900473ffffffffffffffffffffffffffffffffffffffff1673ffffffffffffffffffffffffffffffffffffffff1614612bd2576040517f08c379a0000000000000000000000000000000000000000000000000000000008152600401612bc9906154b9565b60405180910390fd5b80600a83604051612be39190615035565b908152602001604051809103902060006101000a81548173ffffffffffffffffffffffffffffffffffffffff021916908373ffffffffffffffffffffffffffffffffffffffff1602179055506040518060400160405280600481526020017f46554e44000000000000000000000000000000000000000000000000000000008152508051906020012082805190602001201415612cc857612c83826127fc565b600b60006101000a81548173ffffffffffffffffffffffffffffffffffffffff021916908373ffffffffffffffffffffffffffffffffffffffff160217905550612e92565b6040518060400160405280600481526020017f5249534b000000000000000000000000000000000000000000000000000000008152508051906020012082805190602001201415612d6157612d1c826127fc565b600c60006101000a81548173ffffffffffffffffffffffffffffffffffffffff021916908373ffffffffffffffffffffffffffffffffffffffff160217905550612e91565b6040518060400160405280600981526020017f53574150545241444500000000000000000000000000000000000000000000008152508051906020012082805190602001201415612dfa57612db5826127fc565b600d60006101000a81548173ffffffffffffffffffffffffffffffffffffffff021916908373ffffffffffffffffffffffffffffffffffffffff160217905550612e90565b6040518060400160405280600481526020017f4d494e45000000000000000000000000000000000000000000000000000000008152508051906020012082805190602001201415612e8f57612e4e826127fc565b600e60006101000a81548173ffffffffffffffffffffffffffffffffffffffff021916908373ffffffffffffffffffffffffffffffffffffffff1602179055505b5b5b5b5050565b612e9e613371565b73ffffffffffffffffffffffffffffffffffffffff16600560019054906101000a900473ffffffffffffffffffffffffffffffffffffffff1673ffffffffffffffffffffffffffffffffffffffff1614612f2d576040517f08c379a0000000000000000000000000000000000000000000000000000000008152600401612f24906154b9565b60405180910390fd5b600d60009054906101000a900473ffffffffffffffffffffffffffffffffffffffff1673ffffffffffffffffffffffffffffffffffffffff1663eadb2bdd826040518263ffffffff1660e01b8152600401612f889190615579565b600060405180830381600087803b158015612fa257600080fd5b505af1158015612fb6573d6000803e3d6000fd5b5050505050565b600e60009054906101000a900473ffffffffffffffffffffffffffffffffffffffff1681565b612feb613371565b73ffffffffffffffffffffffffffffffffffffffff16600560019054906101000a900473ffffffffffffffffffffffffffffffffffffffff1673ffffffffffffffffffffffffffffffffffffffff161461307a576040517f08c379a0000000000000000000000000000000000000000000000000000000008152600401613071906154b9565b60405180910390fd5b600073ffffffffffffffffffffffffffffffffffffffff168173ffffffffffffffffffffffffffffffffffffffff1614156130ea576040517f08c379a00000000000000000000000000000000000000000000000000000000081526004016130e190615459565b60405180910390fd5b8073ffffffffffffffffffffffffffffffffffffffff16600560019054906101000a900473ffffffffffffffffffffffffffffffffffffffff1673ffffffffffffffffffffffffffffffffffffffff167f8be0079c531659141344cd1fd0a4f28419497f9722a3daafe3b4186f6b6457e060405160405180910390a380600560016101000a81548173ffffffffffffffffffffffffffffffffffffffff021916908373ffffffffffffffffffffffffffffffffffffffff16021790555050565b600c60009054906101000a900473ffffffffffffffffffffffffffffffffffffffff1681565b6131d8613371565b73ffffffffffffffffffffffffffffffffffffffff16600560019054906101000a900473ffffffffffffffffffffffffffffffffffffffff1673ffffffffffffffffffffffffffffffffffffffff1614613267576040517f08c379a000000000000000000000000000000000000000000000000000000000815260040161325e906154b9565b60405180910390fd5b83600660006101000a81548173ffffffffffffffffffffffffffffffffffffffff021916908373ffffffffffffffffffffffffffffffffffffffff16021790555082600760006101000a81548173ffffffffffffffffffffffffffffffffffffffff021916908373ffffffffffffffffffffffffffffffffffffffff16021790555081600860006101000a81548173ffffffffffffffffffffffffffffffffffffffff021916908373ffffffffffffffffffffffffffffffffffffffff16021790555080600960006101000a81548173ffffffffffffffffffffffffffffffffffffffff021916908373ffffffffffffffffffffffffffffffffffffffff16021790555050505050565b600033905090565b600073ffffffffffffffffffffffffffffffffffffffff168373ffffffffffffffffffffffffffffffffffffffff1614156133e9576040517f08c379a00000000000000000000000000000000000000000000000000000000081526004016133e090615519565b60405180910390fd5b600073ffffffffffffffffffffffffffffffffffffffff168273ffffffffffffffffffffffffffffffffffffffff161415613459576040517f08c379a000000000000000000000000000000000000000000000000000000000815260040161345090615479565b60405180910390fd5b80600160008573ffffffffffffffffffffffffffffffffffffffff1673ffffffffffffffffffffffffffffffffffffffff16815260200190815260200160002060008473ffffffffffffffffffffffffffffffffffffffff1673ffffffffffffffffffffffffffffffffffffffff168152602001908152602001600020819055508173ffffffffffffffffffffffffffffffffffffffff168373ffffffffffffffffffffffffffffffffffffffff167f8c5be1e5ebec7d5bd14f71427d1e84f3dd0314c0f7b2291e5b200ac8c7c3b925836040516135379190615579565b60405180910390a3505050565b600060608573ffffffffffffffffffffffffffffffffffffffff166323b872dd8686866040516024016135799392919061519e565b6040516020818303038152906040529060e01b6020820180517bffffffffffffffffffffffffffffffffffffffffffffffffffffffff83818316178352505050506040516135c7919061501e565b6000604051808303816000865af19150503d8060008114613604576040519150601f19603f3d011682016040523d82523d6000602084013e613609565b606091505b5091509150818015613637575060008151148061363657508080602001905181019061363591906144fa565b5b5b613676576040517f08c379a000000000000000000000000000000000000000000000000000000000815260040161366d90615539565b60405180910390fd5b505050505050565b600073ffffffffffffffffffffffffffffffffffffffff168273ffffffffffffffffffffffffffffffffffffffff1614156136ee576040517f08c379a00000000000000000000000000000000000000000000000000000000081526004016136e5906154d9565b60405180910390fd5b6136fa826000836140cc565b61376581604051806060016040528060228152602001615843602291396000808673ffffffffffffffffffffffffffffffffffffffff1673ffffffffffffffffffffffffffffffffffffffff16815260200190815260200160002054613e889092919063ffffffff16565b6000808473ffffffffffffffffffffffffffffffffffffffff1673ffffffffffffffffffffffffffffffffffffffff168152602001908152602001600020819055506137bc816002546140d190919063ffffffff16565b600281905550600073ffffffffffffffffffffffffffffffffffffffff168273ffffffffffffffffffffffffffffffffffffffff167fddf252ad1be2c89b69c2b068fc378daa952ba7f163c4a11628f55a4df523b3ef836040516138209190615579565b60405180910390a35050565b600060608473ffffffffffffffffffffffffffffffffffffffff1663a9059cbb858560405160240161385f9291906151fe565b6040516020818303038152906040529060e01b6020820180517bffffffffffffffffffffffffffffffffffffffffffffffffffffffff83818316178352505050506040516138ad919061501e565b6000604051808303816000865af19150503d80600081146138ea576040519150601f19603f3d011682016040523d82523d6000602084013e6138ef565b606091505b509150915081801561391d575060008151148061391c57508080602001905181019061391b91906144fa565b5b5b61395c576040517f08c379a000000000000000000000000000000000000000000000000000000000815260040161395390615419565b60405180910390fd5b5050505050565b600b60009054906101000a900473ffffffffffffffffffffffffffffffffffffffff1673ffffffffffffffffffffffffffffffffffffffff1663a64ec3ba858386866040518563ffffffff1660e01b81526004016139c49493929190615227565b600060405180830381600087803b1580156139de57600080fd5b505af11580156139f2573d6000803e3d6000fd5b50505050600860009054906101000a900473ffffffffffffffffffffffffffffffffffffffff1673ffffffffffffffffffffffffffffffffffffffff16634e69d5606040518163ffffffff1660e01b815260040160206040518083038186803b158015613a5e57600080fd5b505afa158015613a72573d6000803e3d6000fd5b505050506040513d601f19601f82011682018060405250810190613a9691906144fa565b15613b2d576001831415613ae857613ae3600660009054906101000a900473ffffffffffffffffffffffffffffffffffffffff1685613ade8585613ee390919063ffffffff16565b61382c565b613b28565b613b27600660009054906101000a900473ffffffffffffffffffffffffffffffffffffffff1685613b2285856140d190919063ffffffff16565b61382c565b5b613b5b565b613b5a600660009054906101000a900473ffffffffffffffffffffffffffffffffffffffff16858361382c565b5b600860009054906101000a900473ffffffffffffffffffffffffffffffffffffffff1673ffffffffffffffffffffffffffffffffffffffff16635cb45541600186856040518463ffffffff1660e01b8152600401613bbb93929190615324565b600060405180830381600087803b158015613bd557600080fd5b505af1158015613be9573d6000803e3d6000fd5b5050505050505050565b600073ffffffffffffffffffffffffffffffffffffffff168373ffffffffffffffffffffffffffffffffffffffff161415613c63576040517f08c379a0000000000000000000000000000000000000000000000000000000008152600401613c5a906154f9565b60405180910390fd5b600073ffffffffffffffffffffffffffffffffffffffff168273ffffffffffffffffffffffffffffffffffffffff161415613cd3576040517f08c379a0000000000000000000000000000000000000000000000000000000008152600401613cca906153f9565b60405180910390fd5b613cde8383836140cc565b613d4981604051806060016040528060268152602001615865602691396000808773ffffffffffffffffffffffffffffffffffffffff1673ffffffffffffffffffffffffffffffffffffffff16815260200190815260200160002054613e889092919063ffffffff16565b6000808573ffffffffffffffffffffffffffffffffffffffff1673ffffffffffffffffffffffffffffffffffffffff16815260200190815260200160002081905550613ddc816000808573ffffffffffffffffffffffffffffffffffffffff1673ffffffffffffffffffffffffffffffffffffffff16815260200190815260200160002054613ee390919063ffffffff16565b6000808473ffffffffffffffffffffffffffffffffffffffff1673ffffffffffffffffffffffffffffffffffffffff168152602001908152602001600020819055508173ffffffffffffffffffffffffffffffffffffffff168373ffffffffffffffffffffffffffffffffffffffff167fddf252ad1be2c89b69c2b068fc378daa952ba7f163c4a11628f55a4df523b3ef83604051613e7b9190615579565b60405180910390a3505050565b6000838311158290613ed0576040517f08c379a0000000000000000000000000000000000000000000000000000000008152600401613ec7919061535b565b60405180910390fd5b5060008385039050809150509392505050565b600080828401905083811015613f2e576040517f08c379a0000000000000000000000000000000000000000000000000000000008152600401613f2590615499565b60405180910390fd5b8091505092915050565b600073ffffffffffffffffffffffffffffffffffffffff168273ffffffffffffffffffffffffffffffffffffffff161415613fa8576040517f08c379a0000000000000000000000000000000000000000000000000000000008152600401613f9f90615559565b60405180910390fd5b613fb4600083836140cc565b613fc981600254613ee390919063ffffffff16565b600281905550614020816000808573ffffffffffffffffffffffffffffffffffffffff1673ffffffffffffffffffffffffffffffffffffffff16815260200190815260200160002054613ee390919063ffffffff16565b6000808473ffffffffffffffffffffffffffffffffffffffff1673ffffffffffffffffffffffffffffffffffffffff168152602001908152602001600020819055508173ffffffffffffffffffffffffffffffffffffffff16600073ffffffffffffffffffffffffffffffffffffffff167fddf252ad1be2c89b69c2b068fc378daa952ba7f163c4a11628f55a4df523b3ef836040516140c09190615579565b60405180910390a35050565b505050565b600061411383836040518060400160405280601e81526020017f536166654d6174683a207375627472616374696f6e206f766572666c6f770000815250613e88565b905092915050565b60008135905061412a816157e6565b92915050565b60008151905061413f816157e6565b92915050565b600082601f83011261415657600080fd5b813561416961416482615605565b6155d8565b9150818183526020840193506020810190508385602084028201111561418e57600080fd5b60005b838110156141be57816141a488826141f2565b845260208401935060208301925050600181019050614191565b5050505092915050565b6000813590506141d7816157fd565b92915050565b6000815190506141ec816157fd565b92915050565b60008135905061420181615814565b92915050565b60008151905061421681615814565b92915050565b600082601f83011261422d57600080fd5b813561424061423b8261562d565b6155d8565b9150808252602083016020830185838301111561425c57600080fd5b614267838284615793565b50505092915050565b600082601f83011261428157600080fd5b815161429461428f8261562d565b6155d8565b915080825260208301602083018583830111156142b057600080fd5b6142bb8382846157a2565b50505092915050565b6000813590506142d38161582b565b92915050565b6000815190506142e88161582b565b92915050565b60006020828403121561430057600080fd5b600061430e8482850161411b565b91505092915050565b6000806040838503121561432a57600080fd5b60006143388582860161411b565b92505060206143498582860161411b565b9150509250929050565b6000806000806080858703121561436957600080fd5b60006143778782880161411b565b94505060206143888782880161411b565b93505060406143998782880161411b565b92505060606143aa8782880161411b565b91505092959194509250565b6000806000606084860312156143cb57600080fd5b60006143d98682870161411b565b93505060206143ea8682870161411b565b92505060406143fb868287016142c4565b9150509250925092565b6000806040838503121561441857600080fd5b60006144268582860161411b565b9250506020614437858286016141f2565b9150509250929050565b6000806040838503121561445457600080fd5b60006144628582860161411b565b9250506020614473858286016142c4565b9150509250929050565b6000806040838503121561449057600080fd5b600061449e85828601614130565b92505060206144af858286016142d9565b9150509250929050565b6000602082840312156144cb57600080fd5b600082013567ffffffffffffffff8111156144e557600080fd5b6144f184828501614145565b91505092915050565b60006020828403121561450c57600080fd5b600061451a848285016141dd565b91505092915050565b60008060006060848603121561453857600080fd5b6000614546868287016141dd565b935050602061455786828701614130565b9250506040614568868287016142d9565b9150509250925092565b600080600080600080600060e0888a03121561458d57600080fd5b600061459b8a828b016141dd565b97505060206145ac8a828b01614130565b96505060406145bd8a828b016142d9565b95505060606145ce8a828b016142d9565b94505060806145df8a828b016142d9565b93505060a06145f08a828b016142d9565b92505060c06146018a828b016142d9565b91505092959891949750929550565b6000806040838503121561462357600080fd5b6000614631858286016141dd565b9250506020614642858286016142d9565b9150509250929050565b60006020828403121561465e57600080fd5b600061466c848285016141f2565b91505092915050565b6000806040838503121561468857600080fd5b6000614696858286016141f2565b92505060206146a7858286016142c4565b9150509250929050565b600080604083850312156146c457600080fd5b60006146d285828601614207565b92505060206146e3858286016142d9565b9150509250929050565b60008060006060848603121561470257600080fd5b6000614710868287016141f2565b9350506020614721868287016142c4565b9250506040614732868287016142c4565b9150509250925092565b60006020828403121561474e57600080fd5b600082013567ffffffffffffffff81111561476857600080fd5b6147748482850161421c565b91505092915050565b6000806040838503121561479057600080fd5b600083013567ffffffffffffffff8111156147aa57600080fd5b6147b68582860161421c565b92505060206147c78582860161411b565b9150509250929050565b600080600080600080600060e0888a0312156147ec57600080fd5b600088013567ffffffffffffffff81111561480657600080fd5b6148128a828b0161421c565b97505060206148238a828b016142c4565b96505060406148348a828b016142c4565b95505060606148458a828b016142c4565b94505060806148568a828b016142c4565b93505060a06148678a828b016142c4565b92505060c06148788a828b016142c4565b91505092959891949750929550565b60006020828403121561489957600080fd5b60006148a7848285016142c4565b91505092915050565b6000602082840312156148c257600080fd5b60006148d0848285016142d9565b91505092915050565b600080604083850312156148ec57600080fd5b60006148fa858286016142c4565b925050602061490b858286016141c8565b9150509250929050565b6000806040838503121561492857600080fd5b6000614936858286016142d9565b9250506020614947858286016142d9565b9150509250929050565b600080600080600060a0868803121561496957600080fd5b6000614977888289016142d9565b9550506020614988888289016142d9565b9450506040614999888289016142d9565b93505060606149aa888289016142d9565b925050608086015167ffffffffffffffff8111156149c757600080fd5b6149d388828901614270565b9150509295509295909350565b60006149ec8383614af9565b60208301905092915050565b6000614a048383614b17565b60208301905092915050565b614a1981615739565b82525050565b614a28816156da565b82525050565b6000614a3982615669565b614a438185615697565b9350614a4e83615659565b8060005b83811015614a7f578151614a6688826149e0565b9750614a718361568a565b925050600181019050614a52565b5085935050505092915050565b6000614a9782615669565b614aa181856156a8565b9350614aac83615659565b8060005b83811015614add578151614ac488826149f8565b9750614acf8361568a565b925050600181019050614ab0565b5085935050505092915050565b614af3816156ec565b82525050565b614b02816156f8565b82525050565b614b11816156f8565b82525050565b614b20816156f8565b82525050565b6000614b3182615674565b614b3b81856156b3565b9350614b4b8185602086016157a2565b80840191505092915050565b614b608161574b565b82525050565b614b6f8161575d565b82525050565b6000614b808261567f565b614b8a81856156be565b9350614b9a8185602086016157a2565b614ba3816157d5565b840191505092915050565b6000614bb98261567f565b614bc381856156cf565b9350614bd38185602086016157a2565b80840191505092915050565b6000614bec6023836156be565b91507f45524332303a207472616e7366657220746f20746865207a65726f206164647260008301527f65737300000000000000000000000000000000000000000000000000000000006020830152604082019050919050565b6000614c52601f836156be565b91507f5472616e7366657248656c7065723a205452414e534645525f4641494c4544006000830152602082019050919050565b6000614c926019836156be565b91507f6765744d6f64756c65416464723a206d6f64756c6520657272000000000000006000830152602082019050919050565b6000614cd26026836156be565b91507f4f776e61626c653a206e6577206f776e657220697320746865207a65726f206160008301527f64647265737300000000000000000000000000000000000000000000000000006020830152604082019050919050565b6000614d386022836156be565b91507f45524332303a20617070726f766520746f20746865207a65726f20616464726560008301527f73730000000000000000000000000000000000000000000000000000000000006020830152604082019050919050565b6000614d9e601b836156be565b91507f536166654d6174683a206164646974696f6e206f766572666c6f7700000000006000830152602082019050919050565b6000614dde6020836156be565b91507f4f776e61626c653a2063616c6c6572206973206e6f7420746865206f776e65726000830152602082019050919050565b6000614e1e6021836156be565b91507f45524332303a206275726e2066726f6d20746865207a65726f2061646472657360008301527f73000000000000000000000000000000000000000000000000000000000000006020830152604082019050919050565b6000614e846025836156be565b91507f45524332303a207472616e736665722066726f6d20746865207a65726f20616460008301527f64726573730000000000000000000000000000000000000000000000000000006020830152604082019050919050565b6000614eea6024836156be565b91507f45524332303a20617070726f76652066726f6d20746865207a65726f2061646460008301527f72657373000000000000000000000000000000000000000000000000000000006020830152604082019050919050565b6000614f506024836156be565b91507f5472616e7366657248656c7065723a205452414e534645525f46524f4d5f464160008301527f494c4544000000000000000000000000000000000000000000000000000000006020830152604082019050919050565b6000614fb6601f836156be565b91507f45524332303a206d696e7420746f20746865207a65726f2061646472657373006000830152602082019050919050565b614ff281615722565b82525050565b6150018161572c565b82525050565b60006150138284614a8c565b915081905092915050565b600061502a8284614b26565b915081905092915050565b60006150418284614bae565b915081905092915050565b60006020820190506150616000830184614a1f565b92915050565b600060208201905061507c6000830184614a10565b92915050565b60006040820190506150976000830185614a10565b6150a46020830184614b08565b9392505050565b60006080820190506150c06000830187614a10565b6150cd6020830186614b08565b6150da6040830185614fe9565b6150e76060830184614fe9565b95945050505050565b600061010082019050615106600083018b614a10565b8181036020830152615118818a614b75565b90506151276040830189614fe9565b6151346060830188614fe9565b6151416080830187614fe9565b61514e60a0830186614fe9565b61515b60c0830185614fe9565b61516860e0830184614fe9565b9998505050505050505050565b600060408201905061518a6000830185614a10565b6151976020830184614fe9565b9392505050565b60006060820190506151b36000830186614a1f565b6151c06020830185614a1f565b6151cd6040830184614fe9565b949350505050565b60006040820190506151ea6000830185614a1f565b6151f76020830184614b08565b9392505050565b60006040820190506152136000830185614a1f565b6152206020830184614fe9565b9392505050565b600060808201905061523c6000830187614a1f565b6152496020830186614fe9565b6152566040830185614fe9565b6152636060830184614fe9565b95945050505050565b600060208201905081810360008301526152868184614a2e565b905092915050565b60006020820190506152a36000830184614aea565b92915050565b60006020820190506152be6000830184614b08565b92915050565b60006040820190506152d96000830185614b08565b6152e66020830184614fe9565b9392505050565b60006060820190506153026000830186614b57565b61530f6020830185614a10565b61531c6040830184614fe9565b949350505050565b60006060820190506153396000830186614b66565b6153466020830185614a1f565b6153536040830184614fe9565b949350505050565b600060208201905081810360008301526153758184614b75565b905092915050565b600060608201905081810360008301526153978186614b75565b90506153a66020830185614a10565b6153b36040830184614fe9565b949350505050565b600060608201905081810360008301526153d58186614b75565b90506153e46020830185614a1f565b6153f16040830184614fe9565b949350505050565b6000602082019050818103600083015261541281614bdf565b9050919050565b6000602082019050818103600083015261543281614c45565b9050919050565b6000602082019050818103600083015261545281614c85565b9050919050565b6000602082019050818103600083015261547281614cc5565b9050919050565b6000602082019050818103600083015261549281614d2b565b9050919050565b600060208201905081810360008301526154b281614d91565b9050919050565b600060208201905081810360008301526154d281614dd1565b9050919050565b600060208201905081810360008301526154f281614e11565b9050919050565b6000602082019050818103600083015261551281614e77565b9050919050565b6000602082019050818103600083015261553281614edd565b9050919050565b6000602082019050818103600083015261555281614f43565b9050919050565b6000602082019050818103600083015261557281614fa9565b9050919050565b600060208201905061558e6000830184614fe9565b92915050565b60006040820190506155a96000830185614fe9565b6155b66020830184614fe9565b9392505050565b60006020820190506155d26000830184614ff8565b92915050565b6000604051905081810181811067ffffffffffffffff821117156155fb57600080fd5b8060405250919050565b600067ffffffffffffffff82111561561c57600080fd5b602082029050602081019050919050565b600067ffffffffffffffff82111561564457600080fd5b601f19601f8301169050602081019050919050565b6000819050602082019050919050565b600081519050919050565b600081519050919050565b600081519050919050565b6000602082019050919050565b600082825260208201905092915050565b600081905092915050565b600081905092915050565b600082825260208201905092915050565b600081905092915050565b60006156e582615702565b9050919050565b60008115159050919050565b6000819050919050565b600073ffffffffffffffffffffffffffffffffffffffff82169050919050565b6000819050919050565b600060ff82169050919050565b60006157448261576f565b9050919050565b600061575682615722565b9050919050565b600061576882615722565b9050919050565b600061577a82615781565b9050919050565b600061578c82615702565b9050919050565b82818337600083830152505050565b60005b838110156157c05780820151818401526020810190506157a5565b838111156157cf576000848401525b50505050565b6000601f19601f8301169050919050565b6157ef816156da565b81146157fa57600080fd5b50565b615806816156ec565b811461581157600080fd5b50565b61581d816156f8565b811461582857600080fd5b50565b61583481615722565b811461583f57600080fd5b5056fe45524332303a206275726e20616d6f756e7420657863656564732062616c616e636545524332303a207472616e7366657220616d6f756e7420657863656564732062616c616e636545524332303a207472616e7366657220616d6f756e74206578636565647320616c6c6f77616e636545524332303a2064656372656173656420616c6c6f77616e63652062656c6f77207a65726fa26469706673582212205d5dc6631ab305bb2f191dc1af929b4da5e1566904dbe346e1b9c422348cde1a64736f6c634300060c0033",
  "immutableReferences": {},
  "source": "// SPDX-License-Identifier: MIT\n\npragma solidity >=0.6.12;\npragma experimental ABIEncoderV2;\n\nimport \"../openzeppelin/contracts/token/ERC20/ERC20.sol\";\nimport \"../openzeppelin/contracts/math/SafeMath.sol\";\nimport \"../openzeppelin/contracts/access/Ownable.sol\";\nimport '../libraries/TransferHelper.sol';\nimport \"../interface/IFund.sol\";\nimport \"../interface/IRisk.sol\";\nimport \"../interface/ISwapTrade.sol\";\nimport \"../interface/IMine.sol\";\nimport \"../interface/IPoolFactory.sol\";\n\ncontract TeemoPool is ERC20(\"TMOLP\", \"TMOLP\"), Ownable {\n    using SafeMath for uint256;\n\n    address public tokenAddr;\n    address public mainnetTokenAddr;\n    address public poolFactoryAddr;\n    address public quoteFactoryAddr;\n\n    mapping(string => address) public allModuleInfo;\n\n    address public fundAddr;\n    address public riskAddr;\n    address public swapTradeAddr;\n    address public mineAddr;\n\n    event OpenLimitSwap(bytes32 indexed orderID, uint256 indexed openPrice);\n    event CancelLimitSwap(uint256 indexed tokenAmount);\n    event TradeLimitSwap(address indexed success,uint256 indexed tokenAmount);\n    event OpenMarketSwap(bytes32 indexed orderID, string symbol, uint256 indexed openPrice);\n    event CloseMarketSwap(bytes32 indexed orderID, string symbol, address userAddr, uint256 indexed closePrice,uint256 indexed plFlag,uint256 plAmount);\n    event CloseLimitSwap(address indexed userAddr,uint256 indexed closePrice,uint256 indexed closeType,uint256 plFlag,uint256 plAmount);\n    event UpdateSwap(uint256 indexed pLimitPrice, uint256 indexed lLimitPrice);\n    event FailedCloseLimitSwap(bytes32[] indexed orderIDs);\n    event FailedTradeLimitSwap(bytes32[] indexed orderIDs);\n\n    event LPDeposit(address _userAddr,uint256 indexed lpAmount,uint256 indexed teemoTokenAmount);\n    event LPWithdraw(address _userAddr,uint256 indexed tokenAmount);\n    event StartMine(address _userAddr,uint256 indexed tokenAmount,uint256 indexed teemoTokenAmount);\n    event StopMine(address _userAddr,uint256 indexed tokenAmount,uint256 indexed teemoTokenAmount);\n\n    event SetOrderPrice(address indexed userAddr, bytes32 indexed _orderID, uint256 indexed _price);\n    event EmergencyWithdraw(address indexed tokenAddr, address indexed userAddr, uint256 indexed amount);\n\n    function initialize(address _tokenAddr, address _mainnetTokenAddr, address _poolFactoryAddr, address _quoteFactoryAddr) public onlyOwner{\n        tokenAddr = _tokenAddr;\n        mainnetTokenAddr = _mainnetTokenAddr;\n        poolFactoryAddr = _poolFactoryAddr;\n        quoteFactoryAddr = _quoteFactoryAddr;\n    }\n\n    function setModuleAddr(string memory _moduleName,address _moduleAddr) public onlyOwner {\n        allModuleInfo[_moduleName] = _moduleAddr;\n        if(keccak256(bytes(_moduleName)) == keccak256(bytes(\"FUND\"))){\n            fundAddr = getModuleAddr(_moduleName);\n        }else if(keccak256(bytes(_moduleName)) == keccak256(bytes(\"RISK\"))){\n            riskAddr = getModuleAddr(_moduleName);\n        }else if(keccak256(bytes(_moduleName)) == keccak256(bytes(\"SWAPTRADE\"))){\n            swapTradeAddr = getModuleAddr(_moduleName);\n        }else if(keccak256(bytes(_moduleName)) == keccak256(bytes(\"MINE\"))){\n            mineAddr = getModuleAddr(_moduleName);\n        }\n    }\n    function getModuleAddr(string memory _moduleName) public view returns (address moduleAddr) {\n        moduleAddr = allModuleInfo[_moduleName];\n        require(moduleAddr != address(0), \"getModuleAddr: module err\");\n    }\n    function getQuoteFactoryAddr() public view returns (address){\n        return quoteFactoryAddr;\n    }\n    // LP\n    function lpDeposit(uint256 _tokenAmount,bool mine) public {\n        TransferHelper.safeTransferFrom(tokenAddr,msg.sender,address(this), _tokenAmount);\n        //IERC20(tokenAddr).transferFrom(msg.sender, address(this), _tokenAmount);\n        uint256 lpAmount = IFund(fundAddr).deposit(msg.sender, _tokenAmount);\n        if(mine == false){\n            _mint(msg.sender,lpAmount);\n            emit LPDeposit(msg.sender, lpAmount, 0);\n        }else{\n            _mint(address(this),lpAmount);\n            (uint256 teemoTokenAmount,uint256 userTeemoTokenAmount) = IMine(mineAddr).deposit(msg.sender,lpAmount);\n            if(IPoolFactory(poolFactoryAddr).getStatus()){\n                IPoolFactory(poolFactoryAddr).mintToken(teemoTokenAmount);\n                IPoolFactory(poolFactoryAddr).safeTeemoTransfer(msg.sender,userTeemoTokenAmount);\n            }\n            IPoolFactory(poolFactoryAddr).updateBonus(0, msg.sender,userTeemoTokenAmount);\n            emit LPDeposit(msg.sender, lpAmount, userTeemoTokenAmount);\n        }    \n    }\n\n    // LP\n    function startMine(uint256 _lpAmount) public {\n        TransferHelper.safeTransferFrom(address(this),msg.sender,address(this), _lpAmount);\n        //transferFrom(msg.sender, address(this), _lpAmount);\n        (uint256 teemoTokenAmount, uint256 userTeemoTokenAmount) = IMine(mineAddr).deposit(msg.sender,_lpAmount);\n        if(IPoolFactory(poolFactoryAddr).getStatus()){\n            IPoolFactory(poolFactoryAddr).mintToken(teemoTokenAmount);\n            IPoolFactory(poolFactoryAddr).safeTeemoTransfer(msg.sender,userTeemoTokenAmount);\n        }\n        IPoolFactory(poolFactoryAddr).updateBonus(0, msg.sender,userTeemoTokenAmount);\n        emit StartMine(msg.sender, _lpAmount, teemoTokenAmount);\n    }\n\n    // LP\n    function lpWithdraw(uint256 _lpAmount) public {  \n        TransferHelper.safeTransferFrom(address(this),msg.sender,address(this),_lpAmount);\n        //transferFrom(msg.sender, address(this), _lpAmount);\n        uint256 tokenAmount = IFund(fundAddr).withdraw(msg.sender, _lpAmount);\n        _burn(address(this),_lpAmount);// lptoken\n        //IERC20(tokenAddr).transfer(msg.sender, tokenAmount); // token\n        TransferHelper.safeTransfer(tokenAddr,msg.sender,tokenAmount);\n        emit LPWithdraw(msg.sender, tokenAmount);\n    }\n\n    // LP\n    function stopMine(uint256 _lpAmount) public {\n        (uint256 teemoTokenAmount, uint256 userTeemoTokenAmount) = IMine(mineAddr).withdraw(msg.sender,_lpAmount); //lptokenTMO,lptoken\n        //transfer(msg.sender, _lpAmount);\n        TransferHelper.safeTransfer(address(this),msg.sender,_lpAmount);\n        if(IPoolFactory(poolFactoryAddr).getStatus()){\n            IPoolFactory(poolFactoryAddr).mintToken(teemoTokenAmount);\n            IPoolFactory(poolFactoryAddr).safeTeemoTransfer(msg.sender,userTeemoTokenAmount);\n        }\n        IPoolFactory(poolFactoryAddr).updateBonus(0, msg.sender,userTeemoTokenAmount);\n        emit StopMine(msg.sender, _lpAmount, userTeemoTokenAmount);\n    }\n\n    // \n    function openLimitSwap(string memory _symbol,uint256 _limitPrice,uint256 _tokenAmount,uint256 _lever,uint256 _bsFlag,uint256 _pLimitPrice,uint256 _lLimitPrice) public {\n        //IERC20(tokenAddr).transferFrom(msg.sender, address(this), _tokenAmount);\n        TransferHelper.safeTransferFrom(tokenAddr,msg.sender,address(this),_tokenAmount);\n        (bytes32 orderID, uint256 openPrice) = ISwapTrade(swapTradeAddr).openLimitSwap(msg.sender,_symbol,_limitPrice,_tokenAmount,_lever,_bsFlag,_pLimitPrice,_lLimitPrice);\n        emit OpenLimitSwap(orderID, openPrice);\n    }\n\n    // \n    function cancelLimitSwap(bytes32 _orderID) public {\n        uint256 tokenAmount = ISwapTrade(swapTradeAddr).cancelLimitSwap(msg.sender,_orderID);\n        //IERC20(tokenAddr).transferFrom(msg.sender, address(this), tokenAmount);\n        TransferHelper.safeTransferFrom(tokenAddr,msg.sender,address(this),tokenAmount);\n        emit CancelLimitSwap(tokenAmount);\n    }\n\n    // \n    function tradeLimitSwaps(bytes32[] memory _orderIDs) public {\n        (bool status, uint256 _blockIndex) = ISwapTrade(swapTradeAddr).isValidating(_orderIDs);\n        if(status){\n            for(uint256 i=0;i<_orderIDs.length;i++){\n                tradeLimitSwap(_orderIDs[i],_blockIndex);\n            }\n        }else{\n            emit FailedTradeLimitSwap(_orderIDs);\n        }\n    }\n    function tradeLimitSwap(bytes32 _orderID,uint256 _blockIndex) public {\n        (bool success,address userAddr,uint256 tokenAmount) = ISwapTrade(swapTradeAddr).tradeLimitSwap(_orderID,_blockIndex);\n        if(success){\n            emit TradeLimitSwap(userAddr,tokenAmount);\n        }\n    }        \n        \n    // \n    function openMarketSwap(string memory _symbol,uint256 _tokenAmount,uint256 _lever,uint256 _bsFlag,uint256 _pLimitPrice,uint256 _lLimitPrice, uint256 _maxPrice) public {\n        //IERC20(tokenAddr).transferFrom(msg.sender, address(this), _tokenAmount);\n        TransferHelper.safeTransferFrom(tokenAddr,msg.sender,address(this),_tokenAmount);\n        (bytes32 orderID, uint256 openPrice) = ISwapTrade(swapTradeAddr).openMarketSwap(msg.sender,_symbol,_tokenAmount,_lever,_bsFlag,_pLimitPrice,_lLimitPrice, _maxPrice);\n        emit OpenMarketSwap(orderID, _symbol,openPrice);\n    }\n\n    // \n    function closeMarketSwap(bytes32 _orderID) public {\n        (uint256 closePrice,uint256 plFlag,uint256 plAmount,uint256 tradeAmount, string memory symbol) = ISwapTrade(swapTradeAddr).closeMarketSwap(msg.sender, _orderID);\n        _closeSwap(msg.sender, plFlag, plAmount, tradeAmount);\n        emit CloseMarketSwap(_orderID, symbol, msg.sender, closePrice, plFlag, plAmount);\n    }\n\n    // ()\n    function closeLimitSwaps(bytes32[] memory _orderIDs) public {\n        (bool status, uint256 _blockIndex) = ISwapTrade(swapTradeAddr).isValidating(_orderIDs);\n        if(status) {\n            for(uint256 i=0;i<_orderIDs.length;i++){\n                closeLimitSwap(_orderIDs[i],_blockIndex);\n            }\n        }else{\n            emit FailedCloseLimitSwap(_orderIDs);\n        }\n    }\n    function closeLimitSwap(bytes32 _orderID,uint256 _blockIndex) public {\n        (bool success,address userAddr,uint256 closePrice,uint256 closeType,uint256 plFlag,uint256 plAmount,uint256 tradeAmount) = ISwapTrade(swapTradeAddr).closeLimitSwap(_orderID,_blockIndex);\n        if(success){\n            _closeSwap(userAddr, plFlag, plAmount, tradeAmount);\n            emit CloseLimitSwap(userAddr,closePrice,closeType,plFlag,plAmount);\n        }\n    }\n\n    // \n    function updateSwapByPrice(bytes32 _orderID,uint256 _pLimitPrice,uint256 _lLimitPrice) public {\n        (uint256 pLimitRate,uint256 lLimitRate) = ISwapTrade(swapTradeAddr).updateSwapByPrice(msg.sender, _orderID,_pLimitPrice,_lLimitPrice);\n        emit UpdateSwap(pLimitRate, lLimitRate);\n    }\n\n    // \n    function updateSwapByRate(bytes32 _orderID,uint256 _pLimitRate,uint256 _lLimitRate) public {\n        (uint256 pLimitPrice,uint256 lLimitPrice) = ISwapTrade(swapTradeAddr).updateSwapByRate(msg.sender, _orderID,_pLimitRate,_lLimitRate);\n        emit UpdateSwap(pLimitPrice, lLimitPrice);\n    }\n\n    // \n    function setOpenPrice(bytes32 _orderID) public onlyOwner returns(address userAddr, uint256 openPrice) {\n        (userAddr, openPrice) = ISwapTrade(swapTradeAddr).setOrderPrice(_orderID);\n        emit SetOrderPrice(userAddr, _orderID, openPrice);\n    } \n\n    // \n    function closeMarketByOwner(address _userAddr, bytes32 _orderID) public onlyOwner {\n        (uint256 closePrice,uint256 plFlag,uint256 plAmount,uint256 tradeAmount, string memory symbol) = ISwapTrade(swapTradeAddr).closeMarketSwap(_userAddr, _orderID);\n        _closeSwap(_userAddr, plFlag, plAmount, tradeAmount);\n        emit CloseMarketSwap(_orderID, symbol, _userAddr, closePrice, plFlag, plAmount);\n    }\n\n    function _closeSwap(address _userAddr, uint256 plFlag, uint256 plAmount, uint256 tradeAmount) internal {\n        IFund(fundAddr).tradePL(_userAddr, tradeAmount, plFlag, plAmount);\n        if(IPoolFactory(poolFactoryAddr).getStatus()){\n            if(plFlag == 1){// \n                TransferHelper.safeTransfer(tokenAddr,_userAddr,tradeAmount.add(plAmount));\n            }else{\n                TransferHelper.safeTransfer(tokenAddr,_userAddr,tradeAmount.sub(plAmount));\n            }\n        }else{\n            TransferHelper.safeTransfer(tokenAddr,_userAddr,tradeAmount);\n        }\n        IPoolFactory(poolFactoryAddr).updateBonus(1, _userAddr,plAmount);\n    }\n\n    function setValidBlocks(uint256 _valideBlocks) public onlyOwner {\n        ISwapTrade(swapTradeAddr).setValidBlocks(_valideBlocks);\n    }\n    \n    // \n    // function emergencyWithdraw() public onlyEmergency {\n    //     uint256 tokenAmount = IFund(fundAddr).emergencyWithdraw(msg.sender);\n    //     TransferHelper.safeTransfer(tokenAddr,msg.sender,tokenAmount);\n    //     // \n    //     IMine(mineAddr).emergencyWithdraw(msg.sender);\n    //     emit EmergencyWithdraw(tokenAddr, msg.sender, tokenAmount);\n    // }\n\n}\n",
  "sourcePath": "/Users/tong/Projects/drep-project/teemo-private/contracts/pool/TeemoPool.sol",
  "compiler": {
    "name": "solc",
    "version": "0.6.12+commit.27d51765.Emscripten.clang"
  },
  "schemaVersion": "3.3.2",
  "updatedAt": "2021-01-20T10:30:15.366Z",
  "devdoc": {
    "kind": "dev",
    "methods": {
      "allowance(address,address)": {
        "details": "See {IERC20-allowance}."
      },
      "approve(address,uint256)": {
        "details": "See {IERC20-approve}. Requirements: - `spender` cannot be the zero address."
      },
      "balanceOf(address)": {
        "details": "See {IERC20-balanceOf}."
      },
      "decimals()": {
        "details": "Returns the number of decimals used to get its user representation. For example, if `decimals` equals `2`, a balance of `505` tokens should be displayed to a user as `5,05` (`505 / 10 ** 2`). Tokens usually opt for a value of 18, imitating the relationship between Ether and Wei. This is the value {ERC20} uses, unless {_setupDecimals} is called. NOTE: This information is only used for _display_ purposes: it in no way affects any of the arithmetic of the contract, including {IERC20-balanceOf} and {IERC20-transfer}."
      },
      "decreaseAllowance(address,uint256)": {
        "details": "Atomically decreases the allowance granted to `spender` by the caller. This is an alternative to {approve} that can be used as a mitigation for problems described in {IERC20-approve}. Emits an {Approval} event indicating the updated allowance. Requirements: - `spender` cannot be the zero address. - `spender` must have allowance for the caller of at least `subtractedValue`."
      },
      "increaseAllowance(address,uint256)": {
        "details": "Atomically increases the allowance granted to `spender` by the caller. This is an alternative to {approve} that can be used as a mitigation for problems described in {IERC20-approve}. Emits an {Approval} event indicating the updated allowance. Requirements: - `spender` cannot be the zero address."
      },
      "name()": {
        "details": "Returns the name of the token."
      },
      "owner()": {
        "details": "Returns the address of the current owner."
      },
      "renounceOwnership()": {
        "details": "Leaves the contract without owner. It will not be possible to call `onlyOwner` functions anymore. Can only be called by the current owner. NOTE: Renouncing ownership will leave the contract without an owner, thereby removing any functionality that is only available to the owner."
      },
      "symbol()": {
        "details": "Returns the symbol of the token, usually a shorter version of the name."
      },
      "totalSupply()": {
        "details": "See {IERC20-totalSupply}."
      },
      "transfer(address,uint256)": {
        "details": "See {IERC20-transfer}. Requirements: - `recipient` cannot be the zero address. - the caller must have a balance of at least `amount`."
      },
      "transferFrom(address,address,uint256)": {
        "details": "See {IERC20-transferFrom}. Emits an {Approval} event indicating the updated allowance. This is not required by the EIP. See the note at the beginning of {ERC20}; Requirements: - `sender` and `recipient` cannot be the zero address. - `sender` must have a balance of at least `amount`. - the caller must have allowance for ``sender``'s tokens of at least `amount`."
      },
      "transferOwnership(address)": {
        "details": "Transfers ownership of the contract to a new account (`newOwner`). Can only be called by the current owner."
      }
    },
    "version": 1
  },
  "userdoc": {
    "kind": "user",
    "methods": {},
    "version": 1
  }
}