{
  "contractName": "TeemoWPool",
  "abi": [
    {
      "anonymous": false,
      "inputs": [
        {
          "indexed": true,
          "internalType": "address",
          "name": "owner",
          "type": "address"
        },
        {
          "indexed": true,
          "internalType": "address",
          "name": "spender",
          "type": "address"
        },
        {
          "indexed": false,
          "internalType": "uint256",
          "name": "value",
          "type": "uint256"
        }
      ],
      "name": "Approval",
      "type": "event"
    },
    {
      "anonymous": false,
      "inputs": [
        {
          "indexed": true,
          "internalType": "uint256",
          "name": "tokenAmount",
          "type": "uint256"
        }
      ],
      "name": "CancelLimitSwap",
      "type": "event"
    },
    {
      "anonymous": false,
      "inputs": [
        {
          "indexed": true,
          "internalType": "address",
          "name": "userAddr",
          "type": "address"
        },
        {
          "indexed": true,
          "internalType": "uint256",
          "name": "closePrice",
          "type": "uint256"
        },
        {
          "indexed": true,
          "internalType": "uint256",
          "name": "closeType",
          "type": "uint256"
        },
        {
          "indexed": false,
          "internalType": "uint256",
          "name": "plFlag",
          "type": "uint256"
        },
        {
          "indexed": false,
          "internalType": "uint256",
          "name": "plAmount",
          "type": "uint256"
        }
      ],
      "name": "CloseLimitSwap",
      "type": "event"
    },
    {
      "anonymous": false,
      "inputs": [
        {
          "indexed": true,
          "internalType": "bytes32",
          "name": "orderID",
          "type": "bytes32"
        },
        {
          "indexed": false,
          "internalType": "string",
          "name": "symbol",
          "type": "string"
        },
        {
          "indexed": false,
          "internalType": "address",
          "name": "userAddr",
          "type": "address"
        },
        {
          "indexed": true,
          "internalType": "uint256",
          "name": "closePrice",
          "type": "uint256"
        },
        {
          "indexed": true,
          "internalType": "uint256",
          "name": "plFlag",
          "type": "uint256"
        },
        {
          "indexed": false,
          "internalType": "uint256",
          "name": "plAmount",
          "type": "uint256"
        },
        {
          "indexed": false,
          "internalType": "uint256",
          "name": "time",
          "type": "uint256"
        }
      ],
      "name": "CloseMarketSwap",
      "type": "event"
    },
    {
      "anonymous": false,
      "inputs": [
        {
          "indexed": true,
          "internalType": "address",
          "name": "tokenAddr",
          "type": "address"
        },
        {
          "indexed": true,
          "internalType": "address",
          "name": "userAddr",
          "type": "address"
        },
        {
          "indexed": true,
          "internalType": "uint256",
          "name": "amount",
          "type": "uint256"
        }
      ],
      "name": "EmergencyWithdraw",
      "type": "event"
    },
    {
      "anonymous": false,
      "inputs": [
        {
          "indexed": true,
          "internalType": "bytes32[]",
          "name": "orderIDs",
          "type": "bytes32[]"
        }
      ],
      "name": "FailedCloseLimitSwap",
      "type": "event"
    },
    {
      "anonymous": false,
      "inputs": [
        {
          "indexed": true,
          "internalType": "bytes32[]",
          "name": "orderIDs",
          "type": "bytes32[]"
        }
      ],
      "name": "FailedTradeLimitSwap",
      "type": "event"
    },
    {
      "anonymous": false,
      "inputs": [
        {
          "indexed": false,
          "internalType": "address",
          "name": "_userAddr",
          "type": "address"
        },
        {
          "indexed": true,
          "internalType": "uint256",
          "name": "lpAmount",
          "type": "uint256"
        },
        {
          "indexed": true,
          "internalType": "uint256",
          "name": "teemoTokenAmount",
          "type": "uint256"
        }
      ],
      "name": "LPDeposit",
      "type": "event"
    },
    {
      "anonymous": false,
      "inputs": [
        {
          "indexed": false,
          "internalType": "address",
          "name": "_userAddr",
          "type": "address"
        },
        {
          "indexed": true,
          "internalType": "uint256",
          "name": "tokenAmount",
          "type": "uint256"
        }
      ],
      "name": "LPWithdraw",
      "type": "event"
    },
    {
      "anonymous": false,
      "inputs": [
        {
          "indexed": true,
          "internalType": "bytes32",
          "name": "orderID",
          "type": "bytes32"
        },
        {
          "indexed": true,
          "internalType": "uint256",
          "name": "openPrice",
          "type": "uint256"
        }
      ],
      "name": "OpenLimitSwap",
      "type": "event"
    },
    {
      "anonymous": false,
      "inputs": [
        {
          "indexed": true,
          "internalType": "bytes32",
          "name": "orderID",
          "type": "bytes32"
        },
        {
          "indexed": false,
          "internalType": "string",
          "name": "symbol",
          "type": "string"
        },
        {
          "indexed": true,
          "internalType": "uint256",
          "name": "openPrice",
          "type": "uint256"
        },
        {
          "indexed": false,
          "internalType": "uint256",
          "name": "time",
          "type": "uint256"
        }
      ],
      "name": "OpenMarketSwap",
      "type": "event"
    },
    {
      "anonymous": false,
      "inputs": [
        {
          "indexed": true,
          "internalType": "address",
          "name": "previousOwner",
          "type": "address"
        },
        {
          "indexed": true,
          "internalType": "address",
          "name": "newOwner",
          "type": "address"
        }
      ],
      "name": "OwnershipTransferred",
      "type": "event"
    },
    {
      "anonymous": false,
      "inputs": [
        {
          "indexed": true,
          "internalType": "address",
          "name": "userAddr",
          "type": "address"
        },
        {
          "indexed": true,
          "internalType": "bytes32",
          "name": "_orderID",
          "type": "bytes32"
        },
        {
          "indexed": true,
          "internalType": "uint256",
          "name": "_price",
          "type": "uint256"
        },
        {
          "indexed": false,
          "internalType": "uint256",
          "name": "time",
          "type": "uint256"
        }
      ],
      "name": "SetOrderPrice",
      "type": "event"
    },
    {
      "anonymous": false,
      "inputs": [
        {
          "indexed": false,
          "internalType": "address",
          "name": "_userAddr",
          "type": "address"
        },
        {
          "indexed": true,
          "internalType": "uint256",
          "name": "tokenAmount",
          "type": "uint256"
        },
        {
          "indexed": true,
          "internalType": "uint256",
          "name": "teemoTokenAmount",
          "type": "uint256"
        }
      ],
      "name": "StartMine",
      "type": "event"
    },
    {
      "anonymous": false,
      "inputs": [
        {
          "indexed": false,
          "internalType": "address",
          "name": "_userAddr",
          "type": "address"
        },
        {
          "indexed": true,
          "internalType": "uint256",
          "name": "tokenAmount",
          "type": "uint256"
        },
        {
          "indexed": true,
          "internalType": "uint256",
          "name": "teemoTokenAmount",
          "type": "uint256"
        }
      ],
      "name": "StopMine",
      "type": "event"
    },
    {
      "anonymous": false,
      "inputs": [
        {
          "indexed": true,
          "internalType": "address",
          "name": "success",
          "type": "address"
        },
        {
          "indexed": true,
          "internalType": "uint256",
          "name": "tokenAmount",
          "type": "uint256"
        },
        {
          "indexed": false,
          "internalType": "uint256",
          "name": "time",
          "type": "uint256"
        }
      ],
      "name": "TradeLimitSwap",
      "type": "event"
    },
    {
      "anonymous": false,
      "inputs": [
        {
          "indexed": true,
          "internalType": "address",
          "name": "from",
          "type": "address"
        },
        {
          "indexed": true,
          "internalType": "address",
          "name": "to",
          "type": "address"
        },
        {
          "indexed": false,
          "internalType": "uint256",
          "name": "value",
          "type": "uint256"
        }
      ],
      "name": "Transfer",
      "type": "event"
    },
    {
      "anonymous": false,
      "inputs": [
        {
          "indexed": true,
          "internalType": "uint256",
          "name": "pLimitPrice",
          "type": "uint256"
        },
        {
          "indexed": true,
          "internalType": "uint256",
          "name": "lLimitPrice",
          "type": "uint256"
        }
      ],
      "name": "UpdateSwap",
      "type": "event"
    },
    {
      "inputs": [
        {
          "internalType": "address",
          "name": "owner",
          "type": "address"
        },
        {
          "internalType": "address",
          "name": "spender",
          "type": "address"
        }
      ],
      "name": "allowance",
      "outputs": [
        {
          "internalType": "uint256",
          "name": "",
          "type": "uint256"
        }
      ],
      "stateMutability": "view",
      "type": "function"
    },
    {
      "inputs": [
        {
          "internalType": "address",
          "name": "spender",
          "type": "address"
        },
        {
          "internalType": "uint256",
          "name": "amount",
          "type": "uint256"
        }
      ],
      "name": "approve",
      "outputs": [
        {
          "internalType": "bool",
          "name": "",
          "type": "bool"
        }
      ],
      "stateMutability": "nonpayable",
      "type": "function"
    },
    {
      "inputs": [
        {
          "internalType": "address",
          "name": "account",
          "type": "address"
        }
      ],
      "name": "balanceOf",
      "outputs": [
        {
          "internalType": "uint256",
          "name": "",
          "type": "uint256"
        }
      ],
      "stateMutability": "view",
      "type": "function"
    },
    {
      "inputs": [],
      "name": "decimals",
      "outputs": [
        {
          "internalType": "uint8",
          "name": "",
          "type": "uint8"
        }
      ],
      "stateMutability": "view",
      "type": "function"
    },
    {
      "inputs": [
        {
          "internalType": "address",
          "name": "spender",
          "type": "address"
        },
        {
          "internalType": "uint256",
          "name": "subtractedValue",
          "type": "uint256"
        }
      ],
      "name": "decreaseAllowance",
      "outputs": [
        {
          "internalType": "bool",
          "name": "",
          "type": "bool"
        }
      ],
      "stateMutability": "nonpayable",
      "type": "function"
    },
    {
      "inputs": [
        {
          "internalType": "address",
          "name": "spender",
          "type": "address"
        },
        {
          "internalType": "uint256",
          "name": "addedValue",
          "type": "uint256"
        }
      ],
      "name": "increaseAllowance",
      "outputs": [
        {
          "internalType": "bool",
          "name": "",
          "type": "bool"
        }
      ],
      "stateMutability": "nonpayable",
      "type": "function"
    },
    {
      "inputs": [],
      "name": "mainnetTokenAddr",
      "outputs": [
        {
          "internalType": "address",
          "name": "",
          "type": "address"
        }
      ],
      "stateMutability": "view",
      "type": "function"
    },
    {
      "inputs": [],
      "name": "name",
      "outputs": [
        {
          "internalType": "string",
          "name": "",
          "type": "string"
        }
      ],
      "stateMutability": "view",
      "type": "function"
    },
    {
      "inputs": [],
      "name": "owner",
      "outputs": [
        {
          "internalType": "address",
          "name": "",
          "type": "address"
        }
      ],
      "stateMutability": "view",
      "type": "function"
    },
    {
      "inputs": [],
      "name": "poolFactoryAddr",
      "outputs": [
        {
          "internalType": "address",
          "name": "",
          "type": "address"
        }
      ],
      "stateMutability": "view",
      "type": "function"
    },
    {
      "inputs": [],
      "name": "quoteFactoryAddr",
      "outputs": [
        {
          "internalType": "address",
          "name": "",
          "type": "address"
        }
      ],
      "stateMutability": "view",
      "type": "function"
    },
    {
      "inputs": [],
      "name": "renounceOwnership",
      "outputs": [],
      "stateMutability": "nonpayable",
      "type": "function"
    },
    {
      "inputs": [],
      "name": "symbol",
      "outputs": [
        {
          "internalType": "string",
          "name": "",
          "type": "string"
        }
      ],
      "stateMutability": "view",
      "type": "function"
    },
    {
      "inputs": [],
      "name": "tokenAddr",
      "outputs": [
        {
          "internalType": "address",
          "name": "",
          "type": "address"
        }
      ],
      "stateMutability": "view",
      "type": "function"
    },
    {
      "inputs": [],
      "name": "totalSupply",
      "outputs": [
        {
          "internalType": "uint256",
          "name": "",
          "type": "uint256"
        }
      ],
      "stateMutability": "view",
      "type": "function"
    },
    {
      "inputs": [
        {
          "internalType": "address",
          "name": "recipient",
          "type": "address"
        },
        {
          "internalType": "uint256",
          "name": "amount",
          "type": "uint256"
        }
      ],
      "name": "transfer",
      "outputs": [
        {
          "internalType": "bool",
          "name": "",
          "type": "bool"
        }
      ],
      "stateMutability": "nonpayable",
      "type": "function"
    },
    {
      "inputs": [
        {
          "internalType": "address",
          "name": "sender",
          "type": "address"
        },
        {
          "internalType": "address",
          "name": "recipient",
          "type": "address"
        },
        {
          "internalType": "uint256",
          "name": "amount",
          "type": "uint256"
        }
      ],
      "name": "transferFrom",
      "outputs": [
        {
          "internalType": "bool",
          "name": "",
          "type": "bool"
        }
      ],
      "stateMutability": "nonpayable",
      "type": "function"
    },
    {
      "inputs": [
        {
          "internalType": "address",
          "name": "newOwner",
          "type": "address"
        }
      ],
      "name": "transferOwnership",
      "outputs": [],
      "stateMutability": "nonpayable",
      "type": "function"
    },
    {
      "inputs": [
        {
          "internalType": "address",
          "name": "_poolFactoryAddr",
          "type": "address"
        },
        {
          "internalType": "address",
          "name": "_quoteFactoryAddr",
          "type": "address"
        }
      ],
      "name": "initialize",
      "outputs": [],
      "stateMutability": "nonpayable",
      "type": "function"
    },
    {
      "inputs": [
        {
          "internalType": "string",
          "name": "_moduleName",
          "type": "string"
        }
      ],
      "name": "getModuleAddr",
      "outputs": [
        {
          "internalType": "address",
          "name": "moduleAddr",
          "type": "address"
        }
      ],
      "stateMutability": "view",
      "type": "function"
    },
    {
      "inputs": [],
      "name": "getQuoteFactoryAddr",
      "outputs": [
        {
          "internalType": "address",
          "name": "",
          "type": "address"
        }
      ],
      "stateMutability": "view",
      "type": "function"
    },
    {
      "inputs": [
        {
          "internalType": "bool",
          "name": "mine",
          "type": "bool"
        }
      ],
      "name": "lpDeposit",
      "outputs": [],
      "stateMutability": "payable",
      "type": "function"
    },
    {
      "inputs": [
        {
          "internalType": "uint256",
          "name": "_lpAmount",
          "type": "uint256"
        }
      ],
      "name": "startMine",
      "outputs": [],
      "stateMutability": "nonpayable",
      "type": "function"
    },
    {
      "inputs": [
        {
          "internalType": "uint256",
          "name": "_lpAmount",
          "type": "uint256"
        }
      ],
      "name": "lpWithdraw",
      "outputs": [],
      "stateMutability": "nonpayable",
      "type": "function"
    },
    {
      "inputs": [
        {
          "internalType": "uint256",
          "name": "_lpAmount",
          "type": "uint256"
        }
      ],
      "name": "stopMine",
      "outputs": [],
      "stateMutability": "nonpayable",
      "type": "function"
    },
    {
      "inputs": [
        {
          "internalType": "string",
          "name": "_symbol",
          "type": "string"
        },
        {
          "internalType": "uint256",
          "name": "_limitPrice",
          "type": "uint256"
        },
        {
          "internalType": "uint256",
          "name": "_lever",
          "type": "uint256"
        },
        {
          "internalType": "uint256",
          "name": "_bsFlag",
          "type": "uint256"
        },
        {
          "internalType": "uint256",
          "name": "_pLimitPrice",
          "type": "uint256"
        },
        {
          "internalType": "uint256",
          "name": "_lLimitPrice",
          "type": "uint256"
        }
      ],
      "name": "openLimitSwap",
      "outputs": [],
      "stateMutability": "payable",
      "type": "function"
    },
    {
      "inputs": [
        {
          "internalType": "bytes32",
          "name": "_orderID",
          "type": "bytes32"
        }
      ],
      "name": "cancelLimitSwap",
      "outputs": [],
      "stateMutability": "nonpayable",
      "type": "function"
    },
    {
      "inputs": [
        {
          "internalType": "bytes32[]",
          "name": "_orderIDs",
          "type": "bytes32[]"
        }
      ],
      "name": "tradeLimitSwaps",
      "outputs": [],
      "stateMutability": "nonpayable",
      "type": "function"
    },
    {
      "inputs": [
        {
          "internalType": "bytes32",
          "name": "_orderID",
          "type": "bytes32"
        },
        {
          "internalType": "uint256",
          "name": "_blockIndex",
          "type": "uint256"
        }
      ],
      "name": "tradeLimitSwap",
      "outputs": [],
      "stateMutability": "nonpayable",
      "type": "function"
    },
    {
      "inputs": [
        {
          "internalType": "string",
          "name": "_symbol",
          "type": "string"
        },
        {
          "internalType": "uint256",
          "name": "_lever",
          "type": "uint256"
        },
        {
          "internalType": "uint256",
          "name": "_bsFlag",
          "type": "uint256"
        },
        {
          "internalType": "uint256",
          "name": "_pLimitPrice",
          "type": "uint256"
        },
        {
          "internalType": "uint256",
          "name": "_lLimitPrice",
          "type": "uint256"
        },
        {
          "internalType": "uint256",
          "name": "_maxPrice",
          "type": "uint256"
        }
      ],
      "name": "openMarketSwap",
      "outputs": [],
      "stateMutability": "payable",
      "type": "function"
    },
    {
      "inputs": [
        {
          "internalType": "bytes32",
          "name": "_orderID",
          "type": "bytes32"
        }
      ],
      "name": "closeMarketSwap",
      "outputs": [],
      "stateMutability": "nonpayable",
      "type": "function"
    },
    {
      "inputs": [
        {
          "internalType": "bytes32[]",
          "name": "_orderIDs",
          "type": "bytes32[]"
        }
      ],
      "name": "closeLimitSwaps",
      "outputs": [],
      "stateMutability": "nonpayable",
      "type": "function"
    },
    {
      "inputs": [
        {
          "internalType": "bytes32",
          "name": "_orderID",
          "type": "bytes32"
        },
        {
          "internalType": "uint256",
          "name": "_blockIndex",
          "type": "uint256"
        }
      ],
      "name": "closeLimitSwap",
      "outputs": [],
      "stateMutability": "nonpayable",
      "type": "function"
    },
    {
      "inputs": [
        {
          "internalType": "bytes32",
          "name": "_orderID",
          "type": "bytes32"
        },
        {
          "internalType": "uint256",
          "name": "_pLimitPrice",
          "type": "uint256"
        },
        {
          "internalType": "uint256",
          "name": "_lLimitPrice",
          "type": "uint256"
        }
      ],
      "name": "updateSwapByPrice",
      "outputs": [],
      "stateMutability": "nonpayable",
      "type": "function"
    },
    {
      "inputs": [
        {
          "internalType": "bytes32",
          "name": "_orderID",
          "type": "bytes32"
        },
        {
          "internalType": "uint256",
          "name": "_pLimitRate",
          "type": "uint256"
        },
        {
          "internalType": "uint256",
          "name": "_lLimitRate",
          "type": "uint256"
        }
      ],
      "name": "updateSwapByRate",
      "outputs": [],
      "stateMutability": "nonpayable",
      "type": "function"
    },
    {
      "inputs": [
        {
          "internalType": "bytes32",
          "name": "_orderID",
          "type": "bytes32"
        }
      ],
      "name": "setOpenPrice",
      "outputs": [],
      "stateMutability": "nonpayable",
      "type": "function"
    },
    {
      "inputs": [
        {
          "internalType": "uint256",
          "name": "_valideBlocks",
          "type": "uint256"
        }
      ],
      "name": "setValidBlocks",
      "outputs": [],
      "stateMutability": "nonpayable",
      "type": "function"
    },
    {
      "inputs": [
        {
          "internalType": "string",
          "name": "_symbol",
          "type": "string"
        },
        {
          "internalType": "uint256",
          "name": "_price",
          "type": "uint256"
        }
      ],
      "name": "updateTicker",
      "outputs": [],
      "stateMutability": "nonpayable",
      "type": "function"
    },
    {
      "inputs": [
        {
          "internalType": "address",
          "name": "_tokenAddr",
          "type": "address"
        },
        {
          "internalType": "address",
          "name": "_to",
          "type": "address"
        },
        {
          "internalType": "uint256",
          "name": "_amount",
          "type": "uint256"
        }
      ],
      "name": "emergencyWithdraw",
      "outputs": [],
      "stateMutability": "nonpayable",
      "type": "function"
    },
    {
      "inputs": [
        {
          "internalType": "address",
          "name": "_userAddr",
          "type": "address"
        },
        {
          "internalType": "bytes32",
          "name": "_orderID",
          "type": "bytes32"
        }
      ],
      "name": "closeMarketByOwner",
      "outputs": [],
      "stateMutability": "nonpayable",
      "type": "function"
    }
  ],
  "bytecode": "0x60806040526000600660006101000a81548173ffffffffffffffffffffffffffffffffffffffff021916908373ffffffffffffffffffffffffffffffffffffffff1602179055506000600760006101000a81548173ffffffffffffffffffffffffffffffffffffffff021916908373ffffffffffffffffffffffffffffffffffffffff1602179055503480156200009557600080fd5b506040518060400160405280600581526020017f544d4f4c500000000000000000000000000000000000000000000000000000008152506040518060400160405280600581526020017f544d4f4c5000000000000000000000000000000000000000000000000000000081525081600390805190602001906200011a92919062000211565b5080600490805190602001906200013392919062000211565b506012600560006101000a81548160ff021916908360ff16021790555050506000620001646200020960201b60201c565b905080600560016101000a81548173ffffffffffffffffffffffffffffffffffffffff021916908373ffffffffffffffffffffffffffffffffffffffff1602179055508073ffffffffffffffffffffffffffffffffffffffff16600073ffffffffffffffffffffffffffffffffffffffff167f8be0079c531659141344cd1fd0a4f28419497f9722a3daafe3b4186f6b6457e060405160405180910390a350620002b7565b600033905090565b828054600181600116156101000203166002900490600052602060002090601f016020900481019282601f106200025457805160ff191683800117855562000285565b8280016001018555821562000285579182015b828111156200028457825182559160200191906001019062000267565b5b50905062000294919062000298565b5090565b5b80821115620002b357600081600090555060010162000299565b5090565b615a0a80620002c76000396000f3fe60806040526004361061023b5760003560e01c80638268b8dd1161012e578063b06b9fbe116100ab578063e63ea4081161006f578063e63ea40814610870578063eadb2bdd14610899578063f2fde38b146108c2578063f46e5bdd146108eb578063f696ec79146109075761023b565b8063b06b9fbe14610779578063c554ebcb146107a4578063cee87f5f146107e1578063dc58bd721461080a578063dd62ed3e146108335761023b565b80639aa9e7d2116100f25780639aa9e7d2146106825780639ff24296146106ab578063a457c2d7146106d4578063a9059cbb14610711578063afcfb11a1461074e5761023b565b80638268b8dd146105af57806385006ba2146105da5780638da5cb5b146106035780638edc2e371461062e57806395d89b41146106575761023b565b806339fe0e7e116101bc57806363d24aa71161018057806363d24aa7146104e057806369cd5595146105095780636f8d2d841461053257806370a082311461055b578063715018a6146105985761023b565b806339fe0e7e1461041c5780633d3f251714610438578063485cc9551461046157806358aafa3d1461048a5780635fbe4d1d146104b55761023b565b806322dbfdca1161020357806322dbfdca1461032557806323b872dd1461034e578063252f6adf1461038b578063313ce567146103b457806339509351146103df5761023b565b80630282ad671461024057806306fdde0314610269578063095ea7b31461029457806309a5d5bf146102d157806318160ddd146102fa575b600080fd5b34801561024c57600080fd5b50610267600480360381019061026291906147ce565b610923565b005b34801561027557600080fd5b5061027e610a89565b60405161028b91906153bc565b60405180910390f35b3480156102a057600080fd5b506102bb60048036038101906102b69190614384565b610b2b565b6040516102c891906152b8565b60405180910390f35b3480156102dd57600080fd5b506102f860048036038101906102f391906148c3565b610b49565b005b34801561030657600080fd5b5061030f610c73565b60405161031c9190615646565b60405180910390f35b34801561033157600080fd5b5061034c600480360381019061034791906146c6565b610c7d565b005b34801561035a57600080fd5b50610375600480360381019061037091906142f9565b610de1565b60405161038291906152b8565b60405180910390f35b34801561039757600080fd5b506103b260048036038101906103ad9190614348565b610eba565b005b3480156103c057600080fd5b506103c9610f5f565b6040516103d6919061568a565b60405180910390f35b3480156103eb57600080fd5b5061040660048036038101906104019190614384565b610f76565b60405161041391906152b8565b60405180910390f35b61043660048036038101906104319190614490565b611029565b005b34801561044457600080fd5b5061045f600480360381019061045a91906146c6565b6111a6565b005b34801561046d57600080fd5b50610488600480360381019061048391906142bd565b6112f9565b005b34801561049657600080fd5b5061049f611416565b6040516104ac919061508b565b60405180910390f35b3480156104c157600080fd5b506104ca611440565b6040516104d7919061508b565b60405180910390f35b3480156104ec57600080fd5b506105076004803603810190610502919061444f565b611466565b005b34801561051557600080fd5b50610530600480360381019061052b919061469d565b6115bc565b005b34801561053e57600080fd5b506105596004803603810190610554919061469d565b6115c9565b005b34801561056757600080fd5b50610582600480360381019061057d9190614242565b6117a5565b60405161058f9190615646565b60405180910390f35b3480156105a457600080fd5b506105ad6117ed565b005b3480156105bb57600080fd5b506105c4611945565b6040516105d1919061508b565b60405180910390f35b3480156105e657600080fd5b5061060160048036038101906105fc919061473e565b61196b565b005b34801561060f57600080fd5b50610618611a74565b604051610625919061508b565b60405180910390f35b34801561063a57600080fd5b506106556004803603810190610650919061444f565b611a9e565b005b34801561066357600080fd5b5061066c611bf4565b60405161067991906153bc565b60405180910390f35b34801561068e57600080fd5b506106a960048036038101906106a491906148c3565b611c96565b005b3480156106b757600080fd5b506106d260048036038101906106cd91906148c3565b611cee565b005b3480156106e057600080fd5b506106fb60048036038101906106f69190614384565b611d47565b60405161070891906152b8565b60405180910390f35b34801561071d57600080fd5b5061073860048036038101906107339190614384565b611e14565b60405161074591906152b8565b60405180910390f35b34801561075a57600080fd5b50610763611e32565b604051610770919061508b565b60405180910390f35b34801561078557600080fd5b5061078e611e58565b60405161079b919061508b565b60405180910390f35b3480156107b057600080fd5b506107cb60048036038101906107c6919061478d565b611e7e565b6040516107d8919061508b565b60405180910390f35b3480156107ed57600080fd5b506108086004803603810190610803919061469d565b611f34565b005b34801561081657600080fd5b50610831600480360381019061082c919061473e565b61207a565b005b34801561083f57600080fd5b5061085a600480360381019061085591906142bd565b612183565b6040516108679190615646565b60405180910390f35b34801561087c57600080fd5b50610897600480360381019061089291906142f9565b61220a565b005b3480156108a557600080fd5b506108c060048036038101906108bb91906148c3565b6122b1565b005b3480156108ce57600080fd5b506108e960048036038101906108e49190614242565b6123f3565b005b61090560048036038101906109009190614822565b6125ba565b005b610921600480360381019061091c9190614822565b6127a5565b005b61092b61296b565b73ffffffffffffffffffffffffffffffffffffffff16600560019054906101000a900473ffffffffffffffffffffffffffffffffffffffff1673ffffffffffffffffffffffffffffffffffffffff16146109ba576040517f08c379a00000000000000000000000000000000000000000000000000000000081526004016109b190615566565b60405180910390fd5b6109f86040518060400160405280600481526020017f5249534b00000000000000000000000000000000000000000000000000000000815250611e7e565b73ffffffffffffffffffffffffffffffffffffffff1663da2b0dc183836040518363ffffffff1660e01b8152600401610a32929190615476565b602060405180830381600087803b158015610a4c57600080fd5b505af1158015610a60573d6000803e3d6000fd5b505050506040513d601f19601f82011682018060405250810190610a8491906144b9565b505050565b606060038054600181600116156101000203166002900480601f016020809104026020016040519081016040528092919081815260200182805460018160011615610100020316600290048015610b215780601f10610af657610100808354040283529160200191610b21565b820191906000526020600020905b815481529060010190602001808311610b0457829003601f168201915b5050505050905090565b6000610b3f610b3861296b565b8484612973565b6001905092915050565b610b5530333084612b3e565b6000610b956040518060400160405280600481526020017f46554e4400000000000000000000000000000000000000000000000000000000815250611e7e565b73ffffffffffffffffffffffffffffffffffffffff1663f3fef3a333846040518363ffffffff1660e01b8152600401610bcf9291906151b4565b602060405180830381600087803b158015610be957600080fd5b505af1158015610bfd573d6000803e3d6000fd5b505050506040513d601f19601f82011682018060405250810190610c2191906148ec565b9050610c2d3083612c78565b610c373382612e26565b807fec6b5f6209de8a40ef6115a103a7312d2e22f043a81da1965a5038c95753742e33604051610c6791906150a6565b60405180910390a25050565b6000600254905090565b6000806000806000806000806060610cc96040518060400160405280600981526020017f5357415054524144450000000000000000000000000000000000000000000000815250611e7e565b73ffffffffffffffffffffffffffffffffffffffff166322dbfdca8c8c6040518363ffffffff1660e01b8152600401610d039291906152ee565b600060405180830381600087803b158015610d1d57600080fd5b505af1158015610d31573d6000803e3d6000fd5b505050506040513d6000823e3d601f19601f82011682018060405250810190610d5a9190614583565b9850985098509850985098509850985098508815610dd457610d818782868b898888612f24565b85878973ffffffffffffffffffffffffffffffffffffffff167f1631bac4756e0c03f6c433a46f1eab5c1caf99854cc351c23dc3eec9fc5d26d08887604051610dcb929190615661565b60405180910390a45b5050505050505050505050565b6000610dee848484613187565b610eaf84610dfa61296b565b610eaa8560405180606001604052806028815260200161598860289139600160008b73ffffffffffffffffffffffffffffffffffffffff1673ffffffffffffffffffffffffffffffffffffffff1681526020019081526020016000206000610e6061296b565b73ffffffffffffffffffffffffffffffffffffffff1673ffffffffffffffffffffffffffffffffffffffff1681526020019081526020016000205461341c9092919063ffffffff16565b612973565b600190509392505050565b610ec261296b565b73ffffffffffffffffffffffffffffffffffffffff16600560019054906101000a900473ffffffffffffffffffffffffffffffffffffffff1673ffffffffffffffffffffffffffffffffffffffff1614610f51576040517f08c379a0000000000000000000000000000000000000000000000000000000008152600401610f4890615566565b60405180910390fd5b610f5b8282613477565b5050565b6000600560009054906101000a900460ff16905090565b600061101f610f8361296b565b8461101a8560016000610f9461296b565b73ffffffffffffffffffffffffffffffffffffffff1673ffffffffffffffffffffffffffffffffffffffff16815260200190815260200160002060008973ffffffffffffffffffffffffffffffffffffffff1673ffffffffffffffffffffffffffffffffffffffff168152602001908152602001600020546135b590919063ffffffff16565b612973565b6001905092915050565b60006110696040518060400160405280600481526020017f46554e4400000000000000000000000000000000000000000000000000000000815250611e7e565b73ffffffffffffffffffffffffffffffffffffffff166347e7ef2433346040518363ffffffff1660e01b81526004016110a39291906151b4565b602060405180830381600087803b1580156110bd57600080fd5b505af11580156110d1573d6000803e3d6000fd5b505050506040513d601f19601f820116820180604052508101906110f591906148ec565b905060001515821515141561114d5761110e338261360a565b6000817f991d73f5e17d46d419b8d00ea1ba02099a33278bef6ba16f591c3869fc6658423360405161114091906150a6565b60405180910390a36111a2565b611157308261360a565b60006111656001338461379e565b905080827f991d73f5e17d46d419b8d00ea1ba02099a33278bef6ba16f591c3869fc6658423360405161119891906150a6565b60405180910390a3505b5050565b600080600080606060006111ee6040518060400160405280600981526020017f5357415054524144450000000000000000000000000000000000000000000000815250611e7e565b73ffffffffffffffffffffffffffffffffffffffff16633d3f251789896040518363ffffffff1660e01b81526004016112289291906152ee565b600060405180830381600087803b15801561124257600080fd5b505af1158015611256573d6000803e3d6000fd5b505050506040513d6000823e3d601f19601f8201168201806040525081019061127f91906144e2565b95509550955095509550955085156112ef5761129f600084848488613bab565b838573ffffffffffffffffffffffffffffffffffffffff167fe72088d8c99245a37e459ef084c10708e613c2821738bf5c1dec8cc359d6cf4d426040516112e69190615646565b60405180910390a35b5050505050505050565b61130161296b565b73ffffffffffffffffffffffffffffffffffffffff16600560019054906101000a900473ffffffffffffffffffffffffffffffffffffffff1673ffffffffffffffffffffffffffffffffffffffff1614611390576040517f08c379a000000000000000000000000000000000000000000000000000000000815260040161138790615566565b60405180910390fd5b81600860006101000a81548173ffffffffffffffffffffffffffffffffffffffff021916908373ffffffffffffffffffffffffffffffffffffffff16021790555080600960006101000a81548173ffffffffffffffffffffffffffffffffffffffff021916908373ffffffffffffffffffffffffffffffffffffffff1602179055505050565b6000600960009054906101000a900473ffffffffffffffffffffffffffffffffffffffff16905090565b600660009054906101000a900473ffffffffffffffffffffffffffffffffffffffff1681565b6000806114a76040518060400160405280600981526020017f5357415054524144450000000000000000000000000000000000000000000000815250611e7e565b73ffffffffffffffffffffffffffffffffffffffff1663bfc564e8846040518263ffffffff1660e01b81526004016114df9190615296565b604080518083038186803b1580156114f657600080fd5b505afa15801561150a573d6000803e3d6000fd5b505050506040513d601f19601f8201168201806040525081019061152e9190614661565b9150915081156115745760005b835181101561156e5761156184828151811061155357fe5b602002602001015183610c7d565b808060010191505061153b565b506115b7565b82604051611582919061505d565b60405180910390207f6e29a260a8215ad988d22e2cdebba1d4e5215885b2449ee6318cedf160d0945460405160405180910390a25b505050565b6115c63382613477565b50565b6115d161296b565b73ffffffffffffffffffffffffffffffffffffffff16600560019054906101000a900473ffffffffffffffffffffffffffffffffffffffff1673ffffffffffffffffffffffffffffffffffffffff1614611660576040517f08c379a000000000000000000000000000000000000000000000000000000000815260040161165790615566565b60405180910390fd5b60008060606000806116a66040518060400160405280600981526020017f5357415054524144450000000000000000000000000000000000000000000000815250611e7e565b73ffffffffffffffffffffffffffffffffffffffff1663509efd64876040518263ffffffff1660e01b81526004016116de91906152d3565b600060405180830381600087803b1580156116f857600080fd5b505af115801561170c573d6000803e3d6000fd5b505050506040513d6000823e3d601f19601f8201168201806040525081019061173591906143c0565b9450945094509450945061174d600085858585613bab565b83868673ffffffffffffffffffffffffffffffffffffffff167f67db57ede852f4140318cf5b135e0ea01230a62c0a3beda37612e479e8a7641f426040516117959190615646565b60405180910390a4505050505050565b60008060008373ffffffffffffffffffffffffffffffffffffffff1673ffffffffffffffffffffffffffffffffffffffff168152602001908152602001600020549050919050565b6117f561296b565b73ffffffffffffffffffffffffffffffffffffffff16600560019054906101000a900473ffffffffffffffffffffffffffffffffffffffff1673ffffffffffffffffffffffffffffffffffffffff1614611884576040517f08c379a000000000000000000000000000000000000000000000000000000000815260040161187b90615566565b60405180910390fd5b600073ffffffffffffffffffffffffffffffffffffffff16600560019054906101000a900473ffffffffffffffffffffffffffffffffffffffff1673ffffffffffffffffffffffffffffffffffffffff167f8be0079c531659141344cd1fd0a4f28419497f9722a3daafe3b4186f6b6457e060405160405180910390a36000600560016101000a81548173ffffffffffffffffffffffffffffffffffffffff021916908373ffffffffffffffffffffffffffffffffffffffff160217905550565b600760009054906101000a900473ffffffffffffffffffffffffffffffffffffffff1681565b6000806119ac6040518060400160405280600981526020017f5357415054524144450000000000000000000000000000000000000000000000815250611e7e565b73ffffffffffffffffffffffffffffffffffffffff166334772557338787876040518563ffffffff1660e01b81526004016119ea94939291906150ea565b6040805180830381600087803b158015611a0357600080fd5b505af1158015611a17573d6000803e3d6000fd5b505050506040513d601f19601f82011682018060405250810190611a3b9190614915565b9150915080827f634910b514717fe132500771fb9e0ca49e263609b88f4cc5aa1c6507b4e0bede60405160405180910390a35050505050565b6000600560019054906101000a900473ffffffffffffffffffffffffffffffffffffffff16905090565b600080611adf6040518060400160405280600981526020017f5357415054524144450000000000000000000000000000000000000000000000815250611e7e565b73ffffffffffffffffffffffffffffffffffffffff1663bfc564e8846040518263ffffffff1660e01b8152600401611b179190615296565b604080518083038186803b158015611b2e57600080fd5b505afa158015611b42573d6000803e3d6000fd5b505050506040513d601f19601f82011682018060405250810190611b669190614661565b915091508115611bac5760005b8351811015611ba657611b99848281518110611b8b57fe5b6020026020010151836111a6565b8080600101915050611b73565b50611bef565b82604051611bba919061505d565b60405180910390207f202ececce4ec8527e534b19e88bed7d30e89196abc6815c8f7f71aae3ff11a4460405160405180910390a25b505050565b606060048054600181600116156101000203166002900480601f016020809104026020016040519081016040528092919081815260200182805460018160011615610100020316600290048015611c8c5780601f10611c6157610100808354040283529160200191611c8c565b820191906000526020600020905b815481529060010190602001808311611c6f57829003601f168201915b5050505050905090565b611ca1303383613d31565b6000611caf6000338461379e565b905080827fc10b273d1e1478889bf14cfc20976c0178f47d6164f92d53745fe0c67988201f33604051611ce291906150a6565b60405180910390a35050565b611cfa30333084612b3e565b6000611d086001338461379e565b905080827fab5f5548654b65d796f84aaee73cdd7fea9a28bf7a29fb80cb4451425797b4e633604051611d3b91906150a6565b60405180910390a35050565b6000611e0a611d5461296b565b84611e05856040518060600160405280602581526020016159b06025913960016000611d7e61296b565b73ffffffffffffffffffffffffffffffffffffffff1673ffffffffffffffffffffffffffffffffffffffff16815260200190815260200160002060008a73ffffffffffffffffffffffffffffffffffffffff1673ffffffffffffffffffffffffffffffffffffffff1681526020019081526020016000205461341c9092919063ffffffff16565b612973565b6001905092915050565b6000611e28611e2161296b565b8484613187565b6001905092915050565b600960009054906101000a900473ffffffffffffffffffffffffffffffffffffffff1681565b600860009054906101000a900473ffffffffffffffffffffffffffffffffffffffff1681565b6000600860009054906101000a900473ffffffffffffffffffffffffffffffffffffffff1673ffffffffffffffffffffffffffffffffffffffff16635d1495e930846040518363ffffffff1660e01b8152600401611edd92919061523d565b60206040518083038186803b158015611ef557600080fd5b505afa158015611f09573d6000803e3d6000fd5b505050506040513d601f19601f82011682018060405250810190611f2d919061426b565b9050919050565b6000611f746040518060400160405280600981526020017f5357415054524144450000000000000000000000000000000000000000000000815250611e7e565b73ffffffffffffffffffffffffffffffffffffffff1663fd0ceefb33846040518363ffffffff1660e01b8152600401611fae9291906150c1565b602060405180830381600087803b158015611fc857600080fd5b505af1158015611fdc573d6000803e3d6000fd5b505050506040513d601f19601f8201168201806040525081019061200091906148ec565b90503373ffffffffffffffffffffffffffffffffffffffff166108fc829081150290604051600060405180830381858888f19350505050158015612048573d6000803e3d6000fd5b50807fde92ebff3e22b9f7cb899264130ad9f45c1b3c0dd3cd3b222814e343fafa22b960405160405180910390a25050565b6000806120bb6040518060400160405280600981526020017f5357415054524144450000000000000000000000000000000000000000000000815250611e7e565b73ffffffffffffffffffffffffffffffffffffffff166326b3e792338787876040518563ffffffff1660e01b81526004016120f994939291906150ea565b6040805180830381600087803b15801561211257600080fd5b505af1158015612126573d6000803e3d6000fd5b505050506040513d601f19601f8201168201806040525081019061214a9190614915565b9150915080827f634910b514717fe132500771fb9e0ca49e263609b88f4cc5aa1c6507b4e0bede60405160405180910390a35050505050565b6000600160008473ffffffffffffffffffffffffffffffffffffffff1673ffffffffffffffffffffffffffffffffffffffff16815260200190815260200160002060008373ffffffffffffffffffffffffffffffffffffffff1673ffffffffffffffffffffffffffffffffffffffff16815260200190815260200160002054905092915050565b61221261296b565b73ffffffffffffffffffffffffffffffffffffffff16600560019054906101000a900473ffffffffffffffffffffffffffffffffffffffff1673ffffffffffffffffffffffffffffffffffffffff16146122a1576040517f08c379a000000000000000000000000000000000000000000000000000000000815260040161229890615566565b60405180910390fd5b6122ac838383613d31565b505050565b6122b961296b565b73ffffffffffffffffffffffffffffffffffffffff16600560019054906101000a900473ffffffffffffffffffffffffffffffffffffffff1673ffffffffffffffffffffffffffffffffffffffff1614612348576040517f08c379a000000000000000000000000000000000000000000000000000000000815260040161233f90615566565b60405180910390fd5b6123866040518060400160405280600981526020017f5357415054524144450000000000000000000000000000000000000000000000815250611e7e565b73ffffffffffffffffffffffffffffffffffffffff1663eadb2bdd826040518263ffffffff1660e01b81526004016123be9190615646565b600060405180830381600087803b1580156123d857600080fd5b505af11580156123ec573d6000803e3d6000fd5b5050505050565b6123fb61296b565b73ffffffffffffffffffffffffffffffffffffffff16600560019054906101000a900473ffffffffffffffffffffffffffffffffffffffff1673ffffffffffffffffffffffffffffffffffffffff161461248a576040517f08c379a000000000000000000000000000000000000000000000000000000000815260040161248190615566565b60405180910390fd5b600073ffffffffffffffffffffffffffffffffffffffff168173ffffffffffffffffffffffffffffffffffffffff1614156124fa576040517f08c379a00000000000000000000000000000000000000000000000000000000081526004016124f190615506565b60405180910390fd5b8073ffffffffffffffffffffffffffffffffffffffff16600560019054906101000a900473ffffffffffffffffffffffffffffffffffffffff1673ffffffffffffffffffffffffffffffffffffffff167f8be0079c531659141344cd1fd0a4f28419497f9722a3daafe3b4186f6b6457e060405160405180910390a380600560016101000a81548173ffffffffffffffffffffffffffffffffffffffff021916908373ffffffffffffffffffffffffffffffffffffffff16021790555050565b60006125c4613e68565b9050600860009054906101000a900473ffffffffffffffffffffffffffffffffffffffff1673ffffffffffffffffffffffffffffffffffffffff16635cb4554160013360006040518463ffffffff1660e01b81526004016126279392919061534e565b600060405180830381600087803b15801561264157600080fd5b505af1158015612655573d6000803e3d6000fd5b5050505060008061269a6040518060400160405280600981526020017f5357415054524144450000000000000000000000000000000000000000000000815250611e7e565b73ffffffffffffffffffffffffffffffffffffffff1663908219c6338b6126ca873461400b90919063ffffffff16565b8c8c8c8c8c6040518963ffffffff1660e01b81526004016126f298979695949392919061512f565b6040805180830381600087803b15801561270b57600080fd5b505af115801561271f573d6000803e3d6000fd5b505050506040513d601f19601f820116820180604052508101906127439190614702565b91509150600081111561275f5761275e6000828b8a34613bab565b5b80827f365f046eee0dbb4ae04f44575210ea42ab49806174a43f0a26d2d0daf161b1ba8b42604051612792929190615476565b60405180910390a3505050505050505050565b60006127af613e68565b9050600860009054906101000a900473ffffffffffffffffffffffffffffffffffffffff1673ffffffffffffffffffffffffffffffffffffffff16635cb4554160013360006040518463ffffffff1660e01b81526004016128129392919061534e565b600060405180830381600087803b15801561282c57600080fd5b505af1158015612840573d6000803e3d6000fd5b505050506000806128856040518060400160405280600981526020017f5357415054524144450000000000000000000000000000000000000000000000815250611e7e565b73ffffffffffffffffffffffffffffffffffffffff166333a7eb5b338b8b6128b6883461400b90919063ffffffff16565b8c8c8c8c6040518963ffffffff1660e01b81526004016128dd98979695949392919061512f565b6040805180830381600087803b1580156128f657600080fd5b505af115801561290a573d6000803e3d6000fd5b505050506040513d601f19601f8201168201806040525081019061292e9190614702565b9150915080827f1f466e013c07bc16eafd2ccf7854d6c715f9f3e8a6a4e87bc4e2d7c7b323cae660405160405180910390a3505050505050505050565b600033905090565b600073ffffffffffffffffffffffffffffffffffffffff168373ffffffffffffffffffffffffffffffffffffffff1614156129e3576040517f08c379a00000000000000000000000000000000000000000000000000000000081526004016129da906155c6565b60405180910390fd5b600073ffffffffffffffffffffffffffffffffffffffff168273ffffffffffffffffffffffffffffffffffffffff161415612a53576040517f08c379a0000000000000000000000000000000000000000000000000000000008152600401612a4a90615526565b60405180910390fd5b80600160008573ffffffffffffffffffffffffffffffffffffffff1673ffffffffffffffffffffffffffffffffffffffff16815260200190815260200160002060008473ffffffffffffffffffffffffffffffffffffffff1673ffffffffffffffffffffffffffffffffffffffff168152602001908152602001600020819055508173ffffffffffffffffffffffffffffffffffffffff168373ffffffffffffffffffffffffffffffffffffffff167f8c5be1e5ebec7d5bd14f71427d1e84f3dd0314c0f7b2291e5b200ac8c7c3b92583604051612b319190615646565b60405180910390a3505050565b600060608573ffffffffffffffffffffffffffffffffffffffff166323b872dd868686604051602401612b73939291906151dd565b6040516020818303038152906040529060e01b6020820180517bffffffffffffffffffffffffffffffffffffffffffffffffffffffff8381831617835250505050604051612bc19190615074565b6000604051808303816000865af19150503d8060008114612bfe576040519150601f19603f3d011682016040523d82523d6000602084013e612c03565b606091505b5091509150818015612c315750600081511480612c30575080806020019051810190612c2f91906144b9565b5b5b612c70576040517f08c379a0000000000000000000000000000000000000000000000000000000008152600401612c6790615606565b60405180910390fd5b505050505050565b600073ffffffffffffffffffffffffffffffffffffffff168273ffffffffffffffffffffffffffffffffffffffff161415612ce8576040517f08c379a0000000000000000000000000000000000000000000000000000000008152600401612cdf90615586565b60405180910390fd5b612cf482600083614055565b612d5f81604051806060016040528060228152602001615940602291396000808673ffffffffffffffffffffffffffffffffffffffff1673ffffffffffffffffffffffffffffffffffffffff1681526020019081526020016000205461341c9092919063ffffffff16565b6000808473ffffffffffffffffffffffffffffffffffffffff1673ffffffffffffffffffffffffffffffffffffffff16815260200190815260200160002081905550612db68160025461400b90919063ffffffff16565b600281905550600073ffffffffffffffffffffffffffffffffffffffff168273ffffffffffffffffffffffffffffffffffffffff167fddf252ad1be2c89b69c2b068fc378daa952ba7f163c4a11628f55a4df523b3ef83604051612e1a9190615646565b60405180910390a35050565b60008273ffffffffffffffffffffffffffffffffffffffff1682600067ffffffffffffffff81118015612e5857600080fd5b506040519080825280601f01601f191660200182016040528015612e8b5781602001600182028036833780820191505090505b50604051612e999190615074565b60006040518083038185875af1925050503d8060008114612ed6576040519150601f19603f3d011682016040523d82523d6000602084013e612edb565b606091505b5050905080612f1f576040517f08c379a0000000000000000000000000000000000000000000000000000000008152600401612f16906155e6565b60405180910390fd5b505050565b612f626040518060400160405280600481526020017f46554e4400000000000000000000000000000000000000000000000000000000815250611e7e565b73ffffffffffffffffffffffffffffffffffffffff1663de9ff4c284846040518363ffffffff1660e01b8152600401612f9c929190615661565b600060405180830381600087803b158015612fb657600080fd5b505af1158015612fca573d6000803e3d6000fd5b505050506000871115612fe657612fe5600188888885613bab565b5b600860009054906101000a900473ffffffffffffffffffffffffffffffffffffffff1673ffffffffffffffffffffffffffffffffffffffff16634e69d5606040518163ffffffff1660e01b815260040160206040518083038186803b15801561304e57600080fd5b505afa158015613062573d6000803e3d6000fd5b505050506040513d601f19601f8201168201806040525081019061308691906144b9565b156130d75760018314156130b5576130b0846130ab84846135b590919063ffffffff16565b612e26565b6130d2565b6130d1846130cc848461400b90919063ffffffff16565b612e26565b5b6130e2565b6130e18482612e26565b5b600183141561317e57600860009054906101000a900473ffffffffffffffffffffffffffffffffffffffff1673ffffffffffffffffffffffffffffffffffffffff16635cb45541600286856040518463ffffffff1660e01b815260040161314b93929190615385565b600060405180830381600087803b15801561316557600080fd5b505af1158015613179573d6000803e3d6000fd5b505050505b50505050505050565b600073ffffffffffffffffffffffffffffffffffffffff168373ffffffffffffffffffffffffffffffffffffffff1614156131f7576040517f08c379a00000000000000000000000000000000000000000000000000000000081526004016131ee906155a6565b60405180910390fd5b600073ffffffffffffffffffffffffffffffffffffffff168273ffffffffffffffffffffffffffffffffffffffff161415613267576040517f08c379a000000000000000000000000000000000000000000000000000000000815260040161325e906154a6565b60405180910390fd5b613272838383614055565b6132dd81604051806060016040528060268152602001615962602691396000808773ffffffffffffffffffffffffffffffffffffffff1673ffffffffffffffffffffffffffffffffffffffff1681526020019081526020016000205461341c9092919063ffffffff16565b6000808573ffffffffffffffffffffffffffffffffffffffff1673ffffffffffffffffffffffffffffffffffffffff16815260200190815260200160002081905550613370816000808573ffffffffffffffffffffffffffffffffffffffff1673ffffffffffffffffffffffffffffffffffffffff168152602001908152602001600020546135b590919063ffffffff16565b6000808473ffffffffffffffffffffffffffffffffffffffff1673ffffffffffffffffffffffffffffffffffffffff168152602001908152602001600020819055508173ffffffffffffffffffffffffffffffffffffffff168373ffffffffffffffffffffffffffffffffffffffff167fddf252ad1be2c89b69c2b068fc378daa952ba7f163c4a11628f55a4df523b3ef8360405161340f9190615646565b60405180910390a3505050565b6000838311158290613464576040517f08c379a000000000000000000000000000000000000000000000000000000000815260040161345b91906153bc565b60405180910390fd5b5060008385039050809150509392505050565b600080600080600060606134bf6040518060400160405280600981526020017f5357415054524144450000000000000000000000000000000000000000000000815250611e7e565b73ffffffffffffffffffffffffffffffffffffffff16631e2a565b89896040518363ffffffff1660e01b81526004016134f9929190615214565b600060405180830381600087803b15801561351357600080fd5b505af1158015613527573d6000803e3d6000fd5b505050506040513d6000823e3d601f19601f820116820180604052508101906135509190614951565b95509550955095509550955061356b8682868b898888612f24565b8486887fc2f1c5c0613a36ffb87619c8f0143759ee15b53f0bff852377b4d993904cfa3a848c88426040516135a394939291906153de565b60405180910390a45050505050505050565b600080828401905083811015613600576040517f08c379a00000000000000000000000000000000000000000000000000000000081526004016135f790615546565b60405180910390fd5b8091505092915050565b600073ffffffffffffffffffffffffffffffffffffffff168273ffffffffffffffffffffffffffffffffffffffff16141561367a576040517f08c379a000000000000000000000000000000000000000000000000000000000815260040161367190615626565b60405180910390fd5b61368660008383614055565b61369b816002546135b590919063ffffffff16565b6002819055506136f2816000808573ffffffffffffffffffffffffffffffffffffffff1673ffffffffffffffffffffffffffffffffffffffff168152602001908152602001600020546135b590919063ffffffff16565b6000808473ffffffffffffffffffffffffffffffffffffffff1673ffffffffffffffffffffffffffffffffffffffff168152602001908152602001600020819055508173ffffffffffffffffffffffffffffffffffffffff16600073ffffffffffffffffffffffffffffffffffffffff167fddf252ad1be2c89b69c2b068fc378daa952ba7f163c4a11628f55a4df523b3ef836040516137929190615646565b60405180910390a35050565b600080841561387d576137e56040518060400160405280600481526020017f4d494e4500000000000000000000000000000000000000000000000000000000815250611e7e565b73ffffffffffffffffffffffffffffffffffffffff166347e7ef2485856040518363ffffffff1660e01b815260040161381f92919061526d565b6040805180830381600087803b15801561383857600080fd5b505af115801561384c573d6000803e3d6000fd5b505050506040513d601f19601f820116820180604052508101906138709190614915565b809350819250505061394f565b6138bb6040518060400160405280600481526020017f4d494e4500000000000000000000000000000000000000000000000000000000815250611e7e565b73ffffffffffffffffffffffffffffffffffffffff1663f3fef3a385856040518363ffffffff1660e01b81526004016138f592919061526d565b6040805180830381600087803b15801561390e57600080fd5b505af1158015613922573d6000803e3d6000fd5b505050506040513d601f19601f820116820180604052508101906139469190614915565b80935081925050505b600860009054906101000a900473ffffffffffffffffffffffffffffffffffffffff1673ffffffffffffffffffffffffffffffffffffffff16634e69d5606040518163ffffffff1660e01b815260040160206040518083038186803b1580156139b757600080fd5b505afa1580156139cb573d6000803e3d6000fd5b505050506040513d601f19601f820116820180604052508101906139ef91906144b9565b15613b1157600860009054906101000a900473ffffffffffffffffffffffffffffffffffffffff1673ffffffffffffffffffffffffffffffffffffffff1663c634d032826040518263ffffffff1660e01b8152600401613a4f9190615646565b600060405180830381600087803b158015613a6957600080fd5b505af1158015613a7d573d6000803e3d6000fd5b50505050600860009054906101000a900473ffffffffffffffffffffffffffffffffffffffff1673ffffffffffffffffffffffffffffffffffffffff1663cd049a9385846040518363ffffffff1660e01b8152600401613ade92919061526d565b600060405180830381600087803b158015613af857600080fd5b505af1158015613b0c573d6000803e3d6000fd5b505050505b600860009054906101000a900473ffffffffffffffffffffffffffffffffffffffff1673ffffffffffffffffffffffffffffffffffffffff16635cb45541600086856040518463ffffffff1660e01b8152600401613b7193929190615317565b600060405180830381600087803b158015613b8b57600080fd5b505af1158015613b9f573d6000803e3d6000fd5b50505050509392505050565b60006001831415613bbb57600190505b60008660ff161415613c7a57613c056040518060400160405280600481526020017f5249534b00000000000000000000000000000000000000000000000000000000815250611e7e565b73ffffffffffffffffffffffffffffffffffffffff1663fdbd56db858388866040518563ffffffff1660e01b8152600401613c43949392919061542a565b600060405180830381600087803b158015613c5d57600080fd5b505af1158015613c71573d6000803e3d6000fd5b50505050613d29565b613cb86040518060400160405280600481526020017f5249534b00000000000000000000000000000000000000000000000000000000815250611e7e565b73ffffffffffffffffffffffffffffffffffffffff16638d2066dc858388866040518563ffffffff1660e01b8152600401613cf6949392919061542a565b600060405180830381600087803b158015613d1057600080fd5b505af1158015613d24573d6000803e3d6000fd5b505050505b505050505050565b600060608473ffffffffffffffffffffffffffffffffffffffff1663a9059cbb8585604051602401613d6492919061526d565b6040516020818303038152906040529060e01b6020820180517bffffffffffffffffffffffffffffffffffffffffffffffffffffffff8381831617835250505050604051613db29190615074565b6000604051808303816000865af19150503d8060008114613def576040519150601f19603f3d011682016040523d82523d6000602084013e613df4565b606091505b5091509150818015613e225750600081511480613e21575080806020019051810190613e2091906144b9565b5b5b613e61576040517f08c379a0000000000000000000000000000000000000000000000000000000008152600401613e58906154c6565b60405180910390fd5b5050505050565b6000600860009054906101000a900473ffffffffffffffffffffffffffffffffffffffff1673ffffffffffffffffffffffffffffffffffffffff1663ffaef0386040518163ffffffff1660e01b815260040160206040518083038186803b158015613ed257600080fd5b505afa158015613ee6573d6000803e3d6000fd5b505050506040513d601f19601f82011682018060405250810190613f0a91906148ec565b905080341015613f4f576040517f08c379a0000000000000000000000000000000000000000000000000000000008152600401613f46906154e6565b60405180910390fd5b6000811115614008576000600860009054906101000a900473ffffffffffffffffffffffffffffffffffffffff1673ffffffffffffffffffffffffffffffffffffffff1663e8a353926040518163ffffffff1660e01b815260040160206040518083038186803b158015613fc257600080fd5b505afa158015613fd6573d6000803e3d6000fd5b505050506040513d601f19601f82011682018060405250810190613ffa9190614294565b90506140068183612e26565b505b90565b600061404d83836040518060400160405280601e81526020017f536166654d6174683a207375627472616374696f6e206f766572666c6f77000081525061341c565b905092915050565b505050565b600081359050614069816158cc565b92915050565b60008151905061407e816158cc565b92915050565b600081519050614093816158e3565b92915050565b600082601f8301126140aa57600080fd5b81356140bd6140b8826156d2565b6156a5565b915081818352602084019350602081019050838560208402820111156140e257600080fd5b60005b8381101561411257816140f88882614146565b8452602084019350602083019250506001810190506140e5565b5050505092915050565b60008135905061412b816158fa565b92915050565b600081519050614140816158fa565b92915050565b60008135905061415581615911565b92915050565b60008151905061416a81615911565b92915050565b600082601f83011261418157600080fd5b813561419461418f826156fa565b6156a5565b915080825260208301602083018583830111156141b057600080fd5b6141bb838284615879565b50505092915050565b600082601f8301126141d557600080fd5b81516141e86141e3826156fa565b6156a5565b9150808252602083016020830185838301111561420457600080fd5b61420f838284615888565b50505092915050565b60008135905061422781615928565b92915050565b60008151905061423c81615928565b92915050565b60006020828403121561425457600080fd5b60006142628482850161405a565b91505092915050565b60006020828403121561427d57600080fd5b600061428b8482850161406f565b91505092915050565b6000602082840312156142a657600080fd5b60006142b484828501614084565b91505092915050565b600080604083850312156142d057600080fd5b60006142de8582860161405a565b92505060206142ef8582860161405a565b9150509250929050565b60008060006060848603121561430e57600080fd5b600061431c8682870161405a565b935050602061432d8682870161405a565b925050604061433e86828701614218565b9150509250925092565b6000806040838503121561435b57600080fd5b60006143698582860161405a565b925050602061437a85828601614146565b9150509250929050565b6000806040838503121561439757600080fd5b60006143a58582860161405a565b92505060206143b685828601614218565b9150509250929050565b600080600080600060a086880312156143d857600080fd5b60006143e68882890161406f565b95505060206143f78882890161422d565b945050604086015167ffffffffffffffff81111561441457600080fd5b614420888289016141c4565b93505060606144318882890161422d565b92505060806144428882890161422d565b9150509295509295909350565b60006020828403121561446157600080fd5b600082013567ffffffffffffffff81111561447b57600080fd5b61448784828501614099565b91505092915050565b6000602082840312156144a257600080fd5b60006144b08482850161411c565b91505092915050565b6000602082840312156144cb57600080fd5b60006144d984828501614131565b91505092915050565b60008060008060008060c087890312156144fb57600080fd5b600061450989828a01614131565b965050602061451a89828a0161406f565b955050604061452b89828a0161422d565b945050606061453c89828a0161422d565b935050608087015167ffffffffffffffff81111561455957600080fd5b61456589828a016141c4565b92505060a061457689828a0161422d565b9150509295509295509295565b60008060008060008060008060006101208a8c0312156145a257600080fd5b60006145b08c828d01614131565b99505060206145c18c828d0161406f565b98505060406145d28c828d0161422d565b97505060606145e38c828d0161422d565b96505060806145f48c828d0161422d565b95505060a06146058c828d0161422d565b94505060c06146168c828d0161422d565b93505060e06146278c828d0161422d565b9250506101008a015167ffffffffffffffff81111561464557600080fd5b6146518c828d016141c4565b9150509295985092959850929598565b6000806040838503121561467457600080fd5b600061468285828601614131565b92505060206146938582860161422d565b9150509250929050565b6000602082840312156146af57600080fd5b60006146bd84828501614146565b91505092915050565b600080604083850312156146d957600080fd5b60006146e785828601614146565b92505060206146f885828601614218565b9150509250929050565b6000806040838503121561471557600080fd5b60006147238582860161415b565b92505060206147348582860161422d565b9150509250929050565b60008060006060848603121561475357600080fd5b600061476186828701614146565b935050602061477286828701614218565b925050604061478386828701614218565b9150509250925092565b60006020828403121561479f57600080fd5b600082013567ffffffffffffffff8111156147b957600080fd5b6147c584828501614170565b91505092915050565b600080604083850312156147e157600080fd5b600083013567ffffffffffffffff8111156147fb57600080fd5b61480785828601614170565b925050602061481885828601614218565b9150509250929050565b60008060008060008060c0878903121561483b57600080fd5b600087013567ffffffffffffffff81111561485557600080fd5b61486189828a01614170565b965050602061487289828a01614218565b955050604061488389828a01614218565b945050606061489489828a01614218565b93505060806148a589828a01614218565b92505060a06148b689828a01614218565b9150509295509295509295565b6000602082840312156148d557600080fd5b60006148e384828501614218565b91505092915050565b6000602082840312156148fe57600080fd5b600061490c8482850161422d565b91505092915050565b6000806040838503121561492857600080fd5b60006149368582860161422d565b92505060206149478582860161422d565b9150509250929050565b60008060008060008060c0878903121561496a57600080fd5b600061497889828a0161422d565b965050602061498989828a0161422d565b955050604061499a89828a0161422d565b94505060606149ab89828a0161422d565b93505060806149bc89828a0161422d565b92505060a087015167ffffffffffffffff8111156149d957600080fd5b6149e589828a016141c4565b9150509295509295509295565b60006149fe8383614b0b565b60208301905092915050565b6000614a168383614b29565b60208301905092915050565b614a2b8161580d565b82525050565b614a3a8161579c565b82525050565b6000614a4b82615736565b614a558185615764565b9350614a6083615726565b8060005b83811015614a91578151614a7888826149f2565b9750614a8383615757565b925050600181019050614a64565b5085935050505092915050565b6000614aa982615736565b614ab38185615775565b9350614abe83615726565b8060005b83811015614aef578151614ad68882614a0a565b9750614ae183615757565b925050600181019050614ac2565b5085935050505092915050565b614b05816157c0565b82525050565b614b14816157cc565b82525050565b614b23816157cc565b82525050565b614b32816157cc565b82525050565b6000614b4382615741565b614b4d8185615780565b9350614b5d818560208601615888565b80840191505092915050565b614b728161581f565b82525050565b614b8181615831565b82525050565b614b9081615843565b82525050565b6000614ba18261574c565b614bab818561578b565b9350614bbb818560208601615888565b614bc4816158bb565b840191505092915050565b6000614bdc60238361578b565b91507f45524332303a207472616e7366657220746f20746865207a65726f206164647260008301527f65737300000000000000000000000000000000000000000000000000000000006020830152604082019050919050565b6000614c42601f8361578b565b91507f5472616e7366657248656c7065723a205452414e534645525f4641494c4544006000830152602082019050919050565b6000614c8260208361578b565b91507f5f666565526563656976653a20696e737566666963656e7420666f72206665656000830152602082019050919050565b6000614cc260268361578b565b91507f4f776e61626c653a206e6577206f776e657220697320746865207a65726f206160008301527f64647265737300000000000000000000000000000000000000000000000000006020830152604082019050919050565b6000614d2860228361578b565b91507f45524332303a20617070726f766520746f20746865207a65726f20616464726560008301527f73730000000000000000000000000000000000000000000000000000000000006020830152604082019050919050565b6000614d8e601b8361578b565b91507f536166654d6174683a206164646974696f6e206f766572666c6f7700000000006000830152602082019050919050565b6000614dce60208361578b565b91507f4f776e61626c653a2063616c6c6572206973206e6f7420746865206f776e65726000830152602082019050919050565b6000614e0e60218361578b565b91507f45524332303a206275726e2066726f6d20746865207a65726f2061646472657360008301527f73000000000000000000000000000000000000000000000000000000000000006020830152604082019050919050565b6000614e7460258361578b565b91507f45524332303a207472616e736665722066726f6d20746865207a65726f20616460008301527f64726573730000000000000000000000000000000000000000000000000000006020830152604082019050919050565b6000614eda60248361578b565b91507f45524332303a20617070726f76652066726f6d20746865207a65726f2061646460008301527f72657373000000000000000000000000000000000000000000000000000000006020830152604082019050919050565b6000614f4060238361578b565b91507f5472616e7366657248656c7065723a204554485f5452414e534645525f46414960008301527f4c454400000000000000000000000000000000000000000000000000000000006020830152604082019050919050565b6000614fa660248361578b565b91507f5472616e7366657248656c7065723a205452414e534645525f46524f4d5f464160008301527f494c4544000000000000000000000000000000000000000000000000000000006020830152604082019050919050565b600061500c601f8361578b565b91507f45524332303a206d696e7420746f20746865207a65726f2061646472657373006000830152602082019050919050565b615048816157f6565b82525050565b61505781615800565b82525050565b60006150698284614a9e565b915081905092915050565b60006150808284614b38565b915081905092915050565b60006020820190506150a06000830184614a31565b92915050565b60006020820190506150bb6000830184614a22565b92915050565b60006040820190506150d66000830185614a22565b6150e36020830184614b1a565b9392505050565b60006080820190506150ff6000830187614a22565b61510c6020830186614b1a565b615119604083018561503f565b615126606083018461503f565b95945050505050565b600061010082019050615145600083018b614a22565b8181036020830152615157818a614b96565b9050615166604083018961503f565b615173606083018861503f565b615180608083018761503f565b61518d60a083018661503f565b61519a60c083018561503f565b6151a760e083018461503f565b9998505050505050505050565b60006040820190506151c96000830185614a22565b6151d6602083018461503f565b9392505050565b60006060820190506151f26000830186614a31565b6151ff6020830185614a31565b61520c604083018461503f565b949350505050565b60006040820190506152296000830185614a31565b6152366020830184614b1a565b9392505050565b60006040820190506152526000830185614a31565b81810360208301526152648184614b96565b90509392505050565b60006040820190506152826000830185614a31565b61528f602083018461503f565b9392505050565b600060208201905081810360008301526152b08184614a40565b905092915050565b60006020820190506152cd6000830184614afc565b92915050565b60006020820190506152e86000830184614b1a565b92915050565b60006040820190506153036000830185614b1a565b615310602083018461503f565b9392505050565b600060608201905061532c6000830186614b69565b6153396020830185614a31565b615346604083018461503f565b949350505050565b60006060820190506153636000830186614b78565b6153706020830185614a22565b61537d6040830184614b69565b949350505050565b600060608201905061539a6000830186614b87565b6153a76020830185614a31565b6153b4604083018461503f565b949350505050565b600060208201905081810360008301526153d68184614b96565b905092915050565b600060808201905081810360008301526153f88187614b96565b90506154076020830186614a31565b615414604083018561503f565b615421606083018461503f565b95945050505050565b600060808201905081810360008301526154448187614b96565b90506154536020830186614afc565b615460604083018561503f565b61546d606083018461503f565b95945050505050565b600060408201905081810360008301526154908185614b96565b905061549f602083018461503f565b9392505050565b600060208201905081810360008301526154bf81614bcf565b9050919050565b600060208201905081810360008301526154df81614c35565b9050919050565b600060208201905081810360008301526154ff81614c75565b9050919050565b6000602082019050818103600083015261551f81614cb5565b9050919050565b6000602082019050818103600083015261553f81614d1b565b9050919050565b6000602082019050818103600083015261555f81614d81565b9050919050565b6000602082019050818103600083015261557f81614dc1565b9050919050565b6000602082019050818103600083015261559f81614e01565b9050919050565b600060208201905081810360008301526155bf81614e67565b9050919050565b600060208201905081810360008301526155df81614ecd565b9050919050565b600060208201905081810360008301526155ff81614f33565b9050919050565b6000602082019050818103600083015261561f81614f99565b9050919050565b6000602082019050818103600083015261563f81614fff565b9050919050565b600060208201905061565b600083018461503f565b92915050565b6000604082019050615676600083018561503f565b615683602083018461503f565b9392505050565b600060208201905061569f600083018461504e565b92915050565b6000604051905081810181811067ffffffffffffffff821117156156c857600080fd5b8060405250919050565b600067ffffffffffffffff8211156156e957600080fd5b602082029050602081019050919050565b600067ffffffffffffffff82111561571157600080fd5b601f19601f8301169050602081019050919050565b6000819050602082019050919050565b600081519050919050565b600081519050919050565b600081519050919050565b6000602082019050919050565b600082825260208201905092915050565b600081905092915050565b600081905092915050565b600082825260208201905092915050565b60006157a7826157d6565b9050919050565b60006157b9826157d6565b9050919050565b60008115159050919050565b6000819050919050565b600073ffffffffffffffffffffffffffffffffffffffff82169050919050565b6000819050919050565b600060ff82169050919050565b600061581882615855565b9050919050565b600061582a826157f6565b9050919050565b600061583c826157f6565b9050919050565b600061584e826157f6565b9050919050565b600061586082615867565b9050919050565b6000615872826157d6565b9050919050565b82818337600083830152505050565b60005b838110156158a657808201518184015260208101905061588b565b838111156158b5576000848401525b50505050565b6000601f19601f8301169050919050565b6158d58161579c565b81146158e057600080fd5b50565b6158ec816157ae565b81146158f757600080fd5b50565b615903816157c0565b811461590e57600080fd5b50565b61591a816157cc565b811461592557600080fd5b50565b615931816157f6565b811461593c57600080fd5b5056fe45524332303a206275726e20616d6f756e7420657863656564732062616c616e636545524332303a207472616e7366657220616d6f756e7420657863656564732062616c616e636545524332303a207472616e7366657220616d6f756e74206578636565647320616c6c6f77616e636545524332303a2064656372656173656420616c6c6f77616e63652062656c6f77207a65726fa2646970667358221220fd3c46c18e286f8f3f0a5e82bccca646ef490d16d21d1a1f959b91f4ef10fb7664736f6c634300060c0033",
  "immutableReferences": {},
  "source": "// SPDX-License-Identifier: MIT\n\npragma solidity >=0.6.12;\npragma experimental ABIEncoderV2;\n\nimport \"../openzeppelin/contracts/token/ERC20/ERC20.sol\";\nimport \"../openzeppelin/contracts/math/SafeMath.sol\";\nimport \"../openzeppelin/contracts/access/Ownable.sol\";\nimport '../libraries/TransferHelper.sol';\nimport \"../interface/IFund.sol\";\nimport \"../interface/IRisk.sol\";\nimport \"../interface/ISwapTrade.sol\";\nimport \"../interface/IMine.sol\";\nimport \"../interface/IPoolFactory.sol\";\nimport \"../interface/IQuoteFactory.sol\";\n\n\ncontract TeemoWPool is ERC20(\"TMOLP\", \"TMOLP\"), Ownable {\n    using SafeMath for uint256;\n\n    address public tokenAddr = address(0);\n    address public mainnetTokenAddr = address(0);\n    address public poolFactoryAddr;\n    address public quoteFactoryAddr;\n    // mapping(string => address) public allModuleInfo;\n    // address public fundAddr;\n    // address public riskAddr;\n    // address public swapTradeAddr;\n    // address public mineAddr;\n\n    event OpenLimitSwap(bytes32 indexed orderID, uint256 indexed openPrice);\n    event CancelLimitSwap(uint256 indexed tokenAmount);\n    event TradeLimitSwap(address indexed success,uint256 indexed tokenAmount, uint256 time);\n    event OpenMarketSwap(bytes32 indexed orderID, string symbol, uint256 indexed openPrice, uint256 time);\n    event CloseMarketSwap(bytes32 indexed orderID, string symbol, address userAddr, uint256 indexed closePrice,uint256 indexed plFlag,uint256 plAmount, uint256 time);\n    event CloseLimitSwap(address indexed userAddr,uint256 indexed closePrice,uint256 indexed closeType,uint256 plFlag,uint256 plAmount);\n    event UpdateSwap(uint256 indexed pLimitPrice, uint256 indexed lLimitPrice);\n    event FailedCloseLimitSwap(bytes32[] indexed orderIDs);\n    event FailedTradeLimitSwap(bytes32[] indexed orderIDs);\n\n    event LPDeposit(address _userAddr,uint256 indexed lpAmount,uint256 indexed teemoTokenAmount);\n    event LPWithdraw(address _userAddr,uint256 indexed tokenAmount);\n    event StartMine(address _userAddr,uint256 indexed tokenAmount,uint256 indexed teemoTokenAmount);\n    event StopMine(address _userAddr,uint256 indexed tokenAmount,uint256 indexed teemoTokenAmount);\n\n    event SetOrderPrice(address indexed userAddr, bytes32 indexed _orderID, uint256 indexed _price, uint256 time);\n    event EmergencyWithdraw(address indexed tokenAddr, address indexed userAddr, uint256 indexed amount);\n\n    function initialize(address _poolFactoryAddr, address _quoteFactoryAddr) public onlyOwner{\n        poolFactoryAddr = _poolFactoryAddr;\n        quoteFactoryAddr = _quoteFactoryAddr;\n    }\n\n    // function setModuleAddr(string memory _moduleName,address _moduleAddr) public onlyOwner {\n    //     allModuleInfo[_moduleName] = _moduleAddr;\n    //     if(keccak256(bytes(_moduleName)) == keccak256(bytes(\"FUND\"))){\n    //         fundAddr = getModuleAddr(_moduleName);\n    //     }else if(keccak256(bytes(_moduleName)) == keccak256(bytes(\"RISK\"))){\n    //         riskAddr = getModuleAddr(_moduleName);\n    //     }else if(keccak256(bytes(_moduleName)) == keccak256(bytes(\"SWAPTRADE\"))){\n    //         swapTradeAddr = getModuleAddr(_moduleName);\n    //     }else if(keccak256(bytes(_moduleName)) == keccak256(bytes(\"MINE\"))){\n    //         mineAddr = getModuleAddr(_moduleName);\n    //     }\n    // }\n    function getModuleAddr(string memory _moduleName) public view returns (address moduleAddr) {\n        moduleAddr = IPoolFactory(poolFactoryAddr).getPoolModuleAddr(address(this), _moduleName);\n    }\n\n    function getQuoteFactoryAddr() public view returns (address){\n        return quoteFactoryAddr;\n    }\n    // LP\n    function lpDeposit(bool mine) public payable {\n        uint256 lpAmount = IFund(getModuleAddr(\"FUND\")).deposit(msg.sender, msg.value);\n        if(mine == false){// TeemoToken\n            _mint(msg.sender,lpAmount);\n            emit LPDeposit(msg.sender, lpAmount, 0); \n        }else{\n            _mint(address(this),lpAmount);\n            uint256 userTeemoTokenAmount = _mineType(true, msg.sender, lpAmount);\n            emit LPDeposit(msg.sender, lpAmount, userTeemoTokenAmount); \n        }       \n    }\n\n    // \n    function startMine(uint256 _lpAmount) public {\n        //transferFrom(msg.sender, address(this), _lpAmount);\n        TransferHelper.safeTransferFrom(address(this),msg.sender,address(this),_lpAmount);\n        uint256 userTeemoTokenAmount = _mineType(true, msg.sender, _lpAmount);\n        emit StartMine(msg.sender, _lpAmount, userTeemoTokenAmount);\n    }\n\n    // LP\n    function lpWithdraw(uint256 _lpAmount) public {  \n        //transferFrom(msg.sender, address(this), _lpAmount);\n        TransferHelper.safeTransferFrom(address(this),msg.sender,address(this),_lpAmount);\n        uint256 tokenAmount = IFund(getModuleAddr(\"FUND\")).withdraw(msg.sender, _lpAmount);\n        _burn(address(this),_lpAmount);\n        //msg.sender.transfer(tokenAmount);\n        TransferHelper.safeTransferETH(msg.sender,tokenAmount);\n        emit LPWithdraw(msg.sender, tokenAmount);\n    }\n\n    // \n    function stopMine(uint256 _lpAmount) public {\n        TransferHelper.safeTransfer(address(this),msg.sender,_lpAmount);\n        uint256 userTeemoTokenAmount = _mineType(false, msg.sender, _lpAmount);\n        emit StopMine(msg.sender, _lpAmount, userTeemoTokenAmount);\n    }\n\n    function _mineType(bool _mine, address _userAddr, uint256 _lpAmount) internal returns(uint256 userTeemoTokenAmount){\n        uint256 teemoTokenAmount;\n        if(_mine){\n            (teemoTokenAmount, userTeemoTokenAmount) = IMine(getModuleAddr(\"MINE\")).deposit(_userAddr,_lpAmount); // \n        }else{\n            (teemoTokenAmount, userTeemoTokenAmount) = IMine(getModuleAddr(\"MINE\")).withdraw(_userAddr,_lpAmount); //\n        }\n        if(IPoolFactory(poolFactoryAddr).getStatus()){\n            IPoolFactory(poolFactoryAddr).mintToken(teemoTokenAmount);\n            IPoolFactory(poolFactoryAddr).safeTeemoTransfer(_userAddr,userTeemoTokenAmount);\n        }\n        IPoolFactory(poolFactoryAddr).updateBonus(0, _userAddr,userTeemoTokenAmount);\n    }\n\n    // \n    function openLimitSwap(string memory _symbol,uint256 _limitPrice,uint256 _lever,uint256 _bsFlag,uint256 _pLimitPrice,uint256 _lLimitPrice) public payable {\n        uint256 fee = _feeReceive();\n        IPoolFactory(poolFactoryAddr).updateBonus(1, msg.sender, 0);\n        (bytes32 orderID, uint256 openPrice) = ISwapTrade(getModuleAddr(\"SWAPTRADE\")).openLimitSwap(msg.sender,_symbol,_limitPrice,msg.value.sub(fee),_lever,_bsFlag,_pLimitPrice,_lLimitPrice);\n        emit OpenLimitSwap(orderID, openPrice);\n    }\n\n    // \n    function cancelLimitSwap(bytes32 _orderID) public {\n        uint256 tokenAmount = ISwapTrade(getModuleAddr(\"SWAPTRADE\")).cancelLimitSwap(msg.sender,_orderID);\n        msg.sender.transfer(tokenAmount);\n        emit CancelLimitSwap(tokenAmount);\n    }\n\n    // \n    function tradeLimitSwaps(bytes32[] memory _orderIDs) public {\n        (bool status, uint256 _blockIndex) = ISwapTrade(getModuleAddr(\"SWAPTRADE\")).isValidating(_orderIDs);\n        if(status){\n            for(uint256 i=0;i<_orderIDs.length;i++){\n                tradeLimitSwap(_orderIDs[i],_blockIndex);\n            }\n        }else{\n            emit FailedTradeLimitSwap(_orderIDs);\n        }\n    }\n\n    function tradeLimitSwap(bytes32 _orderID,uint256 _blockIndex) public {\n        (bool success,address userAddr,uint256 tokenAmount, uint256 openPrice, string memory symbol, uint256 bsFlag) = ISwapTrade(getModuleAddr(\"SWAPTRADE\")).tradeLimitSwap(_orderID,_blockIndex);\n        if(success){\n            _riskOrder(0, openPrice, symbol, bsFlag, tokenAmount);\n            emit TradeLimitSwap(userAddr,tokenAmount, block.timestamp);\n        }\n    }  \n\n    // \n    function openMarketSwap(string memory _symbol,uint256 _lever,uint256 _bsFlag,uint256 _pLimitPrice,uint256 _lLimitPrice, uint256 _maxPrice) public payable {\n        uint256 fee = _feeReceive();\n        IPoolFactory(poolFactoryAddr).updateBonus(1, msg.sender, 0);\n        (bytes32 orderID, uint256 openPrice) = ISwapTrade(getModuleAddr(\"SWAPTRADE\")).openMarketSwap(msg.sender,_symbol,msg.value.sub(fee),_lever,_bsFlag,_pLimitPrice,_lLimitPrice, _maxPrice);        \n        if(openPrice > 0){\n            _riskOrder(0, openPrice, _symbol, _bsFlag, msg.value);\n        }\n        emit OpenMarketSwap(orderID, _symbol, openPrice, block.timestamp);\n    }\n\n    // \n    function closeMarketSwap(bytes32 _orderID) public {\n       _closeMarketSwap(msg.sender, _orderID);\n    }\n\n    // ()\n    function closeLimitSwaps(bytes32[] memory _orderIDs) public {\n        (bool status, uint256 _blockIndex) = ISwapTrade(getModuleAddr(\"SWAPTRADE\")).isValidating(_orderIDs);\n        if(status) {\n            for(uint256 i=0;i<_orderIDs.length;i++){\n                closeLimitSwap(_orderIDs[i],_blockIndex);\n            }\n        }else{\n            emit FailedCloseLimitSwap(_orderIDs);\n        }\n    }\n    function closeLimitSwap(bytes32 _orderID,uint256 _blockIndex) public {\n        (bool success,address userAddr,uint256 closePrice,uint256 closeType,uint256 plFlag, uint256 bsFlag, uint256 plAmount,uint256 tradeAmount, string memory symbol) = ISwapTrade(getModuleAddr(\"SWAPTRADE\")).closeLimitSwap(_orderID,_blockIndex);\n        if(success){\n            _closeSwap(closePrice, symbol, bsFlag, userAddr, plFlag, plAmount, tradeAmount);\n            emit CloseLimitSwap(userAddr,closePrice,closeType,plFlag,plAmount);\n        }\n    }\n\n    // \n    function updateSwapByPrice(bytes32 _orderID,uint256 _pLimitPrice,uint256 _lLimitPrice) public {\n        (uint256 pLimitRate,uint256 lLimitRate) = ISwapTrade(getModuleAddr(\"SWAPTRADE\")).updateSwapByPrice(msg.sender, _orderID,_pLimitPrice,_lLimitPrice);\n        emit UpdateSwap(pLimitRate, lLimitRate);\n    }\n\n    // \n    function updateSwapByRate(bytes32 _orderID,uint256 _pLimitRate,uint256 _lLimitRate) public {\n        (uint256 pLimitPrice,uint256 lLimitPrice) = ISwapTrade(getModuleAddr(\"SWAPTRADE\")).updateSwapByRate(msg.sender, _orderID,_pLimitRate,_lLimitRate);\n        emit UpdateSwap(pLimitPrice, lLimitPrice);\n    }  \n\n   // \n    function setOpenPrice(bytes32 _orderID) public onlyOwner{\n        (address userAddr, uint256 openPrice, string memory symbol, uint256 bsFlag, uint256 tokenAmount) = ISwapTrade(getModuleAddr(\"SWAPTRADE\")).setOrderPrice(_orderID);\n        _riskOrder(0, openPrice, symbol, bsFlag, tokenAmount);\n        emit SetOrderPrice(userAddr, _orderID, openPrice, block.timestamp);\n    } \n\n    function setValidBlocks(uint256 _valideBlocks) public onlyOwner {\n        ISwapTrade(getModuleAddr(\"SWAPTRADE\")).setValidBlocks(_valideBlocks);\n    }\n\n    function updateTicker(string memory _symbol, uint256 _price) public onlyOwner {\n        IRisk(getModuleAddr(\"RISK\")).ticker(_symbol, _price);\n    }\n\n    function emergencyWithdraw(address _tokenAddr, address _to, uint256 _amount) public onlyOwner {\n        TransferHelper.safeTransfer(_tokenAddr, _to, _amount);\n    }\n\n    // \n    function closeMarketByOwner(address _userAddr, bytes32 _orderID) public onlyOwner {\n        _closeMarketSwap(_userAddr, _orderID);\n    }\n\n    function _closeMarketSwap(address _userAddr, bytes32 _orderID) internal {\n        (uint256 closePrice,uint256 plFlag, uint256 bsFlag, uint256 plAmount,uint256 tradeAmount, string memory symbol) = ISwapTrade(getModuleAddr(\"SWAPTRADE\")).closeMarketSwap(_userAddr, _orderID);\n        _closeSwap(closePrice, symbol, bsFlag, _userAddr, plFlag, plAmount, tradeAmount);\n        emit CloseMarketSwap(_orderID, symbol, _userAddr, closePrice, plFlag, plAmount, block.timestamp);\n    }\n\n    function _closeSwap(uint256 _closePrice, string memory _symbol, uint256 _bsFlag, address _userAddr, uint256 _plFlag, uint256 _plAmount, uint256 _tradeAmount) internal {\n        IFund(getModuleAddr(\"FUND\")).tradePL(_plFlag, _plAmount);\n        if(_closePrice > 0) {\n            _riskOrder(1, _closePrice, _symbol, _bsFlag, _tradeAmount);\n        }\n        if(IPoolFactory(poolFactoryAddr).getStatus()){\n            if(_plFlag == 1) {\n                TransferHelper.safeTransferETH(_userAddr,_tradeAmount.add(_plAmount));\n            }else{\n                TransferHelper.safeTransferETH(_userAddr,_tradeAmount.sub(_plAmount));\n            }\n        }else{\n            TransferHelper.safeTransferETH(_userAddr,_tradeAmount);\n        }\n        if(_plFlag == 1){\n            IPoolFactory(poolFactoryAddr).updateBonus(2, _userAddr,_plAmount);\n        }\n    }\n\n    function _riskOrder(uint8 _riskType, uint256 _price, string memory _symbol, uint256 _bsFlag, uint256 _tokenAmount) internal {\n        bool longOrder = false;\n        if(_bsFlag == 1){\n            longOrder = true;\n        }\n        if(_riskType == 0){\n            IRisk(getModuleAddr(\"RISK\")).createOrder(_symbol, longOrder, _price, _tokenAmount);\n        }else{\n            IRisk(getModuleAddr(\"RISK\")).closeOrder(_symbol, longOrder, _price, _tokenAmount);\n        }\n    }\n\n    function _feeReceive() internal returns(uint256 fee) {\n        fee = IPoolFactory(poolFactoryAddr).getOpenFee();\n        require(msg.value >= fee, \"_feeReceive: insufficent for fee\");\n        if(fee > 0) {\n            address payable receiver = IPoolFactory(poolFactoryAddr).getFeeReceiver();\n            TransferHelper.safeTransferETH(receiver,fee);\n        }\n    }\n    \n    // \n    // function emergencyWithdraw() public {\n    //     uint256 tokenAmount = IFund(getModuleAddr(\"FUND\")).emergencyWithdraw(msg.sender);\n    //     IMine(getModuleAddr(\"MINE\")).emergencyWithdraw(msg.sender);\n    //     TransferHelper.safeTransferETH(msg.sender, tokenAmount);\n    //     emit EmergencyWithdraw(tokenAddr, msg.sender, tokenAmount);\n    // }  \n}\n",
  "sourcePath": "/Users/tong/Projects/drep-project/teemo-private/contracts/pool/TeemoWPool.sol",
  "compiler": {
    "name": "solc",
    "version": "0.6.12+commit.27d51765.Emscripten.clang"
  },
  "schemaVersion": "3.3.2",
  "updatedAt": "2021-01-25T05:45:37.382Z",
  "devdoc": {
    "kind": "dev",
    "methods": {
      "allowance(address,address)": {
        "details": "See {IERC20-allowance}."
      },
      "approve(address,uint256)": {
        "details": "See {IERC20-approve}. Requirements: - `spender` cannot be the zero address."
      },
      "balanceOf(address)": {
        "details": "See {IERC20-balanceOf}."
      },
      "decimals()": {
        "details": "Returns the number of decimals used to get its user representation. For example, if `decimals` equals `2`, a balance of `505` tokens should be displayed to a user as `5,05` (`505 / 10 ** 2`). Tokens usually opt for a value of 18, imitating the relationship between Ether and Wei. This is the value {ERC20} uses, unless {_setupDecimals} is called. NOTE: This information is only used for _display_ purposes: it in no way affects any of the arithmetic of the contract, including {IERC20-balanceOf} and {IERC20-transfer}."
      },
      "decreaseAllowance(address,uint256)": {
        "details": "Atomically decreases the allowance granted to `spender` by the caller. This is an alternative to {approve} that can be used as a mitigation for problems described in {IERC20-approve}. Emits an {Approval} event indicating the updated allowance. Requirements: - `spender` cannot be the zero address. - `spender` must have allowance for the caller of at least `subtractedValue`."
      },
      "increaseAllowance(address,uint256)": {
        "details": "Atomically increases the allowance granted to `spender` by the caller. This is an alternative to {approve} that can be used as a mitigation for problems described in {IERC20-approve}. Emits an {Approval} event indicating the updated allowance. Requirements: - `spender` cannot be the zero address."
      },
      "name()": {
        "details": "Returns the name of the token."
      },
      "owner()": {
        "details": "Returns the address of the current owner."
      },
      "renounceOwnership()": {
        "details": "Leaves the contract without owner. It will not be possible to call `onlyOwner` functions anymore. Can only be called by the current owner. NOTE: Renouncing ownership will leave the contract without an owner, thereby removing any functionality that is only available to the owner."
      },
      "symbol()": {
        "details": "Returns the symbol of the token, usually a shorter version of the name."
      },
      "totalSupply()": {
        "details": "See {IERC20-totalSupply}."
      },
      "transfer(address,uint256)": {
        "details": "See {IERC20-transfer}. Requirements: - `recipient` cannot be the zero address. - the caller must have a balance of at least `amount`."
      },
      "transferFrom(address,address,uint256)": {
        "details": "See {IERC20-transferFrom}. Emits an {Approval} event indicating the updated allowance. This is not required by the EIP. See the note at the beginning of {ERC20}; Requirements: - `sender` and `recipient` cannot be the zero address. - `sender` must have a balance of at least `amount`. - the caller must have allowance for ``sender``'s tokens of at least `amount`."
      },
      "transferOwnership(address)": {
        "details": "Transfers ownership of the contract to a new account (`newOwner`). Can only be called by the current owner."
      }
    },
    "version": 1
  },
  "userdoc": {
    "kind": "user",
    "methods": {},
    "version": 1
  }
}