{
  "contractName": "TeemoWPool",
  "abi": [
    {
      "anonymous": false,
      "inputs": [
        {
          "indexed": true,
          "internalType": "address",
          "name": "owner",
          "type": "address"
        },
        {
          "indexed": true,
          "internalType": "address",
          "name": "spender",
          "type": "address"
        },
        {
          "indexed": false,
          "internalType": "uint256",
          "name": "value",
          "type": "uint256"
        }
      ],
      "name": "Approval",
      "type": "event"
    },
    {
      "anonymous": false,
      "inputs": [
        {
          "indexed": true,
          "internalType": "uint256",
          "name": "tokenAmount",
          "type": "uint256"
        }
      ],
      "name": "CancelLimitSwap",
      "type": "event"
    },
    {
      "anonymous": false,
      "inputs": [
        {
          "indexed": true,
          "internalType": "address",
          "name": "userAddr",
          "type": "address"
        },
        {
          "indexed": true,
          "internalType": "uint256",
          "name": "closePrice",
          "type": "uint256"
        },
        {
          "indexed": true,
          "internalType": "uint256",
          "name": "closeType",
          "type": "uint256"
        },
        {
          "indexed": false,
          "internalType": "uint256",
          "name": "plFlag",
          "type": "uint256"
        },
        {
          "indexed": false,
          "internalType": "uint256",
          "name": "plAmount",
          "type": "uint256"
        }
      ],
      "name": "CloseLimitSwap",
      "type": "event"
    },
    {
      "anonymous": false,
      "inputs": [
        {
          "indexed": true,
          "internalType": "bytes32",
          "name": "orderID",
          "type": "bytes32"
        },
        {
          "indexed": false,
          "internalType": "string",
          "name": "symbol",
          "type": "string"
        },
        {
          "indexed": false,
          "internalType": "address",
          "name": "userAddr",
          "type": "address"
        },
        {
          "indexed": true,
          "internalType": "uint256",
          "name": "closePrice",
          "type": "uint256"
        },
        {
          "indexed": true,
          "internalType": "uint256",
          "name": "plFlag",
          "type": "uint256"
        },
        {
          "indexed": false,
          "internalType": "uint256",
          "name": "plAmount",
          "type": "uint256"
        }
      ],
      "name": "CloseMarketSwap",
      "type": "event"
    },
    {
      "anonymous": false,
      "inputs": [
        {
          "indexed": true,
          "internalType": "address",
          "name": "tokenAddr",
          "type": "address"
        },
        {
          "indexed": true,
          "internalType": "address",
          "name": "userAddr",
          "type": "address"
        },
        {
          "indexed": true,
          "internalType": "uint256",
          "name": "amount",
          "type": "uint256"
        }
      ],
      "name": "EmergencyWithdraw",
      "type": "event"
    },
    {
      "anonymous": false,
      "inputs": [
        {
          "indexed": true,
          "internalType": "bytes32[]",
          "name": "orderIDs",
          "type": "bytes32[]"
        }
      ],
      "name": "FailedCloseLimitSwap",
      "type": "event"
    },
    {
      "anonymous": false,
      "inputs": [
        {
          "indexed": true,
          "internalType": "bytes32[]",
          "name": "orderIDs",
          "type": "bytes32[]"
        }
      ],
      "name": "FailedTradeLimitSwap",
      "type": "event"
    },
    {
      "anonymous": false,
      "inputs": [
        {
          "indexed": false,
          "internalType": "address",
          "name": "_userAddr",
          "type": "address"
        },
        {
          "indexed": true,
          "internalType": "uint256",
          "name": "lpAmount",
          "type": "uint256"
        },
        {
          "indexed": true,
          "internalType": "uint256",
          "name": "teemoTokenAmount",
          "type": "uint256"
        }
      ],
      "name": "LPDeposit",
      "type": "event"
    },
    {
      "anonymous": false,
      "inputs": [
        {
          "indexed": false,
          "internalType": "address",
          "name": "_userAddr",
          "type": "address"
        },
        {
          "indexed": true,
          "internalType": "uint256",
          "name": "tokenAmount",
          "type": "uint256"
        }
      ],
      "name": "LPWithdraw",
      "type": "event"
    },
    {
      "anonymous": false,
      "inputs": [
        {
          "indexed": true,
          "internalType": "bytes32",
          "name": "orderID",
          "type": "bytes32"
        },
        {
          "indexed": true,
          "internalType": "uint256",
          "name": "openPrice",
          "type": "uint256"
        }
      ],
      "name": "OpenLimitSwap",
      "type": "event"
    },
    {
      "anonymous": false,
      "inputs": [
        {
          "indexed": true,
          "internalType": "bytes32",
          "name": "orderID",
          "type": "bytes32"
        },
        {
          "indexed": false,
          "internalType": "string",
          "name": "symbol",
          "type": "string"
        },
        {
          "indexed": true,
          "internalType": "uint256",
          "name": "openPrice",
          "type": "uint256"
        }
      ],
      "name": "OpenMarketSwap",
      "type": "event"
    },
    {
      "anonymous": false,
      "inputs": [
        {
          "indexed": true,
          "internalType": "address",
          "name": "previousOwner",
          "type": "address"
        },
        {
          "indexed": true,
          "internalType": "address",
          "name": "newOwner",
          "type": "address"
        }
      ],
      "name": "OwnershipTransferred",
      "type": "event"
    },
    {
      "anonymous": false,
      "inputs": [
        {
          "indexed": true,
          "internalType": "address",
          "name": "userAddr",
          "type": "address"
        },
        {
          "indexed": true,
          "internalType": "bytes32",
          "name": "_orderID",
          "type": "bytes32"
        },
        {
          "indexed": true,
          "internalType": "uint256",
          "name": "_price",
          "type": "uint256"
        }
      ],
      "name": "SetOrderPrice",
      "type": "event"
    },
    {
      "anonymous": false,
      "inputs": [
        {
          "indexed": false,
          "internalType": "address",
          "name": "_userAddr",
          "type": "address"
        },
        {
          "indexed": true,
          "internalType": "uint256",
          "name": "tokenAmount",
          "type": "uint256"
        },
        {
          "indexed": true,
          "internalType": "uint256",
          "name": "teemoTokenAmount",
          "type": "uint256"
        }
      ],
      "name": "StartMine",
      "type": "event"
    },
    {
      "anonymous": false,
      "inputs": [
        {
          "indexed": false,
          "internalType": "address",
          "name": "_userAddr",
          "type": "address"
        },
        {
          "indexed": true,
          "internalType": "uint256",
          "name": "tokenAmount",
          "type": "uint256"
        },
        {
          "indexed": true,
          "internalType": "uint256",
          "name": "teemoTokenAmount",
          "type": "uint256"
        }
      ],
      "name": "StopMine",
      "type": "event"
    },
    {
      "anonymous": false,
      "inputs": [
        {
          "indexed": true,
          "internalType": "address",
          "name": "success",
          "type": "address"
        },
        {
          "indexed": true,
          "internalType": "uint256",
          "name": "tokenAmount",
          "type": "uint256"
        }
      ],
      "name": "TradeLimitSwap",
      "type": "event"
    },
    {
      "anonymous": false,
      "inputs": [
        {
          "indexed": true,
          "internalType": "address",
          "name": "from",
          "type": "address"
        },
        {
          "indexed": true,
          "internalType": "address",
          "name": "to",
          "type": "address"
        },
        {
          "indexed": false,
          "internalType": "uint256",
          "name": "value",
          "type": "uint256"
        }
      ],
      "name": "Transfer",
      "type": "event"
    },
    {
      "anonymous": false,
      "inputs": [
        {
          "indexed": true,
          "internalType": "uint256",
          "name": "pLimitPrice",
          "type": "uint256"
        },
        {
          "indexed": true,
          "internalType": "uint256",
          "name": "lLimitPrice",
          "type": "uint256"
        }
      ],
      "name": "UpdateSwap",
      "type": "event"
    },
    {
      "inputs": [
        {
          "internalType": "string",
          "name": "",
          "type": "string"
        }
      ],
      "name": "allModuleInfo",
      "outputs": [
        {
          "internalType": "address",
          "name": "",
          "type": "address"
        }
      ],
      "stateMutability": "view",
      "type": "function"
    },
    {
      "inputs": [
        {
          "internalType": "address",
          "name": "owner",
          "type": "address"
        },
        {
          "internalType": "address",
          "name": "spender",
          "type": "address"
        }
      ],
      "name": "allowance",
      "outputs": [
        {
          "internalType": "uint256",
          "name": "",
          "type": "uint256"
        }
      ],
      "stateMutability": "view",
      "type": "function"
    },
    {
      "inputs": [
        {
          "internalType": "address",
          "name": "spender",
          "type": "address"
        },
        {
          "internalType": "uint256",
          "name": "amount",
          "type": "uint256"
        }
      ],
      "name": "approve",
      "outputs": [
        {
          "internalType": "bool",
          "name": "",
          "type": "bool"
        }
      ],
      "stateMutability": "nonpayable",
      "type": "function"
    },
    {
      "inputs": [
        {
          "internalType": "address",
          "name": "account",
          "type": "address"
        }
      ],
      "name": "balanceOf",
      "outputs": [
        {
          "internalType": "uint256",
          "name": "",
          "type": "uint256"
        }
      ],
      "stateMutability": "view",
      "type": "function"
    },
    {
      "inputs": [],
      "name": "decimals",
      "outputs": [
        {
          "internalType": "uint8",
          "name": "",
          "type": "uint8"
        }
      ],
      "stateMutability": "view",
      "type": "function"
    },
    {
      "inputs": [
        {
          "internalType": "address",
          "name": "spender",
          "type": "address"
        },
        {
          "internalType": "uint256",
          "name": "subtractedValue",
          "type": "uint256"
        }
      ],
      "name": "decreaseAllowance",
      "outputs": [
        {
          "internalType": "bool",
          "name": "",
          "type": "bool"
        }
      ],
      "stateMutability": "nonpayable",
      "type": "function"
    },
    {
      "inputs": [],
      "name": "fundAddr",
      "outputs": [
        {
          "internalType": "address",
          "name": "",
          "type": "address"
        }
      ],
      "stateMutability": "view",
      "type": "function"
    },
    {
      "inputs": [
        {
          "internalType": "address",
          "name": "spender",
          "type": "address"
        },
        {
          "internalType": "uint256",
          "name": "addedValue",
          "type": "uint256"
        }
      ],
      "name": "increaseAllowance",
      "outputs": [
        {
          "internalType": "bool",
          "name": "",
          "type": "bool"
        }
      ],
      "stateMutability": "nonpayable",
      "type": "function"
    },
    {
      "inputs": [],
      "name": "mainnetTokenAddr",
      "outputs": [
        {
          "internalType": "address",
          "name": "",
          "type": "address"
        }
      ],
      "stateMutability": "view",
      "type": "function"
    },
    {
      "inputs": [],
      "name": "mineAddr",
      "outputs": [
        {
          "internalType": "address",
          "name": "",
          "type": "address"
        }
      ],
      "stateMutability": "view",
      "type": "function"
    },
    {
      "inputs": [],
      "name": "name",
      "outputs": [
        {
          "internalType": "string",
          "name": "",
          "type": "string"
        }
      ],
      "stateMutability": "view",
      "type": "function"
    },
    {
      "inputs": [],
      "name": "owner",
      "outputs": [
        {
          "internalType": "address",
          "name": "",
          "type": "address"
        }
      ],
      "stateMutability": "view",
      "type": "function"
    },
    {
      "inputs": [],
      "name": "poolFactoryAddr",
      "outputs": [
        {
          "internalType": "address",
          "name": "",
          "type": "address"
        }
      ],
      "stateMutability": "view",
      "type": "function"
    },
    {
      "inputs": [],
      "name": "quoteFactoryAddr",
      "outputs": [
        {
          "internalType": "address",
          "name": "",
          "type": "address"
        }
      ],
      "stateMutability": "view",
      "type": "function"
    },
    {
      "inputs": [],
      "name": "renounceOwnership",
      "outputs": [],
      "stateMutability": "nonpayable",
      "type": "function"
    },
    {
      "inputs": [],
      "name": "riskAddr",
      "outputs": [
        {
          "internalType": "address",
          "name": "",
          "type": "address"
        }
      ],
      "stateMutability": "view",
      "type": "function"
    },
    {
      "inputs": [],
      "name": "swapTradeAddr",
      "outputs": [
        {
          "internalType": "address",
          "name": "",
          "type": "address"
        }
      ],
      "stateMutability": "view",
      "type": "function"
    },
    {
      "inputs": [],
      "name": "symbol",
      "outputs": [
        {
          "internalType": "string",
          "name": "",
          "type": "string"
        }
      ],
      "stateMutability": "view",
      "type": "function"
    },
    {
      "inputs": [],
      "name": "tokenAddr",
      "outputs": [
        {
          "internalType": "address",
          "name": "",
          "type": "address"
        }
      ],
      "stateMutability": "view",
      "type": "function"
    },
    {
      "inputs": [],
      "name": "totalSupply",
      "outputs": [
        {
          "internalType": "uint256",
          "name": "",
          "type": "uint256"
        }
      ],
      "stateMutability": "view",
      "type": "function"
    },
    {
      "inputs": [
        {
          "internalType": "address",
          "name": "recipient",
          "type": "address"
        },
        {
          "internalType": "uint256",
          "name": "amount",
          "type": "uint256"
        }
      ],
      "name": "transfer",
      "outputs": [
        {
          "internalType": "bool",
          "name": "",
          "type": "bool"
        }
      ],
      "stateMutability": "nonpayable",
      "type": "function"
    },
    {
      "inputs": [
        {
          "internalType": "address",
          "name": "sender",
          "type": "address"
        },
        {
          "internalType": "address",
          "name": "recipient",
          "type": "address"
        },
        {
          "internalType": "uint256",
          "name": "amount",
          "type": "uint256"
        }
      ],
      "name": "transferFrom",
      "outputs": [
        {
          "internalType": "bool",
          "name": "",
          "type": "bool"
        }
      ],
      "stateMutability": "nonpayable",
      "type": "function"
    },
    {
      "inputs": [
        {
          "internalType": "address",
          "name": "newOwner",
          "type": "address"
        }
      ],
      "name": "transferOwnership",
      "outputs": [],
      "stateMutability": "nonpayable",
      "type": "function"
    },
    {
      "inputs": [
        {
          "internalType": "address",
          "name": "_poolFactoryAddr",
          "type": "address"
        },
        {
          "internalType": "address",
          "name": "_quoteFactoryAddr",
          "type": "address"
        }
      ],
      "name": "initialize",
      "outputs": [],
      "stateMutability": "nonpayable",
      "type": "function"
    },
    {
      "inputs": [
        {
          "internalType": "string",
          "name": "_moduleName",
          "type": "string"
        },
        {
          "internalType": "address",
          "name": "_moduleAddr",
          "type": "address"
        }
      ],
      "name": "setModuleAddr",
      "outputs": [],
      "stateMutability": "nonpayable",
      "type": "function"
    },
    {
      "inputs": [
        {
          "internalType": "string",
          "name": "_moduleName",
          "type": "string"
        }
      ],
      "name": "getModuleAddr",
      "outputs": [
        {
          "internalType": "address",
          "name": "moduleAddr",
          "type": "address"
        }
      ],
      "stateMutability": "view",
      "type": "function"
    },
    {
      "inputs": [],
      "name": "getQuoteFactoryAddr",
      "outputs": [
        {
          "internalType": "address",
          "name": "",
          "type": "address"
        }
      ],
      "stateMutability": "view",
      "type": "function"
    },
    {
      "inputs": [
        {
          "internalType": "bool",
          "name": "mine",
          "type": "bool"
        }
      ],
      "name": "lpDeposit",
      "outputs": [],
      "stateMutability": "payable",
      "type": "function"
    },
    {
      "inputs": [
        {
          "internalType": "uint256",
          "name": "_lpAmount",
          "type": "uint256"
        }
      ],
      "name": "startMine",
      "outputs": [],
      "stateMutability": "nonpayable",
      "type": "function"
    },
    {
      "inputs": [
        {
          "internalType": "uint256",
          "name": "_lpAmount",
          "type": "uint256"
        }
      ],
      "name": "lpWithdraw",
      "outputs": [],
      "stateMutability": "nonpayable",
      "type": "function"
    },
    {
      "inputs": [
        {
          "internalType": "uint256",
          "name": "_lpAmount",
          "type": "uint256"
        }
      ],
      "name": "stopMine",
      "outputs": [],
      "stateMutability": "nonpayable",
      "type": "function"
    },
    {
      "inputs": [
        {
          "internalType": "string",
          "name": "_symbol",
          "type": "string"
        },
        {
          "internalType": "uint256",
          "name": "_limitPrice",
          "type": "uint256"
        },
        {
          "internalType": "uint256",
          "name": "_lever",
          "type": "uint256"
        },
        {
          "internalType": "uint256",
          "name": "_bsFlag",
          "type": "uint256"
        },
        {
          "internalType": "uint256",
          "name": "_pLimitPrice",
          "type": "uint256"
        },
        {
          "internalType": "uint256",
          "name": "_lLimitPrice",
          "type": "uint256"
        }
      ],
      "name": "openLimitSwap",
      "outputs": [],
      "stateMutability": "payable",
      "type": "function"
    },
    {
      "inputs": [
        {
          "internalType": "bytes32",
          "name": "_orderID",
          "type": "bytes32"
        }
      ],
      "name": "cancelLimitSwap",
      "outputs": [],
      "stateMutability": "nonpayable",
      "type": "function"
    },
    {
      "inputs": [
        {
          "internalType": "bytes32[]",
          "name": "_orderIDs",
          "type": "bytes32[]"
        }
      ],
      "name": "tradeLimitSwaps",
      "outputs": [],
      "stateMutability": "nonpayable",
      "type": "function"
    },
    {
      "inputs": [
        {
          "internalType": "bytes32",
          "name": "_orderID",
          "type": "bytes32"
        },
        {
          "internalType": "uint256",
          "name": "_blockIndex",
          "type": "uint256"
        }
      ],
      "name": "tradeLimitSwap",
      "outputs": [],
      "stateMutability": "nonpayable",
      "type": "function"
    },
    {
      "inputs": [
        {
          "internalType": "string",
          "name": "_symbol",
          "type": "string"
        },
        {
          "internalType": "uint256",
          "name": "_lever",
          "type": "uint256"
        },
        {
          "internalType": "uint256",
          "name": "_bsFlag",
          "type": "uint256"
        },
        {
          "internalType": "uint256",
          "name": "_pLimitPrice",
          "type": "uint256"
        },
        {
          "internalType": "uint256",
          "name": "_lLimitPrice",
          "type": "uint256"
        },
        {
          "internalType": "uint256",
          "name": "_maxPrice",
          "type": "uint256"
        }
      ],
      "name": "openMarketSwap",
      "outputs": [],
      "stateMutability": "payable",
      "type": "function"
    },
    {
      "inputs": [
        {
          "internalType": "bytes32",
          "name": "_orderID",
          "type": "bytes32"
        }
      ],
      "name": "closeMarketSwap",
      "outputs": [],
      "stateMutability": "nonpayable",
      "type": "function"
    },
    {
      "inputs": [
        {
          "internalType": "bytes32[]",
          "name": "_orderIDs",
          "type": "bytes32[]"
        }
      ],
      "name": "closeLimitSwaps",
      "outputs": [],
      "stateMutability": "nonpayable",
      "type": "function"
    },
    {
      "inputs": [
        {
          "internalType": "bytes32",
          "name": "_orderID",
          "type": "bytes32"
        },
        {
          "internalType": "uint256",
          "name": "_blockIndex",
          "type": "uint256"
        }
      ],
      "name": "closeLimitSwap",
      "outputs": [],
      "stateMutability": "nonpayable",
      "type": "function"
    },
    {
      "inputs": [
        {
          "internalType": "bytes32",
          "name": "_orderID",
          "type": "bytes32"
        },
        {
          "internalType": "uint256",
          "name": "_pLimitPrice",
          "type": "uint256"
        },
        {
          "internalType": "uint256",
          "name": "_lLimitPrice",
          "type": "uint256"
        }
      ],
      "name": "updateSwapByPrice",
      "outputs": [],
      "stateMutability": "nonpayable",
      "type": "function"
    },
    {
      "inputs": [
        {
          "internalType": "bytes32",
          "name": "_orderID",
          "type": "bytes32"
        },
        {
          "internalType": "uint256",
          "name": "_pLimitRate",
          "type": "uint256"
        },
        {
          "internalType": "uint256",
          "name": "_lLimitRate",
          "type": "uint256"
        }
      ],
      "name": "updateSwapByRate",
      "outputs": [],
      "stateMutability": "nonpayable",
      "type": "function"
    },
    {
      "inputs": [
        {
          "internalType": "bytes32",
          "name": "_orderID",
          "type": "bytes32"
        }
      ],
      "name": "setOpenPrice",
      "outputs": [
        {
          "internalType": "address",
          "name": "userAddr",
          "type": "address"
        },
        {
          "internalType": "uint256",
          "name": "openPrice",
          "type": "uint256"
        }
      ],
      "stateMutability": "nonpayable",
      "type": "function"
    },
    {
      "inputs": [
        {
          "internalType": "address",
          "name": "_userAddr",
          "type": "address"
        },
        {
          "internalType": "bytes32",
          "name": "_orderID",
          "type": "bytes32"
        }
      ],
      "name": "closeMarketByOwner",
      "outputs": [],
      "stateMutability": "nonpayable",
      "type": "function"
    },
    {
      "inputs": [
        {
          "internalType": "uint256",
          "name": "_valideBlocks",
          "type": "uint256"
        }
      ],
      "name": "setValidBlocks",
      "outputs": [],
      "stateMutability": "nonpayable",
      "type": "function"
    }
  ],
  "bytecode": "0x60806040523480156200001157600080fd5b506040518060400160405280600581526020017f544d4f4c500000000000000000000000000000000000000000000000000000008152506040518060400160405280600581526020017f544d4f4c500000000000000000000000000000000000000000000000000000008152508160039080519060200190620000969291906200018d565b508060049080519060200190620000af9291906200018d565b506012600560006101000a81548160ff021916908360ff16021790555050506000620000e06200018560201b60201c565b905080600560016101000a81548173ffffffffffffffffffffffffffffffffffffffff021916908373ffffffffffffffffffffffffffffffffffffffff1602179055508073ffffffffffffffffffffffffffffffffffffffff16600073ffffffffffffffffffffffffffffffffffffffff167f8be0079c531659141344cd1fd0a4f28419497f9722a3daafe3b4186f6b6457e060405160405180910390a35062000233565b600033905090565b828054600181600116156101000203166002900490600052602060002090601f016020900481019282601f10620001d057805160ff191683800117855562000201565b8280016001018555821562000201579182015b8281111562000200578251825591602001919060010190620001e3565b5b50905062000210919062000214565b5090565b5b808211156200022f57600081600090555060010162000215565b5090565b61598580620002436000396000f3fe6080604052600436106102675760003560e01c80638da5cb5b11610144578063c554ebcb116100b6578063eadb2bdd1161007a578063eadb2bdd14610944578063f28342f71461096d578063f2fde38b14610998578063f46e5bdd146109c1578063f5852039146109dd578063f696ec7914610a0857610267565b8063c554ebcb1461084f578063cee87f5f1461088c578063dc58bd72146108b5578063dd62ed3e146108de578063e2d563591461091b57610267565b8063a16098c011610108578063a16098c014610717578063a457c2d714610742578063a9059cbb1461077f578063afcfb11a146107bc578063b06b9fbe146107e7578063bb294b601461081257610267565b80638da5cb5b146106465780638edc2e371461067157806395d89b411461069a5780639aa9e7d2146106c55780639ff24296146106ee57610267565b8063485cc955116101dd57806369cd5595116101a157806369cd5595146105375780636f8d2d841461056057806370a082311461059e578063715018a6146105db5780638268b8dd146105f257806385006ba21461061d57610267565b8063485cc9551461046457806358aafa3d1461048d5780635fbe4d1d146104b857806363d24aa7146104e3578063682cb9111461050c57610267565b806323b872dd1161022f57806323b872dd14610351578063252f6adf1461038e578063313ce567146103b757806339509351146103e257806339fe0e7e1461041f5780633d3f25171461043b57610267565b806306fdde031461026c578063095ea7b31461029757806309a5d5bf146102d457806318160ddd146102fd57806322dbfdca14610328575b600080fd5b34801561027857600080fd5b50610281610a24565b60405161028e91906153d3565b60405180910390f35b3480156102a357600080fd5b506102be60048036038101906102b991906144bb565b610ac6565b6040516102cb9190615306565b60405180910390f35b3480156102e057600080fd5b506102fb60048036038101906102f69190614915565b610ae4565b005b34801561030957600080fd5b50610312610bf3565b60405161031f91906155f1565b60405180910390f35b34801561033457600080fd5b5061034f600480360381019061034a9190614718565b610bfd565b005b34801561035d57600080fd5b5061037860048036038101906103739190614430565b610d3c565b6040516103859190615306565b60405180910390f35b34801561039a57600080fd5b506103b560048036038101906103b0919061447f565b610e15565b005b3480156103c357600080fd5b506103cc610fc5565b6040516103d99190615635565b60405180910390f35b3480156103ee57600080fd5b50610409600480360381019061040491906144bb565b610fdc565b6040516104169190615306565b60405180910390f35b61043960048036038101906104349190614574565b61108f565b005b34801561044757600080fd5b50610462600480360381019061045d9190614718565b6114eb565b005b34801561047057600080fd5b5061048b600480360381019061048691906143f4565b6115fe565b005b34801561049957600080fd5b506104a261179f565b6040516104af91906150c4565b60405180910390f35b3480156104c457600080fd5b506104cd6117c9565b6040516104da91906150c4565b60405180910390f35b3480156104ef57600080fd5b5061050a60048036038101906105059190614533565b6117ef565b005b34801561051857600080fd5b5061052161192a565b60405161052e91906150c4565b60405180910390f35b34801561054357600080fd5b5061055e600480360381019061055991906146ef565b611950565b005b34801561056c57600080fd5b50610587600480360381019061058291906146ef565b611a68565b604051610595929190615276565b60405180910390f35b3480156105aa57600080fd5b506105c560048036038101906105c091906143cb565b611c00565b6040516105d291906155f1565b60405180910390f35b3480156105e757600080fd5b506105f0611c48565b005b3480156105fe57600080fd5b50610607611da0565b60405161061491906150c4565b60405180910390f35b34801561062957600080fd5b50610644600480360381019061063f9190614790565b611dc6565b005b34801561065257600080fd5b5061065b611eb4565b60405161066891906150c4565b60405180910390f35b34801561067d57600080fd5b5061069860048036038101906106939190614533565b611ede565b005b3480156106a657600080fd5b506106af612019565b6040516106bc91906153d3565b60405180910390f35b3480156106d157600080fd5b506106ec60048036038101906106e79190614915565b6120bb565b005b3480156106fa57600080fd5b5061071560048036038101906107109190614915565b61240d565b005b34801561072357600080fd5b5061072c612760565b60405161073991906150c4565b60405180910390f35b34801561074e57600080fd5b50610769600480360381019061076491906144bb565b612786565b6040516107769190615306565b60405180910390f35b34801561078b57600080fd5b506107a660048036038101906107a191906144bb565b612853565b6040516107b39190615306565b60405180910390f35b3480156107c857600080fd5b506107d1612871565b6040516107de91906150c4565b60405180910390f35b3480156107f357600080fd5b506107fc612897565b60405161080991906150c4565b60405180910390f35b34801561081e57600080fd5b50610839600480360381019061083491906147df565b6128bd565b60405161084691906150c4565b60405180910390f35b34801561085b57600080fd5b50610876600480360381019061087191906147df565b612906565b60405161088391906150c4565b60405180910390f35b34801561089857600080fd5b506108b360048036038101906108ae91906146ef565b6129be565b005b3480156108c157600080fd5b506108dc60048036038101906108d79190614790565b612ae9565b005b3480156108ea57600080fd5b50610905600480360381019061090091906143f4565b612bd7565b60405161091291906155f1565b60405180910390f35b34801561092757600080fd5b50610942600480360381019061093d9190614820565b612c5e565b005b34801561095057600080fd5b5061096b60048036038101906109669190614915565b612fb9565b005b34801561097957600080fd5b506109826130e0565b60405161098f91906150c4565b60405180910390f35b3480156109a457600080fd5b506109bf60048036038101906109ba91906143cb565b613106565b005b6109db60048036038101906109d69190614874565b6132cd565b005b3480156109e957600080fd5b506109f26133d1565b6040516109ff91906150c4565b60405180910390f35b610a226004803603810190610a1d9190614874565b6133f7565b005b606060038054600181600116156101000203166002900480601f016020809104026020016040519081016040528092919081815260200182805460018160011615610100020316600290048015610abc5780601f10610a9157610100808354040283529160200191610abc565b820191906000526020600020905b815481529060010190602001808311610a9f57829003601f168201915b5050505050905090565b6000610ada610ad36134f0565b84846134f8565b6001905092915050565b610af0303330846136c3565b6000600b60009054906101000a900473ffffffffffffffffffffffffffffffffffffffff1673ffffffffffffffffffffffffffffffffffffffff1663f3fef3a333846040518363ffffffff1660e01b8152600401610b4f9291906151ed565b602060405180830381600087803b158015610b6957600080fd5b505af1158015610b7d573d6000803e3d6000fd5b505050506040513d601f19601f82011682018060405250810190610ba1919061493e565b9050610bad30836137fd565b610bb733826139ab565b807fec6b5f6209de8a40ef6115a103a7312d2e22f043a81da1965a5038c95753742e33604051610be791906150df565b60405180910390a25050565b6000600254905090565b6000806000806000806000600d60009054906101000a900473ffffffffffffffffffffffffffffffffffffffff1673ffffffffffffffffffffffffffffffffffffffff166322dbfdca8a8a6040518363ffffffff1660e01b8152600401610c6592919061533c565b60e060405180830381600087803b158015610c7f57600080fd5b505af1158015610c93573d6000803e3d6000fd5b505050506040513d601f19601f82011682018060405250810190610cb79190614615565b9650965096509650965096509650600115158715151415610d3157610cde86848484613aa9565b83858773ffffffffffffffffffffffffffffffffffffffff167f1631bac4756e0c03f6c433a46f1eab5c1caf99854cc351c23dc3eec9fc5d26d08686604051610d2892919061560c565b60405180910390a45b505050505050505050565b6000610d49848484613cd0565b610e0a84610d556134f0565b610e058560405180606001604052806028815260200161590360289139600160008b73ffffffffffffffffffffffffffffffffffffffff1673ffffffffffffffffffffffffffffffffffffffff1681526020019081526020016000206000610dbb6134f0565b73ffffffffffffffffffffffffffffffffffffffff1673ffffffffffffffffffffffffffffffffffffffff16815260200190815260200160002054613f659092919063ffffffff16565b6134f8565b600190509392505050565b610e1d6134f0565b73ffffffffffffffffffffffffffffffffffffffff16600560019054906101000a900473ffffffffffffffffffffffffffffffffffffffff1673ffffffffffffffffffffffffffffffffffffffff1614610eac576040517f08c379a0000000000000000000000000000000000000000000000000000000008152600401610ea390615511565b60405180910390fd5b6000806000806060600d60009054906101000a900473ffffffffffffffffffffffffffffffffffffffff1673ffffffffffffffffffffffffffffffffffffffff16631e2a565b88886040518363ffffffff1660e01b8152600401610f1192919061524d565b600060405180830381600087803b158015610f2b57600080fd5b505af1158015610f3f573d6000803e3d6000fd5b505050506040513d6000823e3d601f19601f82011682018060405250810190610f6891906149a3565b94509450945094509450610f7e87858585613aa9565b8385877f6316c994971506a5470aeacc33e966cab0826d565427926a14495b693aeee830848b88604051610fb493929190615433565b60405180910390a450505050505050565b6000600560009054906101000a900460ff16905090565b6000611085610fe96134f0565b846110808560016000610ffa6134f0565b73ffffffffffffffffffffffffffffffffffffffff1673ffffffffffffffffffffffffffffffffffffffff16815260200190815260200160002060008973ffffffffffffffffffffffffffffffffffffffff1673ffffffffffffffffffffffffffffffffffffffff16815260200190815260200160002054613fc090919063ffffffff16565b6134f8565b6001905092915050565b6000600b60009054906101000a900473ffffffffffffffffffffffffffffffffffffffff1673ffffffffffffffffffffffffffffffffffffffff166347e7ef2433346040518363ffffffff1660e01b81526004016110ee9291906151ed565b602060405180830381600087803b15801561110857600080fd5b505af115801561111c573d6000803e3d6000fd5b505050506040513d601f19601f82011682018060405250810190611140919061493e565b9050600015158215151415611198576111593382614015565b6000817f991d73f5e17d46d419b8d00ea1ba02099a33278bef6ba16f591c3869fc6658423360405161118b91906150df565b60405180910390a36114e7565b6111a23082614015565b600080600e60009054906101000a900473ffffffffffffffffffffffffffffffffffffffff1673ffffffffffffffffffffffffffffffffffffffff166347e7ef2433856040518363ffffffff1660e01b81526004016112029291906151ed565b6040805180830381600087803b15801561121b57600080fd5b505af115801561122f573d6000803e3d6000fd5b505050506040513d601f19601f820116820180604052508101906112539190614967565b91509150600860009054906101000a900473ffffffffffffffffffffffffffffffffffffffff1673ffffffffffffffffffffffffffffffffffffffff16634e69d5606040518163ffffffff1660e01b815260040160206040518083038186803b1580156112bf57600080fd5b505afa1580156112d3573d6000803e3d6000fd5b505050506040513d601f19601f820116820180604052508101906112f7919061459d565b1561141957600860009054906101000a900473ffffffffffffffffffffffffffffffffffffffff1673ffffffffffffffffffffffffffffffffffffffff1663c634d032836040518263ffffffff1660e01b815260040161135791906155f1565b600060405180830381600087803b15801561137157600080fd5b505af1158015611385573d6000803e3d6000fd5b50505050600860009054906101000a900473ffffffffffffffffffffffffffffffffffffffff1673ffffffffffffffffffffffffffffffffffffffff1663cd049a9333836040518363ffffffff1660e01b81526004016113e69291906151ed565b600060405180830381600087803b15801561140057600080fd5b505af1158015611414573d6000803e3d6000fd5b505050505b600860009054906101000a900473ffffffffffffffffffffffffffffffffffffffff1673ffffffffffffffffffffffffffffffffffffffff16635cb45541600033846040518463ffffffff1660e01b815260040161147993929190615365565b600060405180830381600087803b15801561149357600080fd5b505af11580156114a7573d6000803e3d6000fd5b5050505080837f991d73f5e17d46d419b8d00ea1ba02099a33278bef6ba16f591c3869fc665842336040516114dc91906150df565b60405180910390a350505b5050565b6000806000600d60009054906101000a900473ffffffffffffffffffffffffffffffffffffffff1673ffffffffffffffffffffffffffffffffffffffff16633d3f251786866040518363ffffffff1660e01b815260040161154d92919061533c565b606060405180830381600087803b15801561156757600080fd5b505af115801561157b573d6000803e3d6000fd5b505050506040513d601f19601f8201168201806040525081019061159f91906145c6565b9250925092506001151583151514156115f757808273ffffffffffffffffffffffffffffffffffffffff167f60b3f5c3416dc0099a7252e08ee74dfa33c0444317f770740cdffce1526d4e3760405160405180910390a35b5050505050565b6116066134f0565b73ffffffffffffffffffffffffffffffffffffffff16600560019054906101000a900473ffffffffffffffffffffffffffffffffffffffff1673ffffffffffffffffffffffffffffffffffffffff1614611695576040517f08c379a000000000000000000000000000000000000000000000000000000000815260040161168c90615511565b60405180910390fd5b6000600660006101000a81548173ffffffffffffffffffffffffffffffffffffffff021916908373ffffffffffffffffffffffffffffffffffffffff1602179055506000600760006101000a81548173ffffffffffffffffffffffffffffffffffffffff021916908373ffffffffffffffffffffffffffffffffffffffff16021790555081600860006101000a81548173ffffffffffffffffffffffffffffffffffffffff021916908373ffffffffffffffffffffffffffffffffffffffff16021790555080600960006101000a81548173ffffffffffffffffffffffffffffffffffffffff021916908373ffffffffffffffffffffffffffffffffffffffff1602179055505050565b6000600960009054906101000a900473ffffffffffffffffffffffffffffffffffffffff16905090565b600660009054906101000a900473ffffffffffffffffffffffffffffffffffffffff1681565b600080600d60009054906101000a900473ffffffffffffffffffffffffffffffffffffffff1673ffffffffffffffffffffffffffffffffffffffff1663bfc564e8846040518263ffffffff1660e01b815260040161184d91906152e4565b604080518083038186803b15801561186457600080fd5b505afa158015611878573d6000803e3d6000fd5b505050506040513d601f19601f8201168201806040525081019061189c91906146b3565b9150915081156118e25760005b83518110156118dc576118cf8482815181106118c157fe5b602002602001015183610bfd565b80806001019150506118a9565b50611925565b826040516118f0919061507f565b60405180910390207f6e29a260a8215ad988d22e2cdebba1d4e5215885b2449ee6318cedf160d0945460405160405180910390a25b505050565b600b60009054906101000a900473ffffffffffffffffffffffffffffffffffffffff1681565b6000806000806060600d60009054906101000a900473ffffffffffffffffffffffffffffffffffffffff1673ffffffffffffffffffffffffffffffffffffffff16631e2a565b33886040518363ffffffff1660e01b81526004016119b59291906150fa565b600060405180830381600087803b1580156119cf57600080fd5b505af11580156119e3573d6000803e3d6000fd5b505050506040513d6000823e3d601f19601f82011682018060405250810190611a0c91906149a3565b94509450945094509450611a2233858585613aa9565b8385877f6316c994971506a5470aeacc33e966cab0826d565427926a14495b693aeee830843388604051611a58939291906153f5565b60405180910390a4505050505050565b600080611a736134f0565b73ffffffffffffffffffffffffffffffffffffffff16600560019054906101000a900473ffffffffffffffffffffffffffffffffffffffff1673ffffffffffffffffffffffffffffffffffffffff1614611b02576040517f08c379a0000000000000000000000000000000000000000000000000000000008152600401611af990615511565b60405180910390fd5b600d60009054906101000a900473ffffffffffffffffffffffffffffffffffffffff1673ffffffffffffffffffffffffffffffffffffffff1663509efd64846040518263ffffffff1660e01b8152600401611b5d9190615321565b6040805180830381600087803b158015611b7657600080fd5b505af1158015611b8a573d6000803e3d6000fd5b505050506040513d601f19601f82011682018060405250810190611bae91906144f7565b809250819350505080838373ffffffffffffffffffffffffffffffffffffffff167f8185c276a1c0637020430f8bcec2244f0cc67428b23d07d89128d6b900b5d38960405160405180910390a4915091565b60008060008373ffffffffffffffffffffffffffffffffffffffff1673ffffffffffffffffffffffffffffffffffffffff168152602001908152602001600020549050919050565b611c506134f0565b73ffffffffffffffffffffffffffffffffffffffff16600560019054906101000a900473ffffffffffffffffffffffffffffffffffffffff1673ffffffffffffffffffffffffffffffffffffffff1614611cdf576040517f08c379a0000000000000000000000000000000000000000000000000000000008152600401611cd690615511565b60405180910390fd5b600073ffffffffffffffffffffffffffffffffffffffff16600560019054906101000a900473ffffffffffffffffffffffffffffffffffffffff1673ffffffffffffffffffffffffffffffffffffffff167f8be0079c531659141344cd1fd0a4f28419497f9722a3daafe3b4186f6b6457e060405160405180910390a36000600560016101000a81548173ffffffffffffffffffffffffffffffffffffffff021916908373ffffffffffffffffffffffffffffffffffffffff160217905550565b600760009054906101000a900473ffffffffffffffffffffffffffffffffffffffff1681565b600080600d60009054906101000a900473ffffffffffffffffffffffffffffffffffffffff1673ffffffffffffffffffffffffffffffffffffffff166334772557338787876040518563ffffffff1660e01b8152600401611e2a9493929190615123565b6040805180830381600087803b158015611e4357600080fd5b505af1158015611e57573d6000803e3d6000fd5b505050506040513d601f19601f82011682018060405250810190611e7b9190614967565b9150915080827f634910b514717fe132500771fb9e0ca49e263609b88f4cc5aa1c6507b4e0bede60405160405180910390a35050505050565b6000600560019054906101000a900473ffffffffffffffffffffffffffffffffffffffff16905090565b600080600d60009054906101000a900473ffffffffffffffffffffffffffffffffffffffff1673ffffffffffffffffffffffffffffffffffffffff1663bfc564e8846040518263ffffffff1660e01b8152600401611f3c91906152e4565b604080518083038186803b158015611f5357600080fd5b505afa158015611f67573d6000803e3d6000fd5b505050506040513d601f19601f82011682018060405250810190611f8b91906146b3565b915091508115611fd15760005b8351811015611fcb57611fbe848281518110611fb057fe5b6020026020010151836114eb565b8080600101915050611f98565b50612014565b82604051611fdf919061507f565b60405180910390207f202ececce4ec8527e534b19e88bed7d30e89196abc6815c8f7f71aae3ff11a4460405160405180910390a25b505050565b606060048054600181600116156101000203166002900480601f0160208091040260200160405190810160405280929190818152602001828054600181600116156101000203166002900480156120b15780601f10612086576101008083540402835291602001916120b1565b820191906000526020600020905b81548152906001019060200180831161209457829003601f168201915b5050505050905090565b600080600e60009054906101000a900473ffffffffffffffffffffffffffffffffffffffff1673ffffffffffffffffffffffffffffffffffffffff1663f3fef3a333856040518363ffffffff1660e01b815260040161211b9291906151ed565b6040805180830381600087803b15801561213457600080fd5b505af1158015612148573d6000803e3d6000fd5b505050506040513d601f19601f8201168201806040525081019061216c9190614967565b9150915061217a3384612853565b50600860009054906101000a900473ffffffffffffffffffffffffffffffffffffffff1673ffffffffffffffffffffffffffffffffffffffff16634e69d5606040518163ffffffff1660e01b815260040160206040518083038186803b1580156121e357600080fd5b505afa1580156121f7573d6000803e3d6000fd5b505050506040513d601f19601f8201168201806040525081019061221b919061459d565b1561233d57600860009054906101000a900473ffffffffffffffffffffffffffffffffffffffff1673ffffffffffffffffffffffffffffffffffffffff1663c634d032836040518263ffffffff1660e01b815260040161227b91906155f1565b600060405180830381600087803b15801561229557600080fd5b505af11580156122a9573d6000803e3d6000fd5b50505050600860009054906101000a900473ffffffffffffffffffffffffffffffffffffffff1673ffffffffffffffffffffffffffffffffffffffff1663cd049a9333836040518363ffffffff1660e01b815260040161230a9291906151ed565b600060405180830381600087803b15801561232457600080fd5b505af1158015612338573d6000803e3d6000fd5b505050505b600860009054906101000a900473ffffffffffffffffffffffffffffffffffffffff1673ffffffffffffffffffffffffffffffffffffffff16635cb45541600033846040518463ffffffff1660e01b815260040161239d93929190615365565b600060405180830381600087803b1580156123b757600080fd5b505af11580156123cb573d6000803e3d6000fd5b5050505080837fc10b273d1e1478889bf14cfc20976c0178f47d6164f92d53745fe0c67988201f3360405161240091906150df565b60405180910390a3505050565b612419303330846136c3565b600080600e60009054906101000a900473ffffffffffffffffffffffffffffffffffffffff1673ffffffffffffffffffffffffffffffffffffffff166347e7ef2433856040518363ffffffff1660e01b81526004016124799291906151ed565b6040805180830381600087803b15801561249257600080fd5b505af11580156124a6573d6000803e3d6000fd5b505050506040513d601f19601f820116820180604052508101906124ca9190614967565b91509150600860009054906101000a900473ffffffffffffffffffffffffffffffffffffffff1673ffffffffffffffffffffffffffffffffffffffff16634e69d5606040518163ffffffff1660e01b815260040160206040518083038186803b15801561253657600080fd5b505afa15801561254a573d6000803e3d6000fd5b505050506040513d601f19601f8201168201806040525081019061256e919061459d565b1561269057600860009054906101000a900473ffffffffffffffffffffffffffffffffffffffff1673ffffffffffffffffffffffffffffffffffffffff1663c634d032836040518263ffffffff1660e01b81526004016125ce91906155f1565b600060405180830381600087803b1580156125e857600080fd5b505af11580156125fc573d6000803e3d6000fd5b50505050600860009054906101000a900473ffffffffffffffffffffffffffffffffffffffff1673ffffffffffffffffffffffffffffffffffffffff1663cd049a9333836040518363ffffffff1660e01b815260040161265d9291906151ed565b600060405180830381600087803b15801561267757600080fd5b505af115801561268b573d6000803e3d6000fd5b505050505b600860009054906101000a900473ffffffffffffffffffffffffffffffffffffffff1673ffffffffffffffffffffffffffffffffffffffff16635cb45541600033846040518463ffffffff1660e01b81526004016126f093929190615365565b600060405180830381600087803b15801561270a57600080fd5b505af115801561271e573d6000803e3d6000fd5b5050505081837fab5f5548654b65d796f84aaee73cdd7fea9a28bf7a29fb80cb4451425797b4e63360405161275391906150df565b60405180910390a3505050565b600d60009054906101000a900473ffffffffffffffffffffffffffffffffffffffff1681565b60006128496127936134f0565b846128448560405180606001604052806025815260200161592b60259139600160006127bd6134f0565b73ffffffffffffffffffffffffffffffffffffffff1673ffffffffffffffffffffffffffffffffffffffff16815260200190815260200160002060008a73ffffffffffffffffffffffffffffffffffffffff1673ffffffffffffffffffffffffffffffffffffffff16815260200190815260200160002054613f659092919063ffffffff16565b6134f8565b6001905092915050565b60006128676128606134f0565b8484613cd0565b6001905092915050565b600960009054906101000a900473ffffffffffffffffffffffffffffffffffffffff1681565b600860009054906101000a900473ffffffffffffffffffffffffffffffffffffffff1681565b600a818051602081018201805184825260208301602085012081835280955050505050506000915054906101000a900473ffffffffffffffffffffffffffffffffffffffff1681565b6000600a8260405161291891906150ad565b908152602001604051809103902060009054906101000a900473ffffffffffffffffffffffffffffffffffffffff169050600073ffffffffffffffffffffffffffffffffffffffff168173ffffffffffffffffffffffffffffffffffffffff1614156129b9576040517f08c379a00000000000000000000000000000000000000000000000000000000081526004016129b090615491565b60405180910390fd5b919050565b6000600d60009054906101000a900473ffffffffffffffffffffffffffffffffffffffff1673ffffffffffffffffffffffffffffffffffffffff1663fd0ceefb33846040518363ffffffff1660e01b8152600401612a1d9291906150fa565b602060405180830381600087803b158015612a3757600080fd5b505af1158015612a4b573d6000803e3d6000fd5b505050506040513d601f19601f82011682018060405250810190612a6f919061493e565b90503373ffffffffffffffffffffffffffffffffffffffff166108fc829081150290604051600060405180830381858888f19350505050158015612ab7573d6000803e3d6000fd5b50807fde92ebff3e22b9f7cb899264130ad9f45c1b3c0dd3cd3b222814e343fafa22b960405160405180910390a25050565b600080600d60009054906101000a900473ffffffffffffffffffffffffffffffffffffffff1673ffffffffffffffffffffffffffffffffffffffff166326b3e792338787876040518563ffffffff1660e01b8152600401612b4d9493929190615123565b6040805180830381600087803b158015612b6657600080fd5b505af1158015612b7a573d6000803e3d6000fd5b505050506040513d601f19601f82011682018060405250810190612b9e9190614967565b9150915080827f634910b514717fe132500771fb9e0ca49e263609b88f4cc5aa1c6507b4e0bede60405160405180910390a35050505050565b6000600160008473ffffffffffffffffffffffffffffffffffffffff1673ffffffffffffffffffffffffffffffffffffffff16815260200190815260200160002060008373ffffffffffffffffffffffffffffffffffffffff1673ffffffffffffffffffffffffffffffffffffffff16815260200190815260200160002054905092915050565b612c666134f0565b73ffffffffffffffffffffffffffffffffffffffff16600560019054906101000a900473ffffffffffffffffffffffffffffffffffffffff1673ffffffffffffffffffffffffffffffffffffffff1614612cf5576040517f08c379a0000000000000000000000000000000000000000000000000000000008152600401612cec90615511565b60405180910390fd5b80600a83604051612d0691906150ad565b908152602001604051809103902060006101000a81548173ffffffffffffffffffffffffffffffffffffffff021916908373ffffffffffffffffffffffffffffffffffffffff1602179055506040518060400160405280600481526020017f46554e44000000000000000000000000000000000000000000000000000000008152508051906020012082805190602001201415612deb57612da682612906565b600b60006101000a81548173ffffffffffffffffffffffffffffffffffffffff021916908373ffffffffffffffffffffffffffffffffffffffff160217905550612fb5565b6040518060400160405280600481526020017f5249534b000000000000000000000000000000000000000000000000000000008152508051906020012082805190602001201415612e8457612e3f82612906565b600c60006101000a81548173ffffffffffffffffffffffffffffffffffffffff021916908373ffffffffffffffffffffffffffffffffffffffff160217905550612fb4565b6040518060400160405280600981526020017f53574150545241444500000000000000000000000000000000000000000000008152508051906020012082805190602001201415612f1d57612ed882612906565b600d60006101000a81548173ffffffffffffffffffffffffffffffffffffffff021916908373ffffffffffffffffffffffffffffffffffffffff160217905550612fb3565b6040518060400160405280600481526020017f4d494e45000000000000000000000000000000000000000000000000000000008152508051906020012082805190602001201415612fb257612f7182612906565b600e60006101000a81548173ffffffffffffffffffffffffffffffffffffffff021916908373ffffffffffffffffffffffffffffffffffffffff1602179055505b5b5b5b5050565b612fc16134f0565b73ffffffffffffffffffffffffffffffffffffffff16600560019054906101000a900473ffffffffffffffffffffffffffffffffffffffff1673ffffffffffffffffffffffffffffffffffffffff1614613050576040517f08c379a000000000000000000000000000000000000000000000000000000000815260040161304790615511565b60405180910390fd5b600d60009054906101000a900473ffffffffffffffffffffffffffffffffffffffff1673ffffffffffffffffffffffffffffffffffffffff1663eadb2bdd826040518263ffffffff1660e01b81526004016130ab91906155f1565b600060405180830381600087803b1580156130c557600080fd5b505af11580156130d9573d6000803e3d6000fd5b5050505050565b600e60009054906101000a900473ffffffffffffffffffffffffffffffffffffffff1681565b61310e6134f0565b73ffffffffffffffffffffffffffffffffffffffff16600560019054906101000a900473ffffffffffffffffffffffffffffffffffffffff1673ffffffffffffffffffffffffffffffffffffffff161461319d576040517f08c379a000000000000000000000000000000000000000000000000000000000815260040161319490615511565b60405180910390fd5b600073ffffffffffffffffffffffffffffffffffffffff168173ffffffffffffffffffffffffffffffffffffffff16141561320d576040517f08c379a0000000000000000000000000000000000000000000000000000000008152600401613204906154b1565b60405180910390fd5b8073ffffffffffffffffffffffffffffffffffffffff16600560019054906101000a900473ffffffffffffffffffffffffffffffffffffffff1673ffffffffffffffffffffffffffffffffffffffff167f8be0079c531659141344cd1fd0a4f28419497f9722a3daafe3b4186f6b6457e060405160405180910390a380600560016101000a81548173ffffffffffffffffffffffffffffffffffffffff021916908373ffffffffffffffffffffffffffffffffffffffff16021790555050565b600080600d60009054906101000a900473ffffffffffffffffffffffffffffffffffffffff1673ffffffffffffffffffffffffffffffffffffffff1663908219c6338a348b8b8b8b8b6040518963ffffffff1660e01b8152600401613339989796959493929190615168565b6040805180830381600087803b15801561335257600080fd5b505af1158015613366573d6000803e3d6000fd5b505050506040513d601f19601f8201168201806040525081019061338a9190614754565b9150915080827fae0d3238e10327fe3bd928db0a94f780903a668a0b55f821c36a670aa5daea938a6040516133bf91906153d3565b60405180910390a35050505050505050565b600c60009054906101000a900473ffffffffffffffffffffffffffffffffffffffff1681565b600080600d60009054906101000a900473ffffffffffffffffffffffffffffffffffffffff1673ffffffffffffffffffffffffffffffffffffffff166333a7eb5b338a8a348b8b8b8b6040518963ffffffff1660e01b8152600401613463989796959493929190615168565b6040805180830381600087803b15801561347c57600080fd5b505af1158015613490573d6000803e3d6000fd5b505050506040513d601f19601f820116820180604052508101906134b49190614754565b9150915080827f1f466e013c07bc16eafd2ccf7854d6c715f9f3e8a6a4e87bc4e2d7c7b323cae660405160405180910390a35050505050505050565b600033905090565b600073ffffffffffffffffffffffffffffffffffffffff168373ffffffffffffffffffffffffffffffffffffffff161415613568576040517f08c379a000000000000000000000000000000000000000000000000000000000815260040161355f90615571565b60405180910390fd5b600073ffffffffffffffffffffffffffffffffffffffff168273ffffffffffffffffffffffffffffffffffffffff1614156135d8576040517f08c379a00000000000000000000000000000000000000000000000000000000081526004016135cf906154d1565b60405180910390fd5b80600160008573ffffffffffffffffffffffffffffffffffffffff1673ffffffffffffffffffffffffffffffffffffffff16815260200190815260200160002060008473ffffffffffffffffffffffffffffffffffffffff1673ffffffffffffffffffffffffffffffffffffffff168152602001908152602001600020819055508173ffffffffffffffffffffffffffffffffffffffff168373ffffffffffffffffffffffffffffffffffffffff167f8c5be1e5ebec7d5bd14f71427d1e84f3dd0314c0f7b2291e5b200ac8c7c3b925836040516136b691906155f1565b60405180910390a3505050565b600060608573ffffffffffffffffffffffffffffffffffffffff166323b872dd8686866040516024016136f893929190615216565b6040516020818303038152906040529060e01b6020820180517bffffffffffffffffffffffffffffffffffffffffffffffffffffffff83818316178352505050506040516137469190615096565b6000604051808303816000865af19150503d8060008114613783576040519150601f19603f3d011682016040523d82523d6000602084013e613788565b606091505b50915091508180156137b657506000815114806137b55750808060200190518101906137b4919061459d565b5b5b6137f5576040517f08c379a00000000000000000000000000000000000000000000000000000000081526004016137ec906155b1565b60405180910390fd5b505050505050565b600073ffffffffffffffffffffffffffffffffffffffff168273ffffffffffffffffffffffffffffffffffffffff16141561386d576040517f08c379a000000000000000000000000000000000000000000000000000000000815260040161386490615531565b60405180910390fd5b613879826000836141a9565b6138e4816040518060600160405280602281526020016158bb602291396000808673ffffffffffffffffffffffffffffffffffffffff1673ffffffffffffffffffffffffffffffffffffffff16815260200190815260200160002054613f659092919063ffffffff16565b6000808473ffffffffffffffffffffffffffffffffffffffff1673ffffffffffffffffffffffffffffffffffffffff1681526020019081526020016000208190555061393b816002546141ae90919063ffffffff16565b600281905550600073ffffffffffffffffffffffffffffffffffffffff168273ffffffffffffffffffffffffffffffffffffffff167fddf252ad1be2c89b69c2b068fc378daa952ba7f163c4a11628f55a4df523b3ef8360405161399f91906155f1565b60405180910390a35050565b60008273ffffffffffffffffffffffffffffffffffffffff1682600067ffffffffffffffff811180156139dd57600080fd5b506040519080825280601f01601f191660200182016040528015613a105781602001600182028036833780820191505090505b50604051613a1e9190615096565b60006040518083038185875af1925050503d8060008114613a5b576040519150601f19603f3d011682016040523d82523d6000602084013e613a60565b606091505b5050905080613aa4576040517f08c379a0000000000000000000000000000000000000000000000000000000008152600401613a9b90615591565b60405180910390fd5b505050565b600b60009054906101000a900473ffffffffffffffffffffffffffffffffffffffff1673ffffffffffffffffffffffffffffffffffffffff1663a64ec3ba858386866040518563ffffffff1660e01b8152600401613b0a949392919061529f565b600060405180830381600087803b158015613b2457600080fd5b505af1158015613b38573d6000803e3d6000fd5b50505050600860009054906101000a900473ffffffffffffffffffffffffffffffffffffffff1673ffffffffffffffffffffffffffffffffffffffff16634e69d5606040518163ffffffff1660e01b815260040160206040518083038186803b158015613ba457600080fd5b505afa158015613bb8573d6000803e3d6000fd5b505050506040513d601f19601f82011682018060405250810190613bdc919061459d565b15613c2d576001831415613c0b57613c0684613c018484613fc090919063ffffffff16565b6139ab565b613c28565b613c2784613c2284846141ae90919063ffffffff16565b6139ab565b5b613c38565b613c3784826139ab565b5b600860009054906101000a900473ffffffffffffffffffffffffffffffffffffffff1673ffffffffffffffffffffffffffffffffffffffff16635cb45541600186856040518463ffffffff1660e01b8152600401613c989392919061539c565b600060405180830381600087803b158015613cb257600080fd5b505af1158015613cc6573d6000803e3d6000fd5b5050505050505050565b600073ffffffffffffffffffffffffffffffffffffffff168373ffffffffffffffffffffffffffffffffffffffff161415613d40576040517f08c379a0000000000000000000000000000000000000000000000000000000008152600401613d3790615551565b60405180910390fd5b600073ffffffffffffffffffffffffffffffffffffffff168273ffffffffffffffffffffffffffffffffffffffff161415613db0576040517f08c379a0000000000000000000000000000000000000000000000000000000008152600401613da790615471565b60405180910390fd5b613dbb8383836141a9565b613e26816040518060600160405280602681526020016158dd602691396000808773ffffffffffffffffffffffffffffffffffffffff1673ffffffffffffffffffffffffffffffffffffffff16815260200190815260200160002054613f659092919063ffffffff16565b6000808573ffffffffffffffffffffffffffffffffffffffff1673ffffffffffffffffffffffffffffffffffffffff16815260200190815260200160002081905550613eb9816000808573ffffffffffffffffffffffffffffffffffffffff1673ffffffffffffffffffffffffffffffffffffffff16815260200190815260200160002054613fc090919063ffffffff16565b6000808473ffffffffffffffffffffffffffffffffffffffff1673ffffffffffffffffffffffffffffffffffffffff168152602001908152602001600020819055508173ffffffffffffffffffffffffffffffffffffffff168373ffffffffffffffffffffffffffffffffffffffff167fddf252ad1be2c89b69c2b068fc378daa952ba7f163c4a11628f55a4df523b3ef83604051613f5891906155f1565b60405180910390a3505050565b6000838311158290613fad576040517f08c379a0000000000000000000000000000000000000000000000000000000008152600401613fa491906153d3565b60405180910390fd5b5060008385039050809150509392505050565b60008082840190508381101561400b576040517f08c379a0000000000000000000000000000000000000000000000000000000008152600401614002906154f1565b60405180910390fd5b8091505092915050565b600073ffffffffffffffffffffffffffffffffffffffff168273ffffffffffffffffffffffffffffffffffffffff161415614085576040517f08c379a000000000000000000000000000000000000000000000000000000000815260040161407c906155d1565b60405180910390fd5b614091600083836141a9565b6140a681600254613fc090919063ffffffff16565b6002819055506140fd816000808573ffffffffffffffffffffffffffffffffffffffff1673ffffffffffffffffffffffffffffffffffffffff16815260200190815260200160002054613fc090919063ffffffff16565b6000808473ffffffffffffffffffffffffffffffffffffffff1673ffffffffffffffffffffffffffffffffffffffff168152602001908152602001600020819055508173ffffffffffffffffffffffffffffffffffffffff16600073ffffffffffffffffffffffffffffffffffffffff167fddf252ad1be2c89b69c2b068fc378daa952ba7f163c4a11628f55a4df523b3ef8360405161419d91906155f1565b60405180910390a35050565b505050565b60006141f083836040518060400160405280601e81526020017f536166654d6174683a207375627472616374696f6e206f766572666c6f770000815250613f65565b905092915050565b6000813590506142078161585e565b92915050565b60008151905061421c8161585e565b92915050565b600082601f83011261423357600080fd5b81356142466142418261567d565b615650565b9150818183526020840193506020810190508385602084028201111561426b57600080fd5b60005b8381101561429b578161428188826142cf565b84526020840193506020830192505060018101905061426e565b5050505092915050565b6000813590506142b481615875565b92915050565b6000815190506142c981615875565b92915050565b6000813590506142de8161588c565b92915050565b6000815190506142f38161588c565b92915050565b600082601f83011261430a57600080fd5b813561431d614318826156a5565b615650565b9150808252602083016020830185838301111561433957600080fd5b61434483828461580b565b50505092915050565b600082601f83011261435e57600080fd5b815161437161436c826156a5565b615650565b9150808252602083016020830185838301111561438d57600080fd5b61439883828461581a565b50505092915050565b6000813590506143b0816158a3565b92915050565b6000815190506143c5816158a3565b92915050565b6000602082840312156143dd57600080fd5b60006143eb848285016141f8565b91505092915050565b6000806040838503121561440757600080fd5b6000614415858286016141f8565b9250506020614426858286016141f8565b9150509250929050565b60008060006060848603121561444557600080fd5b6000614453868287016141f8565b9350506020614464868287016141f8565b9250506040614475868287016143a1565b9150509250925092565b6000806040838503121561449257600080fd5b60006144a0858286016141f8565b92505060206144b1858286016142cf565b9150509250929050565b600080604083850312156144ce57600080fd5b60006144dc858286016141f8565b92505060206144ed858286016143a1565b9150509250929050565b6000806040838503121561450a57600080fd5b60006145188582860161420d565b9250506020614529858286016143b6565b9150509250929050565b60006020828403121561454557600080fd5b600082013567ffffffffffffffff81111561455f57600080fd5b61456b84828501614222565b91505092915050565b60006020828403121561458657600080fd5b6000614594848285016142a5565b91505092915050565b6000602082840312156145af57600080fd5b60006145bd848285016142ba565b91505092915050565b6000806000606084860312156145db57600080fd5b60006145e9868287016142ba565b93505060206145fa8682870161420d565b925050604061460b868287016143b6565b9150509250925092565b600080600080600080600060e0888a03121561463057600080fd5b600061463e8a828b016142ba565b975050602061464f8a828b0161420d565b96505060406146608a828b016143b6565b95505060606146718a828b016143b6565b94505060806146828a828b016143b6565b93505060a06146938a828b016143b6565b92505060c06146a48a828b016143b6565b91505092959891949750929550565b600080604083850312156146c657600080fd5b60006146d4858286016142ba565b92505060206146e5858286016143b6565b9150509250929050565b60006020828403121561470157600080fd5b600061470f848285016142cf565b91505092915050565b6000806040838503121561472b57600080fd5b6000614739858286016142cf565b925050602061474a858286016143a1565b9150509250929050565b6000806040838503121561476757600080fd5b6000614775858286016142e4565b9250506020614786858286016143b6565b9150509250929050565b6000806000606084860312156147a557600080fd5b60006147b3868287016142cf565b93505060206147c4868287016143a1565b92505060406147d5868287016143a1565b9150509250925092565b6000602082840312156147f157600080fd5b600082013567ffffffffffffffff81111561480b57600080fd5b614817848285016142f9565b91505092915050565b6000806040838503121561483357600080fd5b600083013567ffffffffffffffff81111561484d57600080fd5b614859858286016142f9565b925050602061486a858286016141f8565b9150509250929050565b60008060008060008060c0878903121561488d57600080fd5b600087013567ffffffffffffffff8111156148a757600080fd5b6148b389828a016142f9565b96505060206148c489828a016143a1565b95505060406148d589828a016143a1565b94505060606148e689828a016143a1565b93505060806148f789828a016143a1565b92505060a061490889828a016143a1565b9150509295509295509295565b60006020828403121561492757600080fd5b6000614935848285016143a1565b91505092915050565b60006020828403121561495057600080fd5b600061495e848285016143b6565b91505092915050565b6000806040838503121561497a57600080fd5b6000614988858286016143b6565b9250506020614999858286016143b6565b9150509250929050565b600080600080600060a086880312156149bb57600080fd5b60006149c9888289016143b6565b95505060206149da888289016143b6565b94505060406149eb888289016143b6565b93505060606149fc888289016143b6565b925050608086015167ffffffffffffffff811115614a1957600080fd5b614a258882890161434d565b9150509295509295909350565b6000614a3e8383614b4b565b60208301905092915050565b6000614a568383614b69565b60208301905092915050565b614a6b816157b1565b82525050565b614a7a81615752565b82525050565b6000614a8b826156e1565b614a95818561570f565b9350614aa0836156d1565b8060005b83811015614ad1578151614ab88882614a32565b9750614ac383615702565b925050600181019050614aa4565b5085935050505092915050565b6000614ae9826156e1565b614af38185615720565b9350614afe836156d1565b8060005b83811015614b2f578151614b168882614a4a565b9750614b2183615702565b925050600181019050614b02565b5085935050505092915050565b614b4581615764565b82525050565b614b5481615770565b82525050565b614b6381615770565b82525050565b614b7281615770565b82525050565b6000614b83826156ec565b614b8d818561572b565b9350614b9d81856020860161581a565b80840191505092915050565b614bb2816157c3565b82525050565b614bc1816157d5565b82525050565b6000614bd2826156f7565b614bdc8185615736565b9350614bec81856020860161581a565b614bf58161584d565b840191505092915050565b6000614c0b826156f7565b614c158185615747565b9350614c2581856020860161581a565b80840191505092915050565b6000614c3e602383615736565b91507f45524332303a207472616e7366657220746f20746865207a65726f206164647260008301527f65737300000000000000000000000000000000000000000000000000000000006020830152604082019050919050565b6000614ca4601983615736565b91507f6765744d6f64756c65416464723a206d6f64756c6520657272000000000000006000830152602082019050919050565b6000614ce4602683615736565b91507f4f776e61626c653a206e6577206f776e657220697320746865207a65726f206160008301527f64647265737300000000000000000000000000000000000000000000000000006020830152604082019050919050565b6000614d4a602283615736565b91507f45524332303a20617070726f766520746f20746865207a65726f20616464726560008301527f73730000000000000000000000000000000000000000000000000000000000006020830152604082019050919050565b6000614db0601b83615736565b91507f536166654d6174683a206164646974696f6e206f766572666c6f7700000000006000830152602082019050919050565b6000614df0602083615736565b91507f4f776e61626c653a2063616c6c6572206973206e6f7420746865206f776e65726000830152602082019050919050565b6000614e30602183615736565b91507f45524332303a206275726e2066726f6d20746865207a65726f2061646472657360008301527f73000000000000000000000000000000000000000000000000000000000000006020830152604082019050919050565b6000614e96602583615736565b91507f45524332303a207472616e736665722066726f6d20746865207a65726f20616460008301527f64726573730000000000000000000000000000000000000000000000000000006020830152604082019050919050565b6000614efc602483615736565b91507f45524332303a20617070726f76652066726f6d20746865207a65726f2061646460008301527f72657373000000000000000000000000000000000000000000000000000000006020830152604082019050919050565b6000614f62602383615736565b91507f5472616e7366657248656c7065723a204554485f5452414e534645525f46414960008301527f4c454400000000000000000000000000000000000000000000000000000000006020830152604082019050919050565b6000614fc8602483615736565b91507f5472616e7366657248656c7065723a205452414e534645525f46524f4d5f464160008301527f494c4544000000000000000000000000000000000000000000000000000000006020830152604082019050919050565b600061502e601f83615736565b91507f45524332303a206d696e7420746f20746865207a65726f2061646472657373006000830152602082019050919050565b61506a8161579a565b82525050565b615079816157a4565b82525050565b600061508b8284614ade565b915081905092915050565b60006150a28284614b78565b915081905092915050565b60006150b98284614c00565b915081905092915050565b60006020820190506150d96000830184614a71565b92915050565b60006020820190506150f46000830184614a62565b92915050565b600060408201905061510f6000830185614a62565b61511c6020830184614b5a565b9392505050565b60006080820190506151386000830187614a62565b6151456020830186614b5a565b6151526040830185615061565b61515f6060830184615061565b95945050505050565b60006101008201905061517e600083018b614a62565b8181036020830152615190818a614bc7565b905061519f6040830189615061565b6151ac6060830188615061565b6151b96080830187615061565b6151c660a0830186615061565b6151d360c0830185615061565b6151e060e0830184615061565b9998505050505050505050565b60006040820190506152026000830185614a62565b61520f6020830184615061565b9392505050565b600060608201905061522b6000830186614a71565b6152386020830185614a71565b6152456040830184615061565b949350505050565b60006040820190506152626000830185614a71565b61526f6020830184614b5a565b9392505050565b600060408201905061528b6000830185614a71565b6152986020830184615061565b9392505050565b60006080820190506152b46000830187614a71565b6152c16020830186615061565b6152ce6040830185615061565b6152db6060830184615061565b95945050505050565b600060208201905081810360008301526152fe8184614a80565b905092915050565b600060208201905061531b6000830184614b3c565b92915050565b60006020820190506153366000830184614b5a565b92915050565b60006040820190506153516000830185614b5a565b61535e6020830184615061565b9392505050565b600060608201905061537a6000830186614ba9565b6153876020830185614a62565b6153946040830184615061565b949350505050565b60006060820190506153b16000830186614bb8565b6153be6020830185614a71565b6153cb6040830184615061565b949350505050565b600060208201905081810360008301526153ed8184614bc7565b905092915050565b6000606082019050818103600083015261540f8186614bc7565b905061541e6020830185614a62565b61542b6040830184615061565b949350505050565b6000606082019050818103600083015261544d8186614bc7565b905061545c6020830185614a71565b6154696040830184615061565b949350505050565b6000602082019050818103600083015261548a81614c31565b9050919050565b600060208201905081810360008301526154aa81614c97565b9050919050565b600060208201905081810360008301526154ca81614cd7565b9050919050565b600060208201905081810360008301526154ea81614d3d565b9050919050565b6000602082019050818103600083015261550a81614da3565b9050919050565b6000602082019050818103600083015261552a81614de3565b9050919050565b6000602082019050818103600083015261554a81614e23565b9050919050565b6000602082019050818103600083015261556a81614e89565b9050919050565b6000602082019050818103600083015261558a81614eef565b9050919050565b600060208201905081810360008301526155aa81614f55565b9050919050565b600060208201905081810360008301526155ca81614fbb565b9050919050565b600060208201905081810360008301526155ea81615021565b9050919050565b60006020820190506156066000830184615061565b92915050565b60006040820190506156216000830185615061565b61562e6020830184615061565b9392505050565b600060208201905061564a6000830184615070565b92915050565b6000604051905081810181811067ffffffffffffffff8211171561567357600080fd5b8060405250919050565b600067ffffffffffffffff82111561569457600080fd5b602082029050602081019050919050565b600067ffffffffffffffff8211156156bc57600080fd5b601f19601f8301169050602081019050919050565b6000819050602082019050919050565b600081519050919050565b600081519050919050565b600081519050919050565b6000602082019050919050565b600082825260208201905092915050565b600081905092915050565b600081905092915050565b600082825260208201905092915050565b600081905092915050565b600061575d8261577a565b9050919050565b60008115159050919050565b6000819050919050565b600073ffffffffffffffffffffffffffffffffffffffff82169050919050565b6000819050919050565b600060ff82169050919050565b60006157bc826157e7565b9050919050565b60006157ce8261579a565b9050919050565b60006157e08261579a565b9050919050565b60006157f2826157f9565b9050919050565b60006158048261577a565b9050919050565b82818337600083830152505050565b60005b8381101561583857808201518184015260208101905061581d565b83811115615847576000848401525b50505050565b6000601f19601f8301169050919050565b61586781615752565b811461587257600080fd5b50565b61587e81615764565b811461588957600080fd5b50565b61589581615770565b81146158a057600080fd5b50565b6158ac8161579a565b81146158b757600080fd5b5056fe45524332303a206275726e20616d6f756e7420657863656564732062616c616e636545524332303a207472616e7366657220616d6f756e7420657863656564732062616c616e636545524332303a207472616e7366657220616d6f756e74206578636565647320616c6c6f77616e636545524332303a2064656372656173656420616c6c6f77616e63652062656c6f77207a65726fa26469706673582212205de4df4a8549d4aa5459ae09b198e766edff4b93a6a710b3497c0e5002b0d13d64736f6c634300060c0033",
  "immutableReferences": {},
  "source": "// SPDX-License-Identifier: MIT\n\npragma solidity >=0.6.12;\npragma experimental ABIEncoderV2;\n\nimport \"../openzeppelin/contracts/token/ERC20/ERC20.sol\";\nimport \"../openzeppelin/contracts/math/SafeMath.sol\";\nimport \"../openzeppelin/contracts/access/Ownable.sol\";\nimport '../libraries/TransferHelper.sol';\nimport \"../interface/IFund.sol\";\nimport \"../interface/IRisk.sol\";\nimport \"../interface/ISwapTrade.sol\";\nimport \"../interface/IMine.sol\";\nimport \"../interface/IPoolFactory.sol\";\nimport \"../interface/IQuoteFactory.sol\";\n\n\ncontract TeemoWPool is ERC20(\"TMOLP\", \"TMOLP\"), Ownable {\n    using SafeMath for uint256;\n\n    address public tokenAddr;\n    address public mainnetTokenAddr;\n    address public poolFactoryAddr;\n    address public quoteFactoryAddr;\n    mapping(string => address) public allModuleInfo;\n    address public fundAddr;\n    address public riskAddr;\n    address public swapTradeAddr;\n    address public mineAddr;\n\n    event OpenLimitSwap(bytes32 indexed orderID, uint256 indexed openPrice);\n    event CancelLimitSwap(uint256 indexed tokenAmount);\n    event TradeLimitSwap(address indexed success,uint256 indexed tokenAmount);\n    event OpenMarketSwap(bytes32 indexed orderID, string symbol, uint256 indexed openPrice);\n    event CloseMarketSwap(bytes32 indexed orderID, string symbol, address userAddr, uint256 indexed closePrice,uint256 indexed plFlag,uint256 plAmount);\n    event CloseLimitSwap(address indexed userAddr,uint256 indexed closePrice,uint256 indexed closeType,uint256 plFlag,uint256 plAmount);\n    event UpdateSwap(uint256 indexed pLimitPrice, uint256 indexed lLimitPrice);\n    event FailedCloseLimitSwap(bytes32[] indexed orderIDs);\n    event FailedTradeLimitSwap(bytes32[] indexed orderIDs);\n\n    event LPDeposit(address _userAddr,uint256 indexed lpAmount,uint256 indexed teemoTokenAmount);\n    event LPWithdraw(address _userAddr,uint256 indexed tokenAmount);\n    event StartMine(address _userAddr,uint256 indexed tokenAmount,uint256 indexed teemoTokenAmount);\n    event StopMine(address _userAddr,uint256 indexed tokenAmount,uint256 indexed teemoTokenAmount);\n\n    event SetOrderPrice(address indexed userAddr, bytes32 indexed _orderID, uint256 indexed _price);\n    event EmergencyWithdraw(address indexed tokenAddr, address indexed userAddr, uint256 indexed amount);\n\n    function initialize(address _poolFactoryAddr, address _quoteFactoryAddr) public onlyOwner{\n        tokenAddr = address(0);\n        mainnetTokenAddr = address(0);\n        poolFactoryAddr = _poolFactoryAddr;\n        quoteFactoryAddr = _quoteFactoryAddr;\n    }\n\n    function setModuleAddr(string memory _moduleName,address _moduleAddr) public onlyOwner {\n        allModuleInfo[_moduleName] = _moduleAddr;\n        if(keccak256(bytes(_moduleName)) == keccak256(bytes(\"FUND\"))){\n            fundAddr = getModuleAddr(_moduleName);\n        }else if(keccak256(bytes(_moduleName)) == keccak256(bytes(\"RISK\"))){\n            riskAddr = getModuleAddr(_moduleName);\n        }else if(keccak256(bytes(_moduleName)) == keccak256(bytes(\"SWAPTRADE\"))){\n            swapTradeAddr = getModuleAddr(_moduleName);\n        }else if(keccak256(bytes(_moduleName)) == keccak256(bytes(\"MINE\"))){\n            mineAddr = getModuleAddr(_moduleName);\n        }\n    }\n    function getModuleAddr(string memory _moduleName) public view returns (address moduleAddr) {\n        moduleAddr = allModuleInfo[_moduleName];\n        require(moduleAddr != address(0), \"getModuleAddr: module err\");\n    }\n    function getQuoteFactoryAddr() public view returns (address){\n        return quoteFactoryAddr;\n    }\n    // LP\n    function lpDeposit(bool mine) public payable {\n        uint256 lpAmount = IFund(fundAddr).deposit(msg.sender, msg.value);\n        if(mine == false){// TeemoToken\n            _mint(msg.sender,lpAmount);\n            emit LPDeposit(msg.sender, lpAmount, 0); \n        }else{\n            _mint(address(this),lpAmount);\n            (uint256 teemoTokenAmount,uint256 userTeemoTokenAmount) = IMine(mineAddr).deposit(msg.sender,lpAmount);\n            if(IPoolFactory(poolFactoryAddr).getStatus()){\n                IPoolFactory(poolFactoryAddr).mintToken(teemoTokenAmount);\n                IPoolFactory(poolFactoryAddr).safeTeemoTransfer(msg.sender,userTeemoTokenAmount);\n            }\n            IPoolFactory(poolFactoryAddr).updateBonus(0, msg.sender,userTeemoTokenAmount);\n            emit LPDeposit(msg.sender, lpAmount, userTeemoTokenAmount); \n        }       \n    }\n\n    // \n    function startMine(uint256 _lpAmount) public {\n        //transferFrom(msg.sender, address(this), _lpAmount);\n        TransferHelper.safeTransferFrom(address(this),msg.sender,address(this),_lpAmount);\n        (uint256 teemoTokenAmount, uint256 userTeemoTokenAmount) = IMine(mineAddr).deposit(msg.sender,_lpAmount);\n        if(IPoolFactory(poolFactoryAddr).getStatus()){\n            IPoolFactory(poolFactoryAddr).mintToken(teemoTokenAmount);\n            IPoolFactory(poolFactoryAddr).safeTeemoTransfer(msg.sender,userTeemoTokenAmount);\n        }\n        IPoolFactory(poolFactoryAddr).updateBonus(0, msg.sender,userTeemoTokenAmount);\n        emit StartMine(msg.sender, _lpAmount, teemoTokenAmount);\n    }\n\n    // LP\n    function lpWithdraw(uint256 _lpAmount) public {  \n        //transferFrom(msg.sender, address(this), _lpAmount);\n        TransferHelper.safeTransferFrom(address(this),msg.sender,address(this),_lpAmount);\n        uint256 tokenAmount = IFund(fundAddr).withdraw(msg.sender, _lpAmount);\n        _burn(address(this),_lpAmount);\n        //msg.sender.transfer(tokenAmount);\n        TransferHelper.safeTransferETH(msg.sender,tokenAmount);\n        emit LPWithdraw(msg.sender, tokenAmount);\n    }\n\n    // \n    function stopMine(uint256 _lpAmount) public {\n        (uint256 teemoTokenAmount, uint256 userTeemoTokenAmount) = IMine(mineAddr).withdraw(msg.sender,_lpAmount); //lptokenTMO,lptoken\n        transfer(msg.sender, _lpAmount);\n        if(IPoolFactory(poolFactoryAddr).getStatus()){\n            IPoolFactory(poolFactoryAddr).mintToken(teemoTokenAmount);\n            IPoolFactory(poolFactoryAddr).safeTeemoTransfer(msg.sender,userTeemoTokenAmount);\n        }\n        IPoolFactory(poolFactoryAddr).updateBonus(0, msg.sender,userTeemoTokenAmount);\n        emit StopMine(msg.sender, _lpAmount, userTeemoTokenAmount);\n    }\n\n    // \n    function openLimitSwap(string memory _symbol,uint256 _limitPrice,uint256 _lever,uint256 _bsFlag,uint256 _pLimitPrice,uint256 _lLimitPrice) public payable {\n        (bytes32 orderID, uint256 openPrice) = ISwapTrade(swapTradeAddr).openLimitSwap(msg.sender,_symbol,_limitPrice,msg.value,_lever,_bsFlag,_pLimitPrice,_lLimitPrice);\n        emit OpenLimitSwap(orderID, openPrice);\n    }\n\n    // \n    function cancelLimitSwap(bytes32 _orderID) public {\n        uint256 tokenAmount = ISwapTrade(swapTradeAddr).cancelLimitSwap(msg.sender,_orderID);\n        msg.sender.transfer(tokenAmount);\n        emit CancelLimitSwap(tokenAmount);\n    }\n\n    // \n    function tradeLimitSwaps(bytes32[] memory _orderIDs) public {\n        (bool status, uint256 _blockIndex) = ISwapTrade(swapTradeAddr).isValidating(_orderIDs);\n        if(status){\n            for(uint256 i=0;i<_orderIDs.length;i++){\n                tradeLimitSwap(_orderIDs[i],_blockIndex);\n            }\n        }else{\n            emit FailedTradeLimitSwap(_orderIDs);\n        }\n    }\n    function tradeLimitSwap(bytes32 _orderID,uint256 _blockIndex) public {\n        (bool success,address userAddr,uint256 tokenAmount) = ISwapTrade(swapTradeAddr).tradeLimitSwap(_orderID,_blockIndex);\n        if(success == true){\n            emit TradeLimitSwap(userAddr,tokenAmount);\n        }\n    }  \n\n    // \n    function openMarketSwap(string memory _symbol,uint256 _lever,uint256 _bsFlag,uint256 _pLimitPrice,uint256 _lLimitPrice, uint256 _maxPrice) public payable {\n        (bytes32 orderID, uint256 openPrice) = ISwapTrade(swapTradeAddr).openMarketSwap(msg.sender,_symbol,msg.value,_lever,_bsFlag,_pLimitPrice,_lLimitPrice, _maxPrice);        \n        emit OpenMarketSwap(orderID, _symbol, openPrice);\n    }\n\n    // \n    function closeMarketSwap(bytes32 _orderID) public {\n       (uint256 closePrice,uint256 plFlag,uint256 plAmount,uint256 tradeAmount, string memory symbol) = ISwapTrade(swapTradeAddr).closeMarketSwap(msg.sender, _orderID);\n        _closeSwap(msg.sender, plFlag, plAmount, tradeAmount);\n        emit CloseMarketSwap(_orderID, symbol, msg.sender, closePrice, plFlag, plAmount);\n    }\n\n    // ()\n    function closeLimitSwaps(bytes32[] memory _orderIDs) public {\n        (bool status, uint256 _blockIndex) = ISwapTrade(swapTradeAddr).isValidating(_orderIDs);\n        if(status) {\n            for(uint256 i=0;i<_orderIDs.length;i++){\n                closeLimitSwap(_orderIDs[i],_blockIndex);\n            }\n        }else{\n            emit FailedCloseLimitSwap(_orderIDs);\n        }\n    }\n    function closeLimitSwap(bytes32 _orderID,uint256 _blockIndex) public {\n        (bool success,address userAddr,uint256 closePrice,uint256 closeType,uint256 plFlag,uint256 plAmount,uint256 tradeAmount) = ISwapTrade(swapTradeAddr).closeLimitSwap(_orderID,_blockIndex);\n        if(success == true){\n            _closeSwap(userAddr, plFlag, plAmount, tradeAmount);\n            emit CloseLimitSwap(userAddr,closePrice,closeType,plFlag,plAmount);\n        }\n    }\n\n    // \n    function updateSwapByPrice(bytes32 _orderID,uint256 _pLimitPrice,uint256 _lLimitPrice) public {\n        (uint256 pLimitRate,uint256 lLimitRate) = ISwapTrade(swapTradeAddr).updateSwapByPrice(msg.sender, _orderID,_pLimitPrice,_lLimitPrice);\n        emit UpdateSwap(pLimitRate, lLimitRate);\n    }\n\n    // \n    function updateSwapByRate(bytes32 _orderID,uint256 _pLimitRate,uint256 _lLimitRate) public {\n        (uint256 pLimitPrice,uint256 lLimitPrice) = ISwapTrade(swapTradeAddr).updateSwapByRate(msg.sender, _orderID,_pLimitRate,_lLimitRate);\n        emit UpdateSwap(pLimitPrice, lLimitPrice);\n    }  \n\n   // \n    function setOpenPrice(bytes32 _orderID) public onlyOwner returns(address userAddr, uint256 openPrice) {\n        (userAddr, openPrice) = ISwapTrade(swapTradeAddr).setOrderPrice(_orderID);\n        emit SetOrderPrice(userAddr, _orderID, openPrice);\n    } \n\n    // \n    function closeMarketByOwner(address _userAddr, bytes32 _orderID) public onlyOwner {\n        (uint256 closePrice,uint256 plFlag,uint256 plAmount,uint256 tradeAmount, string memory symbol) = ISwapTrade(swapTradeAddr).closeMarketSwap(_userAddr, _orderID);\n        _closeSwap(_userAddr, plFlag, plAmount, tradeAmount);\n        emit CloseMarketSwap(_orderID, symbol, _userAddr, closePrice, plFlag, plAmount);\n    }\n\n    function _closeSwap(address _userAddr, uint256 plFlag, uint256 plAmount, uint256 tradeAmount) internal {\n        IFund(fundAddr).tradePL(_userAddr, tradeAmount, plFlag, plAmount);\n        if(IPoolFactory(poolFactoryAddr).getStatus()){\n            if(plFlag == 1) {\n                TransferHelper.safeTransferETH(_userAddr,tradeAmount.add(plAmount));\n            }else{\n                TransferHelper.safeTransferETH(_userAddr,tradeAmount.sub(plAmount));\n            }\n        }else{\n            TransferHelper.safeTransferETH(_userAddr,tradeAmount);\n        }\n        IPoolFactory(poolFactoryAddr).updateBonus(1, _userAddr,plAmount);\n    }\n\n    function setValidBlocks(uint256 _valideBlocks) public onlyOwner {\n        ISwapTrade(swapTradeAddr).setValidBlocks(_valideBlocks);\n    }\n    \n    // \n    // function emergencyWithdraw() public {\n    //     uint256 tokenAmount = IFund(fundAddr).emergencyWithdraw(msg.sender);\n    //     IMine(mineAddr).emergencyWithdraw(msg.sender);\n    //     TransferHelper.safeTransferETH(msg.sender, tokenAmount);\n    //     emit EmergencyWithdraw(tokenAddr, msg.sender, tokenAmount);\n    // }  \n}\n",
  "sourcePath": "/Users/tong/Projects/drep-project/teemo-private/contracts/pool/TeemoWPool.sol",
  "compiler": {
    "name": "solc",
    "version": "0.6.12+commit.27d51765.Emscripten.clang"
  },
  "schemaVersion": "3.3.2",
  "updatedAt": "2021-01-20T10:30:15.386Z",
  "devdoc": {
    "kind": "dev",
    "methods": {
      "allowance(address,address)": {
        "details": "See {IERC20-allowance}."
      },
      "approve(address,uint256)": {
        "details": "See {IERC20-approve}. Requirements: - `spender` cannot be the zero address."
      },
      "balanceOf(address)": {
        "details": "See {IERC20-balanceOf}."
      },
      "decimals()": {
        "details": "Returns the number of decimals used to get its user representation. For example, if `decimals` equals `2`, a balance of `505` tokens should be displayed to a user as `5,05` (`505 / 10 ** 2`). Tokens usually opt for a value of 18, imitating the relationship between Ether and Wei. This is the value {ERC20} uses, unless {_setupDecimals} is called. NOTE: This information is only used for _display_ purposes: it in no way affects any of the arithmetic of the contract, including {IERC20-balanceOf} and {IERC20-transfer}."
      },
      "decreaseAllowance(address,uint256)": {
        "details": "Atomically decreases the allowance granted to `spender` by the caller. This is an alternative to {approve} that can be used as a mitigation for problems described in {IERC20-approve}. Emits an {Approval} event indicating the updated allowance. Requirements: - `spender` cannot be the zero address. - `spender` must have allowance for the caller of at least `subtractedValue`."
      },
      "increaseAllowance(address,uint256)": {
        "details": "Atomically increases the allowance granted to `spender` by the caller. This is an alternative to {approve} that can be used as a mitigation for problems described in {IERC20-approve}. Emits an {Approval} event indicating the updated allowance. Requirements: - `spender` cannot be the zero address."
      },
      "name()": {
        "details": "Returns the name of the token."
      },
      "owner()": {
        "details": "Returns the address of the current owner."
      },
      "renounceOwnership()": {
        "details": "Leaves the contract without owner. It will not be possible to call `onlyOwner` functions anymore. Can only be called by the current owner. NOTE: Renouncing ownership will leave the contract without an owner, thereby removing any functionality that is only available to the owner."
      },
      "symbol()": {
        "details": "Returns the symbol of the token, usually a shorter version of the name."
      },
      "totalSupply()": {
        "details": "See {IERC20-totalSupply}."
      },
      "transfer(address,uint256)": {
        "details": "See {IERC20-transfer}. Requirements: - `recipient` cannot be the zero address. - the caller must have a balance of at least `amount`."
      },
      "transferFrom(address,address,uint256)": {
        "details": "See {IERC20-transferFrom}. Emits an {Approval} event indicating the updated allowance. This is not required by the EIP. See the note at the beginning of {ERC20}; Requirements: - `sender` and `recipient` cannot be the zero address. - `sender` must have a balance of at least `amount`. - the caller must have allowance for ``sender``'s tokens of at least `amount`."
      },
      "transferOwnership(address)": {
        "details": "Transfers ownership of the contract to a new account (`newOwner`). Can only be called by the current owner."
      }
    },
    "version": 1
  },
  "userdoc": {
    "kind": "user",
    "methods": {},
    "version": 1
  }
}