{
  "contractName": "PoolFactory",
  "abi": [
    {
      "inputs": [
        {
          "internalType": "address",
          "name": "_quoteFactoryAddr",
          "type": "address"
        },
        {
          "internalType": "address",
          "name": "_teemoTokenAddr",
          "type": "address"
        },
        {
          "internalType": "address",
          "name": "_poolCreatorAddr",
          "type": "address"
        },
        {
          "internalType": "address",
          "name": "_fundCreatorAddr",
          "type": "address"
        },
        {
          "internalType": "address",
          "name": "_riskCreatorAddr",
          "type": "address"
        },
        {
          "internalType": "address",
          "name": "_tradeCreatorAddr",
          "type": "address"
        },
        {
          "internalType": "address",
          "name": "_mineCreatorAddr",
          "type": "address"
        },
        {
          "internalType": "address",
          "name": "_devAddr",
          "type": "address"
        }
      ],
      "stateMutability": "nonpayable",
      "type": "constructor"
    },
    {
      "anonymous": false,
      "inputs": [
        {
          "indexed": true,
          "internalType": "address",
          "name": "tokenAddr",
          "type": "address"
        },
        {
          "indexed": true,
          "internalType": "address",
          "name": "poolAddr",
          "type": "address"
        },
        {
          "indexed": true,
          "internalType": "address",
          "name": "createAddr",
          "type": "address"
        }
      ],
      "name": "AddFund",
      "type": "event"
    },
    {
      "anonymous": false,
      "inputs": [
        {
          "indexed": true,
          "internalType": "address",
          "name": "tokenAddr",
          "type": "address"
        },
        {
          "indexed": true,
          "internalType": "address",
          "name": "poolAddr",
          "type": "address"
        },
        {
          "indexed": true,
          "internalType": "address",
          "name": "createAddr",
          "type": "address"
        }
      ],
      "name": "AddMine",
      "type": "event"
    },
    {
      "anonymous": false,
      "inputs": [
        {
          "indexed": true,
          "internalType": "address",
          "name": "tokenAddr",
          "type": "address"
        },
        {
          "indexed": true,
          "internalType": "address",
          "name": "poolAddr",
          "type": "address"
        }
      ],
      "name": "AddPool",
      "type": "event"
    },
    {
      "anonymous": false,
      "inputs": [
        {
          "indexed": true,
          "internalType": "address",
          "name": "tokenAddr",
          "type": "address"
        },
        {
          "indexed": true,
          "internalType": "address",
          "name": "poolAddr",
          "type": "address"
        },
        {
          "indexed": true,
          "internalType": "address",
          "name": "createAddr",
          "type": "address"
        }
      ],
      "name": "AddRisk",
      "type": "event"
    },
    {
      "anonymous": false,
      "inputs": [
        {
          "indexed": true,
          "internalType": "address",
          "name": "tokenAddr",
          "type": "address"
        },
        {
          "indexed": true,
          "internalType": "address",
          "name": "poolAddr",
          "type": "address"
        },
        {
          "indexed": true,
          "internalType": "address",
          "name": "createAddr",
          "type": "address"
        }
      ],
      "name": "AddTrade",
      "type": "event"
    },
    {
      "anonymous": false,
      "inputs": [
        {
          "indexed": false,
          "internalType": "address",
          "name": "_userAddr",
          "type": "address"
        },
        {
          "indexed": true,
          "internalType": "uint256",
          "name": "lpAmount",
          "type": "uint256"
        },
        {
          "indexed": true,
          "internalType": "uint256",
          "name": "teemoTokenAmount",
          "type": "uint256"
        }
      ],
      "name": "LPDeposit",
      "type": "event"
    },
    {
      "anonymous": false,
      "inputs": [
        {
          "indexed": false,
          "internalType": "address",
          "name": "_userAddr",
          "type": "address"
        },
        {
          "indexed": true,
          "internalType": "uint256",
          "name": "tokenAmount",
          "type": "uint256"
        },
        {
          "indexed": true,
          "internalType": "uint256",
          "name": "teemoTokenAmount",
          "type": "uint256"
        }
      ],
      "name": "LPWithdraw",
      "type": "event"
    },
    {
      "anonymous": false,
      "inputs": [
        {
          "indexed": true,
          "internalType": "address",
          "name": "previousOwner",
          "type": "address"
        },
        {
          "indexed": true,
          "internalType": "address",
          "name": "newOwner",
          "type": "address"
        }
      ],
      "name": "OwnershipTransferred",
      "type": "event"
    },
    {
      "inputs": [],
      "name": "devAddr",
      "outputs": [
        {
          "internalType": "address",
          "name": "",
          "type": "address"
        }
      ],
      "stateMutability": "view",
      "type": "function",
      "constant": true
    },
    {
      "inputs": [],
      "name": "fundCreatorAddr",
      "outputs": [
        {
          "internalType": "address",
          "name": "",
          "type": "address"
        }
      ],
      "stateMutability": "view",
      "type": "function",
      "constant": true
    },
    {
      "inputs": [],
      "name": "mineCreatorAddr",
      "outputs": [
        {
          "internalType": "address",
          "name": "",
          "type": "address"
        }
      ],
      "stateMutability": "view",
      "type": "function",
      "constant": true
    },
    {
      "inputs": [],
      "name": "owner",
      "outputs": [
        {
          "internalType": "address",
          "name": "",
          "type": "address"
        }
      ],
      "stateMutability": "view",
      "type": "function",
      "constant": true
    },
    {
      "inputs": [],
      "name": "poolCreatorAddr",
      "outputs": [
        {
          "internalType": "address",
          "name": "",
          "type": "address"
        }
      ],
      "stateMutability": "view",
      "type": "function",
      "constant": true
    },
    {
      "inputs": [],
      "name": "quoteFactoryAddr",
      "outputs": [
        {
          "internalType": "address",
          "name": "",
          "type": "address"
        }
      ],
      "stateMutability": "view",
      "type": "function",
      "constant": true
    },
    {
      "inputs": [],
      "name": "renounceOwnership",
      "outputs": [],
      "stateMutability": "nonpayable",
      "type": "function"
    },
    {
      "inputs": [],
      "name": "riskCreatorAddr",
      "outputs": [
        {
          "internalType": "address",
          "name": "",
          "type": "address"
        }
      ],
      "stateMutability": "view",
      "type": "function",
      "constant": true
    },
    {
      "inputs": [],
      "name": "teemoTokenAddr",
      "outputs": [
        {
          "internalType": "address",
          "name": "",
          "type": "address"
        }
      ],
      "stateMutability": "view",
      "type": "function",
      "constant": true
    },
    {
      "inputs": [],
      "name": "tradeCreatorAddr",
      "outputs": [
        {
          "internalType": "address",
          "name": "",
          "type": "address"
        }
      ],
      "stateMutability": "view",
      "type": "function",
      "constant": true
    },
    {
      "inputs": [
        {
          "internalType": "address",
          "name": "newOwner",
          "type": "address"
        }
      ],
      "name": "transferOwnership",
      "outputs": [],
      "stateMutability": "nonpayable",
      "type": "function"
    },
    {
      "inputs": [],
      "name": "poolLength",
      "outputs": [
        {
          "internalType": "uint256",
          "name": "",
          "type": "uint256"
        }
      ],
      "stateMutability": "view",
      "type": "function",
      "constant": true
    },
    {
      "inputs": [],
      "name": "getAllPoolInfo",
      "outputs": [
        {
          "internalType": "address[]",
          "name": "allTeemoPoolAddr",
          "type": "address[]"
        },
        {
          "internalType": "address[]",
          "name": "allTokenAddr",
          "type": "address[]"
        },
        {
          "internalType": "address[]",
          "name": "allMainnetTokenAddr",
          "type": "address[]"
        },
        {
          "internalType": "string[]",
          "name": "allSymbol",
          "type": "string[]"
        }
      ],
      "stateMutability": "view",
      "type": "function",
      "constant": true
    },
    {
      "inputs": [],
      "name": "getTokenAddr",
      "outputs": [
        {
          "internalType": "address",
          "name": "",
          "type": "address"
        }
      ],
      "stateMutability": "view",
      "type": "function",
      "constant": true
    },
    {
      "inputs": [
        {
          "internalType": "address",
          "name": "_quoteFactoryAddr",
          "type": "address"
        }
      ],
      "name": "setQuoteFactoryAddr",
      "outputs": [],
      "stateMutability": "nonpayable",
      "type": "function"
    },
    {
      "inputs": [
        {
          "internalType": "address",
          "name": "_teemoTokenAddr",
          "type": "address"
        }
      ],
      "name": "setTeemoTokenAddr",
      "outputs": [],
      "stateMutability": "nonpayable",
      "type": "function"
    },
    {
      "inputs": [
        {
          "internalType": "address",
          "name": "_devAddr",
          "type": "address"
        }
      ],
      "name": "setDevAddr",
      "outputs": [],
      "stateMutability": "nonpayable",
      "type": "function"
    },
    {
      "inputs": [
        {
          "internalType": "address",
          "name": "_tokenAddr",
          "type": "address"
        },
        {
          "internalType": "address",
          "name": "_mainnetTokenAddr",
          "type": "address"
        }
      ],
      "name": "addPool",
      "outputs": [
        {
          "internalType": "address",
          "name": "createAddr",
          "type": "address"
        }
      ],
      "stateMutability": "nonpayable",
      "type": "function"
    },
    {
      "inputs": [
        {
          "internalType": "address",
          "name": "_tokenAddr",
          "type": "address"
        }
      ],
      "name": "addFund",
      "outputs": [
        {
          "internalType": "address",
          "name": "createAddr",
          "type": "address"
        }
      ],
      "stateMutability": "nonpayable",
      "type": "function"
    },
    {
      "inputs": [
        {
          "internalType": "address",
          "name": "_tokenAddr",
          "type": "address"
        }
      ],
      "name": "addRisk",
      "outputs": [
        {
          "internalType": "address",
          "name": "createAddr",
          "type": "address"
        }
      ],
      "stateMutability": "nonpayable",
      "type": "function"
    },
    {
      "inputs": [
        {
          "internalType": "address",
          "name": "_tokenAddr",
          "type": "address"
        }
      ],
      "name": "addTrade",
      "outputs": [
        {
          "internalType": "address",
          "name": "createAddr",
          "type": "address"
        }
      ],
      "stateMutability": "nonpayable",
      "type": "function"
    },
    {
      "inputs": [
        {
          "internalType": "address",
          "name": "_tokenAddr",
          "type": "address"
        },
        {
          "internalType": "uint256",
          "name": "_teemoPerBlock",
          "type": "uint256"
        },
        {
          "internalType": "uint256",
          "name": "_startBlock",
          "type": "uint256"
        }
      ],
      "name": "addMine",
      "outputs": [
        {
          "internalType": "address",
          "name": "createAddr",
          "type": "address"
        }
      ],
      "stateMutability": "nonpayable",
      "type": "function"
    },
    {
      "inputs": [
        {
          "internalType": "address",
          "name": "_tokenAddr",
          "type": "address"
        },
        {
          "internalType": "uint256",
          "name": "_tokenAmount",
          "type": "uint256"
        }
      ],
      "name": "deposit",
      "outputs": [],
      "stateMutability": "nonpayable",
      "type": "function"
    },
    {
      "inputs": [
        {
          "internalType": "address",
          "name": "_tokenAddr",
          "type": "address"
        },
        {
          "internalType": "uint256",
          "name": "_lpAmount",
          "type": "uint256"
        }
      ],
      "name": "withdraw",
      "outputs": [],
      "stateMutability": "nonpayable",
      "type": "function"
    },
    {
      "inputs": [
        {
          "internalType": "address",
          "name": "_tokenAddr",
          "type": "address"
        }
      ],
      "name": "getAddr",
      "outputs": [
        {
          "internalType": "address",
          "name": "poolAddr",
          "type": "address"
        }
      ],
      "stateMutability": "view",
      "type": "function",
      "constant": true
    }
  ],
  "bytecode": "0x60806040523480156200001157600080fd5b50604051620034083803806200340883398181016040528101906200003791906200031c565b600062000049620002fd60201b60201c565b9050806000806101000a81548173ffffffffffffffffffffffffffffffffffffffff021916908373ffffffffffffffffffffffffffffffffffffffff1602179055508073ffffffffffffffffffffffffffffffffffffffff16600073ffffffffffffffffffffffffffffffffffffffff167f8be0079c531659141344cd1fd0a4f28419497f9722a3daafe3b4186f6b6457e060405160405180910390a35087600360006101000a81548173ffffffffffffffffffffffffffffffffffffffff021916908373ffffffffffffffffffffffffffffffffffffffff16021790555086600460006101000a81548173ffffffffffffffffffffffffffffffffffffffff021916908373ffffffffffffffffffffffffffffffffffffffff16021790555085600560006101000a81548173ffffffffffffffffffffffffffffffffffffffff021916908373ffffffffffffffffffffffffffffffffffffffff16021790555084600660006101000a81548173ffffffffffffffffffffffffffffffffffffffff021916908373ffffffffffffffffffffffffffffffffffffffff16021790555083600760006101000a81548173ffffffffffffffffffffffffffffffffffffffff021916908373ffffffffffffffffffffffffffffffffffffffff16021790555082600860006101000a81548173ffffffffffffffffffffffffffffffffffffffff021916908373ffffffffffffffffffffffffffffffffffffffff16021790555081600960006101000a81548173ffffffffffffffffffffffffffffffffffffffff021916908373ffffffffffffffffffffffffffffffffffffffff16021790555080600a60006101000a81548173ffffffffffffffffffffffffffffffffffffffff021916908373ffffffffffffffffffffffffffffffffffffffff16021790555050505050505050506200042d565b600033905090565b600081519050620003168162000413565b92915050565b600080600080600080600080610100898b0312156200033a57600080fd5b60006200034a8b828c0162000305565b98505060206200035d8b828c0162000305565b9750506040620003708b828c0162000305565b9650506060620003838b828c0162000305565b9550506080620003968b828c0162000305565b94505060a0620003a98b828c0162000305565b93505060c0620003bc8b828c0162000305565b92505060e0620003cf8b828c0162000305565b9150509295985092959890939650565b6000620003ec82620003f3565b9050919050565b600073ffffffffffffffffffffffffffffffffffffffff82169050919050565b6200041e81620003df565b81146200042a57600080fd5b50565b612fcb806200043d6000396000f3fe608060405234801561001057600080fd5b50600436106101735760003560e01c806399118706116100de578063cadd368611610097578063e88fa60b11610071578063e88fa60b1461042f578063eb511dd41461044d578063f2fde38b1461047d578063f3fef3a31461049957610173565b8063cadd3686146103d7578063cee1a08b146103f3578063da09c72c1461041157610173565b806399118706146102ff578063afcfb11a1461032f578063b2b3687e1461034d578063b4108a941461036b578063ba6392c01461039b578063c22f4acf146103b957610173565b806347e7ef241161013057806347e7ef24146102655780634f48295414610281578063582b27201461029d5780636ebb64a2146102bb578063715018a6146102d75780638da5cb5b146102e157610173565b806307dc290a14610178578063081e3eda146101a85780630c73bda9146101c657806313433cf0146101e75780633ca2638f1461021757806342d0853214610247575b600080fd5b610192600480360381019061018d919061267d565b6104b5565b60405161019f9190612b4b565b60405180910390f35b6101b06106ec565b6040516101bd9190612d7b565b60405180910390f35b6101ce6106f9565b6040516101de9493929190612c78565b60405180910390f35b61020160048036038101906101fc919061267d565b610b3e565b60405161020e9190612b4b565b60405180910390f35b610231600480360381019061022c919061267d565b610d75565b60405161023e9190612b4b565b60405180910390f35b61024f610fd0565b60405161025c9190612b4b565b60405180910390f35b61027f600480360381019061027a919061270b565b610ff6565b005b61029b6004803603810190610296919061267d565b611239565b005b6102a5611312565b6040516102b29190612b4b565b60405180910390f35b6102d560048036038101906102d0919061267d565b6113cf565b005b6102df6114a8565b005b6102e96115fb565b6040516102f69190612b4b565b60405180910390f35b61031960048036038101906103149190612747565b611624565b6040516103269190612b4b565b60405180910390f35b610337611861565b6040516103449190612b4b565b60405180910390f35b610355611887565b6040516103629190612b4b565b60405180910390f35b6103856004803603810190610380919061267d565b6118ad565b6040516103929190612b4b565b60405180910390f35b6103a36119b0565b6040516103b09190612b4b565b60405180910390f35b6103c16119d6565b6040516103ce9190612b4b565b60405180910390f35b6103f160048036038101906103ec919061267d565b6119fc565b005b6103fb611ad5565b6040516104089190612b4b565b60405180910390f35b610419611afb565b6040516104269190612b4b565b60405180910390f35b610437611b21565b6040516104449190612b4b565b60405180910390f35b610467600480360381019061046291906126cf565b611b47565b6040516104749190612b4b565b60405180910390f35b6104976004803603810190610492919061267d565b611e41565b005b6104b360048036038101906104ae919061270b565b612003565b005b60006104bf612246565b73ffffffffffffffffffffffffffffffffffffffff1660008054906101000a900473ffffffffffffffffffffffffffffffffffffffff1673ffffffffffffffffffffffffffffffffffffffff161461054c576040517f08c379a000000000000000000000000000000000000000000000000000000000815260040161054390612d3b565b60405180910390fd5b6000610557836118ad565b9050600660009054906101000a900473ffffffffffffffffffffffffffffffffffffffff1673ffffffffffffffffffffffffffffffffffffffff16632c2bd4df82856040518363ffffffff1660e01b81526004016105b6929190612baa565b602060405180830381600087803b1580156105d057600080fd5b505af11580156105e4573d6000803e3d6000fd5b505050506040513d601f19601f8201168201806040525081019061060891906126a6565b91508073ffffffffffffffffffffffffffffffffffffffff16636f39cfcd836040518263ffffffff1660e01b81526004016106439190612b4b565b600060405180830381600087803b15801561065d57600080fd5b505af1158015610671573d6000803e3d6000fd5b505050508173ffffffffffffffffffffffffffffffffffffffff168173ffffffffffffffffffffffffffffffffffffffff168473ffffffffffffffffffffffffffffffffffffffff167f81c54aa5674e77c9aac9713afe82bfeefcbcd58ca46af5523737c8613dcab54f60405160405180910390a450919050565b6000600180549050905090565b606080606080600180548060200260200160405190810160405280929190818152602001828054801561078157602002820191906000526020600020905b8160009054906101000a900473ffffffffffffffffffffffffffffffffffffffff1673ffffffffffffffffffffffffffffffffffffffff1681526020019060010190808311610737575b5050505050935060018054905067ffffffffffffffff811180156107a457600080fd5b506040519080825280602002602001820160405280156107d35781602001602082028036833780820191505090505b50925060018054905067ffffffffffffffff811180156107f257600080fd5b506040519080825280602002602001820160405280156108215781602001602082028036833780820191505090505b50915060018054905067ffffffffffffffff8111801561084057600080fd5b5060405190808252806020026020018201604052801561087457816020015b606081526020019060019003908161085f5790505b50905060005b600180549050811015610b37576001818154811061089457fe5b9060005260206000200160009054906101000a900473ffffffffffffffffffffffffffffffffffffffff1673ffffffffffffffffffffffffffffffffffffffff1663582b27206040518163ffffffff1660e01b815260040160206040518083038186803b15801561090457600080fd5b505afa158015610918573d6000803e3d6000fd5b505050506040513d601f19601f8201168201806040525081019061093c91906126a6565b84828151811061094857fe5b602002602001019073ffffffffffffffffffffffffffffffffffffffff16908173ffffffffffffffffffffffffffffffffffffffff16815250506001818154811061098f57fe5b9060005260206000200160009054906101000a900473ffffffffffffffffffffffffffffffffffffffff1673ffffffffffffffffffffffffffffffffffffffff1663ff6b9fee6040518163ffffffff1660e01b815260040160206040518083038186803b1580156109ff57600080fd5b505afa158015610a13573d6000803e3d6000fd5b505050506040513d601f19601f82011682018060405250810190610a3791906126a6565b838281518110610a4357fe5b602002602001019073ffffffffffffffffffffffffffffffffffffffff16908173ffffffffffffffffffffffffffffffffffffffff1681525050838181518110610a8957fe5b602002602001015173ffffffffffffffffffffffffffffffffffffffff166395d89b416040518163ffffffff1660e01b815260040160006040518083038186803b158015610ad657600080fd5b505afa158015610aea573d6000803e3d6000fd5b505050506040513d6000823e3d601f19601f82011682018060405250810190610b1391906127bf565b828281518110610b1f57fe5b6020026020010181905250808060010191505061087a565b5090919293565b6000610b48612246565b73ffffffffffffffffffffffffffffffffffffffff1660008054906101000a900473ffffffffffffffffffffffffffffffffffffffff1673ffffffffffffffffffffffffffffffffffffffff1614610bd5576040517f08c379a0000000000000000000000000000000000000000000000000000000008152600401610bcc90612d3b565b60405180910390fd5b6000610be0836118ad565b9050600760009054906101000a900473ffffffffffffffffffffffffffffffffffffffff1673ffffffffffffffffffffffffffffffffffffffff1663f266d08382856040518363ffffffff1660e01b8152600401610c3f929190612baa565b602060405180830381600087803b158015610c5957600080fd5b505af1158015610c6d573d6000803e3d6000fd5b505050506040513d601f19601f82011682018060405250810190610c9191906126a6565b91508073ffffffffffffffffffffffffffffffffffffffff1663032d2e32836040518263ffffffff1660e01b8152600401610ccc9190612b4b565b600060405180830381600087803b158015610ce657600080fd5b505af1158015610cfa573d6000803e3d6000fd5b505050508173ffffffffffffffffffffffffffffffffffffffff168173ffffffffffffffffffffffffffffffffffffffff168473ffffffffffffffffffffffffffffffffffffffff167f3f0f8752d2869fec15fa224a6682b68dcdf2e8619fbd9a33e465373251ba455a60405160405180910390a450919050565b6000610d7f612246565b73ffffffffffffffffffffffffffffffffffffffff1660008054906101000a900473ffffffffffffffffffffffffffffffffffffffff1673ffffffffffffffffffffffffffffffffffffffff1614610e0c576040517f08c379a0000000000000000000000000000000000000000000000000000000008152600401610e0390612d3b565b60405180910390fd5b6000610e17836118ad565b9050600860009054906101000a900473ffffffffffffffffffffffffffffffffffffffff1673ffffffffffffffffffffffffffffffffffffffff1663b26533bd8285600360009054906101000a900473ffffffffffffffffffffffffffffffffffffffff166040518463ffffffff1660e01b8152600401610e9a93929190612bd3565b602060405180830381600087803b158015610eb457600080fd5b505af1158015610ec8573d6000803e3d6000fd5b505050506040513d601f19601f82011682018060405250810190610eec91906126a6565b91508073ffffffffffffffffffffffffffffffffffffffff1663d2c0aab2836040518263ffffffff1660e01b8152600401610f279190612b4b565b600060405180830381600087803b158015610f4157600080fd5b505af1158015610f55573d6000803e3d6000fd5b505050508173ffffffffffffffffffffffffffffffffffffffff168173ffffffffffffffffffffffffffffffffffffffff168473ffffffffffffffffffffffffffffffffffffffff167f26699e5a08e31c282d9931c717ba528dc45e328f9f6f9d8ac79063fa03af385d60405160405180910390a450919050565b600960009054906101000a900473ffffffffffffffffffffffffffffffffffffffff1681565b6000611001836118ad565b905060008060008373ffffffffffffffffffffffffffffffffffffffff166347e7ef2433876040518363ffffffff1660e01b8152600401611043929190612b81565b606060405180830381600087803b15801561105d57600080fd5b505af1158015611071573d6000803e3d6000fd5b505050506040513d601f19601f820116820180604052508101906110959190612829565b925092509250600460009054906101000a900473ffffffffffffffffffffffffffffffffffffffff1673ffffffffffffffffffffffffffffffffffffffff166340c10f1930856040518363ffffffff1660e01b81526004016110f8929190612c4f565b600060405180830381600087803b15801561111257600080fd5b505af1158015611126573d6000803e3d6000fd5b50505050600460009054906101000a900473ffffffffffffffffffffffffffffffffffffffff1673ffffffffffffffffffffffffffffffffffffffff166340c10f19600a60009054906101000a900473ffffffffffffffffffffffffffffffffffffffff1661119f600a8761224e90919063ffffffff16565b6040518363ffffffff1660e01b81526004016111bc929190612c4f565b600060405180830381600087803b1580156111d657600080fd5b505af11580156111ea573d6000803e3d6000fd5b505050506111f83383612298565b82817f991d73f5e17d46d419b8d00ea1ba02099a33278bef6ba16f591c3869fc665842336040516112299190612b66565b60405180910390a3505050505050565b611241612246565b73ffffffffffffffffffffffffffffffffffffffff1660008054906101000a900473ffffffffffffffffffffffffffffffffffffffff1673ffffffffffffffffffffffffffffffffffffffff16146112ce576040517f08c379a00000000000000000000000000000000000000000000000000000000081526004016112c590612d3b565b60405180910390fd5b80600460006101000a81548173ffffffffffffffffffffffffffffffffffffffff021916908373ffffffffffffffffffffffffffffffffffffffff16021790555050565b6000600160008154811061132257fe5b9060005260206000200160009054906101000a900473ffffffffffffffffffffffffffffffffffffffff1673ffffffffffffffffffffffffffffffffffffffff1663582b27206040518163ffffffff1660e01b815260040160206040518083038186803b15801561139257600080fd5b505afa1580156113a6573d6000803e3d6000fd5b505050506040513d601f19601f820116820180604052508101906113ca91906126a6565b905090565b6113d7612246565b73ffffffffffffffffffffffffffffffffffffffff1660008054906101000a900473ffffffffffffffffffffffffffffffffffffffff1673ffffffffffffffffffffffffffffffffffffffff1614611464576040517f08c379a000000000000000000000000000000000000000000000000000000000815260040161145b90612d3b565b60405180910390fd5b80600a60006101000a81548173ffffffffffffffffffffffffffffffffffffffff021916908373ffffffffffffffffffffffffffffffffffffffff16021790555050565b6114b0612246565b73ffffffffffffffffffffffffffffffffffffffff1660008054906101000a900473ffffffffffffffffffffffffffffffffffffffff1673ffffffffffffffffffffffffffffffffffffffff161461153d576040517f08c379a000000000000000000000000000000000000000000000000000000000815260040161153490612d3b565b60405180910390fd5b600073ffffffffffffffffffffffffffffffffffffffff1660008054906101000a900473ffffffffffffffffffffffffffffffffffffffff1673ffffffffffffffffffffffffffffffffffffffff167f8be0079c531659141344cd1fd0a4f28419497f9722a3daafe3b4186f6b6457e060405160405180910390a360008060006101000a81548173ffffffffffffffffffffffffffffffffffffffff021916908373ffffffffffffffffffffffffffffffffffffffff160217905550565b60008060009054906101000a900473ffffffffffffffffffffffffffffffffffffffff16905090565b600061162e612246565b73ffffffffffffffffffffffffffffffffffffffff1660008054906101000a900473ffffffffffffffffffffffffffffffffffffffff1673ffffffffffffffffffffffffffffffffffffffff16146116bb576040517f08c379a00000000000000000000000000000000000000000000000000000000081526004016116b290612d3b565b60405180910390fd5b60006116c6856118ad565b9050600960009054906101000a900473ffffffffffffffffffffffffffffffffffffffff1673ffffffffffffffffffffffffffffffffffffffff1663d9000db5828787876040518563ffffffff1660e01b81526004016117299493929190612c0a565b602060405180830381600087803b15801561174357600080fd5b505af1158015611757573d6000803e3d6000fd5b505050506040513d601f19601f8201168201806040525081019061177b91906126a6565b91508073ffffffffffffffffffffffffffffffffffffffff16636d19f81e836040518263ffffffff1660e01b81526004016117b69190612b4b565b600060405180830381600087803b1580156117d057600080fd5b505af11580156117e4573d6000803e3d6000fd5b505050508173ffffffffffffffffffffffffffffffffffffffff168173ffffffffffffffffffffffffffffffffffffffff168673ffffffffffffffffffffffffffffffffffffffff167fdcb8d3fb618e50f3706e125bb3018f1b85edf73341dc14136a3488f1802aaa9f60405160405180910390a4509392505050565b600360009054906101000a900473ffffffffffffffffffffffffffffffffffffffff1681565b600660009054906101000a900473ffffffffffffffffffffffffffffffffffffffff1681565b600060016119046001600260008673ffffffffffffffffffffffffffffffffffffffff1673ffffffffffffffffffffffffffffffffffffffff168152602001908152602001600020546124ba90919063ffffffff16565b8154811061190e57fe5b9060005260206000200160009054906101000a900473ffffffffffffffffffffffffffffffffffffffff169050600073ffffffffffffffffffffffffffffffffffffffff168173ffffffffffffffffffffffffffffffffffffffff1614156119ab576040517f08c379a00000000000000000000000000000000000000000000000000000000081526004016119a290612d1b565b60405180910390fd5b919050565b600460009054906101000a900473ffffffffffffffffffffffffffffffffffffffff1681565b600760009054906101000a900473ffffffffffffffffffffffffffffffffffffffff1681565b611a04612246565b73ffffffffffffffffffffffffffffffffffffffff1660008054906101000a900473ffffffffffffffffffffffffffffffffffffffff1673ffffffffffffffffffffffffffffffffffffffff1614611a91576040517f08c379a0000000000000000000000000000000000000000000000000000000008152600401611a8890612d3b565b60405180910390fd5b80600360006101000a81548173ffffffffffffffffffffffffffffffffffffffff021916908373ffffffffffffffffffffffffffffffffffffffff16021790555050565b600560009054906101000a900473ffffffffffffffffffffffffffffffffffffffff1681565b600a60009054906101000a900473ffffffffffffffffffffffffffffffffffffffff1681565b600860009054906101000a900473ffffffffffffffffffffffffffffffffffffffff1681565b6000611b51612246565b73ffffffffffffffffffffffffffffffffffffffff1660008054906101000a900473ffffffffffffffffffffffffffffffffffffffff1673ffffffffffffffffffffffffffffffffffffffff1614611bde576040517f08c379a0000000000000000000000000000000000000000000000000000000008152600401611bd590612d3b565b60405180910390fd5b6000600260008573ffffffffffffffffffffffffffffffffffffffff1673ffffffffffffffffffffffffffffffffffffffff1681526020019081526020016000205414611c60576040517f08c379a0000000000000000000000000000000000000000000000000000000008152600401611c5790612d5b565b60405180910390fd5b600560009054906101000a900473ffffffffffffffffffffffffffffffffffffffff1673ffffffffffffffffffffffffffffffffffffffff1663236aea2e8484600360009054906101000a900473ffffffffffffffffffffffffffffffffffffffff166040518463ffffffff1660e01b8152600401611ce193929190612bd3565b602060405180830381600087803b158015611cfb57600080fd5b505af1158015611d0f573d6000803e3d6000fd5b505050506040513d601f19601f82011682018060405250810190611d3391906126a6565b90506001819080600181540180825580915050600190039060005260206000200160009091909190916101000a81548173ffffffffffffffffffffffffffffffffffffffff021916908373ffffffffffffffffffffffffffffffffffffffff160217905550600180549050600260008573ffffffffffffffffffffffffffffffffffffffff1673ffffffffffffffffffffffffffffffffffffffff168152602001908152602001600020819055508073ffffffffffffffffffffffffffffffffffffffff168373ffffffffffffffffffffffffffffffffffffffff167f062107fcb2a202af1ba617d851daca9ade2580ccf29e346770119cc10b015f0760405160405180910390a392915050565b611e49612246565b73ffffffffffffffffffffffffffffffffffffffff1660008054906101000a900473ffffffffffffffffffffffffffffffffffffffff1673ffffffffffffffffffffffffffffffffffffffff1614611ed6576040517f08c379a0000000000000000000000000000000000000000000000000000000008152600401611ecd90612d3b565b60405180910390fd5b600073ffffffffffffffffffffffffffffffffffffffff168173ffffffffffffffffffffffffffffffffffffffff161415611f46576040517f08c379a0000000000000000000000000000000000000000000000000000000008152600401611f3d90612cfb565b60405180910390fd5b8073ffffffffffffffffffffffffffffffffffffffff1660008054906101000a900473ffffffffffffffffffffffffffffffffffffffff1673ffffffffffffffffffffffffffffffffffffffff167f8be0079c531659141344cd1fd0a4f28419497f9722a3daafe3b4186f6b6457e060405160405180910390a3806000806101000a81548173ffffffffffffffffffffffffffffffffffffffff021916908373ffffffffffffffffffffffffffffffffffffffff16021790555050565b600061200e836118ad565b905060008060008373ffffffffffffffffffffffffffffffffffffffff1663f3fef3a333876040518363ffffffff1660e01b8152600401612050929190612b81565b606060405180830381600087803b15801561206a57600080fd5b505af115801561207e573d6000803e3d6000fd5b505050506040513d601f19601f820116820180604052508101906120a29190612829565b925092509250600460009054906101000a900473ffffffffffffffffffffffffffffffffffffffff1673ffffffffffffffffffffffffffffffffffffffff166340c10f1930856040518363ffffffff1660e01b8152600401612105929190612c4f565b600060405180830381600087803b15801561211f57600080fd5b505af1158015612133573d6000803e3d6000fd5b50505050600460009054906101000a900473ffffffffffffffffffffffffffffffffffffffff1673ffffffffffffffffffffffffffffffffffffffff166340c10f19600a60009054906101000a900473ffffffffffffffffffffffffffffffffffffffff166121ac600a8761224e90919063ffffffff16565b6040518363ffffffff1660e01b81526004016121c9929190612c4f565b600060405180830381600087803b1580156121e357600080fd5b505af11580156121f7573d6000803e3d6000fd5b505050506122053383612298565b82817fc6254e05234109ee15b6dda0f5aa8d4bf101927de256f64e1f02b6214de02b8b336040516122369190612b66565b60405180910390a3505050505050565b600033905090565b600061229083836040518060400160405280601a81526020017f536166654d6174683a206469766973696f6e206279207a65726f000000000000815250612504565b905092915050565b6000600460009054906101000a900473ffffffffffffffffffffffffffffffffffffffff1673ffffffffffffffffffffffffffffffffffffffff166370a08231306040518263ffffffff1660e01b81526004016122f59190612b4b565b60206040518083038186803b15801561230d57600080fd5b505afa158015612321573d6000803e3d6000fd5b505050506040513d601f19601f820116820180604052508101906123459190612800565b90508082111561240457600460009054906101000a900473ffffffffffffffffffffffffffffffffffffffff1673ffffffffffffffffffffffffffffffffffffffff1663a9059cbb84836040518363ffffffff1660e01b81526004016123ac929190612c4f565b602060405180830381600087803b1580156123c657600080fd5b505af11580156123da573d6000803e3d6000fd5b505050506040513d601f19601f820116820180604052508101906123fe9190612796565b506124b5565b600460009054906101000a900473ffffffffffffffffffffffffffffffffffffffff1673ffffffffffffffffffffffffffffffffffffffff1663a9059cbb84846040518363ffffffff1660e01b8152600401612461929190612c4f565b602060405180830381600087803b15801561247b57600080fd5b505af115801561248f573d6000803e3d6000fd5b505050506040513d601f19601f820116820180604052508101906124b39190612796565b505b505050565b60006124fc83836040518060400160405280601e81526020017f536166654d6174683a207375627472616374696f6e206f766572666c6f770000815250612565565b905092915050565b6000808311829061254b576040517f08c379a00000000000000000000000000000000000000000000000000000000081526004016125429190612cd9565b60405180910390fd5b50600083858161255757fe5b049050809150509392505050565b60008383111582906125ad576040517f08c379a00000000000000000000000000000000000000000000000000000000081526004016125a49190612cd9565b60405180910390fd5b5060008385039050809150509392505050565b6000813590506125cf81612f50565b92915050565b6000815190506125e481612f50565b92915050565b6000815190506125f981612f67565b92915050565b600082601f83011261261057600080fd5b815161262361261e82612dc3565b612d96565b9150808252602083016020830185838301111561263f57600080fd5b61264a838284612f0c565b50505092915050565b60008135905061266281612f7e565b92915050565b60008151905061267781612f7e565b92915050565b60006020828403121561268f57600080fd5b600061269d848285016125c0565b91505092915050565b6000602082840312156126b857600080fd5b60006126c6848285016125d5565b91505092915050565b600080604083850312156126e257600080fd5b60006126f0858286016125c0565b9250506020612701858286016125c0565b9150509250929050565b6000806040838503121561271e57600080fd5b600061272c858286016125c0565b925050602061273d85828601612653565b9150509250929050565b60008060006060848603121561275c57600080fd5b600061276a868287016125c0565b935050602061277b86828701612653565b925050604061278c86828701612653565b9150509250925092565b6000602082840312156127a857600080fd5b60006127b6848285016125ea565b91505092915050565b6000602082840312156127d157600080fd5b600082015167ffffffffffffffff8111156127eb57600080fd5b6127f7848285016125ff565b91505092915050565b60006020828403121561281257600080fd5b600061282084828501612668565b91505092915050565b60008060006060848603121561283e57600080fd5b600061284c86828701612668565b935050602061285d86828701612668565b925050604061286e86828701612668565b9150509250925092565b600061288483836128b3565b60208301905092915050565b600061289c83836129a4565b905092915050565b6128ad81612ed6565b82525050565b6128bc81612e8e565b82525050565b6128cb81612e8e565b82525050565b60006128dc82612e0f565b6128e68185612e4a565b93506128f183612def565b8060005b838110156129225781516129098882612878565b975061291483612e30565b9250506001810190506128f5565b5085935050505092915050565b600061293a82612e1a565b6129448185612e5b565b93508360208202850161295685612dff565b8060005b8581101561299257848403895281516129738582612890565b945061297e83612e3d565b925060208a0199505060018101905061295a565b50829750879550505050505092915050565b60006129af82612e25565b6129b98185612e6c565b93506129c9818560208601612f0c565b6129d281612f3f565b840191505092915050565b60006129e882612e25565b6129f28185612e7d565b9350612a02818560208601612f0c565b612a0b81612f3f565b840191505092915050565b6000612a23602683612e7d565b91507f4f776e61626c653a206e6577206f776e657220697320746865207a65726f206160008301527f64647265737300000000000000000000000000000000000000000000000000006020830152604082019050919050565b6000612a89601883612e7d565b91507f676574416464723a20504f4f4c5f4e4f545f45584953545300000000000000006000830152602082019050919050565b6000612ac9602083612e7d565b91507f4f776e61626c653a2063616c6c6572206973206e6f7420746865206f776e65726000830152602082019050919050565b6000612b09601483612e7d565b91507f616464506f6f6c3a20504f4f4c5f4558495354530000000000000000000000006000830152602082019050919050565b612b4581612ecc565b82525050565b6000602082019050612b6060008301846128c2565b92915050565b6000602082019050612b7b60008301846128a4565b92915050565b6000604082019050612b9660008301856128a4565b612ba36020830184612b3c565b9392505050565b6000604082019050612bbf60008301856128c2565b612bcc60208301846128c2565b9392505050565b6000606082019050612be860008301866128c2565b612bf560208301856128c2565b612c0260408301846128c2565b949350505050565b6000608082019050612c1f60008301876128c2565b612c2c60208301866128c2565b612c396040830185612b3c565b612c466060830184612b3c565b95945050505050565b6000604082019050612c6460008301856128c2565b612c716020830184612b3c565b9392505050565b60006080820190508181036000830152612c9281876128d1565b90508181036020830152612ca681866128d1565b90508181036040830152612cba81856128d1565b90508181036060830152612cce818461292f565b905095945050505050565b60006020820190508181036000830152612cf381846129dd565b905092915050565b60006020820190508181036000830152612d1481612a16565b9050919050565b60006020820190508181036000830152612d3481612a7c565b9050919050565b60006020820190508181036000830152612d5481612abc565b9050919050565b60006020820190508181036000830152612d7481612afc565b9050919050565b6000602082019050612d906000830184612b3c565b92915050565b6000604051905081810181811067ffffffffffffffff82111715612db957600080fd5b8060405250919050565b600067ffffffffffffffff821115612dda57600080fd5b601f19601f8301169050602081019050919050565b6000819050602082019050919050565b6000819050602082019050919050565b600081519050919050565b600081519050919050565b600081519050919050565b6000602082019050919050565b6000602082019050919050565b600082825260208201905092915050565b600082825260208201905092915050565b600082825260208201905092915050565b600082825260208201905092915050565b6000612e9982612eac565b9050919050565b60008115159050919050565b600073ffffffffffffffffffffffffffffffffffffffff82169050919050565b6000819050919050565b6000612ee182612ee8565b9050919050565b6000612ef382612efa565b9050919050565b6000612f0582612eac565b9050919050565b60005b83811015612f2a578082015181840152602081019050612f0f565b83811115612f39576000848401525b50505050565b6000601f19601f8301169050919050565b612f5981612e8e565b8114612f6457600080fd5b50565b612f7081612ea0565b8114612f7b57600080fd5b50565b612f8781612ecc565b8114612f9257600080fd5b5056fea264697066735822122059d945203ec6b1ff9fce4aefca164fc2d5dd7aa8bd545b9701f3b0ead8332eb264736f6c634300060c0033",
  "immutableReferences": {},
  "source": "// SPDX-License-Identifier: MIT\n\npragma solidity 0.6.12;\npragma experimental ABIEncoderV2;\n\nimport \"../openzeppelin/contracts/math/SafeMath.sol\";\nimport \"../openzeppelin/contracts/access/Ownable.sol\";\nimport \"../openzeppelin/contracts/token/ERC20/ERC20.sol\";\nimport \"../interface/IPoolCreator.sol\";\nimport \"../interface/IFundCreator.sol\";\nimport \"../interface/IRiskCreator.sol\";\nimport \"../interface/ITradeCreator.sol\";\nimport \"../interface/IMineCreator.sol\";\nimport \"../interface/IPool.sol\";\nimport \"../interface/ITeemoToken.sol\";\n\ncontract PoolFactory is Ownable {\n    using SafeMath for uint256;\n\n    event AddPool(address indexed tokenAddr, address indexed poolAddr);\n    event AddFund(\n        address indexed tokenAddr,\n        address indexed poolAddr,\n        address indexed createAddr\n    );\n    event AddRisk(\n        address indexed tokenAddr,\n        address indexed poolAddr,\n        address indexed createAddr\n    );\n    event AddTrade(\n        address indexed tokenAddr,\n        address indexed poolAddr,\n        address indexed createAddr\n    );\n    event AddMine(\n        address indexed tokenAddr,\n        address indexed poolAddr,\n        address indexed createAddr\n    );\n    event LPDeposit(\n        address _userAddr,\n        uint256 indexed lpAmount,\n        uint256 indexed teemoTokenAmount\n    );\n    event LPWithdraw(\n        address _userAddr,\n        uint256 indexed tokenAmount,\n        uint256 indexed teemoTokenAmount\n    );\n\n    address[] allPoolAddr;\n    mapping(address => uint256) private allPoolIndex;\n    address public quoteFactoryAddr;\n    address public teemoTokenAddr;\n    address public poolCreatorAddr;\n    address public fundCreatorAddr;\n    address public riskCreatorAddr;\n    address public tradeCreatorAddr;\n    address public mineCreatorAddr;\n    address public devAddr;\n\n    constructor(\n        address _quoteFactoryAddr,\n        address _teemoTokenAddr,\n        address _poolCreatorAddr,\n        address _fundCreatorAddr,\n        address _riskCreatorAddr,\n        address _tradeCreatorAddr,\n        address _mineCreatorAddr,\n        address _devAddr\n    ) public {\n        quoteFactoryAddr = _quoteFactoryAddr;\n        teemoTokenAddr = _teemoTokenAddr;\n        poolCreatorAddr = _poolCreatorAddr;\n        fundCreatorAddr = _fundCreatorAddr;\n        riskCreatorAddr = _riskCreatorAddr;\n        tradeCreatorAddr = _tradeCreatorAddr;\n        mineCreatorAddr = _mineCreatorAddr;\n        devAddr = _devAddr;\n    }\n\n    function poolLength() public view returns(uint256) {\n        return allPoolAddr.length;\n    }\n\n    function getAllPoolInfo()\n        public\n        view\n        returns (\n            address[] memory allTeemoPoolAddr,\n            address[] memory allTokenAddr,\n            address[] memory allMainnetTokenAddr,\n            string[] memory allSymbol\n        )\n    {\n        allTeemoPoolAddr = allPoolAddr;\n        allTokenAddr = new address[](allPoolAddr.length);\n        allMainnetTokenAddr = new address[](allPoolAddr.length);\n        allSymbol = new string[](allPoolAddr.length);\n\n        for (uint256 i = 0; i < allPoolAddr.length; i++) {\n            allTokenAddr[i] = IPool(allPoolAddr[i]).getTokenAddr();\n            allMainnetTokenAddr[i] = IPool(allPoolAddr[i]).getMainnetTokenAddr();\n            allSymbol[i] = ERC20(allTokenAddr[i]).symbol();\n        }\n    }\n\n    function getTokenAddr() public view returns (address) {\n        return IPool(allPoolAddr[0]).getTokenAddr();\n    }\n\n    function setQuoteFactoryAddr(address _quoteFactoryAddr) public onlyOwner {\n        quoteFactoryAddr = _quoteFactoryAddr;\n    }\n\n    function setTeemoTokenAddr(address _teemoTokenAddr) public onlyOwner {\n        teemoTokenAddr = _teemoTokenAddr;\n    }\n\n    function setDevAddr(address _devAddr) public onlyOwner {\n        devAddr = _devAddr;\n    }\n\n    function addPool(address _tokenAddr, address _mainnetTokenAddr)\n        public\n        onlyOwner\n        returns (address createAddr)\n    {\n        require(allPoolIndex[_tokenAddr] == 0, \"addPool: POOL_EXISTS\");\n        createAddr = IPoolCreator(poolCreatorAddr).createPool(\n            _tokenAddr,\n            _mainnetTokenAddr,\n            quoteFactoryAddr\n        );\n        allPoolAddr.push(createAddr);\n        allPoolIndex[_tokenAddr] = allPoolAddr.length;\n        emit AddPool(_tokenAddr, createAddr);\n    }\n\n    function addFund(address _tokenAddr)\n        public\n        onlyOwner\n        returns (address createAddr)\n    {\n        address _poolAddr = getAddr(_tokenAddr);\n        createAddr = IFundCreator(fundCreatorAddr).createFund(\n            _poolAddr,\n            _tokenAddr\n        );\n        IPool(_poolAddr).setFundAddr(createAddr);\n        emit AddFund(_tokenAddr, _poolAddr, createAddr);\n    }\n\n    function addRisk(address _tokenAddr)\n        public\n        onlyOwner\n        returns (address createAddr)\n    {\n        address _poolAddr = getAddr(_tokenAddr);\n        createAddr = IRiskCreator(riskCreatorAddr).createRisk(\n            _poolAddr,\n            _tokenAddr\n        );\n        IPool(_poolAddr).setRiskAddr(createAddr);\n        emit AddRisk(_tokenAddr, _poolAddr, createAddr);\n    }\n\n    function addTrade(address _tokenAddr)\n        public\n        onlyOwner\n        returns (address createAddr)\n    {\n        address _poolAddr = getAddr(_tokenAddr);\n        createAddr = ITradeCreator(tradeCreatorAddr).createTrade(\n            _poolAddr,\n            _tokenAddr,\n            quoteFactoryAddr\n        );\n        IPool(_poolAddr).setTradeAddr(createAddr);\n        emit AddTrade(_tokenAddr, _poolAddr, createAddr);\n    }\n\n    function addMine(\n        address _tokenAddr,\n        uint256 _teemoPerBlock,\n        uint256 _startBlock\n    ) public onlyOwner returns (address createAddr) {\n        address _poolAddr = getAddr(_tokenAddr);\n        createAddr = IMineCreator(mineCreatorAddr).createMine(\n            _poolAddr,\n            _tokenAddr,\n            _teemoPerBlock,\n            _startBlock\n        );\n        IPool(_poolAddr).setMineAddr(createAddr);\n        emit AddMine(_tokenAddr, _poolAddr, createAddr);\n    }\n\n    function deposit(address _tokenAddr, uint256 _tokenAmount) public {\n        address _poolAddr = getAddr(_tokenAddr);\n        (\n            uint256 teemoTokenAmount,\n            uint256 userTeemoTokenAmount,\n            uint256 lpAmount\n        ) = IPool(_poolAddr).deposit(msg.sender, _tokenAmount);\n        ITeemoToken(teemoTokenAddr).mint(address(this), teemoTokenAmount);\n        ITeemoToken(teemoTokenAddr).mint(devAddr, teemoTokenAmount.div(10));\n        safeTeemoTransfer(msg.sender, userTeemoTokenAmount);\n        emit LPDeposit(msg.sender, lpAmount, teemoTokenAmount);\n    }\n\n    function withdraw(address _tokenAddr, uint256 _lpAmount) public {\n        address _poolAddr = getAddr(_tokenAddr);\n        (\n            uint256 teemoTokenAmount,\n            uint256 userTeemoTokenAmount,\n            uint256 tokenAmount\n        ) = IPool(_poolAddr).withdraw(msg.sender, _lpAmount);\n        ITeemoToken(teemoTokenAddr).mint(address(this), teemoTokenAmount);\n        ITeemoToken(teemoTokenAddr).mint(devAddr, teemoTokenAmount.div(10));\n        safeTeemoTransfer(msg.sender, userTeemoTokenAmount);\n        emit LPWithdraw(msg.sender, tokenAmount, teemoTokenAmount);\n    }\n\n    function getAddr(address _tokenAddr)\n        public\n        view\n        returns (address poolAddr)\n    {\n        poolAddr = allPoolAddr[allPoolIndex[_tokenAddr].sub(1)];\n        require(poolAddr != address(0), \"getAddr: POOL_NOT_EXISTS\");\n    }\n\n    function safeTeemoTransfer(address _to, uint256 _amount) internal {\n        uint256 teemoBal = ITeemoToken(teemoTokenAddr).balanceOf(address(this));\n        if (_amount > teemoBal) {\n            ITeemoToken(teemoTokenAddr).transfer(_to, teemoBal);\n        } else {\n            ITeemoToken(teemoTokenAddr).transfer(_to, _amount);\n        }\n    }\n}\n",
  "sourcePath": "/Users/tong/Projects/drep-project/teemo-private/contracts/pool/PoolFactory.sol",
  "compiler": {
    "name": "solc",
    "version": "0.6.12+commit.27d51765.Emscripten.clang"
  },
  "schemaVersion": "3.3.2",
  "updatedAt": "2020-12-09T03:43:34.990Z",
  "networkType": "ethereum",
  "devdoc": {
    "kind": "dev",
    "methods": {
      "owner()": {
        "details": "Returns the address of the current owner."
      },
      "renounceOwnership()": {
        "details": "Leaves the contract without owner. It will not be possible to call `onlyOwner` functions anymore. Can only be called by the current owner. NOTE: Renouncing ownership will leave the contract without an owner, thereby removing any functionality that is only available to the owner."
      },
      "transferOwnership(address)": {
        "details": "Transfers ownership of the contract to a new account (`newOwner`). Can only be called by the current owner."
      }
    },
    "version": 1
  },
  "userdoc": {
    "kind": "user",
    "methods": {},
    "version": 1
  }
}