{
  "contractName": "PoolFactory",
  "abi": [
    {
      "inputs": [
        {
          "internalType": "address",
          "name": "_quoteFactoryAddr",
          "type": "address"
        },
        {
          "internalType": "address",
          "name": "_teemoTokenAddr",
          "type": "address"
        },
        {
          "internalType": "address",
          "name": "_poolCreatorAddr",
          "type": "address"
        },
        {
          "internalType": "address",
          "name": "_fundCreatorAddr",
          "type": "address"
        },
        {
          "internalType": "address",
          "name": "_riskCreatorAddr",
          "type": "address"
        },
        {
          "internalType": "address",
          "name": "_tradeCreatorAddr",
          "type": "address"
        },
        {
          "internalType": "address",
          "name": "_mineCreatorAddr",
          "type": "address"
        },
        {
          "internalType": "address",
          "name": "_devAddr",
          "type": "address"
        }
      ],
      "stateMutability": "nonpayable",
      "type": "constructor"
    },
    {
      "anonymous": false,
      "inputs": [
        {
          "indexed": true,
          "internalType": "address",
          "name": "tokenAddr",
          "type": "address"
        },
        {
          "indexed": true,
          "internalType": "address",
          "name": "poolAddr",
          "type": "address"
        },
        {
          "indexed": true,
          "internalType": "address",
          "name": "createAddr",
          "type": "address"
        }
      ],
      "name": "AddFund",
      "type": "event"
    },
    {
      "anonymous": false,
      "inputs": [
        {
          "indexed": true,
          "internalType": "address",
          "name": "tokenAddr",
          "type": "address"
        },
        {
          "indexed": true,
          "internalType": "address",
          "name": "poolAddr",
          "type": "address"
        },
        {
          "indexed": true,
          "internalType": "address",
          "name": "createAddr",
          "type": "address"
        }
      ],
      "name": "AddMine",
      "type": "event"
    },
    {
      "anonymous": false,
      "inputs": [
        {
          "indexed": true,
          "internalType": "address",
          "name": "tokenAddr",
          "type": "address"
        },
        {
          "indexed": true,
          "internalType": "address",
          "name": "poolAddr",
          "type": "address"
        }
      ],
      "name": "AddPool",
      "type": "event"
    },
    {
      "anonymous": false,
      "inputs": [
        {
          "indexed": true,
          "internalType": "address",
          "name": "tokenAddr",
          "type": "address"
        },
        {
          "indexed": true,
          "internalType": "address",
          "name": "poolAddr",
          "type": "address"
        },
        {
          "indexed": true,
          "internalType": "address",
          "name": "createAddr",
          "type": "address"
        }
      ],
      "name": "AddRisk",
      "type": "event"
    },
    {
      "anonymous": false,
      "inputs": [
        {
          "indexed": true,
          "internalType": "address",
          "name": "tokenAddr",
          "type": "address"
        },
        {
          "indexed": true,
          "internalType": "address",
          "name": "poolAddr",
          "type": "address"
        },
        {
          "indexed": true,
          "internalType": "address",
          "name": "createAddr",
          "type": "address"
        }
      ],
      "name": "AddTrade",
      "type": "event"
    },
    {
      "anonymous": false,
      "inputs": [
        {
          "indexed": false,
          "internalType": "address",
          "name": "_userAddr",
          "type": "address"
        },
        {
          "indexed": true,
          "internalType": "uint256",
          "name": "lpAmount",
          "type": "uint256"
        },
        {
          "indexed": true,
          "internalType": "uint256",
          "name": "teemoTokenAmount",
          "type": "uint256"
        }
      ],
      "name": "LPDeposit",
      "type": "event"
    },
    {
      "anonymous": false,
      "inputs": [
        {
          "indexed": false,
          "internalType": "address",
          "name": "_userAddr",
          "type": "address"
        },
        {
          "indexed": true,
          "internalType": "uint256",
          "name": "tokenAmount",
          "type": "uint256"
        },
        {
          "indexed": true,
          "internalType": "uint256",
          "name": "teemoTokenAmount",
          "type": "uint256"
        }
      ],
      "name": "LPWithdraw",
      "type": "event"
    },
    {
      "anonymous": false,
      "inputs": [
        {
          "indexed": true,
          "internalType": "address",
          "name": "previousOwner",
          "type": "address"
        },
        {
          "indexed": true,
          "internalType": "address",
          "name": "newOwner",
          "type": "address"
        }
      ],
      "name": "OwnershipTransferred",
      "type": "event"
    },
    {
      "inputs": [],
      "name": "devAddr",
      "outputs": [
        {
          "internalType": "address",
          "name": "",
          "type": "address"
        }
      ],
      "stateMutability": "view",
      "type": "function",
      "constant": true
    },
    {
      "inputs": [],
      "name": "fundCreatorAddr",
      "outputs": [
        {
          "internalType": "address",
          "name": "",
          "type": "address"
        }
      ],
      "stateMutability": "view",
      "type": "function",
      "constant": true
    },
    {
      "inputs": [],
      "name": "mineCreatorAddr",
      "outputs": [
        {
          "internalType": "address",
          "name": "",
          "type": "address"
        }
      ],
      "stateMutability": "view",
      "type": "function",
      "constant": true
    },
    {
      "inputs": [],
      "name": "owner",
      "outputs": [
        {
          "internalType": "address",
          "name": "",
          "type": "address"
        }
      ],
      "stateMutability": "view",
      "type": "function",
      "constant": true
    },
    {
      "inputs": [],
      "name": "poolCreatorAddr",
      "outputs": [
        {
          "internalType": "address",
          "name": "",
          "type": "address"
        }
      ],
      "stateMutability": "view",
      "type": "function",
      "constant": true
    },
    {
      "inputs": [],
      "name": "quoteFactoryAddr",
      "outputs": [
        {
          "internalType": "address",
          "name": "",
          "type": "address"
        }
      ],
      "stateMutability": "view",
      "type": "function",
      "constant": true
    },
    {
      "inputs": [],
      "name": "renounceOwnership",
      "outputs": [],
      "stateMutability": "nonpayable",
      "type": "function"
    },
    {
      "inputs": [],
      "name": "riskCreatorAddr",
      "outputs": [
        {
          "internalType": "address",
          "name": "",
          "type": "address"
        }
      ],
      "stateMutability": "view",
      "type": "function",
      "constant": true
    },
    {
      "inputs": [],
      "name": "teemoTokenAddr",
      "outputs": [
        {
          "internalType": "address",
          "name": "",
          "type": "address"
        }
      ],
      "stateMutability": "view",
      "type": "function",
      "constant": true
    },
    {
      "inputs": [],
      "name": "tradeCreatorAddr",
      "outputs": [
        {
          "internalType": "address",
          "name": "",
          "type": "address"
        }
      ],
      "stateMutability": "view",
      "type": "function",
      "constant": true
    },
    {
      "inputs": [
        {
          "internalType": "address",
          "name": "newOwner",
          "type": "address"
        }
      ],
      "name": "transferOwnership",
      "outputs": [],
      "stateMutability": "nonpayable",
      "type": "function"
    },
    {
      "inputs": [],
      "name": "getAllPoolInfo",
      "outputs": [
        {
          "internalType": "address[]",
          "name": "allTeemoPoolAddr",
          "type": "address[]"
        },
        {
          "internalType": "address[]",
          "name": "allTokenAddr",
          "type": "address[]"
        },
        {
          "internalType": "string[]",
          "name": "allSymbol",
          "type": "string[]"
        }
      ],
      "stateMutability": "view",
      "type": "function",
      "constant": true
    },
    {
      "inputs": [],
      "name": "getTokenAddr",
      "outputs": [
        {
          "internalType": "address",
          "name": "",
          "type": "address"
        }
      ],
      "stateMutability": "view",
      "type": "function",
      "constant": true
    },
    {
      "inputs": [
        {
          "internalType": "address",
          "name": "_quoteFactoryAddr",
          "type": "address"
        }
      ],
      "name": "setQuoteFactoryAddr",
      "outputs": [],
      "stateMutability": "nonpayable",
      "type": "function"
    },
    {
      "inputs": [
        {
          "internalType": "address",
          "name": "_teemoTokenAddr",
          "type": "address"
        }
      ],
      "name": "setTeemoTokenAddr",
      "outputs": [],
      "stateMutability": "nonpayable",
      "type": "function"
    },
    {
      "inputs": [
        {
          "internalType": "address",
          "name": "_devAddr",
          "type": "address"
        }
      ],
      "name": "setDevAddr",
      "outputs": [],
      "stateMutability": "nonpayable",
      "type": "function"
    },
    {
      "inputs": [
        {
          "internalType": "address",
          "name": "_tokenAddr",
          "type": "address"
        }
      ],
      "name": "addPool",
      "outputs": [
        {
          "internalType": "address",
          "name": "createAddr",
          "type": "address"
        }
      ],
      "stateMutability": "nonpayable",
      "type": "function"
    },
    {
      "inputs": [
        {
          "internalType": "address",
          "name": "_tokenAddr",
          "type": "address"
        }
      ],
      "name": "addFund",
      "outputs": [
        {
          "internalType": "address",
          "name": "createAddr",
          "type": "address"
        }
      ],
      "stateMutability": "nonpayable",
      "type": "function"
    },
    {
      "inputs": [
        {
          "internalType": "address",
          "name": "_tokenAddr",
          "type": "address"
        }
      ],
      "name": "addRisk",
      "outputs": [
        {
          "internalType": "address",
          "name": "createAddr",
          "type": "address"
        }
      ],
      "stateMutability": "nonpayable",
      "type": "function"
    },
    {
      "inputs": [
        {
          "internalType": "address",
          "name": "_tokenAddr",
          "type": "address"
        }
      ],
      "name": "addTrade",
      "outputs": [
        {
          "internalType": "address",
          "name": "createAddr",
          "type": "address"
        }
      ],
      "stateMutability": "nonpayable",
      "type": "function"
    },
    {
      "inputs": [
        {
          "internalType": "address",
          "name": "_tokenAddr",
          "type": "address"
        },
        {
          "internalType": "uint256",
          "name": "_teemoPerBlock",
          "type": "uint256"
        },
        {
          "internalType": "uint256",
          "name": "_startBlock",
          "type": "uint256"
        }
      ],
      "name": "addMine",
      "outputs": [
        {
          "internalType": "address",
          "name": "createAddr",
          "type": "address"
        }
      ],
      "stateMutability": "nonpayable",
      "type": "function"
    },
    {
      "inputs": [
        {
          "internalType": "address",
          "name": "_tokenAddr",
          "type": "address"
        },
        {
          "internalType": "uint256",
          "name": "_tokenAmount",
          "type": "uint256"
        }
      ],
      "name": "deposit",
      "outputs": [],
      "stateMutability": "nonpayable",
      "type": "function"
    },
    {
      "inputs": [
        {
          "internalType": "address",
          "name": "_tokenAddr",
          "type": "address"
        },
        {
          "internalType": "uint256",
          "name": "_lpAmount",
          "type": "uint256"
        }
      ],
      "name": "withdraw",
      "outputs": [],
      "stateMutability": "nonpayable",
      "type": "function"
    },
    {
      "inputs": [
        {
          "internalType": "address",
          "name": "_tokenAddr",
          "type": "address"
        }
      ],
      "name": "getAddr",
      "outputs": [
        {
          "internalType": "address",
          "name": "poolAddr",
          "type": "address"
        }
      ],
      "stateMutability": "view",
      "type": "function",
      "constant": true
    }
  ],
  "bytecode": "0x60806040523480156200001157600080fd5b50604051620032073803806200320783398181016040528101906200003791906200031c565b600062000049620002fd60201b60201c565b9050806000806101000a81548173ffffffffffffffffffffffffffffffffffffffff021916908373ffffffffffffffffffffffffffffffffffffffff1602179055508073ffffffffffffffffffffffffffffffffffffffff16600073ffffffffffffffffffffffffffffffffffffffff167f8be0079c531659141344cd1fd0a4f28419497f9722a3daafe3b4186f6b6457e060405160405180910390a35087600360006101000a81548173ffffffffffffffffffffffffffffffffffffffff021916908373ffffffffffffffffffffffffffffffffffffffff16021790555086600460006101000a81548173ffffffffffffffffffffffffffffffffffffffff021916908373ffffffffffffffffffffffffffffffffffffffff16021790555085600560006101000a81548173ffffffffffffffffffffffffffffffffffffffff021916908373ffffffffffffffffffffffffffffffffffffffff16021790555084600660006101000a81548173ffffffffffffffffffffffffffffffffffffffff021916908373ffffffffffffffffffffffffffffffffffffffff16021790555083600760006101000a81548173ffffffffffffffffffffffffffffffffffffffff021916908373ffffffffffffffffffffffffffffffffffffffff16021790555082600860006101000a81548173ffffffffffffffffffffffffffffffffffffffff021916908373ffffffffffffffffffffffffffffffffffffffff16021790555081600960006101000a81548173ffffffffffffffffffffffffffffffffffffffff021916908373ffffffffffffffffffffffffffffffffffffffff16021790555080600a60006101000a81548173ffffffffffffffffffffffffffffffffffffffff021916908373ffffffffffffffffffffffffffffffffffffffff16021790555050505050505050506200042d565b600033905090565b600081519050620003168162000413565b92915050565b600080600080600080600080610100898b0312156200033a57600080fd5b60006200034a8b828c0162000305565b98505060206200035d8b828c0162000305565b9750506040620003708b828c0162000305565b9650506060620003838b828c0162000305565b9550506080620003968b828c0162000305565b94505060a0620003a98b828c0162000305565b93505060c0620003bc8b828c0162000305565b92505060e0620003cf8b828c0162000305565b9150509295985092959890939650565b6000620003ec82620003f3565b9050919050565b600073ffffffffffffffffffffffffffffffffffffffff82169050919050565b6200041e81620003df565b81146200042a57600080fd5b50565b612dca806200043d6000396000f3fe608060405234801561001057600080fd5b50600436106101585760003560e01c8063afcfb11a116100c3578063cee1a08b1161007c578063cee1a08b146103b9578063d914cd4b146103d7578063da09c72c14610407578063e88fa60b14610425578063f2fde38b14610443578063f3fef3a31461045f57610158565b8063afcfb11a146102f5578063b2b3687e14610313578063b4108a9414610331578063ba6392c014610361578063c22f4acf1461037f578063cadd36861461039d57610158565b80634f482954116101155780634f48295414610247578063582b2720146102635780636ebb64a214610281578063715018a61461029d5780638da5cb5b146102a757806399118706146102c557610158565b806307dc290a1461015d5780630c73bda91461018d57806313433cf0146101ad5780633ca2638f146101dd57806342d085321461020d57806347e7ef241461022b575b600080fd5b610177600480360381019061017291906124e8565b61047b565b604051610184919061297a565b60405180910390f35b6101956106b2565b6040516101a493929190612aa7565b60405180910390f35b6101c760048036038101906101c291906124e8565b6109ac565b6040516101d4919061297a565b60405180910390f35b6101f760048036038101906101f291906124e8565b610be3565b604051610204919061297a565b60405180910390f35b610215610e3e565b604051610222919061297a565b60405180910390f35b6102456004803603810190610240919061253a565b610e64565b005b610261600480360381019061025c91906124e8565b6110a7565b005b61026b611180565b604051610278919061297a565b60405180910390f35b61029b600480360381019061029691906124e8565b61123d565b005b6102a5611316565b005b6102af611469565b6040516102bc919061297a565b60405180910390f35b6102df60048036038101906102da9190612576565b611492565b6040516102ec919061297a565b60405180910390f35b6102fd6116cf565b60405161030a919061297a565b60405180910390f35b61031b6116f5565b604051610328919061297a565b60405180910390f35b61034b600480360381019061034691906124e8565b61171b565b604051610358919061297a565b60405180910390f35b61036961181e565b604051610376919061297a565b60405180910390f35b610387611844565b604051610394919061297a565b60405180910390f35b6103b760048036038101906103b291906124e8565b61186a565b005b6103c1611943565b6040516103ce919061297a565b60405180910390f35b6103f160048036038101906103ec91906124e8565b611969565b6040516103fe919061297a565b60405180910390f35b61040f611c60565b60405161041c919061297a565b60405180910390f35b61042d611c86565b60405161043a919061297a565b60405180910390f35b61045d600480360381019061045891906124e8565b611cac565b005b6104796004803603810190610474919061253a565b611e6e565b005b60006104856120b1565b73ffffffffffffffffffffffffffffffffffffffff1660008054906101000a900473ffffffffffffffffffffffffffffffffffffffff1673ffffffffffffffffffffffffffffffffffffffff1614610512576040517f08c379a000000000000000000000000000000000000000000000000000000000815260040161050990612b55565b60405180910390fd5b600061051d8361171b565b9050600660009054906101000a900473ffffffffffffffffffffffffffffffffffffffff1673ffffffffffffffffffffffffffffffffffffffff16632c2bd4df82856040518363ffffffff1660e01b815260040161057c9291906129d9565b602060405180830381600087803b15801561059657600080fd5b505af11580156105aa573d6000803e3d6000fd5b505050506040513d601f19601f820116820180604052508101906105ce9190612511565b91508073ffffffffffffffffffffffffffffffffffffffff16636f39cfcd836040518263ffffffff1660e01b8152600401610609919061297a565b600060405180830381600087803b15801561062357600080fd5b505af1158015610637573d6000803e3d6000fd5b505050508173ffffffffffffffffffffffffffffffffffffffff168173ffffffffffffffffffffffffffffffffffffffff168473ffffffffffffffffffffffffffffffffffffffff167f81c54aa5674e77c9aac9713afe82bfeefcbcd58ca46af5523737c8613dcab54f60405160405180910390a450919050565b6060806060600180548060200260200160405190810160405280929190818152602001828054801561073957602002820191906000526020600020905b8160009054906101000a900473ffffffffffffffffffffffffffffffffffffffff1673ffffffffffffffffffffffffffffffffffffffff16815260200190600101908083116106ef575b5050505050925060018054905067ffffffffffffffff8111801561075c57600080fd5b5060405190808252806020026020018201604052801561078b5781602001602082028036833780820191505090505b50915060018054905067ffffffffffffffff811180156107aa57600080fd5b506040519080825280602002602001820160405280156107de57816020015b60608152602001906001900390816107c95790505b50905060005b6001805490508110156109a657600181815481106107fe57fe5b9060005260206000200160009054906101000a900473ffffffffffffffffffffffffffffffffffffffff1673ffffffffffffffffffffffffffffffffffffffff1663582b27206040518163ffffffff1660e01b815260040160206040518083038186803b15801561086e57600080fd5b505afa158015610882573d6000803e3d6000fd5b505050506040513d601f19601f820116820180604052508101906108a69190612511565b8382815181106108b257fe5b602002602001019073ffffffffffffffffffffffffffffffffffffffff16908173ffffffffffffffffffffffffffffffffffffffff16815250508281815181106108f857fe5b602002602001015173ffffffffffffffffffffffffffffffffffffffff166395d89b416040518163ffffffff1660e01b815260040160006040518083038186803b15801561094557600080fd5b505afa158015610959573d6000803e3d6000fd5b505050506040513d6000823e3d601f19601f8201168201806040525081019061098291906125ee565b82828151811061098e57fe5b602002602001018190525080806001019150506107e4565b50909192565b60006109b66120b1565b73ffffffffffffffffffffffffffffffffffffffff1660008054906101000a900473ffffffffffffffffffffffffffffffffffffffff1673ffffffffffffffffffffffffffffffffffffffff1614610a43576040517f08c379a0000000000000000000000000000000000000000000000000000000008152600401610a3a90612b55565b60405180910390fd5b6000610a4e8361171b565b9050600760009054906101000a900473ffffffffffffffffffffffffffffffffffffffff1673ffffffffffffffffffffffffffffffffffffffff1663f266d08382856040518363ffffffff1660e01b8152600401610aad9291906129d9565b602060405180830381600087803b158015610ac757600080fd5b505af1158015610adb573d6000803e3d6000fd5b505050506040513d601f19601f82011682018060405250810190610aff9190612511565b91508073ffffffffffffffffffffffffffffffffffffffff1663032d2e32836040518263ffffffff1660e01b8152600401610b3a919061297a565b600060405180830381600087803b158015610b5457600080fd5b505af1158015610b68573d6000803e3d6000fd5b505050508173ffffffffffffffffffffffffffffffffffffffff168173ffffffffffffffffffffffffffffffffffffffff168473ffffffffffffffffffffffffffffffffffffffff167f3f0f8752d2869fec15fa224a6682b68dcdf2e8619fbd9a33e465373251ba455a60405160405180910390a450919050565b6000610bed6120b1565b73ffffffffffffffffffffffffffffffffffffffff1660008054906101000a900473ffffffffffffffffffffffffffffffffffffffff1673ffffffffffffffffffffffffffffffffffffffff1614610c7a576040517f08c379a0000000000000000000000000000000000000000000000000000000008152600401610c7190612b55565b60405180910390fd5b6000610c858361171b565b9050600860009054906101000a900473ffffffffffffffffffffffffffffffffffffffff1673ffffffffffffffffffffffffffffffffffffffff1663b26533bd8285600360009054906101000a900473ffffffffffffffffffffffffffffffffffffffff166040518463ffffffff1660e01b8152600401610d0893929190612a02565b602060405180830381600087803b158015610d2257600080fd5b505af1158015610d36573d6000803e3d6000fd5b505050506040513d601f19601f82011682018060405250810190610d5a9190612511565b91508073ffffffffffffffffffffffffffffffffffffffff1663d2c0aab2836040518263ffffffff1660e01b8152600401610d95919061297a565b600060405180830381600087803b158015610daf57600080fd5b505af1158015610dc3573d6000803e3d6000fd5b505050508173ffffffffffffffffffffffffffffffffffffffff168173ffffffffffffffffffffffffffffffffffffffff168473ffffffffffffffffffffffffffffffffffffffff167f26699e5a08e31c282d9931c717ba528dc45e328f9f6f9d8ac79063fa03af385d60405160405180910390a450919050565b600960009054906101000a900473ffffffffffffffffffffffffffffffffffffffff1681565b6000610e6f8361171b565b905060008060008373ffffffffffffffffffffffffffffffffffffffff166347e7ef2433876040518363ffffffff1660e01b8152600401610eb19291906129b0565b606060405180830381600087803b158015610ecb57600080fd5b505af1158015610edf573d6000803e3d6000fd5b505050506040513d601f19601f82011682018060405250810190610f039190612658565b925092509250600460009054906101000a900473ffffffffffffffffffffffffffffffffffffffff1673ffffffffffffffffffffffffffffffffffffffff166340c10f1930856040518363ffffffff1660e01b8152600401610f66929190612a7e565b600060405180830381600087803b158015610f8057600080fd5b505af1158015610f94573d6000803e3d6000fd5b50505050600460009054906101000a900473ffffffffffffffffffffffffffffffffffffffff1673ffffffffffffffffffffffffffffffffffffffff166340c10f19600a60009054906101000a900473ffffffffffffffffffffffffffffffffffffffff1661100d600a876120b990919063ffffffff16565b6040518363ffffffff1660e01b815260040161102a929190612a7e565b600060405180830381600087803b15801561104457600080fd5b505af1158015611058573d6000803e3d6000fd5b505050506110663383612103565b82817f991d73f5e17d46d419b8d00ea1ba02099a33278bef6ba16f591c3869fc665842336040516110979190612995565b60405180910390a3505050505050565b6110af6120b1565b73ffffffffffffffffffffffffffffffffffffffff1660008054906101000a900473ffffffffffffffffffffffffffffffffffffffff1673ffffffffffffffffffffffffffffffffffffffff161461113c576040517f08c379a000000000000000000000000000000000000000000000000000000000815260040161113390612b55565b60405180910390fd5b80600460006101000a81548173ffffffffffffffffffffffffffffffffffffffff021916908373ffffffffffffffffffffffffffffffffffffffff16021790555050565b6000600160008154811061119057fe5b9060005260206000200160009054906101000a900473ffffffffffffffffffffffffffffffffffffffff1673ffffffffffffffffffffffffffffffffffffffff1663582b27206040518163ffffffff1660e01b815260040160206040518083038186803b15801561120057600080fd5b505afa158015611214573d6000803e3d6000fd5b505050506040513d601f19601f820116820180604052508101906112389190612511565b905090565b6112456120b1565b73ffffffffffffffffffffffffffffffffffffffff1660008054906101000a900473ffffffffffffffffffffffffffffffffffffffff1673ffffffffffffffffffffffffffffffffffffffff16146112d2576040517f08c379a00000000000000000000000000000000000000000000000000000000081526004016112c990612b55565b60405180910390fd5b80600a60006101000a81548173ffffffffffffffffffffffffffffffffffffffff021916908373ffffffffffffffffffffffffffffffffffffffff16021790555050565b61131e6120b1565b73ffffffffffffffffffffffffffffffffffffffff1660008054906101000a900473ffffffffffffffffffffffffffffffffffffffff1673ffffffffffffffffffffffffffffffffffffffff16146113ab576040517f08c379a00000000000000000000000000000000000000000000000000000000081526004016113a290612b55565b60405180910390fd5b600073ffffffffffffffffffffffffffffffffffffffff1660008054906101000a900473ffffffffffffffffffffffffffffffffffffffff1673ffffffffffffffffffffffffffffffffffffffff167f8be0079c531659141344cd1fd0a4f28419497f9722a3daafe3b4186f6b6457e060405160405180910390a360008060006101000a81548173ffffffffffffffffffffffffffffffffffffffff021916908373ffffffffffffffffffffffffffffffffffffffff160217905550565b60008060009054906101000a900473ffffffffffffffffffffffffffffffffffffffff16905090565b600061149c6120b1565b73ffffffffffffffffffffffffffffffffffffffff1660008054906101000a900473ffffffffffffffffffffffffffffffffffffffff1673ffffffffffffffffffffffffffffffffffffffff1614611529576040517f08c379a000000000000000000000000000000000000000000000000000000000815260040161152090612b55565b60405180910390fd5b60006115348561171b565b9050600960009054906101000a900473ffffffffffffffffffffffffffffffffffffffff1673ffffffffffffffffffffffffffffffffffffffff1663d9000db5828787876040518563ffffffff1660e01b81526004016115979493929190612a39565b602060405180830381600087803b1580156115b157600080fd5b505af11580156115c5573d6000803e3d6000fd5b505050506040513d601f19601f820116820180604052508101906115e99190612511565b91508073ffffffffffffffffffffffffffffffffffffffff16636d19f81e836040518263ffffffff1660e01b8152600401611624919061297a565b600060405180830381600087803b15801561163e57600080fd5b505af1158015611652573d6000803e3d6000fd5b505050508173ffffffffffffffffffffffffffffffffffffffff168173ffffffffffffffffffffffffffffffffffffffff168673ffffffffffffffffffffffffffffffffffffffff167fdcb8d3fb618e50f3706e125bb3018f1b85edf73341dc14136a3488f1802aaa9f60405160405180910390a4509392505050565b600360009054906101000a900473ffffffffffffffffffffffffffffffffffffffff1681565b600660009054906101000a900473ffffffffffffffffffffffffffffffffffffffff1681565b600060016117726001600260008673ffffffffffffffffffffffffffffffffffffffff1673ffffffffffffffffffffffffffffffffffffffff1681526020019081526020016000205461232590919063ffffffff16565b8154811061177c57fe5b9060005260206000200160009054906101000a900473ffffffffffffffffffffffffffffffffffffffff169050600073ffffffffffffffffffffffffffffffffffffffff168173ffffffffffffffffffffffffffffffffffffffff161415611819576040517f08c379a000000000000000000000000000000000000000000000000000000000815260040161181090612b35565b60405180910390fd5b919050565b600460009054906101000a900473ffffffffffffffffffffffffffffffffffffffff1681565b600760009054906101000a900473ffffffffffffffffffffffffffffffffffffffff1681565b6118726120b1565b73ffffffffffffffffffffffffffffffffffffffff1660008054906101000a900473ffffffffffffffffffffffffffffffffffffffff1673ffffffffffffffffffffffffffffffffffffffff16146118ff576040517f08c379a00000000000000000000000000000000000000000000000000000000081526004016118f690612b55565b60405180910390fd5b80600360006101000a81548173ffffffffffffffffffffffffffffffffffffffff021916908373ffffffffffffffffffffffffffffffffffffffff16021790555050565b600560009054906101000a900473ffffffffffffffffffffffffffffffffffffffff1681565b60006119736120b1565b73ffffffffffffffffffffffffffffffffffffffff1660008054906101000a900473ffffffffffffffffffffffffffffffffffffffff1673ffffffffffffffffffffffffffffffffffffffff1614611a00576040517f08c379a00000000000000000000000000000000000000000000000000000000081526004016119f790612b55565b60405180910390fd5b6000600260008473ffffffffffffffffffffffffffffffffffffffff1673ffffffffffffffffffffffffffffffffffffffff1681526020019081526020016000205414611a82576040517f08c379a0000000000000000000000000000000000000000000000000000000008152600401611a7990612b75565b60405180910390fd5b600560009054906101000a900473ffffffffffffffffffffffffffffffffffffffff1673ffffffffffffffffffffffffffffffffffffffff1663e343361583600360009054906101000a900473ffffffffffffffffffffffffffffffffffffffff166040518363ffffffff1660e01b8152600401611b019291906129d9565b602060405180830381600087803b158015611b1b57600080fd5b505af1158015611b2f573d6000803e3d6000fd5b505050506040513d601f19601f82011682018060405250810190611b539190612511565b90506001819080600181540180825580915050600190039060005260206000200160009091909190916101000a81548173ffffffffffffffffffffffffffffffffffffffff021916908373ffffffffffffffffffffffffffffffffffffffff160217905550600180549050600260008473ffffffffffffffffffffffffffffffffffffffff1673ffffffffffffffffffffffffffffffffffffffff168152602001908152602001600020819055508073ffffffffffffffffffffffffffffffffffffffff168273ffffffffffffffffffffffffffffffffffffffff167f062107fcb2a202af1ba617d851daca9ade2580ccf29e346770119cc10b015f0760405160405180910390a3919050565b600a60009054906101000a900473ffffffffffffffffffffffffffffffffffffffff1681565b600860009054906101000a900473ffffffffffffffffffffffffffffffffffffffff1681565b611cb46120b1565b73ffffffffffffffffffffffffffffffffffffffff1660008054906101000a900473ffffffffffffffffffffffffffffffffffffffff1673ffffffffffffffffffffffffffffffffffffffff1614611d41576040517f08c379a0000000000000000000000000000000000000000000000000000000008152600401611d3890612b55565b60405180910390fd5b600073ffffffffffffffffffffffffffffffffffffffff168173ffffffffffffffffffffffffffffffffffffffff161415611db1576040517f08c379a0000000000000000000000000000000000000000000000000000000008152600401611da890612b15565b60405180910390fd5b8073ffffffffffffffffffffffffffffffffffffffff1660008054906101000a900473ffffffffffffffffffffffffffffffffffffffff1673ffffffffffffffffffffffffffffffffffffffff167f8be0079c531659141344cd1fd0a4f28419497f9722a3daafe3b4186f6b6457e060405160405180910390a3806000806101000a81548173ffffffffffffffffffffffffffffffffffffffff021916908373ffffffffffffffffffffffffffffffffffffffff16021790555050565b6000611e798361171b565b905060008060008373ffffffffffffffffffffffffffffffffffffffff1663f3fef3a333876040518363ffffffff1660e01b8152600401611ebb9291906129b0565b606060405180830381600087803b158015611ed557600080fd5b505af1158015611ee9573d6000803e3d6000fd5b505050506040513d601f19601f82011682018060405250810190611f0d9190612658565b925092509250600460009054906101000a900473ffffffffffffffffffffffffffffffffffffffff1673ffffffffffffffffffffffffffffffffffffffff166340c10f1930856040518363ffffffff1660e01b8152600401611f70929190612a7e565b600060405180830381600087803b158015611f8a57600080fd5b505af1158015611f9e573d6000803e3d6000fd5b50505050600460009054906101000a900473ffffffffffffffffffffffffffffffffffffffff1673ffffffffffffffffffffffffffffffffffffffff166340c10f19600a60009054906101000a900473ffffffffffffffffffffffffffffffffffffffff16612017600a876120b990919063ffffffff16565b6040518363ffffffff1660e01b8152600401612034929190612a7e565b600060405180830381600087803b15801561204e57600080fd5b505af1158015612062573d6000803e3d6000fd5b505050506120703383612103565b82817fc6254e05234109ee15b6dda0f5aa8d4bf101927de256f64e1f02b6214de02b8b336040516120a19190612995565b60405180910390a3505050505050565b600033905090565b60006120fb83836040518060400160405280601a81526020017f536166654d6174683a206469766973696f6e206279207a65726f00000000000081525061236f565b905092915050565b6000600460009054906101000a900473ffffffffffffffffffffffffffffffffffffffff1673ffffffffffffffffffffffffffffffffffffffff166370a08231306040518263ffffffff1660e01b8152600401612160919061297a565b60206040518083038186803b15801561217857600080fd5b505afa15801561218c573d6000803e3d6000fd5b505050506040513d601f19601f820116820180604052508101906121b0919061262f565b90508082111561226f57600460009054906101000a900473ffffffffffffffffffffffffffffffffffffffff1673ffffffffffffffffffffffffffffffffffffffff1663a9059cbb84836040518363ffffffff1660e01b8152600401612217929190612a7e565b602060405180830381600087803b15801561223157600080fd5b505af1158015612245573d6000803e3d6000fd5b505050506040513d601f19601f8201168201806040525081019061226991906125c5565b50612320565b600460009054906101000a900473ffffffffffffffffffffffffffffffffffffffff1673ffffffffffffffffffffffffffffffffffffffff1663a9059cbb84846040518363ffffffff1660e01b81526004016122cc929190612a7e565b602060405180830381600087803b1580156122e657600080fd5b505af11580156122fa573d6000803e3d6000fd5b505050506040513d601f19601f8201168201806040525081019061231e91906125c5565b505b505050565b600061236783836040518060400160405280601e81526020017f536166654d6174683a207375627472616374696f6e206f766572666c6f7700008152506123d0565b905092915050565b600080831182906123b6576040517f08c379a00000000000000000000000000000000000000000000000000000000081526004016123ad9190612af3565b60405180910390fd5b5060008385816123c257fe5b049050809150509392505050565b6000838311158290612418576040517f08c379a000000000000000000000000000000000000000000000000000000000815260040161240f9190612af3565b60405180910390fd5b5060008385039050809150509392505050565b60008135905061243a81612d4f565b92915050565b60008151905061244f81612d4f565b92915050565b60008151905061246481612d66565b92915050565b600082601f83011261247b57600080fd5b815161248e61248982612bc2565b612b95565b915080825260208301602083018583830111156124aa57600080fd5b6124b5838284612d0b565b50505092915050565b6000813590506124cd81612d7d565b92915050565b6000815190506124e281612d7d565b92915050565b6000602082840312156124fa57600080fd5b60006125088482850161242b565b91505092915050565b60006020828403121561252357600080fd5b600061253184828501612440565b91505092915050565b6000806040838503121561254d57600080fd5b600061255b8582860161242b565b925050602061256c858286016124be565b9150509250929050565b60008060006060848603121561258b57600080fd5b60006125998682870161242b565b93505060206125aa868287016124be565b92505060406125bb868287016124be565b9150509250925092565b6000602082840312156125d757600080fd5b60006125e584828501612455565b91505092915050565b60006020828403121561260057600080fd5b600082015167ffffffffffffffff81111561261a57600080fd5b6126268482850161246a565b91505092915050565b60006020828403121561264157600080fd5b600061264f848285016124d3565b91505092915050565b60008060006060848603121561266d57600080fd5b600061267b868287016124d3565b935050602061268c868287016124d3565b925050604061269d868287016124d3565b9150509250925092565b60006126b383836126e2565b60208301905092915050565b60006126cb83836127d3565b905092915050565b6126dc81612cd5565b82525050565b6126eb81612c8d565b82525050565b6126fa81612c8d565b82525050565b600061270b82612c0e565b6127158185612c49565b935061272083612bee565b8060005b8381101561275157815161273888826126a7565b975061274383612c2f565b925050600181019050612724565b5085935050505092915050565b600061276982612c19565b6127738185612c5a565b93508360208202850161278585612bfe565b8060005b858110156127c157848403895281516127a285826126bf565b94506127ad83612c3c565b925060208a01995050600181019050612789565b50829750879550505050505092915050565b60006127de82612c24565b6127e88185612c6b565b93506127f8818560208601612d0b565b61280181612d3e565b840191505092915050565b600061281782612c24565b6128218185612c7c565b9350612831818560208601612d0b565b61283a81612d3e565b840191505092915050565b6000612852602683612c7c565b91507f4f776e61626c653a206e6577206f776e657220697320746865207a65726f206160008301527f64647265737300000000000000000000000000000000000000000000000000006020830152604082019050919050565b60006128b8601883612c7c565b91507f676574416464723a20504f4f4c5f4e4f545f45584953545300000000000000006000830152602082019050919050565b60006128f8602083612c7c565b91507f4f776e61626c653a2063616c6c6572206973206e6f7420746865206f776e65726000830152602082019050919050565b6000612938601483612c7c565b91507f616464506f6f6c3a20504f4f4c5f4558495354530000000000000000000000006000830152602082019050919050565b61297481612ccb565b82525050565b600060208201905061298f60008301846126f1565b92915050565b60006020820190506129aa60008301846126d3565b92915050565b60006040820190506129c560008301856126d3565b6129d2602083018461296b565b9392505050565b60006040820190506129ee60008301856126f1565b6129fb60208301846126f1565b9392505050565b6000606082019050612a1760008301866126f1565b612a2460208301856126f1565b612a3160408301846126f1565b949350505050565b6000608082019050612a4e60008301876126f1565b612a5b60208301866126f1565b612a68604083018561296b565b612a75606083018461296b565b95945050505050565b6000604082019050612a9360008301856126f1565b612aa0602083018461296b565b9392505050565b60006060820190508181036000830152612ac18186612700565b90508181036020830152612ad58185612700565b90508181036040830152612ae9818461275e565b9050949350505050565b60006020820190508181036000830152612b0d818461280c565b905092915050565b60006020820190508181036000830152612b2e81612845565b9050919050565b60006020820190508181036000830152612b4e816128ab565b9050919050565b60006020820190508181036000830152612b6e816128eb565b9050919050565b60006020820190508181036000830152612b8e8161292b565b9050919050565b6000604051905081810181811067ffffffffffffffff82111715612bb857600080fd5b8060405250919050565b600067ffffffffffffffff821115612bd957600080fd5b601f19601f8301169050602081019050919050565b6000819050602082019050919050565b6000819050602082019050919050565b600081519050919050565b600081519050919050565b600081519050919050565b6000602082019050919050565b6000602082019050919050565b600082825260208201905092915050565b600082825260208201905092915050565b600082825260208201905092915050565b600082825260208201905092915050565b6000612c9882612cab565b9050919050565b60008115159050919050565b600073ffffffffffffffffffffffffffffffffffffffff82169050919050565b6000819050919050565b6000612ce082612ce7565b9050919050565b6000612cf282612cf9565b9050919050565b6000612d0482612cab565b9050919050565b60005b83811015612d29578082015181840152602081019050612d0e565b83811115612d38576000848401525b50505050565b6000601f19601f8301169050919050565b612d5881612c8d565b8114612d6357600080fd5b50565b612d6f81612c9f565b8114612d7a57600080fd5b50565b612d8681612ccb565b8114612d9157600080fd5b5056fea26469706673582212201a1a2a1844a6bd842d8e53aa55c597b7c7a01da2ec17f497bcd85b22930de62e64736f6c634300060c0033",
  "immutableReferences": {},
  "source": "// SPDX-License-Identifier: MIT\n\npragma solidity 0.6.12;\npragma experimental ABIEncoderV2;\n\nimport \"../openzeppelin/contracts/math/SafeMath.sol\";\nimport \"../openzeppelin/contracts/access/Ownable.sol\";\nimport \"../openzeppelin/contracts/token/ERC20/ERC20.sol\";\nimport \"../interface/IPoolCreator.sol\";\nimport \"../interface/IFundCreator.sol\";\nimport \"../interface/IRiskCreator.sol\";\nimport \"../interface/ITradeCreator.sol\";\nimport \"../interface/IMineCreator.sol\";\nimport \"../interface/IPool.sol\";\nimport \"../interface/ITeemoToken.sol\";\n\ncontract PoolFactory is Ownable {\n    using SafeMath for uint256;\n\n    event AddPool(address indexed tokenAddr, address indexed poolAddr);\n    event AddFund(\n        address indexed tokenAddr,\n        address indexed poolAddr,\n        address indexed createAddr\n    );\n    event AddRisk(\n        address indexed tokenAddr,\n        address indexed poolAddr,\n        address indexed createAddr\n    );\n    event AddTrade(\n        address indexed tokenAddr,\n        address indexed poolAddr,\n        address indexed createAddr\n    );\n    event AddMine(\n        address indexed tokenAddr,\n        address indexed poolAddr,\n        address indexed createAddr\n    );\n    event LPDeposit(\n        address _userAddr,\n        uint256 indexed lpAmount,\n        uint256 indexed teemoTokenAmount\n    );\n    event LPWithdraw(\n        address _userAddr,\n        uint256 indexed tokenAmount,\n        uint256 indexed teemoTokenAmount\n    );\n\n    address[] allPoolAddr;\n    mapping(address => uint256) private allPoolIndex;\n    address public quoteFactoryAddr;\n    address public teemoTokenAddr;\n    address public poolCreatorAddr;\n    address public fundCreatorAddr;\n    address public riskCreatorAddr;\n    address public tradeCreatorAddr;\n    address public mineCreatorAddr;\n    address public devAddr;\n\n    constructor(\n        address _quoteFactoryAddr,\n        address _teemoTokenAddr,\n        address _poolCreatorAddr,\n        address _fundCreatorAddr,\n        address _riskCreatorAddr,\n        address _tradeCreatorAddr,\n        address _mineCreatorAddr,\n        address _devAddr\n    ) public {\n        quoteFactoryAddr = _quoteFactoryAddr;\n        teemoTokenAddr = _teemoTokenAddr;\n        poolCreatorAddr = _poolCreatorAddr;\n        fundCreatorAddr = _fundCreatorAddr;\n        riskCreatorAddr = _riskCreatorAddr;\n        tradeCreatorAddr = _tradeCreatorAddr;\n        mineCreatorAddr = _mineCreatorAddr;\n        devAddr = _devAddr;\n    }\n\n    function getAllPoolInfo()\n        public\n        view\n        returns (\n            address[] memory allTeemoPoolAddr,\n            address[] memory allTokenAddr,\n            string[] memory allSymbol\n        )\n    {\n        allTeemoPoolAddr = allPoolAddr;\n        allTokenAddr = new address[](allPoolAddr.length);\n        allSymbol = new string[](allPoolAddr.length);\n\n        for (uint256 i = 0; i < allPoolAddr.length; i++) {\n            allTokenAddr[i] = IPool(allPoolAddr[i]).getTokenAddr();\n            allSymbol[i] = ERC20(allTokenAddr[i]).symbol();\n        }\n    }\n\n    function getTokenAddr() public view returns (address) {\n        return IPool(allPoolAddr[0]).getTokenAddr();\n    }\n\n    function setQuoteFactoryAddr(address _quoteFactoryAddr) public onlyOwner {\n        quoteFactoryAddr = _quoteFactoryAddr;\n    }\n\n    function setTeemoTokenAddr(address _teemoTokenAddr) public onlyOwner {\n        teemoTokenAddr = _teemoTokenAddr;\n    }\n\n    function setDevAddr(address _devAddr) public onlyOwner {\n        devAddr = _devAddr;\n    }\n\n    function addPool(address _tokenAddr)\n        public\n        onlyOwner\n        returns (address createAddr)\n    {\n        require(allPoolIndex[_tokenAddr] == 0, \"addPool: POOL_EXISTS\");\n        createAddr = IPoolCreator(poolCreatorAddr).createPool(\n            _tokenAddr,\n            quoteFactoryAddr\n        );\n        allPoolAddr.push(createAddr);\n        allPoolIndex[_tokenAddr] = allPoolAddr.length;\n        emit AddPool(_tokenAddr, createAddr);\n    }\n\n    function addFund(address _tokenAddr)\n        public\n        onlyOwner\n        returns (address createAddr)\n    {\n        address _poolAddr = getAddr(_tokenAddr);\n        createAddr = IFundCreator(fundCreatorAddr).createFund(\n            _poolAddr,\n            _tokenAddr\n        );\n        IPool(_poolAddr).setFundAddr(createAddr);\n        emit AddFund(_tokenAddr, _poolAddr, createAddr);\n    }\n\n    function addRisk(address _tokenAddr)\n        public\n        onlyOwner\n        returns (address createAddr)\n    {\n        address _poolAddr = getAddr(_tokenAddr);\n        createAddr = IRiskCreator(riskCreatorAddr).createRisk(\n            _poolAddr,\n            _tokenAddr\n        );\n        IPool(_poolAddr).setRiskAddr(createAddr);\n        emit AddRisk(_tokenAddr, _poolAddr, createAddr);\n    }\n\n    function addTrade(address _tokenAddr)\n        public\n        onlyOwner\n        returns (address createAddr)\n    {\n        address _poolAddr = getAddr(_tokenAddr);\n        createAddr = ITradeCreator(tradeCreatorAddr).createTrade(\n            _poolAddr,\n            _tokenAddr,\n            quoteFactoryAddr\n        );\n        IPool(_poolAddr).setTradeAddr(createAddr);\n        emit AddTrade(_tokenAddr, _poolAddr, createAddr);\n    }\n\n    function addMine(\n        address _tokenAddr,\n        uint256 _teemoPerBlock,\n        uint256 _startBlock\n    ) public onlyOwner returns (address createAddr) {\n        address _poolAddr = getAddr(_tokenAddr);\n        createAddr = IMineCreator(mineCreatorAddr).createMine(\n            _poolAddr,\n            _tokenAddr,\n            _teemoPerBlock,\n            _startBlock\n        );\n        IPool(_poolAddr).setMineAddr(createAddr);\n        emit AddMine(_tokenAddr, _poolAddr, createAddr);\n    }\n\n    function deposit(address _tokenAddr, uint256 _tokenAmount) public {\n        address _poolAddr = getAddr(_tokenAddr);\n        (\n            uint256 teemoTokenAmount,\n            uint256 userTeemoTokenAmount,\n            uint256 lpAmount\n        ) = IPool(_poolAddr).deposit(msg.sender, _tokenAmount);\n        ITeemoToken(teemoTokenAddr).mint(address(this), teemoTokenAmount);\n        ITeemoToken(teemoTokenAddr).mint(devAddr, teemoTokenAmount.div(10));\n        safeTeemoTransfer(msg.sender, userTeemoTokenAmount);\n        emit LPDeposit(msg.sender, lpAmount, teemoTokenAmount);\n    }\n\n    function withdraw(address _tokenAddr, uint256 _lpAmount) public {\n        address _poolAddr = getAddr(_tokenAddr);\n        (\n            uint256 teemoTokenAmount,\n            uint256 userTeemoTokenAmount,\n            uint256 tokenAmount\n        ) = IPool(_poolAddr).withdraw(msg.sender, _lpAmount);\n        ITeemoToken(teemoTokenAddr).mint(address(this), teemoTokenAmount);\n        ITeemoToken(teemoTokenAddr).mint(devAddr, teemoTokenAmount.div(10));\n        safeTeemoTransfer(msg.sender, userTeemoTokenAmount);\n        emit LPWithdraw(msg.sender, tokenAmount, teemoTokenAmount);\n    }\n\n    function getAddr(address _tokenAddr)\n        public\n        view\n        returns (address poolAddr)\n    {\n        poolAddr = allPoolAddr[allPoolIndex[_tokenAddr].sub(1)];\n        require(poolAddr != address(0), \"getAddr: POOL_NOT_EXISTS\");\n    }\n\n    function safeTeemoTransfer(address _to, uint256 _amount) internal {\n        uint256 teemoBal = ITeemoToken(teemoTokenAddr).balanceOf(address(this));\n        if (_amount > teemoBal) {\n            ITeemoToken(teemoTokenAddr).transfer(_to, teemoBal);\n        } else {\n            ITeemoToken(teemoTokenAddr).transfer(_to, _amount);\n        }\n    }\n}\n",
  "sourcePath": "/Users/tong/Projects/drep-project/teemo-private/contracts/pool/PoolFactory.sol",
  "compiler": {
    "name": "solc",
    "version": "0.6.12+commit.27d51765.Emscripten.clang"
  },
  "schemaVersion": "3.3.2",
  "updatedAt": "2020-12-07T11:16:56.063Z",
  "networkType": "ethereum",
  "devdoc": {
    "kind": "dev",
    "methods": {
      "owner()": {
        "details": "Returns the address of the current owner."
      },
      "renounceOwnership()": {
        "details": "Leaves the contract without owner. It will not be possible to call `onlyOwner` functions anymore. Can only be called by the current owner. NOTE: Renouncing ownership will leave the contract without an owner, thereby removing any functionality that is only available to the owner."
      },
      "transferOwnership(address)": {
        "details": "Transfers ownership of the contract to a new account (`newOwner`). Can only be called by the current owner."
      }
    },
    "version": 1
  },
  "userdoc": {
    "kind": "user",
    "methods": {},
    "version": 1
  }
}