{
  "contractName": "PoolProxy",
  "abi": [
    {
      "inputs": [
        {
          "internalType": "address",
          "name": "_poolFactoryAddr",
          "type": "address"
        }
      ],
      "stateMutability": "nonpayable",
      "type": "constructor"
    },
    {
      "anonymous": false,
      "inputs": [
        {
          "indexed": true,
          "internalType": "address",
          "name": "previousOwner",
          "type": "address"
        },
        {
          "indexed": true,
          "internalType": "address",
          "name": "newOwner",
          "type": "address"
        }
      ],
      "name": "OwnershipTransferred",
      "type": "event"
    },
    {
      "inputs": [],
      "name": "owner",
      "outputs": [
        {
          "internalType": "address",
          "name": "",
          "type": "address"
        }
      ],
      "stateMutability": "view",
      "type": "function"
    },
    {
      "inputs": [],
      "name": "poolFactoryAddr",
      "outputs": [
        {
          "internalType": "address",
          "name": "",
          "type": "address"
        }
      ],
      "stateMutability": "view",
      "type": "function"
    },
    {
      "inputs": [],
      "name": "renounceOwnership",
      "outputs": [],
      "stateMutability": "nonpayable",
      "type": "function"
    },
    {
      "inputs": [
        {
          "internalType": "address",
          "name": "newOwner",
          "type": "address"
        }
      ],
      "name": "transferOwnership",
      "outputs": [],
      "stateMutability": "nonpayable",
      "type": "function"
    },
    {
      "inputs": [
        {
          "internalType": "address",
          "name": "_poolFactoryAddr",
          "type": "address"
        }
      ],
      "name": "setPoolFactoryAddr",
      "outputs": [],
      "stateMutability": "nonpayable",
      "type": "function"
    },
    {
      "inputs": [],
      "name": "getAllPoolInfo",
      "outputs": [
        {
          "internalType": "address[]",
          "name": "allTeemoPoolAddr",
          "type": "address[]"
        },
        {
          "internalType": "address[]",
          "name": "allTokenAddr",
          "type": "address[]"
        },
        {
          "internalType": "string[]",
          "name": "allSymbol",
          "type": "string[]"
        }
      ],
      "stateMutability": "view",
      "type": "function"
    },
    {
      "inputs": [],
      "name": "poolLength",
      "outputs": [
        {
          "internalType": "uint256",
          "name": "",
          "type": "uint256"
        }
      ],
      "stateMutability": "view",
      "type": "function"
    },
    {
      "inputs": [
        {
          "internalType": "address",
          "name": "_teemoPoolAddr",
          "type": "address"
        },
        {
          "internalType": "bytes32",
          "name": "_orderID",
          "type": "bytes32"
        }
      ],
      "name": "getOrder",
      "outputs": [
        {
          "internalType": "address",
          "name": "userAddr",
          "type": "address"
        },
        {
          "internalType": "string",
          "name": "symbol",
          "type": "string"
        },
        {
          "internalType": "uint256",
          "name": "tokenAmount",
          "type": "uint256"
        },
        {
          "internalType": "uint256",
          "name": "lever",
          "type": "uint256"
        },
        {
          "internalType": "uint256",
          "name": "bsFlag",
          "type": "uint256"
        },
        {
          "internalType": "uint256",
          "name": "openPrice",
          "type": "uint256"
        },
        {
          "internalType": "uint256",
          "name": "openTime",
          "type": "uint256"
        },
        {
          "internalType": "uint256",
          "name": "pLimitPrice",
          "type": "uint256"
        },
        {
          "internalType": "uint256",
          "name": "lLimitPrice",
          "type": "uint256"
        },
        {
          "internalType": "uint256",
          "name": "closePrice",
          "type": "uint256"
        },
        {
          "internalType": "uint256",
          "name": "closeTime",
          "type": "uint256"
        }
      ],
      "stateMutability": "view",
      "type": "function"
    },
    {
      "inputs": [
        {
          "internalType": "address",
          "name": "_teemoPoolAddr",
          "type": "address"
        },
        {
          "internalType": "bytes32",
          "name": "_orderID",
          "type": "bytes32"
        }
      ],
      "name": "getLimitOrder",
      "outputs": [
        {
          "internalType": "address",
          "name": "userAddr",
          "type": "address"
        },
        {
          "internalType": "string",
          "name": "symbol",
          "type": "string"
        },
        {
          "internalType": "uint256",
          "name": "tokenAmount",
          "type": "uint256"
        },
        {
          "internalType": "uint256",
          "name": "lever",
          "type": "uint256"
        },
        {
          "internalType": "uint256",
          "name": "bsFlag",
          "type": "uint256"
        },
        {
          "internalType": "uint256",
          "name": "openPrice",
          "type": "uint256"
        },
        {
          "internalType": "uint256",
          "name": "openTime",
          "type": "uint256"
        },
        {
          "internalType": "uint256",
          "name": "newPrice",
          "type": "uint256"
        },
        {
          "internalType": "uint256",
          "name": "pLimitPrice",
          "type": "uint256"
        },
        {
          "internalType": "uint256",
          "name": "lLimitPrice",
          "type": "uint256"
        },
        {
          "internalType": "uint256",
          "name": "closeTime",
          "type": "uint256"
        },
        {
          "internalType": "uint256",
          "name": "status",
          "type": "uint256"
        }
      ],
      "stateMutability": "view",
      "type": "function"
    }
  ],
  "bytecode": "0x60806040523480156200001157600080fd5b50604051620018c6380380620018c683398181016040528101906200003791906200014e565b6000620000496200012f60201b60201c565b9050806000806101000a81548173ffffffffffffffffffffffffffffffffffffffff021916908373ffffffffffffffffffffffffffffffffffffffff1602179055508073ffffffffffffffffffffffffffffffffffffffff16600073ffffffffffffffffffffffffffffffffffffffff167f8be0079c531659141344cd1fd0a4f28419497f9722a3daafe3b4186f6b6457e060405160405180910390a35080600160006101000a81548173ffffffffffffffffffffffffffffffffffffffff021916908373ffffffffffffffffffffffffffffffffffffffff16021790555050620001c8565b600033905090565b6000815190506200014881620001ae565b92915050565b6000602082840312156200016157600080fd5b6000620001718482850162000137565b91505092915050565b600062000187826200018e565b9050919050565b600073ffffffffffffffffffffffffffffffffffffffff82169050919050565b620001b9816200017a565b8114620001c557600080fd5b50565b6116ee80620001d86000396000f3fe608060405234801561001057600080fd5b50600436106100935760003560e01c8063715018a611610066578063715018a61461012c57806386f28fc5146101365780638da5cb5b14610171578063b06b9fbe1461018f578063f2fde38b146101ad57610093565b8063081e3eda146100985780630c73bda9146100b65780632a0892e8146100d657806349651b6a146100f2575b600080fd5b6100a06101c9565b6040516100ad91906114d6565b60405180910390f35b6100be610270565b6040516100cd9392919061142f565b60405180910390f35b6100f060048036038101906100eb9190610e4e565b6106d5565b005b61010c60048036038101906101079190610ea0565b610719565b6040516101239b9a999897969594939291906112bc565b60405180910390f35b610134610a17565b005b610150600480360381019061014b9190610ea0565b610b6a565b6040516101689c9b9a9998979695949392919061136e565b60405180910390f35b610179610b8d565b60405161018691906112a1565b60405180910390f35b610197610bb6565b6040516101a491906112a1565b60405180910390f35b6101c760048036038101906101c29190610e4e565b610bdc565b005b6000600160009054906101000a900473ffffffffffffffffffffffffffffffffffffffff1673ffffffffffffffffffffffffffffffffffffffff1663081e3eda6040518163ffffffff1660e01b815260040160206040518083038186803b15801561023357600080fd5b505afa158015610247573d6000803e3d6000fd5b505050506040513d601f19601f8201168201806040525081019061026b9190611025565b905090565b60608060606000600160009054906101000a900473ffffffffffffffffffffffffffffffffffffffff1673ffffffffffffffffffffffffffffffffffffffff1663081e3eda6040518163ffffffff1660e01b815260040160206040518083038186803b1580156102df57600080fd5b505afa1580156102f3573d6000803e3d6000fd5b505050506040513d601f19601f820116820180604052508101906103179190611025565b90508067ffffffffffffffff8111801561033057600080fd5b5060405190808252806020026020018201604052801561035f5781602001602082028036833780820191505090505b5093508067ffffffffffffffff8111801561037957600080fd5b506040519080825280602002602001820160405280156103a85781602001602082028036833780820191505090505b5092508067ffffffffffffffff811180156103c257600080fd5b506040519080825280602002602001820160405280156103f657816020015b60608152602001906001900390816103e15790505b50915060005b818110156106ce57600160009054906101000a900473ffffffffffffffffffffffffffffffffffffffff1673ffffffffffffffffffffffffffffffffffffffff16639612b0c4826040518263ffffffff1660e01b815260040161045f91906114d6565b60206040518083038186803b15801561047757600080fd5b505afa15801561048b573d6000803e3d6000fd5b505050506040513d601f19601f820116820180604052508101906104af9190610e77565b8582815181106104bb57fe5b602002602001019073ffffffffffffffffffffffffffffffffffffffff16908173ffffffffffffffffffffffffffffffffffffffff168152505084818151811061050157fe5b602002602001015173ffffffffffffffffffffffffffffffffffffffff16635fbe4d1d6040518163ffffffff1660e01b815260040160206040518083038186803b15801561054e57600080fd5b505afa158015610562573d6000803e3d6000fd5b505050506040513d601f19601f820116820180604052508101906105869190610e77565b84828151811061059257fe5b602002602001019073ffffffffffffffffffffffffffffffffffffffff16908173ffffffffffffffffffffffffffffffffffffffff1681525050600073ffffffffffffffffffffffffffffffffffffffff168482815181106105f057fe5b602002602001015173ffffffffffffffffffffffffffffffffffffffff16146106c15783818151811061061f57fe5b602002602001015173ffffffffffffffffffffffffffffffffffffffff166395d89b416040518163ffffffff1660e01b815260040160006040518083038186803b15801561066c57600080fd5b505afa158015610680573d6000803e3d6000fd5b505050506040513d6000823e3d601f19601f820116820180604052508101906106a99190610fe4565b8382815181106106b557fe5b60200260200101819052505b80806001019150506103fc565b5050909192565b80600160006101000a81548173ffffffffffffffffffffffffffffffffffffffff021916908373ffffffffffffffffffffffffffffffffffffffff16021790555050565b600060606000806000806000806000806000808d73ffffffffffffffffffffffffffffffffffffffff1663a16098c06040518163ffffffff1660e01b815260040160206040518083038186803b15801561077257600080fd5b505afa158015610786573d6000803e3d6000fd5b505050506040513d601f19601f820116820180604052508101906107aa9190610e77565b90508073ffffffffffffffffffffffffffffffffffffffff166339cbd01f8e6040518263ffffffff1660e01b81526004016107e5919061147b565b60006040518083038186803b1580156107fd57600080fd5b505afa158015610811573d6000803e3d6000fd5b505050506040513d6000823e3d601f19601f8201168201806040525081019061083a9190610edc565b90919293949550909192939450909192935090919250909150905050809c50819d50829e50839f50505050508073ffffffffffffffffffffffffffffffffffffffff166339cbd01f8e6040518263ffffffff1660e01b815260040161089f919061147b565b60006040518083038186803b1580156108b757600080fd5b505afa1580156108cb573d6000803e3d6000fd5b505050506040513d6000823e3d601f19601f820116820180604052508101906108f49190610edc565b9091929394959697989950909192939495969798509091929394959697509091929394959650909150905050809850819950829a50839b50505050508073ffffffffffffffffffffffffffffffffffffffff166339cbd01f8e6040518263ffffffff1660e01b8152600401610969919061147b565b60006040518083038186803b15801561098157600080fd5b505afa158015610995573d6000803e3d6000fd5b505050506040513d6000823e3d601f19601f820116820180604052508101906109be9190610edc565b909192939495969798995090919293949596979850909192939495969750909192939495965090919293949550909192939450909192935080955081965082975083985050505050509295989b509295989b9093969950565b610a1f610d9e565b73ffffffffffffffffffffffffffffffffffffffff1660008054906101000a900473ffffffffffffffffffffffffffffffffffffffff1673ffffffffffffffffffffffffffffffffffffffff1614610aac576040517f08c379a0000000000000000000000000000000000000000000000000000000008152600401610aa3906114b6565b60405180910390fd5b600073ffffffffffffffffffffffffffffffffffffffff1660008054906101000a900473ffffffffffffffffffffffffffffffffffffffff1673ffffffffffffffffffffffffffffffffffffffff167f8be0079c531659141344cd1fd0a4f28419497f9722a3daafe3b4186f6b6457e060405160405180910390a360008060006101000a81548173ffffffffffffffffffffffffffffffffffffffff021916908373ffffffffffffffffffffffffffffffffffffffff160217905550565b600060606000806000806000806000806000809295989b509295989b509295989b565b60008060009054906101000a900473ffffffffffffffffffffffffffffffffffffffff16905090565b600160009054906101000a900473ffffffffffffffffffffffffffffffffffffffff1681565b610be4610d9e565b73ffffffffffffffffffffffffffffffffffffffff1660008054906101000a900473ffffffffffffffffffffffffffffffffffffffff1673ffffffffffffffffffffffffffffffffffffffff1614610c71576040517f08c379a0000000000000000000000000000000000000000000000000000000008152600401610c68906114b6565b60405180910390fd5b600073ffffffffffffffffffffffffffffffffffffffff168173ffffffffffffffffffffffffffffffffffffffff161415610ce1576040517f08c379a0000000000000000000000000000000000000000000000000000000008152600401610cd890611496565b60405180910390fd5b8073ffffffffffffffffffffffffffffffffffffffff1660008054906101000a900473ffffffffffffffffffffffffffffffffffffffff1673ffffffffffffffffffffffffffffffffffffffff167f8be0079c531659141344cd1fd0a4f28419497f9722a3daafe3b4186f6b6457e060405160405180910390a3806000806101000a81548173ffffffffffffffffffffffffffffffffffffffff021916908373ffffffffffffffffffffffffffffffffffffffff16021790555050565b600033905090565b600081359050610db581611673565b92915050565b600081519050610dca81611673565b92915050565b600081359050610ddf8161168a565b92915050565b600082601f830112610df657600080fd5b8151610e09610e048261151e565b6114f1565b91508082526020830160208301858383011115610e2557600080fd5b610e3083828461162f565b50505092915050565b600081519050610e48816116a1565b92915050565b600060208284031215610e6057600080fd5b6000610e6e84828501610da6565b91505092915050565b600060208284031215610e8957600080fd5b6000610e9784828501610dbb565b91505092915050565b60008060408385031215610eb357600080fd5b6000610ec185828601610da6565b9250506020610ed285828601610dd0565b9150509250929050565b60008060008060008060008060008060006101608c8e031215610efe57600080fd5b6000610f0c8e828f01610dbb565b9b505060208c015167ffffffffffffffff811115610f2957600080fd5b610f358e828f01610de5565b9a50506040610f468e828f01610e39565b9950506060610f578e828f01610e39565b9850506080610f688e828f01610e39565b97505060a0610f798e828f01610e39565b96505060c0610f8a8e828f01610e39565b95505060e0610f9b8e828f01610e39565b945050610100610fad8e828f01610e39565b935050610120610fbf8e828f01610e39565b925050610140610fd18e828f01610e39565b9150509295989b509295989b9093969950565b600060208284031215610ff657600080fd5b600082015167ffffffffffffffff81111561101057600080fd5b61101c84828501610de5565b91505092915050565b60006020828403121561103757600080fd5b600061104584828501610e39565b91505092915050565b600061105a838361107a565b60208301905092915050565b6000611072838361117a565b905092915050565b611083816115e9565b82525050565b611092816115e9565b82525050565b60006110a38261156a565b6110ad81856115a5565b93506110b88361154a565b8060005b838110156110e95781516110d0888261104e565b97506110db8361158b565b9250506001810190506110bc565b5085935050505092915050565b600061110182611575565b61110b81856115b6565b93508360208202850161111d8561155a565b8060005b85811015611159578484038952815161113a8582611066565b945061114583611598565b925060208a01995050600181019050611121565b50829750879550505050505092915050565b611174816115fb565b82525050565b600061118582611580565b61118f81856115c7565b935061119f81856020860161162f565b6111a881611662565b840191505092915050565b60006111be82611580565b6111c881856115d8565b93506111d881856020860161162f565b6111e181611662565b840191505092915050565b60006111f96026836115d8565b91507f4f776e61626c653a206e6577206f776e657220697320746865207a65726f206160008301527f64647265737300000000000000000000000000000000000000000000000000006020830152604082019050919050565b600061125f6020836115d8565b91507f4f776e61626c653a2063616c6c6572206973206e6f7420746865206f776e65726000830152602082019050919050565b61129b81611625565b82525050565b60006020820190506112b66000830184611089565b92915050565b6000610160820190506112d2600083018e611089565b81810360208301526112e4818d6111b3565b90506112f3604083018c611292565b611300606083018b611292565b61130d608083018a611292565b61131a60a0830189611292565b61132760c0830188611292565b61133460e0830187611292565b611342610100830186611292565b611350610120830185611292565b61135e610140830184611292565b9c9b505050505050505050505050565b600061018082019050611384600083018f611089565b8181036020830152611396818e6111b3565b90506113a5604083018d611292565b6113b2606083018c611292565b6113bf608083018b611292565b6113cc60a083018a611292565b6113d960c0830189611292565b6113e660e0830188611292565b6113f4610100830187611292565b611402610120830186611292565b611410610140830185611292565b61141e610160830184611292565b9d9c50505050505050505050505050565b600060608201905081810360008301526114498186611098565b9050818103602083015261145d8185611098565b9050818103604083015261147181846110f6565b9050949350505050565b6000602082019050611490600083018461116b565b92915050565b600060208201905081810360008301526114af816111ec565b9050919050565b600060208201905081810360008301526114cf81611252565b9050919050565b60006020820190506114eb6000830184611292565b92915050565b6000604051905081810181811067ffffffffffffffff8211171561151457600080fd5b8060405250919050565b600067ffffffffffffffff82111561153557600080fd5b601f19601f8301169050602081019050919050565b6000819050602082019050919050565b6000819050602082019050919050565b600081519050919050565b600081519050919050565b600081519050919050565b6000602082019050919050565b6000602082019050919050565b600082825260208201905092915050565b600082825260208201905092915050565b600082825260208201905092915050565b600082825260208201905092915050565b60006115f482611605565b9050919050565b6000819050919050565b600073ffffffffffffffffffffffffffffffffffffffff82169050919050565b6000819050919050565b60005b8381101561164d578082015181840152602081019050611632565b8381111561165c576000848401525b50505050565b6000601f19601f8301169050919050565b61167c816115e9565b811461168757600080fd5b50565b611693816115fb565b811461169e57600080fd5b50565b6116aa81611625565b81146116b557600080fd5b5056fea26469706673582212203db5f86ad49a2d9f90062c08b4ddd2cfe2b5a3ca6ce83fa3d3a7326a6865accb64736f6c634300060c0033",
  "immutableReferences": {},
  "source": "// SPDX-License-Identifier: MIT\n\npragma solidity >=0.6.12;\npragma experimental ABIEncoderV2;\n\nimport \"../openzeppelin/contracts/access/Ownable.sol\";\nimport \"./TeemoPool.sol\";\nimport \"../trade/SwapTrade.sol\";\nimport \"../openzeppelin/contracts/token/ERC20/ERC20.sol\";\n// import \"../interface/ICreator.sol\";\nimport \"./PoolFactory.sol\";\nimport \"./TeemoPool.sol\";\n\ncontract PoolProxy is Ownable {\n    address public poolFactoryAddr;\n\n    constructor(\n        address _poolFactoryAddr\n    ) public {\n        poolFactoryAddr = _poolFactoryAddr;\n    }\n\n    function setPoolFactoryAddr(address _poolFactoryAddr) public {\n        poolFactoryAddr = _poolFactoryAddr;\n    }\n\n    function getAllPoolInfo()\n        public\n        view\n        returns (\n            address[] memory allTeemoPoolAddr,\n            address[] memory allTokenAddr,\n            string[] memory allSymbol\n            //,uint256[] memory allBalanceOf\n        )\n    {\n        uint256 poolLength = PoolFactory(poolFactoryAddr).poolLength();\n        \n        allTeemoPoolAddr = new address[](poolLength);\n        allTokenAddr = new address[](poolLength);\n        allSymbol = new string[](poolLength);\n        //allBalanceOf = new uint256[](poolLength);\n\n        for (uint256 i = 0; i < poolLength; i++) {\n            allTeemoPoolAddr[i] = PoolFactory(poolFactoryAddr).allPoolAddr(i);\n            allTokenAddr[i] = TeemoPool(allTeemoPoolAddr[i]).tokenAddr();\n            if (allTokenAddr[i] != address(0)) {\n                allSymbol[i] = ERC20(allTokenAddr[i]).symbol();\n            }\n            //allBalanceOf[i] = ERC20(allTokenAddr[i]).balanceOf(msg.sender);\n        }\n    }\n\n    function poolLength() public view returns(uint256) {\n        return PoolFactory(poolFactoryAddr).poolLength();\n    }\n\n    // function orderLength(address _teemoPoolAddr, address _userAddress) public view returns (uint256) {\n    //     TeemoPool(_teemoPoolAddr).swapTradeAddr\n    // }\n\n    function getOrder(address _teemoPoolAddr, bytes32 _orderID)\n        public\n        view\n        returns (\n            address userAddr,\n            string memory symbol,\n            uint256 tokenAmount,\n            uint256 lever,\n            uint256 bsFlag,\n            uint256 openPrice,\n            uint256 openTime,\n            uint256 pLimitPrice,\n            uint256 lLimitPrice,\n            uint256 closePrice,\n            uint256 closeTime\n        )\n    {\n        address swapTradeAddr = TeemoPool(_teemoPoolAddr).swapTradeAddr();\n        (userAddr, symbol, tokenAmount, lever, , , , , , , ) = SwapTrade(swapTradeAddr).allOrderHash(_orderID);\n        (, , , , bsFlag, openPrice, openTime, pLimitPrice, , , ) = SwapTrade(swapTradeAddr).allOrderHash(_orderID);\n        (, , , , , , , pLimitPrice, lLimitPrice, closePrice, closeTime) = SwapTrade(swapTradeAddr).allOrderHash(_orderID);\n    }\n\n    function getLimitOrder(address _teemoPoolAddr, bytes32 _orderID)\n        public\n        view\n        returns (\n            address userAddr,\n            string memory symbol,\n            uint256 tokenAmount,\n            uint256 lever,\n            uint256 bsFlag,\n            uint256 openPrice,\n            uint256 openTime,\n            uint256 newPrice,\n            uint256 pLimitPrice,\n            uint256 lLimitPrice,\n            uint256 closeTime,\n            uint256 status\n        ) \n    {\n        //address swapTradeAddr = TeemoPool(_teemoPoolAddr).swapTradeAddr();\n        //userAddr, symbol, tokenAmount, lever, bsFlag, openPrice, openTime, newPrice, pLimitPrice, lLimitPrice, closeTime, status\n        //(userAddr, , , , , , , , , , , ) = SwapTrade(swapTradeAddr).allOrderHash(_orderID);\n        // (, , , , bsFlag, openPrice, openTime, pLimitPrice, , , , ) = SwapTrade(swapTradeAddr).allLimitOrderHash(_orderID);\n        // (, , , , , , , , pLimitPrice, lLimitPrice, closeTime, status) = SwapTrade(swapTradeAddr).allLimitOrderHash(_orderID);\n    }\n}\n",
  "sourcePath": "/Users/tong/Projects/drep-project/teemo-private/contracts/pool/PoolProxy.sol",
  "compiler": {
    "name": "solc",
    "version": "0.6.12+commit.27d51765.Emscripten.clang"
  },
  "schemaVersion": "3.3.2",
  "updatedAt": "2021-01-15T02:30:36.787Z",
  "devdoc": {
    "kind": "dev",
    "methods": {
      "owner()": {
        "details": "Returns the address of the current owner."
      },
      "renounceOwnership()": {
        "details": "Leaves the contract without owner. It will not be possible to call `onlyOwner` functions anymore. Can only be called by the current owner. NOTE: Renouncing ownership will leave the contract without an owner, thereby removing any functionality that is only available to the owner."
      },
      "transferOwnership(address)": {
        "details": "Transfers ownership of the contract to a new account (`newOwner`). Can only be called by the current owner."
      }
    },
    "version": 1
  },
  "userdoc": {
    "kind": "user",
    "methods": {},
    "version": 1
  }
}