{
  "contractName": "QuoteFactory",
  "abi": [
    {
      "anonymous": false,
      "inputs": [
        {
          "indexed": true,
          "internalType": "string",
          "name": "symbol",
          "type": "string"
        },
        {
          "indexed": true,
          "internalType": "uint256",
          "name": "newPrice",
          "type": "uint256"
        }
      ],
      "name": "AddPrice",
      "type": "event"
    },
    {
      "anonymous": false,
      "inputs": [
        {
          "indexed": true,
          "internalType": "address",
          "name": "quoteAddr",
          "type": "address"
        }
      ],
      "name": "AddQuote",
      "type": "event"
    },
    {
      "anonymous": false,
      "inputs": [
        {
          "indexed": true,
          "internalType": "string",
          "name": "symbol",
          "type": "string"
        },
        {
          "indexed": true,
          "internalType": "uint256",
          "name": "blockIndex",
          "type": "uint256"
        }
      ],
      "name": "DelPrice",
      "type": "event"
    },
    {
      "anonymous": false,
      "inputs": [
        {
          "indexed": true,
          "internalType": "address",
          "name": "previousOwner",
          "type": "address"
        },
        {
          "indexed": true,
          "internalType": "address",
          "name": "newOwner",
          "type": "address"
        }
      ],
      "name": "OwnershipTransferred",
      "type": "event"
    },
    {
      "inputs": [],
      "name": "owner",
      "outputs": [
        {
          "internalType": "address",
          "name": "",
          "type": "address"
        }
      ],
      "stateMutability": "view",
      "type": "function"
    },
    {
      "inputs": [],
      "name": "renounceOwnership",
      "outputs": [],
      "stateMutability": "nonpayable",
      "type": "function"
    },
    {
      "inputs": [
        {
          "internalType": "address",
          "name": "newOwner",
          "type": "address"
        }
      ],
      "name": "transferOwnership",
      "outputs": [],
      "stateMutability": "nonpayable",
      "type": "function"
    },
    {
      "inputs": [
        {
          "internalType": "string",
          "name": "_symbol",
          "type": "string"
        }
      ],
      "name": "addQuote",
      "outputs": [
        {
          "internalType": "address",
          "name": "quoteAddr",
          "type": "address"
        }
      ],
      "stateMutability": "nonpayable",
      "type": "function"
    },
    {
      "inputs": [
        {
          "internalType": "string",
          "name": "_symbol",
          "type": "string"
        },
        {
          "internalType": "uint256[]",
          "name": "price",
          "type": "uint256[]"
        }
      ],
      "name": "addPrice",
      "outputs": [],
      "stateMutability": "nonpayable",
      "type": "function"
    },
    {
      "inputs": [
        {
          "internalType": "string",
          "name": "_symbol",
          "type": "string"
        },
        {
          "internalType": "uint256",
          "name": "blockIndex",
          "type": "uint256"
        }
      ],
      "name": "delPrice",
      "outputs": [],
      "stateMutability": "nonpayable",
      "type": "function"
    },
    {
      "inputs": [
        {
          "internalType": "string",
          "name": "_symbol",
          "type": "string"
        }
      ],
      "name": "getNewPrice",
      "outputs": [
        {
          "internalType": "uint256",
          "name": "blockIndex",
          "type": "uint256"
        },
        {
          "internalType": "uint256",
          "name": "newPrice",
          "type": "uint256"
        },
        {
          "internalType": "uint256",
          "name": "priceTime",
          "type": "uint256"
        }
      ],
      "stateMutability": "view",
      "type": "function"
    },
    {
      "inputs": [
        {
          "internalType": "string",
          "name": "_symbol",
          "type": "string"
        },
        {
          "internalType": "uint256",
          "name": "_blockIndex",
          "type": "uint256"
        }
      ],
      "name": "getLastPrice",
      "outputs": [
        {
          "internalType": "uint256",
          "name": "blockIndex",
          "type": "uint256"
        },
        {
          "internalType": "uint256",
          "name": "newPrice",
          "type": "uint256"
        },
        {
          "internalType": "uint256",
          "name": "priceTime",
          "type": "uint256"
        }
      ],
      "stateMutability": "view",
      "type": "function"
    },
    {
      "inputs": [
        {
          "internalType": "string",
          "name": "_symbol",
          "type": "string"
        }
      ],
      "name": "getAddr",
      "outputs": [
        {
          "internalType": "address",
          "name": "quoteAddr",
          "type": "address"
        }
      ],
      "stateMutability": "view",
      "type": "function"
    }
  ],
  "bytecode": "0x608060405234801561001057600080fd5b5060006100216100c460201b60201c565b9050806000806101000a81548173ffffffffffffffffffffffffffffffffffffffff021916908373ffffffffffffffffffffffffffffffffffffffff1602179055508073ffffffffffffffffffffffffffffffffffffffff16600073ffffffffffffffffffffffffffffffffffffffff167f8be0079c531659141344cd1fd0a4f28419497f9722a3daafe3b4186f6b6457e060405160405180910390a3506100cc565b600033905090565b612905806100db6000396000f3fe608060405234801561001057600080fd5b50600436106100935760003560e01c8063d053dd6e11610066578063d053dd6e146102ea578063d4a06b87146103cf578063d502db97146104b6578063e8084a871461059b578063f2fde38b1461067857610093565b80633c50bcd714610098578063715018a6146101e7578063849562bd146101f15780638da5cb5b146102b6575b600080fd5b6101e5600480360360408110156100ae57600080fd5b81019080803590602001906401000000008111156100cb57600080fd5b8201836020820111156100dd57600080fd5b803590602001918460018302840111640100000000831117156100ff57600080fd5b91908080601f016020809104026020016040519081016040528093929190818152602001838380828437600081840152601f19601f8201169050808301925050505050505091929192908035906020019064010000000081111561016257600080fd5b82018360208201111561017457600080fd5b8035906020019184602083028401116401000000008311171561019657600080fd5b919080806020026020016040519081016040528093929190818152602001838360200280828437600081840152601f19601f8201169050808301925050505050505091929192905050506106bc565b005b6101ef6108f8565b005b6102b46004803603604081101561020757600080fd5b810190808035906020019064010000000081111561022457600080fd5b82018360208201111561023657600080fd5b8035906020019184600183028401116401000000008311171561025857600080fd5b91908080601f016020809104026020016040519081016040528093929190818152602001838380828437600081840152601f19601f82011690508083019250505050505050919291929080359060200190929190505050610a7e565b005b6102be610c75565b604051808273ffffffffffffffffffffffffffffffffffffffff16815260200191505060405180910390f35b6103a36004803603602081101561030057600080fd5b810190808035906020019064010000000081111561031d57600080fd5b82018360208201111561032f57600080fd5b8035906020019184600183028401116401000000008311171561035157600080fd5b91908080601f016020809104026020016040519081016040528093929190818152602001838380828437600081840152601f19601f820116905080830192505050505050509192919290505050610c9e565b604051808273ffffffffffffffffffffffffffffffffffffffff16815260200191505060405180910390f35b610492600480360360408110156103e557600080fd5b810190808035906020019064010000000081111561040257600080fd5b82018360208201111561041457600080fd5b8035906020019184600183028401116401000000008311171561043657600080fd5b91908080601f016020809104026020016040519081016040528093929190818152602001838380828437600081840152601f19601f82011690508083019250505050505050919291929080359060200190929190505050611180565b60405180848152602001838152602001828152602001935050505060405180910390f35b61056f600480360360208110156104cc57600080fd5b81019080803590602001906401000000008111156104e957600080fd5b8201836020820111156104fb57600080fd5b8035906020019184600183028401116401000000008311171561051d57600080fd5b91908080601f016020809104026020016040519081016040528093929190818152602001838380828437600081840152601f19601f820116905080830192505050505050509192919290505050611245565b604051808273ffffffffffffffffffffffffffffffffffffffff16815260200191505060405180910390f35b610654600480360360208110156105b157600080fd5b81019080803590602001906401000000008111156105ce57600080fd5b8201836020820111156105e057600080fd5b8035906020019184600183028401116401000000008311171561060257600080fd5b91908080601f016020809104026020016040519081016040528093929190818152602001838380828437600081840152601f19601f82011690508083019250505050505050919291929050505061137b565b60405180848152602001838152602001828152602001935050505060405180910390f35b6106ba6004803603602081101561068e57600080fd5b81019080803573ffffffffffffffffffffffffffffffffffffffff169060200190929190505050611435565b005b6106c4611640565b73ffffffffffffffffffffffffffffffffffffffff1660008054906101000a900473ffffffffffffffffffffffffffffffffffffffff1673ffffffffffffffffffffffffffffffffffffffff1614610784576040517f08c379a00000000000000000000000000000000000000000000000000000000081526004018080602001828103825260208152602001807f4f776e61626c653a2063616c6c6572206973206e6f7420746865206f776e657281525060200191505060405180910390fd5b600061078f83611245565b905060008173ffffffffffffffffffffffffffffffffffffffff1663f6ed06a4846040518263ffffffff1660e01b81526004018080602001828103825283818151815260200191508051906020019060200280838360005b838110156108025780820151818401526020810190506107e7565b5050505090500192505050602060405180830381600087803b15801561082757600080fd5b505af115801561083b573d6000803e3d6000fd5b505050506040513d602081101561085157600080fd5b8101908080519060200190929190505050905080846040518082805190602001908083835b602083106108995780518252602082019150602081019050602083039250610876565b6001836020036101000a03801982511681845116808217855250505050505090500191505060405180910390207f23239e357550227dee169e4dc7ea1e83fee2e773c179541e55254b1bd8c89c8360405160405180910390a350505050565b610900611640565b73ffffffffffffffffffffffffffffffffffffffff1660008054906101000a900473ffffffffffffffffffffffffffffffffffffffff1673ffffffffffffffffffffffffffffffffffffffff16146109c0576040517f08c379a00000000000000000000000000000000000000000000000000000000081526004018080602001828103825260208152602001807f4f776e61626c653a2063616c6c6572206973206e6f7420746865206f776e657281525060200191505060405180910390fd5b600073ffffffffffffffffffffffffffffffffffffffff1660008054906101000a900473ffffffffffffffffffffffffffffffffffffffff1673ffffffffffffffffffffffffffffffffffffffff167f8be0079c531659141344cd1fd0a4f28419497f9722a3daafe3b4186f6b6457e060405160405180910390a360008060006101000a81548173ffffffffffffffffffffffffffffffffffffffff021916908373ffffffffffffffffffffffffffffffffffffffff160217905550565b610a86611640565b73ffffffffffffffffffffffffffffffffffffffff1660008054906101000a900473ffffffffffffffffffffffffffffffffffffffff1673ffffffffffffffffffffffffffffffffffffffff1614610b46576040517f08c379a00000000000000000000000000000000000000000000000000000000081526004018080602001828103825260208152602001807f4f776e61626c653a2063616c6c6572206973206e6f7420746865206f776e657281525060200191505060405180910390fd5b6000610b5183611245565b90508073ffffffffffffffffffffffffffffffffffffffff1663aecaa316836040518263ffffffff1660e01b815260040180828152602001915050602060405180830381600087803b158015610ba657600080fd5b505af1158015610bba573d6000803e3d6000fd5b505050506040513d6020811015610bd057600080fd5b81019080805190602001909291905050505081836040518082805190602001908083835b60208310610c175780518252602082019150602081019050602083039250610bf4565b6001836020036101000a03801982511681845116808217855250505050505090500191505060405180910390207fbd5fbdde228050934cb50cbee0dd68a95f2a21c04959d430e30c3be3b236730d60405160405180910390a3505050565b60008060009054906101000a900473ffffffffffffffffffffffffffffffffffffffff16905090565b6000610ca8611640565b73ffffffffffffffffffffffffffffffffffffffff1660008054906101000a900473ffffffffffffffffffffffffffffffffffffffff1673ffffffffffffffffffffffffffffffffffffffff1614610d68576040517f08c379a00000000000000000000000000000000000000000000000000000000081526004018080602001828103825260208152602001807f4f776e61626c653a2063616c6c6572206973206e6f7420746865206f776e657281525060200191505060405180910390fd5b600073ffffffffffffffffffffffffffffffffffffffff166001836040518082805190602001908083835b60208310610db65780518252602082019150602081019050602083039250610d93565b6001836020036101000a038019825116818451168082178552505050505050905001915050908152602001604051809103902060009054906101000a900473ffffffffffffffffffffffffffffffffffffffff1673ffffffffffffffffffffffffffffffffffffffff1614610e93576040517f08c379a00000000000000000000000000000000000000000000000000000000081526004018080602001828103825260168152602001807f61646451756f74653a2051756f74655f4558495354530000000000000000000081525060200191505060405180910390fd5b606060405180602001610ea590611648565b6020820181038252601f19601f8201166040525090506000836040516020018082805190602001908083835b60208310610ef45780518252602082019150602081019050602083039250610ed1565b6001836020036101000a038019825116818451168082178552505050505050905001915050604051602081830303815290604052805190602001209050808251602084016000f592508273ffffffffffffffffffffffffffffffffffffffff1663f62d1888856040518263ffffffff1660e01b81526004018080602001828103825283818151815260200191508051906020019080838360005b83811015610fa9578082015181840152602081019050610f8e565b50505050905090810190601f168015610fd65780820380516001836020036101000a031916815260200191505b5092505050600060405180830381600087803b158015610ff557600080fd5b505af1158015611009573d6000803e3d6000fd5b505050508273ffffffffffffffffffffffffffffffffffffffff1663f2fde38b336040518263ffffffff1660e01b8152600401808273ffffffffffffffffffffffffffffffffffffffff168152602001915050600060405180830381600087803b15801561107657600080fd5b505af115801561108a573d6000803e3d6000fd5b50505050826001856040518082805190602001908083835b602083106110c557805182526020820191506020810190506020830392506110a2565b6001836020036101000a038019825116818451168082178552505050505050905001915050908152602001604051809103902060006101000a81548173ffffffffffffffffffffffffffffffffffffffff021916908373ffffffffffffffffffffffffffffffffffffffff1602179055508273ffffffffffffffffffffffffffffffffffffffff167f8d8c05992df8d984daec5ec2f26c66798cff86409636b8e53d3b9ecd165b12af60405160405180910390a25050919050565b60008060008061118f86611245565b90508073ffffffffffffffffffffffffffffffffffffffff166365fa2f7f866040518263ffffffff1660e01b81526004018082815260200191505060606040518083038186803b1580156111e257600080fd5b505afa1580156111f6573d6000803e3d6000fd5b505050506040513d606081101561120c57600080fd5b81019080805190602001909291908051906020019092919080519060200190929190505050809450819550829650505050509250925092565b60006001826040518082805190602001908083835b6020831061127d578051825260208201915060208101905060208303925061125a565b6001836020036101000a038019825116818451168082178552505050505050905001915050908152602001604051809103902060009054906101000a900473ffffffffffffffffffffffffffffffffffffffff169050600073ffffffffffffffffffffffffffffffffffffffff168173ffffffffffffffffffffffffffffffffffffffff161415611376576040517f08c379a00000000000000000000000000000000000000000000000000000000081526004018080602001828103825260198152602001807f676574416464723a2051756f74655f4e4f545f4558495354530000000000000081525060200191505060405180910390fd5b919050565b60008060008061138a85611245565b90508073ffffffffffffffffffffffffffffffffffffffff1663a7b08aec6040518163ffffffff1660e01b815260040160606040518083038186803b1580156113d257600080fd5b505afa1580156113e6573d6000803e3d6000fd5b505050506040513d60608110156113fc57600080fd5b81019080805190602001909291908051906020019092919080519060200190929190505050809450819550829650505050509193909250565b61143d611640565b73ffffffffffffffffffffffffffffffffffffffff1660008054906101000a900473ffffffffffffffffffffffffffffffffffffffff1673ffffffffffffffffffffffffffffffffffffffff16146114fd576040517f08c379a00000000000000000000000000000000000000000000000000000000081526004018080602001828103825260208152602001807f4f776e61626c653a2063616c6c6572206973206e6f7420746865206f776e657281525060200191505060405180910390fd5b600073ffffffffffffffffffffffffffffffffffffffff168173ffffffffffffffffffffffffffffffffffffffff161415611583576040517f08c379a00000000000000000000000000000000000000000000000000000000081526004018080602001828103825260268152602001806128aa6026913960400191505060405180910390fd5b8073ffffffffffffffffffffffffffffffffffffffff1660008054906101000a900473ffffffffffffffffffffffffffffffffffffffff1673ffffffffffffffffffffffffffffffffffffffff167f8be0079c531659141344cd1fd0a4f28419497f9722a3daafe3b4186f6b6457e060405160405180910390a3806000806101000a81548173ffffffffffffffffffffffffffffffffffffffff021916908373ffffffffffffffffffffffffffffffffffffffff16021790555050565b600033905090565b611254806116568339019056fe608060405234801561001057600080fd5b5060006100216100d460201b60201c565b9050806000806101000a81548173ffffffffffffffffffffffffffffffffffffffff021916908373ffffffffffffffffffffffffffffffffffffffff1602179055508073ffffffffffffffffffffffffffffffffffffffff16600073ffffffffffffffffffffffffffffffffffffffff167f8be0079c531659141344cd1fd0a4f28419497f9722a3daafe3b4186f6b6457e060405160405180910390a350600060028190555060006003819055506100dc565b600033905090565b611169806100eb6000396000f3fe608060405234801561001057600080fd5b50600436106100cf5760003560e01c80638da5cb5b1161008c578063aecaa31611610066578063aecaa316146102d7578063f2fde38b14610319578063f62d18881461035d578063f6ed06a414610418576100cf565b80638da5cb5b146101f457806395d89b4114610228578063a7b08aec146102ab576100cf565b806308d416d1146100d457806322f3c5c6146100f25780632e06d4011461012557806365fa2f7f1461017c5780636b6709b5146101cc578063715018a6146101ea575b600080fd5b6100dc6104e4565b6040518082815260200191505060405180910390f35b6100fa6104ea565b6040518085815260200184815260200183815260200182815260200194505050505060405180910390f35b6101516004803603602081101561013b57600080fd5b8101908080359060200190929190505050610508565b6040518085815260200184815260200183815260200182815260200194505050505060405180910390f35b6101a86004803603602081101561019257600080fd5b8101908080359060200190929190505050610538565b60405180848152602001838152602001828152602001935050505060405180910390f35b6101d46105b0565b6040518082815260200191505060405180910390f35b6101f26105b6565b005b6101fc61073c565b604051808273ffffffffffffffffffffffffffffffffffffffff16815260200191505060405180910390f35b610230610765565b6040518080602001828103825283818151815260200191508051906020019080838360005b83811015610270578082015181840152602081019050610255565b50505050905090810190601f16801561029d5780820380516001836020036101000a031916815260200191505b509250505060405180910390f35b6102b3610803565b60405180848152602001838152602001828152602001935050505060405180910390f35b610303600480360360208110156102ed57600080fd5b8101908080359060200190929190505050610822565b6040518082815260200191505060405180910390f35b61035b6004803603602081101561032f57600080fd5b81019080803573ffffffffffffffffffffffffffffffffffffffff169060200190929190505050610a00565b005b6104166004803603602081101561037357600080fd5b810190808035906020019064010000000081111561039057600080fd5b8201836020820111156103a257600080fd5b803590602001918460018302840111640100000000831117156103c457600080fd5b91908080601f016020809104026020016040519081016040528093929190818152602001838380828437600081840152601f19601f820116905080830192505050505050509192919290505050610c0b565b005b6104ce6004803603602081101561042e57600080fd5b810190808035906020019064010000000081111561044b57600080fd5b82018360208201111561045d57600080fd5b8035906020019184602083028401116401000000008311171561047f57600080fd5b919080806020026020016040519081016040528093929190818152602001838360200280828437600081840152601f19601f820116905080830192505050505050509192919290505050610ced565b6040518082815260200191505060405180910390f35b60025481565b60048060000154908060010154908060020154908060030154905084565b60086020528060005260406000206000915090508060000154908060010154908060020154908060030154905084565b60008060008084141561055b57600060025411156105565760025492505b610579565b600254841015801561056f57506003548411155b15610578578392505b5b60008311156105a95760006008600085815260200190815260200160002090508060020154925080600301549150505b9193909250565b60035481565b6105be610e29565b73ffffffffffffffffffffffffffffffffffffffff1660008054906101000a900473ffffffffffffffffffffffffffffffffffffffff1673ffffffffffffffffffffffffffffffffffffffff161461067e576040517f08c379a00000000000000000000000000000000000000000000000000000000081526004018080602001828103825260208152602001807f4f776e61626c653a2063616c6c6572206973206e6f7420746865206f776e657281525060200191505060405180910390fd5b600073ffffffffffffffffffffffffffffffffffffffff1660008054906101000a900473ffffffffffffffffffffffffffffffffffffffff1673ffffffffffffffffffffffffffffffffffffffff167f8be0079c531659141344cd1fd0a4f28419497f9722a3daafe3b4186f6b6457e060405160405180910390a360008060006101000a81548173ffffffffffffffffffffffffffffffffffffffff021916908373ffffffffffffffffffffffffffffffffffffffff160217905550565b60008060009054906101000a900473ffffffffffffffffffffffffffffffffffffffff16905090565b60018054600181600116156101000203166002900480601f0160208091040260200160405190810160405280929190818152602001828054600181600116156101000203166002900480156107fb5780601f106107d0576101008083540402835291602001916107fb565b820191906000526020600020905b8154815290600101906020018083116107de57829003601f168201915b505050505081565b6000806000600354925060046002015491506004600301549050909192565b600061082c610e29565b73ffffffffffffffffffffffffffffffffffffffff1660008054906101000a900473ffffffffffffffffffffffffffffffffffffffff1673ffffffffffffffffffffffffffffffffffffffff16146108ec576040517f08c379a00000000000000000000000000000000000000000000000000000000081526004018080602001828103825260208152602001807f4f776e61626c653a2063616c6c6572206973206e6f7420746865206f776e657281525060200191505060405180910390fd5b600254821015801561090057506003548211155b156109f65760006008600084815260200190815260200160002090506000816000015411156109535760006008600083600001548152602001908152602001600020905081600101548160010181905550505b60008160010154111561098a5760006008600083600101548152602001908152602001600020905081600001548160000181905550505b806001015491508260025414156109a75780600101546002819055505b8260035414156109ba5760006003819055505b600860008481526020019081526020016000206000808201600090556001820160009055600282016000905560038201600090555050506109fb565b600090505b919050565b610a08610e29565b73ffffffffffffffffffffffffffffffffffffffff1660008054906101000a900473ffffffffffffffffffffffffffffffffffffffff1673ffffffffffffffffffffffffffffffffffffffff1614610ac8576040517f08c379a00000000000000000000000000000000000000000000000000000000081526004018080602001828103825260208152602001807f4f776e61626c653a2063616c6c6572206973206e6f7420746865206f776e657281525060200191505060405180910390fd5b600073ffffffffffffffffffffffffffffffffffffffff168173ffffffffffffffffffffffffffffffffffffffff161415610b4e576040517f08c379a000000000000000000000000000000000000000000000000000000000815260040180806020018281038252602681526020018061110e6026913960400191505060405180910390fd5b8073ffffffffffffffffffffffffffffffffffffffff1660008054906101000a900473ffffffffffffffffffffffffffffffffffffffff1673ffffffffffffffffffffffffffffffffffffffff167f8be0079c531659141344cd1fd0a4f28419497f9722a3daafe3b4186f6b6457e060405160405180910390a3806000806101000a81548173ffffffffffffffffffffffffffffffffffffffff021916908373ffffffffffffffffffffffffffffffffffffffff16021790555050565b610c13610e29565b73ffffffffffffffffffffffffffffffffffffffff1660008054906101000a900473ffffffffffffffffffffffffffffffffffffffff1673ffffffffffffffffffffffffffffffffffffffff1614610cd3576040517f08c379a00000000000000000000000000000000000000000000000000000000081526004018080602001828103825260208152602001807f4f776e61626c653a2063616c6c6572206973206e6f7420746865206f776e657281525060200191505060405180910390fd5b8060019080519060200190610ce9929190611070565b5050565b6000610cf7610e29565b73ffffffffffffffffffffffffffffffffffffffff1660008054906101000a900473ffffffffffffffffffffffffffffffffffffffff1673ffffffffffffffffffffffffffffffffffffffff1614610db7576040517f08c379a00000000000000000000000000000000000000000000000000000000081526004018080602001828103825260208152602001807f4f776e61626c653a2063616c6c6572206973206e6f7420746865206f776e657281525060200191505060405180910390fd5b6000825111610dc557600080fd5b6000805b8351811015610dfd576000848281518110610de057fe5b602002602001015190508083019250508080600101915050610dc9565b506000610e14845183610e3190919063ffffffff16565b9050610e1f81610e7b565b8092505050919050565b600033905090565b6000610e7383836040518060400160405280601a81526020017f536166654d6174683a206469766973696f6e206279207a65726f000000000000815250610faa565b905092915050565b60008111610ef1576040517f08c379a00000000000000000000000000000000000000000000000000000000081526004018080602001828103825260148152602001807f70726963652063616e6e6f74206265207a65726f00000000000000000000000081525060200191505060405180910390fd5b60006003541115610f205760006008600060035481526020019081526020016000209050438160010181905550505b60035460046000018190555060006004600101819055508060046002018190555042600460030181905550600460086000438152602001908152602001600020600082015481600001556001820154816001015560028201548160020155600382015481600301559050504360038190555060006002541415610fa7576003546002819055505b50565b60008083118290611056576040517f08c379a00000000000000000000000000000000000000000000000000000000081526004018080602001828103825283818151815260200191508051906020019080838360005b8381101561101b578082015181840152602081019050611000565b50505050905090810190601f1680156110485780820380516001836020036101000a031916815260200191505b509250505060405180910390fd5b50600083858161106257fe5b049050809150509392505050565b828054600181600116156101000203166002900490600052602060002090601f016020900481019282601f106110b157805160ff19168380011785556110df565b828001600101855582156110df579182015b828111156110de5782518255916020019190600101906110c3565b5b5090506110ec91906110f0565b5090565b5b808211156111095760008160009055506001016110f1565b509056fe4f776e61626c653a206e6577206f776e657220697320746865207a65726f2061646472657373a264697066735822122002bf4bd5aae2f006030b94e3c473c3125f5c21a953f4592fd647cb08de50a16464736f6c634300060c00334f776e61626c653a206e6577206f776e657220697320746865207a65726f2061646472657373a264697066735822122073cb962b14a2bbfc33969690d0971178596997a814b2ce282e1d5d0d73efc25664736f6c634300060c0033",
  "immutableReferences": {},
  "source": "// SPDX-License-Identifier: MIT\n\npragma solidity 0.6.12;\n\nimport \"../openzeppelin/contracts/math/SafeMath.sol\";\nimport \"../openzeppelin/contracts/access/Ownable.sol\";\nimport \"./Quote.sol\";\n\ncontract QuoteFactory is Ownable {\n    using SafeMath for uint256;\n\n    mapping (string => address) private allQuotePool;// <btc/usdt,quoteAddr>\n    event AddQuote(address indexed quoteAddr);\n    event AddPrice(string indexed symbol, uint256 indexed newPrice);\n    event DelPrice(string indexed symbol, uint256 indexed blockIndex);\n\n    // \n    function addQuote(string memory _symbol) public onlyOwner returns (address quoteAddr) {\n        require(allQuotePool[_symbol] == address(0), 'addQuote: Quote_EXISTS');\n        bytes memory bytecode = type(Quote).creationCode;\n        bytes32 salt = keccak256(abi.encodePacked(_symbol));\n        assembly {\n            quoteAddr := create2(0, add(bytecode, 32), mload(bytecode), salt)\n        }\n        Quote(quoteAddr).initialize(_symbol);\n        Quote(quoteAddr).transferOwnership(msg.sender);\n        allQuotePool[_symbol] = quoteAddr;        \n        emit AddQuote(quoteAddr);\n    }\n\n    // \n    function addPrice(string memory _symbol,uint256[] memory price) public onlyOwner {\n        address quoteAddr = getAddr(_symbol);\n        uint256 newprice = Quote(quoteAddr).addPrice(price);\n        emit AddPrice(_symbol, newprice);\n    } \n\n    // \n    function delPrice(string memory _symbol,uint256 blockIndex) public onlyOwner {\n        address quoteAddr = getAddr(_symbol);\n        Quote(quoteAddr).delPrice(blockIndex);\n        emit DelPrice(_symbol, blockIndex);\n    }\n\n    // \n    function getNewPrice(string memory _symbol) public view returns (uint256 blockIndex,uint256 newPrice,uint256 priceTime) {\n        address quoteAddr = getAddr(_symbol);\n        (blockIndex, newPrice, priceTime) = Quote(quoteAddr).getNewPrice();\n    }\n\n    // \n    function getLastPrice(string memory _symbol,uint256 _blockIndex) public view returns (uint256 blockIndex,uint256 newPrice,uint256 priceTime) {\n        address quoteAddr = getAddr(_symbol);\n        (blockIndex, newPrice, priceTime) = Quote(quoteAddr).getLastPrice(_blockIndex);\n    }\n\n    // \n    function getAddr(string memory _symbol) public view returns (address quoteAddr) {\n        quoteAddr = allQuotePool[_symbol];\n        require(quoteAddr != address(0), 'getAddr: Quote_NOT_EXISTS');\n    }    \n}",
  "sourcePath": "/Users/tong/Projects/drep-project/teemo-private/contracts/quote/QuoteFactory.sol",
  "compiler": {
    "name": "solc",
    "version": "0.6.12+commit.27d51765.Emscripten.clang"
  },
  "schemaVersion": "3.3.2",
  "updatedAt": "2020-12-03T01:45:46.229Z",
  "devdoc": {
    "kind": "dev",
    "methods": {
      "owner()": {
        "details": "Returns the address of the current owner."
      },
      "renounceOwnership()": {
        "details": "Leaves the contract without owner. It will not be possible to call `onlyOwner` functions anymore. Can only be called by the current owner. NOTE: Renouncing ownership will leave the contract without an owner, thereby removing any functionality that is only available to the owner."
      },
      "transferOwnership(address)": {
        "details": "Transfers ownership of the contract to a new account (`newOwner`). Can only be called by the current owner."
      }
    },
    "version": 1
  },
  "userdoc": {
    "kind": "user",
    "methods": {},
    "version": 1
  }
}