{
  "contractName": "TeemoPool",
  "abi": [
    {
      "anonymous": false,
      "inputs": [
        {
          "indexed": true,
          "internalType": "address",
          "name": "owner",
          "type": "address"
        },
        {
          "indexed": true,
          "internalType": "address",
          "name": "spender",
          "type": "address"
        },
        {
          "indexed": false,
          "internalType": "uint256",
          "name": "value",
          "type": "uint256"
        }
      ],
      "name": "Approval",
      "type": "event"
    },
    {
      "anonymous": false,
      "inputs": [
        {
          "indexed": true,
          "internalType": "uint256",
          "name": "closePrice",
          "type": "uint256"
        },
        {
          "indexed": true,
          "internalType": "uint256",
          "name": "plFlag",
          "type": "uint256"
        },
        {
          "indexed": true,
          "internalType": "uint256",
          "name": "plAmount",
          "type": "uint256"
        }
      ],
      "name": "CloseSwap",
      "type": "event"
    },
    {
      "anonymous": false,
      "inputs": [
        {
          "indexed": true,
          "internalType": "bytes32",
          "name": "orderID",
          "type": "bytes32"
        },
        {
          "indexed": true,
          "internalType": "uint256",
          "name": "openPrice",
          "type": "uint256"
        }
      ],
      "name": "OpenSwap",
      "type": "event"
    },
    {
      "anonymous": false,
      "inputs": [
        {
          "indexed": true,
          "internalType": "address",
          "name": "previousOwner",
          "type": "address"
        },
        {
          "indexed": true,
          "internalType": "address",
          "name": "newOwner",
          "type": "address"
        }
      ],
      "name": "OwnershipTransferred",
      "type": "event"
    },
    {
      "anonymous": false,
      "inputs": [
        {
          "indexed": true,
          "internalType": "address",
          "name": "from",
          "type": "address"
        },
        {
          "indexed": true,
          "internalType": "address",
          "name": "to",
          "type": "address"
        },
        {
          "indexed": false,
          "internalType": "uint256",
          "name": "value",
          "type": "uint256"
        }
      ],
      "name": "Transfer",
      "type": "event"
    },
    {
      "inputs": [
        {
          "internalType": "address",
          "name": "owner",
          "type": "address"
        },
        {
          "internalType": "address",
          "name": "spender",
          "type": "address"
        }
      ],
      "name": "allowance",
      "outputs": [
        {
          "internalType": "uint256",
          "name": "",
          "type": "uint256"
        }
      ],
      "stateMutability": "view",
      "type": "function"
    },
    {
      "inputs": [
        {
          "internalType": "address",
          "name": "spender",
          "type": "address"
        },
        {
          "internalType": "uint256",
          "name": "amount",
          "type": "uint256"
        }
      ],
      "name": "approve",
      "outputs": [
        {
          "internalType": "bool",
          "name": "",
          "type": "bool"
        }
      ],
      "stateMutability": "nonpayable",
      "type": "function"
    },
    {
      "inputs": [
        {
          "internalType": "address",
          "name": "account",
          "type": "address"
        }
      ],
      "name": "balanceOf",
      "outputs": [
        {
          "internalType": "uint256",
          "name": "",
          "type": "uint256"
        }
      ],
      "stateMutability": "view",
      "type": "function"
    },
    {
      "inputs": [],
      "name": "decimals",
      "outputs": [
        {
          "internalType": "uint8",
          "name": "",
          "type": "uint8"
        }
      ],
      "stateMutability": "view",
      "type": "function"
    },
    {
      "inputs": [
        {
          "internalType": "address",
          "name": "spender",
          "type": "address"
        },
        {
          "internalType": "uint256",
          "name": "subtractedValue",
          "type": "uint256"
        }
      ],
      "name": "decreaseAllowance",
      "outputs": [
        {
          "internalType": "bool",
          "name": "",
          "type": "bool"
        }
      ],
      "stateMutability": "nonpayable",
      "type": "function"
    },
    {
      "inputs": [],
      "name": "fundAddr",
      "outputs": [
        {
          "internalType": "address",
          "name": "",
          "type": "address"
        }
      ],
      "stateMutability": "view",
      "type": "function"
    },
    {
      "inputs": [
        {
          "internalType": "address",
          "name": "spender",
          "type": "address"
        },
        {
          "internalType": "uint256",
          "name": "addedValue",
          "type": "uint256"
        }
      ],
      "name": "increaseAllowance",
      "outputs": [
        {
          "internalType": "bool",
          "name": "",
          "type": "bool"
        }
      ],
      "stateMutability": "nonpayable",
      "type": "function"
    },
    {
      "inputs": [],
      "name": "mineAddr",
      "outputs": [
        {
          "internalType": "address",
          "name": "",
          "type": "address"
        }
      ],
      "stateMutability": "view",
      "type": "function"
    },
    {
      "inputs": [],
      "name": "name",
      "outputs": [
        {
          "internalType": "string",
          "name": "",
          "type": "string"
        }
      ],
      "stateMutability": "view",
      "type": "function"
    },
    {
      "inputs": [],
      "name": "owner",
      "outputs": [
        {
          "internalType": "address",
          "name": "",
          "type": "address"
        }
      ],
      "stateMutability": "view",
      "type": "function"
    },
    {
      "inputs": [],
      "name": "quoteFactoryAddr",
      "outputs": [
        {
          "internalType": "address",
          "name": "",
          "type": "address"
        }
      ],
      "stateMutability": "view",
      "type": "function"
    },
    {
      "inputs": [],
      "name": "renounceOwnership",
      "outputs": [],
      "stateMutability": "nonpayable",
      "type": "function"
    },
    {
      "inputs": [],
      "name": "riskAddr",
      "outputs": [
        {
          "internalType": "address",
          "name": "",
          "type": "address"
        }
      ],
      "stateMutability": "view",
      "type": "function"
    },
    {
      "inputs": [],
      "name": "symbol",
      "outputs": [
        {
          "internalType": "string",
          "name": "",
          "type": "string"
        }
      ],
      "stateMutability": "view",
      "type": "function"
    },
    {
      "inputs": [],
      "name": "tokenAddr",
      "outputs": [
        {
          "internalType": "address",
          "name": "",
          "type": "address"
        }
      ],
      "stateMutability": "view",
      "type": "function"
    },
    {
      "inputs": [],
      "name": "totalSupply",
      "outputs": [
        {
          "internalType": "uint256",
          "name": "",
          "type": "uint256"
        }
      ],
      "stateMutability": "view",
      "type": "function"
    },
    {
      "inputs": [],
      "name": "tradeAddr",
      "outputs": [
        {
          "internalType": "address",
          "name": "",
          "type": "address"
        }
      ],
      "stateMutability": "view",
      "type": "function"
    },
    {
      "inputs": [
        {
          "internalType": "address",
          "name": "recipient",
          "type": "address"
        },
        {
          "internalType": "uint256",
          "name": "amount",
          "type": "uint256"
        }
      ],
      "name": "transfer",
      "outputs": [
        {
          "internalType": "bool",
          "name": "",
          "type": "bool"
        }
      ],
      "stateMutability": "nonpayable",
      "type": "function"
    },
    {
      "inputs": [
        {
          "internalType": "address",
          "name": "sender",
          "type": "address"
        },
        {
          "internalType": "address",
          "name": "recipient",
          "type": "address"
        },
        {
          "internalType": "uint256",
          "name": "amount",
          "type": "uint256"
        }
      ],
      "name": "transferFrom",
      "outputs": [
        {
          "internalType": "bool",
          "name": "",
          "type": "bool"
        }
      ],
      "stateMutability": "nonpayable",
      "type": "function"
    },
    {
      "inputs": [
        {
          "internalType": "address",
          "name": "newOwner",
          "type": "address"
        }
      ],
      "name": "transferOwnership",
      "outputs": [],
      "stateMutability": "nonpayable",
      "type": "function"
    },
    {
      "inputs": [
        {
          "internalType": "address",
          "name": "_tokenAddr",
          "type": "address"
        },
        {
          "internalType": "address",
          "name": "_quoteFactoryAddr",
          "type": "address"
        }
      ],
      "name": "initialize",
      "outputs": [],
      "stateMutability": "nonpayable",
      "type": "function"
    },
    {
      "inputs": [
        {
          "internalType": "address",
          "name": "_userAddress",
          "type": "address"
        }
      ],
      "name": "orderLength",
      "outputs": [
        {
          "internalType": "uint256",
          "name": "",
          "type": "uint256"
        }
      ],
      "stateMutability": "view",
      "type": "function"
    },
    {
      "inputs": [
        {
          "internalType": "address",
          "name": "_userAddress",
          "type": "address"
        }
      ],
      "name": "getAllOrderId",
      "outputs": [
        {
          "internalType": "bytes32[]",
          "name": "",
          "type": "bytes32[]"
        }
      ],
      "stateMutability": "view",
      "type": "function"
    },
    {
      "inputs": [
        {
          "internalType": "address",
          "name": "_userAddress",
          "type": "address"
        }
      ],
      "name": "getAllOrderInfo",
      "outputs": [
        {
          "internalType": "bytes32[]",
          "name": "allOrderID",
          "type": "bytes32[]"
        },
        {
          "internalType": "string[]",
          "name": "allSymbol",
          "type": "string[]"
        },
        {
          "internalType": "uint256[]",
          "name": "allTokenAmount",
          "type": "uint256[]"
        },
        {
          "internalType": "uint256[]",
          "name": "allLever",
          "type": "uint256[]"
        },
        {
          "internalType": "uint256[]",
          "name": "allBsFlag",
          "type": "uint256[]"
        },
        {
          "internalType": "uint256[]",
          "name": "allOpenPrice",
          "type": "uint256[]"
        }
      ],
      "stateMutability": "view",
      "type": "function"
    },
    {
      "inputs": [
        {
          "internalType": "string",
          "name": "_symbol",
          "type": "string"
        },
        {
          "internalType": "bytes32",
          "name": "_orderID",
          "type": "bytes32"
        }
      ],
      "name": "getOrder",
      "outputs": [
        {
          "internalType": "address",
          "name": "userAddr",
          "type": "address"
        },
        {
          "internalType": "uint256",
          "name": "tokenAmount",
          "type": "uint256"
        },
        {
          "internalType": "uint256",
          "name": "lever",
          "type": "uint256"
        },
        {
          "internalType": "uint256",
          "name": "bsFlag",
          "type": "uint256"
        },
        {
          "internalType": "uint256",
          "name": "openPrice",
          "type": "uint256"
        }
      ],
      "stateMutability": "view",
      "type": "function"
    },
    {
      "inputs": [],
      "name": "getTokenAddr",
      "outputs": [
        {
          "internalType": "address",
          "name": "",
          "type": "address"
        }
      ],
      "stateMutability": "view",
      "type": "function"
    },
    {
      "inputs": [
        {
          "internalType": "address",
          "name": "_fundAddr",
          "type": "address"
        }
      ],
      "name": "setFundAddr",
      "outputs": [],
      "stateMutability": "nonpayable",
      "type": "function"
    },
    {
      "inputs": [
        {
          "internalType": "address",
          "name": "_riskAddr",
          "type": "address"
        }
      ],
      "name": "setRiskAddr",
      "outputs": [],
      "stateMutability": "nonpayable",
      "type": "function"
    },
    {
      "inputs": [
        {
          "internalType": "address",
          "name": "_tradeAddr",
          "type": "address"
        }
      ],
      "name": "setTradeAddr",
      "outputs": [],
      "stateMutability": "nonpayable",
      "type": "function"
    },
    {
      "inputs": [
        {
          "internalType": "address",
          "name": "_mineAddr",
          "type": "address"
        }
      ],
      "name": "setMineAddr",
      "outputs": [],
      "stateMutability": "nonpayable",
      "type": "function"
    },
    {
      "inputs": [
        {
          "internalType": "address",
          "name": "_userAddr",
          "type": "address"
        },
        {
          "internalType": "uint256",
          "name": "_tokenAmount",
          "type": "uint256"
        }
      ],
      "name": "deposit",
      "outputs": [
        {
          "internalType": "uint256",
          "name": "teemoTokenAmount",
          "type": "uint256"
        },
        {
          "internalType": "uint256",
          "name": "userTeemoTokenAmount",
          "type": "uint256"
        },
        {
          "internalType": "uint256",
          "name": "lpAmount",
          "type": "uint256"
        }
      ],
      "stateMutability": "nonpayable",
      "type": "function"
    },
    {
      "inputs": [
        {
          "internalType": "address",
          "name": "_userAddr",
          "type": "address"
        },
        {
          "internalType": "uint256",
          "name": "_lpAmount",
          "type": "uint256"
        }
      ],
      "name": "withdraw",
      "outputs": [
        {
          "internalType": "uint256",
          "name": "teemoTokenAmount",
          "type": "uint256"
        },
        {
          "internalType": "uint256",
          "name": "userTeemoTokenAmount",
          "type": "uint256"
        },
        {
          "internalType": "uint256",
          "name": "tokenAmount",
          "type": "uint256"
        }
      ],
      "stateMutability": "nonpayable",
      "type": "function"
    },
    {
      "inputs": [
        {
          "internalType": "string",
          "name": "_symbol",
          "type": "string"
        },
        {
          "internalType": "uint256",
          "name": "_tokenAmount",
          "type": "uint256"
        },
        {
          "internalType": "uint256",
          "name": "_lever",
          "type": "uint256"
        },
        {
          "internalType": "uint256",
          "name": "_bsFlag",
          "type": "uint256"
        }
      ],
      "name": "openSwap",
      "outputs": [],
      "stateMutability": "nonpayable",
      "type": "function"
    },
    {
      "inputs": [
        {
          "internalType": "string",
          "name": "_symbol",
          "type": "string"
        },
        {
          "internalType": "bytes32",
          "name": "_orderID",
          "type": "bytes32"
        }
      ],
      "name": "closeSwap",
      "outputs": [],
      "stateMutability": "nonpayable",
      "type": "function"
    }
  ],
  "bytecode": "0x60806040523480156200001157600080fd5b506040518060400160405280600581526020017f544d4f4c500000000000000000000000000000000000000000000000000000008152506040518060400160405280600581526020017f544d4f4c500000000000000000000000000000000000000000000000000000008152508160039080519060200190620000969291906200018d565b508060049080519060200190620000af9291906200018d565b506012600560006101000a81548160ff021916908360ff16021790555050506000620000e06200018560201b60201c565b905080600560016101000a81548173ffffffffffffffffffffffffffffffffffffffff021916908373ffffffffffffffffffffffffffffffffffffffff1602179055508073ffffffffffffffffffffffffffffffffffffffff16600073ffffffffffffffffffffffffffffffffffffffff167f8be0079c531659141344cd1fd0a4f28419497f9722a3daafe3b4186f6b6457e060405160405180910390a35062000233565b600033905090565b828054600181600116156101000203166002900490600052602060002090601f016020900481019282601f10620001d057805160ff191683800117855562000201565b8280016001018555821562000201579182015b8281111562000200578251825591602001919060010190620001e3565b5b50905062000210919062000214565b5090565b5b808211156200022f57600081600090555060010162000215565b5090565b613a6280620002436000396000f3fe608060405234801561001057600080fd5b50600436106102065760003560e01c806372ee8c2c1161011a578063d470bce5116100ad578063f28342f71161007c578063f28342f71461061c578063f2fde38b1461063a578063f3fef3a314610656578063f585203914610688578063fdc23e36146106a657610206565b8063d470bce51461056e578063d601f4d61461059e578063dd62ed3e146105bc578063e1c873e3146105ec57610206565b8063a9059cbb116100e9578063a9059cbb146104e8578063afcfb11a14610518578063c256df7114610536578063d2c0aab21461055257610206565b806372ee8c2c146104605780638da5cb5b1461047c57806395d89b411461049a578063a457c2d7146104b857610206565b806347e7ef241161019d578063682cb9111161016c578063682cb911146103d05780636d19f81e146103ee5780636f39cfcd1461040a57806370a0823114610426578063715018a61461045657610206565b806347e7ef2414610346578063485cc95514610378578063582b2720146103945780635fbe4d1d146103b257610206565b806323b872dd116101d957806323b872dd14610293578063313ce567146102c357806339509351146102e15780633e77a5941461031157610206565b8063032d2e321461020b57806306fdde0314610227578063095ea7b31461024557806318160ddd14610275575b600080fd5b610225600480360381019061022091906128c0565b6106da565b005b61022f6107b5565b60405161023c919061352d565b60405180910390f35b61025f600480360381019061025a9190612974565b610857565b60405161026c9190613512565b60405180910390f35b61027d610875565b60405161028a919061365f565b60405180910390f35b6102ad60048036038101906102a89190612925565b61087f565b6040516102ba9190613512565b60405180910390f35b6102cb610958565b6040516102d891906136b1565b60405180910390f35b6102fb60048036038101906102f69190612974565b61096f565b6040516103089190613512565b60405180910390f35b61032b600480360381019061032691906128c0565b610a22565b60405161033d96959493929190613487565b60405180910390f35b610360600480360381019061035b9190612974565b610afc565b60405161036f9392919061367a565b60405180910390f35b610392600480360381019061038d91906128e9565b610d21565b005b61039c610e3e565b6040516103a9919061325a565b60405180910390f35b6103ba610e68565b6040516103c7919061325a565b60405180910390f35b6103d8610e8e565b6040516103e5919061325a565b60405180910390f35b610408600480360381019061040391906128c0565b610eb4565b005b610424600480360381019061041f91906128c0565b610f8f565b005b610440600480360381019061043b91906128c0565b61106a565b60405161044d919061365f565b60405180910390f35b61045e6110b2565b005b61047a60048036038101906104759190612c3a565b61120a565b005b6104846113ad565b604051610491919061325a565b60405180910390f35b6104a26113d7565b6040516104af919061352d565b60405180910390f35b6104d260048036038101906104cd9190612974565b611479565b6040516104df9190613512565b60405180910390f35b61050260048036038101906104fd9190612974565b611546565b60405161050f9190613512565b60405180910390f35b610520611564565b60405161052d919061325a565b60405180910390f35b610550600480360381019061054b9190612be6565b61158a565b005b61056c600480360381019061056791906128c0565b6118a6565b005b610588600480360381019061058391906128c0565b611981565b6040516105959190613465565b60405180910390f35b6105a6611a3a565b6040516105b3919061325a565b60405180910390f35b6105d660048036038101906105d191906128e9565b611a60565b6040516105e3919061365f565b60405180910390f35b610606600480360381019061060191906128c0565b611ae7565b604051610613919061365f565b60405180910390f35b610624611b9b565b604051610631919061325a565b60405180910390f35b610654600480360381019061064f91906128c0565b611bc1565b005b610670600480360381019061066b9190612974565b611d88565b60405161067f9392919061367a565b60405180910390f35b610690611fab565b60405161069d919061325a565b60405180910390f35b6106c060048036038101906106bb9190612be6565b611fd1565b6040516106d1959493929190613412565b60405180910390f35b6106e26120a4565b73ffffffffffffffffffffffffffffffffffffffff16600560019054906101000a900473ffffffffffffffffffffffffffffffffffffffff1673ffffffffffffffffffffffffffffffffffffffff1614610771576040517f08c379a0000000000000000000000000000000000000000000000000000000008152600401610768906135ff565b60405180910390fd5b80600960006101000a81548173ffffffffffffffffffffffffffffffffffffffff021916908373ffffffffffffffffffffffffffffffffffffffff16021790555050565b606060038054600181600116156101000203166002900480601f01602080910402602001604051908101604052809291908181526020018280546001816001161561010002031660029004801561084d5780601f106108225761010080835404028352916020019161084d565b820191906000526020600020905b81548152906001019060200180831161083057829003601f168201915b5050505050905090565b600061086b6108646120a4565b84846120ac565b6001905092915050565b6000600254905090565b600061088c848484612277565b61094d846108986120a4565b610948856040518060600160405280602881526020016139e060289139600160008b73ffffffffffffffffffffffffffffffffffffffff1673ffffffffffffffffffffffffffffffffffffffff16815260200190815260200160002060006108fe6120a4565b73ffffffffffffffffffffffffffffffffffffffff1673ffffffffffffffffffffffffffffffffffffffff1681526020019081526020016000205461250c9092919063ffffffff16565b6120ac565b600190509392505050565b6000600560009054906101000a900460ff16905090565b6000610a1861097c6120a4565b84610a13856001600061098d6120a4565b73ffffffffffffffffffffffffffffffffffffffff1673ffffffffffffffffffffffffffffffffffffffff16815260200190815260200160002060008973ffffffffffffffffffffffffffffffffffffffff1673ffffffffffffffffffffffffffffffffffffffff1681526020019081526020016000205461256790919063ffffffff16565b6120ac565b6001905092915050565b606080606080606080600a60009054906101000a900473ffffffffffffffffffffffffffffffffffffffff1673ffffffffffffffffffffffffffffffffffffffff16633e77a594886040518263ffffffff1660e01b8152600401610a86919061325a565b60006040518083038186803b158015610a9e57600080fd5b505afa158015610ab2573d6000803e3d6000fd5b505050506040513d6000823e3d601f19601f82011682018060405250810190610adb9190612a68565b809650819750829850839950849a50859b5050505050505091939550919395565b6000806000600660009054906101000a900473ffffffffffffffffffffffffffffffffffffffff1673ffffffffffffffffffffffffffffffffffffffff166323b872dd8630876040518463ffffffff1660e01b8152600401610b60939291906133b2565b602060405180830381600087803b158015610b7a57600080fd5b505af1158015610b8e573d6000803e3d6000fd5b505050506040513d601f19601f82011682018060405250810190610bb29190612b81565b50600860009054906101000a900473ffffffffffffffffffffffffffffffffffffffff1673ffffffffffffffffffffffffffffffffffffffff166347e7ef2486866040518363ffffffff1660e01b8152600401610c109291906133e9565b602060405180830381600087803b158015610c2a57600080fd5b505af1158015610c3e573d6000803e3d6000fd5b505050506040513d601f19601f82011682018060405250810190610c629190612cb5565b9050600b60009054906101000a900473ffffffffffffffffffffffffffffffffffffffff1673ffffffffffffffffffffffffffffffffffffffff166347e7ef2486836040518363ffffffff1660e01b8152600401610cc19291906133e9565b6040805180830381600087803b158015610cda57600080fd5b505af1158015610cee573d6000803e3d6000fd5b505050506040513d601f19601f82011682018060405250810190610d129190612cde565b80935081945050509250925092565b610d296120a4565b73ffffffffffffffffffffffffffffffffffffffff16600560019054906101000a900473ffffffffffffffffffffffffffffffffffffffff1673ffffffffffffffffffffffffffffffffffffffff1614610db8576040517f08c379a0000000000000000000000000000000000000000000000000000000008152600401610daf906135ff565b60405180910390fd5b81600660006101000a81548173ffffffffffffffffffffffffffffffffffffffff021916908373ffffffffffffffffffffffffffffffffffffffff16021790555080600760006101000a81548173ffffffffffffffffffffffffffffffffffffffff021916908373ffffffffffffffffffffffffffffffffffffffff1602179055505050565b6000600660009054906101000a900473ffffffffffffffffffffffffffffffffffffffff16905090565b600660009054906101000a900473ffffffffffffffffffffffffffffffffffffffff1681565b600860009054906101000a900473ffffffffffffffffffffffffffffffffffffffff1681565b610ebc6120a4565b73ffffffffffffffffffffffffffffffffffffffff16600560019054906101000a900473ffffffffffffffffffffffffffffffffffffffff1673ffffffffffffffffffffffffffffffffffffffff1614610f4b576040517f08c379a0000000000000000000000000000000000000000000000000000000008152600401610f42906135ff565b60405180910390fd5b80600b60006101000a81548173ffffffffffffffffffffffffffffffffffffffff021916908373ffffffffffffffffffffffffffffffffffffffff16021790555050565b610f976120a4565b73ffffffffffffffffffffffffffffffffffffffff16600560019054906101000a900473ffffffffffffffffffffffffffffffffffffffff1673ffffffffffffffffffffffffffffffffffffffff1614611026576040517f08c379a000000000000000000000000000000000000000000000000000000000815260040161101d906135ff565b60405180910390fd5b80600860006101000a81548173ffffffffffffffffffffffffffffffffffffffff021916908373ffffffffffffffffffffffffffffffffffffffff16021790555050565b60008060008373ffffffffffffffffffffffffffffffffffffffff1673ffffffffffffffffffffffffffffffffffffffff168152602001908152602001600020549050919050565b6110ba6120a4565b73ffffffffffffffffffffffffffffffffffffffff16600560019054906101000a900473ffffffffffffffffffffffffffffffffffffffff1673ffffffffffffffffffffffffffffffffffffffff1614611149576040517f08c379a0000000000000000000000000000000000000000000000000000000008152600401611140906135ff565b60405180910390fd5b600073ffffffffffffffffffffffffffffffffffffffff16600560019054906101000a900473ffffffffffffffffffffffffffffffffffffffff1673ffffffffffffffffffffffffffffffffffffffff167f8be0079c531659141344cd1fd0a4f28419497f9722a3daafe3b4186f6b6457e060405160405180910390a36000600560016101000a81548173ffffffffffffffffffffffffffffffffffffffff021916908373ffffffffffffffffffffffffffffffffffffffff160217905550565b600660009054906101000a900473ffffffffffffffffffffffffffffffffffffffff1673ffffffffffffffffffffffffffffffffffffffff166323b872dd3330866040518463ffffffff1660e01b815260040161126993929190613275565b602060405180830381600087803b15801561128357600080fd5b505af1158015611297573d6000803e3d6000fd5b505050506040513d601f19601f820116820180604052508101906112bb9190612b81565b50600080600a60009054906101000a900473ffffffffffffffffffffffffffffffffffffffff1673ffffffffffffffffffffffffffffffffffffffff1663298bbc3233888888886040518663ffffffff1660e01b81526004016113229594939291906132ea565b6040805180830381600087803b15801561133b57600080fd5b505af115801561134f573d6000803e3d6000fd5b505050506040513d601f19601f820116820180604052508101906113739190612baa565b9150915080827fe4b0e3532526db25644b9726c783bc608105beeb7df7250e1f3cab59beebda3460405160405180910390a3505050505050565b6000600560019054906101000a900473ffffffffffffffffffffffffffffffffffffffff16905090565b606060048054600181600116156101000203166002900480601f01602080910402602001604051908101604052809291908181526020018280546001816001161561010002031660029004801561146f5780601f106114445761010080835404028352916020019161146f565b820191906000526020600020905b81548152906001019060200180831161145257829003601f168201915b5050505050905090565b600061153c6114866120a4565b8461153785604051806060016040528060258152602001613a0860259139600160006114b06120a4565b73ffffffffffffffffffffffffffffffffffffffff1673ffffffffffffffffffffffffffffffffffffffff16815260200190815260200160002060008a73ffffffffffffffffffffffffffffffffffffffff1673ffffffffffffffffffffffffffffffffffffffff1681526020019081526020016000205461250c9092919063ffffffff16565b6120ac565b6001905092915050565b600061155a6115536120a4565b8484612277565b6001905092915050565b600760009054906101000a900473ffffffffffffffffffffffffffffffffffffffff1681565b600080600080600a60009054906101000a900473ffffffffffffffffffffffffffffffffffffffff1673ffffffffffffffffffffffffffffffffffffffff1663edf4cc1d3388886040518463ffffffff1660e01b81526004016115ef939291906132ac565b608060405180830381600087803b15801561160957600080fd5b505af115801561161d573d6000803e3d6000fd5b505050506040513d601f19601f820116820180604052508101906116419190612d1a565b9350935093509350600860009054906101000a900473ffffffffffffffffffffffffffffffffffffffff1673ffffffffffffffffffffffffffffffffffffffff1663a64ec3ba338386866040518563ffffffff1660e01b81526004016116aa949392919061336d565b600060405180830381600087803b1580156116c457600080fd5b505af11580156116d8573d6000803e3d6000fd5b5050505060018314156117ac57600660009054906101000a900473ffffffffffffffffffffffffffffffffffffffff1673ffffffffffffffffffffffffffffffffffffffff1663a9059cbb33611737858561256790919063ffffffff16565b6040518363ffffffff1660e01b8152600401611754929190613344565b602060405180830381600087803b15801561176e57600080fd5b505af1158015611782573d6000803e3d6000fd5b505050506040513d601f19601f820116820180604052508101906117a69190612b81565b5061186f565b600660009054906101000a900473ffffffffffffffffffffffffffffffffffffffff1673ffffffffffffffffffffffffffffffffffffffff1663a9059cbb336117fe85856125bc90919063ffffffff16565b6040518363ffffffff1660e01b815260040161181b929190613344565b602060405180830381600087803b15801561183557600080fd5b505af1158015611849573d6000803e3d6000fd5b505050506040513d601f19601f8201168201806040525081019061186d9190612b81565b505b8183857f9869e534390ed8712347c291d3855aa9a15b473acbbde994b01a6eb9ed8d4b2860405160405180910390a4505050505050565b6118ae6120a4565b73ffffffffffffffffffffffffffffffffffffffff16600560019054906101000a900473ffffffffffffffffffffffffffffffffffffffff1673ffffffffffffffffffffffffffffffffffffffff161461193d576040517f08c379a0000000000000000000000000000000000000000000000000000000008152600401611934906135ff565b60405180910390fd5b80600a60006101000a81548173ffffffffffffffffffffffffffffffffffffffff021916908373ffffffffffffffffffffffffffffffffffffffff16021790555050565b6060600a60009054906101000a900473ffffffffffffffffffffffffffffffffffffffff1673ffffffffffffffffffffffffffffffffffffffff1663d470bce5836040518263ffffffff1660e01b81526004016119de919061325a565b60006040518083038186803b1580156119f657600080fd5b505afa158015611a0a573d6000803e3d6000fd5b505050506040513d6000823e3d601f19601f82011682018060405250810190611a339190612a27565b9050919050565b600a60009054906101000a900473ffffffffffffffffffffffffffffffffffffffff1681565b6000600160008473ffffffffffffffffffffffffffffffffffffffff1673ffffffffffffffffffffffffffffffffffffffff16815260200190815260200160002060008373ffffffffffffffffffffffffffffffffffffffff1673ffffffffffffffffffffffffffffffffffffffff16815260200190815260200160002054905092915050565b6000600a60009054906101000a900473ffffffffffffffffffffffffffffffffffffffff1673ffffffffffffffffffffffffffffffffffffffff1663e1c873e3836040518263ffffffff1660e01b8152600401611b44919061325a565b60206040518083038186803b158015611b5c57600080fd5b505afa158015611b70573d6000803e3d6000fd5b505050506040513d601f19601f82011682018060405250810190611b949190612cb5565b9050919050565b600b60009054906101000a900473ffffffffffffffffffffffffffffffffffffffff1681565b611bc96120a4565b73ffffffffffffffffffffffffffffffffffffffff16600560019054906101000a900473ffffffffffffffffffffffffffffffffffffffff1673ffffffffffffffffffffffffffffffffffffffff1614611c58576040517f08c379a0000000000000000000000000000000000000000000000000000000008152600401611c4f906135ff565b60405180910390fd5b600073ffffffffffffffffffffffffffffffffffffffff168173ffffffffffffffffffffffffffffffffffffffff161415611cc8576040517f08c379a0000000000000000000000000000000000000000000000000000000008152600401611cbf9061359f565b60405180910390fd5b8073ffffffffffffffffffffffffffffffffffffffff16600560019054906101000a900473ffffffffffffffffffffffffffffffffffffffff1673ffffffffffffffffffffffffffffffffffffffff167f8be0079c531659141344cd1fd0a4f28419497f9722a3daafe3b4186f6b6457e060405160405180910390a380600560016101000a81548173ffffffffffffffffffffffffffffffffffffffff021916908373ffffffffffffffffffffffffffffffffffffffff16021790555050565b6000806000600860009054906101000a900473ffffffffffffffffffffffffffffffffffffffff1673ffffffffffffffffffffffffffffffffffffffff1663f3fef3a386866040518363ffffffff1660e01b8152600401611dea9291906133e9565b602060405180830381600087803b158015611e0457600080fd5b505af1158015611e18573d6000803e3d6000fd5b505050506040513d601f19601f82011682018060405250810190611e3c9190612cb5565b9050600b60009054906101000a900473ffffffffffffffffffffffffffffffffffffffff1673ffffffffffffffffffffffffffffffffffffffff1663f3fef3a386866040518363ffffffff1660e01b8152600401611e9b9291906133e9565b6040805180830381600087803b158015611eb457600080fd5b505af1158015611ec8573d6000803e3d6000fd5b505050506040513d601f19601f82011682018060405250810190611eec9190612cde565b8093508194505050600660009054906101000a900473ffffffffffffffffffffffffffffffffffffffff1673ffffffffffffffffffffffffffffffffffffffff1663a9059cbb86836040518363ffffffff1660e01b8152600401611f519291906133e9565b602060405180830381600087803b158015611f6b57600080fd5b505af1158015611f7f573d6000803e3d6000fd5b505050506040513d601f19601f82011682018060405250810190611fa39190612b81565b509250925092565b600960009054906101000a900473ffffffffffffffffffffffffffffffffffffffff1681565b6000806000806000600a60009054906101000a900473ffffffffffffffffffffffffffffffffffffffff1673ffffffffffffffffffffffffffffffffffffffff1663fdc23e3688886040518363ffffffff1660e01b815260040161203692919061354f565b60a06040518083038186803b15801561204e57600080fd5b505afa158015612062573d6000803e3d6000fd5b505050506040513d601f19601f8201168201806040525081019061208691906129b0565b80955081965082975083985084995050505050509295509295909350565b600033905090565b600073ffffffffffffffffffffffffffffffffffffffff168373ffffffffffffffffffffffffffffffffffffffff16141561211c576040517f08c379a00000000000000000000000000000000000000000000000000000000081526004016121139061363f565b60405180910390fd5b600073ffffffffffffffffffffffffffffffffffffffff168273ffffffffffffffffffffffffffffffffffffffff16141561218c576040517f08c379a0000000000000000000000000000000000000000000000000000000008152600401612183906135bf565b60405180910390fd5b80600160008573ffffffffffffffffffffffffffffffffffffffff1673ffffffffffffffffffffffffffffffffffffffff16815260200190815260200160002060008473ffffffffffffffffffffffffffffffffffffffff1673ffffffffffffffffffffffffffffffffffffffff168152602001908152602001600020819055508173ffffffffffffffffffffffffffffffffffffffff168373ffffffffffffffffffffffffffffffffffffffff167f8c5be1e5ebec7d5bd14f71427d1e84f3dd0314c0f7b2291e5b200ac8c7c3b9258360405161226a919061365f565b60405180910390a3505050565b600073ffffffffffffffffffffffffffffffffffffffff168373ffffffffffffffffffffffffffffffffffffffff1614156122e7576040517f08c379a00000000000000000000000000000000000000000000000000000000081526004016122de9061361f565b60405180910390fd5b600073ffffffffffffffffffffffffffffffffffffffff168273ffffffffffffffffffffffffffffffffffffffff161415612357576040517f08c379a000000000000000000000000000000000000000000000000000000000815260040161234e9061357f565b60405180910390fd5b612362838383612606565b6123cd816040518060600160405280602681526020016139ba602691396000808773ffffffffffffffffffffffffffffffffffffffff1673ffffffffffffffffffffffffffffffffffffffff1681526020019081526020016000205461250c9092919063ffffffff16565b6000808573ffffffffffffffffffffffffffffffffffffffff1673ffffffffffffffffffffffffffffffffffffffff16815260200190815260200160002081905550612460816000808573ffffffffffffffffffffffffffffffffffffffff1673ffffffffffffffffffffffffffffffffffffffff1681526020019081526020016000205461256790919063ffffffff16565b6000808473ffffffffffffffffffffffffffffffffffffffff1673ffffffffffffffffffffffffffffffffffffffff168152602001908152602001600020819055508173ffffffffffffffffffffffffffffffffffffffff168373ffffffffffffffffffffffffffffffffffffffff167fddf252ad1be2c89b69c2b068fc378daa952ba7f163c4a11628f55a4df523b3ef836040516124ff919061365f565b60405180910390a3505050565b6000838311158290612554576040517f08c379a000000000000000000000000000000000000000000000000000000000815260040161254b919061352d565b60405180910390fd5b5060008385039050809150509392505050565b6000808284019050838110156125b2576040517f08c379a00000000000000000000000000000000000000000000000000000000081526004016125a9906135df565b60405180910390fd5b8091505092915050565b60006125fe83836040518060400160405280601e81526020017f536166654d6174683a207375627472616374696f6e206f766572666c6f77000081525061250c565b905092915050565b505050565b60008135905061261a8161395d565b92915050565b60008151905061262f8161395d565b92915050565b600082601f83011261264657600080fd5b8151612659612654826136f9565b6136cc565b9150818183526020840193506020810190508385602084028201111561267e57600080fd5b60005b838110156126ae578161269488826127d9565b845260208401935060208301925050600181019050612681565b5050505092915050565b600082601f8301126126c957600080fd5b81516126dc6126d782613721565b6136cc565b9150818183526020840193506020810190508360005b8381101561272257815186016127088882612842565b8452602084019350602083019250506001810190506126f2565b5050505092915050565b600082601f83011261273d57600080fd5b815161275061274b82613749565b6136cc565b9150818183526020840193506020810190508385602084028201111561277557600080fd5b60005b838110156127a5578161278b88826128ab565b845260208401935060208301925050600181019050612778565b5050505092915050565b6000815190506127be81613974565b92915050565b6000813590506127d38161398b565b92915050565b6000815190506127e88161398b565b92915050565b600082601f8301126127ff57600080fd5b813561281261280d82613771565b6136cc565b9150808252602083016020830185838301111561282e57600080fd5b61283983828461390a565b50505092915050565b600082601f83011261285357600080fd5b815161286661286182613771565b6136cc565b9150808252602083016020830185838301111561288257600080fd5b61288d838284613919565b50505092915050565b6000813590506128a5816139a2565b92915050565b6000815190506128ba816139a2565b92915050565b6000602082840312156128d257600080fd5b60006128e08482850161260b565b91505092915050565b600080604083850312156128fc57600080fd5b600061290a8582860161260b565b925050602061291b8582860161260b565b9150509250929050565b60008060006060848603121561293a57600080fd5b60006129488682870161260b565b93505060206129598682870161260b565b925050604061296a86828701612896565b9150509250925092565b6000806040838503121561298757600080fd5b60006129958582860161260b565b92505060206129a685828601612896565b9150509250929050565b600080600080600060a086880312156129c857600080fd5b60006129d688828901612620565b95505060206129e7888289016128ab565b94505060406129f8888289016128ab565b9350506060612a09888289016128ab565b9250506080612a1a888289016128ab565b9150509295509295909350565b600060208284031215612a3957600080fd5b600082015167ffffffffffffffff811115612a5357600080fd5b612a5f84828501612635565b91505092915050565b60008060008060008060c08789031215612a8157600080fd5b600087015167ffffffffffffffff811115612a9b57600080fd5b612aa789828a01612635565b965050602087015167ffffffffffffffff811115612ac457600080fd5b612ad089828a016126b8565b955050604087015167ffffffffffffffff811115612aed57600080fd5b612af989828a0161272c565b945050606087015167ffffffffffffffff811115612b1657600080fd5b612b2289828a0161272c565b935050608087015167ffffffffffffffff811115612b3f57600080fd5b612b4b89828a0161272c565b92505060a087015167ffffffffffffffff811115612b6857600080fd5b612b7489828a0161272c565b9150509295509295509295565b600060208284031215612b9357600080fd5b6000612ba1848285016127af565b91505092915050565b60008060408385031215612bbd57600080fd5b6000612bcb858286016127d9565b9250506020612bdc858286016128ab565b9150509250929050565b60008060408385031215612bf957600080fd5b600083013567ffffffffffffffff811115612c1357600080fd5b612c1f858286016127ee565b9250506020612c30858286016127c4565b9150509250929050565b60008060008060808587031215612c5057600080fd5b600085013567ffffffffffffffff811115612c6a57600080fd5b612c76878288016127ee565b9450506020612c8787828801612896565b9350506040612c9887828801612896565b9250506060612ca987828801612896565b91505092959194509250565b600060208284031215612cc757600080fd5b6000612cd5848285016128ab565b91505092915050565b60008060408385031215612cf157600080fd5b6000612cff858286016128ab565b9250506020612d10858286016128ab565b9150509250929050565b60008060008060808587031215612d3057600080fd5b6000612d3e878288016128ab565b9450506020612d4f878288016128ab565b9350506040612d60878288016128ab565b9250506060612d71878288016128ab565b91505092959194509250565b6000612d898383612f1f565b60208301905092915050565b6000612da18383612f3d565b905092915050565b6000612db5838361322d565b60208301905092915050565b612dca816138d4565b82525050565b612dd981613875565b82525050565b6000612dea826137cd565b612df48185613820565b9350612dff8361379d565b8060005b83811015612e30578151612e178882612d7d565b9750612e22836137f9565b925050600181019050612e03565b5085935050505092915050565b6000612e48826137d8565b612e528185613831565b935083602082028501612e64856137ad565b8060005b85811015612ea05784840389528151612e818582612d95565b9450612e8c83613806565b925060208a01995050600181019050612e68565b50829750879550505050505092915050565b6000612ebd826137e3565b612ec78185613842565b9350612ed2836137bd565b8060005b83811015612f03578151612eea8882612da9565b9750612ef583613813565b925050600181019050612ed6565b5085935050505092915050565b612f1981613887565b82525050565b612f2881613893565b82525050565b612f3781613893565b82525050565b6000612f48826137ee565b612f528185613853565b9350612f62818560208601613919565b612f6b8161394c565b840191505092915050565b6000612f81826137ee565b612f8b8185613864565b9350612f9b818560208601613919565b612fa48161394c565b840191505092915050565b6000612fbc602383613864565b91507f45524332303a207472616e7366657220746f20746865207a65726f206164647260008301527f65737300000000000000000000000000000000000000000000000000000000006020830152604082019050919050565b6000613022602683613864565b91507f4f776e61626c653a206e6577206f776e657220697320746865207a65726f206160008301527f64647265737300000000000000000000000000000000000000000000000000006020830152604082019050919050565b6000613088602283613864565b91507f45524332303a20617070726f766520746f20746865207a65726f20616464726560008301527f73730000000000000000000000000000000000000000000000000000000000006020830152604082019050919050565b60006130ee601b83613864565b91507f536166654d6174683a206164646974696f6e206f766572666c6f7700000000006000830152602082019050919050565b600061312e602083613864565b91507f4f776e61626c653a2063616c6c6572206973206e6f7420746865206f776e65726000830152602082019050919050565b600061316e602583613864565b91507f45524332303a207472616e736665722066726f6d20746865207a65726f20616460008301527f64726573730000000000000000000000000000000000000000000000000000006020830152604082019050919050565b60006131d4602483613864565b91507f45524332303a20617070726f76652066726f6d20746865207a65726f2061646460008301527f72657373000000000000000000000000000000000000000000000000000000006020830152604082019050919050565b613236816138bd565b82525050565b613245816138bd565b82525050565b613254816138c7565b82525050565b600060208201905061326f6000830184612dd0565b92915050565b600060608201905061328a6000830186612dc1565b6132976020830185612dd0565b6132a4604083018461323c565b949350505050565b60006060820190506132c16000830186612dc1565b81810360208301526132d38185612f76565b90506132e26040830184612f2e565b949350505050565b600060a0820190506132ff6000830188612dc1565b81810360208301526133118187612f76565b9050613320604083018661323c565b61332d606083018561323c565b61333a608083018461323c565b9695505050505050565b60006040820190506133596000830185612dc1565b613366602083018461323c565b9392505050565b60006080820190506133826000830187612dc1565b61338f602083018661323c565b61339c604083018561323c565b6133a9606083018461323c565b95945050505050565b60006060820190506133c76000830186612dd0565b6133d46020830185612dd0565b6133e1604083018461323c565b949350505050565b60006040820190506133fe6000830185612dd0565b61340b602083018461323c565b9392505050565b600060a0820190506134276000830188612dd0565b613434602083018761323c565b613441604083018661323c565b61344e606083018561323c565b61345b608083018461323c565b9695505050505050565b6000602082019050818103600083015261347f8184612ddf565b905092915050565b600060c08201905081810360008301526134a18189612ddf565b905081810360208301526134b58188612e3d565b905081810360408301526134c98187612eb2565b905081810360608301526134dd8186612eb2565b905081810360808301526134f18185612eb2565b905081810360a08301526135058184612eb2565b9050979650505050505050565b60006020820190506135276000830184612f10565b92915050565b600060208201905081810360008301526135478184612f76565b905092915050565b600060408201905081810360008301526135698185612f76565b90506135786020830184612f2e565b9392505050565b6000602082019050818103600083015261359881612faf565b9050919050565b600060208201905081810360008301526135b881613015565b9050919050565b600060208201905081810360008301526135d88161307b565b9050919050565b600060208201905081810360008301526135f8816130e1565b9050919050565b6000602082019050818103600083015261361881613121565b9050919050565b6000602082019050818103600083015261363881613161565b9050919050565b60006020820190508181036000830152613658816131c7565b9050919050565b6000602082019050613674600083018461323c565b92915050565b600060608201905061368f600083018661323c565b61369c602083018561323c565b6136a9604083018461323c565b949350505050565b60006020820190506136c6600083018461324b565b92915050565b6000604051905081810181811067ffffffffffffffff821117156136ef57600080fd5b8060405250919050565b600067ffffffffffffffff82111561371057600080fd5b602082029050602081019050919050565b600067ffffffffffffffff82111561373857600080fd5b602082029050602081019050919050565b600067ffffffffffffffff82111561376057600080fd5b602082029050602081019050919050565b600067ffffffffffffffff82111561378857600080fd5b601f19601f8301169050602081019050919050565b6000819050602082019050919050565b6000819050602082019050919050565b6000819050602082019050919050565b600081519050919050565b600081519050919050565b600081519050919050565b600081519050919050565b6000602082019050919050565b6000602082019050919050565b6000602082019050919050565b600082825260208201905092915050565b600082825260208201905092915050565b600082825260208201905092915050565b600082825260208201905092915050565b600082825260208201905092915050565b60006138808261389d565b9050919050565b60008115159050919050565b6000819050919050565b600073ffffffffffffffffffffffffffffffffffffffff82169050919050565b6000819050919050565b600060ff82169050919050565b60006138df826138e6565b9050919050565b60006138f1826138f8565b9050919050565b60006139038261389d565b9050919050565b82818337600083830152505050565b60005b8381101561393757808201518184015260208101905061391c565b83811115613946576000848401525b50505050565b6000601f19601f8301169050919050565b61396681613875565b811461397157600080fd5b50565b61397d81613887565b811461398857600080fd5b50565b61399481613893565b811461399f57600080fd5b50565b6139ab816138bd565b81146139b657600080fd5b5056fe45524332303a207472616e7366657220616d6f756e7420657863656564732062616c616e636545524332303a207472616e7366657220616d6f756e74206578636565647320616c6c6f77616e636545524332303a2064656372656173656420616c6c6f77616e63652062656c6f77207a65726fa2646970667358221220c7cb461ab58bdf9665cdf73da0f7964530ef48a601b03a34aa31b89728ea666264736f6c634300060c0033",
  "immutableReferences": {},
  "source": "// SPDX-License-Identifier: MIT\n\npragma solidity 0.6.12;\npragma experimental ABIEncoderV2;\n\nimport \"../openzeppelin/contracts/token/ERC20/ERC20.sol\";\nimport \"../openzeppelin/contracts/token/ERC20/IERC20.sol\";\nimport \"../openzeppelin/contracts/token/ERC20/SafeERC20.sol\";\nimport \"../openzeppelin/contracts/math/SafeMath.sol\";\nimport \"../openzeppelin/contracts/access/Ownable.sol\";\nimport \"../interface/IFund.sol\";\nimport \"../interface/IRisk.sol\";\nimport \"../interface/ITrade.sol\";\nimport \"../interface/IMine.sol\";\nimport \"../interface/IPool.sol\";\n\ncontract TeemoPool is ERC20(\"TMOLP\", \"TMOLP\"), IPool, Ownable {\n    address public tokenAddr;\n    address public quoteFactoryAddr;\n    address public fundAddr;\n    address public riskAddr;\n    address public tradeAddr;\n    address public mineAddr;\n\n    event OpenSwap(bytes32 indexed orderID, uint256 indexed openPrice);\n    event CloseSwap(\n        uint256 indexed closePrice,\n        uint256 indexed plFlag,\n        uint256 indexed plAmount\n    );\n\n    function initialize(address _tokenAddr, address _quoteFactoryAddr)\n        public\n        onlyOwner\n    {\n        tokenAddr = _tokenAddr;\n        quoteFactoryAddr = _quoteFactoryAddr;\n    }\n\n    function orderLength(address _userAddress) public override view returns (uint256) {\n        return ITrade(tradeAddr).orderLength(_userAddress);\n    }\n\n    function getAllOrderId(address _userAddress) public override view returns (bytes32[] memory) {\n        return ITrade(tradeAddr).getAllOrderId(_userAddress);\n    }\n\n    function getAllOrderInfo(address _userAddress) public override view returns (\n            bytes32[] memory allOrderID,\n            string[] memory allSymbol,\n            uint256[] memory allTokenAmount,\n            uint256[] memory allLever,\n            uint256[] memory allBsFlag,\n            uint256[] memory allOpenPrice\n        ) {\n        (allOrderID, allSymbol, allTokenAmount, allLever, allBsFlag, allOpenPrice) = ITrade(tradeAddr).getAllOrderInfo(_userAddress);\n    }\n\n    function getOrder(string memory _symbol, bytes32 _orderID) public override view returns (address userAddr, uint256 tokenAmount, uint256 lever, uint256 bsFlag, uint256 openPrice) {\n        (userAddr, tokenAmount, lever, bsFlag, openPrice) = ITrade(tradeAddr).getOrder(_symbol, _orderID);\n    }\n\n    function getTokenAddr() public override view returns (address) {\n        return tokenAddr;\n    }\n\n    function setFundAddr(address _fundAddr) public override onlyOwner {\n        fundAddr = _fundAddr;\n    }\n\n    function setRiskAddr(address _riskAddr) public override onlyOwner {\n        riskAddr = _riskAddr;\n    }\n\n    function setTradeAddr(address _tradeAddr) public override onlyOwner {\n        tradeAddr = _tradeAddr;\n    }\n\n    function setMineAddr(address _mineAddr) public override onlyOwner {\n        mineAddr = _mineAddr;\n    }\n\n    // LP\n    function deposit(address _userAddr, uint256 _tokenAmount)\n        public\n        override\n        returns (\n            uint256 teemoTokenAmount,\n            uint256 userTeemoTokenAmount,\n            uint256 lpAmount\n        )\n    {\n        IERC20(tokenAddr).transferFrom(_userAddr, address(this), _tokenAmount);\n        lpAmount = IFund(fundAddr).deposit(_userAddr, _tokenAmount);\n        //_mint(address(this),lpAmount);// lptoken\n        //\n        //approve(mineAddr,lpAmount);\n        //lptokenTMO\n        (teemoTokenAmount, userTeemoTokenAmount) = IMine(mineAddr).deposit(\n            _userAddr,\n            lpAmount\n        );\n    }\n\n    // LP\n    function withdraw(address _userAddr, uint256 _lpAmount)\n        public\n        override\n        returns (\n            uint256 teemoTokenAmount,\n            uint256 userTeemoTokenAmount,\n            uint256 tokenAmount\n        )\n    {\n        tokenAmount = IFund(fundAddr).withdraw(_userAddr, _lpAmount);\n        (teemoTokenAmount, userTeemoTokenAmount) = IMine(mineAddr).withdraw(\n            _userAddr,\n            _lpAmount\n        ); //lptokenTMO,lptoken\n        //_burn(address(this),_lpAmount);// lptoken\n        IERC20(tokenAddr).transfer(_userAddr, tokenAmount); // token\n    }\n\n    // \n    function openSwap(\n        string memory _symbol,\n        uint256 _tokenAmount,\n        uint256 _lever,\n        uint256 _bsFlag\n    ) public {\n        IERC20(tokenAddr).transferFrom(msg.sender, address(this), _tokenAmount);\n        (bytes32 orderID, uint256 openPrice) = ITrade(tradeAddr).openSwap(\n            msg.sender,\n            _symbol,\n            _tokenAmount,\n            _lever,\n            _bsFlag\n        );\n        emit OpenSwap(orderID, openPrice);\n    }\n\n    // \n    function closeSwap(string memory _symbol, bytes32 _orderID) public {\n        (\n            uint256 closePrice,\n            uint256 plFlag,\n            uint256 plAmount,\n            uint256 tradeAmount\n        ) = ITrade(tradeAddr).closeSwap(msg.sender, _symbol, _orderID);\n        IFund(fundAddr).tradePL(msg.sender, tradeAmount, plFlag, plAmount);\n        if (plFlag == 1) {\n            // \n            IERC20(tokenAddr).transfer(msg.sender, tradeAmount.add(plAmount));\n        } else {\n            IERC20(tokenAddr).transfer(msg.sender, tradeAmount.sub(plAmount));\n        }\n        emit CloseSwap(closePrice, plFlag, plAmount);\n    }\n}\n",
  "sourcePath": "/Users/tong/Projects/drep-project/teemo-private/contracts/pool/TeemoPool.sol",
  "compiler": {
    "name": "solc",
    "version": "0.6.12+commit.27d51765.Emscripten.clang"
  },
  "schemaVersion": "3.3.2",
  "updatedAt": "2020-12-08T06:54:38.161Z",
  "networkType": "ethereum",
  "devdoc": {
    "kind": "dev",
    "methods": {
      "allowance(address,address)": {
        "details": "See {IERC20-allowance}."
      },
      "approve(address,uint256)": {
        "details": "See {IERC20-approve}. Requirements: - `spender` cannot be the zero address."
      },
      "balanceOf(address)": {
        "details": "See {IERC20-balanceOf}."
      },
      "decimals()": {
        "details": "Returns the number of decimals used to get its user representation. For example, if `decimals` equals `2`, a balance of `505` tokens should be displayed to a user as `5,05` (`505 / 10 ** 2`). Tokens usually opt for a value of 18, imitating the relationship between Ether and Wei. This is the value {ERC20} uses, unless {_setupDecimals} is called. NOTE: This information is only used for _display_ purposes: it in no way affects any of the arithmetic of the contract, including {IERC20-balanceOf} and {IERC20-transfer}."
      },
      "decreaseAllowance(address,uint256)": {
        "details": "Atomically decreases the allowance granted to `spender` by the caller. This is an alternative to {approve} that can be used as a mitigation for problems described in {IERC20-approve}. Emits an {Approval} event indicating the updated allowance. Requirements: - `spender` cannot be the zero address. - `spender` must have allowance for the caller of at least `subtractedValue`."
      },
      "increaseAllowance(address,uint256)": {
        "details": "Atomically increases the allowance granted to `spender` by the caller. This is an alternative to {approve} that can be used as a mitigation for problems described in {IERC20-approve}. Emits an {Approval} event indicating the updated allowance. Requirements: - `spender` cannot be the zero address."
      },
      "name()": {
        "details": "Returns the name of the token."
      },
      "owner()": {
        "details": "Returns the address of the current owner."
      },
      "renounceOwnership()": {
        "details": "Leaves the contract without owner. It will not be possible to call `onlyOwner` functions anymore. Can only be called by the current owner. NOTE: Renouncing ownership will leave the contract without an owner, thereby removing any functionality that is only available to the owner."
      },
      "symbol()": {
        "details": "Returns the symbol of the token, usually a shorter version of the name."
      },
      "totalSupply()": {
        "details": "See {IERC20-totalSupply}."
      },
      "transfer(address,uint256)": {
        "details": "See {IERC20-transfer}. Requirements: - `recipient` cannot be the zero address. - the caller must have a balance of at least `amount`."
      },
      "transferFrom(address,address,uint256)": {
        "details": "See {IERC20-transferFrom}. Emits an {Approval} event indicating the updated allowance. This is not required by the EIP. See the note at the beginning of {ERC20}; Requirements: - `sender` and `recipient` cannot be the zero address. - `sender` must have a balance of at least `amount`. - the caller must have allowance for ``sender``'s tokens of at least `amount`."
      },
      "transferOwnership(address)": {
        "details": "Transfers ownership of the contract to a new account (`newOwner`). Can only be called by the current owner."
      }
    },
    "version": 1
  },
  "userdoc": {
    "kind": "user",
    "methods": {},
    "version": 1
  }
}