{
  "contractName": "TeemoPool",
  "abi": [
    {
      "anonymous": false,
      "inputs": [
        {
          "indexed": true,
          "internalType": "address",
          "name": "owner",
          "type": "address"
        },
        {
          "indexed": true,
          "internalType": "address",
          "name": "spender",
          "type": "address"
        },
        {
          "indexed": false,
          "internalType": "uint256",
          "name": "value",
          "type": "uint256"
        }
      ],
      "name": "Approval",
      "type": "event"
    },
    {
      "anonymous": false,
      "inputs": [
        {
          "indexed": true,
          "internalType": "uint256",
          "name": "tokenAmount",
          "type": "uint256"
        }
      ],
      "name": "CancelLimitSwap",
      "type": "event"
    },
    {
      "anonymous": false,
      "inputs": [
        {
          "indexed": true,
          "internalType": "address",
          "name": "userAddr",
          "type": "address"
        },
        {
          "indexed": true,
          "internalType": "uint256",
          "name": "closePrice",
          "type": "uint256"
        },
        {
          "indexed": true,
          "internalType": "uint256",
          "name": "closeType",
          "type": "uint256"
        },
        {
          "indexed": false,
          "internalType": "uint256",
          "name": "plFlag",
          "type": "uint256"
        },
        {
          "indexed": false,
          "internalType": "uint256",
          "name": "plAmount",
          "type": "uint256"
        }
      ],
      "name": "CloseLimitSwap",
      "type": "event"
    },
    {
      "anonymous": false,
      "inputs": [
        {
          "indexed": true,
          "internalType": "uint256",
          "name": "closePrice",
          "type": "uint256"
        },
        {
          "indexed": true,
          "internalType": "uint256",
          "name": "plFlag",
          "type": "uint256"
        },
        {
          "indexed": true,
          "internalType": "uint256",
          "name": "plAmount",
          "type": "uint256"
        }
      ],
      "name": "CloseMarketSwap",
      "type": "event"
    },
    {
      "anonymous": false,
      "inputs": [
        {
          "indexed": false,
          "internalType": "address",
          "name": "_userAddr",
          "type": "address"
        },
        {
          "indexed": true,
          "internalType": "uint256",
          "name": "lpAmount",
          "type": "uint256"
        },
        {
          "indexed": true,
          "internalType": "uint256",
          "name": "teemoTokenAmount",
          "type": "uint256"
        }
      ],
      "name": "LPDeposit",
      "type": "event"
    },
    {
      "anonymous": false,
      "inputs": [
        {
          "indexed": false,
          "internalType": "address",
          "name": "_userAddr",
          "type": "address"
        },
        {
          "indexed": true,
          "internalType": "uint256",
          "name": "tokenAmount",
          "type": "uint256"
        }
      ],
      "name": "LPWithdraw",
      "type": "event"
    },
    {
      "anonymous": false,
      "inputs": [
        {
          "indexed": true,
          "internalType": "bytes32",
          "name": "orderID",
          "type": "bytes32"
        },
        {
          "indexed": true,
          "internalType": "uint256",
          "name": "openPrice",
          "type": "uint256"
        }
      ],
      "name": "OpenLimitSwap",
      "type": "event"
    },
    {
      "anonymous": false,
      "inputs": [
        {
          "indexed": true,
          "internalType": "bytes32",
          "name": "orderID",
          "type": "bytes32"
        },
        {
          "indexed": true,
          "internalType": "uint256",
          "name": "openPrice",
          "type": "uint256"
        }
      ],
      "name": "OpenMarketSwap",
      "type": "event"
    },
    {
      "anonymous": false,
      "inputs": [
        {
          "indexed": true,
          "internalType": "address",
          "name": "previousOwner",
          "type": "address"
        },
        {
          "indexed": true,
          "internalType": "address",
          "name": "newOwner",
          "type": "address"
        }
      ],
      "name": "OwnershipTransferred",
      "type": "event"
    },
    {
      "anonymous": false,
      "inputs": [
        {
          "indexed": false,
          "internalType": "address",
          "name": "_userAddr",
          "type": "address"
        },
        {
          "indexed": true,
          "internalType": "uint256",
          "name": "tokenAmount",
          "type": "uint256"
        },
        {
          "indexed": true,
          "internalType": "uint256",
          "name": "teemoTokenAmount",
          "type": "uint256"
        }
      ],
      "name": "StartMine",
      "type": "event"
    },
    {
      "anonymous": false,
      "inputs": [
        {
          "indexed": false,
          "internalType": "address",
          "name": "_userAddr",
          "type": "address"
        },
        {
          "indexed": true,
          "internalType": "uint256",
          "name": "tokenAmount",
          "type": "uint256"
        },
        {
          "indexed": true,
          "internalType": "uint256",
          "name": "teemoTokenAmount",
          "type": "uint256"
        }
      ],
      "name": "StopMine",
      "type": "event"
    },
    {
      "anonymous": false,
      "inputs": [
        {
          "indexed": true,
          "internalType": "address",
          "name": "success",
          "type": "address"
        },
        {
          "indexed": true,
          "internalType": "uint256",
          "name": "tokenAmount",
          "type": "uint256"
        }
      ],
      "name": "TradeLimitSwap",
      "type": "event"
    },
    {
      "anonymous": false,
      "inputs": [
        {
          "indexed": true,
          "internalType": "address",
          "name": "from",
          "type": "address"
        },
        {
          "indexed": true,
          "internalType": "address",
          "name": "to",
          "type": "address"
        },
        {
          "indexed": false,
          "internalType": "uint256",
          "name": "value",
          "type": "uint256"
        }
      ],
      "name": "Transfer",
      "type": "event"
    },
    {
      "anonymous": false,
      "inputs": [
        {
          "indexed": true,
          "internalType": "uint256",
          "name": "pLimitPrice",
          "type": "uint256"
        },
        {
          "indexed": true,
          "internalType": "uint256",
          "name": "lLimitPrice",
          "type": "uint256"
        }
      ],
      "name": "UpdateSwap",
      "type": "event"
    },
    {
      "inputs": [
        {
          "internalType": "string",
          "name": "",
          "type": "string"
        }
      ],
      "name": "allModuleInfo",
      "outputs": [
        {
          "internalType": "address",
          "name": "",
          "type": "address"
        }
      ],
      "stateMutability": "view",
      "type": "function",
      "constant": true
    },
    {
      "inputs": [
        {
          "internalType": "address",
          "name": "owner",
          "type": "address"
        },
        {
          "internalType": "address",
          "name": "spender",
          "type": "address"
        }
      ],
      "name": "allowance",
      "outputs": [
        {
          "internalType": "uint256",
          "name": "",
          "type": "uint256"
        }
      ],
      "stateMutability": "view",
      "type": "function",
      "constant": true
    },
    {
      "inputs": [
        {
          "internalType": "address",
          "name": "spender",
          "type": "address"
        },
        {
          "internalType": "uint256",
          "name": "amount",
          "type": "uint256"
        }
      ],
      "name": "approve",
      "outputs": [
        {
          "internalType": "bool",
          "name": "",
          "type": "bool"
        }
      ],
      "stateMutability": "nonpayable",
      "type": "function"
    },
    {
      "inputs": [
        {
          "internalType": "address",
          "name": "account",
          "type": "address"
        }
      ],
      "name": "balanceOf",
      "outputs": [
        {
          "internalType": "uint256",
          "name": "",
          "type": "uint256"
        }
      ],
      "stateMutability": "view",
      "type": "function",
      "constant": true
    },
    {
      "inputs": [],
      "name": "decimals",
      "outputs": [
        {
          "internalType": "uint8",
          "name": "",
          "type": "uint8"
        }
      ],
      "stateMutability": "view",
      "type": "function",
      "constant": true
    },
    {
      "inputs": [
        {
          "internalType": "address",
          "name": "spender",
          "type": "address"
        },
        {
          "internalType": "uint256",
          "name": "subtractedValue",
          "type": "uint256"
        }
      ],
      "name": "decreaseAllowance",
      "outputs": [
        {
          "internalType": "bool",
          "name": "",
          "type": "bool"
        }
      ],
      "stateMutability": "nonpayable",
      "type": "function"
    },
    {
      "inputs": [],
      "name": "fundAddr",
      "outputs": [
        {
          "internalType": "address",
          "name": "",
          "type": "address"
        }
      ],
      "stateMutability": "view",
      "type": "function",
      "constant": true
    },
    {
      "inputs": [
        {
          "internalType": "address",
          "name": "spender",
          "type": "address"
        },
        {
          "internalType": "uint256",
          "name": "addedValue",
          "type": "uint256"
        }
      ],
      "name": "increaseAllowance",
      "outputs": [
        {
          "internalType": "bool",
          "name": "",
          "type": "bool"
        }
      ],
      "stateMutability": "nonpayable",
      "type": "function"
    },
    {
      "inputs": [],
      "name": "mainnetTokenAddr",
      "outputs": [
        {
          "internalType": "address",
          "name": "",
          "type": "address"
        }
      ],
      "stateMutability": "view",
      "type": "function",
      "constant": true
    },
    {
      "inputs": [],
      "name": "mineAddr",
      "outputs": [
        {
          "internalType": "address",
          "name": "",
          "type": "address"
        }
      ],
      "stateMutability": "view",
      "type": "function",
      "constant": true
    },
    {
      "inputs": [],
      "name": "name",
      "outputs": [
        {
          "internalType": "string",
          "name": "",
          "type": "string"
        }
      ],
      "stateMutability": "view",
      "type": "function",
      "constant": true
    },
    {
      "inputs": [],
      "name": "owner",
      "outputs": [
        {
          "internalType": "address",
          "name": "",
          "type": "address"
        }
      ],
      "stateMutability": "view",
      "type": "function",
      "constant": true
    },
    {
      "inputs": [],
      "name": "poolFactoryAddr",
      "outputs": [
        {
          "internalType": "address",
          "name": "",
          "type": "address"
        }
      ],
      "stateMutability": "view",
      "type": "function",
      "constant": true
    },
    {
      "inputs": [],
      "name": "quoteFactoryAddr",
      "outputs": [
        {
          "internalType": "address",
          "name": "",
          "type": "address"
        }
      ],
      "stateMutability": "view",
      "type": "function",
      "constant": true
    },
    {
      "inputs": [],
      "name": "renounceOwnership",
      "outputs": [],
      "stateMutability": "nonpayable",
      "type": "function"
    },
    {
      "inputs": [],
      "name": "riskAddr",
      "outputs": [
        {
          "internalType": "address",
          "name": "",
          "type": "address"
        }
      ],
      "stateMutability": "view",
      "type": "function",
      "constant": true
    },
    {
      "inputs": [],
      "name": "swapTradeAddr",
      "outputs": [
        {
          "internalType": "address",
          "name": "",
          "type": "address"
        }
      ],
      "stateMutability": "view",
      "type": "function",
      "constant": true
    },
    {
      "inputs": [],
      "name": "symbol",
      "outputs": [
        {
          "internalType": "string",
          "name": "",
          "type": "string"
        }
      ],
      "stateMutability": "view",
      "type": "function",
      "constant": true
    },
    {
      "inputs": [],
      "name": "tokenAddr",
      "outputs": [
        {
          "internalType": "address",
          "name": "",
          "type": "address"
        }
      ],
      "stateMutability": "view",
      "type": "function",
      "constant": true
    },
    {
      "inputs": [],
      "name": "totalSupply",
      "outputs": [
        {
          "internalType": "uint256",
          "name": "",
          "type": "uint256"
        }
      ],
      "stateMutability": "view",
      "type": "function",
      "constant": true
    },
    {
      "inputs": [
        {
          "internalType": "address",
          "name": "recipient",
          "type": "address"
        },
        {
          "internalType": "uint256",
          "name": "amount",
          "type": "uint256"
        }
      ],
      "name": "transfer",
      "outputs": [
        {
          "internalType": "bool",
          "name": "",
          "type": "bool"
        }
      ],
      "stateMutability": "nonpayable",
      "type": "function"
    },
    {
      "inputs": [
        {
          "internalType": "address",
          "name": "sender",
          "type": "address"
        },
        {
          "internalType": "address",
          "name": "recipient",
          "type": "address"
        },
        {
          "internalType": "uint256",
          "name": "amount",
          "type": "uint256"
        }
      ],
      "name": "transferFrom",
      "outputs": [
        {
          "internalType": "bool",
          "name": "",
          "type": "bool"
        }
      ],
      "stateMutability": "nonpayable",
      "type": "function"
    },
    {
      "inputs": [
        {
          "internalType": "address",
          "name": "newOwner",
          "type": "address"
        }
      ],
      "name": "transferOwnership",
      "outputs": [],
      "stateMutability": "nonpayable",
      "type": "function"
    },
    {
      "inputs": [
        {
          "internalType": "address",
          "name": "_tokenAddr",
          "type": "address"
        },
        {
          "internalType": "address",
          "name": "_mainnetTokenAddr",
          "type": "address"
        },
        {
          "internalType": "address",
          "name": "_poolFactoryAddr",
          "type": "address"
        },
        {
          "internalType": "address",
          "name": "_quoteFactoryAddr",
          "type": "address"
        }
      ],
      "name": "initialize",
      "outputs": [],
      "stateMutability": "nonpayable",
      "type": "function"
    },
    {
      "inputs": [
        {
          "internalType": "string",
          "name": "_moduleName",
          "type": "string"
        },
        {
          "internalType": "address",
          "name": "_moduleAddr",
          "type": "address"
        }
      ],
      "name": "setModuleAddr",
      "outputs": [],
      "stateMutability": "nonpayable",
      "type": "function"
    },
    {
      "inputs": [
        {
          "internalType": "string",
          "name": "_moduleName",
          "type": "string"
        }
      ],
      "name": "getModuleAddr",
      "outputs": [
        {
          "internalType": "address",
          "name": "moduleAddr",
          "type": "address"
        }
      ],
      "stateMutability": "view",
      "type": "function",
      "constant": true
    },
    {
      "inputs": [],
      "name": "getQuoteFactoryAddr",
      "outputs": [
        {
          "internalType": "address",
          "name": "",
          "type": "address"
        }
      ],
      "stateMutability": "nonpayable",
      "type": "function"
    },
    {
      "inputs": [
        {
          "internalType": "uint256",
          "name": "_tokenAmount",
          "type": "uint256"
        },
        {
          "internalType": "bool",
          "name": "mine",
          "type": "bool"
        }
      ],
      "name": "lpDeposit",
      "outputs": [],
      "stateMutability": "nonpayable",
      "type": "function"
    },
    {
      "inputs": [
        {
          "internalType": "uint256",
          "name": "_lpAmount",
          "type": "uint256"
        }
      ],
      "name": "startMine",
      "outputs": [],
      "stateMutability": "nonpayable",
      "type": "function"
    },
    {
      "inputs": [
        {
          "internalType": "uint256",
          "name": "_lpAmount",
          "type": "uint256"
        }
      ],
      "name": "lpWithdraw",
      "outputs": [],
      "stateMutability": "nonpayable",
      "type": "function"
    },
    {
      "inputs": [
        {
          "internalType": "uint256",
          "name": "_lpAmount",
          "type": "uint256"
        }
      ],
      "name": "stopMine",
      "outputs": [],
      "stateMutability": "nonpayable",
      "type": "function"
    },
    {
      "inputs": [
        {
          "internalType": "string",
          "name": "_symbol",
          "type": "string"
        },
        {
          "internalType": "uint256",
          "name": "_limitPrice",
          "type": "uint256"
        },
        {
          "internalType": "uint256",
          "name": "_tokenAmount",
          "type": "uint256"
        },
        {
          "internalType": "uint256",
          "name": "_lever",
          "type": "uint256"
        },
        {
          "internalType": "uint256",
          "name": "_bsFlag",
          "type": "uint256"
        },
        {
          "internalType": "uint256",
          "name": "_pLimitPrice",
          "type": "uint256"
        },
        {
          "internalType": "uint256",
          "name": "_lLimitPrice",
          "type": "uint256"
        }
      ],
      "name": "openLimitSwap",
      "outputs": [],
      "stateMutability": "nonpayable",
      "type": "function"
    },
    {
      "inputs": [
        {
          "internalType": "bytes32",
          "name": "_orderID",
          "type": "bytes32"
        }
      ],
      "name": "cancelLimitSwap",
      "outputs": [],
      "stateMutability": "nonpayable",
      "type": "function"
    },
    {
      "inputs": [
        {
          "internalType": "bytes32[]",
          "name": "_orderIDs",
          "type": "bytes32[]"
        },
        {
          "internalType": "uint256",
          "name": "_blockIndex",
          "type": "uint256"
        }
      ],
      "name": "tradeLimitSwaps",
      "outputs": [],
      "stateMutability": "nonpayable",
      "type": "function"
    },
    {
      "inputs": [
        {
          "internalType": "bytes32",
          "name": "_orderID",
          "type": "bytes32"
        },
        {
          "internalType": "uint256",
          "name": "_blockIndex",
          "type": "uint256"
        }
      ],
      "name": "tradeLimitSwap",
      "outputs": [],
      "stateMutability": "nonpayable",
      "type": "function"
    },
    {
      "inputs": [
        {
          "internalType": "string",
          "name": "_symbol",
          "type": "string"
        },
        {
          "internalType": "uint256",
          "name": "_tokenAmount",
          "type": "uint256"
        },
        {
          "internalType": "uint256",
          "name": "_lever",
          "type": "uint256"
        },
        {
          "internalType": "uint256",
          "name": "_bsFlag",
          "type": "uint256"
        },
        {
          "internalType": "uint256",
          "name": "_pLimitPrice",
          "type": "uint256"
        },
        {
          "internalType": "uint256",
          "name": "_lLimitPrice",
          "type": "uint256"
        },
        {
          "internalType": "uint256",
          "name": "_maxPrice",
          "type": "uint256"
        }
      ],
      "name": "openMarketSwap",
      "outputs": [],
      "stateMutability": "nonpayable",
      "type": "function"
    },
    {
      "inputs": [
        {
          "internalType": "bytes32",
          "name": "_orderID",
          "type": "bytes32"
        }
      ],
      "name": "closeMarketSwap",
      "outputs": [],
      "stateMutability": "nonpayable",
      "type": "function"
    },
    {
      "inputs": [
        {
          "internalType": "bytes32[]",
          "name": "_orderIDs",
          "type": "bytes32[]"
        },
        {
          "internalType": "uint256",
          "name": "_blockIndex",
          "type": "uint256"
        }
      ],
      "name": "closeLimitSwaps",
      "outputs": [],
      "stateMutability": "nonpayable",
      "type": "function"
    },
    {
      "inputs": [
        {
          "internalType": "bytes32",
          "name": "_orderID",
          "type": "bytes32"
        },
        {
          "internalType": "uint256",
          "name": "_blockIndex",
          "type": "uint256"
        }
      ],
      "name": "closeLimitSwap",
      "outputs": [],
      "stateMutability": "nonpayable",
      "type": "function"
    },
    {
      "inputs": [
        {
          "internalType": "bytes32",
          "name": "_orderID",
          "type": "bytes32"
        },
        {
          "internalType": "uint256",
          "name": "_pLimitPrice",
          "type": "uint256"
        },
        {
          "internalType": "uint256",
          "name": "_lLimitPrice",
          "type": "uint256"
        }
      ],
      "name": "updateSwapByPrice",
      "outputs": [],
      "stateMutability": "nonpayable",
      "type": "function"
    },
    {
      "inputs": [
        {
          "internalType": "bytes32",
          "name": "_orderID",
          "type": "bytes32"
        },
        {
          "internalType": "uint256",
          "name": "_pLimitRate",
          "type": "uint256"
        },
        {
          "internalType": "uint256",
          "name": "_lLimitRate",
          "type": "uint256"
        }
      ],
      "name": "updateSwapByRate",
      "outputs": [],
      "stateMutability": "nonpayable",
      "type": "function"
    }
  ],
  "bytecode": "0x60806040523480156200001157600080fd5b506040518060400160405280600581526020017f544d4f4c500000000000000000000000000000000000000000000000000000008152506040518060400160405280600581526020017f544d4f4c500000000000000000000000000000000000000000000000000000008152508160039080519060200190620000969291906200018d565b508060049080519060200190620000af9291906200018d565b506012600560006101000a81548160ff021916908360ff16021790555050506000620000e06200018560201b60201c565b905080600560016101000a81548173ffffffffffffffffffffffffffffffffffffffff021916908373ffffffffffffffffffffffffffffffffffffffff1602179055508073ffffffffffffffffffffffffffffffffffffffff16600073ffffffffffffffffffffffffffffffffffffffff167f8be0079c531659141344cd1fd0a4f28419497f9722a3daafe3b4186f6b6457e060405160405180910390a35062000233565b600033905090565b828054600181600116156101000203166002900490600052602060002090601f016020900481019282601f10620001d057805160ff191683800117855562000201565b8280016001018555821562000201579182015b8281111562000200578251825591602001919060010190620001e3565b5b50905062000210919062000214565b5090565b5b808211156200022f57600081600090555060010162000215565b5090565b61531680620002436000396000f3fe608060405234801561001057600080fd5b50600436106102535760003560e01c806385006ba211610146578063b06b9fbe116100c3578063dd62ed3e11610087578063dd62ed3e146106d2578063e2d5635914610702578063f28342f71461071e578063f2fde38b1461073c578063f585203914610758578063f8c8765e1461077657610253565b8063b06b9fbe1461061c578063bb294b601461063a578063c554ebcb1461066a578063cee87f5f1461069a578063dc58bd72146106b657610253565b8063a16098c01161010a578063a16098c014610564578063a457c2d714610582578063a72d18fb146105b2578063a9059cbb146105ce578063afcfb11a146105fe57610253565b806385006ba2146104d45780638da5cb5b146104f057806395d89b411461050e5780639aa9e7d21461052c5780639ff242961461054857610253565b80635dc96a45116101d45780636e04679f116101985780636e04679f146104445780636f5af2031461046057806370a082311461047c578063715018a6146104ac5780638268b8dd146104b657610253565b80635dc96a45146103b45780635fbe4d1d146103d0578063682cb911146103ee57806369cd55951461040c5780636d95fbf81461042857610253565b806323b872dd1161021b57806323b872dd146102fc578063313ce5671461032c578063395093511461034a5780633d3f25171461037a57806358aafa3d1461039657610253565b806306fdde0314610258578063095ea7b31461027657806309a5d5bf146102a657806318160ddd146102c257806322dbfdca146102e0575b600080fd5b610260610792565b60405161026d9190614e48565b60405180910390f35b610290600480360381019061028b919061418d565b610834565b60405161029d9190614e04565b60405180910390f35b6102c060048036038101906102bb919061456e565b610852565b005b6102ca610984565b6040516102d79190614fea565b60405180910390f35b6102fa60048036038101906102f5919061435c565b61098e565b005b6103166004803603810190610311919061413e565b610e32565b6040516103239190614e04565b60405180910390f35b610334610f0b565b604051610341919061502e565b60405180910390f35b610364600480360381019061035f919061418d565b610f22565b6040516103719190614e04565b60405180910390f35b610394600480360381019061038f919061435c565b610fd5565b005b61039e6110e1565b6040516103ab9190614bc8565b60405180910390f35b6103ce60048036038101906103c991906144b8565b61110b565b005b6103d8611233565b6040516103e59190614bc8565b60405180910390f35b6103f6611259565b6040516104039190614bc8565b60405180910390f35b61042660048036038101906104219190614333565b61127f565b005b610442600480360381019061043d91906144b8565b6116ea565b005b61045e600480360381019061045991906145c0565b611812565b005b61047a600480360381019061047591906141c9565b611c9f565b005b61049660048036038101906104919190614076565b611cda565b6040516104a39190614fea565b60405180910390f35b6104b4611d22565b005b6104be611e7a565b6040516104cb9190614bc8565b60405180910390f35b6104ee60048036038101906104e991906143d4565b611ea0565b005b6104f8611f8e565b6040516105059190614bc8565b60405180910390f35b610516611fb8565b6040516105239190614e48565b60405180910390f35b6105466004803603810190610541919061456e565b61205a565b005b610562600480360381019061055d919061456e565b6123ae565b005b61056c612703565b6040516105799190614bc8565b60405180910390f35b61059c6004803603810190610597919061418d565b612729565b6040516105a99190614e04565b60405180910390f35b6105cc60048036038101906105c791906141c9565b6127f6565b005b6105e860048036038101906105e3919061418d565b612831565b6040516105f59190614e04565b60405180910390f35b61060661284f565b6040516106139190614bc8565b60405180910390f35b610624612875565b6040516106319190614bc8565b60405180910390f35b610654600480360381019061064f9190614423565b61289b565b6040516106619190614bc8565b60405180910390f35b610684600480360381019061067f9190614423565b6128e4565b6040516106919190614bc8565b60405180910390f35b6106b460048036038101906106af9190614333565b61299c565b005b6106d060048036038101906106cb91906143d4565b612aae565b005b6106ec60048036038101906106e7919061409f565b612b9c565b6040516106f99190614fea565b60405180910390f35b61071c60048036038101906107179190614464565b612c23565b005b610726612f7e565b6040516107339190614bc8565b60405180910390f35b61075660048036038101906107519190614076565b612fa4565b005b61076061316b565b60405161076d9190614bc8565b60405180910390f35b610790600480360381019061078b91906140db565b613191565b005b606060038054600181600116156101000203166002900480601f01602080910402602001604051908101604052809291908181526020018280546001816001161561010002031660029004801561082a5780601f106107ff5761010080835404028352916020019161082a565b820191906000526020600020905b81548152906001019060200180831161080d57829003601f168201915b5050505050905090565b6000610848610841613332565b848461333a565b6001905092915050565b61085e30333084613505565b6000600b60009054906101000a900473ffffffffffffffffffffffffffffffffffffffff1673ffffffffffffffffffffffffffffffffffffffff1663f3fef3a333846040518363ffffffff1660e01b81526004016108bd929190614cf1565b602060405180830381600087803b1580156108d757600080fd5b505af11580156108eb573d6000803e3d6000fd5b505050506040513d601f19601f8201168201806040525081019061090f9190614597565b905061091b308361363f565b610948600660009054906101000a900473ffffffffffffffffffffffffffffffffffffffff1633836137ed565b807fec6b5f6209de8a40ef6115a103a7312d2e22f043a81da1965a5038c95753742e336040516109789190614be3565b60405180910390a25050565b6000600254905090565b6000806000806000806000600d60009054906101000a900473ffffffffffffffffffffffffffffffffffffffff1673ffffffffffffffffffffffffffffffffffffffff166322dbfdca8a8a6040518363ffffffff1660e01b81526004016109f6929190614e1f565b60e060405180830381600087803b158015610a1057600080fd5b505af1158015610a24573d6000803e3d6000fd5b505050506040513d601f19601f82011682018060405250810190610a489190614295565b96509650965096509650965096508615610e2757600b60009054906101000a900473ffffffffffffffffffffffffffffffffffffffff1673ffffffffffffffffffffffffffffffffffffffff1663a64ec3ba878386866040518563ffffffff1660e01b8152600401610abd9493929190614dbf565b600060405180830381600087803b158015610ad757600080fd5b505af1158015610aeb573d6000803e3d6000fd5b505050506000610b05600a8361392490919063ffffffff16565b9050600860009054906101000a900473ffffffffffffffffffffffffffffffffffffffff1673ffffffffffffffffffffffffffffffffffffffff1663d688c1b988836040518363ffffffff1660e01b8152600401610b64929190614d96565b600060405180830381600087803b158015610b7e57600080fd5b505af1158015610b92573d6000803e3d6000fd5b505050506001841415610cbb57600860009054906101000a900473ffffffffffffffffffffffffffffffffffffffff1673ffffffffffffffffffffffffffffffffffffffff16634e69d5606040518163ffffffff1660e01b815260040160206040518083038186803b158015610c0757600080fd5b505afa158015610c1b573d6000803e3d6000fd5b505050506040513d601f19601f82011682018060405250810190610c3f919061421d565b15610c8857610c83600660009054906101000a900473ffffffffffffffffffffffffffffffffffffffff1688610c7e868661396e90919063ffffffff16565b6137ed565b610cb6565b610cb5600660009054906101000a900473ffffffffffffffffffffffffffffffffffffffff1688846137ed565b5b610dd3565b600860009054906101000a900473ffffffffffffffffffffffffffffffffffffffff1673ffffffffffffffffffffffffffffffffffffffff16634e69d5606040518163ffffffff1660e01b815260040160206040518083038186803b158015610d2357600080fd5b505afa158015610d37573d6000803e3d6000fd5b505050506040513d601f19601f82011682018060405250810190610d5b919061421d565b15610da457610d9f600660009054906101000a900473ffffffffffffffffffffffffffffffffffffffff1688610d9a86866139c390919063ffffffff16565b6137ed565b610dd2565b610dd1600660009054906101000a900473ffffffffffffffffffffffffffffffffffffffff1688846137ed565b5b5b84868873ffffffffffffffffffffffffffffffffffffffff167f1631bac4756e0c03f6c433a46f1eab5c1caf99854cc351c23dc3eec9fc5d26d08787604051610e1d929190615005565b60405180910390a4505b505050505050505050565b6000610e3f848484613a0d565b610f0084610e4b613332565b610efb8560405180606001604052806028815260200161529460289139600160008b73ffffffffffffffffffffffffffffffffffffffff1673ffffffffffffffffffffffffffffffffffffffff1681526020019081526020016000206000610eb1613332565b73ffffffffffffffffffffffffffffffffffffffff1673ffffffffffffffffffffffffffffffffffffffff16815260200190815260200160002054613ca29092919063ffffffff16565b61333a565b600190509392505050565b6000600560009054906101000a900460ff16905090565b6000610fcb610f2f613332565b84610fc68560016000610f40613332565b73ffffffffffffffffffffffffffffffffffffffff1673ffffffffffffffffffffffffffffffffffffffff16815260200190815260200160002060008973ffffffffffffffffffffffffffffffffffffffff1673ffffffffffffffffffffffffffffffffffffffff1681526020019081526020016000205461396e90919063ffffffff16565b61333a565b6001905092915050565b6000806000600d60009054906101000a900473ffffffffffffffffffffffffffffffffffffffff1673ffffffffffffffffffffffffffffffffffffffff16633d3f251786866040518363ffffffff1660e01b8152600401611037929190614e1f565b606060405180830381600087803b15801561105157600080fd5b505af1158015611065573d6000803e3d6000fd5b505050506040513d601f19601f820116820180604052508101906110899190614246565b92509250925082156110da57808273ffffffffffffffffffffffffffffffffffffffff167f60b3f5c3416dc0099a7252e08ee74dfa33c0444317f770740cdffce1526d4e3760405160405180910390a35b5050505050565b6000600960009054906101000a900473ffffffffffffffffffffffffffffffffffffffff16905090565b611139600660009054906101000a900473ffffffffffffffffffffffffffffffffffffffff16333089613505565b600080600d60009054906101000a900473ffffffffffffffffffffffffffffffffffffffff1673ffffffffffffffffffffffffffffffffffffffff1663908219c6338b8b8b8b8b8b8b6040518963ffffffff1660e01b81526004016111a5989796959493929190614c6c565b6040805180830381600087803b1580156111be57600080fd5b505af11580156111d2573d6000803e3d6000fd5b505050506040513d601f19601f820116820180604052508101906111f69190614398565b9150915080827f25d9e37502f8a0459e86cf55a239ab08b467e42b619ebe6652b8224c3faae2f760405160405180910390a3505050505050505050565b600660009054906101000a900473ffffffffffffffffffffffffffffffffffffffff1681565b600b60009054906101000a900473ffffffffffffffffffffffffffffffffffffffff1681565b600080600080600d60009054906101000a900473ffffffffffffffffffffffffffffffffffffffff1673ffffffffffffffffffffffffffffffffffffffff16631e2a565b33876040518363ffffffff1660e01b81526004016112e2929190614bfe565b608060405180830381600087803b1580156112fc57600080fd5b505af1158015611310573d6000803e3d6000fd5b505050506040513d601f19601f820116820180604052508101906113349190614638565b9350935093509350600b60009054906101000a900473ffffffffffffffffffffffffffffffffffffffff1673ffffffffffffffffffffffffffffffffffffffff1663a64ec3ba338386866040518563ffffffff1660e01b815260040161139d9493929190614d1a565b600060405180830381600087803b1580156113b757600080fd5b505af11580156113cb573d6000803e3d6000fd5b5050505060006113e5600a8361392490919063ffffffff16565b9050600860009054906101000a900473ffffffffffffffffffffffffffffffffffffffff1673ffffffffffffffffffffffffffffffffffffffff1663d688c1b933836040518363ffffffff1660e01b8152600401611444929190614cf1565b600060405180830381600087803b15801561145e57600080fd5b505af1158015611472573d6000803e3d6000fd5b50505050600184141561159b57600860009054906101000a900473ffffffffffffffffffffffffffffffffffffffff1673ffffffffffffffffffffffffffffffffffffffff16634e69d5606040518163ffffffff1660e01b815260040160206040518083038186803b1580156114e757600080fd5b505afa1580156114fb573d6000803e3d6000fd5b505050506040513d601f19601f8201168201806040525081019061151f919061421d565b1561156857611563600660009054906101000a900473ffffffffffffffffffffffffffffffffffffffff163361155e868661396e90919063ffffffff16565b6137ed565b611596565b611595600660009054906101000a900473ffffffffffffffffffffffffffffffffffffffff1633846137ed565b5b6116b3565b600860009054906101000a900473ffffffffffffffffffffffffffffffffffffffff1673ffffffffffffffffffffffffffffffffffffffff16634e69d5606040518163ffffffff1660e01b815260040160206040518083038186803b15801561160357600080fd5b505afa158015611617573d6000803e3d6000fd5b505050506040513d601f19601f8201168201806040525081019061163b919061421d565b156116845761167f600660009054906101000a900473ffffffffffffffffffffffffffffffffffffffff163361167a86866139c390919063ffffffff16565b6137ed565b6116b2565b6116b1600660009054906101000a900473ffffffffffffffffffffffffffffffffffffffff1633846137ed565b5b5b8284867f8fbff8498ed65172cf01ecd87c4eca700c1295bc9d1e26b73a145a490b6342e560405160405180910390a4505050505050565b611718600660009054906101000a900473ffffffffffffffffffffffffffffffffffffffff16333088613505565b600080600d60009054906101000a900473ffffffffffffffffffffffffffffffffffffffff1673ffffffffffffffffffffffffffffffffffffffff166333a7eb5b338b8b8b8b8b8b8b6040518963ffffffff1660e01b8152600401611784989796959493929190614c6c565b6040805180830381600087803b15801561179d57600080fd5b505af11580156117b1573d6000803e3d6000fd5b505050506040513d601f19601f820116820180604052508101906117d59190614398565b9150915080827f1f466e013c07bc16eafd2ccf7854d6c715f9f3e8a6a4e87bc4e2d7c7b323cae660405160405180910390a3505050505050505050565b611840600660009054906101000a900473ffffffffffffffffffffffffffffffffffffffff16333085613505565b6000600b60009054906101000a900473ffffffffffffffffffffffffffffffffffffffff1673ffffffffffffffffffffffffffffffffffffffff166347e7ef2433856040518363ffffffff1660e01b815260040161189f929190614cf1565b602060405180830381600087803b1580156118b957600080fd5b505af11580156118cd573d6000803e3d6000fd5b505050506040513d601f19601f820116820180604052508101906118f19190614597565b90506000151582151514156119495761190a3382613cfd565b6000817f991d73f5e17d46d419b8d00ea1ba02099a33278bef6ba16f591c3869fc6658423360405161193c9190614be3565b60405180910390a3611c9a565b6119533082613cfd565b600080600e60009054906101000a900473ffffffffffffffffffffffffffffffffffffffff1673ffffffffffffffffffffffffffffffffffffffff166347e7ef2433856040518363ffffffff1660e01b81526004016119b3929190614cf1565b6040805180830381600087803b1580156119cc57600080fd5b505af11580156119e0573d6000803e3d6000fd5b505050506040513d601f19601f82011682018060405250810190611a0491906145fc565b91509150600860009054906101000a900473ffffffffffffffffffffffffffffffffffffffff1673ffffffffffffffffffffffffffffffffffffffff16634e69d5606040518163ffffffff1660e01b815260040160206040518083038186803b158015611a7057600080fd5b505afa158015611a84573d6000803e3d6000fd5b505050506040513d601f19601f82011682018060405250810190611aa8919061421d565b15611bce57600860009054906101000a900473ffffffffffffffffffffffffffffffffffffffff1673ffffffffffffffffffffffffffffffffffffffff1663c634d032836040518263ffffffff1660e01b8152600401611b089190614fea565b600060405180830381600087803b158015611b2257600080fd5b505af1158015611b36573d6000803e3d6000fd5b50505050600860009054906101000a900473ffffffffffffffffffffffffffffffffffffffff1673ffffffffffffffffffffffffffffffffffffffff1663cd049a9333836040518363ffffffff1660e01b8152600401611b97929190614cf1565b600060405180830381600087803b158015611bb157600080fd5b505af1158015611bc5573d6000803e3d6000fd5b50505050611c5e565b600860009054906101000a900473ffffffffffffffffffffffffffffffffffffffff1673ffffffffffffffffffffffffffffffffffffffff1663d544651833836040518363ffffffff1660e01b8152600401611c2b929190614cf1565b600060405180830381600087803b158015611c4557600080fd5b505af1158015611c59573d6000803e3d6000fd5b505050505b80837f991d73f5e17d46d419b8d00ea1ba02099a33278bef6ba16f591c3869fc66584233604051611c8f9190614be3565b60405180910390a350505b505050565b60005b8251811015611cd557611cc8838281518110611cba57fe5b60200260200101518361098e565b8080600101915050611ca2565b505050565b60008060008373ffffffffffffffffffffffffffffffffffffffff1673ffffffffffffffffffffffffffffffffffffffff168152602001908152602001600020549050919050565b611d2a613332565b73ffffffffffffffffffffffffffffffffffffffff16600560019054906101000a900473ffffffffffffffffffffffffffffffffffffffff1673ffffffffffffffffffffffffffffffffffffffff1614611db9576040517f08c379a0000000000000000000000000000000000000000000000000000000008152600401611db090614f2a565b60405180910390fd5b600073ffffffffffffffffffffffffffffffffffffffff16600560019054906101000a900473ffffffffffffffffffffffffffffffffffffffff1673ffffffffffffffffffffffffffffffffffffffff167f8be0079c531659141344cd1fd0a4f28419497f9722a3daafe3b4186f6b6457e060405160405180910390a36000600560016101000a81548173ffffffffffffffffffffffffffffffffffffffff021916908373ffffffffffffffffffffffffffffffffffffffff160217905550565b600760009054906101000a900473ffffffffffffffffffffffffffffffffffffffff1681565b600080600d60009054906101000a900473ffffffffffffffffffffffffffffffffffffffff1673ffffffffffffffffffffffffffffffffffffffff166334772557338787876040518563ffffffff1660e01b8152600401611f049493929190614c27565b6040805180830381600087803b158015611f1d57600080fd5b505af1158015611f31573d6000803e3d6000fd5b505050506040513d601f19601f82011682018060405250810190611f5591906145fc565b9150915080827f634910b514717fe132500771fb9e0ca49e263609b88f4cc5aa1c6507b4e0bede60405160405180910390a35050505050565b6000600560019054906101000a900473ffffffffffffffffffffffffffffffffffffffff16905090565b606060048054600181600116156101000203166002900480601f0160208091040260200160405190810160405280929190818152602001828054600181600116156101000203166002900480156120505780601f1061202557610100808354040283529160200191612050565b820191906000526020600020905b81548152906001019060200180831161203357829003601f168201915b5050505050905090565b600080600e60009054906101000a900473ffffffffffffffffffffffffffffffffffffffff1673ffffffffffffffffffffffffffffffffffffffff1663f3fef3a333856040518363ffffffff1660e01b81526004016120ba929190614cf1565b6040805180830381600087803b1580156120d357600080fd5b505af11580156120e7573d6000803e3d6000fd5b505050506040513d601f19601f8201168201806040525081019061210b91906145fc565b9150915061211a3033856137ed565b600860009054906101000a900473ffffffffffffffffffffffffffffffffffffffff1673ffffffffffffffffffffffffffffffffffffffff16634e69d5606040518163ffffffff1660e01b815260040160206040518083038186803b15801561218257600080fd5b505afa158015612196573d6000803e3d6000fd5b505050506040513d601f19601f820116820180604052508101906121ba919061421d565b156122e057600860009054906101000a900473ffffffffffffffffffffffffffffffffffffffff1673ffffffffffffffffffffffffffffffffffffffff1663c634d032836040518263ffffffff1660e01b815260040161221a9190614fea565b600060405180830381600087803b15801561223457600080fd5b505af1158015612248573d6000803e3d6000fd5b50505050600860009054906101000a900473ffffffffffffffffffffffffffffffffffffffff1673ffffffffffffffffffffffffffffffffffffffff1663cd049a9333836040518363ffffffff1660e01b81526004016122a9929190614cf1565b600060405180830381600087803b1580156122c357600080fd5b505af11580156122d7573d6000803e3d6000fd5b50505050612370565b600860009054906101000a900473ffffffffffffffffffffffffffffffffffffffff1673ffffffffffffffffffffffffffffffffffffffff1663d544651833836040518363ffffffff1660e01b815260040161233d929190614cf1565b600060405180830381600087803b15801561235757600080fd5b505af115801561236b573d6000803e3d6000fd5b505050505b80837fc10b273d1e1478889bf14cfc20976c0178f47d6164f92d53745fe0c67988201f336040516123a19190614be3565b60405180910390a3505050565b6123ba30333084613505565b600080600e60009054906101000a900473ffffffffffffffffffffffffffffffffffffffff1673ffffffffffffffffffffffffffffffffffffffff166347e7ef2433856040518363ffffffff1660e01b815260040161241a929190614cf1565b6040805180830381600087803b15801561243357600080fd5b505af1158015612447573d6000803e3d6000fd5b505050506040513d601f19601f8201168201806040525081019061246b91906145fc565b91509150600860009054906101000a900473ffffffffffffffffffffffffffffffffffffffff1673ffffffffffffffffffffffffffffffffffffffff16634e69d5606040518163ffffffff1660e01b815260040160206040518083038186803b1580156124d757600080fd5b505afa1580156124eb573d6000803e3d6000fd5b505050506040513d601f19601f8201168201806040525081019061250f919061421d565b1561263557600860009054906101000a900473ffffffffffffffffffffffffffffffffffffffff1673ffffffffffffffffffffffffffffffffffffffff1663c634d032836040518263ffffffff1660e01b815260040161256f9190614fea565b600060405180830381600087803b15801561258957600080fd5b505af115801561259d573d6000803e3d6000fd5b50505050600860009054906101000a900473ffffffffffffffffffffffffffffffffffffffff1673ffffffffffffffffffffffffffffffffffffffff1663cd049a9333836040518363ffffffff1660e01b81526004016125fe929190614cf1565b600060405180830381600087803b15801561261857600080fd5b505af115801561262c573d6000803e3d6000fd5b505050506126c5565b600860009054906101000a900473ffffffffffffffffffffffffffffffffffffffff1673ffffffffffffffffffffffffffffffffffffffff1663d544651833836040518363ffffffff1660e01b8152600401612692929190614cf1565b600060405180830381600087803b1580156126ac57600080fd5b505af11580156126c0573d6000803e3d6000fd5b505050505b81837fab5f5548654b65d796f84aaee73cdd7fea9a28bf7a29fb80cb4451425797b4e6336040516126f69190614be3565b60405180910390a3505050565b600d60009054906101000a900473ffffffffffffffffffffffffffffffffffffffff1681565b60006127ec612736613332565b846127e7856040518060600160405280602581526020016152bc6025913960016000612760613332565b73ffffffffffffffffffffffffffffffffffffffff1673ffffffffffffffffffffffffffffffffffffffff16815260200190815260200160002060008a73ffffffffffffffffffffffffffffffffffffffff1673ffffffffffffffffffffffffffffffffffffffff16815260200190815260200160002054613ca29092919063ffffffff16565b61333a565b6001905092915050565b60005b825181101561282c5761281f83828151811061281157fe5b602002602001015183610fd5565b80806001019150506127f9565b505050565b600061284561283e613332565b8484613a0d565b6001905092915050565b600960009054906101000a900473ffffffffffffffffffffffffffffffffffffffff1681565b600860009054906101000a900473ffffffffffffffffffffffffffffffffffffffff1681565b600a818051602081018201805184825260208301602085012081835280955050505050506000915054906101000a900473ffffffffffffffffffffffffffffffffffffffff1681565b6000600a826040516128f69190614bb1565b908152602001604051809103902060009054906101000a900473ffffffffffffffffffffffffffffffffffffffff169050600073ffffffffffffffffffffffffffffffffffffffff168173ffffffffffffffffffffffffffffffffffffffff161415612997576040517f08c379a000000000000000000000000000000000000000000000000000000000815260040161298e90614eaa565b60405180910390fd5b919050565b6000600d60009054906101000a900473ffffffffffffffffffffffffffffffffffffffff1673ffffffffffffffffffffffffffffffffffffffff1663fd0ceefb33846040518363ffffffff1660e01b81526004016129fb929190614bfe565b602060405180830381600087803b158015612a1557600080fd5b505af1158015612a29573d6000803e3d6000fd5b505050506040513d601f19601f82011682018060405250810190612a4d9190614597565b9050612a7d600660009054906101000a900473ffffffffffffffffffffffffffffffffffffffff16333084613505565b807fde92ebff3e22b9f7cb899264130ad9f45c1b3c0dd3cd3b222814e343fafa22b960405160405180910390a25050565b600080600d60009054906101000a900473ffffffffffffffffffffffffffffffffffffffff1673ffffffffffffffffffffffffffffffffffffffff166326b3e792338787876040518563ffffffff1660e01b8152600401612b129493929190614c27565b6040805180830381600087803b158015612b2b57600080fd5b505af1158015612b3f573d6000803e3d6000fd5b505050506040513d601f19601f82011682018060405250810190612b6391906145fc565b9150915080827f634910b514717fe132500771fb9e0ca49e263609b88f4cc5aa1c6507b4e0bede60405160405180910390a35050505050565b6000600160008473ffffffffffffffffffffffffffffffffffffffff1673ffffffffffffffffffffffffffffffffffffffff16815260200190815260200160002060008373ffffffffffffffffffffffffffffffffffffffff1673ffffffffffffffffffffffffffffffffffffffff16815260200190815260200160002054905092915050565b612c2b613332565b73ffffffffffffffffffffffffffffffffffffffff16600560019054906101000a900473ffffffffffffffffffffffffffffffffffffffff1673ffffffffffffffffffffffffffffffffffffffff1614612cba576040517f08c379a0000000000000000000000000000000000000000000000000000000008152600401612cb190614f2a565b60405180910390fd5b80600a83604051612ccb9190614bb1565b908152602001604051809103902060006101000a81548173ffffffffffffffffffffffffffffffffffffffff021916908373ffffffffffffffffffffffffffffffffffffffff1602179055506040518060400160405280600481526020017f46554e44000000000000000000000000000000000000000000000000000000008152508051906020012082805190602001201415612db057612d6b826128e4565b600b60006101000a81548173ffffffffffffffffffffffffffffffffffffffff021916908373ffffffffffffffffffffffffffffffffffffffff160217905550612f7a565b6040518060400160405280600481526020017f5249534b000000000000000000000000000000000000000000000000000000008152508051906020012082805190602001201415612e4957612e04826128e4565b600c60006101000a81548173ffffffffffffffffffffffffffffffffffffffff021916908373ffffffffffffffffffffffffffffffffffffffff160217905550612f79565b6040518060400160405280600981526020017f53574150545241444500000000000000000000000000000000000000000000008152508051906020012082805190602001201415612ee257612e9d826128e4565b600d60006101000a81548173ffffffffffffffffffffffffffffffffffffffff021916908373ffffffffffffffffffffffffffffffffffffffff160217905550612f78565b6040518060400160405280600481526020017f4d494e45000000000000000000000000000000000000000000000000000000008152508051906020012082805190602001201415612f7757612f36826128e4565b600e60006101000a81548173ffffffffffffffffffffffffffffffffffffffff021916908373ffffffffffffffffffffffffffffffffffffffff1602179055505b5b5b5b5050565b600e60009054906101000a900473ffffffffffffffffffffffffffffffffffffffff1681565b612fac613332565b73ffffffffffffffffffffffffffffffffffffffff16600560019054906101000a900473ffffffffffffffffffffffffffffffffffffffff1673ffffffffffffffffffffffffffffffffffffffff161461303b576040517f08c379a000000000000000000000000000000000000000000000000000000000815260040161303290614f2a565b60405180910390fd5b600073ffffffffffffffffffffffffffffffffffffffff168173ffffffffffffffffffffffffffffffffffffffff1614156130ab576040517f08c379a00000000000000000000000000000000000000000000000000000000081526004016130a290614eca565b60405180910390fd5b8073ffffffffffffffffffffffffffffffffffffffff16600560019054906101000a900473ffffffffffffffffffffffffffffffffffffffff1673ffffffffffffffffffffffffffffffffffffffff167f8be0079c531659141344cd1fd0a4f28419497f9722a3daafe3b4186f6b6457e060405160405180910390a380600560016101000a81548173ffffffffffffffffffffffffffffffffffffffff021916908373ffffffffffffffffffffffffffffffffffffffff16021790555050565b600c60009054906101000a900473ffffffffffffffffffffffffffffffffffffffff1681565b613199613332565b73ffffffffffffffffffffffffffffffffffffffff16600560019054906101000a900473ffffffffffffffffffffffffffffffffffffffff1673ffffffffffffffffffffffffffffffffffffffff1614613228576040517f08c379a000000000000000000000000000000000000000000000000000000000815260040161321f90614f2a565b60405180910390fd5b83600660006101000a81548173ffffffffffffffffffffffffffffffffffffffff021916908373ffffffffffffffffffffffffffffffffffffffff16021790555082600760006101000a81548173ffffffffffffffffffffffffffffffffffffffff021916908373ffffffffffffffffffffffffffffffffffffffff16021790555081600860006101000a81548173ffffffffffffffffffffffffffffffffffffffff021916908373ffffffffffffffffffffffffffffffffffffffff16021790555080600960006101000a81548173ffffffffffffffffffffffffffffffffffffffff021916908373ffffffffffffffffffffffffffffffffffffffff16021790555050505050565b600033905090565b600073ffffffffffffffffffffffffffffffffffffffff168373ffffffffffffffffffffffffffffffffffffffff1614156133aa576040517f08c379a00000000000000000000000000000000000000000000000000000000081526004016133a190614f8a565b60405180910390fd5b600073ffffffffffffffffffffffffffffffffffffffff168273ffffffffffffffffffffffffffffffffffffffff16141561341a576040517f08c379a000000000000000000000000000000000000000000000000000000000815260040161341190614eea565b60405180910390fd5b80600160008573ffffffffffffffffffffffffffffffffffffffff1673ffffffffffffffffffffffffffffffffffffffff16815260200190815260200160002060008473ffffffffffffffffffffffffffffffffffffffff1673ffffffffffffffffffffffffffffffffffffffff168152602001908152602001600020819055508173ffffffffffffffffffffffffffffffffffffffff168373ffffffffffffffffffffffffffffffffffffffff167f8c5be1e5ebec7d5bd14f71427d1e84f3dd0314c0f7b2291e5b200ac8c7c3b925836040516134f89190614fea565b60405180910390a3505050565b600060608573ffffffffffffffffffffffffffffffffffffffff166323b872dd86868660405160240161353a93929190614d5f565b6040516020818303038152906040529060e01b6020820180517bffffffffffffffffffffffffffffffffffffffffffffffffffffffff83818316178352505050506040516135889190614b9a565b6000604051808303816000865af19150503d80600081146135c5576040519150601f19603f3d011682016040523d82523d6000602084013e6135ca565b606091505b50915091508180156135f857506000815114806135f75750808060200190518101906135f6919061421d565b5b5b613637576040517f08c379a000000000000000000000000000000000000000000000000000000000815260040161362e90614faa565b60405180910390fd5b505050505050565b600073ffffffffffffffffffffffffffffffffffffffff168273ffffffffffffffffffffffffffffffffffffffff1614156136af576040517f08c379a00000000000000000000000000000000000000000000000000000000081526004016136a690614f4a565b60405180910390fd5b6136bb82600083613e91565b6137268160405180606001604052806022815260200161524c602291396000808673ffffffffffffffffffffffffffffffffffffffff1673ffffffffffffffffffffffffffffffffffffffff16815260200190815260200160002054613ca29092919063ffffffff16565b6000808473ffffffffffffffffffffffffffffffffffffffff1673ffffffffffffffffffffffffffffffffffffffff1681526020019081526020016000208190555061377d816002546139c390919063ffffffff16565b600281905550600073ffffffffffffffffffffffffffffffffffffffff168273ffffffffffffffffffffffffffffffffffffffff167fddf252ad1be2c89b69c2b068fc378daa952ba7f163c4a11628f55a4df523b3ef836040516137e19190614fea565b60405180910390a35050565b600060608473ffffffffffffffffffffffffffffffffffffffff1663a9059cbb8585604051602401613820929190614d96565b6040516020818303038152906040529060e01b6020820180517bffffffffffffffffffffffffffffffffffffffffffffffffffffffff838183161783525050505060405161386e9190614b9a565b6000604051808303816000865af19150503d80600081146138ab576040519150601f19603f3d011682016040523d82523d6000602084013e6138b0565b606091505b50915091508180156138de57506000815114806138dd5750808060200190518101906138dc919061421d565b5b5b61391d576040517f08c379a000000000000000000000000000000000000000000000000000000000815260040161391490614e8a565b60405180910390fd5b5050505050565b600061396683836040518060400160405280601a81526020017f536166654d6174683a206469766973696f6e206279207a65726f000000000000815250613e96565b905092915050565b6000808284019050838110156139b9576040517f08c379a00000000000000000000000000000000000000000000000000000000081526004016139b090614f0a565b60405180910390fd5b8091505092915050565b6000613a0583836040518060400160405280601e81526020017f536166654d6174683a207375627472616374696f6e206f766572666c6f770000815250613ca2565b905092915050565b600073ffffffffffffffffffffffffffffffffffffffff168373ffffffffffffffffffffffffffffffffffffffff161415613a7d576040517f08c379a0000000000000000000000000000000000000000000000000000000008152600401613a7490614f6a565b60405180910390fd5b600073ffffffffffffffffffffffffffffffffffffffff168273ffffffffffffffffffffffffffffffffffffffff161415613aed576040517f08c379a0000000000000000000000000000000000000000000000000000000008152600401613ae490614e6a565b60405180910390fd5b613af8838383613e91565b613b638160405180606001604052806026815260200161526e602691396000808773ffffffffffffffffffffffffffffffffffffffff1673ffffffffffffffffffffffffffffffffffffffff16815260200190815260200160002054613ca29092919063ffffffff16565b6000808573ffffffffffffffffffffffffffffffffffffffff1673ffffffffffffffffffffffffffffffffffffffff16815260200190815260200160002081905550613bf6816000808573ffffffffffffffffffffffffffffffffffffffff1673ffffffffffffffffffffffffffffffffffffffff1681526020019081526020016000205461396e90919063ffffffff16565b6000808473ffffffffffffffffffffffffffffffffffffffff1673ffffffffffffffffffffffffffffffffffffffff168152602001908152602001600020819055508173ffffffffffffffffffffffffffffffffffffffff168373ffffffffffffffffffffffffffffffffffffffff167fddf252ad1be2c89b69c2b068fc378daa952ba7f163c4a11628f55a4df523b3ef83604051613c959190614fea565b60405180910390a3505050565b6000838311158290613cea576040517f08c379a0000000000000000000000000000000000000000000000000000000008152600401613ce19190614e48565b60405180910390fd5b5060008385039050809150509392505050565b600073ffffffffffffffffffffffffffffffffffffffff168273ffffffffffffffffffffffffffffffffffffffff161415613d6d576040517f08c379a0000000000000000000000000000000000000000000000000000000008152600401613d6490614fca565b60405180910390fd5b613d7960008383613e91565b613d8e8160025461396e90919063ffffffff16565b600281905550613de5816000808573ffffffffffffffffffffffffffffffffffffffff1673ffffffffffffffffffffffffffffffffffffffff1681526020019081526020016000205461396e90919063ffffffff16565b6000808473ffffffffffffffffffffffffffffffffffffffff1673ffffffffffffffffffffffffffffffffffffffff168152602001908152602001600020819055508173ffffffffffffffffffffffffffffffffffffffff16600073ffffffffffffffffffffffffffffffffffffffff167fddf252ad1be2c89b69c2b068fc378daa952ba7f163c4a11628f55a4df523b3ef83604051613e859190614fea565b60405180910390a35050565b505050565b60008083118290613edd576040517f08c379a0000000000000000000000000000000000000000000000000000000008152600401613ed49190614e48565b60405180910390fd5b506000838581613ee957fe5b049050809150509392505050565b600081359050613f06816151ef565b92915050565b600081519050613f1b816151ef565b92915050565b600082601f830112613f3257600080fd5b8135613f45613f4082615076565b615049565b91508181835260208401935060208101905083856020840282011115613f6a57600080fd5b60005b83811015613f9a5781613f808882613fce565b845260208401935060208301925050600181019050613f6d565b5050505092915050565b600081359050613fb381615206565b92915050565b600081519050613fc881615206565b92915050565b600081359050613fdd8161521d565b92915050565b600081519050613ff28161521d565b92915050565b600082601f83011261400957600080fd5b813561401c6140178261509e565b615049565b9150808252602083016020830185838301111561403857600080fd5b61404383828461519c565b50505092915050565b60008135905061405b81615234565b92915050565b60008151905061407081615234565b92915050565b60006020828403121561408857600080fd5b600061409684828501613ef7565b91505092915050565b600080604083850312156140b257600080fd5b60006140c085828601613ef7565b92505060206140d185828601613ef7565b9150509250929050565b600080600080608085870312156140f157600080fd5b60006140ff87828801613ef7565b945050602061411087828801613ef7565b935050604061412187828801613ef7565b925050606061413287828801613ef7565b91505092959194509250565b60008060006060848603121561415357600080fd5b600061416186828701613ef7565b935050602061417286828701613ef7565b92505060406141838682870161404c565b9150509250925092565b600080604083850312156141a057600080fd5b60006141ae85828601613ef7565b92505060206141bf8582860161404c565b9150509250929050565b600080604083850312156141dc57600080fd5b600083013567ffffffffffffffff8111156141f657600080fd5b61420285828601613f21565b92505060206142138582860161404c565b9150509250929050565b60006020828403121561422f57600080fd5b600061423d84828501613fb9565b91505092915050565b60008060006060848603121561425b57600080fd5b600061426986828701613fb9565b935050602061427a86828701613f0c565b925050604061428b86828701614061565b9150509250925092565b600080600080600080600060e0888a0312156142b057600080fd5b60006142be8a828b01613fb9565b97505060206142cf8a828b01613f0c565b96505060406142e08a828b01614061565b95505060606142f18a828b01614061565b94505060806143028a828b01614061565b93505060a06143138a828b01614061565b92505060c06143248a828b01614061565b91505092959891949750929550565b60006020828403121561434557600080fd5b600061435384828501613fce565b91505092915050565b6000806040838503121561436f57600080fd5b600061437d85828601613fce565b925050602061438e8582860161404c565b9150509250929050565b600080604083850312156143ab57600080fd5b60006143b985828601613fe3565b92505060206143ca85828601614061565b9150509250929050565b6000806000606084860312156143e957600080fd5b60006143f786828701613fce565b93505060206144088682870161404c565b92505060406144198682870161404c565b9150509250925092565b60006020828403121561443557600080fd5b600082013567ffffffffffffffff81111561444f57600080fd5b61445b84828501613ff8565b91505092915050565b6000806040838503121561447757600080fd5b600083013567ffffffffffffffff81111561449157600080fd5b61449d85828601613ff8565b92505060206144ae85828601613ef7565b9150509250929050565b600080600080600080600060e0888a0312156144d357600080fd5b600088013567ffffffffffffffff8111156144ed57600080fd5b6144f98a828b01613ff8565b975050602061450a8a828b0161404c565b965050604061451b8a828b0161404c565b955050606061452c8a828b0161404c565b945050608061453d8a828b0161404c565b93505060a061454e8a828b0161404c565b92505060c061455f8a828b0161404c565b91505092959891949750929550565b60006020828403121561458057600080fd5b600061458e8482850161404c565b91505092915050565b6000602082840312156145a957600080fd5b60006145b784828501614061565b91505092915050565b600080604083850312156145d357600080fd5b60006145e18582860161404c565b92505060206145f285828601613fa4565b9150509250929050565b6000806040838503121561460f57600080fd5b600061461d85828601614061565b925050602061462e85828601614061565b9150509250929050565b6000806000806080858703121561464e57600080fd5b600061465c87828801614061565b945050602061466d87828801614061565b935050604061467e87828801614061565b925050606061468f87828801614061565b91505092959194509250565b6146a481615166565b82525050565b6146b381615107565b82525050565b6146c281615119565b82525050565b6146d181615125565b82525050565b60006146e2826150ca565b6146ec81856150e0565b93506146fc8185602086016151ab565b80840191505092915050565b6000614713826150d5565b61471d81856150eb565b935061472d8185602086016151ab565b614736816151de565b840191505092915050565b600061474c826150d5565b61475681856150fc565b93506147668185602086016151ab565b80840191505092915050565b600061477f6023836150eb565b91507f45524332303a207472616e7366657220746f20746865207a65726f206164647260008301527f65737300000000000000000000000000000000000000000000000000000000006020830152604082019050919050565b60006147e5601f836150eb565b91507f5472616e7366657248656c7065723a205452414e534645525f4641494c4544006000830152602082019050919050565b60006148256019836150eb565b91507f6765744d6f64756c65416464723a206d6f64756c6520657272000000000000006000830152602082019050919050565b60006148656026836150eb565b91507f4f776e61626c653a206e6577206f776e657220697320746865207a65726f206160008301527f64647265737300000000000000000000000000000000000000000000000000006020830152604082019050919050565b60006148cb6022836150eb565b91507f45524332303a20617070726f766520746f20746865207a65726f20616464726560008301527f73730000000000000000000000000000000000000000000000000000000000006020830152604082019050919050565b6000614931601b836150eb565b91507f536166654d6174683a206164646974696f6e206f766572666c6f7700000000006000830152602082019050919050565b60006149716020836150eb565b91507f4f776e61626c653a2063616c6c6572206973206e6f7420746865206f776e65726000830152602082019050919050565b60006149b16021836150eb565b91507f45524332303a206275726e2066726f6d20746865207a65726f2061646472657360008301527f73000000000000000000000000000000000000000000000000000000000000006020830152604082019050919050565b6000614a176025836150eb565b91507f45524332303a207472616e736665722066726f6d20746865207a65726f20616460008301527f64726573730000000000000000000000000000000000000000000000000000006020830152604082019050919050565b6000614a7d6024836150eb565b91507f45524332303a20617070726f76652066726f6d20746865207a65726f2061646460008301527f72657373000000000000000000000000000000000000000000000000000000006020830152604082019050919050565b6000614ae36024836150eb565b91507f5472616e7366657248656c7065723a205452414e534645525f46524f4d5f464160008301527f494c4544000000000000000000000000000000000000000000000000000000006020830152604082019050919050565b6000614b49601f836150eb565b91507f45524332303a206d696e7420746f20746865207a65726f2061646472657373006000830152602082019050919050565b614b858161514f565b82525050565b614b9481615159565b82525050565b6000614ba682846146d7565b915081905092915050565b6000614bbd8284614741565b915081905092915050565b6000602082019050614bdd60008301846146aa565b92915050565b6000602082019050614bf8600083018461469b565b92915050565b6000604082019050614c13600083018561469b565b614c2060208301846146c8565b9392505050565b6000608082019050614c3c600083018761469b565b614c4960208301866146c8565b614c566040830185614b7c565b614c636060830184614b7c565b95945050505050565b600061010082019050614c82600083018b61469b565b8181036020830152614c94818a614708565b9050614ca36040830189614b7c565b614cb06060830188614b7c565b614cbd6080830187614b7c565b614cca60a0830186614b7c565b614cd760c0830185614b7c565b614ce460e0830184614b7c565b9998505050505050505050565b6000604082019050614d06600083018561469b565b614d136020830184614b7c565b9392505050565b6000608082019050614d2f600083018761469b565b614d3c6020830186614b7c565b614d496040830185614b7c565b614d566060830184614b7c565b95945050505050565b6000606082019050614d7460008301866146aa565b614d8160208301856146aa565b614d8e6040830184614b7c565b949350505050565b6000604082019050614dab60008301856146aa565b614db86020830184614b7c565b9392505050565b6000608082019050614dd460008301876146aa565b614de16020830186614b7c565b614dee6040830185614b7c565b614dfb6060830184614b7c565b95945050505050565b6000602082019050614e1960008301846146b9565b92915050565b6000604082019050614e3460008301856146c8565b614e416020830184614b7c565b9392505050565b60006020820190508181036000830152614e628184614708565b905092915050565b60006020820190508181036000830152614e8381614772565b9050919050565b60006020820190508181036000830152614ea3816147d8565b9050919050565b60006020820190508181036000830152614ec381614818565b9050919050565b60006020820190508181036000830152614ee381614858565b9050919050565b60006020820190508181036000830152614f03816148be565b9050919050565b60006020820190508181036000830152614f2381614924565b9050919050565b60006020820190508181036000830152614f4381614964565b9050919050565b60006020820190508181036000830152614f63816149a4565b9050919050565b60006020820190508181036000830152614f8381614a0a565b9050919050565b60006020820190508181036000830152614fa381614a70565b9050919050565b60006020820190508181036000830152614fc381614ad6565b9050919050565b60006020820190508181036000830152614fe381614b3c565b9050919050565b6000602082019050614fff6000830184614b7c565b92915050565b600060408201905061501a6000830185614b7c565b6150276020830184614b7c565b9392505050565b60006020820190506150436000830184614b8b565b92915050565b6000604051905081810181811067ffffffffffffffff8211171561506c57600080fd5b8060405250919050565b600067ffffffffffffffff82111561508d57600080fd5b602082029050602081019050919050565b600067ffffffffffffffff8211156150b557600080fd5b601f19601f8301169050602081019050919050565b600081519050919050565b600081519050919050565b600081905092915050565b600082825260208201905092915050565b600081905092915050565b60006151128261512f565b9050919050565b60008115159050919050565b6000819050919050565b600073ffffffffffffffffffffffffffffffffffffffff82169050919050565b6000819050919050565b600060ff82169050919050565b600061517182615178565b9050919050565b60006151838261518a565b9050919050565b60006151958261512f565b9050919050565b82818337600083830152505050565b60005b838110156151c95780820151818401526020810190506151ae565b838111156151d8576000848401525b50505050565b6000601f19601f8301169050919050565b6151f881615107565b811461520357600080fd5b50565b61520f81615119565b811461521a57600080fd5b50565b61522681615125565b811461523157600080fd5b50565b61523d8161514f565b811461524857600080fd5b5056fe45524332303a206275726e20616d6f756e7420657863656564732062616c616e636545524332303a207472616e7366657220616d6f756e7420657863656564732062616c616e636545524332303a207472616e7366657220616d6f756e74206578636565647320616c6c6f77616e636545524332303a2064656372656173656420616c6c6f77616e63652062656c6f77207a65726fa264697066735822122064b95b2cdbdde9129e4ec8e50b27b85df5200f442890f0c763c2570c24640b6a64736f6c634300060c0033",
  "immutableReferences": {},
  "source": "// SPDX-License-Identifier: MIT\n\npragma solidity >=0.6.12;\npragma experimental ABIEncoderV2;\n\nimport \"../openzeppelin/contracts/token/ERC20/ERC20.sol\";\nimport \"../openzeppelin/contracts/math/SafeMath.sol\";\nimport \"../openzeppelin/contracts/access/Ownable.sol\";\nimport '../libraries/TransferHelper.sol';\nimport \"../interface/IFund.sol\";\nimport \"../interface/IRisk.sol\";\nimport \"../interface/ISwapTrade.sol\";\nimport \"../interface/IMine.sol\";\nimport \"../interface/IPoolFactory.sol\";\nimport \"../interface/ITeemoPool.sol\";\n\ncontract TeemoPool is ERC20(\"TMOLP\", \"TMOLP\"), ITeemoPool, Ownable {\n    using SafeMath for uint256;\n\n    address public tokenAddr;\n    address public mainnetTokenAddr;\n    address public poolFactoryAddr;\n    address public quoteFactoryAddr;\n\n    mapping(string => address) public allModuleInfo;\n\n    address public fundAddr;\n    address public riskAddr;\n    address public swapTradeAddr;\n    address public mineAddr;\n\n    event OpenLimitSwap(bytes32 indexed orderID, uint256 indexed openPrice);\n    event CancelLimitSwap(uint256 indexed tokenAmount);\n    event TradeLimitSwap(address indexed success,uint256 indexed tokenAmount);\n    event OpenMarketSwap(bytes32 indexed orderID, uint256 indexed openPrice);\n    event CloseMarketSwap(uint256 indexed closePrice,uint256 indexed plFlag,uint256 indexed plAmount);\n    event CloseLimitSwap(address indexed userAddr,uint256 indexed closePrice,uint256 indexed closeType,uint256 plFlag,uint256 plAmount);\n    event UpdateSwap(uint256 indexed pLimitPrice, uint256 indexed lLimitPrice);\n\n    event LPDeposit(address _userAddr,uint256 indexed lpAmount,uint256 indexed teemoTokenAmount);\n    event LPWithdraw(address _userAddr,uint256 indexed tokenAmount);\n    event StartMine(address _userAddr,uint256 indexed tokenAmount,uint256 indexed teemoTokenAmount);\n    event StopMine(address _userAddr,uint256 indexed tokenAmount,uint256 indexed teemoTokenAmount);\n\n    function initialize(address _tokenAddr, address _mainnetTokenAddr, address _poolFactoryAddr, address _quoteFactoryAddr) public onlyOwner{\n        tokenAddr = _tokenAddr;\n        mainnetTokenAddr = _mainnetTokenAddr;\n        poolFactoryAddr = _poolFactoryAddr;\n        quoteFactoryAddr = _quoteFactoryAddr;\n    }\n\n    function setModuleAddr(string memory _moduleName,address _moduleAddr) public override onlyOwner {\n        allModuleInfo[_moduleName] = _moduleAddr;\n        if(keccak256(bytes(_moduleName)) == keccak256(bytes(\"FUND\"))){\n            fundAddr = getModuleAddr(_moduleName);\n        }else if(keccak256(bytes(_moduleName)) == keccak256(bytes(\"RISK\"))){\n            riskAddr = getModuleAddr(_moduleName);\n        }else if(keccak256(bytes(_moduleName)) == keccak256(bytes(\"SWAPTRADE\"))){\n            swapTradeAddr = getModuleAddr(_moduleName);\n        }else if(keccak256(bytes(_moduleName)) == keccak256(bytes(\"MINE\"))){\n            mineAddr = getModuleAddr(_moduleName);\n        }\n    }\n    function getModuleAddr(string memory _moduleName) public view returns (address moduleAddr) {\n        moduleAddr = allModuleInfo[_moduleName];\n        require(moduleAddr != address(0), \"getModuleAddr: module err\");\n    }\n    function getQuoteFactoryAddr() public override returns (address){\n        return quoteFactoryAddr;\n    }\n    // LP\n    function lpDeposit(uint256 _tokenAmount,bool mine) public {\n        TransferHelper.safeTransferFrom(tokenAddr,msg.sender,address(this), _tokenAmount);\n        //IERC20(tokenAddr).transferFrom(msg.sender, address(this), _tokenAmount);\n        uint256 lpAmount = IFund(fundAddr).deposit(msg.sender, _tokenAmount);\n        if(mine == false){\n            _mint(msg.sender,lpAmount);\n            emit LPDeposit(msg.sender, lpAmount, 0);\n        }else{\n            _mint(address(this),lpAmount);\n            (uint256 teemoTokenAmount,uint256 userTeemoTokenAmount) = IMine(mineAddr).deposit(msg.sender,lpAmount);\n            if(IPoolFactory(poolFactoryAddr).getStatus()){\n                IPoolFactory(poolFactoryAddr).mintToken(teemoTokenAmount);\n                IPoolFactory(poolFactoryAddr).safeTeemoTransfer(msg.sender,userTeemoTokenAmount);\n            }else{\n                IPoolFactory(poolFactoryAddr).updateBonus(msg.sender,userTeemoTokenAmount);\n            }\n            emit LPDeposit(msg.sender, lpAmount, userTeemoTokenAmount);\n        }    \n    }\n\n    // LP\n    function startMine(uint256 _lpAmount) public {\n        TransferHelper.safeTransferFrom(address(this),msg.sender,address(this), _lpAmount);\n        //transferFrom(msg.sender, address(this), _lpAmount);\n        (uint256 teemoTokenAmount, uint256 userTeemoTokenAmount) = IMine(mineAddr).deposit(msg.sender,_lpAmount);\n        if(IPoolFactory(poolFactoryAddr).getStatus()){\n            IPoolFactory(poolFactoryAddr).mintToken(teemoTokenAmount);\n            IPoolFactory(poolFactoryAddr).safeTeemoTransfer(msg.sender,userTeemoTokenAmount);\n        }else{\n            IPoolFactory(poolFactoryAddr).updateBonus(msg.sender,userTeemoTokenAmount);\n        }\n        emit StartMine(msg.sender, _lpAmount, teemoTokenAmount);\n    }\n\n    // LP\n    function lpWithdraw(uint256 _lpAmount) public {  \n        TransferHelper.safeTransferFrom(address(this),msg.sender,address(this),_lpAmount);\n        //transferFrom(msg.sender, address(this), _lpAmount);\n        uint256 tokenAmount = IFund(fundAddr).withdraw(msg.sender, _lpAmount);\n        _burn(address(this),_lpAmount);// lptoken\n        //IERC20(tokenAddr).transfer(msg.sender, tokenAmount); // token\n        TransferHelper.safeTransfer(tokenAddr,msg.sender,tokenAmount);\n        emit LPWithdraw(msg.sender, tokenAmount);\n    }\n\n    // LP\n    function stopMine(uint256 _lpAmount) public {\n        (uint256 teemoTokenAmount, uint256 userTeemoTokenAmount) = IMine(mineAddr).withdraw(msg.sender,_lpAmount); //lptokenTMO,lptoken\n        //transfer(msg.sender, _lpAmount);\n        TransferHelper.safeTransfer(address(this),msg.sender,_lpAmount);\n        if(IPoolFactory(poolFactoryAddr).getStatus()){\n            IPoolFactory(poolFactoryAddr).mintToken(teemoTokenAmount);\n            IPoolFactory(poolFactoryAddr).safeTeemoTransfer(msg.sender,userTeemoTokenAmount);\n        }else{\n            IPoolFactory(poolFactoryAddr).updateBonus(msg.sender,userTeemoTokenAmount);\n        }\n        emit StopMine(msg.sender, _lpAmount, userTeemoTokenAmount);\n    }\n\n    // \n    function openLimitSwap(string memory _symbol,uint256 _limitPrice,uint256 _tokenAmount,uint256 _lever,uint256 _bsFlag,uint256 _pLimitPrice,uint256 _lLimitPrice) public {\n        //IERC20(tokenAddr).transferFrom(msg.sender, address(this), _tokenAmount);\n        TransferHelper.safeTransferFrom(tokenAddr,msg.sender,address(this),_tokenAmount);\n        (bytes32 orderID, uint256 openPrice) = ISwapTrade(swapTradeAddr).openLimitSwap(msg.sender,_symbol,_limitPrice,_tokenAmount,_lever,_bsFlag,_pLimitPrice,_lLimitPrice);\n        emit OpenLimitSwap(orderID, openPrice);\n    }\n\n    // \n    function cancelLimitSwap(bytes32 _orderID) public {\n        uint256 tokenAmount = ISwapTrade(swapTradeAddr).cancelLimitSwap(msg.sender,_orderID);\n        //IERC20(tokenAddr).transferFrom(msg.sender, address(this), tokenAmount);\n        TransferHelper.safeTransferFrom(tokenAddr,msg.sender,address(this),tokenAmount);\n        emit CancelLimitSwap(tokenAmount);\n    }\n\n    // \n    function tradeLimitSwaps(bytes32[] memory _orderIDs,uint256 _blockIndex) public {\n        for(uint256 i=0;i<_orderIDs.length;i++){\n            tradeLimitSwap(_orderIDs[i],_blockIndex);\n        }\n    }\n    function tradeLimitSwap(bytes32 _orderID,uint256 _blockIndex) public {\n        (bool success,address userAddr,uint256 tokenAmount) = ISwapTrade(swapTradeAddr).tradeLimitSwap(_orderID,_blockIndex);\n        if(success){\n            emit TradeLimitSwap(userAddr,tokenAmount);\n        }\n    }        \n        \n    // \n    function openMarketSwap(string memory _symbol,uint256 _tokenAmount,uint256 _lever,uint256 _bsFlag,uint256 _pLimitPrice,uint256 _lLimitPrice, uint256 _maxPrice) public {\n        //IERC20(tokenAddr).transferFrom(msg.sender, address(this), _tokenAmount);\n        TransferHelper.safeTransferFrom(tokenAddr,msg.sender,address(this),_tokenAmount);\n        (bytes32 orderID, uint256 openPrice) = ISwapTrade(swapTradeAddr).openMarketSwap(msg.sender,_symbol,_tokenAmount,_lever,_bsFlag,_pLimitPrice,_lLimitPrice, _maxPrice);\n        emit OpenMarketSwap(orderID, openPrice);\n    }\n\n    // \n    function closeMarketSwap(bytes32 _orderID) public {\n        (uint256 closePrice,uint256 plFlag,uint256 plAmount,uint256 tradeAmount) = ISwapTrade(swapTradeAddr).closeMarketSwap(msg.sender, _orderID);\n        IFund(fundAddr).tradePL(msg.sender, tradeAmount, plFlag, plAmount);\n        uint256 mintAmount = tradeAmount.div(10);\n        IPoolFactory(poolFactoryAddr).mintGovToken(msg.sender, mintAmount);\n        if (plFlag == 1) {// \n            //IERC20(tokenAddr).transfer(msg.sender, tradeAmount.add(plAmount));\n            if(IPoolFactory(poolFactoryAddr).getStatus()){\n                TransferHelper.safeTransfer(tokenAddr,msg.sender,tradeAmount.add(plAmount));\n            }else{\n                TransferHelper.safeTransfer(tokenAddr,msg.sender,tradeAmount);\n            }\n        } else {\n            //IERC20(tokenAddr).transfer(msg.sender, tradeAmount.sub(plAmount));\n            if(IPoolFactory(poolFactoryAddr).getStatus()){\n                TransferHelper.safeTransfer(tokenAddr,msg.sender,tradeAmount.sub(plAmount));\n            }else{\n                TransferHelper.safeTransfer(tokenAddr,msg.sender,tradeAmount);\n            }\n        }\n        emit CloseMarketSwap(closePrice, plFlag, plAmount);\n    }\n\n    // ()\n    function closeLimitSwaps(bytes32[] memory _orderIDs,uint256 _blockIndex) public {\n        for(uint256 i=0;i<_orderIDs.length;i++){\n            closeLimitSwap(_orderIDs[i],_blockIndex);\n        }\n    }\n    function closeLimitSwap(bytes32 _orderID,uint256 _blockIndex) public {\n        (bool success,address userAddr,uint256 closePrice,uint256 closeType,uint256 plFlag,uint256 plAmount,uint256 tradeAmount) = ISwapTrade(swapTradeAddr).closeLimitSwap(_orderID,_blockIndex);\n        if(success){\n            IFund(fundAddr).tradePL(userAddr, tradeAmount, plFlag, plAmount);\n            uint256 mintAmount = tradeAmount.div(10);\n            IPoolFactory(poolFactoryAddr).mintGovToken(userAddr, mintAmount);\n            if (plFlag == 1) {// \n                //IERC20(tokenAddr).transfer(userAddr, tradeAmount.add(plAmount));\n                if(IPoolFactory(poolFactoryAddr).getStatus()){\n                    TransferHelper.safeTransfer(tokenAddr,userAddr,tradeAmount.add(plAmount));\n                }else{\n                   TransferHelper.safeTransfer(tokenAddr,userAddr,tradeAmount);\n                }\n            } else {\n                //IERC20(tokenAddr).transfer(userAddr, tradeAmount.sub(plAmount));\n                if(IPoolFactory(poolFactoryAddr).getStatus()){\n                    TransferHelper.safeTransfer(tokenAddr,userAddr,tradeAmount.sub(plAmount));\n                }else{\n                   TransferHelper.safeTransfer(tokenAddr,userAddr,tradeAmount);\n                }\n            }\n            emit CloseLimitSwap(userAddr,closePrice,closeType,plFlag,plAmount);\n        }\n    }\n\n    // \n    function updateSwapByPrice(bytes32 _orderID,uint256 _pLimitPrice,uint256 _lLimitPrice) public {\n        (uint256 pLimitRate,uint256 lLimitRate) = ISwapTrade(swapTradeAddr).updateSwapByPrice(msg.sender, _orderID,_pLimitPrice,_lLimitPrice);\n        emit UpdateSwap(pLimitRate, lLimitRate);\n    }\n\n    // \n    function updateSwapByRate(bytes32 _orderID,uint256 _pLimitRate,uint256 _lLimitRate) public {\n        (uint256 pLimitPrice,uint256 lLimitPrice) = ISwapTrade(swapTradeAddr).updateSwapByRate(msg.sender, _orderID,_pLimitRate,_lLimitRate);\n        emit UpdateSwap(pLimitPrice, lLimitPrice);\n    }    \n}\n",
  "sourcePath": "/Users/tong/Projects/drep-project/teemo-private/contracts/pool/TeemoPool.sol",
  "compiler": {
    "name": "solc",
    "version": "0.6.12+commit.27d51765.Emscripten.clang"
  },
  "schemaVersion": "3.3.2",
  "updatedAt": "2021-01-14T06:17:15.616Z",
  "networkType": "ethereum",
  "devdoc": {
    "kind": "dev",
    "methods": {
      "allowance(address,address)": {
        "details": "See {IERC20-allowance}."
      },
      "approve(address,uint256)": {
        "details": "See {IERC20-approve}. Requirements: - `spender` cannot be the zero address."
      },
      "balanceOf(address)": {
        "details": "See {IERC20-balanceOf}."
      },
      "decimals()": {
        "details": "Returns the number of decimals used to get its user representation. For example, if `decimals` equals `2`, a balance of `505` tokens should be displayed to a user as `5,05` (`505 / 10 ** 2`). Tokens usually opt for a value of 18, imitating the relationship between Ether and Wei. This is the value {ERC20} uses, unless {_setupDecimals} is called. NOTE: This information is only used for _display_ purposes: it in no way affects any of the arithmetic of the contract, including {IERC20-balanceOf} and {IERC20-transfer}."
      },
      "decreaseAllowance(address,uint256)": {
        "details": "Atomically decreases the allowance granted to `spender` by the caller. This is an alternative to {approve} that can be used as a mitigation for problems described in {IERC20-approve}. Emits an {Approval} event indicating the updated allowance. Requirements: - `spender` cannot be the zero address. - `spender` must have allowance for the caller of at least `subtractedValue`."
      },
      "increaseAllowance(address,uint256)": {
        "details": "Atomically increases the allowance granted to `spender` by the caller. This is an alternative to {approve} that can be used as a mitigation for problems described in {IERC20-approve}. Emits an {Approval} event indicating the updated allowance. Requirements: - `spender` cannot be the zero address."
      },
      "name()": {
        "details": "Returns the name of the token."
      },
      "owner()": {
        "details": "Returns the address of the current owner."
      },
      "renounceOwnership()": {
        "details": "Leaves the contract without owner. It will not be possible to call `onlyOwner` functions anymore. Can only be called by the current owner. NOTE: Renouncing ownership will leave the contract without an owner, thereby removing any functionality that is only available to the owner."
      },
      "symbol()": {
        "details": "Returns the symbol of the token, usually a shorter version of the name."
      },
      "totalSupply()": {
        "details": "See {IERC20-totalSupply}."
      },
      "transfer(address,uint256)": {
        "details": "See {IERC20-transfer}. Requirements: - `recipient` cannot be the zero address. - the caller must have a balance of at least `amount`."
      },
      "transferFrom(address,address,uint256)": {
        "details": "See {IERC20-transferFrom}. Emits an {Approval} event indicating the updated allowance. This is not required by the EIP. See the note at the beginning of {ERC20}; Requirements: - `sender` and `recipient` cannot be the zero address. - `sender` must have a balance of at least `amount`. - the caller must have allowance for ``sender``'s tokens of at least `amount`."
      },
      "transferOwnership(address)": {
        "details": "Transfers ownership of the contract to a new account (`newOwner`). Can only be called by the current owner."
      }
    },
    "version": 1
  },
  "userdoc": {
    "kind": "user",
    "methods": {},
    "version": 1
  }
}